{
  "src/CheckSender.sol": {
    "CheckSender": {
      "abi": [
        {
          "anonymous": false,
          "inputs": [
            {
              "indexed": true,
              "internalType": "address",
              "name": "sender",
              "type": "address"
            },
            {
              "indexed": false,
              "internalType": "bytes",
              "name": "data",
              "type": "bytes"
            }
          ],
          "name": "Log",
          "type": "event"
        },
        {
          "inputs": [],
          "name": "checkSender",
          "outputs": [],
          "stateMutability": "nonpayable",
          "type": "function"
        }
      ],
      "evm": {
        "bytecode": {
          "linkReferences": {},
          "object": "6080604052348015600f57600080fd5b506101458061001f6000396000f3fe608060405234801561001057600080fd5b506004361061002b5760003560e01c806347fb0bed14610030575b600080fd5b61003861003a565b005b3373ffffffffffffffffffffffffffffffffffffffff167f3d4342015303e7c1e55fa1b6a8c1391f56e7290b109bb8b9aa858996910bae076000366040516100839291906100eb565b60405180910390a2565b600082825260208201905092915050565b82818337600083830152505050565b6000601f19601f8301169050919050565b60006100ca838561008d565b93506100d783858461009e565b6100e0836100ad565b840190509392505050565b600060208201905081810360008301526101068184866100be565b9050939250505056fea26469706673582212207494a9132ecbac5d2f2737aa70b094741571970e2cf120a97d4f5f15a541b87464736f6c63430008190033",
          "opcodes": "PUSH1 0x80 PUSH1 0x40 MSTORE CALLVALUE DUP1 ISZERO PUSH1 0xF JUMPI PUSH1 0x0 DUP1 REVERT JUMPDEST POP PUSH2 0x145 DUP1 PUSH2 0x1F PUSH1 0x0 CODECOPY PUSH1 0x0 RETURN INVALID PUSH1 0x80 PUSH1 0x40 MSTORE CALLVALUE DUP1 ISZERO PUSH2 0x10 JUMPI PUSH1 0x0 DUP1 REVERT JUMPDEST POP PUSH1 0x4 CALLDATASIZE LT PUSH2 0x2B JUMPI PUSH1 0x0 CALLDATALOAD PUSH1 0xE0 SHR DUP1 PUSH4 0x47FB0BED EQ PUSH2 0x30 JUMPI JUMPDEST PUSH1 0x0 DUP1 REVERT JUMPDEST PUSH2 0x38 PUSH2 0x3A JUMP JUMPDEST STOP JUMPDEST CALLER PUSH20 0xFFFFFFFFFFFFFFFFFFFFFFFFFFFFFFFFFFFFFFFF AND PUSH32 0x3D4342015303E7C1E55FA1B6A8C1391F56E7290B109BB8B9AA858996910BAE07 PUSH1 0x0 CALLDATASIZE PUSH1 0x40 MLOAD PUSH2 0x83 SWAP3 SWAP2 SWAP1 PUSH2 0xEB JUMP JUMPDEST PUSH1 0x40 MLOAD DUP1 SWAP2 SUB SWAP1 LOG2 JUMP JUMPDEST PUSH1 0x0 DUP3 DUP3 MSTORE PUSH1 0x20 DUP3 ADD SWAP1 POP SWAP3 SWAP2 POP POP JUMP JUMPDEST DUP3 DUP2 DUP4 CALLDATACOPY PUSH1 0x0 DUP4 DUP4 ADD MSTORE POP POP POP JUMP JUMPDEST PUSH1 0x0 PUSH1 0x1F NOT PUSH1 0x1F DUP4 ADD AND SWAP1 POP SWAP2 SWAP1 POP JUMP JUMPDEST PUSH1 0x0 PUSH2 0xCA DUP4 DUP6 PUSH2 0x8D JUMP JUMPDEST SWAP4 POP PUSH2 0xD7 DUP4 DUP6 DUP5 PUSH2 0x9E JUMP JUMPDEST PUSH2 0xE0 DUP4 PUSH2 0xAD JUMP JUMPDEST DUP5 ADD SWAP1 POP SWAP4 SWAP3 POP POP POP JUMP JUMPDEST PUSH1 0x0 PUSH1 0x20 DUP3 ADD SWAP1 POP DUP2 DUP2 SUB PUSH1 0x0 DUP4 ADD MSTORE PUSH2 0x106 DUP2 DUP5 DUP7 PUSH2 0xBE JUMP JUMPDEST SWAP1 POP SWAP4 SWAP3 POP POP POP JUMP INVALID LOG2 PUSH5 0x6970667358 0x22 SLT KECCAK256 PUSH21 0x94A9132ECBAC5D2F2737AA70B094741571970E2CF1 KECCAK256 0xA9 PUSH30 0x4F5F15A541B87464736F6C63430008190033000000000000000000000000 "
        },
        "methodIdentifiers": {
          "checkSender()": "47fb0bed"
        }
      }
    }
  }
}