{"abi":[{"type":"function","name":"createArbitraryMessage","inputs":[{"name":"_contractToBeCalled","type":"address","internalType":"address"},{"name":"_encodedFunctionCall","type":"bytes","internalType":"bytes"}],"outputs":[{"name":"","type":"bytes","internalType":"bytes"}],"stateMutability":"pure"},{"type":"function","name":"messenger","inputs":[],"outputs":[{"name":"","type":"address","internalType":"contract ITeleporterMessenger"}],"stateMutability":"view"},{"type":"function","name":"sendMessage","inputs":[{"name":"_contractToBeCalled","type":"address","internalType":"address"},{"name":"_encodedFunctionCall","type":"bytes","internalType":"bytes"},{"name":"_destinationAdress","type":"address","internalType":"address"},{"name":"_destinationChain","type":"bytes32","internalType":"bytes32"},{"name":"_gasLimit","type":"uint256","internalType":"uint256"}],"outputs":[],"stateMutability":"nonpayable"}],"bytecode":{"object":"0x6080604052600080546001600160a01b03191673253b2784c75e510dd0ff1da844684a1ac0aa5fcf179055348015603557600080fd5b50610526806100456000396000f3fe608060405234801561001057600080fd5b50600436106100415760003560e01c80633cb747bf146100465780636763951c14610076578063ce02689714610096575b600080fd5b600054610059906001600160a01b031681565b6040516001600160a01b0390911681526020015b60405180910390f35b610089610084366004610217565b6100ab565b60405161006d919061031f565b6100a96100a4366004610339565b6100da565b005b6060600083836040516020016100c29291906103df565b60408051808303601f19018152919052949350505050565b600061011c8787878080601f0160208091040260200160405190810160405280939291908181526020018383808284376000920191909152506100ab92505050565b600080546040805160c0810182528781526001600160a01b03898116602080840191909152835180850185528681528082018790528385015260608301899052835195865285018352608082019490945260a081018590529051630624488560e41b815293945091169163624488509161019891600401610450565b6020604051808303816000875af11580156101b7573d6000803e3d6000fd5b505050506040513d601f19601f820116820180604052508101906101db91906104d7565b5050505050505050565b80356001600160a01b03811681146101fc57600080fd5b919050565b634e487b7160e01b600052604160045260246000fd5b6000806040838503121561022a57600080fd5b610233836101e5565b9150602083013567ffffffffffffffff8082111561025057600080fd5b818501915085601f83011261026457600080fd5b81358181111561027657610276610201565b604051601f8201601f19908116603f0116810190838211818310171561029e5761029e610201565b816040528281528860208487010111156102b757600080fd5b8260208601602083013760006020848301015280955050505050509250929050565b6000815180845260005b818110156102ff576020818501810151868301820152016102e3565b506000602082860101526020601f19601f83011685010191505092915050565b60208152600061033260208301846102d9565b9392505050565b60008060008060008060a0878903121561035257600080fd5b61035b876101e5565b9550602087013567ffffffffffffffff8082111561037857600080fd5b818901915089601f83011261038c57600080fd5b81358181111561039b57600080fd5b8a60208285010111156103ad57600080fd5b6020830197508096505050506103c5604088016101e5565b925060608701359150608087013590509295509295509295565b6001600160a01b0383168152604060208201819052600090610403908301846102d9565b949350505050565b60008151808452602080850194506020840160005b838110156104455781516001600160a01b031687529582019590820190600101610420565b509495945050505050565b60208152815160208201526000602083015160018060a01b03808216604085015260408501519150808251166060850152506020810151608084015250606083015160a0830152608083015160e060c08401526104b161010084018261040b565b905060a0840151601f198483030160e08501526104ce82826102d9565b95945050505050565b6000602082840312156104e957600080fd5b505191905056fea2646970667358221220f27fa7ae287b41429cefc082364131cfd78d86cd8368596020b0310934b9e59c64736f6c63430008190033","linkReferences":{}},"methodIdentifiers":{"createArbitraryMessage(address,bytes)":"6763951c","messenger()":"3cb747bf","sendMessage(address,bytes,address,bytes32,uint256)":"ce026897"},"id":1}