{"abi":[{"type":"function","name":"revertFunction","inputs":[],"outputs":[],"stateMutability":"pure"},{"type":"function","name":"setValue","inputs":[{"name":"_value","type":"uint256","internalType":"uint256"}],"outputs":[],"stateMutability":"nonpayable"},{"type":"function","name":"value","inputs":[],"outputs":[{"name":"","type":"uint256","internalType":"uint256"}],"stateMutability":"view"}],"bytecode":{"object":"0x6080604052348015600f57600080fd5b5060fd8061001e6000396000f3fe6080604052348015600f57600080fd5b5060043610603c5760003560e01c80633fa4f2451460415780635524107714605b57806383fcb85e14606d575b600080fd5b604960005481565b60405190815260200160405180910390f35b606b606636600460af565b600055565b005b606b60405162461bcd60e51b8152602060048201526011602482015270119d5b98dd1a5bdb881c995d995c9d1959607a1b604482015260640160405180910390fd5b60006020828403121560c057600080fd5b503591905056fea26469706673582212203bcf10f6a5859b39e694839beb5444aa049660e808fe4701b114cd2b81a0468964736f6c63430008190033","linkReferences":{}},"methodIdentifiers":{"revertFunction()":"83fcb85e","setValue(uint256)":"55241077","value()":"3fa4f245"},"id":10}