{"abi":[{"type":"constructor","inputs":[{"name":"_stakingToken","type":"address","internalType":"address"},{"name":"_rewardToken","type":"address","internalType":"address"},{"name":"_rewardRate","type":"uint256","internalType":"uint256"}],"stateMutability":"nonpayable"},{"type":"function","name":"earned","inputs":[{"name":"account","type":"address","internalType":"address"}],"outputs":[{"name":"","type":"uint256","internalType":"uint256"}],"stateMutability":"view"},{"type":"function","name":"exit","inputs":[],"outputs":[],"stateMutability":"nonpayable"},{"type":"function","name":"getReward","inputs":[],"outputs":[],"stateMutability":"nonpayable"},{"type":"function","name":"lastUpdateBlock","inputs":[],"outputs":[{"name":"","type":"uint256","internalType":"uint256"}],"stateMutability":"view"},{"type":"function","name":"owner","inputs":[],"outputs":[{"name":"","type":"address","internalType":"address"}],"stateMutability":"view"},{"type":"function","name":"renounceOwnership","inputs":[],"outputs":[],"stateMutability":"nonpayable"},{"type":"function","name":"rewardPerToken","inputs":[],"outputs":[{"name":"","type":"uint256","internalType":"uint256"}],"stateMutability":"view"},{"type":"function","name":"rewardPerTokenStored","inputs":[],"outputs":[{"name":"","type":"uint256","internalType":"uint256"}],"stateMutability":"view"},{"type":"function","name":"rewardRate","inputs":[],"outputs":[{"name":"","type":"uint256","internalType":"uint256"}],"stateMutability":"view"},{"type":"function","name":"rewardToken","inputs":[],"outputs":[{"name":"","type":"address","internalType":"contract IERC20"}],"stateMutability":"view"},{"type":"function","name":"rewards","inputs":[{"name":"","type":"address","internalType":"address"}],"outputs":[{"name":"","type":"uint256","internalType":"uint256"}],"stateMutability":"view"},{"type":"function","name":"stake","inputs":[{"name":"amount","type":"uint256","internalType":"uint256"}],"outputs":[],"stateMutability":"nonpayable"},{"type":"function","name":"stakingToken","inputs":[],"outputs":[{"name":"","type":"address","internalType":"contract IERC20"}],"stateMutability":"view"},{"type":"function","name":"transferOwnership","inputs":[{"name":"newOwner","type":"address","internalType":"address"}],"outputs":[],"stateMutability":"nonpayable"},{"type":"function","name":"userRewardPerTokenPaid","inputs":[{"name":"","type":"address","internalType":"address"}],"outputs":[{"name":"","type":"uint256","internalType":"uint256"}],"stateMutability":"view"},{"type":"function","name":"userStake","inputs":[{"name":"","type":"address","internalType":"address"}],"outputs":[{"name":"","type":"uint256","internalType":"uint256"}],"stateMutability":"view"},{"type":"function","name":"withdraw","inputs":[{"name":"amount","type":"uint256","internalType":"uint256"}],"outputs":[],"stateMutability":"nonpayable"},{"type":"event","name":"OwnershipTransferred","inputs":[{"name":"previousOwner","type":"address","indexed":true,"internalType":"address"},{"name":"newOwner","type":"address","indexed":true,"internalType":"address"}],"anonymous":false},{"type":"event","name":"RewardPaid","inputs":[{"name":"user","type":"address","indexed":true,"internalType":"address"},{"name":"reward","type":"uint256","indexed":false,"internalType":"uint256"}],"anonymous":false},{"type":"event","name":"Staked","inputs":[{"name":"user","type":"address","indexed":true,"internalType":"address"},{"name":"amount","type":"uint256","indexed":false,"internalType":"uint256"}],"anonymous":false},{"type":"event","name":"Withdrawn","inputs":[{"name":"user","type":"address","indexed":true,"internalType":"address"},{"name":"amount","type":"uint256","indexed":false,"internalType":"uint256"}],"anonymous":false},{"type":"error","name":"OwnableInvalidOwner","inputs":[{"name":"owner","type":"address","internalType":"address"}]},{"type":"error","name":"OwnableUnauthorizedAccount","inputs":[{"name":"account","type":"address","internalType":"address"}]}],"bytecode":{"object":"0x608060405234801561001057600080fd5b50604051610abc380380610abc83398101604081905261002f91610107565b338061005557604051631e4fbdf760e01b81526000600482015260240160405180910390fd5b61005e8161009b565b50600180546001600160a01b039485166001600160a01b031991821617909155600280549390941692169190911790915560035543600455610143565b600080546001600160a01b038381166001600160a01b0319831681178455604051919092169283917f8be0079c531659141344cd1fd0a4f28419497f9722a3daafe3b4186f6b6457e09190a35050565b80516001600160a01b038116811461010257600080fd5b919050565b60008060006060848603121561011c57600080fd5b610125846100eb565b9250610133602085016100eb565b9150604084015190509250925092565b61096a806101526000396000f3fe608060405234801561001057600080fd5b506004361061010a5760003560e01c80638b876347116100a2578063cd3daf9d11610071578063cd3daf9d1461021b578063df136d6514610223578063e9fad8ee1461022c578063f2fde38b14610234578063f7c618c11461024757600080fd5b80638b876347146101ce5780638da5cb5b146101ee578063a218141b146101ff578063a694fc3a1461020857600080fd5b806368e5585d116100de57806368e5585d14610172578063715018a61461019257806372f702f31461019a5780637b0a47ee146101c557600080fd5b80628cc2621461010f5780630700037d146101355780632e1a7d4d146101555780633d18b9121461016a575b600080fd5b61012261011d366004610854565b61025a565b6040519081526020015b60405180910390f35b610122610143366004610854565b60086020526000908152604090205481565b610168610163366004610884565b6102d7565b005b61016861045f565b610122610180366004610854565b60066020526000908152604090205481565b610168610588565b6001546101ad906001600160a01b031681565b6040516001600160a01b03909116815260200161012c565b61012260035481565b6101226101dc366004610854565b60076020526000908152604090205481565b6000546001600160a01b03166101ad565b61012260045481565b610168610216366004610884565b61059c565b61012261071a565b61012260055481565b610168610778565b610168610242366004610854565b610799565b6002546101ad906001600160a01b031681565b6001600160a01b0381166000908152600860209081526040808320546007909252822054670de0b6b3a76400009061029061071a565b61029a91906108b3565b6001600160a01b0385166000908152600660205260409020546102bd91906108c6565b6102c791906108dd565b6102d191906108ff565b92915050565b336102e061071a565b600555436004556001600160a01b0381161561032b576102ff8161025a565b6001600160a01b0382166000908152600860209081526040808320939093556005546007909152919020555b600082116103745760405162461bcd60e51b8152602060048201526011602482015270043616e6e6f74207769746864726177203607c1b60448201526064015b60405180910390fd5b816009600082825461038691906108b3565b909155505033600090815260066020526040812080548492906103aa9084906108b3565b909155505060015460405163a9059cbb60e01b8152336004820152602481018490526001600160a01b039091169063a9059cbb906044016020604051808303816000875af1158015610400573d6000803e3d6000fd5b505050506040513d601f19601f820116820180604052508101906104249190610912565b5060405182815233907f7084f5476618d8e60b11ef0d7d3f06914655adb8793e28ff7f018d4c76d505d5906020015b60405180910390a25050565b3361046861071a565b600555436004556001600160a01b038116156104b3576104878161025a565b6001600160a01b0382166000908152600860209081526040808320939093556005546007909152919020555b336000908152600860205260409020548015610584573360008181526008602052604080822091909155600254905163a9059cbb60e01b81526004810192909252602482018390526001600160a01b03169063a9059cbb906044016020604051808303816000875af115801561052d573d6000803e3d6000fd5b505050506040513d601f19601f820116820180604052508101906105519190610912565b5060405181815233907fe2403640ba68fed3a2f88b7557551d1993f84b99bb10ff833f0cf8db0c5e048690602001610453565b5050565b6105906107d7565b61059a6000610804565b565b336105a561071a565b600555436004556001600160a01b038116156105f0576105c48161025a565b6001600160a01b0382166000908152600860209081526040808320939093556005546007909152919020555b600082116106315760405162461bcd60e51b815260206004820152600e60248201526d043616e6e6f74207374616b6520360941b604482015260640161036b565b816009600082825461064391906108ff565b909155505033600090815260066020526040812080548492906106679084906108ff565b90915550506001546040516323b872dd60e01b8152336004820152306024820152604481018490526001600160a01b03909116906323b872dd906064016020604051808303816000875af11580156106c3573d6000803e3d6000fd5b505050506040513d601f19601f820116820180604052508101906106e79190610912565b5060405182815233907f9e71bc8eea02a63969f509818f2dafb9254532904319f9dbda79b67bd34a5f3d90602001610453565b600060095460000361072d575060055490565b60095460045461073d90436108b3565b60035461074a91906108c6565b61075c90670de0b6b3a76400006108c6565b61076691906108dd565b60055461077391906108ff565b905090565b33600090815260066020526040902054610791906102d7565b61059a61045f565b6107a16107d7565b6001600160a01b0381166107cb57604051631e4fbdf760e01b81526000600482015260240161036b565b6107d481610804565b50565b6000546001600160a01b0316331461059a5760405163118cdaa760e01b815233600482015260240161036b565b600080546001600160a01b038381166001600160a01b0319831681178455604051919092169283917f8be0079c531659141344cd1fd0a4f28419497f9722a3daafe3b4186f6b6457e09190a35050565b60006020828403121561086657600080fd5b81356001600160a01b038116811461087d57600080fd5b9392505050565b60006020828403121561089657600080fd5b5035919050565b634e487b7160e01b600052601160045260246000fd5b818103818111156102d1576102d161089d565b80820281158282048414176102d1576102d161089d565b6000826108fa57634e487b7160e01b600052601260045260246000fd5b500490565b808201808211156102d1576102d161089d565b60006020828403121561092457600080fd5b8151801515811461087d57600080fdfea2646970667358221220c7e0adcd76303dbc1c7df70019db141cd28b0cc627f77067d0c0ca3a1f66c73264736f6c63430008190033","linkReferences":{}},"methodIdentifiers":{"earned(address)":"008cc262","exit()":"e9fad8ee","getReward()":"3d18b912","lastUpdateBlock()":"a218141b","owner()":"8da5cb5b","renounceOwnership()":"715018a6","rewardPerToken()":"cd3daf9d","rewardPerTokenStored()":"df136d65","rewardRate()":"7b0a47ee","rewardToken()":"f7c618c1","rewards(address)":"0700037d","stake(uint256)":"a694fc3a","stakingToken()":"72f702f3","transferOwnership(address)":"f2fde38b","userRewardPerTokenPaid(address)":"8b876347","userStake(address)":"68e5585d","withdraw(uint256)":"2e1a7d4d"},"id":6}