{
  "_format": "hh-sol-artifact-1",
  "contractName": "SherryBetaOnboarding",
  "sourceName": "contracts/gtm/SherryBetaOnboarding.sol",
  "abi": [
    {
      "inputs": [
        {
          "internalType": "address",
          "name": "minter",
          "type": "address"
        }
      ],
      "stateMutability": "nonpayable",
      "type": "constructor"
    },
    {
      "inputs": [],
      "name": "AccessControlBadConfirmation",
      "type": "error"
    },
    {
      "inputs": [
        {
          "internalType": "address",
          "name": "account",
          "type": "address"
        },
        {
          "internalType": "bytes32",
          "name": "neededRole",
          "type": "bytes32"
        }
      ],
      "name": "AccessControlUnauthorizedAccount",
      "type": "error"
    },
    {
      "inputs": [],
      "name": "AlreadyMinted",
      "type": "error"
    },
    {
      "inputs": [],
      "name": "CollectionNotExists",
      "type": "error"
    },
    {
      "inputs": [
        {
          "internalType": "address",
          "name": "sender",
          "type": "address"
        },
        {
          "internalType": "uint256",
          "name": "balance",
          "type": "uint256"
        },
        {
          "internalType": "uint256",
          "name": "needed",
          "type": "uint256"
        },
        {
          "internalType": "uint256",
          "name": "tokenId",
          "type": "uint256"
        }
      ],
      "name": "ERC1155InsufficientBalance",
      "type": "error"
    },
    {
      "inputs": [
        {
          "internalType": "address",
          "name": "approver",
          "type": "address"
        }
      ],
      "name": "ERC1155InvalidApprover",
      "type": "error"
    },
    {
      "inputs": [
        {
          "internalType": "uint256",
          "name": "idsLength",
          "type": "uint256"
        },
        {
          "internalType": "uint256",
          "name": "valuesLength",
          "type": "uint256"
        }
      ],
      "name": "ERC1155InvalidArrayLength",
      "type": "error"
    },
    {
      "inputs": [
        {
          "internalType": "address",
          "name": "operator",
          "type": "address"
        }
      ],
      "name": "ERC1155InvalidOperator",
      "type": "error"
    },
    {
      "inputs": [
        {
          "internalType": "address",
          "name": "receiver",
          "type": "address"
        }
      ],
      "name": "ERC1155InvalidReceiver",
      "type": "error"
    },
    {
      "inputs": [
        {
          "internalType": "address",
          "name": "sender",
          "type": "address"
        }
      ],
      "name": "ERC1155InvalidSender",
      "type": "error"
    },
    {
      "inputs": [
        {
          "internalType": "address",
          "name": "operator",
          "type": "address"
        },
        {
          "internalType": "address",
          "name": "owner",
          "type": "address"
        }
      ],
      "name": "ERC1155MissingApprovalForAll",
      "type": "error"
    },
    {
      "inputs": [],
      "name": "EnforcedPause",
      "type": "error"
    },
    {
      "inputs": [],
      "name": "ExpectedPause",
      "type": "error"
    },
    {
      "inputs": [],
      "name": "MiniAppIdAlreadyExists",
      "type": "error"
    },
    {
      "inputs": [],
      "name": "ReentrancyGuardReentrantCall",
      "type": "error"
    },
    {
      "inputs": [],
      "name": "TransferNotAllowed",
      "type": "error"
    },
    {
      "anonymous": false,
      "inputs": [
        {
          "indexed": true,
          "internalType": "address",
          "name": "account",
          "type": "address"
        },
        {
          "indexed": true,
          "internalType": "address",
          "name": "operator",
          "type": "address"
        },
        {
          "indexed": false,
          "internalType": "bool",
          "name": "approved",
          "type": "bool"
        }
      ],
      "name": "ApprovalForAll",
      "type": "event"
    },
    {
      "anonymous": false,
      "inputs": [
        {
          "indexed": true,
          "internalType": "uint256",
          "name": "collectionId",
          "type": "uint256"
        },
        {
          "indexed": false,
          "internalType": "string",
          "name": "miniAppId",
          "type": "string"
        },
        {
          "indexed": false,
          "internalType": "string",
          "name": "twitterHandle",
          "type": "string"
        },
        {
          "indexed": true,
          "internalType": "address",
          "name": "creator",
          "type": "address"
        }
      ],
      "name": "CollectionCreated",
      "type": "event"
    },
    {
      "anonymous": false,
      "inputs": [
        {
          "indexed": true,
          "internalType": "address",
          "name": "to",
          "type": "address"
        },
        {
          "indexed": false,
          "internalType": "string",
          "name": "miniAppId",
          "type": "string"
        },
        {
          "indexed": false,
          "internalType": "string",
          "name": "twitterHandle",
          "type": "string"
        }
      ],
      "name": "CollectionMint",
      "type": "event"
    },
    {
      "anonymous": false,
      "inputs": [
        {
          "indexed": false,
          "internalType": "address",
          "name": "account",
          "type": "address"
        }
      ],
      "name": "Paused",
      "type": "event"
    },
    {
      "anonymous": false,
      "inputs": [
        {
          "indexed": true,
          "internalType": "bytes32",
          "name": "role",
          "type": "bytes32"
        },
        {
          "indexed": true,
          "internalType": "bytes32",
          "name": "previousAdminRole",
          "type": "bytes32"
        },
        {
          "indexed": true,
          "internalType": "bytes32",
          "name": "newAdminRole",
          "type": "bytes32"
        }
      ],
      "name": "RoleAdminChanged",
      "type": "event"
    },
    {
      "anonymous": false,
      "inputs": [
        {
          "indexed": true,
          "internalType": "bytes32",
          "name": "role",
          "type": "bytes32"
        },
        {
          "indexed": true,
          "internalType": "address",
          "name": "account",
          "type": "address"
        },
        {
          "indexed": true,
          "internalType": "address",
          "name": "sender",
          "type": "address"
        }
      ],
      "name": "RoleGranted",
      "type": "event"
    },
    {
      "anonymous": false,
      "inputs": [
        {
          "indexed": true,
          "internalType": "bytes32",
          "name": "role",
          "type": "bytes32"
        },
        {
          "indexed": true,
          "internalType": "address",
          "name": "account",
          "type": "address"
        },
        {
          "indexed": true,
          "internalType": "address",
          "name": "sender",
          "type": "address"
        }
      ],
      "name": "RoleRevoked",
      "type": "event"
    },
    {
      "anonymous": false,
      "inputs": [
        {
          "indexed": true,
          "internalType": "address",
          "name": "operator",
          "type": "address"
        },
        {
          "indexed": true,
          "internalType": "address",
          "name": "from",
          "type": "address"
        },
        {
          "indexed": true,
          "internalType": "address",
          "name": "to",
          "type": "address"
        },
        {
          "indexed": false,
          "internalType": "uint256[]",
          "name": "ids",
          "type": "uint256[]"
        },
        {
          "indexed": false,
          "internalType": "uint256[]",
          "name": "values",
          "type": "uint256[]"
        }
      ],
      "name": "TransferBatch",
      "type": "event"
    },
    {
      "anonymous": false,
      "inputs": [
        {
          "indexed": true,
          "internalType": "address",
          "name": "operator",
          "type": "address"
        },
        {
          "indexed": true,
          "internalType": "address",
          "name": "from",
          "type": "address"
        },
        {
          "indexed": true,
          "internalType": "address",
          "name": "to",
          "type": "address"
        },
        {
          "indexed": false,
          "internalType": "uint256",
          "name": "id",
          "type": "uint256"
        },
        {
          "indexed": false,
          "internalType": "uint256",
          "name": "value",
          "type": "uint256"
        }
      ],
      "name": "TransferSingle",
      "type": "event"
    },
    {
      "anonymous": false,
      "inputs": [
        {
          "indexed": false,
          "internalType": "string",
          "name": "value",
          "type": "string"
        },
        {
          "indexed": true,
          "internalType": "uint256",
          "name": "id",
          "type": "uint256"
        }
      ],
      "name": "URI",
      "type": "event"
    },
    {
      "anonymous": false,
      "inputs": [
        {
          "indexed": false,
          "internalType": "address",
          "name": "account",
          "type": "address"
        }
      ],
      "name": "Unpaused",
      "type": "event"
    },
    {
      "inputs": [],
      "name": "DEFAULT_ADMIN_ROLE",
      "outputs": [
        {
          "internalType": "bytes32",
          "name": "",
          "type": "bytes32"
        }
      ],
      "stateMutability": "view",
      "type": "function"
    },
    {
      "inputs": [],
      "name": "MINTER_ROLE",
      "outputs": [
        {
          "internalType": "bytes32",
          "name": "",
          "type": "bytes32"
        }
      ],
      "stateMutability": "view",
      "type": "function"
    },
    {
      "inputs": [
        {
          "internalType": "address",
          "name": "account",
          "type": "address"
        },
        {
          "internalType": "uint256",
          "name": "id",
          "type": "uint256"
        }
      ],
      "name": "balanceOf",
      "outputs": [
        {
          "internalType": "uint256",
          "name": "",
          "type": "uint256"
        }
      ],
      "stateMutability": "view",
      "type": "function"
    },
    {
      "inputs": [
        {
          "internalType": "address[]",
          "name": "accounts",
          "type": "address[]"
        },
        {
          "internalType": "uint256[]",
          "name": "ids",
          "type": "uint256[]"
        }
      ],
      "name": "balanceOfBatch",
      "outputs": [
        {
          "internalType": "uint256[]",
          "name": "",
          "type": "uint256[]"
        }
      ],
      "stateMutability": "view",
      "type": "function"
    },
    {
      "inputs": [
        {
          "internalType": "uint256",
          "name": "collectionId",
          "type": "uint256"
        }
      ],
      "name": "collectionExists",
      "outputs": [
        {
          "internalType": "bool",
          "name": "",
          "type": "bool"
        }
      ],
      "stateMutability": "view",
      "type": "function"
    },
    {
      "inputs": [
        {
          "internalType": "uint256",
          "name": "",
          "type": "uint256"
        }
      ],
      "name": "collectionInfo",
      "outputs": [
        {
          "internalType": "string",
          "name": "miniAppId",
          "type": "string"
        },
        {
          "internalType": "string",
          "name": "twitterHandle",
          "type": "string"
        },
        {
          "internalType": "string",
          "name": "metadataURI",
          "type": "string"
        },
        {
          "internalType": "address",
          "name": "creator",
          "type": "address"
        },
        {
          "internalType": "uint256",
          "name": "createdAt",
          "type": "uint256"
        },
        {
          "internalType": "bool",
          "name": "exists",
          "type": "bool"
        }
      ],
      "stateMutability": "view",
      "type": "function"
    },
    {
      "inputs": [
        {
          "internalType": "string",
          "name": "miniAppId",
          "type": "string"
        },
        {
          "internalType": "string",
          "name": "twitterHandle",
          "type": "string"
        },
        {
          "internalType": "string",
          "name": "metadataURI",
          "type": "string"
        }
      ],
      "name": "createCollection",
      "outputs": [
        {
          "internalType": "uint256",
          "name": "",
          "type": "uint256"
        }
      ],
      "stateMutability": "nonpayable",
      "type": "function"
    },
    {
      "inputs": [
        {
          "internalType": "string",
          "name": "miniAppId",
          "type": "string"
        },
        {
          "internalType": "string",
          "name": "twitterHandle",
          "type": "string"
        },
        {
          "internalType": "string",
          "name": "metadataURI",
          "type": "string"
        },
        {
          "internalType": "address",
          "name": "to",
          "type": "address"
        }
      ],
      "name": "createCollectionAndMint",
      "outputs": [
        {
          "internalType": "uint256",
          "name": "",
          "type": "uint256"
        }
      ],
      "stateMutability": "nonpayable",
      "type": "function"
    },
    {
      "inputs": [
        {
          "internalType": "uint256",
          "name": "id",
          "type": "uint256"
        }
      ],
      "name": "exists",
      "outputs": [
        {
          "internalType": "bool",
          "name": "",
          "type": "bool"
        }
      ],
      "stateMutability": "view",
      "type": "function"
    },
    {
      "inputs": [
        {
          "internalType": "string",
          "name": "miniAppId",
          "type": "string"
        }
      ],
      "name": "getCollectionByMiniAppId",
      "outputs": [
        {
          "components": [
            {
              "internalType": "string",
              "name": "miniAppId",
              "type": "string"
            },
            {
              "internalType": "string",
              "name": "twitterHandle",
              "type": "string"
            },
            {
              "internalType": "string",
              "name": "metadataURI",
              "type": "string"
            },
            {
              "internalType": "address",
              "name": "creator",
              "type": "address"
            },
            {
              "internalType": "uint256",
              "name": "createdAt",
              "type": "uint256"
            },
            {
              "internalType": "bool",
              "name": "exists",
              "type": "bool"
            }
          ],
          "internalType": "struct SherryBetaOnboarding.CollectionInfo",
          "name": "",
          "type": "tuple"
        }
      ],
      "stateMutability": "view",
      "type": "function"
    },
    {
      "inputs": [
        {
          "internalType": "uint256",
          "name": "collectionId",
          "type": "uint256"
        }
      ],
      "name": "getCollectionInfo",
      "outputs": [
        {
          "components": [
            {
              "internalType": "string",
              "name": "miniAppId",
              "type": "string"
            },
            {
              "internalType": "string",
              "name": "twitterHandle",
              "type": "string"
            },
            {
              "internalType": "string",
              "name": "metadataURI",
              "type": "string"
            },
            {
              "internalType": "address",
              "name": "creator",
              "type": "address"
            },
            {
              "internalType": "uint256",
              "name": "createdAt",
              "type": "uint256"
            },
            {
              "internalType": "bool",
              "name": "exists",
              "type": "bool"
            }
          ],
          "internalType": "struct SherryBetaOnboarding.CollectionInfo",
          "name": "",
          "type": "tuple"
        }
      ],
      "stateMutability": "view",
      "type": "function"
    },
    {
      "inputs": [],
      "name": "getCurrentCollectionId",
      "outputs": [
        {
          "internalType": "uint256",
          "name": "",
          "type": "uint256"
        }
      ],
      "stateMutability": "view",
      "type": "function"
    },
    {
      "inputs": [
        {
          "internalType": "bytes32",
          "name": "role",
          "type": "bytes32"
        }
      ],
      "name": "getRoleAdmin",
      "outputs": [
        {
          "internalType": "bytes32",
          "name": "",
          "type": "bytes32"
        }
      ],
      "stateMutability": "view",
      "type": "function"
    },
    {
      "inputs": [
        {
          "internalType": "bytes32",
          "name": "role",
          "type": "bytes32"
        },
        {
          "internalType": "address",
          "name": "account",
          "type": "address"
        }
      ],
      "name": "grantRole",
      "outputs": [],
      "stateMutability": "nonpayable",
      "type": "function"
    },
    {
      "inputs": [
        {
          "internalType": "uint256",
          "name": "",
          "type": "uint256"
        },
        {
          "internalType": "address",
          "name": "",
          "type": "address"
        }
      ],
      "name": "hasMinted",
      "outputs": [
        {
          "internalType": "bool",
          "name": "",
          "type": "bool"
        }
      ],
      "stateMutability": "view",
      "type": "function"
    },
    {
      "inputs": [
        {
          "internalType": "bytes32",
          "name": "role",
          "type": "bytes32"
        },
        {
          "internalType": "address",
          "name": "account",
          "type": "address"
        }
      ],
      "name": "hasRole",
      "outputs": [
        {
          "internalType": "bool",
          "name": "",
          "type": "bool"
        }
      ],
      "stateMutability": "view",
      "type": "function"
    },
    {
      "inputs": [
        {
          "internalType": "address",
          "name": "account",
          "type": "address"
        },
        {
          "internalType": "address",
          "name": "operator",
          "type": "address"
        }
      ],
      "name": "isApprovedForAll",
      "outputs": [
        {
          "internalType": "bool",
          "name": "",
          "type": "bool"
        }
      ],
      "stateMutability": "view",
      "type": "function"
    },
    {
      "inputs": [
        {
          "internalType": "string",
          "name": "miniAppId",
          "type": "string"
        }
      ],
      "name": "miniAppExists",
      "outputs": [
        {
          "internalType": "bool",
          "name": "",
          "type": "bool"
        }
      ],
      "stateMutability": "view",
      "type": "function"
    },
    {
      "inputs": [
        {
          "internalType": "string",
          "name": "",
          "type": "string"
        }
      ],
      "name": "miniAppIdExists",
      "outputs": [
        {
          "internalType": "bool",
          "name": "",
          "type": "bool"
        }
      ],
      "stateMutability": "view",
      "type": "function"
    },
    {
      "inputs": [
        {
          "internalType": "string",
          "name": "",
          "type": "string"
        }
      ],
      "name": "miniAppIdToCollection",
      "outputs": [
        {
          "internalType": "uint256",
          "name": "",
          "type": "uint256"
        }
      ],
      "stateMutability": "view",
      "type": "function"
    },
    {
      "inputs": [
        {
          "internalType": "uint256",
          "name": "collectionId",
          "type": "uint256"
        },
        {
          "internalType": "string",
          "name": "twitterHandle",
          "type": "string"
        },
        {
          "internalType": "address",
          "name": "to",
          "type": "address"
        }
      ],
      "name": "mint",
      "outputs": [],
      "stateMutability": "nonpayable",
      "type": "function"
    },
    {
      "inputs": [
        {
          "internalType": "string",
          "name": "miniAppId",
          "type": "string"
        },
        {
          "internalType": "string",
          "name": "twitterHandle",
          "type": "string"
        },
        {
          "internalType": "address",
          "name": "to",
          "type": "address"
        }
      ],
      "name": "mintByMiniAppId",
      "outputs": [],
      "stateMutability": "nonpayable",
      "type": "function"
    },
    {
      "inputs": [],
      "name": "name",
      "outputs": [
        {
          "internalType": "string",
          "name": "",
          "type": "string"
        }
      ],
      "stateMutability": "view",
      "type": "function"
    },
    {
      "inputs": [],
      "name": "pause",
      "outputs": [],
      "stateMutability": "nonpayable",
      "type": "function"
    },
    {
      "inputs": [],
      "name": "paused",
      "outputs": [
        {
          "internalType": "bool",
          "name": "",
          "type": "bool"
        }
      ],
      "stateMutability": "view",
      "type": "function"
    },
    {
      "inputs": [
        {
          "internalType": "bytes32",
          "name": "role",
          "type": "bytes32"
        },
        {
          "internalType": "address",
          "name": "callerConfirmation",
          "type": "address"
        }
      ],
      "name": "renounceRole",
      "outputs": [],
      "stateMutability": "nonpayable",
      "type": "function"
    },
    {
      "inputs": [
        {
          "internalType": "bytes32",
          "name": "role",
          "type": "bytes32"
        },
        {
          "internalType": "address",
          "name": "account",
          "type": "address"
        }
      ],
      "name": "revokeRole",
      "outputs": [],
      "stateMutability": "nonpayable",
      "type": "function"
    },
    {
      "inputs": [
        {
          "internalType": "address",
          "name": "from",
          "type": "address"
        },
        {
          "internalType": "address",
          "name": "to",
          "type": "address"
        },
        {
          "internalType": "uint256[]",
          "name": "ids",
          "type": "uint256[]"
        },
        {
          "internalType": "uint256[]",
          "name": "values",
          "type": "uint256[]"
        },
        {
          "internalType": "bytes",
          "name": "data",
          "type": "bytes"
        }
      ],
      "name": "safeBatchTransferFrom",
      "outputs": [],
      "stateMutability": "nonpayable",
      "type": "function"
    },
    {
      "inputs": [
        {
          "internalType": "address",
          "name": "from",
          "type": "address"
        },
        {
          "internalType": "address",
          "name": "to",
          "type": "address"
        },
        {
          "internalType": "uint256",
          "name": "id",
          "type": "uint256"
        },
        {
          "internalType": "uint256",
          "name": "value",
          "type": "uint256"
        },
        {
          "internalType": "bytes",
          "name": "data",
          "type": "bytes"
        }
      ],
      "name": "safeTransferFrom",
      "outputs": [],
      "stateMutability": "nonpayable",
      "type": "function"
    },
    {
      "inputs": [
        {
          "internalType": "address",
          "name": "operator",
          "type": "address"
        },
        {
          "internalType": "bool",
          "name": "approved",
          "type": "bool"
        }
      ],
      "name": "setApprovalForAll",
      "outputs": [],
      "stateMutability": "nonpayable",
      "type": "function"
    },
    {
      "inputs": [
        {
          "internalType": "uint256",
          "name": "newCounter",
          "type": "uint256"
        }
      ],
      "name": "setCollectionIdCounter",
      "outputs": [],
      "stateMutability": "nonpayable",
      "type": "function"
    },
    {
      "inputs": [
        {
          "internalType": "address",
          "name": "minter",
          "type": "address"
        }
      ],
      "name": "setMinterRole",
      "outputs": [],
      "stateMutability": "nonpayable",
      "type": "function"
    },
    {
      "inputs": [
        {
          "internalType": "string",
          "name": "newuri",
          "type": "string"
        }
      ],
      "name": "setURI",
      "outputs": [],
      "stateMutability": "nonpayable",
      "type": "function"
    },
    {
      "inputs": [
        {
          "internalType": "bytes4",
          "name": "interfaceId",
          "type": "bytes4"
        }
      ],
      "name": "supportsInterface",
      "outputs": [
        {
          "internalType": "bool",
          "name": "",
          "type": "bool"
        }
      ],
      "stateMutability": "view",
      "type": "function"
    },
    {
      "inputs": [],
      "name": "symbol",
      "outputs": [
        {
          "internalType": "string",
          "name": "",
          "type": "string"
        }
      ],
      "stateMutability": "view",
      "type": "function"
    },
    {
      "inputs": [],
      "name": "totalSupply",
      "outputs": [
        {
          "internalType": "uint256",
          "name": "",
          "type": "uint256"
        }
      ],
      "stateMutability": "view",
      "type": "function"
    },
    {
      "inputs": [
        {
          "internalType": "uint256",
          "name": "id",
          "type": "uint256"
        }
      ],
      "name": "totalSupply",
      "outputs": [
        {
          "internalType": "uint256",
          "name": "",
          "type": "uint256"
        }
      ],
      "stateMutability": "view",
      "type": "function"
    },
    {
      "inputs": [],
      "name": "unpause",
      "outputs": [],
      "stateMutability": "nonpayable",
      "type": "function"
    },
    {
      "inputs": [
        {
          "internalType": "uint256",
          "name": "tokenId",
          "type": "uint256"
        }
      ],
      "name": "uri",
      "outputs": [
        {
          "internalType": "string",
          "name": "",
          "type": "string"
        }
      ],
      "stateMutability": "view",
      "type": "function"
    }
  ],
  "bytecode": "0x60c0604052601a60809081527f5368657272792042657461204f6e626f617264696e67204e465400000000000060a05260089061003c9082610259565b5060408051808201909152600681526553484552525960d01b60208201526009906100679082610259565b5034801561007457600080fd5b506040516133f83803806133f883398101604081905261009391610317565b6040805160208101909152600081526100ab816100fa565b5060016007556100bc60003361010a565b506100d56000805160206133d88339815191523361010a565b506100ee6000805160206133d88339815191528261010a565b50506001600a55610347565b60026101068282610259565b5050565b60008281526005602090815260408083206001600160a01b038516845290915281205460ff166101b05760008381526005602090815260408083206001600160a01b03861684529091529020805460ff191660011790556101683390565b6001600160a01b0316826001600160a01b0316847f2f8788117e7eff1d82e926ec794901d17c78024a50270940304540a733656f0d60405160405180910390a45060016101b4565b5060005b92915050565b634e487b7160e01b600052604160045260246000fd5b600181811c908216806101e457607f821691505b60208210810361020457634e487b7160e01b600052602260045260246000fd5b50919050565b601f82111561025457806000526020600020601f840160051c810160208510156102315750805b601f840160051c820191505b81811015610251576000815560010161023d565b50505b505050565b81516001600160401b03811115610272576102726101ba565b6102868161028084546101d0565b8461020a565b6020601f8211600181146102ba57600083156102a25750848201515b600019600385901b1c1916600184901b178455610251565b600084815260208120601f198516915b828110156102ea57878501518255602094850194600190920191016102ca565b50848210156103085786840151600019600387901b60f8161c191681555b50505050600190811b01905550565b60006020828403121561032957600080fd5b81516001600160a01b038116811461034057600080fd5b9392505050565b613082806103566000396000f3fe608060405234801561001057600080fd5b506004361061023c5760003560e01c806354daf7b81161013b578063bbd61918116100b8578063d547741f1161007c578063d547741f1461055f578063dcb8badb14610572578063e985e9c514610585578063ece86c2114610598578063f242432a146105ab57600080fd5b8063bbd61918146104e4578063bd85b03914610504578063cf79bb4614610524578063d4e4d3dd14610537578063d53913931461054a57600080fd5b8063945d1229116100ff578063945d12291461048057806395d89b41146104935780639ab4f2af1461049b578063a217fddf146104c9578063a22cb465146104d157600080fd5b806354daf7b81461043f5780635c975abb146104525780638456cb591461045d5780638be39fe91461046557806391d148541461046d57600080fd5b8063185153c3116101c957806336568abe1161018d57806336568abe146103cf5780633f4ba83a146103e25780634ab94d26146103ea5780634e1273f4146103fd5780634f558e791461041d57600080fd5b8063185153c31461034d5780631ac429b214610373578063248a9ca3146103865780632eb2c2d6146103a95780632f2ff15d146103bc57600080fd5b806306fdde031161021057806306fdde03146102cd5780630e89341c146102e25780630fb4d2e5146102f557806317e0da921461031a57806318160ddd1461034557600080fd5b8062fdd58e1461024157806301ffc9a71461026757806302fe53051461028a578063037807331461029f575b600080fd5b61025461024f3660046123bc565b6105be565b6040519081526020015b60405180910390f35b61027a6102753660046123fc565b6105e6565b604051901515815260200161025e565b61029d6102983660046124c1565b6105f1565b005b61027a6102ad366004612511565b600b60209081526000928352604080842090915290825290205460ff1681565b6102d5610609565b60405161025e9190612583565b6102d56102f0366004612596565b610697565b610308610303366004612596565b61076d565b60405161025e969594939291906125af565b6102546103283660046124c1565b8051602081830181018051600d8252928201919093012091525481565b600454610254565b61027a61035b366004612596565b6000908152600c602052604090206005015460ff1690565b61029d61038136600461265a565b610948565b610254610394366004612596565b60009081526005602052604090206001015490565b61029d6103b7366004612767565b610a95565b61029d6103ca366004612511565b610b01565b61029d6103dd366004612511565b610b26565b61029d610b5e565b61027a6103f836600461281a565b610b74565b61041061040b36600461285b565b610ba3565b60405161025e919061295e565b61027a61042b366004612596565b600090815260036020526040902054151590565b61025461044d366004612971565b610c6f565b60065460ff1661027a565b61029d610ff8565b600a54610254565b61027a61047b366004612511565b61100b565b61029d61048e366004612a25565b611036565b6102d5611059565b61027a6104a93660046124c1565b8051602081830181018051600e8252928201919093012091525460ff1681565b610254600081565b61029d6104df366004612a40565b611066565b6104f76104f236600461281a565b611071565b60405161025e9190612a7c565b610254610512366004612596565b60009081526003602052604090205490565b61029d610532366004612b08565b6112e9565b6104f7610545366004612596565b611397565b61025460008051602061302d83398151915281565b61029d61056d366004612511565b6115d2565b61029d610580366004612596565b6115f7565b61027a610593366004612b8c565b611608565b6102546105a6366004612bb6565b611636565b61029d6105b9366004612c59565b6118bc565b6000818152602081815260408083206001600160a01b03861684529091529020545b92915050565b60006105e08261191b565b60006105fc81611940565b6106058261194a565b5050565b6008805461061690612cb1565b80601f016020809104026020016040519081016040528092919081815260200182805461064290612cb1565b801561068f5780601f106106645761010080835404028352916020019161068f565b820191906000526020600020905b81548152906001019060200180831161067257829003601f168201915b505050505081565b6000818152600c602052604090206005015460609060ff166106cc57604051639f17821b60e01b815260040160405180910390fd5b6000828152600c6020526040902060020180546106e890612cb1565b80601f016020809104026020016040519081016040528092919081815260200182805461071490612cb1565b80156107615780601f1061073657610100808354040283529160200191610761565b820191906000526020600020905b81548152906001019060200180831161074457829003601f168201915b50505050509050919050565b600c6020526000908152604090208054819061078890612cb1565b80601f01602080910402602001604051908101604052809291908181526020018280546107b490612cb1565b80156108015780601f106107d657610100808354040283529160200191610801565b820191906000526020600020905b8154815290600101906020018083116107e457829003601f168201915b50505050509080600101805461081690612cb1565b80601f016020809104026020016040519081016040528092919081815260200182805461084290612cb1565b801561088f5780601f106108645761010080835404028352916020019161088f565b820191906000526020600020905b81548152906001019060200180831161087257829003601f168201915b5050505050908060020180546108a490612cb1565b80601f01602080910402602001604051908101604052809291908181526020018280546108d090612cb1565b801561091d5780601f106108f25761010080835404028352916020019161091d565b820191906000526020600020905b81548152906001019060200180831161090057829003601f168201915b505050506003830154600484015460059094015492936001600160a01b039091169290915060ff1686565b610950611956565b610958611980565b60008051602061302d83398151915261097081611940565b6000858152600c602052604090206005015460ff166109a257604051639f17821b60e01b815260040160405180910390fd5b6000858152600b602090815260408083206001600160a01b038616845290915290205460ff16156109e657604051631bbdf5c560e31b815260040160405180910390fd5b6000858152600b602090815260408083206001600160a01b03861684528252808320805460ff191660019081179091558151928301909152918152610a2f9184918891906119a6565b6000858152600c60205260409081902090516001600160a01b038416917ff3fbaa131c56903e2a47e018f6bf7e6aa777a0598a6d83949006591710bd8dc991610a7c919088908890612d14565b60405180910390a250610a8f6001600755565b50505050565b336001600160a01b0386168114801590610ab65750610ab48682611608565b155b15610aec5760405163711bec9160e11b81526001600160a01b038083166004830152871660248201526044015b60405180910390fd5b610af98686868686611a03565b505050505050565b600082815260056020526040902060010154610b1c81611940565b610a8f8383611a63565b6001600160a01b0381163314610b4f5760405163334bd91960e11b815260040160405180910390fd5b610b598282611af7565b505050565b6000610b6981611940565b610b71611b64565b50565b6000600e8383604051610b88929190612db5565b9081526040519081900360200190205460ff16905092915050565b60608151835114610bd45781518351604051635b05999160e01b815260048101929092526024820152604401610ae3565b600083516001600160401b03811115610bef57610bef612420565b604051908082528060200260200182016040528015610c18578160200160208202803683370190505b50905060005b8451811015610c6757602080820286010151610c42906020808402870101516105be565b828281518110610c5457610c54612dc5565b6020908102919091010152600101610c1e565b509392505050565b6000610c79611956565b610c81611980565b60008051602061302d833981519152610c9981611940565b6000600e8a8a604051610cad929190612db5565b9081526040519081900360200190205460ff1615610ced57600d8a8a604051610cd7929190612db5565b9081526020016040518091039020549050610f0c565b50600a80549081906000610d0083612df1565b91905055506040518060c001604052808b8b8080601f016020809104026020016040519081016040528093929190818152602001838380828437600092019190915250505090825250604080516020601f8c018190048102820181019092528a815291810191908b908b9081908401838280828437600092019190915250505090825250604080516020601f8a01819004810282018101909252888152918101919089908990819084018382808284376000920182905250938552505033602080850191909152426040808601919091526001606090950194909452858352600c9052502081518190610df39082612e51565b5060208201516001820190610e089082612e51565b5060408201516002820190610e1d9082612e51565b5060608201516003820180546001600160a01b0319166001600160a01b039092169190911790556080820151600482015560a0909101516005909101805460ff1916911515919091179055604051600190600e90610e7e908d908d90612db5565b908152604051908190036020018120805492151560ff19909316929092179091558190600d90610eb1908d908d90612db5565b908152602001604051809103902081905550336001600160a01b0316817f4c3e0b39635573f57a29aab3621210950392a4f2a518980a5b883c37cf35dbbe8c8c8c8c604051610f039493929190612f0f565b60405180910390a35b6000818152600b602090815260408083206001600160a01b038816845290915290205460ff1615610f5057604051631bbdf5c560e31b815260040160405180910390fd5b6000818152600b602090815260408083206001600160a01b03881684528252808320805460ff191660019081179091558151928301909152918152610f999186918491906119a6565b836001600160a01b03167ff3fbaa131c56903e2a47e018f6bf7e6aa777a0598a6d83949006591710bd8dc98b8b8b8b604051610fd89493929190612f0f565b60405180910390a2915050610fed6001600755565b979650505050505050565b600061100381611940565b610b71611bb6565b60009182526005602090815260408084206001600160a01b0393909316845291905290205460ff1690565b600061104181611940565b610b5960008051602061302d83398151915283611a63565b6009805461061690612cb1565b610605338383611bf3565b61107961235f565b600e838360405161108b929190612db5565b9081526040519081900360200190205460ff166110bb57604051639f17821b60e01b815260040160405180910390fd5b6000600d84846040516110cf929190612db5565b9081526020016040518091039020549050600c60008281526020019081526020016000206040518060c001604052908160008201805461110e90612cb1565b80601f016020809104026020016040519081016040528092919081815260200182805461113a90612cb1565b80156111875780601f1061115c57610100808354040283529160200191611187565b820191906000526020600020905b81548152906001019060200180831161116a57829003601f168201915b505050505081526020016001820180546111a090612cb1565b80601f01602080910402602001604051908101604052809291908181526020018280546111cc90612cb1565b80156112195780601f106111ee57610100808354040283529160200191611219565b820191906000526020600020905b8154815290600101906020018083116111fc57829003601f168201915b5050505050815260200160028201805461123290612cb1565b80601f016020809104026020016040519081016040528092919081815260200182805461125e90612cb1565b80156112ab5780601f10611280576101008083540402835291602001916112ab565b820191906000526020600020905b81548152906001019060200180831161128e57829003601f168201915b505050918352505060038201546001600160a01b031660208201526004820154604082015260059091015460ff161515606090910152949350505050565b6112f1611956565b6112f9611980565b60008051602061302d83398151915261131181611940565b600e8686604051611323929190612db5565b9081526040519081900360200190205460ff1661135357604051639f17821b60e01b815260040160405180910390fd5b6000600d8787604051611367929190612db5565b908152602001604051809103902054905061138481868686610948565b50506113906001600755565b5050505050565b61139f61235f565b6000828152600c602052604090206005015460ff166113d157604051639f17821b60e01b815260040160405180910390fd5b6000828152600c602052604090819020815160c081019092528054829082906113f990612cb1565b80601f016020809104026020016040519081016040528092919081815260200182805461142590612cb1565b80156114725780601f1061144757610100808354040283529160200191611472565b820191906000526020600020905b81548152906001019060200180831161145557829003601f168201915b5050505050815260200160018201805461148b90612cb1565b80601f01602080910402602001604051908101604052809291908181526020018280546114b790612cb1565b80156115045780601f106114d957610100808354040283529160200191611504565b820191906000526020600020905b8154815290600101906020018083116114e757829003601f168201915b5050505050815260200160028201805461151d90612cb1565b80601f016020809104026020016040519081016040528092919081815260200182805461154990612cb1565b80156115965780601f1061156b57610100808354040283529160200191611596565b820191906000526020600020905b81548152906001019060200180831161157957829003601f168201915b505050918352505060038201546001600160a01b031660208201526004820154604082015260059091015460ff16151560609091015292915050565b6000828152600560205260409020600101546115ed81611940565b610a8f8383611af7565b600061160281611940565b50600a55565b6001600160a01b03918216600090815260016020908152604080832093909416825291909152205460ff1690565b600060008051602061302d83398151915261165081611940565b600e8888604051611662929190612db5565b9081526040519081900360200190205460ff161561169357604051630294185760e21b815260040160405180910390fd5b600a805490819060006116a583612df1565b91905055506040518060c001604052808a8a8080601f016020809104026020016040519081016040528093929190818152602001838380828437600092019190915250505090825250604080516020601f8b0181900481028201810190925289815291810191908a908a9081908401838280828437600092019190915250505090825250604080516020601f8901819004810282018101909252878152918101919088908890819084018382808284376000920182905250938552505033602080850191909152426040808601919091526001606090950194909452858352600c90525020815181906117989082612e51565b50602082015160018201906117ad9082612e51565b50604082015160028201906117c29082612e51565b5060608201516003820180546001600160a01b0319166001600160a01b039092169190911790556080820151600482015560a0909101516005909101805460ff1916911515919091179055604051600190600e90611823908c908c90612db5565b908152604051908190036020018120805492151560ff19909316929092179091558190600d90611856908c908c90612db5565b908152602001604051809103902081905550336001600160a01b0316817f4c3e0b39635573f57a29aab3621210950392a4f2a518980a5b883c37cf35dbbe8b8b8b8b6040516118a89493929190612f0f565b60405180910390a398975050505050505050565b336001600160a01b03861681148015906118dd57506118db8682611608565b155b1561190e5760405163711bec9160e11b81526001600160a01b03808316600483015287166024820152604401610ae3565b610af98686868686611c89565b60006001600160e01b03198216637965db0b60e01b14806105e057506105e082611d17565b610b718133611d67565b60026106058282612e51565b60026007540361197957604051633ee5aeb560e01b815260040160405180910390fd5b6002600755565b60065460ff16156119a45760405163d93c066560e01b815260040160405180910390fd5b565b6001600160a01b0384166119d057604051632bfa23e760e11b815260006004820152602401610ae3565b60408051600180825260208201869052818301908152606082018590526080820190925290610af9600087848487611da0565b6001600160a01b038416611a2d57604051632bfa23e760e11b815260006004820152602401610ae3565b6001600160a01b038516611a5657604051626a0d4560e21b815260006004820152602401610ae3565b6113908585858585611da0565b6000611a6f838361100b565b611aef5760008381526005602090815260408083206001600160a01b03861684529091529020805460ff19166001179055611aa73390565b6001600160a01b0316826001600160a01b0316847f2f8788117e7eff1d82e926ec794901d17c78024a50270940304540a733656f0d60405160405180910390a45060016105e0565b5060006105e0565b6000611b03838361100b565b15611aef5760008381526005602090815260408083206001600160a01b0386168085529252808320805460ff1916905551339286917ff6391f5c32d9c69d2a47ea670b442974b53935d1edc7fd64eb21e047a839171b9190a45060016105e0565b611b6c611df3565b6006805460ff191690557f5db9ee0a495bf2e6ff9c91a7834c1ba4fdd244a5e8aa4e537bd38aeae4b073aa335b6040516001600160a01b03909116815260200160405180910390a1565b611bbe611980565b6006805460ff191660011790557f62e78cea01bee320cd4e420270b5ea74000d11b0c9f74754ebdbfc544b05a258611b993390565b6001600160a01b038216611c1c5760405162ced3e160e81b815260006004820152602401610ae3565b6001600160a01b03838116600081815260016020908152604080832094871680845294825291829020805460ff191686151590811790915591519182527f17307eab39ab6107e8899845ad3d59bd9653f200f220920489ca2b5937696c31910160405180910390a3505050565b6001600160a01b038416611cb357604051632bfa23e760e11b815260006004820152602401610ae3565b6001600160a01b038516611cdc57604051626a0d4560e21b815260006004820152602401610ae3565b60408051600180825260208201869052818301908152606082018590526080820190925290611d0e8787848487611da0565b50505050505050565b60006001600160e01b03198216636cdb3d1360e11b1480611d4857506001600160e01b031982166303a24d0760e21b145b806105e057506301ffc9a760e01b6001600160e01b03198316146105e0565b611d71828261100b565b6106055760405163e2517d3f60e01b81526001600160a01b038216600482015260248101839052604401610ae3565b611dac85858585611e16565b6001600160a01b038416156113905782513390600103611de55760208481015190840151611dde838989858589611e52565b5050610af9565b610af9818787878787611f76565b60065460ff166119a457604051638dfc202b60e01b815260040160405180910390fd5b611e1e611980565b6001600160a01b03841615611e4657604051638cd22d1960e01b815260040160405180910390fd5b610a8f8484848461205f565b6001600160a01b0384163b15610af95760405163f23a6e6160e01b81526001600160a01b0385169063f23a6e6190611e969089908990889088908890600401612f36565b6020604051808303816000875af1925050508015611ed1575060408051601f3d908101601f19168201909252611ece91810190612f70565b60015b611f3a573d808015611eff576040519150601f19603f3d011682016040523d82523d6000602084013e611f04565b606091505b508051600003611f3257604051632bfa23e760e11b81526001600160a01b0386166004820152602401610ae3565b805181602001fd5b6001600160e01b0319811663f23a6e6160e01b14611d0e57604051632bfa23e760e11b81526001600160a01b0386166004820152602401610ae3565b6001600160a01b0384163b15610af95760405163bc197c8160e01b81526001600160a01b0385169063bc197c8190611fba9089908990889088908890600401612f8d565b6020604051808303816000875af1925050508015611ff5575060408051601f3d908101601f19168201909252611ff291810190612f70565b60015b612023573d808015611eff576040519150601f19603f3d011682016040523d82523d6000602084013e611f04565b6001600160e01b0319811663bc197c8160e01b14611d0e57604051632bfa23e760e11b81526001600160a01b0386166004820152602401610ae3565b61206b8484848461214b565b6001600160a01b0384166120eb576000805b83518110156120d157602081810284810182015190860182015160009081526003909252604082208054919283926120b6908490612feb565b909155506120c690508184612feb565b92505060010161207d565b5080600460008282546120e49190612feb565b9091555050505b6001600160a01b038316610a8f576000805b835181101561213a5760208181028481018201519086018201516000908152600390925260409091208054829003905591909101906001016120fd565b506004805491909103905550505050565b805182511461217a5781518151604051635b05999160e01b815260048101929092526024820152604401610ae3565b3360005b8351811015612280576020818102858101820151908501909101516001600160a01b03881615612231576000828152602081815260408083206001600160a01b038c1684529091529020548181101561220a576040516303dee4c560e01b81526001600160a01b038a166004820152602481018290526044810183905260648101849052608401610ae3565b6000838152602081815260408083206001600160a01b038d16845290915290209082900390555b6001600160a01b03871615612276576000828152602081815260408083206001600160a01b038b16845290915281208054839290612270908490612feb565b90915550505b505060010161217e565b5082516001036123015760208301516000906020840151909150856001600160a01b0316876001600160a01b0316846001600160a01b03167fc3d58168c5ae7397731d063d5bbf3d657854427343f4c083240f7aacaa2d0f6285856040516122f2929190918252602082015260400190565b60405180910390a45050611390565b836001600160a01b0316856001600160a01b0316826001600160a01b03167f4a39dc06d4c0dbc64b70af90fd698a233a518aa5d07e595d983b8c0526c8f7fb8686604051612350929190612ffe565b60405180910390a45050505050565b6040518060c0016040528060608152602001606081526020016060815260200160006001600160a01b03168152602001600081526020016000151581525090565b80356001600160a01b03811681146123b757600080fd5b919050565b600080604083850312156123cf57600080fd5b6123d8836123a0565b946020939093013593505050565b6001600160e01b031981168114610b7157600080fd5b60006020828403121561240e57600080fd5b8135612419816123e6565b9392505050565b634e487b7160e01b600052604160045260246000fd5b604051601f8201601f191681016001600160401b038111828210171561245e5761245e612420565b604052919050565b6000806001600160401b0384111561248057612480612420565b50601f8301601f191660200161249581612436565b9150508281528383830111156124aa57600080fd5b828260208301376000602084830101529392505050565b6000602082840312156124d357600080fd5b81356001600160401b038111156124e957600080fd5b8201601f810184136124fa57600080fd5b61250984823560208401612466565b949350505050565b6000806040838503121561252457600080fd5b82359150612534602084016123a0565b90509250929050565b6000815180845260005b8181101561256357602081850181015186830182015201612547565b506000602082860101526020601f19601f83011685010191505092915050565b602081526000612419602083018461253d565b6000602082840312156125a857600080fd5b5035919050565b60c0815260006125c260c083018961253d565b82810360208401526125d4818961253d565b905082810360408401526125e8818861253d565b6001600160a01b0396909616606084015250506080810192909252151560a0909101529392505050565b60008083601f84011261262457600080fd5b5081356001600160401b0381111561263b57600080fd5b60208301915083602082850101111561265357600080fd5b9250929050565b6000806000806060858703121561267057600080fd5b8435935060208501356001600160401b0381111561268d57600080fd5b61269987828801612612565b90945092506126ac9050604086016123a0565b905092959194509250565b60006001600160401b038211156126d0576126d0612420565b5060051b60200190565b600082601f8301126126eb57600080fd5b81356126fe6126f9826126b7565b612436565b8082825260208201915060208360051b86010192508583111561272057600080fd5b602085015b8381101561273d578035835260209283019201612725565b5095945050505050565b600082601f83011261275857600080fd5b61241983833560208501612466565b600080600080600060a0868803121561277f57600080fd5b612788866123a0565b9450612796602087016123a0565b935060408601356001600160401b038111156127b157600080fd5b6127bd888289016126da565b93505060608601356001600160401b038111156127d957600080fd5b6127e5888289016126da565b92505060808601356001600160401b0381111561280157600080fd5b61280d88828901612747565b9150509295509295909350565b6000806020838503121561282d57600080fd5b82356001600160401b0381111561284357600080fd5b61284f85828601612612565b90969095509350505050565b6000806040838503121561286e57600080fd5b82356001600160401b0381111561288457600080fd5b8301601f8101851361289557600080fd5b80356128a36126f9826126b7565b8082825260208201915060208360051b8501019250878311156128c557600080fd5b6020840193505b828410156128ee576128dd846123a0565b8252602093840193909101906128cc565b945050505060208301356001600160401b0381111561290c57600080fd5b612918858286016126da565b9150509250929050565b600081518084526020840193506020830160005b82811015612954578151865260209586019590910190600101612936565b5093949350505050565b6020815260006124196020830184612922565b60008060008060008060006080888a03121561298c57600080fd5b87356001600160401b038111156129a257600080fd5b6129ae8a828b01612612565b90985096505060208801356001600160401b038111156129cd57600080fd5b6129d98a828b01612612565b90965094505060408801356001600160401b038111156129f857600080fd5b612a048a828b01612612565b9094509250612a179050606089016123a0565b905092959891949750929550565b600060208284031215612a3757600080fd5b612419826123a0565b60008060408385031215612a5357600080fd5b612a5c836123a0565b915060208301358015158114612a7157600080fd5b809150509250929050565b602081526000825160c06020840152612a9860e084018261253d565b90506020840151601f19848303016040850152612ab5828261253d565b9150506040840151601f19848303016060850152612ad3828261253d565b91505060018060a01b036060850151166080840152608084015160a084015260a0840151151560c08401528091505092915050565b600080600080600060608688031215612b2057600080fd5b85356001600160401b03811115612b3657600080fd5b612b4288828901612612565b90965094505060208601356001600160401b03811115612b6157600080fd5b612b6d88828901612612565b9094509250612b809050604087016123a0565b90509295509295909350565b60008060408385031215612b9f57600080fd5b612ba8836123a0565b9150612534602084016123a0565b60008060008060008060608789031215612bcf57600080fd5b86356001600160401b03811115612be557600080fd5b612bf189828a01612612565b90975095505060208701356001600160401b03811115612c1057600080fd5b612c1c89828a01612612565b90955093505060408701356001600160401b03811115612c3b57600080fd5b612c4789828a01612612565b979a9699509497509295939492505050565b600080600080600060a08688031215612c7157600080fd5b612c7a866123a0565b9450612c88602087016123a0565b9350604086013592506060860135915060808601356001600160401b0381111561280157600080fd5b600181811c90821680612cc557607f821691505b602082108103612ce557634e487b7160e01b600052602260045260246000fd5b50919050565b81835281816020850137506000828201602090810191909152601f909101601f19169091010190565b604081526000808554612d2681612cb1565b8060408601526001821660008114612d455760018114612d6157612d95565b60ff1983166060870152606082151560051b8701019350612d95565b88600052602060002060005b83811015612d8c57815488820160600152600190910190602001612d6d565b87016060019450505b5050508281036020840152612dab818587612ceb565b9695505050505050565b8183823760009101908152919050565b634e487b7160e01b600052603260045260246000fd5b634e487b7160e01b600052601160045260246000fd5b600060018201612e0357612e03612ddb565b5060010190565b601f821115610b5957806000526020600020601f840160051c81016020851015612e315750805b601f840160051c820191505b818110156113905760008155600101612e3d565b81516001600160401b03811115612e6a57612e6a612420565b612e7e81612e788454612cb1565b84612e0a565b6020601f821160018114612eb25760008315612e9a5750848201515b600019600385901b1c1916600184901b178455611390565b600084815260208120601f198516915b82811015612ee25787850151825560209485019460019092019101612ec2565b5084821015612f005786840151600019600387901b60f8161c191681555b50505050600190811b01905550565b604081526000612f23604083018688612ceb565b8281036020840152610fed818587612ceb565b6001600160a01b03868116825285166020820152604081018490526060810183905260a060808201819052600090610fed9083018461253d565b600060208284031215612f8257600080fd5b8151612419816123e6565b6001600160a01b0386811682528516602082015260a060408201819052600090612fb990830186612922565b8281036060840152612fcb8186612922565b90508281036080840152612fdf818561253d565b98975050505050505050565b808201808211156105e0576105e0612ddb565b6040815260006130116040830185612922565b82810360208401526130238185612922565b9594505050505056fef0887ba65ee2024ea881d91b74c2450ef19e1557f03bed3ea9f16b037cbe2dc9a2646970667358221220621517bbde110e34bacfbab269a8a109d8d620bbd6b49d282638fa4fdce95f8e64736f6c634300081d0033f0887ba65ee2024ea881d91b74c2450ef19e1557f03bed3ea9f16b037cbe2dc9",
  "linkReferences": {},
  "deployedLinkReferences": {}
}