{"abi":[{"type":"function","name":"createArbitraryMessage","inputs":[{"name":"_contractToBeCalled","type":"address","internalType":"address"},{"name":"_encodedFunctionCall","type":"bytes","internalType":"bytes"}],"outputs":[{"name":"","type":"bytes","internalType":"bytes"}],"stateMutability":"pure"}],"bytecode":{"object":"0x61023a610039600b82828239805160001a607314602c57634e487b7160e01b600052600060045260246000fd5b30600052607381538281f3fe73000000000000000000000000000000000000000030146080604052600436106100355760003560e01c80636763951c1461003a575b600080fd5b61004d6100483660046100a8565b610063565b60405161005a91906101be565b60405180910390f35b60606000838360405160200161007a9291906101d8565b60408051808303601f19018152919052949350505050565b634e487b7160e01b600052604160045260246000fd5b600080604083850312156100bb57600080fd5b82356001600160a01b03811681146100d257600080fd5b9150602083013567ffffffffffffffff808211156100ef57600080fd5b818501915085601f83011261010357600080fd5b81358181111561011557610115610092565b604051601f8201601f19908116603f0116810190838211818310171561013d5761013d610092565b8160405282815288602084870101111561015657600080fd5b8260208601602083013760006020848301015280955050505050509250929050565b6000815180845260005b8181101561019e57602081850181015186830182015201610182565b506000602082860101526020601f19601f83011685010191505092915050565b6020815260006101d16020830184610178565b9392505050565b6001600160a01b03831681526040602082018190526000906101fc90830184610178565b94935050505056fea2646970667358221220d604eb0bcdc973bc18f242d430253673cce243892a2cd47d8de9979ff0ef093564736f6c63430008190033","linkReferences":{}},"methodIdentifiers":{"createArbitraryMessage(address,bytes)":"6763951c"},"id":12}