{"abi":[{"type":"constructor","inputs":[],"stateMutability":"nonpayable"},{"type":"function","name":"approve","inputs":[{"name":"to","type":"address","internalType":"address"},{"name":"tokenId","type":"uint256","internalType":"uint256"}],"outputs":[],"stateMutability":"nonpayable"},{"type":"function","name":"balanceOf","inputs":[{"name":"owner","type":"address","internalType":"address"}],"outputs":[{"name":"","type":"uint256","internalType":"uint256"}],"stateMutability":"view"},{"type":"function","name":"getApproved","inputs":[{"name":"tokenId","type":"uint256","internalType":"uint256"}],"outputs":[{"name":"","type":"address","internalType":"address"}],"stateMutability":"view"},{"type":"function","name":"isApprovedForAll","inputs":[{"name":"owner","type":"address","internalType":"address"},{"name":"operator","type":"address","internalType":"address"}],"outputs":[{"name":"","type":"bool","internalType":"bool"}],"stateMutability":"view"},{"type":"function","name":"name","inputs":[],"outputs":[{"name":"","type":"string","internalType":"string"}],"stateMutability":"view"},{"type":"function","name":"ownerOf","inputs":[{"name":"tokenId","type":"uint256","internalType":"uint256"}],"outputs":[{"name":"","type":"address","internalType":"address"}],"stateMutability":"view"},{"type":"function","name":"safeMint","inputs":[{"name":"to","type":"address","internalType":"address"}],"outputs":[],"stateMutability":"nonpayable"},{"type":"function","name":"safeTransferFrom","inputs":[{"name":"from","type":"address","internalType":"address"},{"name":"to","type":"address","internalType":"address"},{"name":"tokenId","type":"uint256","internalType":"uint256"}],"outputs":[],"stateMutability":"nonpayable"},{"type":"function","name":"safeTransferFrom","inputs":[{"name":"from","type":"address","internalType":"address"},{"name":"to","type":"address","internalType":"address"},{"name":"tokenId","type":"uint256","internalType":"uint256"},{"name":"data","type":"bytes","internalType":"bytes"}],"outputs":[],"stateMutability":"nonpayable"},{"type":"function","name":"setApprovalForAll","inputs":[{"name":"operator","type":"address","internalType":"address"},{"name":"approved","type":"bool","internalType":"bool"}],"outputs":[],"stateMutability":"nonpayable"},{"type":"function","name":"supportsInterface","inputs":[{"name":"interfaceId","type":"bytes4","internalType":"bytes4"}],"outputs":[{"name":"","type":"bool","internalType":"bool"}],"stateMutability":"view"},{"type":"function","name":"symbol","inputs":[],"outputs":[{"name":"","type":"string","internalType":"string"}],"stateMutability":"view"},{"type":"function","name":"tokenURI","inputs":[{"name":"_tokenId","type":"uint256","internalType":"uint256"}],"outputs":[{"name":"","type":"string","internalType":"string"}],"stateMutability":"view"},{"type":"function","name":"transferFrom","inputs":[{"name":"from","type":"address","internalType":"address"},{"name":"to","type":"address","internalType":"address"},{"name":"tokenId","type":"uint256","internalType":"uint256"}],"outputs":[],"stateMutability":"nonpayable"},{"type":"event","name":"Approval","inputs":[{"name":"owner","type":"address","indexed":true,"internalType":"address"},{"name":"approved","type":"address","indexed":true,"internalType":"address"},{"name":"tokenId","type":"uint256","indexed":true,"internalType":"uint256"}],"anonymous":false},{"type":"event","name":"ApprovalForAll","inputs":[{"name":"owner","type":"address","indexed":true,"internalType":"address"},{"name":"operator","type":"address","indexed":true,"internalType":"address"},{"name":"approved","type":"bool","indexed":false,"internalType":"bool"}],"anonymous":false},{"type":"event","name":"Transfer","inputs":[{"name":"from","type":"address","indexed":true,"internalType":"address"},{"name":"to","type":"address","indexed":true,"internalType":"address"},{"name":"tokenId","type":"uint256","indexed":true,"internalType":"uint256"}],"anonymous":false},{"type":"error","name":"ERC721IncorrectOwner","inputs":[{"name":"sender","type":"address","internalType":"address"},{"name":"tokenId","type":"uint256","internalType":"uint256"},{"name":"owner","type":"address","internalType":"address"}]},{"type":"error","name":"ERC721InsufficientApproval","inputs":[{"name":"operator","type":"address","internalType":"address"},{"name":"tokenId","type":"uint256","internalType":"uint256"}]},{"type":"error","name":"ERC721InvalidApprover","inputs":[{"name":"approver","type":"address","internalType":"address"}]},{"type":"error","name":"ERC721InvalidOperator","inputs":[{"name":"operator","type":"address","internalType":"address"}]},{"type":"error","name":"ERC721InvalidOwner","inputs":[{"name":"owner","type":"address","internalType":"address"}]},{"type":"error","name":"ERC721InvalidReceiver","inputs":[{"name":"receiver","type":"address","internalType":"address"}]},{"type":"error","name":"ERC721InvalidSender","inputs":[{"name":"sender","type":"address","internalType":"address"}]},{"type":"error","name":"ERC721NonexistentToken","inputs":[{"name":"tokenId","type":"uint256","internalType":"uint256"}]}],"bytecode":{"object":"0x610100604052604360808181529061107060a0396007906100209082610133565b5034801561002d57600080fd5b506040518060400160405280600b81526020016a4e465447756e7a696c6c6160a81b8152506040518060400160405280600381526020016223aaa760e91b815250816000908161007d9190610133565b50600161008a8282610133565b5050506101f2565b634e487b7160e01b600052604160045260246000fd5b600181811c908216806100bc57607f821691505b6020821081036100dc57634e487b7160e01b600052602260045260246000fd5b50919050565b601f82111561012e576000816000526020600020601f850160051c8101602086101561010b5750805b601f850160051c820191505b8181101561012a57828155600101610117565b5050505b505050565b81516001600160401b0381111561014c5761014c610092565b6101608161015a84546100a8565b846100e2565b602080601f831160018114610195576000841561017d5750858301515b600019600386901b1c1916600185901b17855561012a565b600085815260208120601f198616915b828110156101c4578886015182559484019460019091019084016101a5565b50858210156101e25787850151600019600388901b60f8161c191681555b5050505050600190811b01905550565b610e6f806102016000396000f3fe608060405234801561001057600080fd5b50600436106100ea5760003560e01c80636352211e1161008c578063a22cb46511610066578063a22cb465146101e1578063b88d4fde146101f4578063c87b56dd14610207578063e985e9c51461021a57600080fd5b80636352211e146101a557806370a08231146101b857806395d89b41146101d957600080fd5b8063095ea7b3116100c8578063095ea7b31461015757806323b872dd1461016c57806340d097c31461017f57806342842e0e1461019257600080fd5b806301ffc9a7146100ef57806306fdde0314610117578063081812fc1461012c575b600080fd5b6101026100fd366004610aea565b61022d565b60405190151581526020015b60405180910390f35b61011f61027f565b60405161010e9190610b54565b61013f61013a366004610b67565b610311565b6040516001600160a01b03909116815260200161010e565b61016a610165366004610b9c565b61033a565b005b61016a61017a366004610bc6565b610349565b61016a61018d366004610c02565b6103d9565b61016a6101a0366004610bc6565b6103fa565b61013f6101b3366004610b67565b61041a565b6101cb6101c6366004610c02565b610425565b60405190815260200161010e565b61011f61046d565b61016a6101ef366004610c1d565b61047c565b61016a610202366004610c6f565b610487565b61011f610215366004610b67565b61049f565b610102610228366004610d4b565b610533565b60006001600160e01b031982166380ac58cd60e01b148061025e57506001600160e01b03198216635b5e139f60e01b145b8061027957506301ffc9a760e01b6001600160e01b03198316145b92915050565b60606000805461028e90610d7e565b80601f01602080910402602001604051908101604052809291908181526020018280546102ba90610d7e565b80156103075780601f106102dc57610100808354040283529160200191610307565b820191906000526020600020905b8154815290600101906020018083116102ea57829003601f168201915b5050505050905090565b600061031c82610561565b506000828152600460205260409020546001600160a01b0316610279565b61034582823361059a565b5050565b6001600160a01b03821661037857604051633250574960e11b8152600060048201526024015b60405180910390fd5b60006103858383336105a7565b9050836001600160a01b0316816001600160a01b0316146103d3576040516364283d7b60e01b81526001600160a01b038086166004830152602482018490528216604482015260640161036f565b50505050565b60068054600091826103ea83610db8565b91905055905061034582826106a0565b61041583838360405180602001604052806000815250610487565b505050565b600061027982610561565b60006001600160a01b038216610451576040516322718ad960e21b81526000600482015260240161036f565b506001600160a01b031660009081526003602052604090205490565b60606001805461028e90610d7e565b6103453383836106ba565b610492848484610349565b6103d33385858585610759565b6060600780546104ae90610d7e565b80601f01602080910402602001604051908101604052809291908181526020018280546104da90610d7e565b80156105275780601f106104fc57610100808354040283529160200191610527565b820191906000526020600020905b81548152906001019060200180831161050a57829003601f168201915b50505050509050919050565b6001600160a01b03918216600090815260056020908152604080832093909416825291909152205460ff1690565b6000818152600260205260408120546001600160a01b03168061027957604051637e27328960e01b81526004810184905260240161036f565b6104158383836001610884565b6000828152600260205260408120546001600160a01b03908116908316156105d4576105d481848661098a565b6001600160a01b03811615610612576105f1600085600080610884565b6001600160a01b038116600090815260036020526040902080546000190190555b6001600160a01b03851615610641576001600160a01b0385166000908152600360205260409020805460010190555b60008481526002602052604080822080546001600160a01b0319166001600160a01b0389811691821790925591518793918516917fddf252ad1be2c89b69c2b068fc378daa952ba7f163c4a11628f55a4df523b3ef91a4949350505050565b6103458282604051806020016040528060008152506109ee565b6001600160a01b0382166106ec57604051630b61174360e31b81526001600160a01b038316600482015260240161036f565b6001600160a01b03838116600081815260056020908152604080832094871680845294825291829020805460ff191686151590811790915591519182527f17307eab39ab6107e8899845ad3d59bd9653f200f220920489ca2b5937696c31910160405180910390a3505050565b6001600160a01b0383163b1561087d57604051630a85bd0160e11b81526001600160a01b0384169063150b7a029061079b908890889087908790600401610ddf565b6020604051808303816000875af19250505080156107d6575060408051601f3d908101601f191682019092526107d391810190610e1c565b60015b61083f573d808015610804576040519150601f19603f3d011682016040523d82523d6000602084013e610809565b606091505b50805160000361083757604051633250574960e11b81526001600160a01b038516600482015260240161036f565b805181602001fd5b6001600160e01b03198116630a85bd0160e11b1461087b57604051633250574960e11b81526001600160a01b038516600482015260240161036f565b505b5050505050565b808061089857506001600160a01b03821615155b1561095a5760006108a884610561565b90506001600160a01b038316158015906108d45750826001600160a01b0316816001600160a01b031614155b80156108e757506108e58184610533565b155b156109105760405163a9fbf51f60e01b81526001600160a01b038416600482015260240161036f565b81156109585783856001600160a01b0316826001600160a01b03167f8c5be1e5ebec7d5bd14f71427d1e84f3dd0314c0f7b2291e5b200ac8c7c3b92560405160405180910390a45b505b5050600090815260046020526040902080546001600160a01b0319166001600160a01b0392909216919091179055565b610995838383610a06565b610415576001600160a01b0383166109c357604051637e27328960e01b81526004810182905260240161036f565b60405163177e802f60e01b81526001600160a01b03831660048201526024810182905260440161036f565b6109f88383610a6c565b610415336000858585610759565b60006001600160a01b03831615801590610a645750826001600160a01b0316846001600160a01b03161480610a405750610a408484610533565b80610a6457506000828152600460205260409020546001600160a01b038481169116145b949350505050565b6001600160a01b038216610a9657604051633250574960e11b81526000600482015260240161036f565b6000610aa4838360006105a7565b90506001600160a01b03811615610415576040516339e3563760e11b81526000600482015260240161036f565b6001600160e01b031981168114610ae757600080fd5b50565b600060208284031215610afc57600080fd5b8135610b0781610ad1565b9392505050565b6000815180845260005b81811015610b3457602081850181015186830182015201610b18565b506000602082860101526020601f19601f83011685010191505092915050565b602081526000610b076020830184610b0e565b600060208284031215610b7957600080fd5b5035919050565b80356001600160a01b0381168114610b9757600080fd5b919050565b60008060408385031215610baf57600080fd5b610bb883610b80565b946020939093013593505050565b600080600060608486031215610bdb57600080fd5b610be484610b80565b9250610bf260208501610b80565b9150604084013590509250925092565b600060208284031215610c1457600080fd5b610b0782610b80565b60008060408385031215610c3057600080fd5b610c3983610b80565b915060208301358015158114610c4e57600080fd5b809150509250929050565b634e487b7160e01b600052604160045260246000fd5b60008060008060808587031215610c8557600080fd5b610c8e85610b80565b9350610c9c60208601610b80565b925060408501359150606085013567ffffffffffffffff80821115610cc057600080fd5b818701915087601f830112610cd457600080fd5b813581811115610ce657610ce6610c59565b604051601f8201601f19908116603f01168101908382118183101715610d0e57610d0e610c59565b816040528281528a6020848701011115610d2757600080fd5b82602086016020830137600060208483010152809550505050505092959194509250565b60008060408385031215610d5e57600080fd5b610d6783610b80565b9150610d7560208401610b80565b90509250929050565b600181811c90821680610d9257607f821691505b602082108103610db257634e487b7160e01b600052602260045260246000fd5b50919050565b600060018201610dd857634e487b7160e01b600052601160045260246000fd5b5060010190565b6001600160a01b0385811682528416602082015260408101839052608060608201819052600090610e1290830184610b0e565b9695505050505050565b600060208284031215610e2e57600080fd5b8151610b0781610ad156fea264697066735822122010a1ee5033270cc1b9e0423abc7aa710f30ee58d6c4c1d982d77533c935327b064736f6c6343000819003368747470733a2f2f697066732e696f2f697066732f516d56744a32486b4b4e654a6178705a746d6e4e75483744654c7a54596b6b526a52796d32644d6b345a3734576d","linkReferences":{}},"methodIdentifiers":{"approve(address,uint256)":"095ea7b3","balanceOf(address)":"70a08231","getApproved(uint256)":"081812fc","isApprovedForAll(address,address)":"e985e9c5","name()":"06fdde03","ownerOf(uint256)":"6352211e","safeMint(address)":"40d097c3","safeTransferFrom(address,address,uint256)":"42842e0e","safeTransferFrom(address,address,uint256,bytes)":"b88d4fde","setApprovalForAll(address,bool)":"a22cb465","supportsInterface(bytes4)":"01ffc9a7","symbol()":"95d89b41","tokenURI(uint256)":"c87b56dd","transferFrom(address,address,uint256)":"23b872dd"},"id":8}