{"abi":[{"type":"function","name":"s_counter","inputs":[],"outputs":[{"name":"","type":"uint256","internalType":"uint256"}],"stateMutability":"view"},{"type":"function","name":"s_greeting","inputs":[],"outputs":[{"name":"","type":"string","internalType":"string"}],"stateMutability":"view"},{"type":"function","name":"setCounter","inputs":[{"name":"_counter","type":"uint256","internalType":"uint256"}],"outputs":[],"stateMutability":"nonpayable"},{"type":"function","name":"setGreeting","inputs":[{"name":"_greeting","type":"string","internalType":"string"}],"outputs":[],"stateMutability":"nonpayable"}],"bytecode":{"object":"0x6080604052348015600f57600080fd5b506103fc8061001f6000396000f3fe608060405234801561001057600080fd5b506004361061004c5760003560e01c80633ea6143b1461005157806369e1770c1461006f5780638bb5d9c314610086578063a41368621461009b575b600080fd5b6100596100ae565b604051610066919061014c565b60405180910390f35b61007860015481565b604051908152602001610066565b61009961009436600461019b565b600155565b005b6100996100a93660046101ca565b61013c565b600080546100bb9061027b565b80601f01602080910402602001604051908101604052809291908181526020018280546100e79061027b565b80156101345780601f1061010957610100808354040283529160200191610134565b820191906000526020600020905b81548152906001019060200180831161011757829003601f168201915b505050505081565b60006101488282610306565b5050565b60006020808352835180602085015260005b8181101561017a5785810183015185820160400152820161015e565b506000604082860101526040601f19601f8301168501019250505092915050565b6000602082840312156101ad57600080fd5b5035919050565b634e487b7160e01b600052604160045260246000fd5b6000602082840312156101dc57600080fd5b813567ffffffffffffffff808211156101f457600080fd5b818401915084601f83011261020857600080fd5b81358181111561021a5761021a6101b4565b604051601f8201601f19908116603f01168101908382118183101715610242576102426101b4565b8160405282815287602084870101111561025b57600080fd5b826020860160208301376000928101602001929092525095945050505050565b600181811c9082168061028f57607f821691505b6020821081036102af57634e487b7160e01b600052602260045260246000fd5b50919050565b601f821115610301576000816000526020600020601f850160051c810160208610156102de5750805b601f850160051c820191505b818110156102fd578281556001016102ea565b5050505b505050565b815167ffffffffffffffff811115610320576103206101b4565b6103348161032e845461027b565b846102b5565b602080601f83116001811461036957600084156103515750858301515b600019600386901b1c1916600185901b1785556102fd565b600085815260208120601f198616915b8281101561039857888601518255948401946001909101908401610379565b50858210156103b65787850151600019600388901b60f8161c191681555b5050505050600190811b0190555056fea264697066735822122018a2ccf7bd12468d0f02b75cf65b74ffae60668e730cae9453e9e863b69002fd64736f6c63430008190033","linkReferences":{}},"methodIdentifiers":{"s_counter()":"69e1770c","s_greeting()":"3ea6143b","setCounter(uint256)":"8bb5d9c3","setGreeting(string)":"a4136862"},"id":6}