{"abi":[{"type":"constructor","inputs":[{"name":"_name","type":"string","internalType":"string"},{"name":"_symbol","type":"string","internalType":"string"},{"name":"_minter","type":"address","internalType":"address"},{"name":"_owner","type":"address","internalType":"address"}],"stateMutability":"nonpayable"},{"type":"function","name":"CLOCK_MODE","inputs":[],"outputs":[{"name":"","type":"string","internalType":"string"}],"stateMutability":"view"},{"type":"function","name":"DOMAIN_SEPARATOR","inputs":[],"outputs":[{"name":"","type":"bytes32","internalType":"bytes32"}],"stateMutability":"view"},{"type":"function","name":"MAX_SUPPLY","inputs":[],"outputs":[{"name":"","type":"uint256","internalType":"uint256"}],"stateMutability":"view"},{"type":"function","name":"allowance","inputs":[{"name":"owner","type":"address","internalType":"address"},{"name":"spender","type":"address","internalType":"address"}],"outputs":[{"name":"","type":"uint256","internalType":"uint256"}],"stateMutability":"view"},{"type":"function","name":"approve","inputs":[{"name":"spender","type":"address","internalType":"address"},{"name":"value","type":"uint256","internalType":"uint256"}],"outputs":[{"name":"","type":"bool","internalType":"bool"}],"stateMutability":"nonpayable"},{"type":"function","name":"balanceOf","inputs":[{"name":"account","type":"address","internalType":"address"}],"outputs":[{"name":"","type":"uint256","internalType":"uint256"}],"stateMutability":"view"},{"type":"function","name":"burn","inputs":[{"name":"value","type":"uint256","internalType":"uint256"}],"outputs":[],"stateMutability":"nonpayable"},{"type":"function","name":"burnFrom","inputs":[{"name":"account","type":"address","internalType":"address"},{"name":"value","type":"uint256","internalType":"uint256"}],"outputs":[],"stateMutability":"nonpayable"},{"type":"function","name":"checkpoints","inputs":[{"name":"account","type":"address","internalType":"address"},{"name":"pos","type":"uint32","internalType":"uint32"}],"outputs":[{"name":"","type":"tuple","internalType":"struct Checkpoints.Checkpoint208","components":[{"name":"_key","type":"uint48","internalType":"uint48"},{"name":"_value","type":"uint208","internalType":"uint208"}]}],"stateMutability":"view"},{"type":"function","name":"clock","inputs":[],"outputs":[{"name":"","type":"uint48","internalType":"uint48"}],"stateMutability":"view"},{"type":"function","name":"decimals","inputs":[],"outputs":[{"name":"","type":"uint8","internalType":"uint8"}],"stateMutability":"view"},{"type":"function","name":"delegate","inputs":[{"name":"delegatee","type":"address","internalType":"address"}],"outputs":[],"stateMutability":"nonpayable"},{"type":"function","name":"delegateBySig","inputs":[{"name":"delegatee","type":"address","internalType":"address"},{"name":"nonce","type":"uint256","internalType":"uint256"},{"name":"expiry","type":"uint256","internalType":"uint256"},{"name":"v","type":"uint8","internalType":"uint8"},{"name":"r","type":"bytes32","internalType":"bytes32"},{"name":"s","type":"bytes32","internalType":"bytes32"}],"outputs":[],"stateMutability":"nonpayable"},{"type":"function","name":"delegates","inputs":[{"name":"account","type":"address","internalType":"address"}],"outputs":[{"name":"","type":"address","internalType":"address"}],"stateMutability":"view"},{"type":"function","name":"eip712Domain","inputs":[],"outputs":[{"name":"fields","type":"bytes1","internalType":"bytes1"},{"name":"name","type":"string","internalType":"string"},{"name":"version","type":"string","internalType":"string"},{"name":"chainId","type":"uint256","internalType":"uint256"},{"name":"verifyingContract","type":"address","internalType":"address"},{"name":"salt","type":"bytes32","internalType":"bytes32"},{"name":"extensions","type":"uint256[]","internalType":"uint256[]"}],"stateMutability":"view"},{"type":"function","name":"getPastTotalSupply","inputs":[{"name":"timepoint","type":"uint256","internalType":"uint256"}],"outputs":[{"name":"","type":"uint256","internalType":"uint256"}],"stateMutability":"view"},{"type":"function","name":"getPastVotes","inputs":[{"name":"account","type":"address","internalType":"address"},{"name":"timepoint","type":"uint256","internalType":"uint256"}],"outputs":[{"name":"","type":"uint256","internalType":"uint256"}],"stateMutability":"view"},{"type":"function","name":"getVotes","inputs":[{"name":"account","type":"address","internalType":"address"}],"outputs":[{"name":"","type":"uint256","internalType":"uint256"}],"stateMutability":"view"},{"type":"function","name":"mint","inputs":[{"name":"_account","type":"address","internalType":"address"},{"name":"_amount","type":"uint256","internalType":"uint256"}],"outputs":[],"stateMutability":"nonpayable"},{"type":"function","name":"minter","inputs":[],"outputs":[{"name":"","type":"address","internalType":"address"}],"stateMutability":"view"},{"type":"function","name":"name","inputs":[],"outputs":[{"name":"","type":"string","internalType":"string"}],"stateMutability":"view"},{"type":"function","name":"nonces","inputs":[{"name":"_owner","type":"address","internalType":"address"}],"outputs":[{"name":"","type":"uint256","internalType":"uint256"}],"stateMutability":"view"},{"type":"function","name":"numCheckpoints","inputs":[{"name":"account","type":"address","internalType":"address"}],"outputs":[{"name":"","type":"uint32","internalType":"uint32"}],"stateMutability":"view"},{"type":"function","name":"owner","inputs":[],"outputs":[{"name":"","type":"address","internalType":"address"}],"stateMutability":"view"},{"type":"function","name":"permit","inputs":[{"name":"owner","type":"address","internalType":"address"},{"name":"spender","type":"address","internalType":"address"},{"name":"value","type":"uint256","internalType":"uint256"},{"name":"deadline","type":"uint256","internalType":"uint256"},{"name":"v","type":"uint8","internalType":"uint8"},{"name":"r","type":"bytes32","internalType":"bytes32"},{"name":"s","type":"bytes32","internalType":"bytes32"}],"outputs":[],"stateMutability":"nonpayable"},{"type":"function","name":"renounceOwnership","inputs":[],"outputs":[],"stateMutability":"nonpayable"},{"type":"function","name":"setMinter","inputs":[{"name":"newMinter","type":"address","internalType":"address"}],"outputs":[],"stateMutability":"nonpayable"},{"type":"function","name":"symbol","inputs":[],"outputs":[{"name":"","type":"string","internalType":"string"}],"stateMutability":"view"},{"type":"function","name":"totalSupply","inputs":[],"outputs":[{"name":"","type":"uint256","internalType":"uint256"}],"stateMutability":"view"},{"type":"function","name":"transfer","inputs":[{"name":"to","type":"address","internalType":"address"},{"name":"value","type":"uint256","internalType":"uint256"}],"outputs":[{"name":"","type":"bool","internalType":"bool"}],"stateMutability":"nonpayable"},{"type":"function","name":"transferFrom","inputs":[{"name":"from","type":"address","internalType":"address"},{"name":"to","type":"address","internalType":"address"},{"name":"value","type":"uint256","internalType":"uint256"}],"outputs":[{"name":"","type":"bool","internalType":"bool"}],"stateMutability":"nonpayable"},{"type":"function","name":"transferOwnership","inputs":[{"name":"newOwner","type":"address","internalType":"address"}],"outputs":[],"stateMutability":"nonpayable"},{"type":"event","name":"Approval","inputs":[{"name":"owner","type":"address","indexed":true,"internalType":"address"},{"name":"spender","type":"address","indexed":true,"internalType":"address"},{"name":"value","type":"uint256","indexed":false,"internalType":"uint256"}],"anonymous":false},{"type":"event","name":"DelegateChanged","inputs":[{"name":"delegator","type":"address","indexed":true,"internalType":"address"},{"name":"fromDelegate","type":"address","indexed":true,"internalType":"address"},{"name":"toDelegate","type":"address","indexed":true,"internalType":"address"}],"anonymous":false},{"type":"event","name":"DelegateVotesChanged","inputs":[{"name":"delegate","type":"address","indexed":true,"internalType":"address"},{"name":"previousVotes","type":"uint256","indexed":false,"internalType":"uint256"},{"name":"newVotes","type":"uint256","indexed":false,"internalType":"uint256"}],"anonymous":false},{"type":"event","name":"EIP712DomainChanged","inputs":[],"anonymous":false},{"type":"event","name":"NewMinter","inputs":[{"name":"newMinter","type":"address","indexed":false,"internalType":"address"}],"anonymous":false},{"type":"event","name":"OwnershipTransferred","inputs":[{"name":"previousOwner","type":"address","indexed":true,"internalType":"address"},{"name":"newOwner","type":"address","indexed":true,"internalType":"address"}],"anonymous":false},{"type":"event","name":"Transfer","inputs":[{"name":"from","type":"address","indexed":true,"internalType":"address"},{"name":"to","type":"address","indexed":true,"internalType":"address"},{"name":"value","type":"uint256","indexed":false,"internalType":"uint256"}],"anonymous":false},{"type":"error","name":"CallerNotMinter","inputs":[{"name":"caller","type":"address","internalType":"address"}]},{"type":"error","name":"CheckpointUnorderedInsertion","inputs":[]},{"type":"error","name":"ECDSAInvalidSignature","inputs":[]},{"type":"error","name":"ECDSAInvalidSignatureLength","inputs":[{"name":"length","type":"uint256","internalType":"uint256"}]},{"type":"error","name":"ECDSAInvalidSignatureS","inputs":[{"name":"s","type":"bytes32","internalType":"bytes32"}]},{"type":"error","name":"ERC20ExceededSafeSupply","inputs":[{"name":"increasedSupply","type":"uint256","internalType":"uint256"},{"name":"cap","type":"uint256","internalType":"uint256"}]},{"type":"error","name":"ERC20InsufficientAllowance","inputs":[{"name":"spender","type":"address","internalType":"address"},{"name":"allowance","type":"uint256","internalType":"uint256"},{"name":"needed","type":"uint256","internalType":"uint256"}]},{"type":"error","name":"ERC20InsufficientBalance","inputs":[{"name":"sender","type":"address","internalType":"address"},{"name":"balance","type":"uint256","internalType":"uint256"},{"name":"needed","type":"uint256","internalType":"uint256"}]},{"type":"error","name":"ERC20InvalidApprover","inputs":[{"name":"approver","type":"address","internalType":"address"}]},{"type":"error","name":"ERC20InvalidReceiver","inputs":[{"name":"receiver","type":"address","internalType":"address"}]},{"type":"error","name":"ERC20InvalidSender","inputs":[{"name":"sender","type":"address","internalType":"address"}]},{"type":"error","name":"ERC20InvalidSpender","inputs":[{"name":"spender","type":"address","internalType":"address"}]},{"type":"error","name":"ERC2612ExpiredSignature","inputs":[{"name":"deadline","type":"uint256","internalType":"uint256"}]},{"type":"error","name":"ERC2612InvalidSigner","inputs":[{"name":"signer","type":"address","internalType":"address"},{"name":"owner","type":"address","internalType":"address"}]},{"type":"error","name":"ERC5805FutureLookup","inputs":[{"name":"timepoint","type":"uint256","internalType":"uint256"},{"name":"clock","type":"uint48","internalType":"uint48"}]},{"type":"error","name":"ERC6372InconsistentClock","inputs":[]},{"type":"error","name":"InvalidAccountNonce","inputs":[{"name":"account","type":"address","internalType":"address"},{"name":"currentNonce","type":"uint256","internalType":"uint256"}]},{"type":"error","name":"InvalidMinterZeroAddress","inputs":[]},{"type":"error","name":"InvalidShortString","inputs":[]},{"type":"error","name":"OwnableInvalidOwner","inputs":[{"name":"owner","type":"address","internalType":"address"}]},{"type":"error","name":"OwnableUnauthorizedAccount","inputs":[{"name":"account","type":"address","internalType":"address"}]},{"type":"error","name":"SafeCastOverflowedUintDowncast","inputs":[{"name":"bits","type":"uint8","internalType":"uint8"},{"name":"value","type":"uint256","internalType":"uint256"}]},{"type":"error","name":"StringTooLong","inputs":[{"name":"str","type":"string","internalType":"string"}]},{"type":"error","name":"VotesExpiredSignature","inputs":[{"name":"expiry","type":"uint256","internalType":"uint256"}]}],"bytecode":{"object":"0x61016060405234801561001157600080fd5b506040516126c13803806126c183398101604081905261003091610327565b8084848180604051806040016040528060018152602001603160f81b815250848481600390816100609190610436565b50600461006d8282610436565b5061007d91508390506005610187565b6101205261008c816006610187565b61014052815160208084019190912060e052815190820120610100524660a05261011960e05161010051604080517f8b73c3c69bb8fe3d512ecc4cf759cc79239f7b179b0ffacaa9a75d522b39400f60208201529081019290925260608201524660808201523060a082015260009060c00160405160208183030381529060405280519060200120905090565b60805250503060c0525050506001600160a01b03811661015457604051631e4fbdf760e01b8152600060048201526024015b60405180910390fd5b61015d816101ba565b5050600c80546001600160a01b0319166001600160a01b03929092169190911790555061054c9050565b60006020835110156101a35761019c8361020c565b90506101b4565b816101ae8482610436565b5060ff90505b92915050565b600b80546001600160a01b038381166001600160a01b0319831681179093556040519116919082907f8be0079c531659141344cd1fd0a4f28419497f9722a3daafe3b4186f6b6457e090600090a35050565b600080829050601f81511115610237578260405163305a27a960e01b815260040161014b91906104f5565b805161024282610528565b179392505050565b634e487b7160e01b600052604160045260246000fd5b60005b8381101561027b578181015183820152602001610263565b50506000910152565b600082601f83011261029557600080fd5b81516001600160401b03808211156102af576102af61024a565b604051601f8301601f19908116603f011681019082821181831017156102d7576102d761024a565b816040528381528660208588010111156102f057600080fd5b610301846020830160208901610260565b9695505050505050565b80516001600160a01b038116811461032257600080fd5b919050565b6000806000806080858703121561033d57600080fd5b84516001600160401b038082111561035457600080fd5b61036088838901610284565b9550602087015191508082111561037657600080fd5b5061038387828801610284565b9350506103926040860161030b565b91506103a06060860161030b565b905092959194509250565b600181811c908216806103bf57607f821691505b6020821081036103df57634e487b7160e01b600052602260045260246000fd5b50919050565b601f821115610431576000816000526020600020601f850160051c8101602086101561040e5750805b601f850160051c820191505b8181101561042d5782815560010161041a565b5050505b505050565b81516001600160401b0381111561044f5761044f61024a565b6104638161045d84546103ab565b846103e5565b602080601f83116001811461049857600084156104805750858301515b600019600386901b1c1916600185901b17855561042d565b600085815260208120601f198616915b828110156104c7578886015182559484019460019091019084016104a8565b50858210156104e55787850151600019600388901b60f8161c191681555b5050505050600190811b01905550565b6020815260008251806020840152610514816040850160208701610260565b601f01601f19169190910160400192915050565b805160208083015191908110156103df5760001960209190910360031b1b16919050565b60805160a05160c05160e05161010051610120516101405161211b6105a6600039600061101a01526000610fed01526000610d1e01526000610cf601526000610c5101526000610c7b01526000610ca5015261211b6000f3fe608060405234801561001057600080fd5b50600436106101f05760003560e01c8063715018a61161010f5780639ab24eb0116100a2578063dd62ed3e11610071578063dd62ed3e14610463578063f1127ed81461049c578063f2fde38b146104db578063fca3b5aa146104ee57600080fd5b80639ab24eb014610417578063a9059cbb1461042a578063c3cda5201461043d578063d505accf1461045057600080fd5b80638da5cb5b116100de5780638da5cb5b146103cc5780638e539e8c146103dd57806391ddadf4146103f057806395d89b411461040f57600080fd5b8063715018a61461038357806379cc67901461038b5780637ecebe001461039e57806384b0196e146103b157600080fd5b80633a46b1a811610187578063587cde1e11610156578063587cde1e146102f35780635c19a95c1461031f5780636fcfff451461033257806370a082311461035a57600080fd5b80633a46b1a8146102b057806340c10f19146102c357806342966c68146102d85780634bf5d7e9146102eb57600080fd5b806323b872dd116101c357806323b872dd14610273578063313ce5671461028657806332cb6b0c146102955780633644e515146102a857600080fd5b806306fdde03146101f55780630754617214610213578063095ea7b31461023e57806318160ddd14610261575b600080fd5b6101fd610501565b60405161020a9190611d1c565b60405180910390f35b600c54610226906001600160a01b031681565b6040516001600160a01b03909116815260200161020a565b61025161024c366004611d4b565b610593565b604051901515815260200161020a565b6002545b60405190815260200161020a565b610251610281366004611d75565b6105ad565b6040516012815260200161020a565b6102656b204fce5e3e2502611000000081565b6102656105d1565b6102656102be366004611d4b565b6105e0565b6102d66102d1366004611d4b565b610666565b005b6102d66102e6366004611db1565b6106a1565b6101fd6106ae565b610226610301366004611dca565b6001600160a01b039081166000908152600860205260409020541690565b6102d661032d366004611dca565b610717565b610345610340366004611dca565b610722565b60405163ffffffff909116815260200161020a565b610265610368366004611dca565b6001600160a01b031660009081526020819052604090205490565b6102d661072d565b6102d6610399366004611d4b565b610741565b6102656103ac366004611dca565b610756565b6103b9610774565b60405161020a9796959493929190611de5565b600b546001600160a01b0316610226565b6102656103eb366004611db1565b6107ba565b6103f8610824565b60405165ffffffffffff909116815260200161020a565b6101fd61082e565b610265610425366004611dca565b61083d565b610251610438366004611d4b565b61086d565b6102d661044b366004611e8f565b61087b565b6102d661045e366004611ee7565b610938565b610265610471366004611f51565b6001600160a01b03918216600090815260016020908152604080832093909416825291909152205490565b6104af6104aa366004611f84565b610a72565b60408051825165ffffffffffff1681526020928301516001600160d01b0316928101929092520161020a565b6102d66104e9366004611dca565b610a97565b6102d66104fc366004611dca565b610ad2565b60606003805461051090611fc4565b80601f016020809104026020016040519081016040528092919081815260200182805461053c90611fc4565b80156105895780601f1061055e57610100808354040283529160200191610589565b820191906000526020600020905b81548152906001019060200180831161056c57829003601f168201915b5050505050905090565b6000336105a1818585610b55565b60019150505b92915050565b6000336105bb858285610b67565b6105c6858585610be5565b506001949350505050565b60006105db610c44565b905090565b6000806105eb610824565b90508065ffffffffffff16831061062b57604051637669fc0f60e11b81526004810184905265ffffffffffff821660248201526044015b60405180910390fd5b61065561063784610d6f565b6001600160a01b038616600090815260096020526040902090610da6565b6001600160d01b0316949350505050565b600c546001600160a01b0316331461069357604051632fdab94f60e11b8152336004820152602401610622565b61069d8282610e5c565b5050565b6106ab3382610e92565b50565b60606106b8610ec8565b65ffffffffffff166106c8610824565b65ffffffffffff16146106ee576040516301bfc1c560e61b815260040160405180910390fd5b5060408051808201909152600e81526d06d6f64653d74696d657374616d760941b602082015290565b3361069d8183610ed3565b60006105a782610f45565b610735610f67565b61073f6000610f94565b565b61074c823383610b67565b61069d8282610e92565b6001600160a01b0381166000908152600760205260408120546105a7565b600060608060008060006060610788610fe6565b610790611013565b60408051600080825260208201909252600f60f81b9b939a50919850469750309650945092509050565b6000806107c5610824565b90508065ffffffffffff16831061080057604051637669fc0f60e11b81526004810184905265ffffffffffff82166024820152604401610622565b61081461080c84610d6f565b600a90610da6565b6001600160d01b03169392505050565b60006105db610ec8565b60606004805461051090611fc4565b6001600160a01b038116600090815260096020526040812061085e90611040565b6001600160d01b031692915050565b6000336105a1818585610be5565b8342111561089f57604051632341d78760e11b815260048101859052602401610622565b604080517fe48329057bfd03d55e49b547132e39cffd9c1820ad7b9d4c5307691425d15adf60208201526001600160a01b038816918101919091526060810186905260808101859052600090610919906109119060a00160405160208183030381529060405280519060200120611079565b8585856110a6565b905061092581876110d4565b61092f8188610ed3565b50505050505050565b8342111561095c5760405163313c898160e11b815260048101859052602401610622565b60007f6e71edae12b1b97f4d1f60370fef10105fa2faae0126114a169c64845d6126c98888886109a98c6001600160a01b0316600090815260076020526040902080546001810190915590565b6040805160208101969096526001600160a01b0394851690860152929091166060840152608083015260a082015260c0810186905260e0016040516020818303038152906040528051906020012090506000610a0482611079565b90506000610a14828787876110a6565b9050896001600160a01b0316816001600160a01b031614610a5b576040516325c0072360e11b81526001600160a01b0380831660048301528b166024820152604401610622565b610a668a8a8a610b55565b50505050505050505050565b6040805180820190915260008082526020820152610a908383611127565b9392505050565b610a9f610f67565b6001600160a01b038116610ac957604051631e4fbdf760e01b815260006004820152602401610622565b6106ab81610f94565b610ada610f67565b6001600160a01b038116610b01576040516304a208c760e01b815260040160405180910390fd5b600c80546001600160a01b0319166001600160a01b0383169081179091556040519081527f6adffd5c93085d835dac6f3b40adf7c242ca4b3284048d20c3d8a501748dc9739060200160405180910390a150565b610b62838383600161115d565b505050565b6001600160a01b038381166000908152600160209081526040808320938616835292905220546000198114610bdf5781811015610bd057604051637dc7a0d960e11b81526001600160a01b03841660048201526024810182905260448101839052606401610622565b610bdf8484848403600061115d565b50505050565b6001600160a01b038316610c0f57604051634b637e8f60e11b815260006004820152602401610622565b6001600160a01b038216610c395760405163ec442f0560e01b815260006004820152602401610622565b610b62838383611232565b6000306001600160a01b037f000000000000000000000000000000000000000000000000000000000000000016148015610c9d57507f000000000000000000000000000000000000000000000000000000000000000046145b15610cc757507f000000000000000000000000000000000000000000000000000000000000000090565b6105db604080517f8b73c3c69bb8fe3d512ecc4cf759cc79239f7b179b0ffacaa9a75d522b39400f60208201527f0000000000000000000000000000000000000000000000000000000000000000918101919091527f000000000000000000000000000000000000000000000000000000000000000060608201524660808201523060a082015260009060c00160405160208183030381529060405280519060200120905090565b600065ffffffffffff821115610da2576040516306dfcc6560e41b81526030600482015260248101839052604401610622565b5090565b815460009081816005811115610e05576000610dc18461123d565b610dcb9085612014565b60008881526020902090915081015465ffffffffffff9081169087161015610df557809150610e03565b610e00816001612027565b92505b505b6000610e1387878585611396565b90508015610e4e57610e3887610e2a600184612014565b600091825260209091200190565b54600160301b90046001600160d01b0316610e51565b60005b979650505050505050565b6001600160a01b038216610e865760405163ec442f0560e01b815260006004820152602401610622565b61069d60008383611232565b6001600160a01b038216610ebc57604051634b637e8f60e11b815260006004820152602401610622565b61069d82600083611232565b60006105db42610d6f565b6001600160a01b0382811660008181526008602052604080822080548686166001600160a01b0319821681179092559151919094169392849290917f3134e8a2e6d97e929a7e54011ea5485d7d196dd5f0ba4d4ef95803e8e3fc257f9190a4610b628183610f40866113f8565b611416565b6001600160a01b0381166000908152600960205260408120546105a790611582565b600b546001600160a01b0316331461073f5760405163118cdaa760e01b8152336004820152602401610622565b600b80546001600160a01b038381166001600160a01b0319831681179093556040519116919082907f8be0079c531659141344cd1fd0a4f28419497f9722a3daafe3b4186f6b6457e090600090a35050565b60606105db7f000000000000000000000000000000000000000000000000000000000000000060056115b3565b60606105db7f000000000000000000000000000000000000000000000000000000000000000060066115b3565b805460009080156110705761105a83610e2a600184612014565b54600160301b90046001600160d01b0316610a90565b60009392505050565b60006105a7611086610c44565b8360405161190160f01b8152600281019290925260228201526042902090565b6000806000806110b88888888861165e565b9250925092506110c8828261172d565b50909695505050505050565b6001600160a01b0382166000908152600760205260409020805460018101909155818114610b62576040516301d4b62360e61b81526001600160a01b038416600482015260248101829052604401610622565b60408051808201909152600080825260208201526001600160a01b0383166000908152600960205260409020610a9090836117e6565b6001600160a01b0384166111875760405163e602df0560e01b815260006004820152602401610622565b6001600160a01b0383166111b157604051634a1406b160e11b815260006004820152602401610622565b6001600160a01b0380851660009081526001602090815260408083209387168352929052208290558015610bdf57826001600160a01b0316846001600160a01b03167f8c5be1e5ebec7d5bd14f71427d1e84f3dd0314c0f7b2291e5b200ac8c7c3b9258460405161122491815260200190565b60405180910390a350505050565b610b62838383611856565b60006001821161124b575090565b816001600160801b82106112645760809190911c9060401b5b68010000000000000000821061127f5760409190911c9060201b5b64010000000082106112965760209190911c9060101b5b6201000082106112ab5760109190911c9060081b5b61010082106112bf5760089190911c9060041b5b601082106112d25760049190911c9060021b5b600482106112de5760011b5b600302600190811c908185816112f6576112f661203a565b048201901c9050600181858161130e5761130e61203a565b048201901c905060018185816113265761132661203a565b048201901c9050600181858161133e5761133e61203a565b048201901c905060018185816113565761135661203a565b048201901c9050600181858161136e5761136e61203a565b048201901c905061138d8185816113875761138761203a565b04821190565b90039392505050565b60005b818310156113f05760006113ad8484611861565b60008781526020902090915065ffffffffffff86169082015465ffffffffffff1611156113dc578092506113ea565b6113e7816001612027565b93505b50611399565b509392505050565b6001600160a01b0381166000908152602081905260408120546105a7565b816001600160a01b0316836001600160a01b0316141580156114385750600081115b15610b62576001600160a01b038316156114e0576001600160a01b0383166000908152600960205260408120819061147b9061187c61147686611888565b6118bc565b6001600160d01b031691506001600160d01b03169150846001600160a01b03167fdec2bacdd2f05b59de34da9b523dff8be42e5e38e818c82fdb0bae774387a72483836040516114d5929190918252602082015260400190565b60405180910390a250505b6001600160a01b03821615610b62576001600160a01b03821660009081526009602052604081208190611519906118f561147686611888565b6001600160d01b031691506001600160d01b03169150836001600160a01b03167fdec2bacdd2f05b59de34da9b523dff8be42e5e38e818c82fdb0bae774387a7248383604051611573929190918252602082015260400190565b60405180910390a25050505050565b600063ffffffff821115610da2576040516306dfcc6560e41b81526020600482015260248101839052604401610622565b606060ff83146115cd576115c683611901565b90506105a7565b8180546115d990611fc4565b80601f016020809104026020016040519081016040528092919081815260200182805461160590611fc4565b80156116525780601f1061162757610100808354040283529160200191611652565b820191906000526020600020905b81548152906001019060200180831161163557829003601f168201915b505050505090506105a7565b600080807f7fffffffffffffffffffffffffffffff5d576e7357a4501ddfe92f46681b20a08411156116995750600091506003905082611723565b604080516000808252602082018084528a905260ff891692820192909252606081018790526080810186905260019060a0016020604051602081039080840390855afa1580156116ed573d6000803e3d6000fd5b5050604051601f1901519150506001600160a01b03811661171957506000925060019150829050611723565b9250600091508190505b9450945094915050565b600082600381111561174157611741612050565b0361174a575050565b600182600381111561175e5761175e612050565b0361177c5760405163f645eedf60e01b815260040160405180910390fd5b600282600381111561179057611790612050565b036117b15760405163fce698f760e01b815260048101829052602401610622565b60038260038111156117c5576117c5612050565b0361069d576040516335e2f38360e21b815260048101829052602401610622565b6040805180820190915260008082526020820152826000018263ffffffff168154811061181557611815612066565b60009182526020918290206040805180820190915291015465ffffffffffff81168252600160301b90046001600160d01b0316918101919091529392505050565b610b62838383611940565b6000611870600284841861207c565b610a9090848416612027565b6000610a90828461209e565b60006001600160d01b03821115610da2576040516306dfcc6560e41b815260d0600482015260248101839052604401610622565b6000806118e86118ca610824565b6118e06118d688611040565b868863ffffffff16565b8791906119ac565b915091505b935093915050565b6000610a9082846120c5565b6060600061190e836119ba565b604080516020808252818301909252919250600091906020820181803683375050509182525060208101929092525090565b61194b8383836119e2565b6001600160a01b0383166119a157600061196460025490565b90506b204fce5e3e250261100000008082111561199e57604051630e58ae9360e11b81526004810183905260248101829052604401610622565b50505b610b62838383611b0c565b6000806118e8858585611b82565b600060ff8216601f8111156105a757604051632cd44ac360e21b815260040160405180910390fd5b6001600160a01b038316611a0d578060026000828254611a029190612027565b90915550611a7f9050565b6001600160a01b03831660009081526020819052604090205481811015611a605760405163391434e360e21b81526001600160a01b03851660048201526024810182905260448101839052606401610622565b6001600160a01b03841660009081526020819052604090209082900390555b6001600160a01b038216611a9b57600280548290039055611aba565b6001600160a01b03821660009081526020819052604090208054820190555b816001600160a01b0316836001600160a01b03167fddf252ad1be2c89b69c2b068fc378daa952ba7f163c4a11628f55a4df523b3ef83604051611aff91815260200190565b60405180910390a3505050565b6001600160a01b038316611b2e57611b2b600a6118f561147684611888565b50505b6001600160a01b038216611b5057611b4d600a61187c61147684611888565b50505b6001600160a01b03838116600090815260086020526040808220548584168352912054610b6292918216911683611416565b825460009081908015611c7b576000611ba087610e2a600185612014565b805490915065ffffffffffff80821691600160301b90046001600160d01b0316908816821115611be357604051632520601d60e01b815260040160405180910390fd5b8765ffffffffffff168265ffffffffffff1603611c1c57825465ffffffffffff16600160301b6001600160d01b03891602178355611c6d565b6040805180820190915265ffffffffffff808a1682526001600160d01b03808a1660208085019182528d54600181018f5560008f81529190912094519151909216600160301b029216919091179101555b94508593506118ed92505050565b50506040805180820190915265ffffffffffff80851682526001600160d01b0380851660208085019182528854600181018a5560008a815291822095519251909316600160301b0291909316179201919091559050816118ed565b6000815180845260005b81811015611cfc57602081850181015186830182015201611ce0565b506000602082860101526020601f19601f83011685010191505092915050565b602081526000610a906020830184611cd6565b80356001600160a01b0381168114611d4657600080fd5b919050565b60008060408385031215611d5e57600080fd5b611d6783611d2f565b946020939093013593505050565b600080600060608486031215611d8a57600080fd5b611d9384611d2f565b9250611da160208501611d2f565b9150604084013590509250925092565b600060208284031215611dc357600080fd5b5035919050565b600060208284031215611ddc57600080fd5b610a9082611d2f565b60ff60f81b881681526000602060e06020840152611e0660e084018a611cd6565b8381036040850152611e18818a611cd6565b606085018990526001600160a01b038816608086015260a0850187905284810360c08601528551808252602080880193509091019060005b81811015611e6c57835183529284019291840191600101611e50565b50909c9b505050505050505050505050565b803560ff81168114611d4657600080fd5b60008060008060008060c08789031215611ea857600080fd5b611eb187611d2f565b95506020870135945060408701359350611ecd60608801611e7e565b92506080870135915060a087013590509295509295509295565b600080600080600080600060e0888a031215611f0257600080fd5b611f0b88611d2f565b9650611f1960208901611d2f565b95506040880135945060608801359350611f3560808901611e7e565b925060a0880135915060c0880135905092959891949750929550565b60008060408385031215611f6457600080fd5b611f6d83611d2f565b9150611f7b60208401611d2f565b90509250929050565b60008060408385031215611f9757600080fd5b611fa083611d2f565b9150602083013563ffffffff81168114611fb957600080fd5b809150509250929050565b600181811c90821680611fd857607f821691505b602082108103611ff857634e487b7160e01b600052602260045260246000fd5b50919050565b634e487b7160e01b600052601160045260246000fd5b818103818111156105a7576105a7611ffe565b808201808211156105a7576105a7611ffe565b634e487b7160e01b600052601260045260246000fd5b634e487b7160e01b600052602160045260246000fd5b634e487b7160e01b600052603260045260246000fd5b60008261209957634e487b7160e01b600052601260045260246000fd5b500490565b6001600160d01b038281168282160390808211156120be576120be611ffe565b5092915050565b6001600160d01b038181168382160190808211156120be576120be611ffe56fea2646970667358221220c198ac0d6eacd20df7b6fc962705ad34f43ffa42a830d757c3f4e2cd7a58ca0264736f6c63430008190033","linkReferences":{}},"methodIdentifiers":{"CLOCK_MODE()":"4bf5d7e9","DOMAIN_SEPARATOR()":"3644e515","MAX_SUPPLY()":"32cb6b0c","allowance(address,address)":"dd62ed3e","approve(address,uint256)":"095ea7b3","balanceOf(address)":"70a08231","burn(uint256)":"42966c68","burnFrom(address,uint256)":"79cc6790","checkpoints(address,uint32)":"f1127ed8","clock()":"91ddadf4","decimals()":"313ce567","delegate(address)":"5c19a95c","delegateBySig(address,uint256,uint256,uint8,bytes32,bytes32)":"c3cda520","delegates(address)":"587cde1e","eip712Domain()":"84b0196e","getPastTotalSupply(uint256)":"8e539e8c","getPastVotes(address,uint256)":"3a46b1a8","getVotes(address)":"9ab24eb0","mint(address,uint256)":"40c10f19","minter()":"07546172","name()":"06fdde03","nonces(address)":"7ecebe00","numCheckpoints(address)":"6fcfff45","owner()":"8da5cb5b","permit(address,address,uint256,uint256,uint8,bytes32,bytes32)":"d505accf","renounceOwnership()":"715018a6","setMinter(address)":"fca3b5aa","symbol()":"95d89b41","totalSupply()":"18160ddd","transfer(address,uint256)":"a9059cbb","transferFrom(address,address,uint256)":"23b872dd","transferOwnership(address)":"f2fde38b"},"id":18}