{"abi":[{"type":"function","name":"captureFlag","inputs":[],"outputs":[],"stateMutability":"nonpayable"},{"type":"function","name":"flagCaptureTime","inputs":[],"outputs":[{"name":"","type":"uint256","internalType":"uint256"}],"stateMutability":"view"},{"type":"function","name":"flagHolder","inputs":[],"outputs":[{"name":"","type":"address","internalType":"address"}],"stateMutability":"view"},{"type":"function","name":"gameFee","inputs":[],"outputs":[{"name":"","type":"uint256","internalType":"uint256"}],"stateMutability":"view"},{"type":"function","name":"joinGame","inputs":[],"outputs":[],"stateMutability":"payable"},{"type":"function","name":"lastParticipationTime","inputs":[{"name":"","type":"address","internalType":"address"}],"outputs":[{"name":"","type":"uint256","internalType":"uint256"}],"stateMutability":"view"},{"type":"function","name":"owner","inputs":[],"outputs":[{"name":"","type":"address","internalType":"address"}],"stateMutability":"view"},{"type":"function","name":"updateGameFee","inputs":[{"name":"_gameFee","type":"uint256","internalType":"uint256"}],"outputs":[],"stateMutability":"nonpayable"},{"type":"function","name":"withdraw","inputs":[],"outputs":[],"stateMutability":"nonpayable"},{"type":"event","name":"FlagCaptured","inputs":[{"name":"player","type":"address","indexed":true,"internalType":"address"},{"name":"timestamp","type":"uint256","indexed":false,"internalType":"uint256"}],"anonymous":false},{"type":"event","name":"GameJoined","inputs":[{"name":"player","type":"address","indexed":true,"internalType":"address"},{"name":"timestamp","type":"uint256","indexed":false,"internalType":"uint256"}],"anonymous":false}],"bytecode":{"object":"0x6080604052662386f26fc10000600155348015601a57600080fd5b506105998061002a6000396000f3fe6080604052600436106100865760003560e01c80638da5cb5b116100595780638da5cb5b14610130578063b70a6dec14610150578063d481972f14610170578063d4f77b1c14610185578063ea777eec1461018d57600080fd5b8063179a18521461008b5780632ded7716146100b45780633ccfd60b146100ec5780636d1d9ee014610103575b600080fd5b34801561009757600080fd5b506100a160035481565b6040519081526020015b60405180910390f35b3480156100c057600080fd5b506002546100d4906001600160a01b031681565b6040516001600160a01b0390911681526020016100ab565b3480156100f857600080fd5b506101016101a3565b005b34801561010f57600080fd5b506100a161011e3660046104a9565b60046020526000908152604090205481565b34801561013c57600080fd5b506000546100d4906001600160a01b031681565b34801561015c57600080fd5b5061010161016b3660046104d9565b61022c565b34801561017c57600080fd5b50610101610278565b6101016103e4565b34801561019957600080fd5b506100a160015481565b6000546001600160a01b031633146101ef5760405162461bcd60e51b815260206004820152600a60248201526927b7363c9037bbb732b960b11b60448201526064015b60405180910390fd5b600080546040516001600160a01b03909116914780156108fc02929091818181858888f19350505050158015610229573d6000803e3d6000fd5b50565b6000546001600160a01b031633146102735760405162461bcd60e51b815260206004820152600a60248201526927b7363c9037bbb732b960b11b60448201526064016101e6565b600155565b33600090815260046020526040902054610294906102586104f2565b4210156102b35760405162461bcd60e51b81526004016101e690610519565b600254336001600160a01b039091160361030f5760405162461bcd60e51b815260206004820152601960248201527f596f7520616c726561647920686176652074686520666c61670000000000000060448201526064016101e6565b42600354610e1061032091906104f2565b1061037c5760405162461bcd60e51b815260206004820152602660248201527f466c61672063616e206f6e6c792062652063617074757265642061667465722060448201526518903437bab960d11b60648201526084016101e6565b600280546001600160a01b0319163390811790915542600381905560008281526004602052604090819020829055517f942fcd669c8b59d6df7382cea645558c1c7cddbf164d184e18682d2ced2a0052916103da9190815260200190565b60405180910390a2565b33600090815260046020526040902054610400906102586104f2565b42101561041f5760405162461bcd60e51b81526004016101e690610519565b6001543410156104645760405162461bcd60e51b815260206004820152601060248201526f496e73756666696369656e742066656560801b60448201526064016101e6565b33600081815260046020908152604091829020429081905591519182527fc7f886847371dba98b78e0d0d59e29f4abfaf6e953d6897a761992cb2627e68791016103da565b6000602082840312156104bb57600080fd5b81356001600160a01b03811681146104d257600080fd5b9392505050565b6000602082840312156104eb57600080fd5b5035919050565b8082018082111561051357634e487b7160e01b600052601160045260246000fd5b92915050565b6020808252602a908201527f57616974203130206d696e75746573206265666f7265207061727469636970616040820152693a34b7339030b3b0b4b760b11b60608201526080019056fea26469706673582212209941fd84f327469137488739a19a776b95418605219ce43986c27c7f3c986b6364736f6c63430008190033","linkReferences":{}},"methodIdentifiers":{"captureFlag()":"d481972f","flagCaptureTime()":"179a1852","flagHolder()":"2ded7716","gameFee()":"ea777eec","joinGame()":"d4f77b1c","lastParticipationTime(address)":"6d1d9ee0","owner()":"8da5cb5b","updateGameFee(uint256)":"b70a6dec","withdraw()":"3ccfd60b"},"id":5}