{"abi":[{"type":"constructor","inputs":[{"name":"_wormholeRelayer","type":"address","internalType":"address"}],"stateMutability":"nonpayable"},{"type":"function","name":"GAS_LIMIT","inputs":[],"outputs":[{"name":"","type":"uint256","internalType":"uint256"}],"stateMutability":"view"},{"type":"function","name":"ORIGIN_CHAIN","inputs":[],"outputs":[{"name":"","type":"uint16","internalType":"uint16"}],"stateMutability":"view"},{"type":"function","name":"encodeMessage","inputs":[{"name":"_contractToBeCalled","type":"address","internalType":"address"},{"name":"_encodedFunctionCall","type":"bytes","internalType":"bytes"}],"outputs":[{"name":"","type":"bytes","internalType":"bytes"}],"stateMutability":"view"},{"type":"function","name":"owner","inputs":[],"outputs":[{"name":"","type":"address","internalType":"address"}],"stateMutability":"view"},{"type":"function","name":"quoteCrossChainCost","inputs":[{"name":"_targetChain","type":"uint16","internalType":"uint16"},{"name":"_gasLimit","type":"uint256","internalType":"uint256"}],"outputs":[{"name":"cost","type":"uint256","internalType":"uint256"}],"stateMutability":"view"},{"type":"function","name":"s_wormholeRelayer","inputs":[],"outputs":[{"name":"","type":"address","internalType":"contract IWormholeRelayer"}],"stateMutability":"view"},{"type":"function","name":"sendMessage","inputs":[{"name":"_targetChain","type":"uint16","internalType":"uint16"},{"name":"_targetAddress","type":"address","internalType":"address"},{"name":"_contractToBeCalled","type":"address","internalType":"address"},{"name":"_encodedFunctionCall","type":"bytes","internalType":"bytes"},{"name":"_gasLimit","type":"uint256","internalType":"uint256"}],"outputs":[],"stateMutability":"payable"},{"type":"function","name":"sendMessageWithRefund","inputs":[{"name":"_targetChain","type":"uint16","internalType":"uint16"},{"name":"_targetAddress","type":"address","internalType":"address"},{"name":"_contractToBeCalled","type":"address","internalType":"address"},{"name":"_encodedFunctionCall","type":"bytes","internalType":"bytes"},{"name":"_gasLimit","type":"uint256","internalType":"uint256"}],"outputs":[],"stateMutability":"payable"},{"type":"function","name":"setGasLimit","inputs":[{"name":"_gasLimit","type":"uint256","internalType":"uint256"}],"outputs":[],"stateMutability":"nonpayable"},{"type":"event","name":"MessageSent","inputs":[{"name":"contractToBeCalled","type":"address","indexed":true,"internalType":"address"},{"name":"encodedFunctionCall","type":"bytes","indexed":false,"internalType":"bytes"},{"name":"destinationAddress","type":"address","indexed":false,"internalType":"address"},{"name":"destinationChain","type":"bytes32","indexed":false,"internalType":"bytes32"}],"anonymous":false}],"bytecode":{"object":"0x6080604052620c3500600255348015601657600080fd5b5060405161091d38038061091d8339810160408190526033916060565b600080546001600160a01b039092166001600160a01b03199283161790556001805490911633179055608e565b600060208284031215607157600080fd5b81516001600160a01b0381168114608757600080fd5b9392505050565b6108808061009d6000396000f3fe6080604052600436106100865760003560e01c8063ba02573611610059578063ba02573614610134578063cd92dcb814610149578063d07de2801461015c578063ebda77e014610189578063ee7d72b4146101a957600080fd5b8063091d27881461008b5780635bb60dc0146100b457806373e0c2d7146100ec5780638da5cb5b14610114575b600080fd5b34801561009757600080fd5b506100a160025481565b6040519081526020015b60405180910390f35b3480156100c057600080fd5b506000546100d4906001600160a01b031681565b6040516001600160a01b0390911681526020016100ab565b3480156100f857600080fd5b50610101600681565b60405161ffff90911681526020016100ab565b34801561012057600080fd5b506001546100d4906001600160a01b031681565b610147610142366004610560565b6101c9565b005b610147610157366004610560565b610295565b34801561016857600080fd5b5061017c6101773660046105d7565b61036d565b6040516100ab919061066b565b34801561019557600080fd5b506100a16101a4366004610685565b61039c565b3480156101b557600080fd5b506101476101c43660046106af565b610422565b6002548111156101f45760405162461bcd60e51b81526004016101eb906106c8565b60405180910390fd5b6000610200848461036d565b9050600061020e878461039c565b600080546040516347f66e8160e11b81529293506001600160a01b031691638fecdd02918491610248918c918c9189918b9060040161070b565b60206040518083038185885af1158015610266573d6000803e3d6000fd5b50505050506040513d601f19601f8201168201806040525081019061028b919061074d565b5050505050505050565b6002548111156102b75760405162461bcd60e51b81526004016101eb906106c8565b60006102c3848461036d565b905060006102d1878461039c565b905060006102df8234610777565b6000546040516312d729bd60e21b81529192506001600160a01b031690634b5ca6f490849061031f908c908c90899088908c906006903390600401610798565b60206040518083038185885af115801561033d573d6000803e3d6000fd5b50505050506040513d601f19601f82011682018060405250810190610362919061074d565b505050505050505050565b6060823383604051602001610384939291906107f1565b60405160208183030381529060405290505b92915050565b6000805460405163c23ee3c360e01b815261ffff8516600482015260248101839052604481018490526001600160a01b039091169063c23ee3c3906064016040805180830381865afa1580156103f6573d6000803e3d6000fd5b505050506040513d601f19601f8201168201806040525081019061041a9190610826565b509392505050565b6001546001600160a01b0316331461048a5760405162461bcd60e51b815260206004820152602560248201527f4f6e6c7920746865206f776e65722063616e2063616c6c20746869732066756e60448201526431ba34b7b760d91b60648201526084016101eb565b600255565b803561ffff811681146104a157600080fd5b919050565b80356001600160a01b03811681146104a157600080fd5b634e487b7160e01b600052604160045260246000fd5b600082601f8301126104e457600080fd5b813567ffffffffffffffff808211156104ff576104ff6104bd565b604051601f8301601f19908116603f01168101908282118183101715610527576105276104bd565b8160405283815286602085880101111561054057600080fd5b836020870160208301376000602085830101528094505050505092915050565b600080600080600060a0868803121561057857600080fd5b6105818661048f565b945061058f602087016104a6565b935061059d604087016104a6565b9250606086013567ffffffffffffffff8111156105b957600080fd5b6105c5888289016104d3565b95989497509295608001359392505050565b600080604083850312156105ea57600080fd5b6105f3836104a6565b9150602083013567ffffffffffffffff81111561060f57600080fd5b61061b858286016104d3565b9150509250929050565b6000815180845260005b8181101561064b5760208185018101518683018201520161062f565b506000602082860101526020601f19601f83011685010191505092915050565b60208152600061067e6020830184610625565b9392505050565b6000806040838503121561069857600080fd5b6106a18361048f565b946020939093013593505050565b6000602082840312156106c157600080fd5b5035919050565b60208082526023908201527f476173206c696d6974206578636565647320746865206d6178696d756d206c696040820152621b5a5d60ea1b606082015260800190565b61ffff861681526001600160a01b038516602082015260a06040820181905260009061073990830186610625565b606083019490945250608001529392505050565b60006020828403121561075f57600080fd5b815167ffffffffffffffff8116811461067e57600080fd5b8181038181111561039657634e487b7160e01b600052601160045260246000fd5b600061ffff808a16835260018060a01b03808a16602085015260e060408501526107c560e085018a610625565b925087606085015286608085015281861660a085015280851660c0850152505098975050505050505050565b6001600160a01b0384811682528316602082015260606040820181905260009061081d90830184610625565b95945050505050565b6000806040838503121561083957600080fd5b50508051602090910151909290915056fea2646970667358221220cdb3a70e160a229ccccae914143518f8a853ecfbed1da492d6d943b960d10d8464736f6c63430008190033","linkReferences":{}},"methodIdentifiers":{"GAS_LIMIT()":"091d2788","ORIGIN_CHAIN()":"73e0c2d7","encodeMessage(address,bytes)":"d07de280","owner()":"8da5cb5b","quoteCrossChainCost(uint16,uint256)":"ebda77e0","s_wormholeRelayer()":"5bb60dc0","sendMessage(uint16,address,address,bytes,uint256)":"ba025736","sendMessageWithRefund(uint16,address,address,bytes,uint256)":"cd92dcb8","setGasLimit(uint256)":"ee7d72b4"},"id":14}