{"abi":[{"type":"constructor","inputs":[{"name":"_wormholeRelayer","type":"address","internalType":"address"}],"stateMutability":"nonpayable"},{"type":"function","name":"GAS_LIMIT","inputs":[],"outputs":[{"name":"","type":"uint256","internalType":"uint256"}],"stateMutability":"view"},{"type":"function","name":"ORIGIN_CHAIN","inputs":[],"outputs":[{"name":"","type":"uint16","internalType":"uint16"}],"stateMutability":"view"},{"type":"function","name":"encodeMessage","inputs":[{"name":"_contractToBeCalled","type":"address","internalType":"address"},{"name":"_encodedFunctionCall","type":"bytes","internalType":"bytes"}],"outputs":[{"name":"","type":"bytes","internalType":"bytes"}],"stateMutability":"view"},{"type":"function","name":"owner","inputs":[],"outputs":[{"name":"","type":"address","internalType":"address"}],"stateMutability":"view"},{"type":"function","name":"quoteCrossChainCost","inputs":[{"name":"_targetChain","type":"uint16","internalType":"uint16"},{"name":"_receiverValue","type":"uint256","internalType":"uint256"},{"name":"_gasLimit","type":"uint256","internalType":"uint256"}],"outputs":[{"name":"cost","type":"uint256","internalType":"uint256"}],"stateMutability":"view"},{"type":"function","name":"s_wormholeRelayer","inputs":[],"outputs":[{"name":"","type":"address","internalType":"contract IWormholeRelayer"}],"stateMutability":"view"},{"type":"function","name":"sendMessage","inputs":[{"name":"_targetChain","type":"uint16","internalType":"uint16"},{"name":"_receiverAddress","type":"address","internalType":"address"},{"name":"_contractToBeCalled","type":"address","internalType":"address"},{"name":"_encodedFunctionCall","type":"bytes","internalType":"bytes"},{"name":"_gasLimit","type":"uint256","internalType":"uint256"},{"name":"_receiverValue","type":"uint256","internalType":"uint256"}],"outputs":[],"stateMutability":"payable"},{"type":"function","name":"setGasLimit","inputs":[{"name":"_gasLimit","type":"uint256","internalType":"uint256"}],"outputs":[],"stateMutability":"nonpayable"},{"type":"event","name":"MessageSent","inputs":[{"name":"contractToBeCalled","type":"address","indexed":true,"internalType":"address"},{"name":"encodedFunctionCall","type":"bytes","indexed":false,"internalType":"bytes"},{"name":"destinationAddress","type":"address","indexed":false,"internalType":"address"},{"name":"destinationChain","type":"bytes32","indexed":false,"internalType":"bytes32"}],"anonymous":false}],"bytecode":{"object":"0x6080604052620c3500600255348015601657600080fd5b506040516108343803806108348339810160408190526033916060565b600080546001600160a01b039092166001600160a01b03199283161790556001805490911633179055608e565b600060208284031215607157600080fd5b81516001600160a01b0381168114608757600080fd5b9392505050565b6107978061009d6000396000f3fe60806040526004361061007b5760003560e01c8063c0d9f4b61161004e578063c0d9f4b614610129578063d07de2801461013e578063d326d82f1461016b578063ee7d72b41461018b57600080fd5b8063091d2788146100805780635bb60dc0146100a957806373e0c2d7146100e15780638da5cb5b14610109575b600080fd5b34801561008c57600080fd5b5061009660025481565b6040519081526020015b60405180910390f35b3480156100b557600080fd5b506000546100c9906001600160a01b031681565b6040516001600160a01b0390911681526020016100a0565b3480156100ed57600080fd5b506100f6600e81565b60405161ffff90911681526020016100a0565b34801561011557600080fd5b506001546100c9906001600160a01b031681565b61013c61013736600461050a565b6101ab565b005b34801561014a57600080fd5b5061015e61015936600461058b565b610317565b6040516100a0919061061f565b34801561017757600080fd5b50610096610186366004610639565b610345565b34801561019757600080fd5b5061013c6101a636600461066c565b6103cc565b60025482111561020e5760405162461bcd60e51b815260206004820152602360248201527f476173206c696d6974206578636565647320746865206d6178696d756d206c696044820152621b5a5d60ea1b60648201526084015b60405180910390fd5b600061021a8585610317565b90506000610229888486610345565b90508034101561028a5760405162461bcd60e51b815260206004820152602660248201527f496e73756666696369656e742066756e647320746f2073656e6420746865206d60448201526565737361676560d01b6064820152608401610205565b6000546040516312d729bd60e21b81526001600160a01b0390911690634b5ca6f49083906102c9908c908c9088908a908c90600e903390600401610685565b60206040518083038185885af11580156102e7573d6000803e3d6000fd5b50505050506040513d601f19601f8201168201806040525081019061030c91906106de565b505050505050505050565b606033838360405160200161032e93929190610708565b604051602081830303815290604052905092915050565b6000805460405163c23ee3c360e01b815261ffff8616600482015260248101859052604481018490526001600160a01b039091169063c23ee3c3906064016040805180830381865afa15801561039f573d6000803e3d6000fd5b505050506040513d601f19601f820116820180604052508101906103c3919061073d565b50949350505050565b6001546001600160a01b031633146104345760405162461bcd60e51b815260206004820152602560248201527f4f6e6c7920746865206f776e65722063616e2063616c6c20746869732066756e60448201526431ba34b7b760d91b6064820152608401610205565b600255565b803561ffff8116811461044b57600080fd5b919050565b80356001600160a01b038116811461044b57600080fd5b634e487b7160e01b600052604160045260246000fd5b600082601f83011261048e57600080fd5b813567ffffffffffffffff808211156104a9576104a9610467565b604051601f8301601f19908116603f011681019082821181831017156104d1576104d1610467565b816040528381528660208588010111156104ea57600080fd5b836020870160208301376000602085830101528094505050505092915050565b60008060008060008060c0878903121561052357600080fd5b61052c87610439565b955061053a60208801610450565b945061054860408801610450565b9350606087013567ffffffffffffffff81111561056457600080fd5b61057089828a0161047d565b9350506080870135915060a087013590509295509295509295565b6000806040838503121561059e57600080fd5b6105a783610450565b9150602083013567ffffffffffffffff8111156105c357600080fd5b6105cf8582860161047d565b9150509250929050565b6000815180845260005b818110156105ff576020818501810151868301820152016105e3565b506000602082860101526020601f19601f83011685010191505092915050565b60208152600061063260208301846105d9565b9392505050565b60008060006060848603121561064e57600080fd5b61065784610439565b95602085013595506040909401359392505050565b60006020828403121561067e57600080fd5b5035919050565b600061ffff808a16835260018060a01b03808a16602085015260e060408501526106b260e085018a6105d9565b925087606085015286608085015281861660a085015280851660c0850152505098975050505050505050565b6000602082840312156106f057600080fd5b815167ffffffffffffffff8116811461063257600080fd5b6001600160a01b03848116825283166020820152606060408201819052600090610734908301846105d9565b95945050505050565b6000806040838503121561075057600080fd5b50508051602090910151909290915056fea264697066735822122004fdf88c7e63370e6fe9f3ef554c95214cb287fbd644a0a84fbc8bf4121a839a64736f6c63430008190033","linkReferences":{}},"methodIdentifiers":{"GAS_LIMIT()":"091d2788","ORIGIN_CHAIN()":"73e0c2d7","encodeMessage(address,bytes)":"d07de280","owner()":"8da5cb5b","quoteCrossChainCost(uint16,uint256,uint256)":"d326d82f","s_wormholeRelayer()":"5bb60dc0","sendMessage(uint16,address,address,bytes,uint256,uint256)":"c0d9f4b6","setGasLimit(uint256)":"ee7d72b4"},"id":13}