{"abi":[{"type":"constructor","inputs":[{"name":"_wormholeRelayer","type":"address","internalType":"address"}],"stateMutability":"nonpayable"},{"type":"function","name":"GAS_LIMIT","inputs":[],"outputs":[{"name":"","type":"uint256","internalType":"uint256"}],"stateMutability":"view"},{"type":"function","name":"encodeMessage","inputs":[{"name":"_contractToBeCalled","type":"address","internalType":"address"},{"name":"_encodedFunctionCall","type":"bytes","internalType":"bytes"}],"outputs":[{"name":"","type":"bytes","internalType":"bytes"}],"stateMutability":"view"},{"type":"function","name":"owner","inputs":[],"outputs":[{"name":"","type":"address","internalType":"address"}],"stateMutability":"view"},{"type":"function","name":"quoteCrossChainCost","inputs":[{"name":"_targetChain","type":"uint16","internalType":"uint16"},{"name":"_gasLimit","type":"uint256","internalType":"uint256"}],"outputs":[{"name":"cost","type":"uint256","internalType":"uint256"}],"stateMutability":"view"},{"type":"function","name":"s_wormholeRelayer","inputs":[],"outputs":[{"name":"","type":"address","internalType":"contract IWormholeRelayer"}],"stateMutability":"view"},{"type":"function","name":"sendMessage","inputs":[{"name":"_targetChain","type":"uint16","internalType":"uint16"},{"name":"_targetAddress","type":"address","internalType":"address"},{"name":"_contractToBeCalled","type":"address","internalType":"address"},{"name":"_encodedFunctionCall","type":"bytes","internalType":"bytes"},{"name":"_gasLimit","type":"uint256","internalType":"uint256"}],"outputs":[],"stateMutability":"payable"},{"type":"function","name":"sendMessageWithRefund","inputs":[{"name":"_targetChain","type":"uint16","internalType":"uint16"},{"name":"_targetAddress","type":"address","internalType":"address"},{"name":"_contractToBeCalled","type":"address","internalType":"address"},{"name":"_encodedFunctionCall","type":"bytes","internalType":"bytes"},{"name":"_gasLimit","type":"uint256","internalType":"uint256"}],"outputs":[],"stateMutability":"payable"},{"type":"function","name":"setGasLimit","inputs":[{"name":"_gasLimit","type":"uint256","internalType":"uint256"}],"outputs":[],"stateMutability":"nonpayable"}],"bytecode":{"object":"0x6080604052620c3500600255348015601657600080fd5b5060405161086a38038061086a8339810160408190526033916060565b600080546001600160a01b039092166001600160a01b03199283161790556001805490911633179055608e565b600060208284031215607157600080fd5b81516001600160a01b0381168114608757600080fd5b9392505050565b6107cd8061009d6000396000f3fe60806040526004361061007b5760003560e01c8063cd92dcb81161004e578063cd92dcb814610116578063d07de28014610129578063ebda77e014610156578063ee7d72b41461017657600080fd5b8063091d2788146100805780635bb60dc0146100a95780638da5cb5b146100e1578063ba02573614610101575b600080fd5b34801561008c57600080fd5b5061009660025481565b6040519081526020015b60405180910390f35b3480156100b557600080fd5b506000546100c9906001600160a01b031681565b6040516001600160a01b0390911681526020016100a0565b3480156100ed57600080fd5b506001546100c9906001600160a01b031681565b61011461010f3660046104ce565b610196565b005b6101146101243660046104ce565b610262565b34801561013557600080fd5b50610149610144366004610545565b6102dc565b6040516100a091906105d9565b34801561016257600080fd5b506100966101713660046105f3565b61030a565b34801561018257600080fd5b5061011461019136600461061d565b610390565b6002548111156101c15760405162461bcd60e51b81526004016101b890610636565b60405180910390fd5b60006101cd84846102dc565b905060006101db878461030a565b600080546040516347f66e8160e11b81529293506001600160a01b031691638fecdd02918491610215918c918c9189918b90600401610679565b60206040518083038185885af1158015610233573d6000803e3d6000fd5b50505050506040513d601f19601f8201168201806040525081019061025891906106bb565b5050505050505050565b6002548111156102845760405162461bcd60e51b81526004016101b890610636565b600061029084846102dc565b9050600061029e878461030a565b600080546040516312d729bd60e21b81529293506001600160a01b031691634b5ca6f4918491610215918c918c9189918b90859033906004016106e5565b60608233836040516020016102f39392919061073e565b604051602081830303815290604052905092915050565b6000805460405163c23ee3c360e01b815261ffff8516600482015260248101839052604481018490526001600160a01b039091169063c23ee3c3906064016040805180830381865afa158015610364573d6000803e3d6000fd5b505050506040513d601f19601f820116820180604052508101906103889190610773565b509392505050565b6001546001600160a01b031633146103f85760405162461bcd60e51b815260206004820152602560248201527f4f6e6c7920746865206f776e65722063616e2063616c6c20746869732066756e60448201526431ba34b7b760d91b60648201526084016101b8565b600255565b803561ffff8116811461040f57600080fd5b919050565b80356001600160a01b038116811461040f57600080fd5b634e487b7160e01b600052604160045260246000fd5b600082601f83011261045257600080fd5b813567ffffffffffffffff8082111561046d5761046d61042b565b604051601f8301601f19908116603f011681019082821181831017156104955761049561042b565b816040528381528660208588010111156104ae57600080fd5b836020870160208301376000602085830101528094505050505092915050565b600080600080600060a086880312156104e657600080fd5b6104ef866103fd565b94506104fd60208701610414565b935061050b60408701610414565b9250606086013567ffffffffffffffff81111561052757600080fd5b61053388828901610441565b95989497509295608001359392505050565b6000806040838503121561055857600080fd5b61056183610414565b9150602083013567ffffffffffffffff81111561057d57600080fd5b61058985828601610441565b9150509250929050565b6000815180845260005b818110156105b95760208185018101518683018201520161059d565b506000602082860101526020601f19601f83011685010191505092915050565b6020815260006105ec6020830184610593565b9392505050565b6000806040838503121561060657600080fd5b61060f836103fd565b946020939093013593505050565b60006020828403121561062f57600080fd5b5035919050565b60208082526023908201527f476173206c696d6974206578636565647320746865206d6178696d756d206c696040820152621b5a5d60ea1b606082015260800190565b61ffff861681526001600160a01b038516602082015260a0604082018190526000906106a790830186610593565b606083019490945250608001529392505050565b6000602082840312156106cd57600080fd5b815167ffffffffffffffff811681146105ec57600080fd5b600061ffff808a16835260018060a01b03808a16602085015260e0604085015261071260e085018a610593565b925087606085015286608085015281861660a085015280851660c0850152505098975050505050505050565b6001600160a01b0384811682528316602082015260606040820181905260009061076a90830184610593565b95945050505050565b6000806040838503121561078657600080fd5b50508051602090910151909290915056fea2646970667358221220d36c008603abec811e2eac3470807e804b8afcc0a4bc437877866d29586fc39c64736f6c63430008190033","linkReferences":{}},"methodIdentifiers":{"GAS_LIMIT()":"091d2788","encodeMessage(address,bytes)":"d07de280","owner()":"8da5cb5b","quoteCrossChainCost(uint16,uint256)":"ebda77e0","s_wormholeRelayer()":"5bb60dc0","sendMessage(uint16,address,address,bytes,uint256)":"ba025736","sendMessageWithRefund(uint16,address,address,bytes,uint256)":"cd92dcb8","setGasLimit(uint256)":"ee7d72b4"},"id":15}