{
  "_format": "hh-sol-artifact-1",
  "contractName": "CaptureFlagWH",
  "sourceName": "contracts/examples/wormhole/CaptureFlagWH.sol",
  "abi": [
    {
      "anonymous": false,
      "inputs": [
        {
          "indexed": true,
          "internalType": "address",
          "name": "player",
          "type": "address"
        },
        {
          "indexed": false,
          "internalType": "uint256",
          "name": "timestamp",
          "type": "uint256"
        }
      ],
      "name": "FlagCaptured",
      "type": "event"
    },
    {
      "anonymous": false,
      "inputs": [
        {
          "indexed": true,
          "internalType": "address",
          "name": "player",
          "type": "address"
        },
        {
          "indexed": false,
          "internalType": "uint256",
          "name": "timestamp",
          "type": "uint256"
        }
      ],
      "name": "GameJoined",
      "type": "event"
    },
    {
      "inputs": [
        {
          "internalType": "address",
          "name": "_participant",
          "type": "address"
        }
      ],
      "name": "captureFlag",
      "outputs": [],
      "stateMutability": "nonpayable",
      "type": "function"
    },
    {
      "inputs": [],
      "name": "flagCaptureTime",
      "outputs": [
        {
          "internalType": "uint256",
          "name": "",
          "type": "uint256"
        }
      ],
      "stateMutability": "view",
      "type": "function"
    },
    {
      "inputs": [],
      "name": "flagHolder",
      "outputs": [
        {
          "internalType": "address",
          "name": "",
          "type": "address"
        }
      ],
      "stateMutability": "view",
      "type": "function"
    },
    {
      "inputs": [
        {
          "internalType": "address",
          "name": "_participant",
          "type": "address"
        }
      ],
      "name": "joinGame",
      "outputs": [],
      "stateMutability": "nonpayable",
      "type": "function"
    },
    {
      "inputs": [
        {
          "internalType": "address",
          "name": "",
          "type": "address"
        }
      ],
      "name": "lastParticipationTime",
      "outputs": [
        {
          "internalType": "uint256",
          "name": "",
          "type": "uint256"
        }
      ],
      "stateMutability": "view",
      "type": "function"
    },
    {
      "inputs": [],
      "name": "owner",
      "outputs": [
        {
          "internalType": "address",
          "name": "",
          "type": "address"
        }
      ],
      "stateMutability": "view",
      "type": "function"
    },
    {
      "inputs": [],
      "name": "withdraw",
      "outputs": [],
      "stateMutability": "nonpayable",
      "type": "function"
    }
  ],
  "bytecode": "0x6080604052348015600f57600080fd5b506109b68061001f6000396000f3fe608060405234801561001057600080fd5b506004361061007d5760003560e01c80633ccfd60b1161005b5780633ccfd60b146100da5780636d1d9ee0146100e45780638da5cb5b14610114578063c4abc5f9146101325761007d565b8063179a1852146100825780632389a290146100a05780632ded7716146100bc575b600080fd5b61008a61014e565b604051610097919061063b565b60405180910390f35b6100ba60048036038101906100b591906106b9565b610154565b005b6100c461027a565b6040516100d191906106f5565b60405180910390f35b6100e26102a0565b005b6100fe60048036038101906100f991906106b9565b610397565b60405161010b919061063b565b60405180910390f35b61011c6103af565b60405161012991906106f5565b60405180910390f35b61014c600480360381019061014791906106b9565b6103d3565b005b60025481565b80610258600360008373ffffffffffffffffffffffffffffffffffffffff1673ffffffffffffffffffffffffffffffffffffffff168152602001908152602001600020546101a2919061073f565b4210156101e4576040517f08c379a00000000000000000000000000000000000000000000000000000000081526004016101db906107f6565b60405180910390fd5b42600360008473ffffffffffffffffffffffffffffffffffffffff1673ffffffffffffffffffffffffffffffffffffffff168152602001908152602001600020819055508173ffffffffffffffffffffffffffffffffffffffff167fc7f886847371dba98b78e0d0d59e29f4abfaf6e953d6897a761992cb2627e6874260405161026e919061063b565b60405180910390a25050565b600160009054906101000a900473ffffffffffffffffffffffffffffffffffffffff1681565b60008054906101000a900473ffffffffffffffffffffffffffffffffffffffff1673ffffffffffffffffffffffffffffffffffffffff163373ffffffffffffffffffffffffffffffffffffffff161461032e576040517f08c379a000000000000000000000000000000000000000000000000000000000815260040161032590610862565b60405180910390fd5b60008054906101000a900473ffffffffffffffffffffffffffffffffffffffff1673ffffffffffffffffffffffffffffffffffffffff166108fc479081150290604051600060405180830381858888f19350505050158015610394573d6000803e3d6000fd5b50565b60036020528060005260406000206000915090505481565b60008054906101000a900473ffffffffffffffffffffffffffffffffffffffff1681565b80610258600360008373ffffffffffffffffffffffffffffffffffffffff1673ffffffffffffffffffffffffffffffffffffffff16815260200190815260200160002054610421919061073f565b421015610463576040517f08c379a000000000000000000000000000000000000000000000000000000000815260040161045a906107f6565b60405180910390fd5b8173ffffffffffffffffffffffffffffffffffffffff16600160009054906101000a900473ffffffffffffffffffffffffffffffffffffffff1673ffffffffffffffffffffffffffffffffffffffff16036104f3576040517f08c379a00000000000000000000000000000000000000000000000000000000081526004016104ea906108ce565b60405180910390fd5b42610e10600254610504919061073f565b10610544576040517f08c379a000000000000000000000000000000000000000000000000000000000815260040161053b90610960565b60405180910390fd5b81600160006101000a81548173ffffffffffffffffffffffffffffffffffffffff021916908373ffffffffffffffffffffffffffffffffffffffff1602179055504260028190555042600360008473ffffffffffffffffffffffffffffffffffffffff1673ffffffffffffffffffffffffffffffffffffffff168152602001908152602001600020819055508173ffffffffffffffffffffffffffffffffffffffff167f942fcd669c8b59d6df7382cea645558c1c7cddbf164d184e18682d2ced2a005242604051610616919061063b565b60405180910390a25050565b6000819050919050565b61063581610622565b82525050565b6000602082019050610650600083018461062c565b92915050565b600080fd5b600073ffffffffffffffffffffffffffffffffffffffff82169050919050565b60006106868261065b565b9050919050565b6106968161067b565b81146106a157600080fd5b50565b6000813590506106b38161068d565b92915050565b6000602082840312156106cf576106ce610656565b5b60006106dd848285016106a4565b91505092915050565b6106ef8161067b565b82525050565b600060208201905061070a60008301846106e6565b92915050565b7f4e487b7100000000000000000000000000000000000000000000000000000000600052601160045260246000fd5b600061074a82610622565b915061075583610622565b925082820190508082111561076d5761076c610710565b5b92915050565b600082825260208201905092915050565b7f57616974203130206d696e75746573206265666f72652070617274696369706160008201527f74696e6720616761696e00000000000000000000000000000000000000000000602082015250565b60006107e0602a83610773565b91506107eb82610784565b604082019050919050565b6000602082019050818103600083015261080f816107d3565b9050919050565b7f4f6e6c79206f776e657200000000000000000000000000000000000000000000600082015250565b600061084c600a83610773565b915061085782610816565b602082019050919050565b6000602082019050818103600083015261087b8161083f565b9050919050565b7f596f7520616c726561647920686176652074686520666c616700000000000000600082015250565b60006108b8601983610773565b91506108c382610882565b602082019050919050565b600060208201905081810360008301526108e7816108ab565b9050919050565b7f466c61672063616e206f6e6c792062652063617074757265642061667465722060008201527f3120686f75720000000000000000000000000000000000000000000000000000602082015250565b600061094a602683610773565b9150610955826108ee565b604082019050919050565b600060208201905081810360008301526109798161093d565b905091905056fea2646970667358221220799c36a5b2a22a38e8841a6e0f487d68de7abfdb40a4e0e49279829091368f3864736f6c63430008190033",
  "linkReferences": {},
  "deployedLinkReferences": {}
}