{
  "_format": "hh-sol-artifact-1",
  "contractName": "CaptureFlagWH",
  "sourceName": "contracts/examples/wormhole/CaptureFlagWH.sol",
  "abi": [
    {
      "inputs": [],
      "stateMutability": "nonpayable",
      "type": "constructor"
    },
    {
      "anonymous": false,
      "inputs": [
        {
          "indexed": true,
          "internalType": "address",
          "name": "player",
          "type": "address"
        },
        {
          "indexed": false,
          "internalType": "uint256",
          "name": "timestamp",
          "type": "uint256"
        }
      ],
      "name": "FlagCaptured",
      "type": "event"
    },
    {
      "inputs": [
        {
          "internalType": "address",
          "name": "_participant",
          "type": "address"
        }
      ],
      "name": "canUserParticipate",
      "outputs": [
        {
          "internalType": "bool",
          "name": "",
          "type": "bool"
        }
      ],
      "stateMutability": "view",
      "type": "function"
    },
    {
      "inputs": [
        {
          "internalType": "address",
          "name": "_participant",
          "type": "address"
        }
      ],
      "name": "captureFlag",
      "outputs": [],
      "stateMutability": "payable",
      "type": "function"
    },
    {
      "inputs": [],
      "name": "flagCaptureTime",
      "outputs": [
        {
          "internalType": "uint256",
          "name": "",
          "type": "uint256"
        }
      ],
      "stateMutability": "view",
      "type": "function"
    },
    {
      "inputs": [],
      "name": "flagHolder",
      "outputs": [
        {
          "internalType": "address",
          "name": "",
          "type": "address"
        }
      ],
      "stateMutability": "view",
      "type": "function"
    },
    {
      "inputs": [],
      "name": "flagPrice",
      "outputs": [
        {
          "internalType": "uint256",
          "name": "",
          "type": "uint256"
        }
      ],
      "stateMutability": "view",
      "type": "function"
    },
    {
      "inputs": [
        {
          "internalType": "address",
          "name": "",
          "type": "address"
        }
      ],
      "name": "lastParticipationTime",
      "outputs": [
        {
          "internalType": "uint256",
          "name": "",
          "type": "uint256"
        }
      ],
      "stateMutability": "view",
      "type": "function"
    },
    {
      "inputs": [],
      "name": "owner",
      "outputs": [
        {
          "internalType": "address",
          "name": "",
          "type": "address"
        }
      ],
      "stateMutability": "view",
      "type": "function"
    },
    {
      "inputs": [
        {
          "internalType": "uint256",
          "name": "_price",
          "type": "uint256"
        }
      ],
      "name": "setFlagPrice",
      "outputs": [],
      "stateMutability": "nonpayable",
      "type": "function"
    },
    {
      "inputs": [
        {
          "internalType": "address",
          "name": "_newOwner",
          "type": "address"
        }
      ],
      "name": "transferOwnership",
      "outputs": [],
      "stateMutability": "nonpayable",
      "type": "function"
    },
    {
      "inputs": [],
      "name": "withdraw",
      "outputs": [],
      "stateMutability": "nonpayable",
      "type": "function"
    }
  ],
  "bytecode": "0x608060405267016345785d8a0000600355348015601b57600080fd5b50336000806101000a81548173ffffffffffffffffffffffffffffffffffffffff021916908373ffffffffffffffffffffffffffffffffffffffff160217905550610c8a8061006b6000396000f3fe6080604052600436106100915760003560e01c80637821099711610059578063782109971461016b5780638da5cb5b14610194578063c4abc5f9146101bf578063d73dba3c146101db578063f2fde38b1461021857610091565b8063179a1852146100965780632ded7716146100c15780633ccfd60b146100ec5780633dc4f147146101035780636d1d9ee01461012e575b600080fd5b3480156100a257600080fd5b506100ab610241565b6040516100b89190610814565b60405180910390f35b3480156100cd57600080fd5b506100d6610247565b6040516100e39190610870565b60405180910390f35b3480156100f857600080fd5b5061010161026d565b005b34801561010f57600080fd5b50610118610364565b6040516101259190610814565b60405180910390f35b34801561013a57600080fd5b50610155600480360381019061015091906108bc565b61036a565b6040516101629190610814565b60405180910390f35b34801561017757600080fd5b50610192600480360381019061018d9190610915565b610382565b005b3480156101a057600080fd5b506101a961041a565b6040516101b69190610870565b60405180910390f35b6101d960048036038101906101d491906108bc565b61043e565b005b3480156101e757600080fd5b5061020260048036038101906101fd91906108bc565b6106d1565b60405161020f919061095d565b60405180910390f35b34801561022457600080fd5b5061023f600480360381019061023a91906108bc565b61072a565b005b60025481565b600160009054906101000a900473ffffffffffffffffffffffffffffffffffffffff1681565b60008054906101000a900473ffffffffffffffffffffffffffffffffffffffff1673ffffffffffffffffffffffffffffffffffffffff163373ffffffffffffffffffffffffffffffffffffffff16146102fb576040517f08c379a00000000000000000000000000000000000000000000000000000000081526004016102f2906109d5565b60405180910390fd5b60008054906101000a900473ffffffffffffffffffffffffffffffffffffffff1673ffffffffffffffffffffffffffffffffffffffff166108fc479081150290604051600060405180830381858888f19350505050158015610361573d6000803e3d6000fd5b50565b60035481565b60046020528060005260406000206000915090505481565b60008054906101000a900473ffffffffffffffffffffffffffffffffffffffff1673ffffffffffffffffffffffffffffffffffffffff163373ffffffffffffffffffffffffffffffffffffffff1614610410576040517f08c379a0000000000000000000000000000000000000000000000000000000008152600401610407906109d5565b60405180910390fd5b8060038190555050565b60008054906101000a900473ffffffffffffffffffffffffffffffffffffffff1681565b80610258600460008373ffffffffffffffffffffffffffffffffffffffff1673ffffffffffffffffffffffffffffffffffffffff1681526020019081526020016000205461048c9190610a24565b4210156104ce576040517f08c379a00000000000000000000000000000000000000000000000000000000081526004016104c590610aca565b60405180910390fd5b600354341015610513576040517f08c379a000000000000000000000000000000000000000000000000000000000815260040161050a90610b36565b60405180910390fd5b8173ffffffffffffffffffffffffffffffffffffffff16600160009054906101000a900473ffffffffffffffffffffffffffffffffffffffff1673ffffffffffffffffffffffffffffffffffffffff16036105a3576040517f08c379a000000000000000000000000000000000000000000000000000000000815260040161059a90610ba2565b60405180910390fd5b42603c6002546105b39190610a24565b106105f3576040517f08c379a00000000000000000000000000000000000000000000000000000000081526004016105ea90610c34565b60405180910390fd5b81600160006101000a81548173ffffffffffffffffffffffffffffffffffffffff021916908373ffffffffffffffffffffffffffffffffffffffff1602179055504260028190555042600460008473ffffffffffffffffffffffffffffffffffffffff1673ffffffffffffffffffffffffffffffffffffffff168152602001908152602001600020819055508173ffffffffffffffffffffffffffffffffffffffff167f942fcd669c8b59d6df7382cea645558c1c7cddbf164d184e18682d2ced2a0052426040516106c59190610814565b60405180910390a25050565b6000610258600460008473ffffffffffffffffffffffffffffffffffffffff1673ffffffffffffffffffffffffffffffffffffffff168152602001908152602001600020546107209190610a24565b4210159050919050565b60008054906101000a900473ffffffffffffffffffffffffffffffffffffffff1673ffffffffffffffffffffffffffffffffffffffff163373ffffffffffffffffffffffffffffffffffffffff16146107b8576040517f08c379a00000000000000000000000000000000000000000000000000000000081526004016107af906109d5565b60405180910390fd5b806000806101000a81548173ffffffffffffffffffffffffffffffffffffffff021916908373ffffffffffffffffffffffffffffffffffffffff16021790555050565b6000819050919050565b61080e816107fb565b82525050565b60006020820190506108296000830184610805565b92915050565b600073ffffffffffffffffffffffffffffffffffffffff82169050919050565b600061085a8261082f565b9050919050565b61086a8161084f565b82525050565b60006020820190506108856000830184610861565b92915050565b600080fd5b6108998161084f565b81146108a457600080fd5b50565b6000813590506108b681610890565b92915050565b6000602082840312156108d2576108d161088b565b5b60006108e0848285016108a7565b91505092915050565b6108f2816107fb565b81146108fd57600080fd5b50565b60008135905061090f816108e9565b92915050565b60006020828403121561092b5761092a61088b565b5b600061093984828501610900565b91505092915050565b60008115159050919050565b61095781610942565b82525050565b6000602082019050610972600083018461094e565b92915050565b600082825260208201905092915050565b7f4f6e6c79206f776e657200000000000000000000000000000000000000000000600082015250565b60006109bf600a83610978565b91506109ca82610989565b602082019050919050565b600060208201905081810360008301526109ee816109b2565b9050919050565b7f4e487b7100000000000000000000000000000000000000000000000000000000600052601160045260246000fd5b6000610a2f826107fb565b9150610a3a836107fb565b9250828201905080821115610a5257610a516109f5565b5b92915050565b7f57616974203130206d696e75746573206265666f72652070617274696369706160008201527f74696e6720616761696e00000000000000000000000000000000000000000000602082015250565b6000610ab4602a83610978565b9150610abf82610a58565b604082019050919050565b60006020820190508181036000830152610ae381610aa7565b9050919050565b7f496e73756666696369656e742066756e64730000000000000000000000000000600082015250565b6000610b20601283610978565b9150610b2b82610aea565b602082019050919050565b60006020820190508181036000830152610b4f81610b13565b9050919050565b7f596f7520616c726561647920686176652074686520666c616700000000000000600082015250565b6000610b8c601983610978565b9150610b9782610b56565b602082019050919050565b60006020820190508181036000830152610bbb81610b7f565b9050919050565b7f466c61672063616e206f6e6c792062652063617074757265642061667465722060008201527f31206d696e757465000000000000000000000000000000000000000000000000602082015250565b6000610c1e602883610978565b9150610c2982610bc2565b604082019050919050565b60006020820190508181036000830152610c4d81610c11565b905091905056fea2646970667358221220683393b17ca635a5cb8416a1de671c2e5d505a044f88d566aca411ddae27e3fd64736f6c63430008190033",
  "linkReferences": {},
  "deployedLinkReferences": {}
}