{
  "_format": "hh-sol-artifact-1",
  "contractName": "NFTGunzilla",
  "sourceName": "contracts/examples/wormhole/NFTGunzilla.sol",
  "abi": [
    {
      "inputs": [],
      "stateMutability": "nonpayable",
      "type": "constructor"
    },
    {
      "inputs": [
        {
          "internalType": "address",
          "name": "sender",
          "type": "address"
        },
        {
          "internalType": "uint256",
          "name": "tokenId",
          "type": "uint256"
        },
        {
          "internalType": "address",
          "name": "owner",
          "type": "address"
        }
      ],
      "name": "ERC721IncorrectOwner",
      "type": "error"
    },
    {
      "inputs": [
        {
          "internalType": "address",
          "name": "operator",
          "type": "address"
        },
        {
          "internalType": "uint256",
          "name": "tokenId",
          "type": "uint256"
        }
      ],
      "name": "ERC721InsufficientApproval",
      "type": "error"
    },
    {
      "inputs": [
        {
          "internalType": "address",
          "name": "approver",
          "type": "address"
        }
      ],
      "name": "ERC721InvalidApprover",
      "type": "error"
    },
    {
      "inputs": [
        {
          "internalType": "address",
          "name": "operator",
          "type": "address"
        }
      ],
      "name": "ERC721InvalidOperator",
      "type": "error"
    },
    {
      "inputs": [
        {
          "internalType": "address",
          "name": "owner",
          "type": "address"
        }
      ],
      "name": "ERC721InvalidOwner",
      "type": "error"
    },
    {
      "inputs": [
        {
          "internalType": "address",
          "name": "receiver",
          "type": "address"
        }
      ],
      "name": "ERC721InvalidReceiver",
      "type": "error"
    },
    {
      "inputs": [
        {
          "internalType": "address",
          "name": "sender",
          "type": "address"
        }
      ],
      "name": "ERC721InvalidSender",
      "type": "error"
    },
    {
      "inputs": [
        {
          "internalType": "uint256",
          "name": "tokenId",
          "type": "uint256"
        }
      ],
      "name": "ERC721NonexistentToken",
      "type": "error"
    },
    {
      "anonymous": false,
      "inputs": [
        {
          "indexed": true,
          "internalType": "address",
          "name": "owner",
          "type": "address"
        },
        {
          "indexed": true,
          "internalType": "address",
          "name": "approved",
          "type": "address"
        },
        {
          "indexed": true,
          "internalType": "uint256",
          "name": "tokenId",
          "type": "uint256"
        }
      ],
      "name": "Approval",
      "type": "event"
    },
    {
      "anonymous": false,
      "inputs": [
        {
          "indexed": true,
          "internalType": "address",
          "name": "owner",
          "type": "address"
        },
        {
          "indexed": true,
          "internalType": "address",
          "name": "operator",
          "type": "address"
        },
        {
          "indexed": false,
          "internalType": "bool",
          "name": "approved",
          "type": "bool"
        }
      ],
      "name": "ApprovalForAll",
      "type": "event"
    },
    {
      "anonymous": false,
      "inputs": [
        {
          "indexed": true,
          "internalType": "address",
          "name": "from",
          "type": "address"
        },
        {
          "indexed": true,
          "internalType": "address",
          "name": "to",
          "type": "address"
        },
        {
          "indexed": true,
          "internalType": "uint256",
          "name": "tokenId",
          "type": "uint256"
        }
      ],
      "name": "Transfer",
      "type": "event"
    },
    {
      "inputs": [
        {
          "internalType": "address",
          "name": "to",
          "type": "address"
        },
        {
          "internalType": "uint256",
          "name": "tokenId",
          "type": "uint256"
        }
      ],
      "name": "approve",
      "outputs": [],
      "stateMutability": "nonpayable",
      "type": "function"
    },
    {
      "inputs": [
        {
          "internalType": "address",
          "name": "owner",
          "type": "address"
        }
      ],
      "name": "balanceOf",
      "outputs": [
        {
          "internalType": "uint256",
          "name": "",
          "type": "uint256"
        }
      ],
      "stateMutability": "view",
      "type": "function"
    },
    {
      "inputs": [
        {
          "internalType": "uint256",
          "name": "tokenId",
          "type": "uint256"
        }
      ],
      "name": "getApproved",
      "outputs": [
        {
          "internalType": "address",
          "name": "",
          "type": "address"
        }
      ],
      "stateMutability": "view",
      "type": "function"
    },
    {
      "inputs": [
        {
          "internalType": "address",
          "name": "owner",
          "type": "address"
        },
        {
          "internalType": "address",
          "name": "operator",
          "type": "address"
        }
      ],
      "name": "isApprovedForAll",
      "outputs": [
        {
          "internalType": "bool",
          "name": "",
          "type": "bool"
        }
      ],
      "stateMutability": "view",
      "type": "function"
    },
    {
      "inputs": [],
      "name": "name",
      "outputs": [
        {
          "internalType": "string",
          "name": "",
          "type": "string"
        }
      ],
      "stateMutability": "view",
      "type": "function"
    },
    {
      "inputs": [
        {
          "internalType": "uint256",
          "name": "tokenId",
          "type": "uint256"
        }
      ],
      "name": "ownerOf",
      "outputs": [
        {
          "internalType": "address",
          "name": "",
          "type": "address"
        }
      ],
      "stateMutability": "view",
      "type": "function"
    },
    {
      "inputs": [
        {
          "internalType": "address",
          "name": "to",
          "type": "address"
        }
      ],
      "name": "safeMint",
      "outputs": [],
      "stateMutability": "nonpayable",
      "type": "function"
    },
    {
      "inputs": [
        {
          "internalType": "address",
          "name": "from",
          "type": "address"
        },
        {
          "internalType": "address",
          "name": "to",
          "type": "address"
        },
        {
          "internalType": "uint256",
          "name": "tokenId",
          "type": "uint256"
        }
      ],
      "name": "safeTransferFrom",
      "outputs": [],
      "stateMutability": "nonpayable",
      "type": "function"
    },
    {
      "inputs": [
        {
          "internalType": "address",
          "name": "from",
          "type": "address"
        },
        {
          "internalType": "address",
          "name": "to",
          "type": "address"
        },
        {
          "internalType": "uint256",
          "name": "tokenId",
          "type": "uint256"
        },
        {
          "internalType": "bytes",
          "name": "data",
          "type": "bytes"
        }
      ],
      "name": "safeTransferFrom",
      "outputs": [],
      "stateMutability": "nonpayable",
      "type": "function"
    },
    {
      "inputs": [
        {
          "internalType": "address",
          "name": "operator",
          "type": "address"
        },
        {
          "internalType": "bool",
          "name": "approved",
          "type": "bool"
        }
      ],
      "name": "setApprovalForAll",
      "outputs": [],
      "stateMutability": "nonpayable",
      "type": "function"
    },
    {
      "inputs": [
        {
          "internalType": "bytes4",
          "name": "interfaceId",
          "type": "bytes4"
        }
      ],
      "name": "supportsInterface",
      "outputs": [
        {
          "internalType": "bool",
          "name": "",
          "type": "bool"
        }
      ],
      "stateMutability": "view",
      "type": "function"
    },
    {
      "inputs": [],
      "name": "symbol",
      "outputs": [
        {
          "internalType": "string",
          "name": "",
          "type": "string"
        }
      ],
      "stateMutability": "view",
      "type": "function"
    },
    {
      "inputs": [
        {
          "internalType": "uint256",
          "name": "_tokenId",
          "type": "uint256"
        }
      ],
      "name": "tokenURI",
      "outputs": [
        {
          "internalType": "string",
          "name": "",
          "type": "string"
        }
      ],
      "stateMutability": "view",
      "type": "function"
    },
    {
      "inputs": [
        {
          "internalType": "address",
          "name": "from",
          "type": "address"
        },
        {
          "internalType": "address",
          "name": "to",
          "type": "address"
        },
        {
          "internalType": "uint256",
          "name": "tokenId",
          "type": "uint256"
        }
      ],
      "name": "transferFrom",
      "outputs": [],
      "stateMutability": "nonpayable",
      "type": "function"
    }
  ],
  "bytecode": "0x6080604052604051806080016040528060438152602001611ff1604391396007908161002b919061031c565b5034801561003857600080fd5b506040518060400160405280600b81526020017f4e465447756e7a696c6c610000000000000000000000000000000000000000008152506040518060400160405280600381526020017f47554e000000000000000000000000000000000000000000000000000000000081525081600090816100b4919061031c565b5080600190816100c4919061031c565b5050506103ee565b600081519050919050565b7f4e487b7100000000000000000000000000000000000000000000000000000000600052604160045260246000fd5b7f4e487b7100000000000000000000000000000000000000000000000000000000600052602260045260246000fd5b6000600282049050600182168061014d57607f821691505b6020821081036101605761015f610106565b5b50919050565b60008190508160005260206000209050919050565b60006020601f8301049050919050565b600082821b905092915050565b6000600883026101c87fffffffffffffffffffffffffffffffffffffffffffffffffffffffffffffffff8261018b565b6101d2868361018b565b95508019841693508086168417925050509392505050565b6000819050919050565b6000819050919050565b600061021961021461020f846101ea565b6101f4565b6101ea565b9050919050565b6000819050919050565b610233836101fe565b61024761023f82610220565b848454610198565b825550505050565b600090565b61025c61024f565b61026781848461022a565b505050565b5b8181101561028b57610280600082610254565b60018101905061026d565b5050565b601f8211156102d0576102a181610166565b6102aa8461017b565b810160208510156102b9578190505b6102cd6102c58561017b565b83018261026c565b50505b505050565b600082821c905092915050565b60006102f3600019846008026102d5565b1980831691505092915050565b600061030c83836102e2565b9150826002028217905092915050565b610325826100cc565b67ffffffffffffffff81111561033e5761033d6100d7565b5b6103488254610135565b61035382828561028f565b600060209050601f8311600181146103865760008415610374578287015190505b61037e8582610300565b8655506103e6565b601f19841661039486610166565b60005b828110156103bc57848901518255600182019150602085019450602081019050610397565b868310156103d957848901516103d5601f8916826102e2565b8355505b6001600288020188555050505b505050505050565b611bf4806103fd6000396000f3fe608060405234801561001057600080fd5b50600436106100ea5760003560e01c80636352211e1161008c578063a22cb46511610066578063a22cb4651461025b578063b88d4fde14610277578063c87b56dd14610293578063e985e9c5146102c3576100ea565b80636352211e146101dd57806370a082311461020d57806395d89b411461023d576100ea565b8063095ea7b3116100c8578063095ea7b31461016d57806323b872dd1461018957806340d097c3146101a557806342842e0e146101c1576100ea565b806301ffc9a7146100ef57806306fdde031461011f578063081812fc1461013d575b600080fd5b61010960048036038101906101049190611456565b6102f3565b604051610116919061149e565b60405180910390f35b6101276103d5565b6040516101349190611549565b60405180910390f35b610157600480360381019061015291906115a1565b610467565b604051610164919061160f565b60405180910390f35b61018760048036038101906101829190611656565b610483565b005b6101a3600480360381019061019e9190611696565b610499565b005b6101bf60048036038101906101ba91906116e9565b61059b565b005b6101db60048036038101906101d69190611696565b6105c4565b005b6101f760048036038101906101f291906115a1565b6105e4565b604051610204919061160f565b60405180910390f35b610227600480360381019061022291906116e9565b6105f6565b6040516102349190611725565b60405180910390f35b6102456106b0565b6040516102529190611549565b60405180910390f35b6102756004803603810190610270919061176c565b610742565b005b610291600480360381019061028c91906118e1565b610758565b005b6102ad60048036038101906102a891906115a1565b61077d565b6040516102ba9190611549565b60405180910390f35b6102dd60048036038101906102d89190611964565b610811565b6040516102ea919061149e565b60405180910390f35b60007f80ac58cd000000000000000000000000000000000000000000000000000000007bffffffffffffffffffffffffffffffffffffffffffffffffffffffff1916827bffffffffffffffffffffffffffffffffffffffffffffffffffffffff191614806103be57507f5b5e139f000000000000000000000000000000000000000000000000000000007bffffffffffffffffffffffffffffffffffffffffffffffffffffffff1916827bffffffffffffffffffffffffffffffffffffffffffffffffffffffff1916145b806103ce57506103cd826108a5565b5b9050919050565b6060600080546103e4906119d3565b80601f0160208091040260200160405190810160405280929190818152602001828054610410906119d3565b801561045d5780601f106104325761010080835404028352916020019161045d565b820191906000526020600020905b81548152906001019060200180831161044057829003601f168201915b5050505050905090565b60006104728261090f565b5061047c82610997565b9050919050565b61049582826104906109d4565b6109dc565b5050565b600073ffffffffffffffffffffffffffffffffffffffff168273ffffffffffffffffffffffffffffffffffffffff160361050b5760006040517f64a0ae92000000000000000000000000000000000000000000000000000000008152600401610502919061160f565b60405180910390fd5b600061051f838361051a6109d4565b6109ee565b90508373ffffffffffffffffffffffffffffffffffffffff168173ffffffffffffffffffffffffffffffffffffffff1614610595578382826040517f64283d7b00000000000000000000000000000000000000000000000000000000815260040161058c93929190611a04565b60405180910390fd5b50505050565b6000600660008154809291906105b090611a6a565b9190505590506105c08282610c08565b5050565b6105df83838360405180602001604052806000815250610758565b505050565b60006105ef8261090f565b9050919050565b60008073ffffffffffffffffffffffffffffffffffffffff168273ffffffffffffffffffffffffffffffffffffffff16036106695760006040517f89c62b64000000000000000000000000000000000000000000000000000000008152600401610660919061160f565b60405180910390fd5b600360008373ffffffffffffffffffffffffffffffffffffffff1673ffffffffffffffffffffffffffffffffffffffff168152602001908152602001600020549050919050565b6060600180546106bf906119d3565b80601f01602080910402602001604051908101604052809291908181526020018280546106eb906119d3565b80156107385780601f1061070d57610100808354040283529160200191610738565b820191906000526020600020905b81548152906001019060200180831161071b57829003601f168201915b5050505050905090565b61075461074d6109d4565b8383610c26565b5050565b610763848484610499565b61077761076e6109d4565b85858585610d95565b50505050565b60606007805461078c906119d3565b80601f01602080910402602001604051908101604052809291908181526020018280546107b8906119d3565b80156108055780601f106107da57610100808354040283529160200191610805565b820191906000526020600020905b8154815290600101906020018083116107e857829003601f168201915b50505050509050919050565b6000600560008473ffffffffffffffffffffffffffffffffffffffff1673ffffffffffffffffffffffffffffffffffffffff16815260200190815260200160002060008373ffffffffffffffffffffffffffffffffffffffff1673ffffffffffffffffffffffffffffffffffffffff16815260200190815260200160002060009054906101000a900460ff16905092915050565b60007f01ffc9a7000000000000000000000000000000000000000000000000000000007bffffffffffffffffffffffffffffffffffffffffffffffffffffffff1916827bffffffffffffffffffffffffffffffffffffffffffffffffffffffff1916149050919050565b60008061091b83610f46565b9050600073ffffffffffffffffffffffffffffffffffffffff168173ffffffffffffffffffffffffffffffffffffffff160361098e57826040517f7e2732890000000000000000000000000000000000000000000000000000000081526004016109859190611725565b60405180910390fd5b80915050919050565b60006004600083815260200190815260200160002060009054906101000a900473ffffffffffffffffffffffffffffffffffffffff169050919050565b600033905090565b6109e98383836001610f83565b505050565b6000806109fa84610f46565b9050600073ffffffffffffffffffffffffffffffffffffffff168373ffffffffffffffffffffffffffffffffffffffff1614610a3c57610a3b818486611148565b5b600073ffffffffffffffffffffffffffffffffffffffff168173ffffffffffffffffffffffffffffffffffffffff1614610acd57610a7e600085600080610f83565b6001600360008373ffffffffffffffffffffffffffffffffffffffff1673ffffffffffffffffffffffffffffffffffffffff168152602001908152602001600020600082825403925050819055505b600073ffffffffffffffffffffffffffffffffffffffff168573ffffffffffffffffffffffffffffffffffffffff1614610b50576001600360008773ffffffffffffffffffffffffffffffffffffffff1673ffffffffffffffffffffffffffffffffffffffff168152602001908152602001600020600082825401925050819055505b846002600086815260200190815260200160002060006101000a81548173ffffffffffffffffffffffffffffffffffffffff021916908373ffffffffffffffffffffffffffffffffffffffff160217905550838573ffffffffffffffffffffffffffffffffffffffff168273ffffffffffffffffffffffffffffffffffffffff167fddf252ad1be2c89b69c2b068fc378daa952ba7f163c4a11628f55a4df523b3ef60405160405180910390a4809150509392505050565b610c2282826040518060200160405280600081525061120c565b5050565b600073ffffffffffffffffffffffffffffffffffffffff168273ffffffffffffffffffffffffffffffffffffffff1603610c9757816040517f5b08ba18000000000000000000000000000000000000000000000000000000008152600401610c8e919061160f565b60405180910390fd5b80600560008573ffffffffffffffffffffffffffffffffffffffff1673ffffffffffffffffffffffffffffffffffffffff16815260200190815260200160002060008473ffffffffffffffffffffffffffffffffffffffff1673ffffffffffffffffffffffffffffffffffffffff16815260200190815260200160002060006101000a81548160ff0219169083151502179055508173ffffffffffffffffffffffffffffffffffffffff168373ffffffffffffffffffffffffffffffffffffffff167f17307eab39ab6107e8899845ad3d59bd9653f200f220920489ca2b5937696c3183604051610d88919061149e565b60405180910390a3505050565b60008373ffffffffffffffffffffffffffffffffffffffff163b1115610f3f578273ffffffffffffffffffffffffffffffffffffffff1663150b7a02868685856040518563ffffffff1660e01b8152600401610df49493929190611b07565b6020604051808303816000875af1925050508015610e3057506040513d601f19601f82011682018060405250810190610e2d9190611b68565b60015b610eb4573d8060008114610e60576040519150601f19603f3d011682016040523d82523d6000602084013e610e65565b606091505b506000815103610eac57836040517f64a0ae92000000000000000000000000000000000000000000000000000000008152600401610ea3919061160f565b60405180910390fd5b805181602001fd5b63150b7a0260e01b7bffffffffffffffffffffffffffffffffffffffffffffffffffffffff1916817bffffffffffffffffffffffffffffffffffffffffffffffffffffffff191614610f3d57836040517f64a0ae92000000000000000000000000000000000000000000000000000000008152600401610f34919061160f565b60405180910390fd5b505b5050505050565b60006002600083815260200190815260200160002060009054906101000a900473ffffffffffffffffffffffffffffffffffffffff169050919050565b8080610fbc5750600073ffffffffffffffffffffffffffffffffffffffff168273ffffffffffffffffffffffffffffffffffffffff1614155b156110f0576000610fcc8461090f565b9050600073ffffffffffffffffffffffffffffffffffffffff168373ffffffffffffffffffffffffffffffffffffffff161415801561103757508273ffffffffffffffffffffffffffffffffffffffff168173ffffffffffffffffffffffffffffffffffffffff1614155b801561104a57506110488184610811565b155b1561108c57826040517fa9fbf51f000000000000000000000000000000000000000000000000000000008152600401611083919061160f565b60405180910390fd5b81156110ee57838573ffffffffffffffffffffffffffffffffffffffff168273ffffffffffffffffffffffffffffffffffffffff167f8c5be1e5ebec7d5bd14f71427d1e84f3dd0314c0f7b2291e5b200ac8c7c3b92560405160405180910390a45b505b836004600085815260200190815260200160002060006101000a81548173ffffffffffffffffffffffffffffffffffffffff021916908373ffffffffffffffffffffffffffffffffffffffff16021790555050505050565b611153838383611230565b61120757600073ffffffffffffffffffffffffffffffffffffffff168373ffffffffffffffffffffffffffffffffffffffff16036111c857806040517f7e2732890000000000000000000000000000000000000000000000000000000081526004016111bf9190611725565b60405180910390fd5b81816040517f177e802f0000000000000000000000000000000000000000000000000000000081526004016111fe929190611b95565b60405180910390fd5b505050565b61121683836112f1565b61122b6112216109d4565b6000858585610d95565b505050565b60008073ffffffffffffffffffffffffffffffffffffffff168373ffffffffffffffffffffffffffffffffffffffff16141580156112e857508273ffffffffffffffffffffffffffffffffffffffff168473ffffffffffffffffffffffffffffffffffffffff1614806112a957506112a88484610811565b5b806112e757508273ffffffffffffffffffffffffffffffffffffffff166112cf83610997565b73ffffffffffffffffffffffffffffffffffffffff16145b5b90509392505050565b600073ffffffffffffffffffffffffffffffffffffffff168273ffffffffffffffffffffffffffffffffffffffff16036113635760006040517f64a0ae9200000000000000000000000000000000000000000000000000000000815260040161135a919061160f565b60405180910390fd5b6000611371838360006109ee565b9050600073ffffffffffffffffffffffffffffffffffffffff168173ffffffffffffffffffffffffffffffffffffffff16146113e55760006040517f73c6ac6e0000000000000000000000000000000000000000000000000000000081526004016113dc919061160f565b60405180910390fd5b505050565b6000604051905090565b600080fd5b600080fd5b60007fffffffff0000000000000000000000000000000000000000000000000000000082169050919050565b611433816113fe565b811461143e57600080fd5b50565b6000813590506114508161142a565b92915050565b60006020828403121561146c5761146b6113f4565b5b600061147a84828501611441565b91505092915050565b60008115159050919050565b61149881611483565b82525050565b60006020820190506114b3600083018461148f565b92915050565b600081519050919050565b600082825260208201905092915050565b60005b838110156114f35780820151818401526020810190506114d8565b60008484015250505050565b6000601f19601f8301169050919050565b600061151b826114b9565b61152581856114c4565b93506115358185602086016114d5565b61153e816114ff565b840191505092915050565b600060208201905081810360008301526115638184611510565b905092915050565b6000819050919050565b61157e8161156b565b811461158957600080fd5b50565b60008135905061159b81611575565b92915050565b6000602082840312156115b7576115b66113f4565b5b60006115c58482850161158c565b91505092915050565b600073ffffffffffffffffffffffffffffffffffffffff82169050919050565b60006115f9826115ce565b9050919050565b611609816115ee565b82525050565b60006020820190506116246000830184611600565b92915050565b611633816115ee565b811461163e57600080fd5b50565b6000813590506116508161162a565b92915050565b6000806040838503121561166d5761166c6113f4565b5b600061167b85828601611641565b925050602061168c8582860161158c565b9150509250929050565b6000806000606084860312156116af576116ae6113f4565b5b60006116bd86828701611641565b93505060206116ce86828701611641565b92505060406116df8682870161158c565b9150509250925092565b6000602082840312156116ff576116fe6113f4565b5b600061170d84828501611641565b91505092915050565b61171f8161156b565b82525050565b600060208201905061173a6000830184611716565b92915050565b61174981611483565b811461175457600080fd5b50565b60008135905061176681611740565b92915050565b60008060408385031215611783576117826113f4565b5b600061179185828601611641565b92505060206117a285828601611757565b9150509250929050565b600080fd5b600080fd5b7f4e487b7100000000000000000000000000000000000000000000000000000000600052604160045260246000fd5b6117ee826114ff565b810181811067ffffffffffffffff8211171561180d5761180c6117b6565b5b80604052505050565b60006118206113ea565b905061182c82826117e5565b919050565b600067ffffffffffffffff82111561184c5761184b6117b6565b5b611855826114ff565b9050602081019050919050565b82818337600083830152505050565b600061188461187f84611831565b611816565b9050828152602081018484840111156118a05761189f6117b1565b5b6118ab848285611862565b509392505050565b600082601f8301126118c8576118c76117ac565b5b81356118d8848260208601611871565b91505092915050565b600080600080608085870312156118fb576118fa6113f4565b5b600061190987828801611641565b945050602061191a87828801611641565b935050604061192b8782880161158c565b925050606085013567ffffffffffffffff81111561194c5761194b6113f9565b5b611958878288016118b3565b91505092959194509250565b6000806040838503121561197b5761197a6113f4565b5b600061198985828601611641565b925050602061199a85828601611641565b9150509250929050565b7f4e487b7100000000000000000000000000000000000000000000000000000000600052602260045260246000fd5b600060028204905060018216806119eb57607f821691505b6020821081036119fe576119fd6119a4565b5b50919050565b6000606082019050611a196000830186611600565b611a266020830185611716565b611a336040830184611600565b949350505050565b7f4e487b7100000000000000000000000000000000000000000000000000000000600052601160045260246000fd5b6000611a758261156b565b91507fffffffffffffffffffffffffffffffffffffffffffffffffffffffffffffffff8203611aa757611aa6611a3b565b5b600182019050919050565b600081519050919050565b600082825260208201905092915050565b6000611ad982611ab2565b611ae38185611abd565b9350611af38185602086016114d5565b611afc816114ff565b840191505092915050565b6000608082019050611b1c6000830187611600565b611b296020830186611600565b611b366040830185611716565b8181036060830152611b488184611ace565b905095945050505050565b600081519050611b628161142a565b92915050565b600060208284031215611b7e57611b7d6113f4565b5b6000611b8c84828501611b53565b91505092915050565b6000604082019050611baa6000830185611600565b611bb76020830184611716565b939250505056fea26469706673582212205ad274b156d3e685f9961d9eccd515a38742e2560c84a943237943de11c9dc4c64736f6c6343000819003368747470733a2f2f697066732e696f2f697066732f516d56744a32486b4b4e654a6178705a746d6e4e75483744654c7a54596b6b526a52796d32644d6b345a3734576d",
  "linkReferences": {},
  "deployedLinkReferences": {}
}