{
  "_format": "hh-sol-artifact-1",
  "contractName": "SL1MessageReceiver",
  "sourceName": "contracts/wormhole/SL1MessageReceiver.sol",
  "abi": [
    {
      "inputs": [
        {
          "internalType": "address",
          "name": "_wormholeRelayer",
          "type": "address"
        }
      ],
      "stateMutability": "nonpayable",
      "type": "constructor"
    },
    {
      "anonymous": false,
      "inputs": [
        {
          "indexed": false,
          "internalType": "string",
          "name": "message",
          "type": "string"
        }
      ],
      "name": "FunctionCallError",
      "type": "event"
    },
    {
      "anonymous": false,
      "inputs": [
        {
          "indexed": false,
          "internalType": "address",
          "name": "contractToBeCalled",
          "type": "address"
        },
        {
          "indexed": false,
          "internalType": "bytes",
          "name": "encodedFunctionCall",
          "type": "bytes"
        }
      ],
      "name": "FunctionExecuted",
      "type": "event"
    },
    {
      "anonymous": false,
      "inputs": [
        {
          "indexed": false,
          "internalType": "bytes32",
          "name": "sourceAddress",
          "type": "bytes32"
        },
        {
          "indexed": false,
          "internalType": "bytes",
          "name": "payload",
          "type": "bytes"
        }
      ],
      "name": "MessageInfoReceived",
      "type": "event"
    },
    {
      "anonymous": false,
      "inputs": [
        {
          "indexed": false,
          "internalType": "uint16",
          "name": "sourceChain",
          "type": "uint16"
        },
        {
          "indexed": false,
          "internalType": "bytes32",
          "name": "sourceAddress",
          "type": "bytes32"
        }
      ],
      "name": "SenderRegistered",
      "type": "event"
    },
    {
      "anonymous": false,
      "inputs": [
        {
          "indexed": false,
          "internalType": "uint16",
          "name": "sourceChain",
          "type": "uint16"
        },
        {
          "indexed": false,
          "internalType": "address",
          "name": "sender",
          "type": "address"
        }
      ],
      "name": "SourceChainLogged",
      "type": "event"
    },
    {
      "anonymous": false,
      "inputs": [
        {
          "indexed": true,
          "internalType": "address",
          "name": "owner",
          "type": "address"
        },
        {
          "indexed": false,
          "internalType": "uint256",
          "name": "amount",
          "type": "uint256"
        }
      ],
      "name": "Withdraw",
      "type": "event"
    },
    {
      "inputs": [
        {
          "internalType": "bytes",
          "name": "payload",
          "type": "bytes"
        },
        {
          "internalType": "bytes[]",
          "name": "",
          "type": "bytes[]"
        },
        {
          "internalType": "bytes32",
          "name": "sourceAddress",
          "type": "bytes32"
        },
        {
          "internalType": "uint16",
          "name": "sourceChain",
          "type": "uint16"
        },
        {
          "internalType": "bytes32",
          "name": "",
          "type": "bytes32"
        }
      ],
      "name": "receiveWormholeMessages",
      "outputs": [],
      "stateMutability": "payable",
      "type": "function"
    },
    {
      "inputs": [],
      "name": "s_lastContractToBeCalled",
      "outputs": [
        {
          "internalType": "address",
          "name": "",
          "type": "address"
        }
      ],
      "stateMutability": "view",
      "type": "function"
    },
    {
      "inputs": [],
      "name": "s_lastEncodedFunctionCall",
      "outputs": [
        {
          "internalType": "bytes",
          "name": "",
          "type": "bytes"
        }
      ],
      "stateMutability": "view",
      "type": "function"
    },
    {
      "inputs": [],
      "name": "s_lastSender",
      "outputs": [
        {
          "internalType": "address",
          "name": "",
          "type": "address"
        }
      ],
      "stateMutability": "view",
      "type": "function"
    },
    {
      "inputs": [],
      "name": "s_payload",
      "outputs": [
        {
          "internalType": "bytes",
          "name": "",
          "type": "bytes"
        }
      ],
      "stateMutability": "view",
      "type": "function"
    },
    {
      "inputs": [
        {
          "internalType": "uint16",
          "name": "",
          "type": "uint16"
        }
      ],
      "name": "s_registeredSenders",
      "outputs": [
        {
          "internalType": "bytes32",
          "name": "",
          "type": "bytes32"
        }
      ],
      "stateMutability": "view",
      "type": "function"
    },
    {
      "inputs": [],
      "name": "s_registrationOwner",
      "outputs": [
        {
          "internalType": "address",
          "name": "",
          "type": "address"
        }
      ],
      "stateMutability": "view",
      "type": "function"
    },
    {
      "inputs": [],
      "name": "s_sourceAddress",
      "outputs": [
        {
          "internalType": "bytes32",
          "name": "",
          "type": "bytes32"
        }
      ],
      "stateMutability": "view",
      "type": "function"
    },
    {
      "inputs": [],
      "name": "s_wormholeRelayer",
      "outputs": [
        {
          "internalType": "contract IWormholeRelayer",
          "name": "",
          "type": "address"
        }
      ],
      "stateMutability": "view",
      "type": "function"
    },
    {
      "inputs": [
        {
          "internalType": "uint16",
          "name": "sourceChain",
          "type": "uint16"
        },
        {
          "internalType": "bytes32",
          "name": "sourceAddress",
          "type": "bytes32"
        }
      ],
      "name": "setRegisteredSender",
      "outputs": [],
      "stateMutability": "nonpayable",
      "type": "function"
    },
    {
      "inputs": [],
      "name": "withdraw",
      "outputs": [],
      "stateMutability": "nonpayable",
      "type": "function"
    }
  ],
  "bytecode": "0x608060405234801561001057600080fd5b506040516117fe3803806117fe8339818101604052810190610032919061011c565b806000806101000a81548173ffffffffffffffffffffffffffffffffffffffff021916908373ffffffffffffffffffffffffffffffffffffffff16021790555033600160006101000a81548173ffffffffffffffffffffffffffffffffffffffff021916908373ffffffffffffffffffffffffffffffffffffffff16021790555050610149565b600080fd5b600073ffffffffffffffffffffffffffffffffffffffff82169050919050565b60006100e9826100be565b9050919050565b6100f9816100de565b811461010457600080fd5b50565b600081519050610116816100f0565b92915050565b600060208284031215610132576101316100b9565b5b600061014084828501610107565b91505092915050565b6116a6806101586000396000f3fe60806040526004361061009c5760003560e01c80635bb60dc0116100645780635bb60dc014610155578063890bd8ad14610180578063ca818f89146101ab578063d5f6297f146101d6578063dd12d68b14610213578063f452ca721461023c5761009c565b80632277d3ae146100a15780632a31f241146100cc5780633ccfd60b146100f75780634f91330e1461010e578063529dca3214610139575b600080fd5b3480156100ad57600080fd5b506100b6610267565b6040516100c391906109b7565b60405180910390f35b3480156100d857600080fd5b506100e161028d565b6040516100ee91906109b7565b60405180910390f35b34801561010357600080fd5b5061010c6102b3565b005b34801561011a57600080fd5b50610123610423565b6040516101309190610a62565b60405180910390f35b610153600480360381019061014e9190610d23565b6104b1565b005b34801561016157600080fd5b5061016a610793565b6040516101779190610e35565b60405180910390f35b34801561018c57600080fd5b506101956107b7565b6040516101a29190610a62565b60405180910390f35b3480156101b757600080fd5b506101c0610845565b6040516101cd9190610e5f565b60405180910390f35b3480156101e257600080fd5b506101fd60048036038101906101f89190610e7a565b61084b565b60405161020a9190610e5f565b60405180910390f35b34801561021f57600080fd5b5061023a60048036038101906102359190610ea7565b610863565b005b34801561024857600080fd5b50610251610950565b60405161025e91906109b7565b60405180910390f35b600160009054906101000a900473ffffffffffffffffffffffffffffffffffffffff1681565b600560009054906101000a900473ffffffffffffffffffffffffffffffffffffffff1681565b600160009054906101000a900473ffffffffffffffffffffffffffffffffffffffff1673ffffffffffffffffffffffffffffffffffffffff163373ffffffffffffffffffffffffffffffffffffffff1614610343576040517f08c379a000000000000000000000000000000000000000000000000000000000815260040161033a90610f6a565b60405180910390fd5b60004790506000811161038b576040517f08c379a000000000000000000000000000000000000000000000000000000000815260040161038290610fd6565b60405180910390fd5b3373ffffffffffffffffffffffffffffffffffffffff166108fc829081150290604051600060405180830381858888f193505050501580156103d1573d6000803e3d6000fd5b503373ffffffffffffffffffffffffffffffffffffffff167f884edad9ce6fa2440d8a54cc123490eb96d2768479d49ff9c7366125a942436482604051610418919061100f565b60405180910390a250565b6004805461043090611059565b80601f016020809104026020016040519081016040528092919081815260200182805461045c90611059565b80156104a95780601f1061047e576101008083540402835291602001916104a9565b820191906000526020600020905b81548152906001019060200180831161048c57829003601f168201915b505050505081565b818380600760008461ffff1661ffff1681526020019081526020016000205414610510576040517f08c379a0000000000000000000000000000000000000000000000000000000008152600401610507906110d6565b60405180910390fd5b60008054906101000a900473ffffffffffffffffffffffffffffffffffffffff1673ffffffffffffffffffffffffffffffffffffffff163373ffffffffffffffffffffffffffffffffffffffff161461059e576040517f08c379a000000000000000000000000000000000000000000000000000000000815260040161059590611168565b60405180910390fd5b86600290816105ad919061132a565b507f77e3e724b03e55e5ad9e86363a3d566079ef39090c5961cbb68c5edd353e651785886040516105df9291906113fc565b60405180910390a160008060008980602001905181019061060091906114da565b92509250925081600360006101000a81548173ffffffffffffffffffffffffffffffffffffffff021916908373ffffffffffffffffffffffffffffffffffffffff1602179055508060049081610656919061132a565b5082600560006101000a81548173ffffffffffffffffffffffffffffffffffffffff021916908373ffffffffffffffffffffffffffffffffffffffff1602179055508760068190555060008373ffffffffffffffffffffffffffffffffffffffff1634836040516106c79190611585565b60006040518083038185875af1925050503d8060008114610704576040519150601f19603f3d011682016040523d82523d6000602084013e610709565b606091505b505090508061074c577f5ed95ef803f77d10f65e089de8b7058e25192b4b3435ab5ba620c5af6167dbd860405161073f906115e8565b60405180910390a1610786565b7f8330397d1741789a83c8af0a6952d33b1c5340d05ddd772be57e25dafacdb51c848360405161077d929190611608565b60405180910390a15b5050505050505050505050565b60008054906101000a900473ffffffffffffffffffffffffffffffffffffffff1681565b600280546107c490611059565b80601f01602080910402602001604051908101604052809291908181526020018280546107f090611059565b801561083d5780601f106108125761010080835404028352916020019161083d565b820191906000526020600020905b81548152906001019060200180831161082057829003601f168201915b505050505081565b60065481565b60076020528060005260406000206000915090505481565b600160009054906101000a900473ffffffffffffffffffffffffffffffffffffffff1673ffffffffffffffffffffffffffffffffffffffff163373ffffffffffffffffffffffffffffffffffffffff16146108f3576040517f08c379a00000000000000000000000000000000000000000000000000000000081526004016108ea90610f6a565b60405180910390fd5b80600760008461ffff1661ffff168152602001908152602001600020819055507f1042215c906c4f298080457b6ca52368f97c2627acd368055d7c3576876d48828282604051610944929190611647565b60405180910390a15050565b600360009054906101000a900473ffffffffffffffffffffffffffffffffffffffff1681565b600073ffffffffffffffffffffffffffffffffffffffff82169050919050565b60006109a182610976565b9050919050565b6109b181610996565b82525050565b60006020820190506109cc60008301846109a8565b92915050565b600081519050919050565b600082825260208201905092915050565b60005b83811015610a0c5780820151818401526020810190506109f1565b60008484015250505050565b6000601f19601f8301169050919050565b6000610a34826109d2565b610a3e81856109dd565b9350610a4e8185602086016109ee565b610a5781610a18565b840191505092915050565b60006020820190508181036000830152610a7c8184610a29565b905092915050565b6000604051905090565b600080fd5b600080fd5b600080fd5b600080fd5b7f4e487b7100000000000000000000000000000000000000000000000000000000600052604160045260246000fd5b610ada82610a18565b810181811067ffffffffffffffff82111715610af957610af8610aa2565b5b80604052505050565b6000610b0c610a84565b9050610b188282610ad1565b919050565b600067ffffffffffffffff821115610b3857610b37610aa2565b5b610b4182610a18565b9050602081019050919050565b82818337600083830152505050565b6000610b70610b6b84610b1d565b610b02565b905082815260208101848484011115610b8c57610b8b610a9d565b5b610b97848285610b4e565b509392505050565b600082601f830112610bb457610bb3610a98565b5b8135610bc4848260208601610b5d565b91505092915050565b600067ffffffffffffffff821115610be857610be7610aa2565b5b602082029050602081019050919050565b600080fd5b6000610c11610c0c84610bcd565b610b02565b90508083825260208201905060208402830185811115610c3457610c33610bf9565b5b835b81811015610c7b57803567ffffffffffffffff811115610c5957610c58610a98565b5b808601610c668982610b9f565b85526020850194505050602081019050610c36565b5050509392505050565b600082601f830112610c9a57610c99610a98565b5b8135610caa848260208601610bfe565b91505092915050565b6000819050919050565b610cc681610cb3565b8114610cd157600080fd5b50565b600081359050610ce381610cbd565b92915050565b600061ffff82169050919050565b610d0081610ce9565b8114610d0b57600080fd5b50565b600081359050610d1d81610cf7565b92915050565b600080600080600060a08688031215610d3f57610d3e610a8e565b5b600086013567ffffffffffffffff811115610d5d57610d5c610a93565b5b610d6988828901610b9f565b955050602086013567ffffffffffffffff811115610d8a57610d89610a93565b5b610d9688828901610c85565b9450506040610da788828901610cd4565b9350506060610db888828901610d0e565b9250506080610dc988828901610cd4565b9150509295509295909350565b6000819050919050565b6000610dfb610df6610df184610976565b610dd6565b610976565b9050919050565b6000610e0d82610de0565b9050919050565b6000610e1f82610e02565b9050919050565b610e2f81610e14565b82525050565b6000602082019050610e4a6000830184610e26565b92915050565b610e5981610cb3565b82525050565b6000602082019050610e746000830184610e50565b92915050565b600060208284031215610e9057610e8f610a8e565b5b6000610e9e84828501610d0e565b91505092915050565b60008060408385031215610ebe57610ebd610a8e565b5b6000610ecc85828601610d0e565b9250506020610edd85828601610cd4565b9150509250929050565b600082825260208201905092915050565b7f4f6e6c7920746865206f776e65722063616e2063616c6c20746869732066756e60008201527f6374696f6e000000000000000000000000000000000000000000000000000000602082015250565b6000610f54602583610ee7565b9150610f5f82610ef8565b604082019050919050565b60006020820190508181036000830152610f8381610f47565b9050919050565b7f4e6f2062616c616e636520746f20776974686472617700000000000000000000600082015250565b6000610fc0601683610ee7565b9150610fcb82610f8a565b602082019050919050565b60006020820190508181036000830152610fef81610fb3565b9050919050565b6000819050919050565b61100981610ff6565b82525050565b60006020820190506110246000830184611000565b92915050565b7f4e487b7100000000000000000000000000000000000000000000000000000000600052602260045260246000fd5b6000600282049050600182168061107157607f821691505b6020821081036110845761108361102a565b5b50919050565b7f53656e646572206e6f7420726567697374657265640000000000000000000000600082015250565b60006110c0601583610ee7565b91506110cb8261108a565b602082019050919050565b600060208201905081810360008301526110ef816110b3565b9050919050565b7f4f6e6c792074686520576f726d686f6c652052656c617965722063616e20636160008201527f6c6c20746869732066756e6374696f6e00000000000000000000000000000000602082015250565b6000611152603083610ee7565b915061115d826110f6565b604082019050919050565b6000602082019050818103600083015261118181611145565b9050919050565b60008190508160005260206000209050919050565b60006020601f8301049050919050565b600082821b905092915050565b6000600883026111ea7fffffffffffffffffffffffffffffffffffffffffffffffffffffffffffffffff826111ad565b6111f486836111ad565b95508019841693508086168417925050509392505050565b600061122761122261121d84610ff6565b610dd6565b610ff6565b9050919050565b6000819050919050565b6112418361120c565b61125561124d8261122e565b8484546111ba565b825550505050565b600090565b61126a61125d565b611275818484611238565b505050565b5b818110156112995761128e600082611262565b60018101905061127b565b5050565b601f8211156112de576112af81611188565b6112b88461119d565b810160208510156112c7578190505b6112db6112d38561119d565b83018261127a565b50505b505050565b600082821c905092915050565b6000611301600019846008026112e3565b1980831691505092915050565b600061131a83836112f0565b9150826002028217905092915050565b611333826109d2565b67ffffffffffffffff81111561134c5761134b610aa2565b5b6113568254611059565b61136182828561129d565b600060209050601f8311600181146113945760008415611382578287015190505b61138c858261130e565b8655506113f4565b601f1984166113a286611188565b60005b828110156113ca578489015182556001820191506020850194506020810190506113a5565b868310156113e757848901516113e3601f8916826112f0565b8355505b6001600288020188555050505b505050505050565b60006040820190506114116000830185610e50565b81810360208301526114238184610a29565b90509392505050565b600061143782610976565b9050919050565b6114478161142c565b811461145257600080fd5b50565b6000815190506114648161143e565b92915050565b600061147d61147884610b1d565b610b02565b90508281526020810184848401111561149957611498610a9d565b5b6114a48482856109ee565b509392505050565b600082601f8301126114c1576114c0610a98565b5b81516114d184826020860161146a565b91505092915050565b6000806000606084860312156114f3576114f2610a8e565b5b600061150186828701611455565b935050602061151286828701611455565b925050604084015167ffffffffffffffff81111561153357611532610a93565b5b61153f868287016114ac565b9150509250925092565b600081905092915050565b600061155f826109d2565b6115698185611549565b93506115798185602086016109ee565b80840191505092915050565b60006115918284611554565b915081905092915050565b7f4572726f7220657865637574696e672066756e6374696f6e2063616c6c000000600082015250565b60006115d2601d83610ee7565b91506115dd8261159c565b602082019050919050565b60006020820190508181036000830152611601816115c5565b9050919050565b600060408201905061161d60008301856109a8565b818103602083015261162f8184610a29565b90509392505050565b61164181610ce9565b82525050565b600060408201905061165c6000830185611638565b6116696020830184610e50565b939250505056fea264697066735822122061f0e7c6c956ac7a56388a2eaf2e744e8a0d5f1ccf826950d78f5f96627c727b64736f6c63430008190033",
  "linkReferences": {},
  "deployedLinkReferences": {}
}