{
  "_format": "hh-sol-artifact-1",
  "contractName": "SL1MessageAnyReceiver",
  "sourceName": "contracts/wormhole/SL1MessageAnyReceiver.sol",
  "abi": [
    {
      "inputs": [
        {
          "internalType": "address",
          "name": "_wormholeRelayer",
          "type": "address"
        }
      ],
      "stateMutability": "nonpayable",
      "type": "constructor"
    },
    {
      "anonymous": false,
      "inputs": [
        {
          "indexed": false,
          "internalType": "bytes32",
          "name": "sourceAddress",
          "type": "bytes32"
        },
        {
          "indexed": false,
          "internalType": "bytes",
          "name": "payload",
          "type": "bytes"
        }
      ],
      "name": "MessageInfoReceived",
      "type": "event"
    },
    {
      "anonymous": false,
      "inputs": [
        {
          "indexed": false,
          "internalType": "string",
          "name": "message",
          "type": "string"
        }
      ],
      "name": "MessageReceived",
      "type": "event"
    },
    {
      "anonymous": false,
      "inputs": [
        {
          "indexed": false,
          "internalType": "uint16",
          "name": "sourceChain",
          "type": "uint16"
        },
        {
          "indexed": false,
          "internalType": "address",
          "name": "sender",
          "type": "address"
        }
      ],
      "name": "SourceChainLogged",
      "type": "event"
    },
    {
      "inputs": [
        {
          "internalType": "bytes",
          "name": "payload",
          "type": "bytes"
        },
        {
          "internalType": "bytes[]",
          "name": "",
          "type": "bytes[]"
        },
        {
          "internalType": "bytes32",
          "name": "sourceAddress",
          "type": "bytes32"
        },
        {
          "internalType": "uint16",
          "name": "sourceChain",
          "type": "uint16"
        },
        {
          "internalType": "bytes32",
          "name": "",
          "type": "bytes32"
        }
      ],
      "name": "receiveWormholeMessages",
      "outputs": [],
      "stateMutability": "payable",
      "type": "function"
    },
    {
      "inputs": [],
      "name": "s_lastMessage",
      "outputs": [
        {
          "internalType": "string",
          "name": "",
          "type": "string"
        }
      ],
      "stateMutability": "view",
      "type": "function"
    },
    {
      "inputs": [],
      "name": "s_lastSender",
      "outputs": [
        {
          "internalType": "address",
          "name": "",
          "type": "address"
        }
      ],
      "stateMutability": "view",
      "type": "function"
    },
    {
      "inputs": [],
      "name": "s_lastSourceAddress",
      "outputs": [
        {
          "internalType": "bytes32",
          "name": "",
          "type": "bytes32"
        }
      ],
      "stateMutability": "view",
      "type": "function"
    },
    {
      "inputs": [],
      "name": "s_lastSourceChain",
      "outputs": [
        {
          "internalType": "uint16",
          "name": "",
          "type": "uint16"
        }
      ],
      "stateMutability": "view",
      "type": "function"
    },
    {
      "inputs": [],
      "name": "s_payload",
      "outputs": [
        {
          "internalType": "bytes",
          "name": "",
          "type": "bytes"
        }
      ],
      "stateMutability": "view",
      "type": "function"
    },
    {
      "inputs": [
        {
          "internalType": "uint16",
          "name": "",
          "type": "uint16"
        }
      ],
      "name": "s_registeredSenders",
      "outputs": [
        {
          "internalType": "bytes32",
          "name": "",
          "type": "bytes32"
        }
      ],
      "stateMutability": "view",
      "type": "function"
    },
    {
      "inputs": [],
      "name": "s_registrationOwner",
      "outputs": [
        {
          "internalType": "address",
          "name": "",
          "type": "address"
        }
      ],
      "stateMutability": "view",
      "type": "function"
    },
    {
      "inputs": [],
      "name": "s_wormholeRelayer",
      "outputs": [
        {
          "internalType": "contract IWormholeRelayer",
          "name": "",
          "type": "address"
        }
      ],
      "stateMutability": "view",
      "type": "function"
    },
    {
      "inputs": [
        {
          "internalType": "uint16",
          "name": "sourceChain",
          "type": "uint16"
        },
        {
          "internalType": "bytes32",
          "name": "sourceAddress",
          "type": "bytes32"
        }
      ],
      "name": "setRegisteredSender",
      "outputs": [],
      "stateMutability": "nonpayable",
      "type": "function"
    }
  ],
  "bytecode": "0x608060405234801561001057600080fd5b506040516112b43803806112b48339818101604052810190610032919061011c565b806000806101000a81548173ffffffffffffffffffffffffffffffffffffffff021916908373ffffffffffffffffffffffffffffffffffffffff16021790555033600160006101000a81548173ffffffffffffffffffffffffffffffffffffffff021916908373ffffffffffffffffffffffffffffffffffffffff16021790555050610149565b600080fd5b600073ffffffffffffffffffffffffffffffffffffffff82169050919050565b60006100e9826100be565b9050919050565b6100f9816100de565b811461010457600080fd5b50565b600081519050610116816100f0565b92915050565b600060208284031215610132576101316100b9565b5b600061014084828501610107565b91505092915050565b61115c806101586000396000f3fe6080604052600436106100915760003560e01c8063b5d5f0d411610059578063b5d5f0d41461015e578063b91fe3db14610189578063d5f6297f146101b4578063dd12d68b146101f1578063f452ca721461021a57610091565b80631006e55d146100965780632277d3ae146100c1578063529dca32146100ec5780635bb60dc014610108578063890bd8ad14610133575b600080fd5b3480156100a257600080fd5b506100ab610245565b6040516100b891906105cc565b60405180910390f35b3480156100cd57600080fd5b506100d66102d3565b6040516100e3919061062f565b60405180910390f35b610106600480360381019061010191906108e9565b6102f9565b005b34801561011457600080fd5b5061011d61037e565b60405161012a91906109fb565b60405180910390f35b34801561013f57600080fd5b506101486103a2565b6040516101559190610a6b565b60405180910390f35b34801561016a57600080fd5b50610173610430565b6040516101809190610a9c565b60405180910390f35b34801561019557600080fd5b5061019e610436565b6040516101ab9190610ac6565b60405180910390f35b3480156101c057600080fd5b506101db60048036038101906101d69190610ae1565b61044a565b6040516101e89190610a9c565b60405180910390f35b3480156101fd57600080fd5b5061021860048036038101906102139190610b0e565b610462565b005b34801561022657600080fd5b5061022f610516565b60405161023c919061062f565b60405180910390f35b6003805461025290610b7d565b80601f016020809104026020016040519081016040528092919081815260200182805461027e90610b7d565b80156102cb5780601f106102a0576101008083540402835291602001916102cb565b820191906000526020600020905b8154815290600101906020018083116102ae57829003601f168201915b505050505081565b600160009054906101000a900473ffffffffffffffffffffffffffffffffffffffff1681565b84600290816103089190610d5a565b50600080868060200190518101906103209190610f0b565b9150915081600390816103339190610fc2565b5080600460006101000a81548173ffffffffffffffffffffffffffffffffffffffff021916908373ffffffffffffffffffffffffffffffffffffffff16021790555050505050505050565b60008054906101000a900473ffffffffffffffffffffffffffffffffffffffff1681565b600280546103af90610b7d565b80601f01602080910402602001604051908101604052809291908181526020018280546103db90610b7d565b80156104285780601f106103fd57610100808354040283529160200191610428565b820191906000526020600020905b81548152906001019060200180831161040b57829003601f168201915b505050505081565b60055481565b600660009054906101000a900461ffff1681565b60076020528060005260406000206000915090505481565b600160009054906101000a900473ffffffffffffffffffffffffffffffffffffffff1673ffffffffffffffffffffffffffffffffffffffff163373ffffffffffffffffffffffffffffffffffffffff16146104f2576040517f08c379a00000000000000000000000000000000000000000000000000000000081526004016104e990611106565b60405180910390fd5b80600760008461ffff1661ffff168152602001908152602001600020819055505050565b600460009054906101000a900473ffffffffffffffffffffffffffffffffffffffff1681565b600081519050919050565b600082825260208201905092915050565b60005b8381101561057657808201518184015260208101905061055b565b60008484015250505050565b6000601f19601f8301169050919050565b600061059e8261053c565b6105a88185610547565b93506105b8818560208601610558565b6105c181610582565b840191505092915050565b600060208201905081810360008301526105e68184610593565b905092915050565b600073ffffffffffffffffffffffffffffffffffffffff82169050919050565b6000610619826105ee565b9050919050565b6106298161060e565b82525050565b60006020820190506106446000830184610620565b92915050565b6000604051905090565b600080fd5b600080fd5b600080fd5b600080fd5b7f4e487b7100000000000000000000000000000000000000000000000000000000600052604160045260246000fd5b6106a082610582565b810181811067ffffffffffffffff821117156106bf576106be610668565b5b80604052505050565b60006106d261064a565b90506106de8282610697565b919050565b600067ffffffffffffffff8211156106fe576106fd610668565b5b61070782610582565b9050602081019050919050565b82818337600083830152505050565b6000610736610731846106e3565b6106c8565b90508281526020810184848401111561075257610751610663565b5b61075d848285610714565b509392505050565b600082601f83011261077a5761077961065e565b5b813561078a848260208601610723565b91505092915050565b600067ffffffffffffffff8211156107ae576107ad610668565b5b602082029050602081019050919050565b600080fd5b60006107d76107d284610793565b6106c8565b905080838252602082019050602084028301858111156107fa576107f96107bf565b5b835b8181101561084157803567ffffffffffffffff81111561081f5761081e61065e565b5b80860161082c8982610765565b855260208501945050506020810190506107fc565b5050509392505050565b600082601f8301126108605761085f61065e565b5b81356108708482602086016107c4565b91505092915050565b6000819050919050565b61088c81610879565b811461089757600080fd5b50565b6000813590506108a981610883565b92915050565b600061ffff82169050919050565b6108c6816108af565b81146108d157600080fd5b50565b6000813590506108e3816108bd565b92915050565b600080600080600060a0868803121561090557610904610654565b5b600086013567ffffffffffffffff81111561092357610922610659565b5b61092f88828901610765565b955050602086013567ffffffffffffffff8111156109505761094f610659565b5b61095c8882890161084b565b945050604061096d8882890161089a565b935050606061097e888289016108d4565b925050608061098f8882890161089a565b9150509295509295909350565b6000819050919050565b60006109c16109bc6109b7846105ee565b61099c565b6105ee565b9050919050565b60006109d3826109a6565b9050919050565b60006109e5826109c8565b9050919050565b6109f5816109da565b82525050565b6000602082019050610a1060008301846109ec565b92915050565b600081519050919050565b600082825260208201905092915050565b6000610a3d82610a16565b610a478185610a21565b9350610a57818560208601610558565b610a6081610582565b840191505092915050565b60006020820190508181036000830152610a858184610a32565b905092915050565b610a9681610879565b82525050565b6000602082019050610ab16000830184610a8d565b92915050565b610ac0816108af565b82525050565b6000602082019050610adb6000830184610ab7565b92915050565b600060208284031215610af757610af6610654565b5b6000610b05848285016108d4565b91505092915050565b60008060408385031215610b2557610b24610654565b5b6000610b33858286016108d4565b9250506020610b448582860161089a565b9150509250929050565b7f4e487b7100000000000000000000000000000000000000000000000000000000600052602260045260246000fd5b60006002820490506001821680610b9557607f821691505b602082108103610ba857610ba7610b4e565b5b50919050565b60008190508160005260206000209050919050565b60006020601f8301049050919050565b600082821b905092915050565b600060088302610c107fffffffffffffffffffffffffffffffffffffffffffffffffffffffffffffffff82610bd3565b610c1a8683610bd3565b95508019841693508086168417925050509392505050565b6000819050919050565b6000610c57610c52610c4d84610c32565b61099c565b610c32565b9050919050565b6000819050919050565b610c7183610c3c565b610c85610c7d82610c5e565b848454610be0565b825550505050565b600090565b610c9a610c8d565b610ca5818484610c68565b505050565b5b81811015610cc957610cbe600082610c92565b600181019050610cab565b5050565b601f821115610d0e57610cdf81610bae565b610ce884610bc3565b81016020851015610cf7578190505b610d0b610d0385610bc3565b830182610caa565b50505b505050565b600082821c905092915050565b6000610d3160001984600802610d13565b1980831691505092915050565b6000610d4a8383610d20565b9150826002028217905092915050565b610d6382610a16565b67ffffffffffffffff811115610d7c57610d7b610668565b5b610d868254610b7d565b610d91828285610ccd565b600060209050601f831160018114610dc45760008415610db2578287015190505b610dbc8582610d3e565b865550610e24565b601f198416610dd286610bae565b60005b82811015610dfa57848901518255600182019150602085019450602081019050610dd5565b86831015610e175784890151610e13601f891682610d20565b8355505b6001600288020188555050505b505050505050565b600067ffffffffffffffff821115610e4757610e46610668565b5b610e5082610582565b9050602081019050919050565b6000610e70610e6b84610e2c565b6106c8565b905082815260208101848484011115610e8c57610e8b610663565b5b610e97848285610558565b509392505050565b600082601f830112610eb457610eb361065e565b5b8151610ec4848260208601610e5d565b91505092915050565b6000610ed8826105ee565b9050919050565b610ee881610ecd565b8114610ef357600080fd5b50565b600081519050610f0581610edf565b92915050565b60008060408385031215610f2257610f21610654565b5b600083015167ffffffffffffffff811115610f4057610f3f610659565b5b610f4c85828601610e9f565b9250506020610f5d85828601610ef6565b9150509250929050565b60008190508160005260206000209050919050565b601f821115610fbd57610f8e81610f67565b610f9784610bc3565b81016020851015610fa6578190505b610fba610fb285610bc3565b830182610caa565b50505b505050565b610fcb8261053c565b67ffffffffffffffff811115610fe457610fe3610668565b5b610fee8254610b7d565b610ff9828285610f7c565b600060209050601f83116001811461102c576000841561101a578287015190505b6110248582610d3e565b86555061108c565b601f19841661103a86610f67565b60005b828110156110625784890151825560018201915060208501945060208101905061103d565b8683101561107f578489015161107b601f891682610d20565b8355505b6001600288020188555050505b505050505050565b7f4f6e6c792074686520726567697374726174696f6e206f776e65722063616e2060008201527f736574207468652073656e646572000000000000000000000000000000000000602082015250565b60006110f0602e83610547565b91506110fb82611094565b604082019050919050565b6000602082019050818103600083015261111f816110e3565b905091905056fea26469706673582212203423a55220b6fa1240414b4692c00bf03ef06a6090a71f53ce5202eb481327c964736f6c63430008190033",
  "linkReferences": {},
  "deployedLinkReferences": {}
}