{
  "_format": "hh-sol-artifact-1",
  "contractName": "SL1MessageReceiver",
  "sourceName": "contracts/wormhole/SL1MessageReceiver.sol",
  "abi": [
    {
      "inputs": [
        {
          "internalType": "address",
          "name": "_wormholeRelayer",
          "type": "address"
        }
      ],
      "stateMutability": "nonpayable",
      "type": "constructor"
    },
    {
      "anonymous": false,
      "inputs": [
        {
          "indexed": false,
          "internalType": "bytes32",
          "name": "sourceAddress",
          "type": "bytes32"
        },
        {
          "indexed": false,
          "internalType": "bytes",
          "name": "payload",
          "type": "bytes"
        }
      ],
      "name": "MessageInfoReceived",
      "type": "event"
    },
    {
      "anonymous": false,
      "inputs": [
        {
          "indexed": false,
          "internalType": "string",
          "name": "message",
          "type": "string"
        }
      ],
      "name": "MessageReceived",
      "type": "event"
    },
    {
      "anonymous": false,
      "inputs": [
        {
          "indexed": false,
          "internalType": "uint16",
          "name": "sourceChain",
          "type": "uint16"
        },
        {
          "indexed": false,
          "internalType": "address",
          "name": "sender",
          "type": "address"
        }
      ],
      "name": "SourceChainLogged",
      "type": "event"
    },
    {
      "inputs": [
        {
          "internalType": "bytes",
          "name": "payload",
          "type": "bytes"
        },
        {
          "internalType": "bytes[]",
          "name": "",
          "type": "bytes[]"
        },
        {
          "internalType": "bytes32",
          "name": "sourceAddress",
          "type": "bytes32"
        },
        {
          "internalType": "uint16",
          "name": "sourceChain",
          "type": "uint16"
        },
        {
          "internalType": "bytes32",
          "name": "",
          "type": "bytes32"
        }
      ],
      "name": "receiveWormholeMessages",
      "outputs": [],
      "stateMutability": "payable",
      "type": "function"
    },
    {
      "inputs": [],
      "name": "s_lastContractToBeCalled",
      "outputs": [
        {
          "internalType": "address",
          "name": "",
          "type": "address"
        }
      ],
      "stateMutability": "view",
      "type": "function"
    },
    {
      "inputs": [],
      "name": "s_lastEncodedFunctionCall",
      "outputs": [
        {
          "internalType": "bytes",
          "name": "",
          "type": "bytes"
        }
      ],
      "stateMutability": "view",
      "type": "function"
    },
    {
      "inputs": [],
      "name": "s_lastSender",
      "outputs": [
        {
          "internalType": "address",
          "name": "",
          "type": "address"
        }
      ],
      "stateMutability": "view",
      "type": "function"
    },
    {
      "inputs": [],
      "name": "s_payload",
      "outputs": [
        {
          "internalType": "bytes",
          "name": "",
          "type": "bytes"
        }
      ],
      "stateMutability": "view",
      "type": "function"
    },
    {
      "inputs": [
        {
          "internalType": "uint16",
          "name": "",
          "type": "uint16"
        }
      ],
      "name": "s_registeredSenders",
      "outputs": [
        {
          "internalType": "bytes32",
          "name": "",
          "type": "bytes32"
        }
      ],
      "stateMutability": "view",
      "type": "function"
    },
    {
      "inputs": [],
      "name": "s_registrationOwner",
      "outputs": [
        {
          "internalType": "address",
          "name": "",
          "type": "address"
        }
      ],
      "stateMutability": "view",
      "type": "function"
    },
    {
      "inputs": [],
      "name": "s_wormholeRelayer",
      "outputs": [
        {
          "internalType": "contract IWormholeRelayer",
          "name": "",
          "type": "address"
        }
      ],
      "stateMutability": "view",
      "type": "function"
    },
    {
      "inputs": [
        {
          "internalType": "uint16",
          "name": "sourceChain",
          "type": "uint16"
        },
        {
          "internalType": "bytes32",
          "name": "sourceAddress",
          "type": "bytes32"
        }
      ],
      "name": "setRegisteredSender",
      "outputs": [],
      "stateMutability": "nonpayable",
      "type": "function"
    }
  ],
  "bytecode": "0x608060405234801561001057600080fd5b506040516110f53803806110f58339818101604052810190610032919061011c565b806000806101000a81548173ffffffffffffffffffffffffffffffffffffffff021916908373ffffffffffffffffffffffffffffffffffffffff16021790555033600160006101000a81548173ffffffffffffffffffffffffffffffffffffffff021916908373ffffffffffffffffffffffffffffffffffffffff16021790555050610149565b600080fd5b600073ffffffffffffffffffffffffffffffffffffffff82169050919050565b60006100e9826100be565b9050919050565b6100f9816100de565b811461010457600080fd5b50565b600081519050610116816100f0565b92915050565b600060208284031215610132576101316100b9565b5b600061014084828501610107565b91505092915050565b610f9d806101586000396000f3fe6080604052600436106100865760003560e01c80635bb60dc0116100595780635bb60dc014610128578063890bd8ad14610153578063d5f6297f1461017e578063dd12d68b146101bb578063f452ca72146101e457610086565b80632277d3ae1461008b5780632a31f241146100b65780634f91330e146100e1578063529dca321461010c575b600080fd5b34801561009757600080fd5b506100a061020f565b6040516100ad9190610599565b60405180910390f35b3480156100c257600080fd5b506100cb610235565b6040516100d89190610599565b60405180910390f35b3480156100ed57600080fd5b506100f661025b565b6040516101039190610644565b60405180910390f35b61012660048036038101906101219190610905565b6102e9565b005b34801561013457600080fd5b5061013d6103b4565b60405161014a9190610a17565b60405180910390f35b34801561015f57600080fd5b506101686103d8565b6040516101759190610644565b60405180910390f35b34801561018a57600080fd5b506101a560048036038101906101a09190610a32565b610466565b6040516101b29190610a6e565b60405180910390f35b3480156101c757600080fd5b506101e260048036038101906101dd9190610a89565b61047e565b005b3480156101f057600080fd5b506101f9610532565b6040516102069190610599565b60405180910390f35b600160009054906101000a900473ffffffffffffffffffffffffffffffffffffffff1681565b600560009054906101000a900473ffffffffffffffffffffffffffffffffffffffff1681565b6004805461026890610af8565b80601f016020809104026020016040519081016040528092919081815260200182805461029490610af8565b80156102e15780601f106102b6576101008083540402835291602001916102e1565b820191906000526020600020905b8154815290600101906020018083116102c457829003601f168201915b505050505081565b84600290816102f89190610cd5565b506000806000878060200190518101906103129190610e55565b92509250925081600360006101000a81548173ffffffffffffffffffffffffffffffffffffffff021916908373ffffffffffffffffffffffffffffffffffffffff16021790555080600490816103689190610cd5565b5082600560006101000a81548173ffffffffffffffffffffffffffffffffffffffff021916908373ffffffffffffffffffffffffffffffffffffffff1602179055505050505050505050565b60008054906101000a900473ffffffffffffffffffffffffffffffffffffffff1681565b600280546103e590610af8565b80601f016020809104026020016040519081016040528092919081815260200182805461041190610af8565b801561045e5780601f106104335761010080835404028352916020019161045e565b820191906000526020600020905b81548152906001019060200180831161044157829003601f168201915b505050505081565b60066020528060005260406000206000915090505481565b600160009054906101000a900473ffffffffffffffffffffffffffffffffffffffff1673ffffffffffffffffffffffffffffffffffffffff163373ffffffffffffffffffffffffffffffffffffffff161461050e576040517f08c379a000000000000000000000000000000000000000000000000000000000815260040161050590610f47565b60405180910390fd5b80600660008461ffff1661ffff168152602001908152602001600020819055505050565b600360009054906101000a900473ffffffffffffffffffffffffffffffffffffffff1681565b600073ffffffffffffffffffffffffffffffffffffffff82169050919050565b600061058382610558565b9050919050565b61059381610578565b82525050565b60006020820190506105ae600083018461058a565b92915050565b600081519050919050565b600082825260208201905092915050565b60005b838110156105ee5780820151818401526020810190506105d3565b60008484015250505050565b6000601f19601f8301169050919050565b6000610616826105b4565b61062081856105bf565b93506106308185602086016105d0565b610639816105fa565b840191505092915050565b6000602082019050818103600083015261065e818461060b565b905092915050565b6000604051905090565b600080fd5b600080fd5b600080fd5b600080fd5b7f4e487b7100000000000000000000000000000000000000000000000000000000600052604160045260246000fd5b6106bc826105fa565b810181811067ffffffffffffffff821117156106db576106da610684565b5b80604052505050565b60006106ee610666565b90506106fa82826106b3565b919050565b600067ffffffffffffffff82111561071a57610719610684565b5b610723826105fa565b9050602081019050919050565b82818337600083830152505050565b600061075261074d846106ff565b6106e4565b90508281526020810184848401111561076e5761076d61067f565b5b610779848285610730565b509392505050565b600082601f8301126107965761079561067a565b5b81356107a684826020860161073f565b91505092915050565b600067ffffffffffffffff8211156107ca576107c9610684565b5b602082029050602081019050919050565b600080fd5b60006107f36107ee846107af565b6106e4565b90508083825260208201905060208402830185811115610816576108156107db565b5b835b8181101561085d57803567ffffffffffffffff81111561083b5761083a61067a565b5b8086016108488982610781565b85526020850194505050602081019050610818565b5050509392505050565b600082601f83011261087c5761087b61067a565b5b813561088c8482602086016107e0565b91505092915050565b6000819050919050565b6108a881610895565b81146108b357600080fd5b50565b6000813590506108c58161089f565b92915050565b600061ffff82169050919050565b6108e2816108cb565b81146108ed57600080fd5b50565b6000813590506108ff816108d9565b92915050565b600080600080600060a0868803121561092157610920610670565b5b600086013567ffffffffffffffff81111561093f5761093e610675565b5b61094b88828901610781565b955050602086013567ffffffffffffffff81111561096c5761096b610675565b5b61097888828901610867565b9450506040610989888289016108b6565b935050606061099a888289016108f0565b92505060806109ab888289016108b6565b9150509295509295909350565b6000819050919050565b60006109dd6109d86109d384610558565b6109b8565b610558565b9050919050565b60006109ef826109c2565b9050919050565b6000610a01826109e4565b9050919050565b610a11816109f6565b82525050565b6000602082019050610a2c6000830184610a08565b92915050565b600060208284031215610a4857610a47610670565b5b6000610a56848285016108f0565b91505092915050565b610a6881610895565b82525050565b6000602082019050610a836000830184610a5f565b92915050565b60008060408385031215610aa057610a9f610670565b5b6000610aae858286016108f0565b9250506020610abf858286016108b6565b9150509250929050565b7f4e487b7100000000000000000000000000000000000000000000000000000000600052602260045260246000fd5b60006002820490506001821680610b1057607f821691505b602082108103610b2357610b22610ac9565b5b50919050565b60008190508160005260206000209050919050565b60006020601f8301049050919050565b600082821b905092915050565b600060088302610b8b7fffffffffffffffffffffffffffffffffffffffffffffffffffffffffffffffff82610b4e565b610b958683610b4e565b95508019841693508086168417925050509392505050565b6000819050919050565b6000610bd2610bcd610bc884610bad565b6109b8565b610bad565b9050919050565b6000819050919050565b610bec83610bb7565b610c00610bf882610bd9565b848454610b5b565b825550505050565b600090565b610c15610c08565b610c20818484610be3565b505050565b5b81811015610c4457610c39600082610c0d565b600181019050610c26565b5050565b601f821115610c8957610c5a81610b29565b610c6384610b3e565b81016020851015610c72578190505b610c86610c7e85610b3e565b830182610c25565b50505b505050565b600082821c905092915050565b6000610cac60001984600802610c8e565b1980831691505092915050565b6000610cc58383610c9b565b9150826002028217905092915050565b610cde826105b4565b67ffffffffffffffff811115610cf757610cf6610684565b5b610d018254610af8565b610d0c828285610c48565b600060209050601f831160018114610d3f5760008415610d2d578287015190505b610d378582610cb9565b865550610d9f565b601f198416610d4d86610b29565b60005b82811015610d7557848901518255600182019150602085019450602081019050610d50565b86831015610d925784890151610d8e601f891682610c9b565b8355505b6001600288020188555050505b505050505050565b6000610db282610558565b9050919050565b610dc281610da7565b8114610dcd57600080fd5b50565b600081519050610ddf81610db9565b92915050565b6000610df8610df3846106ff565b6106e4565b905082815260208101848484011115610e1457610e1361067f565b5b610e1f8482856105d0565b509392505050565b600082601f830112610e3c57610e3b61067a565b5b8151610e4c848260208601610de5565b91505092915050565b600080600060608486031215610e6e57610e6d610670565b5b6000610e7c86828701610dd0565b9350506020610e8d86828701610dd0565b925050604084015167ffffffffffffffff811115610eae57610ead610675565b5b610eba86828701610e27565b9150509250925092565b600082825260208201905092915050565b7f4f6e6c792074686520726567697374726174696f6e206f776e65722063616e2060008201527f736574207468652073656e646572000000000000000000000000000000000000602082015250565b6000610f31602e83610ec4565b9150610f3c82610ed5565b604082019050919050565b60006020820190508181036000830152610f6081610f24565b905091905056fea2646970667358221220cb7ab2c431b1e21db014b216329a0e62de881b1a55dee4eb1cff640853db7e7064736f6c63430008190033",
  "linkReferences": {},
  "deployedLinkReferences": {}
}