{
  "_format": "hh-sol-artifact-1",
  "contractName": "SL1MessageReceiver",
  "sourceName": "contracts/wormhole/SL1MessageReceiver.sol",
  "abi": [
    {
      "inputs": [
        {
          "internalType": "address",
          "name": "_wormholeRelayer",
          "type": "address"
        }
      ],
      "stateMutability": "nonpayable",
      "type": "constructor"
    },
    {
      "anonymous": false,
      "inputs": [
        {
          "indexed": false,
          "internalType": "string",
          "name": "message",
          "type": "string"
        }
      ],
      "name": "FunctionCallError",
      "type": "event"
    },
    {
      "anonymous": false,
      "inputs": [
        {
          "indexed": false,
          "internalType": "address",
          "name": "contractToBeCalled",
          "type": "address"
        },
        {
          "indexed": false,
          "internalType": "bytes",
          "name": "encodedFunctionCall",
          "type": "bytes"
        }
      ],
      "name": "FunctionExecuted",
      "type": "event"
    },
    {
      "anonymous": false,
      "inputs": [
        {
          "indexed": false,
          "internalType": "bytes32",
          "name": "sourceAddress",
          "type": "bytes32"
        },
        {
          "indexed": false,
          "internalType": "bytes",
          "name": "payload",
          "type": "bytes"
        }
      ],
      "name": "MessageInfoReceived",
      "type": "event"
    },
    {
      "anonymous": false,
      "inputs": [
        {
          "indexed": false,
          "internalType": "uint16",
          "name": "sourceChain",
          "type": "uint16"
        },
        {
          "indexed": false,
          "internalType": "bytes32",
          "name": "sourceAddress",
          "type": "bytes32"
        }
      ],
      "name": "SenderRegistered",
      "type": "event"
    },
    {
      "anonymous": false,
      "inputs": [
        {
          "indexed": false,
          "internalType": "uint16",
          "name": "sourceChain",
          "type": "uint16"
        },
        {
          "indexed": false,
          "internalType": "address",
          "name": "sender",
          "type": "address"
        }
      ],
      "name": "SourceChainLogged",
      "type": "event"
    },
    {
      "inputs": [
        {
          "internalType": "bytes",
          "name": "payload",
          "type": "bytes"
        },
        {
          "internalType": "bytes[]",
          "name": "",
          "type": "bytes[]"
        },
        {
          "internalType": "bytes32",
          "name": "sourceAddress",
          "type": "bytes32"
        },
        {
          "internalType": "uint16",
          "name": "sourceChain",
          "type": "uint16"
        },
        {
          "internalType": "bytes32",
          "name": "",
          "type": "bytes32"
        }
      ],
      "name": "receiveWormholeMessages",
      "outputs": [],
      "stateMutability": "payable",
      "type": "function"
    },
    {
      "inputs": [],
      "name": "s_lastContractToBeCalled",
      "outputs": [
        {
          "internalType": "address",
          "name": "",
          "type": "address"
        }
      ],
      "stateMutability": "view",
      "type": "function"
    },
    {
      "inputs": [],
      "name": "s_lastEncodedFunctionCall",
      "outputs": [
        {
          "internalType": "bytes",
          "name": "",
          "type": "bytes"
        }
      ],
      "stateMutability": "view",
      "type": "function"
    },
    {
      "inputs": [],
      "name": "s_lastSender",
      "outputs": [
        {
          "internalType": "address",
          "name": "",
          "type": "address"
        }
      ],
      "stateMutability": "view",
      "type": "function"
    },
    {
      "inputs": [],
      "name": "s_payload",
      "outputs": [
        {
          "internalType": "bytes",
          "name": "",
          "type": "bytes"
        }
      ],
      "stateMutability": "view",
      "type": "function"
    },
    {
      "inputs": [
        {
          "internalType": "uint16",
          "name": "",
          "type": "uint16"
        }
      ],
      "name": "s_registeredSenders",
      "outputs": [
        {
          "internalType": "bytes32",
          "name": "",
          "type": "bytes32"
        }
      ],
      "stateMutability": "view",
      "type": "function"
    },
    {
      "inputs": [],
      "name": "s_registrationOwner",
      "outputs": [
        {
          "internalType": "address",
          "name": "",
          "type": "address"
        }
      ],
      "stateMutability": "view",
      "type": "function"
    },
    {
      "inputs": [],
      "name": "s_sourceAddress",
      "outputs": [
        {
          "internalType": "bytes32",
          "name": "",
          "type": "bytes32"
        }
      ],
      "stateMutability": "view",
      "type": "function"
    },
    {
      "inputs": [],
      "name": "s_wormholeRelayer",
      "outputs": [
        {
          "internalType": "contract IWormholeRelayer",
          "name": "",
          "type": "address"
        }
      ],
      "stateMutability": "view",
      "type": "function"
    },
    {
      "inputs": [
        {
          "internalType": "uint16",
          "name": "sourceChain",
          "type": "uint16"
        },
        {
          "internalType": "bytes32",
          "name": "sourceAddress",
          "type": "bytes32"
        }
      ],
      "name": "setRegisteredSender",
      "outputs": [],
      "stateMutability": "nonpayable",
      "type": "function"
    }
  ],
  "bytecode": "0x608060405234801561001057600080fd5b506040516115d53803806115d58339818101604052810190610032919061011c565b806000806101000a81548173ffffffffffffffffffffffffffffffffffffffff021916908373ffffffffffffffffffffffffffffffffffffffff16021790555033600160006101000a81548173ffffffffffffffffffffffffffffffffffffffff021916908373ffffffffffffffffffffffffffffffffffffffff16021790555050610149565b600080fd5b600073ffffffffffffffffffffffffffffffffffffffff82169050919050565b60006100e9826100be565b9050919050565b6100f9816100de565b811461010457600080fd5b50565b600081519050610116816100f0565b92915050565b600060208284031215610132576101316100b9565b5b600061014084828501610107565b91505092915050565b61147d806101586000396000f3fe6080604052600436106100915760003560e01c8063890bd8ad11610059578063890bd8ad1461015e578063ca818f8914610189578063d5f6297f146101b4578063dd12d68b146101f1578063f452ca721461021a57610091565b80632277d3ae146100965780632a31f241146100c15780634f91330e146100ec578063529dca32146101175780635bb60dc014610133575b600080fd5b3480156100a257600080fd5b506100ab610245565b6040516100b89190610824565b60405180910390f35b3480156100cd57600080fd5b506100d661026b565b6040516100e39190610824565b60405180910390f35b3480156100f857600080fd5b50610101610291565b60405161010e91906108cf565b60405180910390f35b610131600480360381019061012c9190610b90565b61031f565b005b34801561013f57600080fd5b50610148610600565b6040516101559190610ca2565b60405180910390f35b34801561016a57600080fd5b50610173610624565b60405161018091906108cf565b60405180910390f35b34801561019557600080fd5b5061019e6106b2565b6040516101ab9190610ccc565b60405180910390f35b3480156101c057600080fd5b506101db60048036038101906101d69190610ce7565b6106b8565b6040516101e89190610ccc565b60405180910390f35b3480156101fd57600080fd5b5061021860048036038101906102139190610d14565b6106d0565b005b34801561022657600080fd5b5061022f6107bd565b60405161023c9190610824565b60405180910390f35b600160009054906101000a900473ffffffffffffffffffffffffffffffffffffffff1681565b600560009054906101000a900473ffffffffffffffffffffffffffffffffffffffff1681565b6004805461029e90610d83565b80601f01602080910402602001604051908101604052809291908181526020018280546102ca90610d83565b80156103175780601f106102ec57610100808354040283529160200191610317565b820191906000526020600020905b8154815290600101906020018083116102fa57829003601f168201915b505050505081565b818380600760008461ffff1661ffff168152602001908152602001600020541461037e576040517f08c379a000000000000000000000000000000000000000000000000000000000815260040161037590610e11565b60405180910390fd5b60008054906101000a900473ffffffffffffffffffffffffffffffffffffffff1673ffffffffffffffffffffffffffffffffffffffff163373ffffffffffffffffffffffffffffffffffffffff161461040c576040517f08c379a000000000000000000000000000000000000000000000000000000000815260040161040390610ea3565b60405180910390fd5b866002908161041b919061106f565b507f77e3e724b03e55e5ad9e86363a3d566079ef39090c5961cbb68c5edd353e6517858860405161044d929190611141565b60405180910390a160008060008980602001905181019061046e919061121f565b92509250925081600360006101000a81548173ffffffffffffffffffffffffffffffffffffffff021916908373ffffffffffffffffffffffffffffffffffffffff16021790555080600490816104c4919061106f565b5082600560006101000a81548173ffffffffffffffffffffffffffffffffffffffff021916908373ffffffffffffffffffffffffffffffffffffffff1602179055508760068190555060008373ffffffffffffffffffffffffffffffffffffffff168260405161053491906112ca565b6000604051808303816000865af19150503d8060008114610571576040519150601f19603f3d011682016040523d82523d6000602084013e610576565b606091505b50509050806105b9577f5ed95ef803f77d10f65e089de8b7058e25192b4b3435ab5ba620c5af6167dbd86040516105ac9061132d565b60405180910390a16105f3565b7f8330397d1741789a83c8af0a6952d33b1c5340d05ddd772be57e25dafacdb51c84836040516105ea92919061134d565b60405180910390a15b5050505050505050505050565b60008054906101000a900473ffffffffffffffffffffffffffffffffffffffff1681565b6002805461063190610d83565b80601f016020809104026020016040519081016040528092919081815260200182805461065d90610d83565b80156106aa5780601f1061067f576101008083540402835291602001916106aa565b820191906000526020600020905b81548152906001019060200180831161068d57829003601f168201915b505050505081565b60065481565b60076020528060005260406000206000915090505481565b600160009054906101000a900473ffffffffffffffffffffffffffffffffffffffff1673ffffffffffffffffffffffffffffffffffffffff163373ffffffffffffffffffffffffffffffffffffffff1614610760576040517f08c379a0000000000000000000000000000000000000000000000000000000008152600401610757906113ef565b60405180910390fd5b80600760008461ffff1661ffff168152602001908152602001600020819055507f1042215c906c4f298080457b6ca52368f97c2627acd368055d7c3576876d488282826040516107b192919061141e565b60405180910390a15050565b600360009054906101000a900473ffffffffffffffffffffffffffffffffffffffff1681565b600073ffffffffffffffffffffffffffffffffffffffff82169050919050565b600061080e826107e3565b9050919050565b61081e81610803565b82525050565b60006020820190506108396000830184610815565b92915050565b600081519050919050565b600082825260208201905092915050565b60005b8381101561087957808201518184015260208101905061085e565b60008484015250505050565b6000601f19601f8301169050919050565b60006108a18261083f565b6108ab818561084a565b93506108bb81856020860161085b565b6108c481610885565b840191505092915050565b600060208201905081810360008301526108e98184610896565b905092915050565b6000604051905090565b600080fd5b600080fd5b600080fd5b600080fd5b7f4e487b7100000000000000000000000000000000000000000000000000000000600052604160045260246000fd5b61094782610885565b810181811067ffffffffffffffff821117156109665761096561090f565b5b80604052505050565b60006109796108f1565b9050610985828261093e565b919050565b600067ffffffffffffffff8211156109a5576109a461090f565b5b6109ae82610885565b9050602081019050919050565b82818337600083830152505050565b60006109dd6109d88461098a565b61096f565b9050828152602081018484840111156109f9576109f861090a565b5b610a048482856109bb565b509392505050565b600082601f830112610a2157610a20610905565b5b8135610a318482602086016109ca565b91505092915050565b600067ffffffffffffffff821115610a5557610a5461090f565b5b602082029050602081019050919050565b600080fd5b6000610a7e610a7984610a3a565b61096f565b90508083825260208201905060208402830185811115610aa157610aa0610a66565b5b835b81811015610ae857803567ffffffffffffffff811115610ac657610ac5610905565b5b808601610ad38982610a0c565b85526020850194505050602081019050610aa3565b5050509392505050565b600082601f830112610b0757610b06610905565b5b8135610b17848260208601610a6b565b91505092915050565b6000819050919050565b610b3381610b20565b8114610b3e57600080fd5b50565b600081359050610b5081610b2a565b92915050565b600061ffff82169050919050565b610b6d81610b56565b8114610b7857600080fd5b50565b600081359050610b8a81610b64565b92915050565b600080600080600060a08688031215610bac57610bab6108fb565b5b600086013567ffffffffffffffff811115610bca57610bc9610900565b5b610bd688828901610a0c565b955050602086013567ffffffffffffffff811115610bf757610bf6610900565b5b610c0388828901610af2565b9450506040610c1488828901610b41565b9350506060610c2588828901610b7b565b9250506080610c3688828901610b41565b9150509295509295909350565b6000819050919050565b6000610c68610c63610c5e846107e3565b610c43565b6107e3565b9050919050565b6000610c7a82610c4d565b9050919050565b6000610c8c82610c6f565b9050919050565b610c9c81610c81565b82525050565b6000602082019050610cb76000830184610c93565b92915050565b610cc681610b20565b82525050565b6000602082019050610ce16000830184610cbd565b92915050565b600060208284031215610cfd57610cfc6108fb565b5b6000610d0b84828501610b7b565b91505092915050565b60008060408385031215610d2b57610d2a6108fb565b5b6000610d3985828601610b7b565b9250506020610d4a85828601610b41565b9150509250929050565b7f4e487b7100000000000000000000000000000000000000000000000000000000600052602260045260246000fd5b60006002820490506001821680610d9b57607f821691505b602082108103610dae57610dad610d54565b5b50919050565b600082825260208201905092915050565b7f53656e646572206e6f7420726567697374657265640000000000000000000000600082015250565b6000610dfb601583610db4565b9150610e0682610dc5565b602082019050919050565b60006020820190508181036000830152610e2a81610dee565b9050919050565b7f4f6e6c792074686520576f726d686f6c652052656c617965722063616e20636160008201527f6c6c20746869732066756e6374696f6e00000000000000000000000000000000602082015250565b6000610e8d603083610db4565b9150610e9882610e31565b604082019050919050565b60006020820190508181036000830152610ebc81610e80565b9050919050565b60008190508160005260206000209050919050565b60006020601f8301049050919050565b600082821b905092915050565b600060088302610f257fffffffffffffffffffffffffffffffffffffffffffffffffffffffffffffffff82610ee8565b610f2f8683610ee8565b95508019841693508086168417925050509392505050565b6000819050919050565b6000610f6c610f67610f6284610f47565b610c43565b610f47565b9050919050565b6000819050919050565b610f8683610f51565b610f9a610f9282610f73565b848454610ef5565b825550505050565b600090565b610faf610fa2565b610fba818484610f7d565b505050565b5b81811015610fde57610fd3600082610fa7565b600181019050610fc0565b5050565b601f82111561102357610ff481610ec3565b610ffd84610ed8565b8101602085101561100c578190505b61102061101885610ed8565b830182610fbf565b50505b505050565b600082821c905092915050565b600061104660001984600802611028565b1980831691505092915050565b600061105f8383611035565b9150826002028217905092915050565b6110788261083f565b67ffffffffffffffff8111156110915761109061090f565b5b61109b8254610d83565b6110a6828285610fe2565b600060209050601f8311600181146110d957600084156110c7578287015190505b6110d18582611053565b865550611139565b601f1984166110e786610ec3565b60005b8281101561110f578489015182556001820191506020850194506020810190506110ea565b8683101561112c5784890151611128601f891682611035565b8355505b6001600288020188555050505b505050505050565b60006040820190506111566000830185610cbd565b81810360208301526111688184610896565b90509392505050565b600061117c826107e3565b9050919050565b61118c81611171565b811461119757600080fd5b50565b6000815190506111a981611183565b92915050565b60006111c26111bd8461098a565b61096f565b9050828152602081018484840111156111de576111dd61090a565b5b6111e984828561085b565b509392505050565b600082601f83011261120657611205610905565b5b81516112168482602086016111af565b91505092915050565b600080600060608486031215611238576112376108fb565b5b60006112468682870161119a565b93505060206112578682870161119a565b925050604084015167ffffffffffffffff81111561127857611277610900565b5b611284868287016111f1565b9150509250925092565b600081905092915050565b60006112a48261083f565b6112ae818561128e565b93506112be81856020860161085b565b80840191505092915050565b60006112d68284611299565b915081905092915050565b7f4572726f7220657865637574696e672066756e6374696f6e2063616c6c000000600082015250565b6000611317601d83610db4565b9150611322826112e1565b602082019050919050565b600060208201905081810360008301526113468161130a565b9050919050565b60006040820190506113626000830185610815565b81810360208301526113748184610896565b90509392505050565b7f4f6e6c792074686520726567697374726174696f6e206f776e65722063616e2060008201527f736574207468652073656e646572000000000000000000000000000000000000602082015250565b60006113d9602e83610db4565b91506113e48261137d565b604082019050919050565b60006020820190508181036000830152611408816113cc565b9050919050565b61141881610b56565b82525050565b6000604082019050611433600083018561140f565b6114406020830184610cbd565b939250505056fea2646970667358221220dd347280626f4484f9706dcc0a19048110e1d0e7b8c94a11ecf25f6ab20ed94d64736f6c63430008190033",
  "linkReferences": {},
  "deployedLinkReferences": {}
}