{
  "_format": "hh-sol-artifact-1",
  "contractName": "SL1MessageSender",
  "sourceName": "contracts/wormhole/SL1MessageSender.sol",
  "abi": [
    {
      "inputs": [
        {
          "internalType": "address",
          "name": "_wormholeRelayer",
          "type": "address"
        }
      ],
      "stateMutability": "nonpayable",
      "type": "constructor"
    },
    {
      "inputs": [],
      "name": "GAS_LIMIT",
      "outputs": [
        {
          "internalType": "uint256",
          "name": "",
          "type": "uint256"
        }
      ],
      "stateMutability": "view",
      "type": "function"
    },
    {
      "inputs": [
        {
          "internalType": "address",
          "name": "_contractToBeCalled",
          "type": "address"
        },
        {
          "internalType": "bytes",
          "name": "_encodedFunctionCall",
          "type": "bytes"
        }
      ],
      "name": "encodeMessage",
      "outputs": [
        {
          "internalType": "bytes",
          "name": "",
          "type": "bytes"
        }
      ],
      "stateMutability": "view",
      "type": "function"
    },
    {
      "inputs": [],
      "name": "owner",
      "outputs": [
        {
          "internalType": "address",
          "name": "",
          "type": "address"
        }
      ],
      "stateMutability": "view",
      "type": "function"
    },
    {
      "inputs": [
        {
          "internalType": "uint16",
          "name": "_targetChain",
          "type": "uint16"
        },
        {
          "internalType": "uint256",
          "name": "_gasLimit",
          "type": "uint256"
        }
      ],
      "name": "quoteCrossChainCost",
      "outputs": [
        {
          "internalType": "uint256",
          "name": "cost",
          "type": "uint256"
        }
      ],
      "stateMutability": "view",
      "type": "function"
    },
    {
      "inputs": [],
      "name": "s_wormholeRelayer",
      "outputs": [
        {
          "internalType": "contract IWormholeRelayer",
          "name": "",
          "type": "address"
        }
      ],
      "stateMutability": "view",
      "type": "function"
    },
    {
      "inputs": [
        {
          "internalType": "uint16",
          "name": "_targetChain",
          "type": "uint16"
        },
        {
          "internalType": "address",
          "name": "_targetAddress",
          "type": "address"
        },
        {
          "internalType": "address",
          "name": "_contractToBeCalled",
          "type": "address"
        },
        {
          "internalType": "bytes",
          "name": "_encodedFunctionCall",
          "type": "bytes"
        },
        {
          "internalType": "uint256",
          "name": "_gasLimit",
          "type": "uint256"
        }
      ],
      "name": "sendMessage",
      "outputs": [],
      "stateMutability": "payable",
      "type": "function"
    },
    {
      "inputs": [
        {
          "internalType": "uint256",
          "name": "_gasLimit",
          "type": "uint256"
        }
      ],
      "name": "setGasLimit",
      "outputs": [],
      "stateMutability": "nonpayable",
      "type": "function"
    }
  ],
  "bytecode": "0x6080604052620c350060025534801561001757600080fd5b50604051610e26380380610e2683398181016040528101906100399190610123565b806000806101000a81548173ffffffffffffffffffffffffffffffffffffffff021916908373ffffffffffffffffffffffffffffffffffffffff16021790555033600160006101000a81548173ffffffffffffffffffffffffffffffffffffffff021916908373ffffffffffffffffffffffffffffffffffffffff16021790555050610150565b600080fd5b600073ffffffffffffffffffffffffffffffffffffffff82169050919050565b60006100f0826100c5565b9050919050565b610100816100e5565b811461010b57600080fd5b50565b60008151905061011d816100f7565b92915050565b600060208284031215610139576101386100c0565b5b60006101478482850161010e565b91505092915050565b610cc78061015f6000396000f3fe6080604052600436106100705760003560e01c8063ba0257361161004e578063ba025736146100f6578063d07de28014610112578063ebda77e01461014f578063ee7d72b41461018c57610070565b8063091d2788146100755780635bb60dc0146100a05780638da5cb5b146100cb575b600080fd5b34801561008157600080fd5b5061008a6101b5565b60405161009791906104a3565b60405180910390f35b3480156100ac57600080fd5b506100b56101bb565b6040516100c2919061053d565b60405180910390f35b3480156100d757600080fd5b506100e06101df565b6040516100ed9190610579565b60405180910390f35b610110600480360381019061010b9190610780565b610205565b005b34801561011e57600080fd5b5061013960048036038101906101349190610817565b610316565b60405161014691906108f2565b60405180910390f35b34801561015b57600080fd5b5061017660048036038101906101719190610914565b610344565b60405161018391906104a3565b60405180910390f35b34801561019857600080fd5b506101b360048036038101906101ae9190610954565b6103f0565b005b60025481565b60008054906101000a900473ffffffffffffffffffffffffffffffffffffffff1681565b600160009054906101000a900473ffffffffffffffffffffffffffffffffffffffff1681565b60025481111561024a576040517f08c379a000000000000000000000000000000000000000000000000000000000815260040161024190610a04565b60405180910390fd5b60006102568484610316565b905060006102648784610344565b905060008054906101000a900473ffffffffffffffffffffffffffffffffffffffff1673ffffffffffffffffffffffffffffffffffffffff16638fecdd02828989866000896040518763ffffffff1660e01b81526004016102c9959493929190610a6e565b60206040518083038185885af11580156102e7573d6000803e3d6000fd5b50505050506040513d601f19601f8201168201806040525081019061030c9190610b08565b5050505050505050565b606082338360405160200161032d93929190610b35565b604051602081830303815290604052905092915050565b60008060009054906101000a900473ffffffffffffffffffffffffffffffffffffffff1673ffffffffffffffffffffffffffffffffffffffff1663c23ee3c3846000856040518463ffffffff1660e01b81526004016103a593929190610b73565b6040805180830381865afa1580156103c1573d6000803e3d6000fd5b505050506040513d601f19601f820116820180604052508101906103e59190610bbf565b508091505092915050565b600160009054906101000a900473ffffffffffffffffffffffffffffffffffffffff1673ffffffffffffffffffffffffffffffffffffffff163373ffffffffffffffffffffffffffffffffffffffff1614610480576040517f08c379a000000000000000000000000000000000000000000000000000000000815260040161047790610c71565b60405180910390fd5b8060028190555050565b6000819050919050565b61049d8161048a565b82525050565b60006020820190506104b86000830184610494565b92915050565b600073ffffffffffffffffffffffffffffffffffffffff82169050919050565b6000819050919050565b60006105036104fe6104f9846104be565b6104de565b6104be565b9050919050565b6000610515826104e8565b9050919050565b60006105278261050a565b9050919050565b6105378161051c565b82525050565b6000602082019050610552600083018461052e565b92915050565b6000610563826104be565b9050919050565b61057381610558565b82525050565b600060208201905061058e600083018461056a565b92915050565b6000604051905090565b600080fd5b600080fd5b600061ffff82169050919050565b6105bf816105a8565b81146105ca57600080fd5b50565b6000813590506105dc816105b6565b92915050565b6105eb81610558565b81146105f657600080fd5b50565b600081359050610608816105e2565b92915050565b600080fd5b600080fd5b6000601f19601f8301169050919050565b7f4e487b7100000000000000000000000000000000000000000000000000000000600052604160045260246000fd5b61066182610618565b810181811067ffffffffffffffff821117156106805761067f610629565b5b80604052505050565b6000610693610594565b905061069f8282610658565b919050565b600067ffffffffffffffff8211156106bf576106be610629565b5b6106c882610618565b9050602081019050919050565b82818337600083830152505050565b60006106f76106f2846106a4565b610689565b90508281526020810184848401111561071357610712610613565b5b61071e8482856106d5565b509392505050565b600082601f83011261073b5761073a61060e565b5b813561074b8482602086016106e4565b91505092915050565b61075d8161048a565b811461076857600080fd5b50565b60008135905061077a81610754565b92915050565b600080600080600060a0868803121561079c5761079b61059e565b5b60006107aa888289016105cd565b95505060206107bb888289016105f9565b94505060406107cc888289016105f9565b935050606086013567ffffffffffffffff8111156107ed576107ec6105a3565b5b6107f988828901610726565b925050608061080a8882890161076b565b9150509295509295909350565b6000806040838503121561082e5761082d61059e565b5b600061083c858286016105f9565b925050602083013567ffffffffffffffff81111561085d5761085c6105a3565b5b61086985828601610726565b9150509250929050565b600081519050919050565b600082825260208201905092915050565b60005b838110156108ad578082015181840152602081019050610892565b60008484015250505050565b60006108c482610873565b6108ce818561087e565b93506108de81856020860161088f565b6108e781610618565b840191505092915050565b6000602082019050818103600083015261090c81846108b9565b905092915050565b6000806040838503121561092b5761092a61059e565b5b6000610939858286016105cd565b925050602061094a8582860161076b565b9150509250929050565b60006020828403121561096a5761096961059e565b5b60006109788482850161076b565b91505092915050565b600082825260208201905092915050565b7f476173206c696d6974206578636565647320746865206d6178696d756d206c6960008201527f6d69740000000000000000000000000000000000000000000000000000000000602082015250565b60006109ee602383610981565b91506109f982610992565b604082019050919050565b60006020820190508181036000830152610a1d816109e1565b9050919050565b610a2d816105a8565b82525050565b6000819050919050565b6000610a58610a53610a4e84610a33565b6104de565b61048a565b9050919050565b610a6881610a3d565b82525050565b600060a082019050610a836000830188610a24565b610a90602083018761056a565b8181036040830152610aa281866108b9565b9050610ab16060830185610a5f565b610abe6080830184610494565b9695505050505050565b600067ffffffffffffffff82169050919050565b610ae581610ac8565b8114610af057600080fd5b50565b600081519050610b0281610adc565b92915050565b600060208284031215610b1e57610b1d61059e565b5b6000610b2c84828501610af3565b91505092915050565b6000606082019050610b4a600083018661056a565b610b57602083018561056a565b8181036040830152610b6981846108b9565b9050949350505050565b6000606082019050610b886000830186610a24565b610b956020830185610a5f565b610ba26040830184610494565b949350505050565b600081519050610bb981610754565b92915050565b60008060408385031215610bd657610bd561059e565b5b6000610be485828601610baa565b9250506020610bf585828601610baa565b9150509250929050565b7f4f6e6c7920746865206f776e65722063616e2063616c6c20746869732066756e60008201527f6374696f6e000000000000000000000000000000000000000000000000000000602082015250565b6000610c5b602583610981565b9150610c6682610bff565b604082019050919050565b60006020820190508181036000830152610c8a81610c4e565b905091905056fea26469706673582212204f137447b29931dffe9f14d6d1fc943566bc41963c7855523478fa156b71d18764736f6c63430008190033",
  "linkReferences": {},
  "deployedLinkReferences": {}
}