{"abi":[{"type":"receive","stateMutability":"payable"},{"type":"function","name":"MIN_DATA_LENGTH","inputs":[],"outputs":[{"name":"","type":"uint256","internalType":"uint256"}],"stateMutability":"view"},{"type":"function","name":"owner","inputs":[],"outputs":[{"name":"","type":"address","internalType":"address"}],"stateMutability":"view"},{"type":"function","name":"pause","inputs":[],"outputs":[],"stateMutability":"nonpayable"},{"type":"function","name":"paused","inputs":[],"outputs":[{"name":"","type":"bool","internalType":"bool"}],"stateMutability":"view"},{"type":"function","name":"renounceOwnership","inputs":[],"outputs":[],"stateMutability":"nonpayable"},{"type":"function","name":"sendMessage","inputs":[{"name":"_contractToBeCalled","type":"address","internalType":"address"},{"name":"_encodedFunctionCall","type":"bytes","internalType":"bytes"}],"outputs":[],"stateMutability":"payable"},{"type":"function","name":"transferOwnership","inputs":[{"name":"newOwner","type":"address","internalType":"address"}],"outputs":[],"stateMutability":"nonpayable"},{"type":"function","name":"unpause","inputs":[],"outputs":[],"stateMutability":"nonpayable"},{"type":"event","name":"FunctionExecuted","inputs":[{"name":"contractToBeCalled","type":"address","indexed":true,"internalType":"address"},{"name":"encodedFunctionCall","type":"bytes","indexed":false,"internalType":"bytes"}],"anonymous":false},{"type":"event","name":"FunctionFailed","inputs":[{"name":"contractToBeCalled","type":"address","indexed":true,"internalType":"address"},{"name":"encodedFunctionCall","type":"bytes","indexed":false,"internalType":"bytes"},{"name":"reason","type":"string","indexed":false,"internalType":"string"}],"anonymous":false},{"type":"event","name":"OwnershipTransferred","inputs":[{"name":"previousOwner","type":"address","indexed":true,"internalType":"address"},{"name":"newOwner","type":"address","indexed":true,"internalType":"address"}],"anonymous":false},{"type":"event","name":"Paused","inputs":[{"name":"account","type":"address","indexed":false,"internalType":"address"}],"anonymous":false},{"type":"event","name":"Unpaused","inputs":[{"name":"account","type":"address","indexed":false,"internalType":"address"}],"anonymous":false},{"type":"error","name":"EnforcedPause","inputs":[]},{"type":"error","name":"ExpectedPause","inputs":[]},{"type":"error","name":"OwnableInvalidOwner","inputs":[{"name":"owner","type":"address","internalType":"address"}]},{"type":"error","name":"OwnableUnauthorizedAccount","inputs":[{"name":"account","type":"address","internalType":"address"}]}],"bytecode":{"object":"0x6080604052348015600f57600080fd5b503380603557604051631e4fbdf760e01b81526000600482015260240160405180910390fd5b603c81604e565b506000805460ff60a01b19169055609e565b600080546001600160a01b038381166001600160a01b0319831681178455604051919092169283917f8be0079c531659141344cd1fd0a4f28419497f9722a3daafe3b4186f6b6457e09190a35050565b610862806100ad6000396000f3fe60806040526004361061007f5760003560e01c80638da5cb5b1161004e5780638da5cb5b14610146578063bb5ddb0f1461016e578063f2fde38b14610181578063f32f9fe6146101a157600080fd5b80633f4ba83a146100d65780635c975abb146100ed578063715018a61461011c5780638456cb591461013157600080fd5b366100d15760405162461bcd60e51b815260206004820181905260248201527f44697265637420455448207472616e7366657273206e6f7420616c6c6f77656460448201526064015b60405180910390fd5b600080fd5b3480156100e257600080fd5b506100eb6101c4565b005b3480156100f957600080fd5b50600054600160a01b900460ff1660405190151581526020015b60405180910390f35b34801561012857600080fd5b506100eb6101d6565b34801561013d57600080fd5b506100eb6101e8565b34801561015257600080fd5b506000546040516001600160a01b039091168152602001610113565b6100eb61017c36600461065e565b6101f8565b34801561018d57600080fd5b506100eb61019c3660046106ef565b6103c6565b3480156101ad57600080fd5b506101b6600481565b604051908152602001610113565b6101cc610404565b6101d4610431565b565b6101de610404565b6101d46000610486565b6101f0610404565b6101d46104d6565b610200610519565b6001600160a01b0382166102565760405162461bcd60e51b815260206004820152601860248201527f496e76616c696420636f6e74726163742061646472657373000000000000000060448201526064016100c8565b6004815110156102a85760405162461bcd60e51b815260206004820152601a60248201527f496e76616c69642066756e6374696f6e2063616c6c206461746100000000000060448201526064016100c8565b600080836001600160a01b0316836040516102c39190610735565b6000604051808303816000865af19150503d8060008114610300576040519150601f19603f3d011682016040523d82523d6000602084013e610305565b606091505b5091509150811561035657836001600160a01b03167f8330397d1741789a83c8af0a6952d33b1c5340d05ddd772be57e25dafacdb51c84604051610349919061077d565b60405180910390a26103c0565b600061036182610544565b9050846001600160a01b03167f1f391f2dd3b0a766dc5f05269fcf5ca960301deed8663bd0a9f34b96d0c0d057858360405161039e929190610790565b60405180910390a28060405162461bcd60e51b81526004016100c8919061077d565b50505050565b6103ce610404565b6001600160a01b0381166103f857604051631e4fbdf760e01b8152600060048201526024016100c8565b61040181610486565b50565b6000546001600160a01b031633146101d45760405163118cdaa760e01b81523360048201526024016100c8565b6104396105a9565b6000805460ff60a01b191690557f5db9ee0a495bf2e6ff9c91a7834c1ba4fdd244a5e8aa4e537bd38aeae4b073aa335b6040516001600160a01b03909116815260200160405180910390a1565b600080546001600160a01b038381166001600160a01b0319831681178455604051919092169283917f8be0079c531659141344cd1fd0a4f28419497f9722a3daafe3b4186f6b6457e09190a35050565b6104de610519565b6000805460ff60a01b1916600160a01b1790557f62e78cea01bee320cd4e420270b5ea74000d11b0c9f74754ebdbfc544b05a2586104693390565b600054600160a01b900460ff16156101d45760405163d93c066560e01b815260040160405180910390fd5b606060448251101561058957505060408051808201909152601d81527f5472616e73616374696f6e2072657665727465642073696c656e746c79000000602082015290565b600482019150818060200190518101906105a391906107be565b92915050565b600054600160a01b900460ff166101d457604051638dfc202b60e01b815260040160405180910390fd5b80356001600160a01b03811681146105ea57600080fd5b919050565b634e487b7160e01b600052604160045260246000fd5b604051601f8201601f1916810167ffffffffffffffff8111828210171561062e5761062e6105ef565b604052919050565b600067ffffffffffffffff821115610650576106506105ef565b50601f01601f191660200190565b6000806040838503121561067157600080fd5b61067a836105d3565b9150602083013567ffffffffffffffff81111561069657600080fd5b8301601f810185136106a757600080fd5b80356106ba6106b582610636565b610605565b8181528660208385010111156106cf57600080fd5b816020840160208301376000602083830101528093505050509250929050565b60006020828403121561070157600080fd5b61070a826105d3565b9392505050565b60005b8381101561072c578181015183820152602001610714565b50506000910152565b60008251610747818460208701610711565b9190910192915050565b60008151808452610769816020860160208601610711565b601f01601f19169290920160200192915050565b60208152600061070a6020830184610751565b6040815260006107a36040830185610751565b82810360208401526107b58185610751565b95945050505050565b6000602082840312156107d057600080fd5b815167ffffffffffffffff8111156107e757600080fd5b8201601f810184136107f857600080fd5b80516108066106b582610636565b81815285602083850101111561081b57600080fd5b6107b582602083016020860161071156fea2646970667358221220ef4ce60f5b6a2eed13580bbbbc79b8bafaf4e5da99db008463d96ed9b62591cd64736f6c63430008190033","linkReferences":{}},"methodIdentifiers":{"MIN_DATA_LENGTH()":"f32f9fe6","owner()":"8da5cb5b","pause()":"8456cb59","paused()":"5c975abb","renounceOwnership()":"715018a6","sendMessage(address,bytes)":"bb5ddb0f","transferOwnership(address)":"f2fde38b","unpause()":"3f4ba83a"},"id":2}