{"abi":[{"type":"receive","stateMutability":"payable"},{"type":"function","name":"MIN_DATA_LENGTH","inputs":[],"outputs":[{"name":"","type":"uint256","internalType":"uint256"}],"stateMutability":"view"},{"type":"function","name":"execFunction","inputs":[{"name":"_contractToBeCalled","type":"address","internalType":"address"},{"name":"_encodedFunctionCall","type":"bytes","internalType":"bytes"}],"outputs":[],"stateMutability":"payable"},{"type":"function","name":"owner","inputs":[],"outputs":[{"name":"","type":"address","internalType":"address"}],"stateMutability":"view"},{"type":"function","name":"pause","inputs":[],"outputs":[],"stateMutability":"nonpayable"},{"type":"function","name":"paused","inputs":[],"outputs":[{"name":"","type":"bool","internalType":"bool"}],"stateMutability":"view"},{"type":"function","name":"renounceOwnership","inputs":[],"outputs":[],"stateMutability":"nonpayable"},{"type":"function","name":"transferOwnership","inputs":[{"name":"newOwner","type":"address","internalType":"address"}],"outputs":[],"stateMutability":"nonpayable"},{"type":"function","name":"unpause","inputs":[],"outputs":[],"stateMutability":"nonpayable"},{"type":"event","name":"FunctionExecuted","inputs":[{"name":"contractToBeCalled","type":"address","indexed":false,"internalType":"address"},{"name":"encodedFunctionCall","type":"bytes","indexed":false,"internalType":"bytes"}],"anonymous":false},{"type":"event","name":"FunctionFailed","inputs":[{"name":"contractToBeCalled","type":"address","indexed":true,"internalType":"address"},{"name":"encodedFunctionCall","type":"bytes","indexed":false,"internalType":"bytes"},{"name":"reason","type":"string","indexed":false,"internalType":"string"}],"anonymous":false},{"type":"event","name":"OwnershipTransferred","inputs":[{"name":"previousOwner","type":"address","indexed":true,"internalType":"address"},{"name":"newOwner","type":"address","indexed":true,"internalType":"address"}],"anonymous":false},{"type":"event","name":"Paused","inputs":[{"name":"account","type":"address","indexed":false,"internalType":"address"}],"anonymous":false},{"type":"event","name":"Unpaused","inputs":[{"name":"account","type":"address","indexed":false,"internalType":"address"}],"anonymous":false},{"type":"error","name":"EnforcedPause","inputs":[]},{"type":"error","name":"ExpectedPause","inputs":[]},{"type":"error","name":"OwnableInvalidOwner","inputs":[{"name":"owner","type":"address","internalType":"address"}]},{"type":"error","name":"OwnableUnauthorizedAccount","inputs":[{"name":"account","type":"address","internalType":"address"}]}],"bytecode":{"object":"0x6080604052348015600f57600080fd5b503380603557604051631e4fbdf760e01b81526000600482015260240160405180910390fd5b603c81604e565b506000805460ff60a01b19169055609e565b600080546001600160a01b038381166001600160a01b0319831681178455604051919092169283917f8be0079c531659141344cd1fd0a4f28419497f9722a3daafe3b4186f6b6457e09190a35050565b610886806100ad6000396000f3fe60806040526004361061007f5760003560e01c80638da5cb5b1161004e5780638da5cb5b14610146578063ced139ac1461016e578063f2fde38b14610181578063f32f9fe6146101a157600080fd5b80633f4ba83a146100d65780635c975abb146100ed578063715018a61461011c5780638456cb591461013157600080fd5b366100d15760405162461bcd60e51b815260206004820152601c60248201527f446972656374207061796d656e7473206e6f742061636365707465640000000060448201526064015b60405180910390fd5b600080fd5b3480156100e257600080fd5b506100eb6101c4565b005b3480156100f957600080fd5b50600054600160a01b900460ff1660405190151581526020015b60405180910390f35b34801561012857600080fd5b506100eb6101d6565b34801561013d57600080fd5b506100eb6101e8565b34801561015257600080fd5b506000546040516001600160a01b039091168152602001610113565b6100eb61017c366004610656565b6101f8565b34801561018d57600080fd5b506100eb61019c3660046106e7565b6103be565b3480156101ad57600080fd5b506101b6600481565b604051908152602001610113565b6101cc6103fc565b6101d4610429565b565b6101de6103fc565b6101d4600061047e565b6101f06103fc565b6101d46104ce565b610200610511565b6001600160a01b0382166102565760405162461bcd60e51b815260206004820152601860248201527f496e76616c696420636f6e74726163742061646472657373000000000000000060448201526064016100c8565b6004815110156102a85760405162461bcd60e51b815260206004820152601a60248201527f496e76616c69642066756e6374696f6e2063616c6c206461746100000000000060448201526064016100c8565b600080836001600160a01b0316836040516102c3919061072d565b6000604051808303816000865af19150503d8060008114610300576040519150601f19603f3d011682016040523d82523d6000602084013e610305565b606091505b5091509150811561034e577f8330397d1741789a83c8af0a6952d33b1c5340d05ddd772be57e25dafacdb51c8484604051610341929190610775565b60405180910390a16103b8565b60006103598261053c565b9050846001600160a01b03167f1f391f2dd3b0a766dc5f05269fcf5ca960301deed8663bd0a9f34b96d0c0d05785836040516103969291906107a1565b60405180910390a28060405162461bcd60e51b81526004016100c891906107cf565b50505050565b6103c66103fc565b6001600160a01b0381166103f057604051631e4fbdf760e01b8152600060048201526024016100c8565b6103f98161047e565b50565b6000546001600160a01b031633146101d45760405163118cdaa760e01b81523360048201526024016100c8565b6104316105a1565b6000805460ff60a01b191690557f5db9ee0a495bf2e6ff9c91a7834c1ba4fdd244a5e8aa4e537bd38aeae4b073aa335b6040516001600160a01b03909116815260200160405180910390a1565b600080546001600160a01b038381166001600160a01b0319831681178455604051919092169283917f8be0079c531659141344cd1fd0a4f28419497f9722a3daafe3b4186f6b6457e09190a35050565b6104d6610511565b6000805460ff60a01b1916600160a01b1790557f62e78cea01bee320cd4e420270b5ea74000d11b0c9f74754ebdbfc544b05a2586104613390565b600054600160a01b900460ff16156101d45760405163d93c066560e01b815260040160405180910390fd5b606060448251101561058157505060408051808201909152601d81527f5472616e73616374696f6e2072657665727465642073696c656e746c79000000602082015290565b6004820191508180602001905181019061059b91906107e2565b92915050565b600054600160a01b900460ff166101d457604051638dfc202b60e01b815260040160405180910390fd5b80356001600160a01b03811681146105e257600080fd5b919050565b634e487b7160e01b600052604160045260246000fd5b604051601f8201601f1916810167ffffffffffffffff81118282101715610626576106266105e7565b604052919050565b600067ffffffffffffffff821115610648576106486105e7565b50601f01601f191660200190565b6000806040838503121561066957600080fd5b610672836105cb565b9150602083013567ffffffffffffffff81111561068e57600080fd5b8301601f8101851361069f57600080fd5b80356106b26106ad8261062e565b6105fd565b8181528660208385010111156106c757600080fd5b816020840160208301376000602083830101528093505050509250929050565b6000602082840312156106f957600080fd5b610702826105cb565b9392505050565b60005b8381101561072457818101518382015260200161070c565b50506000910152565b6000825161073f818460208701610709565b9190910192915050565b60008151808452610761816020860160208601610709565b601f01601f19169290920160200192915050565b6001600160a01b038316815260406020820181905260009061079990830184610749565b949350505050565b6040815260006107b46040830185610749565b82810360208401526107c68185610749565b95945050505050565b6020815260006107026020830184610749565b6000602082840312156107f457600080fd5b815167ffffffffffffffff81111561080b57600080fd5b8201601f8101841361081c57600080fd5b805161082a6106ad8261062e565b81815285602083850101111561083f57600080fd5b6107c682602083016020860161070956fea26469706673582212207d964681b8c5df73720f4ee0063a33d1e599bea994667f02b5813da84cedafc964736f6c63430008190033","linkReferences":{}},"methodIdentifiers":{"MIN_DATA_LENGTH()":"f32f9fe6","execFunction(address,bytes)":"ced139ac","owner()":"8da5cb5b","pause()":"8456cb59","paused()":"5c975abb","renounceOwnership()":"715018a6","transferOwnership(address)":"f2fde38b","unpause()":"3f4ba83a"},"id":0}