{
  "_format": "hh-sol-artifact-1",
  "contractName": "SL1AnyChainReceiver",
  "sourceName": "contracts/SL1AnyChainReceiver.sol",
  "abi": [
    {
      "anonymous": false,
      "inputs": [
        {
          "indexed": false,
          "internalType": "string",
          "name": "message",
          "type": "string"
        }
      ],
      "name": "ErrorMessage",
      "type": "event"
    },
    {
      "anonymous": false,
      "inputs": [
        {
          "indexed": true,
          "internalType": "address",
          "name": "sender",
          "type": "address"
        },
        {
          "indexed": false,
          "internalType": "bytes",
          "name": "message",
          "type": "bytes"
        }
      ],
      "name": "ReceivedMessage",
      "type": "event"
    },
    {
      "inputs": [
        {
          "internalType": "bytes32",
          "name": "",
          "type": "bytes32"
        },
        {
          "internalType": "address",
          "name": "",
          "type": "address"
        },
        {
          "internalType": "bytes",
          "name": "message",
          "type": "bytes"
        }
      ],
      "name": "receiveTeleporterMessage",
      "outputs": [],
      "stateMutability": "nonpayable",
      "type": "function"
    }
  ],
  "bytecode": "0x6080604052348015600f57600080fd5b506109768061001f6000396000f3fe608060405234801561001057600080fd5b506004361061002b5760003560e01c8063c868efaa14610030575b600080fd5b61004a6004803603810190610045919061032f565b61004c565b005b600080838381019061005e9190610522565b91509150600080828060200190518101906100799190610670565b9150915060008282604051602001610092929190610734565b60405160208183030381529060405290506000808673ffffffffffffffffffffffffffffffffffffffff16836040516100cb919061075c565b6000604051808303816000865af19150503d8060008114610108576040519150601f19603f3d011682016040523d82523d6000602084013e61010d565b606091505b50915091508161015b577fa183e9a5f6222d4c98fb5b98e0442aaabd70de89b6ec74508bce501a2441f5f9610141826101b7565b60405161014e91906107c8565b60405180910390a16101aa565b8673ffffffffffffffffffffffffffffffffffffffff167f65ab685b839fe6f1dc1ae49d8c3de1653999e40183a87aaf2d51b25b09e22b59826040516101a19190610834565b60405180910390a25b5050505050505050505050565b6060604482511015610200576040518060400160405280601d81526020017f5472616e73616374696f6e2072657665727465642073696c656e746c79000000815250905061021d565b6004820191508180602001905181019061021a91906108f7565b90505b919050565b6000604051905090565b600080fd5b600080fd5b6000819050919050565b61024981610236565b811461025457600080fd5b50565b60008135905061026681610240565b92915050565b600073ffffffffffffffffffffffffffffffffffffffff82169050919050565b60006102978261026c565b9050919050565b6102a78161028c565b81146102b257600080fd5b50565b6000813590506102c48161029e565b92915050565b600080fd5b600080fd5b600080fd5b60008083601f8401126102ef576102ee6102ca565b5b8235905067ffffffffffffffff81111561030c5761030b6102cf565b5b602083019150836001820283011115610328576103276102d4565b5b9250929050565b600080600080606085870312156103495761034861022c565b5b600061035787828801610257565b9450506020610368878288016102b5565b935050604085013567ffffffffffffffff81111561038957610388610231565b5b610395878288016102d9565b925092505092959194509250565b60006103ae8261026c565b9050919050565b6103be816103a3565b81146103c957600080fd5b50565b6000813590506103db816103b5565b92915050565b600080fd5b6000601f19601f8301169050919050565b7f4e487b7100000000000000000000000000000000000000000000000000000000600052604160045260246000fd5b61042f826103e6565b810181811067ffffffffffffffff8211171561044e5761044d6103f7565b5b80604052505050565b6000610461610222565b905061046d8282610426565b919050565b600067ffffffffffffffff82111561048d5761048c6103f7565b5b610496826103e6565b9050602081019050919050565b82818337600083830152505050565b60006104c56104c084610472565b610457565b9050828152602081018484840111156104e1576104e06103e1565b5b6104ec8482856104a3565b509392505050565b600082601f830112610509576105086102ca565b5b81356105198482602086016104b2565b91505092915050565b600080604083850312156105395761053861022c565b5b6000610547858286016103cc565b925050602083013567ffffffffffffffff81111561056857610567610231565b5b610574858286016104f4565b9150509250929050565b60007fffffffff0000000000000000000000000000000000000000000000000000000082169050919050565b6105b38161057e565b81146105be57600080fd5b50565b6000815190506105d0816105aa565b92915050565b60005b838110156105f45780820151818401526020810190506105d9565b60008484015250505050565b600061061361060e84610472565b610457565b90508281526020810184848401111561062f5761062e6103e1565b5b61063a8482856105d6565b509392505050565b600082601f830112610657576106566102ca565b5b8151610667848260208601610600565b91505092915050565b600080604083850312156106875761068661022c565b5b6000610695858286016105c1565b925050602083015167ffffffffffffffff8111156106b6576106b5610231565b5b6106c285828601610642565b9150509250929050565b6000819050919050565b6106e76106e28261057e565b6106cc565b82525050565b600081519050919050565b600081905092915050565b600061070e826106ed565b61071881856106f8565b93506107288185602086016105d6565b80840191505092915050565b600061074082856106d6565b6004820191506107508284610703565b91508190509392505050565b60006107688284610703565b915081905092915050565b600081519050919050565b600082825260208201905092915050565b600061079a82610773565b6107a4818561077e565b93506107b48185602086016105d6565b6107bd816103e6565b840191505092915050565b600060208201905081810360008301526107e2818461078f565b905092915050565b600082825260208201905092915050565b6000610806826106ed565b61081081856107ea565b93506108208185602086016105d6565b610829816103e6565b840191505092915050565b6000602082019050818103600083015261084e81846107fb565b905092915050565b600067ffffffffffffffff821115610871576108706103f7565b5b61087a826103e6565b9050602081019050919050565b600061089a61089584610856565b610457565b9050828152602081018484840111156108b6576108b56103e1565b5b6108c18482856105d6565b509392505050565b600082601f8301126108de576108dd6102ca565b5b81516108ee848260208601610887565b91505092915050565b60006020828403121561090d5761090c61022c565b5b600082015167ffffffffffffffff81111561092b5761092a610231565b5b610937848285016108c9565b9150509291505056fea264697066735822122006e3550ca35c2c5c323ee71cd4a3948f24c24c58880778dc8b07f838b7817e0c64736f6c63430008190033",
  "linkReferences": {},
  "deployedLinkReferences": {}
}