{"abi":[{"type":"constructor","inputs":[{"name":"_router","type":"address","internalType":"address"},{"name":"_link","type":"address","internalType":"address"}],"stateMutability":"nonpayable"},{"type":"receive","stateMutability":"payable"},{"type":"function","name":"s_destinationChainSelector","inputs":[],"outputs":[{"name":"","type":"uint64","internalType":"uint64"}],"stateMutability":"view"},{"type":"function","name":"transferUSDC","inputs":[{"name":"_receiver","type":"address","internalType":"address"},{"name":"_token","type":"address","internalType":"address"},{"name":"_amount","type":"uint256","internalType":"uint256"}],"outputs":[{"name":"messageId","type":"bytes32","internalType":"bytes32"}],"stateMutability":"nonpayable"},{"type":"error","name":"NotEnoughBalance","inputs":[{"name":"currentBalance","type":"uint256","internalType":"uint256"},{"name":"calculatedFees","type":"uint256","internalType":"uint256"}]}],"bytecode":{"object":"0x6080604052348015600f57600080fd5b506040516107f33803806107f3833981016040819052602c91607a565b600080546001600160a01b039283166001600160a01b0319918216179091556001805493909216921691909117905560a8565b80516001600160a01b0381168114607557600080fd5b919050565b60008060408385031215608c57600080fd5b609383605f565b9150609f60208401605f565b90509250929050565b61073c806100b76000396000f3fe60806040526004361061002d5760003560e01c80631fabfcb6146100395780638b83351a1461007357600080fd5b3661003457005b600080fd5b34801561004557600080fd5b5061005567e1f4423f1bf587cd81565b60405167ffffffffffffffff90911681526020015b60405180910390f35b34801561007f57600080fd5b5061009361008e36600461054f565b6100a1565b60405190815260200161006a565b6000805481906100bf908690869086906001600160a01b03166103c1565b6001546040516320487ded60e01b81529192506000916001600160a01b03909116906320487ded906100ff9067e1f4423f1bf587cd9086906004016105d1565b602060405180830381865afa15801561011c573d6000803e3d6000fd5b505050506040513d601f19601f8201168201806040525081019061014091906106ae565b6000546040516370a0823160e01b81523060048201529192506001600160a01b0316906370a0823190602401602060405180830381865afa158015610189573d6000803e3d6000fd5b505050506040513d601f19601f820116820180604052508101906101ad91906106ae565b811115610248576000546040516370a0823160e01b81523060048201526001600160a01b03909116906370a0823190602401602060405180830381865afa1580156101fc573d6000803e3d6000fd5b505050506040513d601f19601f8201168201806040525081019061022091906106ae565b604051634787a10360e11b815260048101919091526024810182905260440160405180910390fd5b60005460015460405163095ea7b360e01b81526001600160a01b0391821660048201526024810184905291169063095ea7b3906044016020604051808303816000875af115801561029d573d6000803e3d6000fd5b505050506040513d601f19601f820116820180604052508101906102c191906106c7565b5060015460405163095ea7b360e01b81526001600160a01b039182166004820152602481018690529086169063095ea7b3906044016020604051808303816000875af1158015610315573d6000803e3d6000fd5b505050506040513d601f19601f8201168201806040525081019061033991906106c7565b506001546040516396f4e9f960e01b81526001600160a01b03909116906396f4e9f9906103749067e1f4423f1bf587cd9086906004016105d1565b6020604051808303816000875af1158015610393573d6000803e3d6000fd5b505050506040513d601f19601f820116820180604052508101906103b791906106ae565b9695505050505050565b6103fc6040518060a0016040528060608152602001606081526020016060815260200160006001600160a01b03168152602001606081525090565b604080516001808252818301909252600091816020015b60408051808201909152600080825260208201528152602001906001900390816104135790505090506040518060400160405280866001600160a01b03168152602001858152508160008151811061046d5761046d6106f0565b60209081029190910101526040805160a081019091526001600160a01b03871660c08201528060e081016040516020818303038152906040528152602001604051806020016040528060008152508152602001828152602001846001600160a01b03168152602001610527604051806020016040528062030d4081525060408051915160248084019190915281518084039091018152604490920190526020810180516001600160e01b03166397a657c960e01b17905290565b90529695505050505050565b80356001600160a01b038116811461054a57600080fd5b919050565b60008060006060848603121561056457600080fd5b61056d84610533565b925061057b60208501610533565b9150604084013590509250925092565b6000815180845260005b818110156105b157602081850181015186830182015201610595565b506000602082860101526020601f19601f83011685010191505092915050565b6000604067ffffffffffffffff851683526020604081850152845160a0604086015261060060e086018261058b565b905081860151603f198087840301606088015261061d838361058b565b6040890151888203830160808a01528051808352908601945060009350908501905b8084101561067157845180516001600160a01b031683528601518683015293850193600193909301929086019061063f565b5060608901516001600160a01b031660a08901526080890151888203830160c08a015295506106a0818761058b565b9a9950505050505050505050565b6000602082840312156106c057600080fd5b5051919050565b6000602082840312156106d957600080fd5b815180151581146106e957600080fd5b9392505050565b634e487b7160e01b600052603260045260246000fdfea264697066735822122083b56f6420438a9977779bbb0f6fd90448ffb6b2408506ce71e69c24c49ea5d764736f6c63430008190033","linkReferences":{}},"methodIdentifiers":{"s_destinationChainSelector()":"1fabfcb6","transferUSDC(address,address,uint256)":"8b83351a"},"id":3}