{"abi":[{"type":"constructor","inputs":[],"stateMutability":"nonpayable"},{"type":"function","name":"canUserParticipate","inputs":[{"name":"_participant","type":"address","internalType":"address"}],"outputs":[{"name":"","type":"bool","internalType":"bool"}],"stateMutability":"view"},{"type":"function","name":"captureFlag","inputs":[{"name":"_participant","type":"address","internalType":"address"}],"outputs":[],"stateMutability":"payable"},{"type":"function","name":"flagCaptureTime","inputs":[],"outputs":[{"name":"","type":"uint256","internalType":"uint256"}],"stateMutability":"view"},{"type":"function","name":"flagHolder","inputs":[],"outputs":[{"name":"","type":"address","internalType":"address"}],"stateMutability":"view"},{"type":"function","name":"flagPrice","inputs":[],"outputs":[{"name":"","type":"uint256","internalType":"uint256"}],"stateMutability":"view"},{"type":"function","name":"lastParticipationTime","inputs":[{"name":"","type":"address","internalType":"address"}],"outputs":[{"name":"","type":"uint256","internalType":"uint256"}],"stateMutability":"view"},{"type":"function","name":"owner","inputs":[],"outputs":[{"name":"","type":"address","internalType":"address"}],"stateMutability":"view"},{"type":"function","name":"setFlagPrice","inputs":[{"name":"_price","type":"uint256","internalType":"uint256"}],"outputs":[],"stateMutability":"nonpayable"},{"type":"function","name":"transferOwnership","inputs":[{"name":"_newOwner","type":"address","internalType":"address"}],"outputs":[],"stateMutability":"nonpayable"},{"type":"function","name":"withdraw","inputs":[],"outputs":[],"stateMutability":"nonpayable"},{"type":"event","name":"FlagCaptured","inputs":[{"name":"player","type":"address","indexed":true,"internalType":"address"},{"name":"timestamp","type":"uint256","indexed":false,"internalType":"uint256"}],"anonymous":false}],"bytecode":{"object":"0x608060405267016345785d8a0000600355348015601b57600080fd5b50600080546001600160a01b031916331790556105df8061003d6000396000f3fe6080604052600436106100915760003560e01c8063782109971161005957806378210997146101515780638da5cb5b14610171578063c4abc5f914610191578063d73dba3c146101a4578063f2fde38b146101d457600080fd5b8063179a1852146100965780632ded7716146100bf5780633ccfd60b146100f75780633dc4f1471461010e5780636d1d9ee014610124575b600080fd5b3480156100a257600080fd5b506100ac60025481565b6040519081526020015b60405180910390f35b3480156100cb57600080fd5b506001546100df906001600160a01b031681565b6040516001600160a01b0390911681526020016100b6565b34801561010357600080fd5b5061010c6101f4565b005b34801561011a57600080fd5b506100ac60035481565b34801561013057600080fd5b506100ac61013f366004610515565b60046020526000908152604090205481565b34801561015d57600080fd5b5061010c61016c366004610545565b610264565b34801561017d57600080fd5b506000546100df906001600160a01b031681565b61010c61019f366004610515565b610293565b3480156101b057600080fd5b506101c46101bf366004610515565b61049b565b60405190151581526020016100b6565b3480156101e057600080fd5b5061010c6101ef366004610515565b6104c9565b6000546001600160a01b031633146102275760405162461bcd60e51b815260040161021e9061055e565b60405180910390fd5b600080546040516001600160a01b03909116914780156108fc02929091818181858888f19350505050158015610261573d6000803e3d6000fd5b50565b6000546001600160a01b0316331461028e5760405162461bcd60e51b815260040161021e9061055e565b600355565b6001600160a01b03811660009081526004602052604090205481906102ba90610258610582565b42101561031c5760405162461bcd60e51b815260206004820152602a60248201527f57616974203130206d696e75746573206265666f7265207061727469636970616044820152693a34b7339030b3b0b4b760b11b606482015260840161021e565b6003543410156103635760405162461bcd60e51b8152602060048201526012602482015271496e73756666696369656e742066756e647360701b604482015260640161021e565b6001546001600160a01b038084169116036103c05760405162461bcd60e51b815260206004820152601960248201527f596f7520616c726561647920686176652074686520666c616700000000000000604482015260640161021e565b42600254603c6103d09190610582565b1061042e5760405162461bcd60e51b815260206004820152602860248201527f466c61672063616e206f6e6c792062652063617074757265642061667465722060448201526731206d696e75746560c01b606482015260840161021e565b600180546001600160a01b0319166001600160a01b03841690811790915542600281905560008281526004602090815260409182902083905590519182527f942fcd669c8b59d6df7382cea645558c1c7cddbf164d184e18682d2ced2a0052910160405180910390a25050565b6001600160a01b0381166000908152600460205260408120546104c090610258610582565b42101592915050565b6000546001600160a01b031633146104f35760405162461bcd60e51b815260040161021e9061055e565b600080546001600160a01b0319166001600160a01b0392909216919091179055565b60006020828403121561052757600080fd5b81356001600160a01b038116811461053e57600080fd5b9392505050565b60006020828403121561055757600080fd5b5035919050565b6020808252600a908201526927b7363c9037bbb732b960b11b604082015260600190565b808201808211156105a357634e487b7160e01b600052601160045260246000fd5b9291505056fea2646970667358221220e33164905252c248502fb2a6b21cc3a7da534d47be57f7ea3c1fc3079d69f6bf64736f6c63430008190033","linkReferences":{}},"methodIdentifiers":{"canUserParticipate(address)":"d73dba3c","captureFlag(address)":"c4abc5f9","flagCaptureTime()":"179a1852","flagHolder()":"2ded7716","flagPrice()":"3dc4f147","lastParticipationTime(address)":"6d1d9ee0","owner()":"8da5cb5b","setFlagPrice(uint256)":"78210997","transferOwnership(address)":"f2fde38b","withdraw()":"3ccfd60b"},"id":0}