{"abi":[{"type":"function","name":"captureFlag","inputs":[{"name":"_participant","type":"address","internalType":"address"}],"outputs":[],"stateMutability":"nonpayable"},{"type":"function","name":"flagCaptureTime","inputs":[],"outputs":[{"name":"","type":"uint256","internalType":"uint256"}],"stateMutability":"view"},{"type":"function","name":"flagHolder","inputs":[],"outputs":[{"name":"","type":"address","internalType":"address"}],"stateMutability":"view"},{"type":"function","name":"joinGame","inputs":[{"name":"_participant","type":"address","internalType":"address"}],"outputs":[],"stateMutability":"nonpayable"},{"type":"function","name":"lastParticipationTime","inputs":[{"name":"","type":"address","internalType":"address"}],"outputs":[{"name":"","type":"uint256","internalType":"uint256"}],"stateMutability":"view"},{"type":"function","name":"owner","inputs":[],"outputs":[{"name":"","type":"address","internalType":"address"}],"stateMutability":"view"},{"type":"function","name":"withdraw","inputs":[],"outputs":[],"stateMutability":"nonpayable"},{"type":"event","name":"FlagCaptured","inputs":[{"name":"player","type":"address","indexed":true,"internalType":"address"},{"name":"timestamp","type":"uint256","indexed":false,"internalType":"uint256"}],"anonymous":false},{"type":"event","name":"GameJoined","inputs":[{"name":"player","type":"address","indexed":true,"internalType":"address"},{"name":"timestamp","type":"uint256","indexed":false,"internalType":"uint256"}],"anonymous":false}],"bytecode":{"object":"0x6080604052348015600f57600080fd5b506104a28061001f6000396000f3fe608060405234801561001057600080fd5b506004361061007d5760003560e01c80633ccfd60b1161005b5780633ccfd60b146100de5780636d1d9ee0146100e65780638da5cb5b14610106578063c4abc5f91461011957600080fd5b8063179a1852146100825780632389a2901461009e5780632ded7716146100b3575b600080fd5b61008b60025481565b6040519081526020015b60405180910390f35b6100b16100ac3660046103cb565b61012c565b005b6001546100c6906001600160a01b031681565b6040516001600160a01b039091168152602001610095565b6100b16101d1565b61008b6100f43660046103cb565b60036020526000908152604090205481565b6000546100c6906001600160a01b031681565b6100b16101273660046103cb565b610255565b6001600160a01b0381166000908152600360205260409020548190610153906102586103fb565b42101561017b5760405162461bcd60e51b815260040161017290610422565b60405180910390fd5b6001600160a01b038216600081815260036020908152604091829020429081905591519182527fc7f886847371dba98b78e0d0d59e29f4abfaf6e953d6897a761992cb2627e68791015b60405180910390a25050565b6000546001600160a01b031633146102185760405162461bcd60e51b815260206004820152600a60248201526927b7363c9037bbb732b960b11b6044820152606401610172565b600080546040516001600160a01b03909116914780156108fc02929091818181858888f19350505050158015610252573d6000803e3d6000fd5b50565b6001600160a01b038116600090815260036020526040902054819061027c906102586103fb565b42101561029b5760405162461bcd60e51b815260040161017290610422565b6001546001600160a01b038084169116036102f85760405162461bcd60e51b815260206004820152601960248201527f596f7520616c726561647920686176652074686520666c6167000000000000006044820152606401610172565b42600254610e1061030991906103fb565b106103655760405162461bcd60e51b815260206004820152602660248201527f466c61672063616e206f6e6c792062652063617074757265642061667465722060448201526518903437bab960d11b6064820152608401610172565b600180546001600160a01b0319166001600160a01b03841690811790915542600281905560008281526003602090815260409182902083905590519182527f942fcd669c8b59d6df7382cea645558c1c7cddbf164d184e18682d2ced2a005291016101c5565b6000602082840312156103dd57600080fd5b81356001600160a01b03811681146103f457600080fd5b9392505050565b8082018082111561041c57634e487b7160e01b600052601160045260246000fd5b92915050565b6020808252602a908201527f57616974203130206d696e75746573206265666f7265207061727469636970616040820152693a34b7339030b3b0b4b760b11b60608201526080019056fea2646970667358221220e79c0b500be0741bbd785ccf1135da5ddc2e8ade37861233ec3acfc489c65bf364736f6c63430008190033","linkReferences":{}},"methodIdentifiers":{"captureFlag(address)":"c4abc5f9","flagCaptureTime()":"179a1852","flagHolder()":"2ded7716","joinGame(address)":"2389a290","lastParticipationTime(address)":"6d1d9ee0","owner()":"8da5cb5b","withdraw()":"3ccfd60b"},"id":5}