{
  "contracts/kol-router/KOLRouterArenaSwap.sol": {
    "KOLRouterArenaSwap": {
      "abi": [
        {
          "inputs": [
            {
              "internalType": "address",
              "name": "_kolAddress",
              "type": "address"
            },
            {
              "internalType": "address",
              "name": "_dexRouter",
              "type": "address"
            },
            {
              "internalType": "address",
              "name": "_factoryAddress",
              "type": "address"
            },
            {
              "internalType": "uint256",
              "name": "_fixedFeeAmount",
              "type": "uint256"
            }
          ],
          "stateMutability": "nonpayable",
          "type": "constructor"
        },
        {
          "inputs": [],
          "name": "ReentrancyGuardReentrantCall",
          "type": "error"
        },
        {
          "inputs": [
            {
              "internalType": "address",
              "name": "token",
              "type": "address"
            }
          ],
          "name": "SafeERC20FailedOperation",
          "type": "error"
        },
        {
          "anonymous": false,
          "inputs": [
            {
              "indexed": false,
              "internalType": "uint256",
              "name": "oldFee",
              "type": "uint256"
            },
            {
              "indexed": false,
              "internalType": "uint256",
              "name": "newFee",
              "type": "uint256"
            }
          ],
          "name": "FeeUpdated",
          "type": "event"
        },
        {
          "anonymous": false,
          "inputs": [
            {
              "indexed": false,
              "internalType": "uint256",
              "name": "amount",
              "type": "uint256"
            },
            {
              "indexed": false,
              "internalType": "address",
              "name": "recipient",
              "type": "address"
            }
          ],
          "name": "FeesWithdrawn",
          "type": "event"
        },
        {
          "anonymous": false,
          "inputs": [
            {
              "indexed": false,
              "internalType": "address",
              "name": "kol",
              "type": "address"
            },
            {
              "indexed": false,
              "internalType": "address",
              "name": "sender",
              "type": "address"
            },
            {
              "indexed": false,
              "internalType": "uint256",
              "name": "fee",
              "type": "uint256"
            }
          ],
          "name": "SwapExecuted",
          "type": "event"
        },
        {
          "inputs": [],
          "name": "dexRouter",
          "outputs": [
            {
              "internalType": "address",
              "name": "",
              "type": "address"
            }
          ],
          "stateMutability": "view",
          "type": "function"
        },
        {
          "inputs": [],
          "name": "factoryAddress",
          "outputs": [
            {
              "internalType": "address",
              "name": "",
              "type": "address"
            }
          ],
          "stateMutability": "view",
          "type": "function"
        },
        {
          "inputs": [],
          "name": "fixedFeeAmount",
          "outputs": [
            {
              "internalType": "uint256",
              "name": "",
              "type": "uint256"
            }
          ],
          "stateMutability": "view",
          "type": "function"
        },
        {
          "inputs": [],
          "name": "kolAddress",
          "outputs": [
            {
              "internalType": "address",
              "name": "",
              "type": "address"
            }
          ],
          "stateMutability": "view",
          "type": "function"
        },
        {
          "inputs": [
            {
              "internalType": "uint256",
              "name": "amountOut",
              "type": "uint256"
            },
            {
              "internalType": "address[]",
              "name": "path",
              "type": "address[]"
            },
            {
              "internalType": "address",
              "name": "to",
              "type": "address"
            },
            {
              "internalType": "uint256",
              "name": "deadline",
              "type": "uint256"
            }
          ],
          "name": "swapAVAXForExactTokens",
          "outputs": [
            {
              "internalType": "uint256[]",
              "name": "amounts",
              "type": "uint256[]"
            }
          ],
          "stateMutability": "payable",
          "type": "function"
        },
        {
          "inputs": [
            {
              "internalType": "uint256",
              "name": "amountOutMin",
              "type": "uint256"
            },
            {
              "internalType": "address[]",
              "name": "path",
              "type": "address[]"
            },
            {
              "internalType": "address",
              "name": "to",
              "type": "address"
            },
            {
              "internalType": "uint256",
              "name": "deadline",
              "type": "uint256"
            }
          ],
          "name": "swapExactAVAXForTokens",
          "outputs": [
            {
              "internalType": "uint256[]",
              "name": "amounts",
              "type": "uint256[]"
            }
          ],
          "stateMutability": "payable",
          "type": "function"
        },
        {
          "inputs": [
            {
              "internalType": "uint256",
              "name": "amountIn",
              "type": "uint256"
            },
            {
              "internalType": "uint256",
              "name": "amountOutMin",
              "type": "uint256"
            },
            {
              "internalType": "address[]",
              "name": "path",
              "type": "address[]"
            },
            {
              "internalType": "address",
              "name": "to",
              "type": "address"
            },
            {
              "internalType": "uint256",
              "name": "deadline",
              "type": "uint256"
            }
          ],
          "name": "swapExactTokensForAVAX",
          "outputs": [
            {
              "internalType": "uint256[]",
              "name": "amounts",
              "type": "uint256[]"
            }
          ],
          "stateMutability": "payable",
          "type": "function"
        },
        {
          "inputs": [
            {
              "internalType": "uint256",
              "name": "amountIn",
              "type": "uint256"
            },
            {
              "internalType": "uint256",
              "name": "amountOutMin",
              "type": "uint256"
            },
            {
              "internalType": "address[]",
              "name": "path",
              "type": "address[]"
            },
            {
              "internalType": "address",
              "name": "to",
              "type": "address"
            },
            {
              "internalType": "uint256",
              "name": "deadline",
              "type": "uint256"
            }
          ],
          "name": "swapExactTokensForTokens",
          "outputs": [
            {
              "internalType": "uint256[]",
              "name": "amounts",
              "type": "uint256[]"
            }
          ],
          "stateMutability": "payable",
          "type": "function"
        },
        {
          "inputs": [
            {
              "internalType": "uint256",
              "name": "amountOut",
              "type": "uint256"
            },
            {
              "internalType": "uint256",
              "name": "amountInMax",
              "type": "uint256"
            },
            {
              "internalType": "address[]",
              "name": "path",
              "type": "address[]"
            },
            {
              "internalType": "address",
              "name": "to",
              "type": "address"
            },
            {
              "internalType": "uint256",
              "name": "deadline",
              "type": "uint256"
            }
          ],
          "name": "swapTokensForExactAVAX",
          "outputs": [
            {
              "internalType": "uint256[]",
              "name": "amounts",
              "type": "uint256[]"
            }
          ],
          "stateMutability": "nonpayable",
          "type": "function"
        },
        {
          "inputs": [
            {
              "internalType": "uint256",
              "name": "amountOut",
              "type": "uint256"
            },
            {
              "internalType": "uint256",
              "name": "amountInMax",
              "type": "uint256"
            },
            {
              "internalType": "address[]",
              "name": "path",
              "type": "address[]"
            },
            {
              "internalType": "address",
              "name": "to",
              "type": "address"
            },
            {
              "internalType": "uint256",
              "name": "deadline",
              "type": "uint256"
            }
          ],
          "name": "swapTokensForExactTokens",
          "outputs": [
            {
              "internalType": "uint256[]",
              "name": "amounts",
              "type": "uint256[]"
            }
          ],
          "stateMutability": "payable",
          "type": "function"
        },
        {
          "inputs": [
            {
              "internalType": "uint256",
              "name": "_fixedFeeAmount",
              "type": "uint256"
            }
          ],
          "name": "updateFixedFee",
          "outputs": [],
          "stateMutability": "nonpayable",
          "type": "function"
        },
        {
          "inputs": [],
          "name": "withdrawFees",
          "outputs": [],
          "stateMutability": "nonpayable",
          "type": "function"
        },
        {
          "stateMutability": "payable",
          "type": "receive"
        }
      ],
      "evm": {
        "bytecode": {
          "linkReferences": {},
          "object": "608060405234801561001057600080fd5b5060405161158438038061158483398101604081905261002f9161019a565b6001600055838383836001600160a01b0384166100935760405162461bcd60e51b815260206004820152601360248201527f496e76616c6964204b4f4c20616464726573730000000000000000000000000060448201526064015b60405180910390fd5b6001600160a01b0383166100de5760405162461bcd60e51b815260206004820152601260248201527124b73b30b634b2102222ac103937baba32b960711b604482015260640161008a565b6001600160a01b0382166101345760405162461bcd60e51b815260206004820152601760248201527f496e76616c696420666163746f72792061646472657373000000000000000000604482015260640161008a565b600180546001600160a01b03199081166001600160a01b0396871617909155600380548216948616949094179093556002805490931691909316179055600455506101e592505050565b80516001600160a01b038116811461019557600080fd5b919050565b600080600080608085870312156101b057600080fd5b6101b98561017e565b93506101c76020860161017e565b92506101d56040860161017e565b6060959095015193969295505050565b611390806101f46000396000f3fe6080604052600436106100ab5760003560e01c80637a42416a116100645780637a42416a1461017e5780638803dbee1461019e5780638a657e67146101b1578063966dae0e146101c45780639ec9ac41146101e4578063a2a1623d1461020857600080fd5b80630758d924146100b757806337dad2bb146100f457806338ed173914610114578063476343ee14610134578063676528d11461014b57806373dd69981461015e57600080fd5b366100b257005b600080fd5b3480156100c357600080fd5b506003546100d7906001600160a01b031681565b6040516001600160a01b0390911681526020015b60405180910390f35b34801561010057600080fd5b506001546100d7906001600160a01b031681565b610127610122366004610f53565b61021b565b6040516100eb9190610fc5565b34801561014057600080fd5b506101496103fe565b005b610127610159366004610f53565b6105ac565b34801561016a57600080fd5b50610149610179366004611008565b6106cb565b34801561018a57600080fd5b50610127610199366004610f53565b6107ac565b6101276101ac366004610f53565b61092a565b6101276101bf366004611021565b610ade565b3480156101d057600080fd5b506002546100d7906001600160a01b031681565b3480156101f057600080fd5b506101fa60045481565b6040519081526020016100eb565b610127610216366004611021565b610ce3565b6060610225610df0565b346004548110156102515760405162461bcd60e51b815260040161024890611087565b60405180910390fd5b61029033308a8989600081811061026a5761026a6110d1565b905060200201602081019061027f91906110e7565b6001600160a01b0316929190610e1a565b858560008181106102a3576102a36110d1565b90506020020160208101906102b891906110e7565b60035460405163095ea7b360e01b81526001600160a01b039182166004820152602481018b905291169063095ea7b3906044016020604051808303816000875af115801561030a573d6000803e3d6000fd5b505050506040513d601f19601f8201168201806040525081019061032e9190611109565b506003546040516338ed173960e01b81526001600160a01b03909116906338ed173990610369908b908b908b908b908b908b90600401611173565b6000604051808303816000875af1158015610388573d6000803e3d6000fd5b505050506040513d6000823e601f3d908101601f191682016040526103b091908101906111c7565b60015460045460405192945060008051602061133b833981519152926103e1926001600160a01b0316913391611289565b60405180910390a1506103f46001600055565b9695505050505050565b6001546001600160a01b031633146104585760405162461bcd60e51b815260206004820152601f60248201527f4f6e6c79204b4f4c2063616e2063616c6c20746869732066756e6374696f6e006044820152606401610248565b610460610df0565b47806104a45760405162461bcd60e51b81526020600482015260136024820152724e6f206665657320746f20776974686472617760681b6044820152606401610248565b6001546040805160008082526020820192839052926001600160a01b03169184916104ce916112ad565b60006040518083038185875af1925050503d806000811461050b576040519150601f19603f3d011682016040523d82523d6000602084013e610510565b606091505b50509050806105595760405162461bcd60e51b8152602060048201526015602482015274119959481dda5d1a191c985dd85b0819985a5b1959605a1b6044820152606401610248565b600154604080518481526001600160a01b0390921660208301527f812bcf6853ebc81dc0a1d2323893eedad6cd086a4398311a699e0a7acdf187b3910160405180910390a150506105aa6001600055565b565b60606105b6610df0565b346004548110156105d95760405162461bcd60e51b815260040161024890611087565b6105f233308a8989600081811061026a5761026a6110d1565b85856000818110610605576106056110d1565b905060200201602081019061061a91906110e7565b60035460405163095ea7b360e01b81526001600160a01b039182166004820152602481018b905291169063095ea7b3906044016020604051808303816000875af115801561066c573d6000803e3d6000fd5b505050506040513d601f19601f820116820180604052508101906106909190611109565b5060035460405163676528d160e01b81526001600160a01b039091169063676528d190610369908b908b908b908b908b908b90600401611173565b6001546001600160a01b031633146107255760405162461bcd60e51b815260206004820152601f60248201527f4f6e6c79204b4f4c2063616e2063616c6c20746869732066756e6374696f6e006044820152606401610248565b806000036107675760405162461bcd60e51b815260206004820152600f60248201526e04665652063616e6e6f74206265203608c1b6044820152606401610248565b600480549082905560408051828152602081018490527f528d9479e9f9889a87a3c30c7f7ba537e5e59c4c85a37733b16e57c62df61302910160405180910390a15050565b60606107c73330888888600081811061026a5761026a6110d1565b848460008181106107da576107da6110d1565b90506020020160208101906107ef91906110e7565b60035460405163095ea7b360e01b81526001600160a01b0391821660048201526024810189905291169063095ea7b3906044016020604051808303816000875af1158015610841573d6000803e3d6000fd5b505050506040513d601f19601f820116820180604052508101906108659190611109565b50600354604051633d2120b560e11b81526001600160a01b0390911690637a42416a906108a0908a908a908a908a908a908a90600401611173565b6000604051808303816000875af11580156108bf573d6000803e3d6000fd5b505050506040513d6000823e601f3d908101601f191682016040526108e791908101906111c7565b60015460045460405192935060008051602061133b83398151915292610918926001600160a01b0316913391611289565b60405180910390a19695505050505050565b60603460045481101561094f5760405162461bcd60e51b815260040161024890611087565b610957610df0565b6109703330898989600081811061026a5761026a6110d1565b85856000818110610983576109836110d1565b905060200201602081019061099891906110e7565b60035460405163095ea7b360e01b81526001600160a01b039182166004820152602481018a905291169063095ea7b3906044016020604051808303816000875af11580156109ea573d6000803e3d6000fd5b505050506040513d601f19601f82011682018060405250810190610a0e9190611109565b50600354604051634401edf760e11b81526001600160a01b0390911690638803dbee90610a49908b908b908b908b908b908b90600401611173565b6000604051808303816000875af1158015610a68573d6000803e3d6000fd5b505050506040513d6000823e601f3d908101601f19168201604052610a9091908101906111c7565b60015460045460405192945060008051602061133b83398151915292610ac1926001600160a01b0316913391611289565b60405180910390a1610ad36001600055565b509695505050505050565b606034600454811015610b035760405162461bcd60e51b815260040161024890611087565b610b0b610df0565b600060045434610b1b91906112dc565b600354604051638a657e6760e01b81529192506001600160a01b031690638a657e67908390610b56908c908c908c908c908c90600401611303565b60006040518083038185885af1158015610b74573d6000803e3d6000fd5b50505050506040513d6000823e601f3d908101601f19168201604052610b9d91908101906111c7565b925082600081518110610bb257610bb26110d1565b6020026020010151811115610c95576000336001600160a01b031684600081518110610be057610be06110d1565b602002602001015183610bf391906112dc565b604051600081818185875af1925050503d8060008114610c2f576040519150601f19603f3d011682016040523d82523d6000602084013e610c34565b606091505b5050905080610c935760405162461bcd60e51b815260206004820152602560248201527f4b4f4c53776170526f757465723a20524546554e445f5452414e534645525f46604482015264105253115160da1b6064820152608401610248565b505b60015460045460405160008051602061133b83398151915292610cc6926001600160a01b0390911691339190611289565b60405180910390a150610cd96001600055565b5095945050505050565b6060610ced610df0565b34600454811015610d105760405162461bcd60e51b815260040161024890611087565b600060045434610d2091906112dc565b60035460405163a2a1623d60e01b81529192506001600160a01b03169063a2a1623d908390610d5b908c908c908c908c908c90600401611303565b60006040518083038185885af1158015610d79573d6000803e3d6000fd5b50505050506040513d6000823e601f3d908101601f19168201604052610da291908101906111c7565b60015460045460405192955060008051602061133b83398151915292610dd3926001600160a01b0316913391611289565b60405180910390a15050610de76001600055565b95945050505050565b600260005403610e1357604051633ee5aeb560e01b815260040160405180910390fd5b6002600055565b610e7484856001600160a01b03166323b872dd868686604051602401610e4293929190611289565b604051602081830303815290604052915060e01b6020820180516001600160e01b038381831617835250505050610e7a565b50505050565b600080602060008451602086016000885af180610e9d576040513d6000823e3d81fd5b50506000513d91508115610eb5578060011415610ec2565b6001600160a01b0384163b155b15610e7457604051635274afe760e01b81526001600160a01b0385166004820152602401610248565b60008083601f840112610efd57600080fd5b50813567ffffffffffffffff811115610f1557600080fd5b6020830191508360208260051b8501011115610f3057600080fd5b9250929050565b80356001600160a01b0381168114610f4e57600080fd5b919050565b60008060008060008060a08789031215610f6c57600080fd5b8635955060208701359450604087013567ffffffffffffffff811115610f9157600080fd5b610f9d89828a01610eeb565b9095509350610fb0905060608801610f37565b95989497509295919493608090920135925050565b602080825282518282018190526000918401906040840190835b81811015610ffd578351835260209384019390920191600101610fdf565b509095945050505050565b60006020828403121561101a57600080fd5b5035919050565b60008060008060006080868803121561103957600080fd5b85359450602086013567ffffffffffffffff81111561105757600080fd5b61106388828901610eeb565b9095509350611076905060408701610f37565b949793965091946060013592915050565b6020808252602a908201527f4b4f4c53776170526f757465723a20494e53554646494349454e545f4e41544960408201526956455f464f525f46454560b01b606082015260800190565b634e487b7160e01b600052603260045260246000fd5b6000602082840312156110f957600080fd5b61110282610f37565b9392505050565b60006020828403121561111b57600080fd5b8151801515811461110257600080fd5b81835260208301925060008160005b84811015611169576001600160a01b0361115383610f37565b168652602095860195919091019060010161113a565b5093949350505050565b86815285602082015260a06040820152600061119360a08301868861112b565b6001600160a01b039490941660608301525060800152949350505050565b634e487b7160e01b600052604160045260246000fd5b6000602082840312156111d957600080fd5b815167ffffffffffffffff8111156111f057600080fd5b8201601f8101841361120157600080fd5b805167ffffffffffffffff81111561121b5761121b6111b1565b8060051b604051601f19603f830116810181811067ffffffffffffffff82111715611248576112486111b1565b60405291825260208184018101929081018784111561126657600080fd5b6020850194505b83851015610ad35784518082526020958601959093500161126d565b6001600160a01b039384168152919092166020820152604081019190915260600190565b6000825160005b818110156112ce57602081860181015185830152016112b4565b506000920191825250919050565b818103818111156112fd57634e487b7160e01b600052601160045260246000fd5b92915050565b85815260806020820152600061131d60808301868861112b565b6001600160a01b039490941660408301525060600152939250505056febad29f2bbbf6bb1e15563203bcdb0dd660c54eab078763eb66f797efa8f5e8c1a26469706673582212201c6c0c7e9525730ea39e3756fdb178906080d6a4b12cb1d013ed848dfbd3e73964736f6c634300081d0033",
          "opcodes": "PUSH1 0x80 PUSH1 0x40 MSTORE CALLVALUE DUP1 ISZERO PUSH2 0x10 JUMPI PUSH1 0x0 DUP1 REVERT JUMPDEST POP PUSH1 0x40 MLOAD PUSH2 0x1584 CODESIZE SUB DUP1 PUSH2 0x1584 DUP4 CODECOPY DUP2 ADD PUSH1 0x40 DUP2 SWAP1 MSTORE PUSH2 0x2F SWAP2 PUSH2 0x19A JUMP JUMPDEST PUSH1 0x1 PUSH1 0x0 SSTORE DUP4 DUP4 DUP4 DUP4 PUSH1 0x1 PUSH1 0x1 PUSH1 0xA0 SHL SUB DUP5 AND PUSH2 0x93 JUMPI PUSH1 0x40 MLOAD PUSH3 0x461BCD PUSH1 0xE5 SHL DUP2 MSTORE PUSH1 0x20 PUSH1 0x4 DUP3 ADD MSTORE PUSH1 0x13 PUSH1 0x24 DUP3 ADD MSTORE PUSH32 0x496E76616C6964204B4F4C206164647265737300000000000000000000000000 PUSH1 0x44 DUP3 ADD MSTORE PUSH1 0x64 ADD JUMPDEST PUSH1 0x40 MLOAD DUP1 SWAP2 SUB SWAP1 REVERT JUMPDEST PUSH1 0x1 PUSH1 0x1 PUSH1 0xA0 SHL SUB DUP4 AND PUSH2 0xDE JUMPI PUSH1 0x40 MLOAD PUSH3 0x461BCD PUSH1 0xE5 SHL DUP2 MSTORE PUSH1 0x20 PUSH1 0x4 DUP3 ADD MSTORE PUSH1 0x12 PUSH1 0x24 DUP3 ADD MSTORE PUSH18 0x24B73B30B634B2102222AC103937BABA32B9 PUSH1 0x71 SHL PUSH1 0x44 DUP3 ADD MSTORE PUSH1 0x64 ADD PUSH2 0x8A JUMP JUMPDEST PUSH1 0x1 PUSH1 0x1 PUSH1 0xA0 SHL SUB DUP3 AND PUSH2 0x134 JUMPI PUSH1 0x40 MLOAD PUSH3 0x461BCD PUSH1 0xE5 SHL DUP2 MSTORE PUSH1 0x20 PUSH1 0x4 DUP3 ADD MSTORE PUSH1 0x17 PUSH1 0x24 DUP3 ADD MSTORE PUSH32 0x496E76616C696420666163746F72792061646472657373000000000000000000 PUSH1 0x44 DUP3 ADD MSTORE PUSH1 0x64 ADD PUSH2 0x8A JUMP JUMPDEST PUSH1 0x1 DUP1 SLOAD PUSH1 0x1 PUSH1 0x1 PUSH1 0xA0 SHL SUB NOT SWAP1 DUP2 AND PUSH1 0x1 PUSH1 0x1 PUSH1 0xA0 SHL SUB SWAP7 DUP8 AND OR SWAP1 SWAP2 SSTORE PUSH1 0x3 DUP1 SLOAD DUP3 AND SWAP5 DUP7 AND SWAP5 SWAP1 SWAP5 OR SWAP1 SWAP4 SSTORE PUSH1 0x2 DUP1 SLOAD SWAP1 SWAP4 AND SWAP2 SWAP1 SWAP4 AND OR SWAP1 SSTORE PUSH1 0x4 SSTORE POP PUSH2 0x1E5 SWAP3 POP POP POP JUMP JUMPDEST DUP1 MLOAD PUSH1 0x1 PUSH1 0x1 PUSH1 0xA0 SHL SUB DUP2 AND DUP2 EQ PUSH2 0x195 JUMPI PUSH1 0x0 DUP1 REVERT JUMPDEST SWAP2 SWAP1 POP JUMP JUMPDEST PUSH1 0x0 DUP1 PUSH1 0x0 DUP1 PUSH1 0x80 DUP6 DUP8 SUB SLT ISZERO PUSH2 0x1B0 JUMPI PUSH1 0x0 DUP1 REVERT JUMPDEST PUSH2 0x1B9 DUP6 PUSH2 0x17E JUMP JUMPDEST SWAP4 POP PUSH2 0x1C7 PUSH1 0x20 DUP7 ADD PUSH2 0x17E JUMP JUMPDEST SWAP3 POP PUSH2 0x1D5 PUSH1 0x40 DUP7 ADD PUSH2 0x17E JUMP JUMPDEST PUSH1 0x60 SWAP6 SWAP1 SWAP6 ADD MLOAD SWAP4 SWAP7 SWAP3 SWAP6 POP POP POP JUMP JUMPDEST PUSH2 0x1390 DUP1 PUSH2 0x1F4 PUSH1 0x0 CODECOPY PUSH1 0x0 RETURN INVALID PUSH1 0x80 PUSH1 0x40 MSTORE PUSH1 0x4 CALLDATASIZE LT PUSH2 0xAB JUMPI PUSH1 0x0 CALLDATALOAD PUSH1 0xE0 SHR DUP1 PUSH4 0x7A42416A GT PUSH2 0x64 JUMPI DUP1 PUSH4 0x7A42416A EQ PUSH2 0x17E JUMPI DUP1 PUSH4 0x8803DBEE EQ PUSH2 0x19E JUMPI DUP1 PUSH4 0x8A657E67 EQ PUSH2 0x1B1 JUMPI DUP1 PUSH4 0x966DAE0E EQ PUSH2 0x1C4 JUMPI DUP1 PUSH4 0x9EC9AC41 EQ PUSH2 0x1E4 JUMPI DUP1 PUSH4 0xA2A1623D EQ PUSH2 0x208 JUMPI PUSH1 0x0 DUP1 REVERT JUMPDEST DUP1 PUSH4 0x758D924 EQ PUSH2 0xB7 JUMPI DUP1 PUSH4 0x37DAD2BB EQ PUSH2 0xF4 JUMPI DUP1 PUSH4 0x38ED1739 EQ PUSH2 0x114 JUMPI DUP1 PUSH4 0x476343EE EQ PUSH2 0x134 JUMPI DUP1 PUSH4 0x676528D1 EQ PUSH2 0x14B JUMPI DUP1 PUSH4 0x73DD6998 EQ PUSH2 0x15E JUMPI PUSH1 0x0 DUP1 REVERT JUMPDEST CALLDATASIZE PUSH2 0xB2 JUMPI STOP JUMPDEST PUSH1 0x0 DUP1 REVERT JUMPDEST CALLVALUE DUP1 ISZERO PUSH2 0xC3 JUMPI PUSH1 0x0 DUP1 REVERT JUMPDEST POP PUSH1 0x3 SLOAD PUSH2 0xD7 SWAP1 PUSH1 0x1 PUSH1 0x1 PUSH1 0xA0 SHL SUB AND DUP2 JUMP JUMPDEST PUSH1 0x40 MLOAD PUSH1 0x1 PUSH1 0x1 PUSH1 0xA0 SHL SUB SWAP1 SWAP2 AND DUP2 MSTORE PUSH1 0x20 ADD JUMPDEST PUSH1 0x40 MLOAD DUP1 SWAP2 SUB SWAP1 RETURN JUMPDEST CALLVALUE DUP1 ISZERO PUSH2 0x100 JUMPI PUSH1 0x0 DUP1 REVERT JUMPDEST POP PUSH1 0x1 SLOAD PUSH2 0xD7 SWAP1 PUSH1 0x1 PUSH1 0x1 PUSH1 0xA0 SHL SUB AND DUP2 JUMP JUMPDEST PUSH2 0x127 PUSH2 0x122 CALLDATASIZE PUSH1 0x4 PUSH2 0xF53 JUMP JUMPDEST PUSH2 0x21B JUMP JUMPDEST PUSH1 0x40 MLOAD PUSH2 0xEB SWAP2 SWAP1 PUSH2 0xFC5 JUMP JUMPDEST CALLVALUE DUP1 ISZERO PUSH2 0x140 JUMPI PUSH1 0x0 DUP1 REVERT JUMPDEST POP PUSH2 0x149 PUSH2 0x3FE JUMP JUMPDEST STOP JUMPDEST PUSH2 0x127 PUSH2 0x159 CALLDATASIZE PUSH1 0x4 PUSH2 0xF53 JUMP JUMPDEST PUSH2 0x5AC JUMP JUMPDEST CALLVALUE DUP1 ISZERO PUSH2 0x16A JUMPI PUSH1 0x0 DUP1 REVERT JUMPDEST POP PUSH2 0x149 PUSH2 0x179 CALLDATASIZE PUSH1 0x4 PUSH2 0x1008 JUMP JUMPDEST PUSH2 0x6CB JUMP JUMPDEST CALLVALUE DUP1 ISZERO PUSH2 0x18A JUMPI PUSH1 0x0 DUP1 REVERT JUMPDEST POP PUSH2 0x127 PUSH2 0x199 CALLDATASIZE PUSH1 0x4 PUSH2 0xF53 JUMP JUMPDEST PUSH2 0x7AC JUMP JUMPDEST PUSH2 0x127 PUSH2 0x1AC CALLDATASIZE PUSH1 0x4 PUSH2 0xF53 JUMP JUMPDEST PUSH2 0x92A JUMP JUMPDEST PUSH2 0x127 PUSH2 0x1BF CALLDATASIZE PUSH1 0x4 PUSH2 0x1021 JUMP JUMPDEST PUSH2 0xADE JUMP JUMPDEST CALLVALUE DUP1 ISZERO PUSH2 0x1D0 JUMPI PUSH1 0x0 DUP1 REVERT JUMPDEST POP PUSH1 0x2 SLOAD PUSH2 0xD7 SWAP1 PUSH1 0x1 PUSH1 0x1 PUSH1 0xA0 SHL SUB AND DUP2 JUMP JUMPDEST CALLVALUE DUP1 ISZERO PUSH2 0x1F0 JUMPI PUSH1 0x0 DUP1 REVERT JUMPDEST POP PUSH2 0x1FA PUSH1 0x4 SLOAD DUP2 JUMP JUMPDEST PUSH1 0x40 MLOAD SWAP1 DUP2 MSTORE PUSH1 0x20 ADD PUSH2 0xEB JUMP JUMPDEST PUSH2 0x127 PUSH2 0x216 CALLDATASIZE PUSH1 0x4 PUSH2 0x1021 JUMP JUMPDEST PUSH2 0xCE3 JUMP JUMPDEST PUSH1 0x60 PUSH2 0x225 PUSH2 0xDF0 JUMP JUMPDEST CALLVALUE PUSH1 0x4 SLOAD DUP2 LT ISZERO PUSH2 0x251 JUMPI PUSH1 0x40 MLOAD PUSH3 0x461BCD PUSH1 0xE5 SHL DUP2 MSTORE PUSH1 0x4 ADD PUSH2 0x248 SWAP1 PUSH2 0x1087 JUMP JUMPDEST PUSH1 0x40 MLOAD DUP1 SWAP2 SUB SWAP1 REVERT JUMPDEST PUSH2 0x290 CALLER ADDRESS DUP11 DUP10 DUP10 PUSH1 0x0 DUP2 DUP2 LT PUSH2 0x26A JUMPI PUSH2 0x26A PUSH2 0x10D1 JUMP JUMPDEST SWAP1 POP PUSH1 0x20 MUL ADD PUSH1 0x20 DUP2 ADD SWAP1 PUSH2 0x27F SWAP2 SWAP1 PUSH2 0x10E7 JUMP JUMPDEST PUSH1 0x1 PUSH1 0x1 PUSH1 0xA0 SHL SUB AND SWAP3 SWAP2 SWAP1 PUSH2 0xE1A JUMP JUMPDEST DUP6 DUP6 PUSH1 0x0 DUP2 DUP2 LT PUSH2 0x2A3 JUMPI PUSH2 0x2A3 PUSH2 0x10D1 JUMP JUMPDEST SWAP1 POP PUSH1 0x20 MUL ADD PUSH1 0x20 DUP2 ADD SWAP1 PUSH2 0x2B8 SWAP2 SWAP1 PUSH2 0x10E7 JUMP JUMPDEST PUSH1 0x3 SLOAD PUSH1 0x40 MLOAD PUSH4 0x95EA7B3 PUSH1 0xE0 SHL DUP2 MSTORE PUSH1 0x1 PUSH1 0x1 PUSH1 0xA0 SHL SUB SWAP2 DUP3 AND PUSH1 0x4 DUP3 ADD MSTORE PUSH1 0x24 DUP2 ADD DUP12 SWAP1 MSTORE SWAP2 AND SWAP1 PUSH4 0x95EA7B3 SWAP1 PUSH1 0x44 ADD PUSH1 0x20 PUSH1 0x40 MLOAD DUP1 DUP4 SUB DUP2 PUSH1 0x0 DUP8 GAS CALL ISZERO DUP1 ISZERO PUSH2 0x30A JUMPI RETURNDATASIZE PUSH1 0x0 DUP1 RETURNDATACOPY RETURNDATASIZE PUSH1 0x0 REVERT JUMPDEST POP POP POP POP PUSH1 0x40 MLOAD RETURNDATASIZE PUSH1 0x1F NOT PUSH1 0x1F DUP3 ADD AND DUP3 ADD DUP1 PUSH1 0x40 MSTORE POP DUP2 ADD SWAP1 PUSH2 0x32E SWAP2 SWAP1 PUSH2 0x1109 JUMP JUMPDEST POP PUSH1 0x3 SLOAD PUSH1 0x40 MLOAD PUSH4 0x38ED1739 PUSH1 0xE0 SHL DUP2 MSTORE PUSH1 0x1 PUSH1 0x1 PUSH1 0xA0 SHL SUB SWAP1 SWAP2 AND SWAP1 PUSH4 0x38ED1739 SWAP1 PUSH2 0x369 SWAP1 DUP12 SWAP1 DUP12 SWAP1 DUP12 SWAP1 DUP12 SWAP1 DUP12 SWAP1 DUP12 SWAP1 PUSH1 0x4 ADD PUSH2 0x1173 JUMP JUMPDEST PUSH1 0x0 PUSH1 0x40 MLOAD DUP1 DUP4 SUB DUP2 PUSH1 0x0 DUP8 GAS CALL ISZERO DUP1 ISZERO PUSH2 0x388 JUMPI RETURNDATASIZE PUSH1 0x0 DUP1 RETURNDATACOPY RETURNDATASIZE PUSH1 0x0 REVERT JUMPDEST POP POP POP POP PUSH1 0x40 MLOAD RETURNDATASIZE PUSH1 0x0 DUP3 RETURNDATACOPY PUSH1 0x1F RETURNDATASIZE SWAP1 DUP2 ADD PUSH1 0x1F NOT AND DUP3 ADD PUSH1 0x40 MSTORE PUSH2 0x3B0 SWAP2 SWAP1 DUP2 ADD SWAP1 PUSH2 0x11C7 JUMP JUMPDEST PUSH1 0x1 SLOAD PUSH1 0x4 SLOAD PUSH1 0x40 MLOAD SWAP3 SWAP5 POP PUSH1 0x0 DUP1 MLOAD PUSH1 0x20 PUSH2 0x133B DUP4 CODECOPY DUP2 MLOAD SWAP2 MSTORE SWAP3 PUSH2 0x3E1 SWAP3 PUSH1 0x1 PUSH1 0x1 PUSH1 0xA0 SHL SUB AND SWAP2 CALLER SWAP2 PUSH2 0x1289 JUMP JUMPDEST PUSH1 0x40 MLOAD DUP1 SWAP2 SUB SWAP1 LOG1 POP PUSH2 0x3F4 PUSH1 0x1 PUSH1 0x0 SSTORE JUMP JUMPDEST SWAP7 SWAP6 POP POP POP POP POP POP JUMP JUMPDEST PUSH1 0x1 SLOAD PUSH1 0x1 PUSH1 0x1 PUSH1 0xA0 SHL SUB AND CALLER EQ PUSH2 0x458 JUMPI PUSH1 0x40 MLOAD PUSH3 0x461BCD PUSH1 0xE5 SHL DUP2 MSTORE PUSH1 0x20 PUSH1 0x4 DUP3 ADD MSTORE PUSH1 0x1F PUSH1 0x24 DUP3 ADD MSTORE PUSH32 0x4F6E6C79204B4F4C2063616E2063616C6C20746869732066756E6374696F6E00 PUSH1 0x44 DUP3 ADD MSTORE PUSH1 0x64 ADD PUSH2 0x248 JUMP JUMPDEST PUSH2 0x460 PUSH2 0xDF0 JUMP JUMPDEST SELFBALANCE DUP1 PUSH2 0x4A4 JUMPI PUSH1 0x40 MLOAD PUSH3 0x461BCD PUSH1 0xE5 SHL DUP2 MSTORE PUSH1 0x20 PUSH1 0x4 DUP3 ADD MSTORE PUSH1 0x13 PUSH1 0x24 DUP3 ADD MSTORE PUSH19 0x4E6F206665657320746F207769746864726177 PUSH1 0x68 SHL PUSH1 0x44 DUP3 ADD MSTORE PUSH1 0x64 ADD PUSH2 0x248 JUMP JUMPDEST PUSH1 0x1 SLOAD PUSH1 0x40 DUP1 MLOAD PUSH1 0x0 DUP1 DUP3 MSTORE PUSH1 0x20 DUP3 ADD SWAP3 DUP4 SWAP1 MSTORE SWAP3 PUSH1 0x1 PUSH1 0x1 PUSH1 0xA0 SHL SUB AND SWAP2 DUP5 SWAP2 PUSH2 0x4CE SWAP2 PUSH2 0x12AD JUMP JUMPDEST PUSH1 0x0 PUSH1 0x40 MLOAD DUP1 DUP4 SUB DUP2 DUP6 DUP8 GAS CALL SWAP3 POP POP POP RETURNDATASIZE DUP1 PUSH1 0x0 DUP2 EQ PUSH2 0x50B JUMPI PUSH1 0x40 MLOAD SWAP2 POP PUSH1 0x1F NOT PUSH1 0x3F RETURNDATASIZE ADD AND DUP3 ADD PUSH1 0x40 MSTORE RETURNDATASIZE DUP3 MSTORE RETURNDATASIZE PUSH1 0x0 PUSH1 0x20 DUP5 ADD RETURNDATACOPY PUSH2 0x510 JUMP JUMPDEST PUSH1 0x60 SWAP2 POP JUMPDEST POP POP SWAP1 POP DUP1 PUSH2 0x559 JUMPI PUSH1 0x40 MLOAD PUSH3 0x461BCD PUSH1 0xE5 SHL DUP2 MSTORE PUSH1 0x20 PUSH1 0x4 DUP3 ADD MSTORE PUSH1 0x15 PUSH1 0x24 DUP3 ADD MSTORE PUSH21 0x119959481DDA5D1A191C985DD85B0819985A5B1959 PUSH1 0x5A SHL PUSH1 0x44 DUP3 ADD MSTORE PUSH1 0x64 ADD PUSH2 0x248 JUMP JUMPDEST PUSH1 0x1 SLOAD PUSH1 0x40 DUP1 MLOAD DUP5 DUP2 MSTORE PUSH1 0x1 PUSH1 0x1 PUSH1 0xA0 SHL SUB SWAP1 SWAP3 AND PUSH1 0x20 DUP4 ADD MSTORE PUSH32 0x812BCF6853EBC81DC0A1D2323893EEDAD6CD086A4398311A699E0A7ACDF187B3 SWAP2 ADD PUSH1 0x40 MLOAD DUP1 SWAP2 SUB SWAP1 LOG1 POP POP PUSH2 0x5AA PUSH1 0x1 PUSH1 0x0 SSTORE JUMP JUMPDEST JUMP JUMPDEST PUSH1 0x60 PUSH2 0x5B6 PUSH2 0xDF0 JUMP JUMPDEST CALLVALUE PUSH1 0x4 SLOAD DUP2 LT ISZERO PUSH2 0x5D9 JUMPI PUSH1 0x40 MLOAD PUSH3 0x461BCD PUSH1 0xE5 SHL DUP2 MSTORE PUSH1 0x4 ADD PUSH2 0x248 SWAP1 PUSH2 0x1087 JUMP JUMPDEST PUSH2 0x5F2 CALLER ADDRESS DUP11 DUP10 DUP10 PUSH1 0x0 DUP2 DUP2 LT PUSH2 0x26A JUMPI PUSH2 0x26A PUSH2 0x10D1 JUMP JUMPDEST DUP6 DUP6 PUSH1 0x0 DUP2 DUP2 LT PUSH2 0x605 JUMPI PUSH2 0x605 PUSH2 0x10D1 JUMP JUMPDEST SWAP1 POP PUSH1 0x20 MUL ADD PUSH1 0x20 DUP2 ADD SWAP1 PUSH2 0x61A SWAP2 SWAP1 PUSH2 0x10E7 JUMP JUMPDEST PUSH1 0x3 SLOAD PUSH1 0x40 MLOAD PUSH4 0x95EA7B3 PUSH1 0xE0 SHL DUP2 MSTORE PUSH1 0x1 PUSH1 0x1 PUSH1 0xA0 SHL SUB SWAP2 DUP3 AND PUSH1 0x4 DUP3 ADD MSTORE PUSH1 0x24 DUP2 ADD DUP12 SWAP1 MSTORE SWAP2 AND SWAP1 PUSH4 0x95EA7B3 SWAP1 PUSH1 0x44 ADD PUSH1 0x20 PUSH1 0x40 MLOAD DUP1 DUP4 SUB DUP2 PUSH1 0x0 DUP8 GAS CALL ISZERO DUP1 ISZERO PUSH2 0x66C JUMPI RETURNDATASIZE PUSH1 0x0 DUP1 RETURNDATACOPY RETURNDATASIZE PUSH1 0x0 REVERT JUMPDEST POP POP POP POP PUSH1 0x40 MLOAD RETURNDATASIZE PUSH1 0x1F NOT PUSH1 0x1F DUP3 ADD AND DUP3 ADD DUP1 PUSH1 0x40 MSTORE POP DUP2 ADD SWAP1 PUSH2 0x690 SWAP2 SWAP1 PUSH2 0x1109 JUMP JUMPDEST POP PUSH1 0x3 SLOAD PUSH1 0x40 MLOAD PUSH4 0x676528D1 PUSH1 0xE0 SHL DUP2 MSTORE PUSH1 0x1 PUSH1 0x1 PUSH1 0xA0 SHL SUB SWAP1 SWAP2 AND SWAP1 PUSH4 0x676528D1 SWAP1 PUSH2 0x369 SWAP1 DUP12 SWAP1 DUP12 SWAP1 DUP12 SWAP1 DUP12 SWAP1 DUP12 SWAP1 DUP12 SWAP1 PUSH1 0x4 ADD PUSH2 0x1173 JUMP JUMPDEST PUSH1 0x1 SLOAD PUSH1 0x1 PUSH1 0x1 PUSH1 0xA0 SHL SUB AND CALLER EQ PUSH2 0x725 JUMPI PUSH1 0x40 MLOAD PUSH3 0x461BCD PUSH1 0xE5 SHL DUP2 MSTORE PUSH1 0x20 PUSH1 0x4 DUP3 ADD MSTORE PUSH1 0x1F PUSH1 0x24 DUP3 ADD MSTORE PUSH32 0x4F6E6C79204B4F4C2063616E2063616C6C20746869732066756E6374696F6E00 PUSH1 0x44 DUP3 ADD MSTORE PUSH1 0x64 ADD PUSH2 0x248 JUMP JUMPDEST DUP1 PUSH1 0x0 SUB PUSH2 0x767 JUMPI PUSH1 0x40 MLOAD PUSH3 0x461BCD PUSH1 0xE5 SHL DUP2 MSTORE PUSH1 0x20 PUSH1 0x4 DUP3 ADD MSTORE PUSH1 0xF PUSH1 0x24 DUP3 ADD MSTORE PUSH15 0x4665652063616E6E6F74206265203 PUSH1 0x8C SHL PUSH1 0x44 DUP3 ADD MSTORE PUSH1 0x64 ADD PUSH2 0x248 JUMP JUMPDEST PUSH1 0x4 DUP1 SLOAD SWAP1 DUP3 SWAP1 SSTORE PUSH1 0x40 DUP1 MLOAD DUP3 DUP2 MSTORE PUSH1 0x20 DUP2 ADD DUP5 SWAP1 MSTORE PUSH32 0x528D9479E9F9889A87A3C30C7F7BA537E5E59C4C85A37733B16E57C62DF61302 SWAP2 ADD PUSH1 0x40 MLOAD DUP1 SWAP2 SUB SWAP1 LOG1 POP POP JUMP JUMPDEST PUSH1 0x60 PUSH2 0x7C7 CALLER ADDRESS DUP9 DUP9 DUP9 PUSH1 0x0 DUP2 DUP2 LT PUSH2 0x26A JUMPI PUSH2 0x26A PUSH2 0x10D1 JUMP JUMPDEST DUP5 DUP5 PUSH1 0x0 DUP2 DUP2 LT PUSH2 0x7DA JUMPI PUSH2 0x7DA PUSH2 0x10D1 JUMP JUMPDEST SWAP1 POP PUSH1 0x20 MUL ADD PUSH1 0x20 DUP2 ADD SWAP1 PUSH2 0x7EF SWAP2 SWAP1 PUSH2 0x10E7 JUMP JUMPDEST PUSH1 0x3 SLOAD PUSH1 0x40 MLOAD PUSH4 0x95EA7B3 PUSH1 0xE0 SHL DUP2 MSTORE PUSH1 0x1 PUSH1 0x1 PUSH1 0xA0 SHL SUB SWAP2 DUP3 AND PUSH1 0x4 DUP3 ADD MSTORE PUSH1 0x24 DUP2 ADD DUP10 SWAP1 MSTORE SWAP2 AND SWAP1 PUSH4 0x95EA7B3 SWAP1 PUSH1 0x44 ADD PUSH1 0x20 PUSH1 0x40 MLOAD DUP1 DUP4 SUB DUP2 PUSH1 0x0 DUP8 GAS CALL ISZERO DUP1 ISZERO PUSH2 0x841 JUMPI RETURNDATASIZE PUSH1 0x0 DUP1 RETURNDATACOPY RETURNDATASIZE PUSH1 0x0 REVERT JUMPDEST POP POP POP POP PUSH1 0x40 MLOAD RETURNDATASIZE PUSH1 0x1F NOT PUSH1 0x1F DUP3 ADD AND DUP3 ADD DUP1 PUSH1 0x40 MSTORE POP DUP2 ADD SWAP1 PUSH2 0x865 SWAP2 SWAP1 PUSH2 0x1109 JUMP JUMPDEST POP PUSH1 0x3 SLOAD PUSH1 0x40 MLOAD PUSH4 0x3D2120B5 PUSH1 0xE1 SHL DUP2 MSTORE PUSH1 0x1 PUSH1 0x1 PUSH1 0xA0 SHL SUB SWAP1 SWAP2 AND SWAP1 PUSH4 0x7A42416A SWAP1 PUSH2 0x8A0 SWAP1 DUP11 SWAP1 DUP11 SWAP1 DUP11 SWAP1 DUP11 SWAP1 DUP11 SWAP1 DUP11 SWAP1 PUSH1 0x4 ADD PUSH2 0x1173 JUMP JUMPDEST PUSH1 0x0 PUSH1 0x40 MLOAD DUP1 DUP4 SUB DUP2 PUSH1 0x0 DUP8 GAS CALL ISZERO DUP1 ISZERO PUSH2 0x8BF JUMPI RETURNDATASIZE PUSH1 0x0 DUP1 RETURNDATACOPY RETURNDATASIZE PUSH1 0x0 REVERT JUMPDEST POP POP POP POP PUSH1 0x40 MLOAD RETURNDATASIZE PUSH1 0x0 DUP3 RETURNDATACOPY PUSH1 0x1F RETURNDATASIZE SWAP1 DUP2 ADD PUSH1 0x1F NOT AND DUP3 ADD PUSH1 0x40 MSTORE PUSH2 0x8E7 SWAP2 SWAP1 DUP2 ADD SWAP1 PUSH2 0x11C7 JUMP JUMPDEST PUSH1 0x1 SLOAD PUSH1 0x4 SLOAD PUSH1 0x40 MLOAD SWAP3 SWAP4 POP PUSH1 0x0 DUP1 MLOAD PUSH1 0x20 PUSH2 0x133B DUP4 CODECOPY DUP2 MLOAD SWAP2 MSTORE SWAP3 PUSH2 0x918 SWAP3 PUSH1 0x1 PUSH1 0x1 PUSH1 0xA0 SHL SUB AND SWAP2 CALLER SWAP2 PUSH2 0x1289 JUMP JUMPDEST PUSH1 0x40 MLOAD DUP1 SWAP2 SUB SWAP1 LOG1 SWAP7 SWAP6 POP POP POP POP POP POP JUMP JUMPDEST PUSH1 0x60 CALLVALUE PUSH1 0x4 SLOAD DUP2 LT ISZERO PUSH2 0x94F JUMPI PUSH1 0x40 MLOAD PUSH3 0x461BCD PUSH1 0xE5 SHL DUP2 MSTORE PUSH1 0x4 ADD PUSH2 0x248 SWAP1 PUSH2 0x1087 JUMP JUMPDEST PUSH2 0x957 PUSH2 0xDF0 JUMP JUMPDEST PUSH2 0x970 CALLER ADDRESS DUP10 DUP10 DUP10 PUSH1 0x0 DUP2 DUP2 LT PUSH2 0x26A JUMPI PUSH2 0x26A PUSH2 0x10D1 JUMP JUMPDEST DUP6 DUP6 PUSH1 0x0 DUP2 DUP2 LT PUSH2 0x983 JUMPI PUSH2 0x983 PUSH2 0x10D1 JUMP JUMPDEST SWAP1 POP PUSH1 0x20 MUL ADD PUSH1 0x20 DUP2 ADD SWAP1 PUSH2 0x998 SWAP2 SWAP1 PUSH2 0x10E7 JUMP JUMPDEST PUSH1 0x3 SLOAD PUSH1 0x40 MLOAD PUSH4 0x95EA7B3 PUSH1 0xE0 SHL DUP2 MSTORE PUSH1 0x1 PUSH1 0x1 PUSH1 0xA0 SHL SUB SWAP2 DUP3 AND PUSH1 0x4 DUP3 ADD MSTORE PUSH1 0x24 DUP2 ADD DUP11 SWAP1 MSTORE SWAP2 AND SWAP1 PUSH4 0x95EA7B3 SWAP1 PUSH1 0x44 ADD PUSH1 0x20 PUSH1 0x40 MLOAD DUP1 DUP4 SUB DUP2 PUSH1 0x0 DUP8 GAS CALL ISZERO DUP1 ISZERO PUSH2 0x9EA JUMPI RETURNDATASIZE PUSH1 0x0 DUP1 RETURNDATACOPY RETURNDATASIZE PUSH1 0x0 REVERT JUMPDEST POP POP POP POP PUSH1 0x40 MLOAD RETURNDATASIZE PUSH1 0x1F NOT PUSH1 0x1F DUP3 ADD AND DUP3 ADD DUP1 PUSH1 0x40 MSTORE POP DUP2 ADD SWAP1 PUSH2 0xA0E SWAP2 SWAP1 PUSH2 0x1109 JUMP JUMPDEST POP PUSH1 0x3 SLOAD PUSH1 0x40 MLOAD PUSH4 0x4401EDF7 PUSH1 0xE1 SHL DUP2 MSTORE PUSH1 0x1 PUSH1 0x1 PUSH1 0xA0 SHL SUB SWAP1 SWAP2 AND SWAP1 PUSH4 0x8803DBEE SWAP1 PUSH2 0xA49 SWAP1 DUP12 SWAP1 DUP12 SWAP1 DUP12 SWAP1 DUP12 SWAP1 DUP12 SWAP1 DUP12 SWAP1 PUSH1 0x4 ADD PUSH2 0x1173 JUMP JUMPDEST PUSH1 0x0 PUSH1 0x40 MLOAD DUP1 DUP4 SUB DUP2 PUSH1 0x0 DUP8 GAS CALL ISZERO DUP1 ISZERO PUSH2 0xA68 JUMPI RETURNDATASIZE PUSH1 0x0 DUP1 RETURNDATACOPY RETURNDATASIZE PUSH1 0x0 REVERT JUMPDEST POP POP POP POP PUSH1 0x40 MLOAD RETURNDATASIZE PUSH1 0x0 DUP3 RETURNDATACOPY PUSH1 0x1F RETURNDATASIZE SWAP1 DUP2 ADD PUSH1 0x1F NOT AND DUP3 ADD PUSH1 0x40 MSTORE PUSH2 0xA90 SWAP2 SWAP1 DUP2 ADD SWAP1 PUSH2 0x11C7 JUMP JUMPDEST PUSH1 0x1 SLOAD PUSH1 0x4 SLOAD PUSH1 0x40 MLOAD SWAP3 SWAP5 POP PUSH1 0x0 DUP1 MLOAD PUSH1 0x20 PUSH2 0x133B DUP4 CODECOPY DUP2 MLOAD SWAP2 MSTORE SWAP3 PUSH2 0xAC1 SWAP3 PUSH1 0x1 PUSH1 0x1 PUSH1 0xA0 SHL SUB AND SWAP2 CALLER SWAP2 PUSH2 0x1289 JUMP JUMPDEST PUSH1 0x40 MLOAD DUP1 SWAP2 SUB SWAP1 LOG1 PUSH2 0xAD3 PUSH1 0x1 PUSH1 0x0 SSTORE JUMP JUMPDEST POP SWAP7 SWAP6 POP POP POP POP POP POP JUMP JUMPDEST PUSH1 0x60 CALLVALUE PUSH1 0x4 SLOAD DUP2 LT ISZERO PUSH2 0xB03 JUMPI PUSH1 0x40 MLOAD PUSH3 0x461BCD PUSH1 0xE5 SHL DUP2 MSTORE PUSH1 0x4 ADD PUSH2 0x248 SWAP1 PUSH2 0x1087 JUMP JUMPDEST PUSH2 0xB0B PUSH2 0xDF0 JUMP JUMPDEST PUSH1 0x0 PUSH1 0x4 SLOAD CALLVALUE PUSH2 0xB1B SWAP2 SWAP1 PUSH2 0x12DC JUMP JUMPDEST PUSH1 0x3 SLOAD PUSH1 0x40 MLOAD PUSH4 0x8A657E67 PUSH1 0xE0 SHL DUP2 MSTORE SWAP2 SWAP3 POP PUSH1 0x1 PUSH1 0x1 PUSH1 0xA0 SHL SUB AND SWAP1 PUSH4 0x8A657E67 SWAP1 DUP4 SWAP1 PUSH2 0xB56 SWAP1 DUP13 SWAP1 DUP13 SWAP1 DUP13 SWAP1 DUP13 SWAP1 DUP13 SWAP1 PUSH1 0x4 ADD PUSH2 0x1303 JUMP JUMPDEST PUSH1 0x0 PUSH1 0x40 MLOAD DUP1 DUP4 SUB DUP2 DUP6 DUP9 GAS CALL ISZERO DUP1 ISZERO PUSH2 0xB74 JUMPI RETURNDATASIZE PUSH1 0x0 DUP1 RETURNDATACOPY RETURNDATASIZE PUSH1 0x0 REVERT JUMPDEST POP POP POP POP POP PUSH1 0x40 MLOAD RETURNDATASIZE PUSH1 0x0 DUP3 RETURNDATACOPY PUSH1 0x1F RETURNDATASIZE SWAP1 DUP2 ADD PUSH1 0x1F NOT AND DUP3 ADD PUSH1 0x40 MSTORE PUSH2 0xB9D SWAP2 SWAP1 DUP2 ADD SWAP1 PUSH2 0x11C7 JUMP JUMPDEST SWAP3 POP DUP3 PUSH1 0x0 DUP2 MLOAD DUP2 LT PUSH2 0xBB2 JUMPI PUSH2 0xBB2 PUSH2 0x10D1 JUMP JUMPDEST PUSH1 0x20 MUL PUSH1 0x20 ADD ADD MLOAD DUP2 GT ISZERO PUSH2 0xC95 JUMPI PUSH1 0x0 CALLER PUSH1 0x1 PUSH1 0x1 PUSH1 0xA0 SHL SUB AND DUP5 PUSH1 0x0 DUP2 MLOAD DUP2 LT PUSH2 0xBE0 JUMPI PUSH2 0xBE0 PUSH2 0x10D1 JUMP JUMPDEST PUSH1 0x20 MUL PUSH1 0x20 ADD ADD MLOAD DUP4 PUSH2 0xBF3 SWAP2 SWAP1 PUSH2 0x12DC JUMP JUMPDEST PUSH1 0x40 MLOAD PUSH1 0x0 DUP2 DUP2 DUP2 DUP6 DUP8 GAS CALL SWAP3 POP POP POP RETURNDATASIZE DUP1 PUSH1 0x0 DUP2 EQ PUSH2 0xC2F JUMPI PUSH1 0x40 MLOAD SWAP2 POP PUSH1 0x1F NOT PUSH1 0x3F RETURNDATASIZE ADD AND DUP3 ADD PUSH1 0x40 MSTORE RETURNDATASIZE DUP3 MSTORE RETURNDATASIZE PUSH1 0x0 PUSH1 0x20 DUP5 ADD RETURNDATACOPY PUSH2 0xC34 JUMP JUMPDEST PUSH1 0x60 SWAP2 POP JUMPDEST POP POP SWAP1 POP DUP1 PUSH2 0xC93 JUMPI PUSH1 0x40 MLOAD PUSH3 0x461BCD PUSH1 0xE5 SHL DUP2 MSTORE PUSH1 0x20 PUSH1 0x4 DUP3 ADD MSTORE PUSH1 0x25 PUSH1 0x24 DUP3 ADD MSTORE PUSH32 0x4B4F4C53776170526F757465723A20524546554E445F5452414E534645525F46 PUSH1 0x44 DUP3 ADD MSTORE PUSH5 0x1052531151 PUSH1 0xDA SHL PUSH1 0x64 DUP3 ADD MSTORE PUSH1 0x84 ADD PUSH2 0x248 JUMP JUMPDEST POP JUMPDEST PUSH1 0x1 SLOAD PUSH1 0x4 SLOAD PUSH1 0x40 MLOAD PUSH1 0x0 DUP1 MLOAD PUSH1 0x20 PUSH2 0x133B DUP4 CODECOPY DUP2 MLOAD SWAP2 MSTORE SWAP3 PUSH2 0xCC6 SWAP3 PUSH1 0x1 PUSH1 0x1 PUSH1 0xA0 SHL SUB SWAP1 SWAP2 AND SWAP2 CALLER SWAP2 SWAP1 PUSH2 0x1289 JUMP JUMPDEST PUSH1 0x40 MLOAD DUP1 SWAP2 SUB SWAP1 LOG1 POP PUSH2 0xCD9 PUSH1 0x1 PUSH1 0x0 SSTORE JUMP JUMPDEST POP SWAP6 SWAP5 POP POP POP POP POP JUMP JUMPDEST PUSH1 0x60 PUSH2 0xCED PUSH2 0xDF0 JUMP JUMPDEST CALLVALUE PUSH1 0x4 SLOAD DUP2 LT ISZERO PUSH2 0xD10 JUMPI PUSH1 0x40 MLOAD PUSH3 0x461BCD PUSH1 0xE5 SHL DUP2 MSTORE PUSH1 0x4 ADD PUSH2 0x248 SWAP1 PUSH2 0x1087 JUMP JUMPDEST PUSH1 0x0 PUSH1 0x4 SLOAD CALLVALUE PUSH2 0xD20 SWAP2 SWAP1 PUSH2 0x12DC JUMP JUMPDEST PUSH1 0x3 SLOAD PUSH1 0x40 MLOAD PUSH4 0xA2A1623D PUSH1 0xE0 SHL DUP2 MSTORE SWAP2 SWAP3 POP PUSH1 0x1 PUSH1 0x1 PUSH1 0xA0 SHL SUB AND SWAP1 PUSH4 0xA2A1623D SWAP1 DUP4 SWAP1 PUSH2 0xD5B SWAP1 DUP13 SWAP1 DUP13 SWAP1 DUP13 SWAP1 DUP13 SWAP1 DUP13 SWAP1 PUSH1 0x4 ADD PUSH2 0x1303 JUMP JUMPDEST PUSH1 0x0 PUSH1 0x40 MLOAD DUP1 DUP4 SUB DUP2 DUP6 DUP9 GAS CALL ISZERO DUP1 ISZERO PUSH2 0xD79 JUMPI RETURNDATASIZE PUSH1 0x0 DUP1 RETURNDATACOPY RETURNDATASIZE PUSH1 0x0 REVERT JUMPDEST POP POP POP POP POP PUSH1 0x40 MLOAD RETURNDATASIZE PUSH1 0x0 DUP3 RETURNDATACOPY PUSH1 0x1F RETURNDATASIZE SWAP1 DUP2 ADD PUSH1 0x1F NOT AND DUP3 ADD PUSH1 0x40 MSTORE PUSH2 0xDA2 SWAP2 SWAP1 DUP2 ADD SWAP1 PUSH2 0x11C7 JUMP JUMPDEST PUSH1 0x1 SLOAD PUSH1 0x4 SLOAD PUSH1 0x40 MLOAD SWAP3 SWAP6 POP PUSH1 0x0 DUP1 MLOAD PUSH1 0x20 PUSH2 0x133B DUP4 CODECOPY DUP2 MLOAD SWAP2 MSTORE SWAP3 PUSH2 0xDD3 SWAP3 PUSH1 0x1 PUSH1 0x1 PUSH1 0xA0 SHL SUB AND SWAP2 CALLER SWAP2 PUSH2 0x1289 JUMP JUMPDEST PUSH1 0x40 MLOAD DUP1 SWAP2 SUB SWAP1 LOG1 POP POP PUSH2 0xDE7 PUSH1 0x1 PUSH1 0x0 SSTORE JUMP JUMPDEST SWAP6 SWAP5 POP POP POP POP POP JUMP JUMPDEST PUSH1 0x2 PUSH1 0x0 SLOAD SUB PUSH2 0xE13 JUMPI PUSH1 0x40 MLOAD PUSH4 0x3EE5AEB5 PUSH1 0xE0 SHL DUP2 MSTORE PUSH1 0x4 ADD PUSH1 0x40 MLOAD DUP1 SWAP2 SUB SWAP1 REVERT JUMPDEST PUSH1 0x2 PUSH1 0x0 SSTORE JUMP JUMPDEST PUSH2 0xE74 DUP5 DUP6 PUSH1 0x1 PUSH1 0x1 PUSH1 0xA0 SHL SUB AND PUSH4 0x23B872DD DUP7 DUP7 DUP7 PUSH1 0x40 MLOAD PUSH1 0x24 ADD PUSH2 0xE42 SWAP4 SWAP3 SWAP2 SWAP1 PUSH2 0x1289 JUMP JUMPDEST PUSH1 0x40 MLOAD PUSH1 0x20 DUP2 DUP4 SUB SUB DUP2 MSTORE SWAP1 PUSH1 0x40 MSTORE SWAP2 POP PUSH1 0xE0 SHL PUSH1 0x20 DUP3 ADD DUP1 MLOAD PUSH1 0x1 PUSH1 0x1 PUSH1 0xE0 SHL SUB DUP4 DUP2 DUP4 AND OR DUP4 MSTORE POP POP POP POP PUSH2 0xE7A JUMP JUMPDEST POP POP POP POP JUMP JUMPDEST PUSH1 0x0 DUP1 PUSH1 0x20 PUSH1 0x0 DUP5 MLOAD PUSH1 0x20 DUP7 ADD PUSH1 0x0 DUP9 GAS CALL DUP1 PUSH2 0xE9D JUMPI PUSH1 0x40 MLOAD RETURNDATASIZE PUSH1 0x0 DUP3 RETURNDATACOPY RETURNDATASIZE DUP2 REVERT JUMPDEST POP POP PUSH1 0x0 MLOAD RETURNDATASIZE SWAP2 POP DUP2 ISZERO PUSH2 0xEB5 JUMPI DUP1 PUSH1 0x1 EQ ISZERO PUSH2 0xEC2 JUMP JUMPDEST PUSH1 0x1 PUSH1 0x1 PUSH1 0xA0 SHL SUB DUP5 AND EXTCODESIZE ISZERO JUMPDEST ISZERO PUSH2 0xE74 JUMPI PUSH1 0x40 MLOAD PUSH4 0x5274AFE7 PUSH1 0xE0 SHL DUP2 MSTORE PUSH1 0x1 PUSH1 0x1 PUSH1 0xA0 SHL SUB DUP6 AND PUSH1 0x4 DUP3 ADD MSTORE PUSH1 0x24 ADD PUSH2 0x248 JUMP JUMPDEST PUSH1 0x0 DUP1 DUP4 PUSH1 0x1F DUP5 ADD SLT PUSH2 0xEFD JUMPI PUSH1 0x0 DUP1 REVERT JUMPDEST POP DUP2 CALLDATALOAD PUSH8 0xFFFFFFFFFFFFFFFF DUP2 GT ISZERO PUSH2 0xF15 JUMPI PUSH1 0x0 DUP1 REVERT JUMPDEST PUSH1 0x20 DUP4 ADD SWAP2 POP DUP4 PUSH1 0x20 DUP3 PUSH1 0x5 SHL DUP6 ADD ADD GT ISZERO PUSH2 0xF30 JUMPI PUSH1 0x0 DUP1 REVERT JUMPDEST SWAP3 POP SWAP3 SWAP1 POP JUMP JUMPDEST DUP1 CALLDATALOAD PUSH1 0x1 PUSH1 0x1 PUSH1 0xA0 SHL SUB DUP2 AND DUP2 EQ PUSH2 0xF4E JUMPI PUSH1 0x0 DUP1 REVERT JUMPDEST SWAP2 SWAP1 POP JUMP JUMPDEST PUSH1 0x0 DUP1 PUSH1 0x0 DUP1 PUSH1 0x0 DUP1 PUSH1 0xA0 DUP8 DUP10 SUB SLT ISZERO PUSH2 0xF6C JUMPI PUSH1 0x0 DUP1 REVERT JUMPDEST DUP7 CALLDATALOAD SWAP6 POP PUSH1 0x20 DUP8 ADD CALLDATALOAD SWAP5 POP PUSH1 0x40 DUP8 ADD CALLDATALOAD PUSH8 0xFFFFFFFFFFFFFFFF DUP2 GT ISZERO PUSH2 0xF91 JUMPI PUSH1 0x0 DUP1 REVERT JUMPDEST PUSH2 0xF9D DUP10 DUP3 DUP11 ADD PUSH2 0xEEB JUMP JUMPDEST SWAP1 SWAP6 POP SWAP4 POP PUSH2 0xFB0 SWAP1 POP PUSH1 0x60 DUP9 ADD PUSH2 0xF37 JUMP JUMPDEST SWAP6 SWAP9 SWAP5 SWAP8 POP SWAP3 SWAP6 SWAP2 SWAP5 SWAP4 PUSH1 0x80 SWAP1 SWAP3 ADD CALLDATALOAD SWAP3 POP POP JUMP JUMPDEST PUSH1 0x20 DUP1 DUP3 MSTORE DUP3 MLOAD DUP3 DUP3 ADD DUP2 SWAP1 MSTORE PUSH1 0x0 SWAP2 DUP5 ADD SWAP1 PUSH1 0x40 DUP5 ADD SWAP1 DUP4 JUMPDEST DUP2 DUP2 LT ISZERO PUSH2 0xFFD JUMPI DUP4 MLOAD DUP4 MSTORE PUSH1 0x20 SWAP4 DUP5 ADD SWAP4 SWAP1 SWAP3 ADD SWAP2 PUSH1 0x1 ADD PUSH2 0xFDF JUMP JUMPDEST POP SWAP1 SWAP6 SWAP5 POP POP POP POP POP JUMP JUMPDEST PUSH1 0x0 PUSH1 0x20 DUP3 DUP5 SUB SLT ISZERO PUSH2 0x101A JUMPI PUSH1 0x0 DUP1 REVERT JUMPDEST POP CALLDATALOAD SWAP2 SWAP1 POP JUMP JUMPDEST PUSH1 0x0 DUP1 PUSH1 0x0 DUP1 PUSH1 0x0 PUSH1 0x80 DUP7 DUP9 SUB SLT ISZERO PUSH2 0x1039 JUMPI PUSH1 0x0 DUP1 REVERT JUMPDEST DUP6 CALLDATALOAD SWAP5 POP PUSH1 0x20 DUP7 ADD CALLDATALOAD PUSH8 0xFFFFFFFFFFFFFFFF DUP2 GT ISZERO PUSH2 0x1057 JUMPI PUSH1 0x0 DUP1 REVERT JUMPDEST PUSH2 0x1063 DUP9 DUP3 DUP10 ADD PUSH2 0xEEB JUMP JUMPDEST SWAP1 SWAP6 POP SWAP4 POP PUSH2 0x1076 SWAP1 POP PUSH1 0x40 DUP8 ADD PUSH2 0xF37 JUMP JUMPDEST SWAP5 SWAP8 SWAP4 SWAP7 POP SWAP2 SWAP5 PUSH1 0x60 ADD CALLDATALOAD SWAP3 SWAP2 POP POP JUMP JUMPDEST PUSH1 0x20 DUP1 DUP3 MSTORE PUSH1 0x2A SWAP1 DUP3 ADD MSTORE PUSH32 0x4B4F4C53776170526F757465723A20494E53554646494349454E545F4E415449 PUSH1 0x40 DUP3 ADD MSTORE PUSH10 0x56455F464F525F464545 PUSH1 0xB0 SHL PUSH1 0x60 DUP3 ADD MSTORE PUSH1 0x80 ADD SWAP1 JUMP JUMPDEST PUSH4 0x4E487B71 PUSH1 0xE0 SHL PUSH1 0x0 MSTORE PUSH1 0x32 PUSH1 0x4 MSTORE PUSH1 0x24 PUSH1 0x0 REVERT JUMPDEST PUSH1 0x0 PUSH1 0x20 DUP3 DUP5 SUB SLT ISZERO PUSH2 0x10F9 JUMPI PUSH1 0x0 DUP1 REVERT JUMPDEST PUSH2 0x1102 DUP3 PUSH2 0xF37 JUMP JUMPDEST SWAP4 SWAP3 POP POP POP JUMP JUMPDEST PUSH1 0x0 PUSH1 0x20 DUP3 DUP5 SUB SLT ISZERO PUSH2 0x111B JUMPI PUSH1 0x0 DUP1 REVERT JUMPDEST DUP2 MLOAD DUP1 ISZERO ISZERO DUP2 EQ PUSH2 0x1102 JUMPI PUSH1 0x0 DUP1 REVERT JUMPDEST DUP2 DUP4 MSTORE PUSH1 0x20 DUP4 ADD SWAP3 POP PUSH1 0x0 DUP2 PUSH1 0x0 JUMPDEST DUP5 DUP2 LT ISZERO PUSH2 0x1169 JUMPI PUSH1 0x1 PUSH1 0x1 PUSH1 0xA0 SHL SUB PUSH2 0x1153 DUP4 PUSH2 0xF37 JUMP JUMPDEST AND DUP7 MSTORE PUSH1 0x20 SWAP6 DUP7 ADD SWAP6 SWAP2 SWAP1 SWAP2 ADD SWAP1 PUSH1 0x1 ADD PUSH2 0x113A JUMP JUMPDEST POP SWAP4 SWAP5 SWAP4 POP POP POP POP JUMP JUMPDEST DUP7 DUP2 MSTORE DUP6 PUSH1 0x20 DUP3 ADD MSTORE PUSH1 0xA0 PUSH1 0x40 DUP3 ADD MSTORE PUSH1 0x0 PUSH2 0x1193 PUSH1 0xA0 DUP4 ADD DUP7 DUP9 PUSH2 0x112B JUMP JUMPDEST PUSH1 0x1 PUSH1 0x1 PUSH1 0xA0 SHL SUB SWAP5 SWAP1 SWAP5 AND PUSH1 0x60 DUP4 ADD MSTORE POP PUSH1 0x80 ADD MSTORE SWAP5 SWAP4 POP POP POP POP JUMP JUMPDEST PUSH4 0x4E487B71 PUSH1 0xE0 SHL PUSH1 0x0 MSTORE PUSH1 0x41 PUSH1 0x4 MSTORE PUSH1 0x24 PUSH1 0x0 REVERT JUMPDEST PUSH1 0x0 PUSH1 0x20 DUP3 DUP5 SUB SLT ISZERO PUSH2 0x11D9 JUMPI PUSH1 0x0 DUP1 REVERT JUMPDEST DUP2 MLOAD PUSH8 0xFFFFFFFFFFFFFFFF DUP2 GT ISZERO PUSH2 0x11F0 JUMPI PUSH1 0x0 DUP1 REVERT JUMPDEST DUP3 ADD PUSH1 0x1F DUP2 ADD DUP5 SGT PUSH2 0x1201 JUMPI PUSH1 0x0 DUP1 REVERT JUMPDEST DUP1 MLOAD PUSH8 0xFFFFFFFFFFFFFFFF DUP2 GT ISZERO PUSH2 0x121B JUMPI PUSH2 0x121B PUSH2 0x11B1 JUMP JUMPDEST DUP1 PUSH1 0x5 SHL PUSH1 0x40 MLOAD PUSH1 0x1F NOT PUSH1 0x3F DUP4 ADD AND DUP2 ADD DUP2 DUP2 LT PUSH8 0xFFFFFFFFFFFFFFFF DUP3 GT OR ISZERO PUSH2 0x1248 JUMPI PUSH2 0x1248 PUSH2 0x11B1 JUMP JUMPDEST PUSH1 0x40 MSTORE SWAP2 DUP3 MSTORE PUSH1 0x20 DUP2 DUP5 ADD DUP2 ADD SWAP3 SWAP1 DUP2 ADD DUP8 DUP5 GT ISZERO PUSH2 0x1266 JUMPI PUSH1 0x0 DUP1 REVERT JUMPDEST PUSH1 0x20 DUP6 ADD SWAP5 POP JUMPDEST DUP4 DUP6 LT ISZERO PUSH2 0xAD3 JUMPI DUP5 MLOAD DUP1 DUP3 MSTORE PUSH1 0x20 SWAP6 DUP7 ADD SWAP6 SWAP1 SWAP4 POP ADD PUSH2 0x126D JUMP JUMPDEST PUSH1 0x1 PUSH1 0x1 PUSH1 0xA0 SHL SUB SWAP4 DUP5 AND DUP2 MSTORE SWAP2 SWAP1 SWAP3 AND PUSH1 0x20 DUP3 ADD MSTORE PUSH1 0x40 DUP2 ADD SWAP2 SWAP1 SWAP2 MSTORE PUSH1 0x60 ADD SWAP1 JUMP JUMPDEST PUSH1 0x0 DUP3 MLOAD PUSH1 0x0 JUMPDEST DUP2 DUP2 LT ISZERO PUSH2 0x12CE JUMPI PUSH1 0x20 DUP2 DUP7 ADD DUP2 ADD MLOAD DUP6 DUP4 ADD MSTORE ADD PUSH2 0x12B4 JUMP JUMPDEST POP PUSH1 0x0 SWAP3 ADD SWAP2 DUP3 MSTORE POP SWAP2 SWAP1 POP JUMP JUMPDEST DUP2 DUP2 SUB DUP2 DUP2 GT ISZERO PUSH2 0x12FD JUMPI PUSH4 0x4E487B71 PUSH1 0xE0 SHL PUSH1 0x0 MSTORE PUSH1 0x11 PUSH1 0x4 MSTORE PUSH1 0x24 PUSH1 0x0 REVERT JUMPDEST SWAP3 SWAP2 POP POP JUMP JUMPDEST DUP6 DUP2 MSTORE PUSH1 0x80 PUSH1 0x20 DUP3 ADD MSTORE PUSH1 0x0 PUSH2 0x131D PUSH1 0x80 DUP4 ADD DUP7 DUP9 PUSH2 0x112B JUMP JUMPDEST PUSH1 0x1 PUSH1 0x1 PUSH1 0xA0 SHL SUB SWAP5 SWAP1 SWAP5 AND PUSH1 0x40 DUP4 ADD MSTORE POP PUSH1 0x60 ADD MSTORE SWAP4 SWAP3 POP POP POP JUMP INVALID 0xBA 0xD2 SWAP16 0x2B 0xBB 0xF6 0xBB 0x1E ISZERO JUMP ORIGIN SUB 0xBC 0xDB 0xD 0xD6 PUSH1 0xC5 0x4E 0xAB SMOD DUP8 PUSH4 0xEB66F797 0xEF 0xA8 CREATE2 0xE8 0xC1 LOG2 PUSH5 0x6970667358 0x22 SLT KECCAK256 SHR PUSH13 0xC7E9525730EA39E3756FDB178 SWAP1 PUSH1 0x80 0xD6 LOG4 0xB1 0x2C 0xB1 0xD0 SGT 0xED DUP5 DUP14 EXTSTATICCALL 0xD3 SWAPN 0x39 PUSH5 0x736F6C6343 STOP ADDMOD SAR STOP CALLER "
        },
        "methodIdentifiers": {
          "dexRouter()": "0758d924",
          "factoryAddress()": "966dae0e",
          "fixedFeeAmount()": "9ec9ac41",
          "kolAddress()": "37dad2bb",
          "swapAVAXForExactTokens(uint256,address[],address,uint256)": "8a657e67",
          "swapExactAVAXForTokens(uint256,address[],address,uint256)": "a2a1623d",
          "swapExactTokensForAVAX(uint256,uint256,address[],address,uint256)": "676528d1",
          "swapExactTokensForTokens(uint256,uint256,address[],address,uint256)": "38ed1739",
          "swapTokensForExactAVAX(uint256,uint256,address[],address,uint256)": "7a42416a",
          "swapTokensForExactTokens(uint256,uint256,address[],address,uint256)": "8803dbee",
          "updateFixedFee(uint256)": "73dd6998",
          "withdrawFees()": "476343ee"
        }
      }
    }
  }
}