{"abi":[{"type":"function","name":"add","inputs":[{"name":"a","type":"uint256","internalType":"uint256"},{"name":"b","type":"uint256","internalType":"uint256"}],"outputs":[],"stateMutability":"nonpayable"},{"type":"function","name":"div","inputs":[{"name":"a","type":"uint256","internalType":"uint256"},{"name":"b","type":"uint256","internalType":"uint256"}],"outputs":[],"stateMutability":"nonpayable"},{"type":"function","name":"mul","inputs":[{"name":"a","type":"uint256","internalType":"uint256"},{"name":"b","type":"uint256","internalType":"uint256"}],"outputs":[],"stateMutability":"nonpayable"},{"type":"function","name":"result","inputs":[],"outputs":[{"name":"","type":"uint256","internalType":"uint256"}],"stateMutability":"view"},{"type":"function","name":"sub","inputs":[{"name":"a","type":"uint256","internalType":"uint256"},{"name":"b","type":"uint256","internalType":"uint256"}],"outputs":[],"stateMutability":"nonpayable"}],"bytecode":{"object":"0x6080604052348015600f57600080fd5b506101c78061001f6000396000f3fe608060405234801561001057600080fd5b50600436106100575760003560e01c8063653721471461005c578063771602f714610077578063a391c15b1461008c578063b67d77c51461009f578063c8a4ac9c146100b2575b600080fd5b61006560005481565b60405190815260200160405180910390f35b61008a6100853660046100f4565b6100c5565b005b61008a61009a3660046100f4565b6100d6565b61008a6100ad3660046100f4565b6100e0565b61008a6100c03660046100f4565b6100ea565b6100cf818361012c565b6000555050565b6100cf8183610145565b6100cf8183610167565b6100cf818361017a565b6000806040838503121561010757600080fd5b50508035926020909101359150565b634e487b7160e01b600052601160045260246000fd5b8082018082111561013f5761013f610116565b92915050565b60008261016257634e487b7160e01b600052601260045260246000fd5b500490565b8181038181111561013f5761013f610116565b808202811582820484141761013f5761013f61011656fea26469706673582212202614710dfabf40bf275988f3ce2e5cb1a695baba54c4fab7bb0a9ec4233b199d64736f6c63430008190033","linkReferences":{}},"methodIdentifiers":{"add(uint256,uint256)":"771602f7","div(uint256,uint256)":"a391c15b","mul(uint256,uint256)":"c8a4ac9c","result()":"65372147","sub(uint256,uint256)":"b67d77c5"},"id":4}