{"abi":[{"type":"constructor","inputs":[{"name":"_tokenA","type":"address","internalType":"address"},{"name":"_tokenB","type":"address","internalType":"address"}],"stateMutability":"nonpayable"},{"type":"function","name":"addLiquidity","inputs":[{"name":"amountA","type":"uint256","internalType":"uint256"},{"name":"amountB","type":"uint256","internalType":"uint256"}],"outputs":[],"stateMutability":"nonpayable"},{"type":"function","name":"getAmountOut","inputs":[{"name":"amountIn","type":"uint256","internalType":"uint256"},{"name":"reserveIn","type":"uint256","internalType":"uint256"},{"name":"reserveOut","type":"uint256","internalType":"uint256"}],"outputs":[{"name":"","type":"uint256","internalType":"uint256"}],"stateMutability":"pure"},{"type":"function","name":"owner","inputs":[],"outputs":[{"name":"","type":"address","internalType":"address"}],"stateMutability":"view"},{"type":"function","name":"removeLiquidity","inputs":[{"name":"amountA","type":"uint256","internalType":"uint256"},{"name":"amountB","type":"uint256","internalType":"uint256"}],"outputs":[],"stateMutability":"nonpayable"},{"type":"function","name":"renounceOwnership","inputs":[],"outputs":[],"stateMutability":"nonpayable"},{"type":"function","name":"reserveA","inputs":[],"outputs":[{"name":"","type":"uint256","internalType":"uint256"}],"stateMutability":"view"},{"type":"function","name":"reserveB","inputs":[],"outputs":[{"name":"","type":"uint256","internalType":"uint256"}],"stateMutability":"view"},{"type":"function","name":"swap","inputs":[{"name":"tokenIn","type":"address","internalType":"address"},{"name":"amountIn","type":"uint256","internalType":"uint256"}],"outputs":[],"stateMutability":"nonpayable"},{"type":"function","name":"tokenA","inputs":[],"outputs":[{"name":"","type":"address","internalType":"contract IERC20"}],"stateMutability":"view"},{"type":"function","name":"tokenB","inputs":[],"outputs":[{"name":"","type":"address","internalType":"contract IERC20"}],"stateMutability":"view"},{"type":"function","name":"transferOwnership","inputs":[{"name":"newOwner","type":"address","internalType":"address"}],"outputs":[],"stateMutability":"nonpayable"},{"type":"event","name":"LiquidityAdded","inputs":[{"name":"user","type":"address","indexed":true,"internalType":"address"},{"name":"amountA","type":"uint256","indexed":false,"internalType":"uint256"},{"name":"amountB","type":"uint256","indexed":false,"internalType":"uint256"}],"anonymous":false},{"type":"event","name":"LiquidityRemoved","inputs":[{"name":"user","type":"address","indexed":true,"internalType":"address"},{"name":"amountA","type":"uint256","indexed":false,"internalType":"uint256"},{"name":"amountB","type":"uint256","indexed":false,"internalType":"uint256"}],"anonymous":false},{"type":"event","name":"OwnershipTransferred","inputs":[{"name":"previousOwner","type":"address","indexed":true,"internalType":"address"},{"name":"newOwner","type":"address","indexed":true,"internalType":"address"}],"anonymous":false},{"type":"event","name":"Swapped","inputs":[{"name":"user","type":"address","indexed":true,"internalType":"address"},{"name":"tokenIn","type":"address","indexed":true,"internalType":"address"},{"name":"amountIn","type":"uint256","indexed":false,"internalType":"uint256"},{"name":"tokenOut","type":"address","indexed":true,"internalType":"address"},{"name":"amountOut","type":"uint256","indexed":false,"internalType":"uint256"}],"anonymous":false},{"type":"error","name":"OwnableInvalidOwner","inputs":[{"name":"owner","type":"address","internalType":"address"}]},{"type":"error","name":"OwnableUnauthorizedAccount","inputs":[{"name":"account","type":"address","internalType":"address"}]}],"bytecode":{"object":"0x608060405234801561001057600080fd5b50604051610c38380380610c3883398101604081905261002f916100fc565b338061005557604051631e4fbdf760e01b81526000600482015260240160405180910390fd5b61005e81610090565b50600180546001600160a01b039384166001600160a01b0319918216179091556002805492909316911617905561012f565b600080546001600160a01b038381166001600160a01b0319831681178455604051919092169283917f8be0079c531659141344cd1fd0a4f28419497f9722a3daafe3b4186f6b6457e09190a35050565b80516001600160a01b03811681146100f757600080fd5b919050565b6000806040838503121561010f57600080fd5b610118836100e0565b9150610126602084016100e0565b90509250929050565b610afa8061013e6000396000f3fe608060405234801561001057600080fd5b50600436106100a95760003560e01c80638da5cb5b116100715780638da5cb5b146101255780639cd441da146101365780639d7de6b314610149578063d004f0f71461015c578063dc5fa6c51461016f578063f2fde38b1461017857600080fd5b8063054d50d4146100ae5780630fc63d10146100d457806319e36f3b146100ff5780635f64b55b14610108578063715018a61461011b575b600080fd5b6100c16100bc366004610971565b61018b565b6040519081526020015b60405180910390f35b6001546100e7906001600160a01b031681565b6040516001600160a01b0390911681526020016100cb565b6100c160045481565b6002546100e7906001600160a01b031681565b610123610284565b005b6000546001600160a01b03166100e7565b61012361014436600461099d565b610298565b61012361015736600461099d565b610408565b61012361016a3660046109db565b6105bd565b6100c160035481565b610123610186366004610a05565b6108b6565b60008084116101e15760405162461bcd60e51b815260206004820152601960248201527f496e73756666696369656e7420696e70757420616d6f756e740000000000000060448201526064015b60405180910390fd5b6000831180156101f15750600082115b6102365760405162461bcd60e51b8152602060048201526016602482015275496e73756666696369656e74206c697175696469747960501b60448201526064016101d8565b6000610244856103e5610a3d565b905060006102528483610a3d565b9050600082610263876103e8610a3d565b61026d9190610a5a565b90506102798183610a6d565b979650505050505050565b61028c6108f4565b6102966000610921565b565b6102a06108f4565b6001546040516323b872dd60e01b8152336004820152306024820152604481018490526001600160a01b03909116906323b872dd906064016020604051808303816000875af11580156102f7573d6000803e3d6000fd5b505050506040513d601f19601f8201168201806040525081019061031b9190610a8f565b506002546040516323b872dd60e01b8152336004820152306024820152604481018390526001600160a01b03909116906323b872dd906064016020604051808303816000875af1158015610373573d6000803e3d6000fd5b505050506040513d601f19601f820116820180604052508101906103979190610a8f565b5081600360008282546103aa9190610a5a565b9250508190555080600460008282546103c39190610a5a565b9091555050604080518381526020810183905233917fac1d76749e5447b7b16f5ab61447e1bd502f3bb4807af3b28e620d1700a6ee4591015b60405180910390a25050565b6104106108f4565b816003541015801561042457508060045410155b6104695760405162461bcd60e51b8152602060048201526016602482015275496e73756666696369656e74206c697175696469747960501b60448201526064016101d8565b816003600082825461047b9190610ab1565b9250508190555080600460008282546104949190610ab1565b909155505060015460405163a9059cbb60e01b8152336004820152602481018490526001600160a01b039091169063a9059cbb906044016020604051808303816000875af11580156104ea573d6000803e3d6000fd5b505050506040513d601f19601f8201168201806040525081019061050e9190610a8f565b5060025460405163a9059cbb60e01b8152336004820152602481018390526001600160a01b039091169063a9059cbb906044016020604051808303816000875af1158015610560573d6000803e3d6000fd5b505050506040513d601f19601f820116820180604052508101906105849190610a8f565b50604080518381526020810183905233917f96cd817c6329656790ef8fba7675405193677d39619571282f5e21f3a98cd05991016103fc565b6001546001600160a01b03838116911614806105e657506002546001600160a01b038381169116145b6106225760405162461bcd60e51b815260206004820152600d60248201526c24b73b30b634b2103a37b5b2b760991b60448201526064016101d8565b6001546001600160a01b0383811691161460008161064b576002546001600160a01b0316610658565b6001546001600160a01b03165b9050600082610672576001546001600160a01b031661067f565b6002546001600160a01b03165b905060008361069057600454610694565b6003545b90506000846106a5576003546106a9565b6004545b905060006106b887848461018b565b90506000811161070a5760405162461bcd60e51b815260206004820152601a60248201527f496e73756666696369656e74206f757470757420616d6f756e7400000000000060448201526064016101d8565b6040516323b872dd60e01b8152336004820152306024820152604481018890526001600160a01b038616906323b872dd906064016020604051808303816000875af115801561075d573d6000803e3d6000fd5b505050506040513d601f19601f820116820180604052508101906107819190610a8f565b5060405163a9059cbb60e01b8152336004820152602481018290526001600160a01b0385169063a9059cbb906044016020604051808303816000875af11580156107cf573d6000803e3d6000fd5b505050506040513d601f19601f820116820180604052508101906107f39190610a8f565b50851561083057866003600082825461080c9190610a5a565b9250508190555080600460008282546108259190610ab1565b909155506108619050565b80600360008282546108429190610ab1565b92505081905550866004600082825461085b9190610a5a565b90915550505b60408051888152602081018390526001600160a01b0380871692908b169133917f692315744755ee6d80decaeb993d4b1bb95ff5db042cc47b32d5a7d858b01902910160405180910390a45050505050505050565b6108be6108f4565b6001600160a01b0381166108e857604051631e4fbdf760e01b8152600060048201526024016101d8565b6108f181610921565b50565b6000546001600160a01b031633146102965760405163118cdaa760e01b81523360048201526024016101d8565b600080546001600160a01b038381166001600160a01b0319831681178455604051919092169283917f8be0079c531659141344cd1fd0a4f28419497f9722a3daafe3b4186f6b6457e09190a35050565b60008060006060848603121561098657600080fd5b505081359360208301359350604090920135919050565b600080604083850312156109b057600080fd5b50508035926020909101359150565b80356001600160a01b03811681146109d657600080fd5b919050565b600080604083850312156109ee57600080fd5b6109f7836109bf565b946020939093013593505050565b600060208284031215610a1757600080fd5b610a20826109bf565b9392505050565b634e487b7160e01b600052601160045260246000fd5b8082028115828204841417610a5457610a54610a27565b92915050565b80820180821115610a5457610a54610a27565b600082610a8a57634e487b7160e01b600052601260045260246000fd5b500490565b600060208284031215610aa157600080fd5b81518015158114610a2057600080fd5b81810381811115610a5457610a54610a2756fea2646970667358221220e60625e37626a765b9dd293c2f85ec455c61f72f5568ac8b9a178b0dbc14b1c564736f6c63430008190033","linkReferences":{}},"methodIdentifiers":{"addLiquidity(uint256,uint256)":"9cd441da","getAmountOut(uint256,uint256,uint256)":"054d50d4","owner()":"8da5cb5b","removeLiquidity(uint256,uint256)":"9d7de6b3","renounceOwnership()":"715018a6","reserveA()":"dc5fa6c5","reserveB()":"19e36f3b","swap(address,uint256)":"d004f0f7","tokenA()":"0fc63d10","tokenB()":"5f64b55b","transferOwnership(address)":"f2fde38b"},"id":8}