{"abi":[{"type":"constructor","inputs":[{"name":"_wormholeRelayer","type":"address","internalType":"address"},{"name":"_tokenBridge","type":"address","internalType":"address"},{"name":"_wormhole","type":"address","internalType":"address"}],"stateMutability":"nonpayable"},{"type":"function","name":"receiveWormholeMessages","inputs":[{"name":"payload","type":"bytes","internalType":"bytes"},{"name":"additionalVaas","type":"bytes[]","internalType":"bytes[]"},{"name":"sourceAddress","type":"bytes32","internalType":"bytes32"},{"name":"sourceChain","type":"uint16","internalType":"uint16"},{"name":"deliveryHash","type":"bytes32","internalType":"bytes32"}],"outputs":[],"stateMutability":"payable"},{"type":"function","name":"setRegisteredSender","inputs":[{"name":"sourceChain","type":"uint16","internalType":"uint16"},{"name":"sourceAddress","type":"bytes32","internalType":"bytes32"}],"outputs":[],"stateMutability":"nonpayable"},{"type":"function","name":"tokenBridge","inputs":[],"outputs":[{"name":"","type":"address","internalType":"contract ITokenBridge"}],"stateMutability":"view"},{"type":"function","name":"wormhole","inputs":[],"outputs":[{"name":"","type":"address","internalType":"contract IWormhole"}],"stateMutability":"view"},{"type":"function","name":"wormholeRelayer","inputs":[],"outputs":[{"name":"","type":"address","internalType":"contract IWormholeRelayer"}],"stateMutability":"view"},{"type":"error","name":"NotAnEvmAddress","inputs":[{"name":"","type":"bytes32","internalType":"bytes32"}]}],"bytecode":{"object":"0x60e060405234801561001057600080fd5b506040516114c53803806114c583398101604081905261002f91610079565b6001600160a01b03928316608052821660a052600080546001600160a01b031916331790551660c0526100bc565b80516001600160a01b038116811461007457600080fd5b919050565b60008060006060848603121561008e57600080fd5b6100978461005d565b92506100a56020850161005d565b91506100b36040850161005d565b90509250925092565b60805160a05160c0516113a56101206000396000818160c60152818161028e01528181610370015281816104e201526107970152600081816076015281816101c4015281816103fa01526106e901526000818160fa01526108ce01526113a56000f3fe60806040526004361061004a5760003560e01c8063529dca321461004f57806384acd1bb14610064578063c6328a46146100b4578063da25b725146100e8578063dd12d68b1461011c575b600080fd5b61006261005d366004610c82565b61013c565b005b34801561007057600080fd5b506100987f000000000000000000000000000000000000000000000000000000000000000081565b6040516001600160a01b03909116815260200160405180910390f35b3480156100c057600080fd5b506100987f000000000000000000000000000000000000000000000000000000000000000081565b3480156100f457600080fd5b506100987f000000000000000000000000000000000000000000000000000000000000000081565b34801561012857600080fd5b50610062610137366004610d78565b610668565b6000845167ffffffffffffffff81111561015857610158610b05565b6040519080825280602002602001820160405280156101b157816020015b6040805160a0810182526000808252602080830182905292820181905260608201819052608082015282526000199092019101816101765790505b50905060005b85518110156106525760007f00000000000000000000000000000000000000000000000000000000000000006001600160a01b031663a9e1189388848151811061020357610203610da4565b60200260200101516040518263ffffffff1660e01b81526004016102279190610dde565b600060405180830381865afa158015610244573d6000803e3d6000fd5b505050506040513d6000823e601f3d908101601f1916820160405261026c9190810190610f52565b606081015160405163ad66a5f160e01b815261ffff90911660048201529091507f00000000000000000000000000000000000000000000000000000000000000006001600160a01b03169063ad66a5f190602401602060405180830381865afa1580156102dd573d6000803e3d6000fd5b505050506040513d601f19601f820116820180604052508101906103019190611077565b8160800151146103515760405162461bcd60e51b81526020600482015260166024820152754e6f74206120546f6b656e204272696467652056414160501b60448201526064015b60405180910390fd5b60e081015160405163ea63738d60e01b81526000916001600160a01b037f0000000000000000000000000000000000000000000000000000000000000000169163ea63738d916103a391600401610dde565b600060405180830381865afa1580156103c0573d6000803e3d6000fd5b505050506040513d6000823e601f3d908101601f191682016040526103e89190810190611090565b905030816080015114801561048957507f00000000000000000000000000000000000000000000000000000000000000006001600160a01b0316639a8a05926040518163ffffffff1660e01b8152600401602060405180830381865afa158015610456573d6000803e3d6000fd5b505050506040513d601f19601f8201168201806040525081019061047a9190611159565b61ffff168160a0015161ffff16145b6104e05760405162461bcd60e51b815260206004820152602260248201527f546f6b656e20776173206e6f742073656e7420746f2074686973206164647265604482015261737360f01b6064820152608401610348565b7f00000000000000000000000000000000000000000000000000000000000000006001600160a01b031663c3f511c189858151811061052157610521610da4565b60200260200101516040518263ffffffff1660e01b81526004016105459190610dde565b6000604051808303816000875af1158015610564573d6000803e3d6000fd5b505050506040513d6000823e601f3d908101601f1916820160405261058c9190810190611176565b5060006105a1826060015183604001516106e5565b905060006105ae82610821565b6020840151909150600860ff831611156105e5576105cd6008836111c1565b6105d890600a6112be565b6105e290826112cd565b90505b6040518060a0016040528085604001518152602001856060015161ffff168152602001846001600160a01b03168152602001828152602001856020015181525087878151811061063757610637610da4565b602002602001018190525050505050508060010190506101b7565b5061066086828686866108c3565b505050505050565b6000546001600160a01b031633146106ce5760405162461bcd60e51b8152602060048201526024808201527f4e6f7420616c6c6f77656420746f207365742072656769737465726564207365604482015263373232b960e11b6064820152608401610348565b61ffff909116600090815260016020526040902055565b60007f00000000000000000000000000000000000000000000000000000000000000006001600160a01b0316639a8a05926040518163ffffffff1660e01b8152600401602060405180830381865afa158015610745573d6000803e3d6000fd5b505050506040513d601f19601f820116820180604052508101906107699190611159565b61ffff168361ffff161461080f57604051630ff8f14360e11b815261ffff84166004820152602481018390527f00000000000000000000000000000000000000000000000000000000000000006001600160a01b031690631ff1e28690604401602060405180830381865afa1580156107e6573d6000803e3d6000fd5b505050506040513d601f19601f8201168201806040525081019061080a91906112f9565b610818565b61081882610ad9565b90505b92915050565b60408051600481526024810182526020810180516001600160e01b031663313ce56760e01b179052905160009182916001600160a01b0385169161086491611316565b600060405180830381855afa9150503d806000811461089f576040519150601f19603f3d011682016040523d82523d6000602084013e6108a4565b606091505b50915050808060200190518101906108bc9190611332565b9392505050565b336001600160a01b037f000000000000000000000000000000000000000000000000000000000000000016146109465760405162461bcd60e51b815260206004820152602260248201527f4d73672e73656e646572206973206e6f7420576f726d686f6c652052656c617960448201526132b960f11b6064820152608401610348565b61ffff82166000908152600160205260409020548290849081146109a45760405162461bcd60e51b81526020600482015260156024820152742737ba103932b3b4b9ba32b932b21039b2b73232b960591b6044820152606401610348565b85516001146109f55760405162461bcd60e51b815260206004820152601960248201527f4f6e6c79206f6e6520746f6b656e20697320616c6c6f776564000000000000006044820152606401610348565b600087806020019051810190610a0b91906112f9565b905086600081518110610a2057610a20610da4565b6020026020010151604001516001600160a01b031663a9059cbb8289600081518110610a4e57610a4e610da4565b6020026020010151606001516040518363ffffffff1660e01b8152600401610a8b9291906001600160a01b03929092168252602082015260400190565b6020604051808303816000875af1158015610aaa573d6000803e3d6000fd5b505050506040513d601f19601f82011682018060405250810190610ace919061134d565b505050505050505050565b600060a082901c15610b015760405163033b960d60e41b815260048101839052602401610348565b5090565b634e487b7160e01b600052604160045260246000fd5b6040516080810167ffffffffffffffff81118282101715610b3e57610b3e610b05565b60405290565b604051610160810167ffffffffffffffff81118282101715610b3e57610b3e610b05565b604051610100810167ffffffffffffffff81118282101715610b3e57610b3e610b05565b604051601f8201601f1916810167ffffffffffffffff81118282101715610bb557610bb5610b05565b604052919050565b600067ffffffffffffffff821115610bd757610bd7610b05565b50601f01601f191660200190565b600082601f830112610bf657600080fd5b8135610c09610c0482610bbd565b610b8c565b818152846020838601011115610c1e57600080fd5b816020850160208301376000918101602001919091529392505050565b600067ffffffffffffffff821115610c5557610c55610b05565b5060051b60200190565b61ffff81168114610c6f57600080fd5b50565b8035610c7d81610c5f565b919050565b600080600080600060a08688031215610c9a57600080fd5b853567ffffffffffffffff80821115610cb257600080fd5b610cbe89838a01610be5565b9650602091508188013581811115610cd557600080fd5b8801601f81018a13610ce657600080fd5b8035610cf4610c0482610c3b565b81815260059190911b8201840190848101908c831115610d1357600080fd5b8584015b83811015610d4b57803586811115610d2f5760008081fd5b610d3d8f8983890101610be5565b845250918601918601610d17565b50985050505060408801359450610d6791505060608701610c72565b949793965091946080013592915050565b60008060408385031215610d8b57600080fd5b8235610d9681610c5f565b946020939093013593505050565b634e487b7160e01b600052603260045260246000fd5b60005b83811015610dd5578181015183820152602001610dbd565b50506000910152565b6020815260008251806020840152610dfd816040850160208701610dba565b601f01601f19169190910160400192915050565b805160ff81168114610c7d57600080fd5b805163ffffffff81168114610c7d57600080fd5b8051610c7d81610c5f565b805167ffffffffffffffff81168114610c7d57600080fd5b600082601f830112610e6a57600080fd5b8151610e78610c0482610bbd565b818152846020838601011115610e8d57600080fd5b610e9e826020830160208701610dba565b949350505050565b600082601f830112610eb757600080fd5b81516020610ec7610c0483610c3b565b82815260079290921b84018101918181019086841115610ee657600080fd5b8286015b84811015610f475760808189031215610f035760008081fd5b610f0b610b1b565b8151815284820151858201526040610f24818401610e11565b908201526060610f35838201610e11565b90820152835291830191608001610eea565b509695505050505050565b600060208284031215610f6457600080fd5b815167ffffffffffffffff80821115610f7c57600080fd5b908301906101608286031215610f9157600080fd5b610f99610b44565b610fa283610e11565b8152610fb060208401610e22565b6020820152610fc160408401610e22565b6040820152610fd260608401610e36565b606082015260808301516080820152610fed60a08401610e41565b60a0820152610ffe60c08401610e11565b60c082015260e08301518281111561101557600080fd5b61102187828601610e59565b60e083015250610100611035818501610e22565b90820152610120838101518381111561104d57600080fd5b61105988828701610ea6565b91830191909152506101409283015192810192909252509392505050565b60006020828403121561108957600080fd5b5051919050565b6000602082840312156110a257600080fd5b815167ffffffffffffffff808211156110ba57600080fd5b9083019061010082860312156110cf57600080fd5b6110d7610b68565b6110e083610e11565b8152602083015160208201526040830151604082015261110260608401610e36565b60608201526080830151608082015261111d60a08401610e36565b60a082015260c083015160c082015260e08301518281111561113e57600080fd5b61114a87828601610e59565b60e08301525095945050505050565b60006020828403121561116b57600080fd5b81516108bc81610c5f565b60006020828403121561118857600080fd5b815167ffffffffffffffff81111561119f57600080fd5b610e9e84828501610e59565b634e487b7160e01b600052601160045260246000fd5b60ff828116828216039081111561081b5761081b6111ab565b600181815b808511156112155781600019048211156111fb576111fb6111ab565b8085161561120857918102915b93841c93908002906111df565b509250929050565b60008261122c5750600161081b565b816112395750600061081b565b816001811461124f576002811461125957611275565b600191505061081b565b60ff84111561126a5761126a6111ab565b50506001821b61081b565b5060208310610133831016604e8410600b8410161715611298575081810a61081b565b6112a283836111da565b80600019048211156112b6576112b66111ab565b029392505050565b600061081860ff84168361121d565b808202811582820484141761081b5761081b6111ab565b6001600160a01b0381168114610c6f57600080fd5b60006020828403121561130b57600080fd5b81516108bc816112e4565b60008251611328818460208701610dba565b9190910192915050565b60006020828403121561134457600080fd5b61081882610e11565b60006020828403121561135f57600080fd5b815180151581146108bc57600080fdfea26469706673582212201379254e0178c279e590710c930fac5b82d4712996fe3b611d3d61e99b8f543e64736f6c63430008190033","linkReferences":{}},"methodIdentifiers":{"receiveWormholeMessages(bytes,bytes[],bytes32,uint16,bytes32)":"529dca32","setRegisteredSender(uint16,bytes32)":"dd12d68b","tokenBridge()":"c6328a46","wormhole()":"84acd1bb","wormholeRelayer()":"da25b725"},"id":13}