{"abi":[{"type":"constructor","inputs":[{"name":"_wormholeRelayer","type":"address","internalType":"address"}],"stateMutability":"nonpayable"},{"type":"function","name":"receiveWormholeMessages","inputs":[{"name":"payload","type":"bytes","internalType":"bytes"},{"name":"","type":"bytes[]","internalType":"bytes[]"},{"name":"sourceAddress","type":"bytes32","internalType":"bytes32"},{"name":"sourceChain","type":"uint16","internalType":"uint16"},{"name":"","type":"bytes32","internalType":"bytes32"}],"outputs":[],"stateMutability":"payable"},{"type":"function","name":"s_lastContractToBeCalled","inputs":[],"outputs":[{"name":"","type":"address","internalType":"address"}],"stateMutability":"view"},{"type":"function","name":"s_lastEncodedFunctionCall","inputs":[],"outputs":[{"name":"","type":"bytes","internalType":"bytes"}],"stateMutability":"view"},{"type":"function","name":"s_lastSender","inputs":[],"outputs":[{"name":"","type":"address","internalType":"address"}],"stateMutability":"view"},{"type":"function","name":"s_payload","inputs":[],"outputs":[{"name":"","type":"bytes","internalType":"bytes"}],"stateMutability":"view"},{"type":"function","name":"s_registeredSenders","inputs":[{"name":"","type":"uint16","internalType":"uint16"}],"outputs":[{"name":"","type":"bytes32","internalType":"bytes32"}],"stateMutability":"view"},{"type":"function","name":"s_registrationOwner","inputs":[],"outputs":[{"name":"","type":"address","internalType":"address"}],"stateMutability":"view"},{"type":"function","name":"s_sourceAddress","inputs":[],"outputs":[{"name":"","type":"bytes32","internalType":"bytes32"}],"stateMutability":"view"},{"type":"function","name":"s_wormholeRelayer","inputs":[],"outputs":[{"name":"","type":"address","internalType":"contract IWormholeRelayer"}],"stateMutability":"view"},{"type":"function","name":"setRegisteredSender","inputs":[{"name":"sourceChain","type":"uint16","internalType":"uint16"},{"name":"sourceAddress","type":"bytes32","internalType":"bytes32"}],"outputs":[],"stateMutability":"nonpayable"},{"type":"event","name":"FunctionCallError","inputs":[{"name":"message","type":"string","indexed":false,"internalType":"string"}],"anonymous":false},{"type":"event","name":"FunctionExecuted","inputs":[{"name":"contractToBeCalled","type":"address","indexed":false,"internalType":"address"},{"name":"encodedFunctionCall","type":"bytes","indexed":false,"internalType":"bytes"}],"anonymous":false},{"type":"event","name":"MessageInfoReceived","inputs":[{"name":"sourceAddress","type":"bytes32","indexed":false,"internalType":"bytes32"},{"name":"payload","type":"bytes","indexed":false,"internalType":"bytes"}],"anonymous":false},{"type":"event","name":"SenderRegistered","inputs":[{"name":"sourceChain","type":"uint16","indexed":false,"internalType":"uint16"},{"name":"sourceAddress","type":"bytes32","indexed":false,"internalType":"bytes32"}],"anonymous":false},{"type":"event","name":"SourceChainLogged","inputs":[{"name":"sourceChain","type":"uint16","indexed":false,"internalType":"uint16"},{"name":"sender","type":"address","indexed":false,"internalType":"address"}],"anonymous":false}],"bytecode":{"object":"0x6080604052348015600f57600080fd5b50604051610ba3380380610ba3833981016040819052602c916059565b600080546001600160a01b039092166001600160a01b031992831617905560018054909116331790556087565b600060208284031215606a57600080fd5b81516001600160a01b0381168114608057600080fd5b9392505050565b610b0d806100966000396000f3fe6080604052600436106100915760003560e01c8063890bd8ad11610059578063890bd8ad1461014a578063ca818f891461015f578063d5f6297f14610183578063dd12d68b146101b0578063f452ca72146101d057600080fd5b80632277d3ae146100965780632a31f241146100d35780634f91330e146100f3578063529dca32146101155780635bb60dc01461012a575b600080fd5b3480156100a257600080fd5b506001546100b6906001600160a01b031681565b6040516001600160a01b0390911681526020015b60405180910390f35b3480156100df57600080fd5b506005546100b6906001600160a01b031681565b3480156100ff57600080fd5b506101086101f0565b6040516100ca9190610636565b61012861012336600461072c565b61027e565b005b34801561013657600080fd5b506000546100b6906001600160a01b031681565b34801561015657600080fd5b50610108610515565b34801561016b57600080fd5b5061017560065481565b6040519081526020016100ca565b34801561018f57600080fd5b5061017561019e366004610835565b60076020526000908152604090205481565b3480156101bc57600080fd5b506101286101cb366004610850565b610522565b3480156101dc57600080fd5b506003546100b6906001600160a01b031681565b600480546101fd9061087a565b80601f01602080910402602001604051908101604052809291908181526020018280546102299061087a565b80156102765780601f1061024b57610100808354040283529160200191610276565b820191906000526020600020905b81548152906001019060200180831161025957829003601f168201915b505050505081565b61ffff82166000908152600760205260409020548290849081146102e15760405162461bcd60e51b815260206004820152601560248201527414d95b99195c881b9bdd081c9959da5cdd195c9959605a1b60448201526064015b60405180910390fd5b6000546001600160a01b031633146103545760405162461bcd60e51b815260206004820152603060248201527f4f6e6c792074686520576f726d686f6c652052656c617965722063616e20636160448201526f3636103a3434b990333ab731ba34b7b760811b60648201526084016102d8565b60026103608882610905565b507f77e3e724b03e55e5ad9e86363a3d566079ef39090c5961cbb68c5edd353e651785886040516103929291906109c5565b60405180910390a16000806000898060200190518101906103b391906109fd565b600380546001600160a01b0319166001600160a01b0384161790559194509250905060046103e18282610905565b50600580546001600160a01b0319166001600160a01b038516908117909155600689905560405160009190610417908490610a97565b6000604051808303816000865af19150503d8060008114610454576040519150601f19603f3d011682016040523d82523d6000602084013e610459565b606091505b50509050806104ce577f5ed95ef803f77d10f65e089de8b7058e25192b4b3435ab5ba620c5af6167dbd86040516104c1906020808252601d908201527f4572726f7220657865637574696e672066756e6374696f6e2063616c6c000000604082015260600190565b60405180910390a1610508565b7f8330397d1741789a83c8af0a6952d33b1c5340d05ddd772be57e25dafacdb51c84836040516104ff929190610ab3565b60405180910390a15b5050505050505050505050565b600280546101fd9061087a565b6001546001600160a01b031633146105935760405162461bcd60e51b815260206004820152602e60248201527f4f6e6c792074686520726567697374726174696f6e206f776e65722063616e2060448201526d39b2ba103a34329039b2b73232b960911b60648201526084016102d8565b61ffff8216600081815260076020908152604091829020849055815192835282018390527f1042215c906c4f298080457b6ca52368f97c2627acd368055d7c3576876d4882910160405180910390a15050565b60005b838110156106015781810151838201526020016105e9565b50506000910152565b600081518084526106228160208601602086016105e6565b601f01601f19169290920160200192915050565b602081526000610649602083018461060a565b9392505050565b634e487b7160e01b600052604160045260246000fd5b604051601f8201601f1916810167ffffffffffffffff8111828210171561068f5761068f610650565b604052919050565b600067ffffffffffffffff8211156106b1576106b1610650565b50601f01601f191660200190565b600082601f8301126106d057600080fd5b81356106e36106de82610697565b610666565b8181528460208386010111156106f857600080fd5b816020850160208301376000918101602001919091529392505050565b803561ffff8116811461072757600080fd5b919050565b600080600080600060a0868803121561074457600080fd5b853567ffffffffffffffff8082111561075c57600080fd5b61076889838a016106bf565b965060209150818801358181111561077f57600080fd5b8801601f81018a1361079057600080fd5b8035828111156107a2576107a2610650565b8060051b6107b1858201610666565b918252828101850191858101908d8411156107cb57600080fd5b86850192505b83831015610807578235868111156107e95760008081fd5b6107f78f89838901016106bf565b83525091860191908601906107d1565b809a50505050505050506040860135925061082460608701610715565b949793965091946080013592915050565b60006020828403121561084757600080fd5b61064982610715565b6000806040838503121561086357600080fd5b61086c83610715565b946020939093013593505050565b600181811c9082168061088e57607f821691505b6020821081036108ae57634e487b7160e01b600052602260045260246000fd5b50919050565b601f821115610900576000816000526020600020601f850160051c810160208610156108dd5750805b601f850160051c820191505b818110156108fc578281556001016108e9565b5050505b505050565b815167ffffffffffffffff81111561091f5761091f610650565b6109338161092d845461087a565b846108b4565b602080601f83116001811461096857600084156109505750858301515b600019600386901b1c1916600185901b1785556108fc565b600085815260208120601f198616915b8281101561099757888601518255948401946001909101908401610978565b50858210156109b55787850151600019600388901b60f8161c191681555b5050505050600190811b01905550565b8281526040602082015260006109de604083018461060a565b949350505050565b80516001600160a01b038116811461072757600080fd5b600080600060608486031215610a1257600080fd5b610a1b846109e6565b9250610a29602085016109e6565b9150604084015167ffffffffffffffff811115610a4557600080fd5b8401601f81018613610a5657600080fd5b8051610a646106de82610697565b818152876020838501011115610a7957600080fd5b610a8a8260208301602086016105e6565b8093505050509250925092565b60008251610aa98184602087016105e6565b9190910192915050565b6001600160a01b03831681526040602082018190526000906109de9083018461060a56fea2646970667358221220c83df442ab92208338d754f2b67c6b1c28bae5380524c965d4118cf54c299ee264736f6c63430008190033","linkReferences":{}},"methodIdentifiers":{"receiveWormholeMessages(bytes,bytes[],bytes32,uint16,bytes32)":"529dca32","s_lastContractToBeCalled()":"2a31f241","s_lastEncodedFunctionCall()":"4f91330e","s_lastSender()":"f452ca72","s_payload()":"890bd8ad","s_registeredSenders(uint16)":"d5f6297f","s_registrationOwner()":"2277d3ae","s_sourceAddress()":"ca818f89","s_wormholeRelayer()":"5bb60dc0","setRegisteredSender(uint16,bytes32)":"dd12d68b"},"id":13}