{"abi":[{"type":"constructor","inputs":[{"name":"_wormholeRelayer","type":"address","internalType":"address"}],"stateMutability":"nonpayable"},{"type":"function","name":"receiveWormholeMessages","inputs":[{"name":"payload","type":"bytes","internalType":"bytes"},{"name":"","type":"bytes[]","internalType":"bytes[]"},{"name":"sourceAddress","type":"bytes32","internalType":"bytes32"},{"name":"sourceChain","type":"uint16","internalType":"uint16"},{"name":"","type":"bytes32","internalType":"bytes32"}],"outputs":[],"stateMutability":"payable"},{"type":"function","name":"s_lastContractToBeCalled","inputs":[],"outputs":[{"name":"","type":"address","internalType":"address"}],"stateMutability":"view"},{"type":"function","name":"s_lastEncodedFunctionCall","inputs":[],"outputs":[{"name":"","type":"bytes","internalType":"bytes"}],"stateMutability":"view"},{"type":"function","name":"s_lastSender","inputs":[],"outputs":[{"name":"","type":"address","internalType":"address"}],"stateMutability":"view"},{"type":"function","name":"s_payload","inputs":[],"outputs":[{"name":"","type":"bytes","internalType":"bytes"}],"stateMutability":"view"},{"type":"function","name":"s_registeredSenders","inputs":[{"name":"","type":"uint16","internalType":"uint16"}],"outputs":[{"name":"","type":"bytes32","internalType":"bytes32"}],"stateMutability":"view"},{"type":"function","name":"s_registrationOwner","inputs":[],"outputs":[{"name":"","type":"address","internalType":"address"}],"stateMutability":"view"},{"type":"function","name":"s_sourceAddress","inputs":[],"outputs":[{"name":"","type":"bytes32","internalType":"bytes32"}],"stateMutability":"view"},{"type":"function","name":"s_wormholeRelayer","inputs":[],"outputs":[{"name":"","type":"address","internalType":"contract IWormholeRelayer"}],"stateMutability":"view"},{"type":"function","name":"setRegisteredSender","inputs":[{"name":"sourceChain","type":"uint16","internalType":"uint16"},{"name":"sourceAddress","type":"bytes32","internalType":"bytes32"}],"outputs":[],"stateMutability":"nonpayable"},{"type":"function","name":"withdraw","inputs":[],"outputs":[],"stateMutability":"nonpayable"},{"type":"event","name":"FunctionCallError","inputs":[{"name":"message","type":"string","indexed":false,"internalType":"string"}],"anonymous":false},{"type":"event","name":"FunctionExecuted","inputs":[{"name":"contractToBeCalled","type":"address","indexed":false,"internalType":"address"},{"name":"encodedFunctionCall","type":"bytes","indexed":false,"internalType":"bytes"}],"anonymous":false},{"type":"event","name":"MessageInfoReceived","inputs":[{"name":"sourceAddress","type":"bytes32","indexed":false,"internalType":"bytes32"},{"name":"payload","type":"bytes","indexed":false,"internalType":"bytes"}],"anonymous":false},{"type":"event","name":"SenderRegistered","inputs":[{"name":"sourceChain","type":"uint16","indexed":false,"internalType":"uint16"},{"name":"sourceAddress","type":"bytes32","indexed":false,"internalType":"bytes32"}],"anonymous":false},{"type":"event","name":"SourceChainLogged","inputs":[{"name":"sourceChain","type":"uint16","indexed":false,"internalType":"uint16"},{"name":"sender","type":"address","indexed":false,"internalType":"address"}],"anonymous":false},{"type":"event","name":"Withdraw","inputs":[{"name":"owner","type":"address","indexed":true,"internalType":"address"},{"name":"amount","type":"uint256","indexed":false,"internalType":"uint256"}],"anonymous":false}],"bytecode":{"object":"0x6080604052348015600f57600080fd5b50604051610c9e380380610c9e833981016040819052602c916059565b600080546001600160a01b039092166001600160a01b031992831617905560018054909116331790556087565b600060208284031215606a57600080fd5b81516001600160a01b0381168114608057600080fd5b9392505050565b610c08806100966000396000f3fe60806040526004361061009c5760003560e01c80635bb60dc0116100645780635bb60dc01461014a578063890bd8ad1461016a578063ca818f891461017f578063d5f6297f146101a3578063dd12d68b146101d0578063f452ca72146101f057600080fd5b80632277d3ae146100a15780632a31f241146100de5780633ccfd60b146100fe5780634f91330e14610115578063529dca3214610137575b600080fd5b3480156100ad57600080fd5b506001546100c1906001600160a01b031681565b6040516001600160a01b0390911681526020015b60405180910390f35b3480156100ea57600080fd5b506005546100c1906001600160a01b031681565b34801561010a57600080fd5b50610113610210565b005b34801561012157600080fd5b5061012a6102f0565b6040516100d591906106ec565b6101136101453660046107e2565b61037e565b34801561015657600080fd5b506000546100c1906001600160a01b031681565b34801561017657600080fd5b5061012a610612565b34801561018b57600080fd5b5061019560065481565b6040519081526020016100d5565b3480156101af57600080fd5b506101956101be3660046108eb565b60076020526000908152604090205481565b3480156101dc57600080fd5b506101136101eb366004610906565b61061f565b3480156101fc57600080fd5b506003546100c1906001600160a01b031681565b6001546001600160a01b031633146102435760405162461bcd60e51b815260040161023a90610930565b60405180910390fd5b478061028a5760405162461bcd60e51b81526020600482015260166024820152754e6f2062616c616e636520746f20776974686472617760501b604482015260640161023a565b604051339082156108fc029083906000818181858888f193505050501580156102b7573d6000803e3d6000fd5b5060405181815233907f884edad9ce6fa2440d8a54cc123490eb96d2768479d49ff9c7366125a94243649060200160405180910390a250565b600480546102fd90610975565b80601f016020809104026020016040519081016040528092919081815260200182805461032990610975565b80156103765780601f1061034b57610100808354040283529160200191610376565b820191906000526020600020905b81548152906001019060200180831161035957829003601f168201915b505050505081565b61ffff82166000908152600760205260409020548290849081146103dc5760405162461bcd60e51b815260206004820152601560248201527414d95b99195c881b9bdd081c9959da5cdd195c9959605a1b604482015260640161023a565b6000546001600160a01b0316331461044f5760405162461bcd60e51b815260206004820152603060248201527f4f6e6c792074686520576f726d686f6c652052656c617965722063616e20636160448201526f3636103a3434b990333ab731ba34b7b760811b606482015260840161023a565b600261045b8882610a00565b507f77e3e724b03e55e5ad9e86363a3d566079ef39090c5961cbb68c5edd353e6517858860405161048d929190610ac0565b60405180910390a16000806000898060200190518101906104ae9190610af8565b600380546001600160a01b0319166001600160a01b0384161790559194509250905060046104dc8282610a00565b50600580546001600160a01b0319166001600160a01b0385169081179091556006899055604051600091903490610514908590610b92565b60006040518083038185875af1925050503d8060008114610551576040519150601f19603f3d011682016040523d82523d6000602084013e610556565b606091505b50509050806105cb577f5ed95ef803f77d10f65e089de8b7058e25192b4b3435ab5ba620c5af6167dbd86040516105be906020808252601d908201527f4572726f7220657865637574696e672066756e6374696f6e2063616c6c000000604082015260600190565b60405180910390a1610605565b7f8330397d1741789a83c8af0a6952d33b1c5340d05ddd772be57e25dafacdb51c84836040516105fc929190610bae565b60405180910390a15b5050505050505050505050565b600280546102fd90610975565b6001546001600160a01b031633146106495760405162461bcd60e51b815260040161023a90610930565b61ffff8216600081815260076020908152604091829020849055815192835282018390527f1042215c906c4f298080457b6ca52368f97c2627acd368055d7c3576876d4882910160405180910390a15050565b60005b838110156106b757818101518382015260200161069f565b50506000910152565b600081518084526106d881602086016020860161069c565b601f01601f19169290920160200192915050565b6020815260006106ff60208301846106c0565b9392505050565b634e487b7160e01b600052604160045260246000fd5b604051601f8201601f1916810167ffffffffffffffff8111828210171561074557610745610706565b604052919050565b600067ffffffffffffffff82111561076757610767610706565b50601f01601f191660200190565b600082601f83011261078657600080fd5b81356107996107948261074d565b61071c565b8181528460208386010111156107ae57600080fd5b816020850160208301376000918101602001919091529392505050565b803561ffff811681146107dd57600080fd5b919050565b600080600080600060a086880312156107fa57600080fd5b853567ffffffffffffffff8082111561081257600080fd5b61081e89838a01610775565b965060209150818801358181111561083557600080fd5b8801601f81018a1361084657600080fd5b80358281111561085857610858610706565b8060051b61086785820161071c565b918252828101850191858101908d84111561088157600080fd5b86850192505b838310156108bd5782358681111561089f5760008081fd5b6108ad8f8983890101610775565b8352509186019190860190610887565b809a5050505050505050604086013592506108da606087016107cb565b949793965091946080013592915050565b6000602082840312156108fd57600080fd5b6106ff826107cb565b6000806040838503121561091957600080fd5b610922836107cb565b946020939093013593505050565b60208082526025908201527f4f6e6c7920746865206f776e65722063616e2063616c6c20746869732066756e60408201526431ba34b7b760d91b606082015260800190565b600181811c9082168061098957607f821691505b6020821081036109a957634e487b7160e01b600052602260045260246000fd5b50919050565b601f8211156109fb576000816000526020600020601f850160051c810160208610156109d85750805b601f850160051c820191505b818110156109f7578281556001016109e4565b5050505b505050565b815167ffffffffffffffff811115610a1a57610a1a610706565b610a2e81610a288454610975565b846109af565b602080601f831160018114610a635760008415610a4b5750858301515b600019600386901b1c1916600185901b1785556109f7565b600085815260208120601f198616915b82811015610a9257888601518255948401946001909101908401610a73565b5085821015610ab05787850151600019600388901b60f8161c191681555b5050505050600190811b01905550565b828152604060208201526000610ad960408301846106c0565b949350505050565b80516001600160a01b03811681146107dd57600080fd5b600080600060608486031215610b0d57600080fd5b610b1684610ae1565b9250610b2460208501610ae1565b9150604084015167ffffffffffffffff811115610b4057600080fd5b8401601f81018613610b5157600080fd5b8051610b5f6107948261074d565b818152876020838501011115610b7457600080fd5b610b8582602083016020860161069c565b8093505050509250925092565b60008251610ba481846020870161069c565b9190910192915050565b6001600160a01b0383168152604060208201819052600090610ad9908301846106c056fea264697066735822122090420c6dbc130529126cef7914ec62003e0c84e6f825cccc7155fa10954fac4564736f6c63430008190033","linkReferences":{}},"methodIdentifiers":{"receiveWormholeMessages(bytes,bytes[],bytes32,uint16,bytes32)":"529dca32","s_lastContractToBeCalled()":"2a31f241","s_lastEncodedFunctionCall()":"4f91330e","s_lastSender()":"f452ca72","s_payload()":"890bd8ad","s_registeredSenders(uint16)":"d5f6297f","s_registrationOwner()":"2277d3ae","s_sourceAddress()":"ca818f89","s_wormholeRelayer()":"5bb60dc0","setRegisteredSender(uint16,bytes32)":"dd12d68b","withdraw()":"3ccfd60b"},"id":12}