{"abi":[{"type":"constructor","inputs":[{"name":"_wormholeRelayer","type":"address","internalType":"address"}],"stateMutability":"nonpayable"},{"type":"function","name":"receiveWormholeMessages","inputs":[{"name":"payload","type":"bytes","internalType":"bytes"},{"name":"","type":"bytes[]","internalType":"bytes[]"},{"name":"sourceAddress","type":"bytes32","internalType":"bytes32"},{"name":"sourceChain","type":"uint16","internalType":"uint16"},{"name":"","type":"bytes32","internalType":"bytes32"}],"outputs":[],"stateMutability":"payable"},{"type":"function","name":"s_registeredSenders","inputs":[{"name":"","type":"uint16","internalType":"uint16"}],"outputs":[{"name":"","type":"bytes32","internalType":"bytes32"}],"stateMutability":"view"},{"type":"function","name":"s_registrationOwner","inputs":[],"outputs":[{"name":"","type":"address","internalType":"address"}],"stateMutability":"view"},{"type":"function","name":"s_wormholeRelayer","inputs":[],"outputs":[{"name":"","type":"address","internalType":"contract IWormholeRelayer"}],"stateMutability":"view"},{"type":"function","name":"setRegisteredSender","inputs":[{"name":"sourceChain","type":"uint16","internalType":"uint16"},{"name":"sourceAddress","type":"bytes32","internalType":"bytes32"}],"outputs":[],"stateMutability":"nonpayable"},{"type":"function","name":"withdraw","inputs":[],"outputs":[],"stateMutability":"nonpayable"},{"type":"event","name":"FunctionCallError","inputs":[{"name":"message","type":"string","indexed":false,"internalType":"string"}],"anonymous":false},{"type":"event","name":"FunctionExecuted","inputs":[{"name":"contractToBeCalled","type":"address","indexed":false,"internalType":"address"},{"name":"encodedFunctionCall","type":"bytes","indexed":false,"internalType":"bytes"}],"anonymous":false},{"type":"event","name":"MessageInfoReceived","inputs":[{"name":"sourceAddress","type":"bytes32","indexed":false,"internalType":"bytes32"},{"name":"payload","type":"bytes","indexed":false,"internalType":"bytes"}],"anonymous":false},{"type":"event","name":"SenderRegistered","inputs":[{"name":"sourceChain","type":"uint16","indexed":false,"internalType":"uint16"},{"name":"sourceAddress","type":"bytes32","indexed":false,"internalType":"bytes32"}],"anonymous":false},{"type":"event","name":"SourceChainLogged","inputs":[{"name":"sourceChain","type":"uint16","indexed":false,"internalType":"uint16"},{"name":"sender","type":"address","indexed":false,"internalType":"address"}],"anonymous":false},{"type":"event","name":"Withdraw","inputs":[{"name":"owner","type":"address","indexed":true,"internalType":"address"},{"name":"amount","type":"uint256","indexed":false,"internalType":"uint256"}],"anonymous":false}],"bytecode":{"object":"0x6080604052348015600f57600080fd5b506040516109b53803806109b5833981016040819052602c916059565b600080546001600160a01b039092166001600160a01b031992831617905560018054909116331790556087565b600060208284031215606a57600080fd5b81516001600160a01b0381168114608057600080fd5b9392505050565b61091f806100966000396000f3fe6080604052600436106100555760003560e01c80632277d3ae1461005a5780633ccfd60b14610097578063529dca32146100ae5780635bb60dc0146100c1578063d5f6297f146100e1578063dd12d68b1461011c575b600080fd5b34801561006657600080fd5b5060015461007a906001600160a01b031681565b6040516001600160a01b0390911681526020015b60405180910390f35b3480156100a357600080fd5b506100ac61013c565b005b6100ac6100bc3660046105ed565b61021c565b3480156100cd57600080fd5b5060005461007a906001600160a01b031681565b3480156100ed57600080fd5b5061010e6100fc3660046106f6565b60026020526000908152604090205481565b60405190815260200161008e565b34801561012857600080fd5b506100ac610137366004610718565b610494565b6001546001600160a01b0316331461016f5760405162461bcd60e51b815260040161016690610742565b60405180910390fd5b47806101b65760405162461bcd60e51b81526020600482015260166024820152754e6f2062616c616e636520746f20776974686472617760501b6044820152606401610166565b604051339082156108fc029083906000818181858888f193505050501580156101e3573d6000803e3d6000fd5b5060405181815233907f884edad9ce6fa2440d8a54cc123490eb96d2768479d49ff9c7366125a94243649060200160405180910390a250565b61ffff821660009081526002602052604090205482908490811461027a5760405162461bcd60e51b815260206004820152601560248201527414d95b99195c881b9bdd081c9959da5cdd195c9959605a1b6044820152606401610166565b6000546001600160a01b031633146102ed5760405162461bcd60e51b815260206004820152603060248201527f4f6e6c792074686520576f726d686f6c652052656c617965722063616e20636160448201526f3636103a3434b990333ab731ba34b7b760811b6064820152608401610166565b7f77e3e724b03e55e5ad9e86363a3d566079ef39090c5961cbb68c5edd353e6517858860405161031e9291906107d7565b60405180910390a160008060008980602001905181019061033f919061080f565b9250925092506000826001600160a01b0316348360405161036091906108a9565b60006040518083038185875af1925050503d806000811461039d576040519150601f19603f3d011682016040523d82523d6000602084013e6103a2565b606091505b505090508061044d577f5ed95ef803f77d10f65e089de8b7058e25192b4b3435ab5ba620c5af6167dbd860405161040a906020808252601d908201527f4572726f7220657865637574696e672066756e6374696f6e2063616c6c000000604082015260600190565b60405180910390a16040516001600160a01b038516903480156108fc02916000818181858888f19350505050158015610447573d6000803e3d6000fd5b50610487565b7f8330397d1741789a83c8af0a6952d33b1c5340d05ddd772be57e25dafacdb51c838360405161047e9291906108c5565b60405180910390a15b5050505050505050505050565b6001546001600160a01b031633146104be5760405162461bcd60e51b815260040161016690610742565b61ffff8216600081815260026020908152604091829020849055815192835282018390527f1042215c906c4f298080457b6ca52368f97c2627acd368055d7c3576876d4882910160405180910390a15050565b634e487b7160e01b600052604160045260246000fd5b604051601f8201601f1916810167ffffffffffffffff8111828210171561055057610550610511565b604052919050565b600067ffffffffffffffff82111561057257610572610511565b50601f01601f191660200190565b600082601f83011261059157600080fd5b81356105a461059f82610558565b610527565b8181528460208386010111156105b957600080fd5b816020850160208301376000918101602001919091529392505050565b803561ffff811681146105e857600080fd5b919050565b600080600080600060a0868803121561060557600080fd5b853567ffffffffffffffff8082111561061d57600080fd5b61062989838a01610580565b965060209150818801358181111561064057600080fd5b8801601f81018a1361065157600080fd5b80358281111561066357610663610511565b8060051b610672858201610527565b918252828101850191858101908d84111561068c57600080fd5b86850192505b838310156106c8578235868111156106aa5760008081fd5b6106b88f8983890101610580565b8352509186019190860190610692565b809a5050505050505050604086013592506106e5606087016105d6565b949793965091946080013592915050565b60006020828403121561070857600080fd5b610711826105d6565b9392505050565b6000806040838503121561072b57600080fd5b610734836105d6565b946020939093013593505050565b60208082526025908201527f4f6e6c7920746865206f776e65722063616e2063616c6c20746869732066756e60408201526431ba34b7b760d91b606082015260800190565b60005b838110156107a257818101518382015260200161078a565b50506000910152565b600081518084526107c3816020860160208601610787565b601f01601f19169290920160200192915050565b8281526040602082015260006107f060408301846107ab565b949350505050565b80516001600160a01b03811681146105e857600080fd5b60008060006060848603121561082457600080fd5b61082d846107f8565b925061083b602085016107f8565b9150604084015167ffffffffffffffff81111561085757600080fd5b8401601f8101861361086857600080fd5b805161087661059f82610558565b81815287602083850101111561088b57600080fd5b61089c826020830160208601610787565b8093505050509250925092565b600082516108bb818460208701610787565b9190910192915050565b6001600160a01b03831681526040602082018190526000906107f0908301846107ab56fea264697066735822122007e0d5e5330c29882d9df00a8e1b9be282c0f95ddb14dd2684c8b0b95286a81f64736f6c63430008190033","linkReferences":{}},"methodIdentifiers":{"receiveWormholeMessages(bytes,bytes[],bytes32,uint16,bytes32)":"529dca32","s_registeredSenders(uint16)":"d5f6297f","s_registrationOwner()":"2277d3ae","s_wormholeRelayer()":"5bb60dc0","setRegisteredSender(uint16,bytes32)":"dd12d68b","withdraw()":"3ccfd60b"},"id":12}