{
  "_format": "hh-sol-artifact-1",
  "contractName": "KOLFactorySomniaCloneable",
  "sourceName": "contracts/kol-router/somnia/KOLFactorySomniaCloneable.sol",
  "abi": [
    {
      "inputs": [
        {
          "internalType": "address",
          "name": "_somniaRouter",
          "type": "address"
        },
        {
          "internalType": "address",
          "name": "_sherryFoundationAddress",
          "type": "address"
        },
        {
          "internalType": "address",
          "name": "_sherryTreasuryAddress",
          "type": "address"
        },
        {
          "internalType": "address",
          "name": "_implementation",
          "type": "address"
        }
      ],
      "stateMutability": "nonpayable",
      "type": "constructor"
    },
    {
      "inputs": [],
      "name": "FailedDeployment",
      "type": "error"
    },
    {
      "inputs": [
        {
          "internalType": "uint256",
          "name": "balance",
          "type": "uint256"
        },
        {
          "internalType": "uint256",
          "name": "needed",
          "type": "uint256"
        }
      ],
      "name": "InsufficientBalance",
      "type": "error"
    },
    {
      "inputs": [
        {
          "internalType": "address",
          "name": "owner",
          "type": "address"
        }
      ],
      "name": "OwnableInvalidOwner",
      "type": "error"
    },
    {
      "inputs": [
        {
          "internalType": "address",
          "name": "account",
          "type": "address"
        }
      ],
      "name": "OwnableUnauthorizedAccount",
      "type": "error"
    },
    {
      "anonymous": false,
      "inputs": [
        {
          "indexed": false,
          "internalType": "uint16",
          "name": "kolFeeRate",
          "type": "uint16"
        },
        {
          "indexed": false,
          "internalType": "uint16",
          "name": "foundationFeeRate",
          "type": "uint16"
        },
        {
          "indexed": false,
          "internalType": "uint16",
          "name": "treasuryFeeRate",
          "type": "uint16"
        }
      ],
      "name": "FeeRatesUpdated",
      "type": "event"
    },
    {
      "anonymous": false,
      "inputs": [
        {
          "indexed": false,
          "internalType": "address",
          "name": "foundationAddress",
          "type": "address"
        }
      ],
      "name": "FoundationAddressUpdated",
      "type": "event"
    },
    {
      "anonymous": false,
      "inputs": [
        {
          "indexed": true,
          "internalType": "address",
          "name": "previousOwner",
          "type": "address"
        },
        {
          "indexed": true,
          "internalType": "address",
          "name": "newOwner",
          "type": "address"
        }
      ],
      "name": "OwnershipTransferred",
      "type": "event"
    },
    {
      "anonymous": false,
      "inputs": [
        {
          "indexed": false,
          "internalType": "address",
          "name": "routerAddress",
          "type": "address"
        }
      ],
      "name": "ProtocolAddressUpdated",
      "type": "event"
    },
    {
      "anonymous": false,
      "inputs": [
        {
          "indexed": true,
          "internalType": "address",
          "name": "kolAddress",
          "type": "address"
        },
        {
          "indexed": false,
          "internalType": "address",
          "name": "routerAddress",
          "type": "address"
        }
      ],
      "name": "RouterCreated",
      "type": "event"
    },
    {
      "anonymous": false,
      "inputs": [
        {
          "indexed": false,
          "internalType": "address",
          "name": "foundationAddress",
          "type": "address"
        }
      ],
      "name": "TreasuryAddressUpdated",
      "type": "event"
    },
    {
      "inputs": [],
      "name": "BASIS_POINTS",
      "outputs": [
        {
          "internalType": "uint16",
          "name": "",
          "type": "uint16"
        }
      ],
      "stateMutability": "view",
      "type": "function"
    },
    {
      "inputs": [
        {
          "internalType": "address",
          "name": "_kolAddress",
          "type": "address"
        }
      ],
      "name": "createKOLRouter",
      "outputs": [
        {
          "internalType": "address",
          "name": "",
          "type": "address"
        }
      ],
      "stateMutability": "nonpayable",
      "type": "function"
    },
    {
      "inputs": [
        {
          "internalType": "uint256",
          "name": "",
          "type": "uint256"
        }
      ],
      "name": "deployedRouters",
      "outputs": [
        {
          "internalType": "address",
          "name": "",
          "type": "address"
        }
      ],
      "stateMutability": "view",
      "type": "function"
    },
    {
      "inputs": [],
      "name": "foundationFeeRate",
      "outputs": [
        {
          "internalType": "uint16",
          "name": "",
          "type": "uint16"
        }
      ],
      "stateMutability": "view",
      "type": "function"
    },
    {
      "inputs": [],
      "name": "getBasisPoints",
      "outputs": [
        {
          "internalType": "uint16",
          "name": "",
          "type": "uint16"
        }
      ],
      "stateMutability": "pure",
      "type": "function"
    },
    {
      "inputs": [],
      "name": "getFoundationFeeRate",
      "outputs": [
        {
          "internalType": "uint16",
          "name": "",
          "type": "uint16"
        }
      ],
      "stateMutability": "view",
      "type": "function"
    },
    {
      "inputs": [],
      "name": "getKOLFeeRate",
      "outputs": [
        {
          "internalType": "uint16",
          "name": "",
          "type": "uint16"
        }
      ],
      "stateMutability": "view",
      "type": "function"
    },
    {
      "inputs": [
        {
          "internalType": "address",
          "name": "_kolAddress",
          "type": "address"
        },
        {
          "internalType": "uint256",
          "name": "_index",
          "type": "uint256"
        }
      ],
      "name": "getKOLRouter",
      "outputs": [
        {
          "internalType": "address",
          "name": "",
          "type": "address"
        }
      ],
      "stateMutability": "view",
      "type": "function"
    },
    {
      "inputs": [
        {
          "internalType": "address",
          "name": "_kolAddress",
          "type": "address"
        }
      ],
      "name": "getKOLRoutersCount",
      "outputs": [
        {
          "internalType": "uint256",
          "name": "",
          "type": "uint256"
        }
      ],
      "stateMutability": "view",
      "type": "function"
    },
    {
      "inputs": [],
      "name": "getTotalFeeRate",
      "outputs": [
        {
          "internalType": "uint16",
          "name": "",
          "type": "uint16"
        }
      ],
      "stateMutability": "view",
      "type": "function"
    },
    {
      "inputs": [],
      "name": "getTotalRouters",
      "outputs": [
        {
          "internalType": "uint256",
          "name": "",
          "type": "uint256"
        }
      ],
      "stateMutability": "view",
      "type": "function"
    },
    {
      "inputs": [],
      "name": "getTreasuryFeeRate",
      "outputs": [
        {
          "internalType": "uint16",
          "name": "",
          "type": "uint16"
        }
      ],
      "stateMutability": "view",
      "type": "function"
    },
    {
      "inputs": [],
      "name": "implementation",
      "outputs": [
        {
          "internalType": "address",
          "name": "",
          "type": "address"
        }
      ],
      "stateMutability": "view",
      "type": "function"
    },
    {
      "inputs": [],
      "name": "kolFeeRate",
      "outputs": [
        {
          "internalType": "uint16",
          "name": "",
          "type": "uint16"
        }
      ],
      "stateMutability": "view",
      "type": "function"
    },
    {
      "inputs": [],
      "name": "owner",
      "outputs": [
        {
          "internalType": "address",
          "name": "",
          "type": "address"
        }
      ],
      "stateMutability": "view",
      "type": "function"
    },
    {
      "inputs": [],
      "name": "protocolRouter",
      "outputs": [
        {
          "internalType": "address",
          "name": "",
          "type": "address"
        }
      ],
      "stateMutability": "view",
      "type": "function"
    },
    {
      "inputs": [],
      "name": "renounceOwnership",
      "outputs": [],
      "stateMutability": "nonpayable",
      "type": "function"
    },
    {
      "inputs": [
        {
          "internalType": "uint16",
          "name": "_kolFeeRate",
          "type": "uint16"
        },
        {
          "internalType": "uint16",
          "name": "_foundationFeeRate",
          "type": "uint16"
        },
        {
          "internalType": "uint16",
          "name": "_treasuryFeeRate",
          "type": "uint16"
        }
      ],
      "name": "setFeeRates",
      "outputs": [],
      "stateMutability": "nonpayable",
      "type": "function"
    },
    {
      "inputs": [
        {
          "internalType": "address",
          "name": "_protocolRouter",
          "type": "address"
        }
      ],
      "name": "setProtocolRouter",
      "outputs": [],
      "stateMutability": "nonpayable",
      "type": "function"
    },
    {
      "inputs": [
        {
          "internalType": "address",
          "name": "_sherryFoundationAddress",
          "type": "address"
        }
      ],
      "name": "setSherryFoundationAddress",
      "outputs": [],
      "stateMutability": "nonpayable",
      "type": "function"
    },
    {
      "inputs": [
        {
          "internalType": "address",
          "name": "_sherryTreasuryAddress",
          "type": "address"
        }
      ],
      "name": "setSherryTreasuryAddress",
      "outputs": [],
      "stateMutability": "nonpayable",
      "type": "function"
    },
    {
      "inputs": [],
      "name": "sherryFoundationAddress",
      "outputs": [
        {
          "internalType": "address",
          "name": "",
          "type": "address"
        }
      ],
      "stateMutability": "view",
      "type": "function"
    },
    {
      "inputs": [],
      "name": "sherryTreasuryAddress",
      "outputs": [
        {
          "internalType": "address",
          "name": "",
          "type": "address"
        }
      ],
      "stateMutability": "view",
      "type": "function"
    },
    {
      "inputs": [
        {
          "internalType": "address",
          "name": "newOwner",
          "type": "address"
        }
      ],
      "name": "transferOwnership",
      "outputs": [],
      "stateMutability": "nonpayable",
      "type": "function"
    },
    {
      "inputs": [],
      "name": "treasuryFeeRate",
      "outputs": [
        {
          "internalType": "uint16",
          "name": "",
          "type": "uint16"
        }
      ],
      "stateMutability": "view",
      "type": "function"
    }
  ],
  "bytecode": "0x60a06040526005805465ffffffffffff60a01b1916640c800c801960a21b17905534801561002c57600080fd5b5060405161135238038061135283398101604081905261004b9161028c565b838383338061007557604051631e4fbdf760e01b8152600060048201526024015b60405180910390fd5b61007e81610220565b506001600160a01b0383166100d55760405162461bcd60e51b815260206004820152601760248201527f496e76616c69642070726f746f636f6c20726f75746572000000000000000000604482015260640161006c565b6001600160a01b03821661012b5760405162461bcd60e51b815260206004820152601a60248201527f496e76616c696420666f756e646174696f6e2061646472657373000000000000604482015260640161006c565b6001600160a01b0381166101815760405162461bcd60e51b815260206004820152601860248201527f496e76616c696420747265617375727920616464726573730000000000000000604482015260640161006c565b600380546001600160a01b03199081166001600160a01b03958616179091556004805482169385169390931790925560058054909216908316179055811661020b5760405162461bcd60e51b815260206004820152601e60248201527f496e76616c696420696d706c656d656e746174696f6e20616464726573730000604482015260640161006c565b6001600160a01b0316608052506102e0915050565b600080546001600160a01b038381166001600160a01b0319831681178455604051919092169283917f8be0079c531659141344cd1fd0a4f28419497f9722a3daafe3b4186f6b6457e09190a35050565b80516001600160a01b038116811461028757600080fd5b919050565b600080600080608085870312156102a257600080fd5b6102ab85610270565b93506102b960208601610270565b92506102c760408601610270565b91506102d560608601610270565b905092959194509250565b608051611050610302600039600081816102570152610ce101526110506000f3fe608060405234801561001057600080fd5b50600436106101a35760003560e01c8063894e47e1116100ee578063b8590ded11610097578063e172323611610071578063e1723236146103fd578063e1f1c4a714610433578063f2fde38b1461043c578063f5041d4b1461044f57600080fd5b8063b8590ded146103a4578063dc09ff3c146103c4578063debb4826146103ea57600080fd5b806397a18e5f116100c857806397a18e5f14610365578063a014cd631461036d578063a96aec821461039157600080fd5b8063894e47e11461032c5780638da5cb5b14610334578063958c79491461035257600080fd5b80635c60da1b116101505780636920defc1161012a5780636920defc146102d6578063715018a6146102fc578063780349e91461030457600080fd5b80635c60da1b146102525780635d79d9ea14610279578063666010321461029957600080fd5b80633c31fa62116101815780633c31fa621461020c578063404938901461021f5780635b457fa31461023f57600080fd5b806301318bd7146101a8578063174f0f3c146101bd5780632a2884e0146101d4575b600080fd5b6101bb6101b6366004610ef0565b610477565b005b6002545b6040519081526020015b60405180910390f35b6101e76101e2366004610f12565b61057b565b60405173ffffffffffffffffffffffffffffffffffffffff90911681526020016101cb565b6101bb61021a366004610f3d565b6105b2565b6003546101e79073ffffffffffffffffffffffffffffffffffffffff1681565b6101e761024d366004610ef0565b6107e4565b6101e77f000000000000000000000000000000000000000000000000000000000000000081565b6004546101e79073ffffffffffffffffffffffffffffffffffffffff1681565b6005546102c3907801000000000000000000000000000000000000000000000000900461ffff1681565b60405161ffff90911681526020016101cb565b600554760100000000000000000000000000000000000000000000900461ffff166102c3565b6101bb610946565b6005546102c390760100000000000000000000000000000000000000000000900461ffff1681565b6102c361095a565b60005473ffffffffffffffffffffffffffffffffffffffff166101e7565b6101bb610360366004610ef0565b6109d0565b6127106102c3565b60055474010000000000000000000000000000000000000000900461ffff166102c3565b6101bb61039f366004610ef0565b610ac8565b6005546101e79073ffffffffffffffffffffffffffffffffffffffff1681565b6005546102c39074010000000000000000000000000000000000000000900461ffff1681565b6101e76103f8366004610f80565b610bc0565b6101c161040b366004610ef0565b73ffffffffffffffffffffffffffffffffffffffff1660009081526001602052604090205490565b6102c361271081565b6101bb61044a366004610ef0565b610c22565b6005547801000000000000000000000000000000000000000000000000900461ffff166102c3565b61047f610c86565b73ffffffffffffffffffffffffffffffffffffffff8116610501576040517f08c379a000000000000000000000000000000000000000000000000000000000815260206004820152601660248201527f496e76616c696420726f7574657220616464726573730000000000000000000060448201526064015b60405180910390fd5b600380547fffffffffffffffffffffffff00000000000000000000000000000000000000001673ffffffffffffffffffffffffffffffffffffffff83169081179091556040519081527f725168acf8fb2c310e106a05c2eed321da0de2fc4cf73dfe2594ca1d4795fd10906020015b60405180910390a150565b6002818154811061058b57600080fd5b60009182526020909120015473ffffffffffffffffffffffffffffffffffffffff16905081565b6105ba610c86565b612710816105c88486610faa565b6105d29190610faa565b61ffff16111561063e576040517f08c379a000000000000000000000000000000000000000000000000000000000815260206004820152601c60248201527f546f74616c206665652063616e6e6f742065786365656420313030250000000060448201526064016104f8565b60008361ffff16118015610656575060008261ffff16115b8015610666575060008161ffff16115b6106cc576040517f08c379a000000000000000000000000000000000000000000000000000000000815260206004820181905260248201527f466565207261746573206d7573742062652067726561746572207468616e203060448201526064016104f8565b600580547fffffffffffffffff00000000ffffffffffffffffffffffffffffffffffffffff167401000000000000000000000000000000000000000061ffff8681169182027fffffffffffffffff0000ffffffffffffffffffffffffffffffffffffffffffff1692909217760100000000000000000000000000000000000000000000868416908102919091177fffffffffffff0000ffffffffffffffffffffffffffffffffffffffffffffffff16780100000000000000000000000000000000000000000000000093861693840217909355604080519182526020820193909352918201527f68c2357cd55d7c20e03059c904d4ee872226cc9e023f10ae955d94d8863810db9060600160405180910390a1505050565b600073ffffffffffffffffffffffffffffffffffffffff8216610863576040517f08c379a000000000000000000000000000000000000000000000000000000000815260206004820152601360248201527f496e76616c6964204b4f4c20616464726573730000000000000000000000000060448201526064016104f8565b600061086e83610cd9565b73ffffffffffffffffffffffffffffffffffffffff8481166000818152600160208181526040808420805480850182559085528285200180549688167fffffffffffffffffffffffff000000000000000000000000000000000000000097881681179091556002805494850181559094527f405787fa12a823e0f2b7631cc41b3ba8828b3321ca811111fa75cd3aa3bb5ace9092018054909516831790945551908152929350917fe957baec14239f50385ff25f23a9695e828ecf988a5af33b607cbd1b540bbebc910160405180910390a292915050565b61094e610c86565b6109586000610dba565b565b60055460009061ffff780100000000000000000000000000000000000000000000000082048116916109c191760100000000000000000000000000000000000000000000820481169174010000000000000000000000000000000000000000900416610faa565b6109cb9190610faa565b905090565b6109d8610c86565b73ffffffffffffffffffffffffffffffffffffffff8116610a55576040517f08c379a000000000000000000000000000000000000000000000000000000000815260206004820152601860248201527f496e76616c69642074726561737572792061646472657373000000000000000060448201526064016104f8565b600580547fffffffffffffffffffffffff00000000000000000000000000000000000000001673ffffffffffffffffffffffffffffffffffffffff83169081179091556040519081527fb6a5e89655cf506139085f051af608195ed056f8dc550b180a1c38d401e2b6c490602001610570565b610ad0610c86565b73ffffffffffffffffffffffffffffffffffffffff8116610b4d576040517f08c379a000000000000000000000000000000000000000000000000000000000815260206004820152601a60248201527f496e76616c696420666f756e646174696f6e206164647265737300000000000060448201526064016104f8565b600480547fffffffffffffffffffffffff00000000000000000000000000000000000000001673ffffffffffffffffffffffffffffffffffffffff83169081179091556040519081527fd451575e0d555b0fcd35add8eff1239d7486e3f4f256239a9af21ea316250e4b90602001610570565b73ffffffffffffffffffffffffffffffffffffffff82166000908152600160205260408120805483908110610bf757610bf7610feb565b60009182526020909120015473ffffffffffffffffffffffffffffffffffffffff1690505b92915050565b610c2a610c86565b73ffffffffffffffffffffffffffffffffffffffff8116610c7a576040517f1e4fbdf7000000000000000000000000000000000000000000000000000000008152600060048201526024016104f8565b610c8381610dba565b50565b60005473ffffffffffffffffffffffffffffffffffffffff163314610958576040517f118cdaa70000000000000000000000000000000000000000000000000000000081523360048201526024016104f8565b600080610d057f0000000000000000000000000000000000000000000000000000000000000000610e2f565b600354600480546005546040517f1459457a00000000000000000000000000000000000000000000000000000000815273ffffffffffffffffffffffffffffffffffffffff89811694820194909452938316602485015230604485015290821660648401528116608483015291925090821690631459457a9060a401600060405180830381600087803b158015610d9b57600080fd5b505af1158015610daf573d6000803e3d6000fd5b509295945050505050565b6000805473ffffffffffffffffffffffffffffffffffffffff8381167fffffffffffffffffffffffff0000000000000000000000000000000000000000831681178455604051919092169283917f8be0079c531659141344cd1fd0a4f28419497f9722a3daafe3b4186f6b6457e09190a35050565b6000610c1c828280763d602d80600a3d3981f3363d3d373d3d3d363d730000008360601b60e81c176000526e5af43d82803e903d91602b57fd5bf38360781b176020526037600983f0905073ffffffffffffffffffffffffffffffffffffffff8116610c1c576040517fb06ebf3d00000000000000000000000000000000000000000000000000000000815260040160405180910390fd5b803573ffffffffffffffffffffffffffffffffffffffff81168114610eeb57600080fd5b919050565b600060208284031215610f0257600080fd5b610f0b82610ec7565b9392505050565b600060208284031215610f2457600080fd5b5035919050565b803561ffff81168114610eeb57600080fd5b600080600060608486031215610f5257600080fd5b610f5b84610f2b565b9250610f6960208501610f2b565b9150610f7760408501610f2b565b90509250925092565b60008060408385031215610f9357600080fd5b610f9c83610ec7565b946020939093013593505050565b61ffff8181168382160190811115610c1c577f4e487b7100000000000000000000000000000000000000000000000000000000600052601160045260246000fd5b7f4e487b7100000000000000000000000000000000000000000000000000000000600052603260045260246000fdfea2646970667358221220d82030565c39cf1d704fcbacdd286b88a2dffe2f0b08510a5ed7b5eb9362781864736f6c634300081d0033",
  "linkReferences": {},
  "deployedLinkReferences": {}
}