{
  "_format": "hh-sol-artifact-1",
  "contractName": "CheckSender",
  "sourceName": "src/CheckSender.sol",
  "abi": [
    {
      "anonymous": false,
      "inputs": [
        {
          "indexed": true,
          "internalType": "address",
          "name": "sender",
          "type": "address"
        },
        {
          "indexed": false,
          "internalType": "bytes",
          "name": "data",
          "type": "bytes"
        }
      ],
      "name": "Log",
      "type": "event"
    },
    {
      "inputs": [],
      "name": "checkSender",
      "outputs": [],
      "stateMutability": "nonpayable",
      "type": "function"
    },
    {
      "inputs": [],
      "name": "lastOrigin",
      "outputs": [
        {
          "internalType": "address",
          "name": "",
          "type": "address"
        }
      ],
      "stateMutability": "view",
      "type": "function"
    },
    {
      "inputs": [],
      "name": "lastSender",
      "outputs": [
        {
          "internalType": "address",
          "name": "",
          "type": "address"
        }
      ],
      "stateMutability": "view",
      "type": "function"
    }
  ],
  "bytecode": "0x6080604052348015600f57600080fd5b506102be8061001f6000396000f3fe608060405234801561001057600080fd5b50600436106100415760003560e01c8063256fec881461004657806347fb0bed14610064578063ef2ddc7c1461006e575b600080fd5b61004e61008c565b60405161005b91906101eb565b60405180910390f35b61006c6100b0565b005b610076610184565b60405161008391906101eb565b60405180910390f35b60008054906101000a900473ffffffffffffffffffffffffffffffffffffffff1681565b336000806101000a81548173ffffffffffffffffffffffffffffffffffffffff021916908373ffffffffffffffffffffffffffffffffffffffff16021790555032600160006101000a81548173ffffffffffffffffffffffffffffffffffffffff021916908373ffffffffffffffffffffffffffffffffffffffff1602179055503373ffffffffffffffffffffffffffffffffffffffff167f3d4342015303e7c1e55fa1b6a8c1391f56e7290b109bb8b9aa858996910bae0760003660405161017a929190610264565b60405180910390a2565b600160009054906101000a900473ffffffffffffffffffffffffffffffffffffffff1681565b600073ffffffffffffffffffffffffffffffffffffffff82169050919050565b60006101d5826101aa565b9050919050565b6101e5816101ca565b82525050565b600060208201905061020060008301846101dc565b92915050565b600082825260208201905092915050565b82818337600083830152505050565b6000601f19601f8301169050919050565b60006102438385610206565b9350610250838584610217565b61025983610226565b840190509392505050565b6000602082019050818103600083015261027f818486610237565b9050939250505056fea26469706673582212201030ed845d94f7a9845aff63ba5294e76aa80ad9898f19f642bbb4b9ba3d465964736f6c63430008190033",
  "linkReferences": {},
  "deployedLinkReferences": {}
}