{
  "_format": "hh-sol-artifact-1",
  "contractName": "Sherry",
  "sourceName": "src/Sherry.sol",
  "abi": [
    {
      "inputs": [
        {
          "internalType": "address",
          "name": "_brandContract",
          "type": "address"
        },
        {
          "internalType": "address",
          "name": "_campaignContract",
          "type": "address"
        },
        {
          "internalType": "address",
          "name": "_kolContract",
          "type": "address"
        }
      ],
      "stateMutability": "nonpayable",
      "type": "constructor"
    },
    {
      "inputs": [
        {
          "internalType": "address",
          "name": "owner",
          "type": "address"
        }
      ],
      "name": "OwnableInvalidOwner",
      "type": "error"
    },
    {
      "inputs": [
        {
          "internalType": "address",
          "name": "account",
          "type": "address"
        }
      ],
      "name": "OwnableUnauthorizedAccount",
      "type": "error"
    },
    {
      "anonymous": false,
      "inputs": [
        {
          "indexed": true,
          "internalType": "address",
          "name": "previousOwner",
          "type": "address"
        },
        {
          "indexed": true,
          "internalType": "address",
          "name": "newOwner",
          "type": "address"
        }
      ],
      "name": "OwnershipTransferred",
      "type": "event"
    },
    {
      "anonymous": false,
      "inputs": [
        {
          "indexed": true,
          "internalType": "uint256",
          "name": "idPost",
          "type": "uint256"
        },
        {
          "indexed": true,
          "internalType": "address",
          "name": "kol",
          "type": "address"
        },
        {
          "indexed": true,
          "internalType": "uint256",
          "name": "idCampaign",
          "type": "uint256"
        },
        {
          "indexed": false,
          "internalType": "string",
          "name": "url",
          "type": "string"
        }
      ],
      "name": "PostCreated",
      "type": "event"
    },
    {
      "anonymous": false,
      "inputs": [
        {
          "indexed": true,
          "internalType": "uint256",
          "name": "idPost",
          "type": "uint256"
        },
        {
          "indexed": true,
          "internalType": "address",
          "name": "voter",
          "type": "address"
        }
      ],
      "name": "Voted",
      "type": "event"
    },
    {
      "inputs": [
        {
          "internalType": "uint256",
          "name": "_idKolCampaign",
          "type": "uint256"
        },
        {
          "internalType": "string",
          "name": "_url",
          "type": "string"
        }
      ],
      "name": "createPost",
      "outputs": [],
      "stateMutability": "nonpayable",
      "type": "function"
    },
    {
      "inputs": [
        {
          "internalType": "uint256",
          "name": "_idPost",
          "type": "uint256"
        }
      ],
      "name": "getUri",
      "outputs": [
        {
          "internalType": "string",
          "name": "",
          "type": "string"
        }
      ],
      "stateMutability": "view",
      "type": "function"
    },
    {
      "inputs": [],
      "name": "i_brandContract",
      "outputs": [
        {
          "internalType": "contract IBrand",
          "name": "",
          "type": "address"
        }
      ],
      "stateMutability": "view",
      "type": "function"
    },
    {
      "inputs": [],
      "name": "i_campaignContract",
      "outputs": [
        {
          "internalType": "contract ICampaign",
          "name": "",
          "type": "address"
        }
      ],
      "stateMutability": "view",
      "type": "function"
    },
    {
      "inputs": [],
      "name": "i_kolContract",
      "outputs": [
        {
          "internalType": "contract IKOL",
          "name": "",
          "type": "address"
        }
      ],
      "stateMutability": "view",
      "type": "function"
    },
    {
      "inputs": [],
      "name": "idPost",
      "outputs": [
        {
          "internalType": "uint256",
          "name": "",
          "type": "uint256"
        }
      ],
      "stateMutability": "view",
      "type": "function"
    },
    {
      "inputs": [],
      "name": "owner",
      "outputs": [
        {
          "internalType": "address",
          "name": "",
          "type": "address"
        }
      ],
      "stateMutability": "view",
      "type": "function"
    },
    {
      "inputs": [
        {
          "internalType": "uint256",
          "name": "",
          "type": "uint256"
        }
      ],
      "name": "posts",
      "outputs": [
        {
          "internalType": "uint256",
          "name": "idKolCampaign",
          "type": "uint256"
        },
        {
          "internalType": "address",
          "name": "kol",
          "type": "address"
        },
        {
          "internalType": "uint256",
          "name": "idCampaign",
          "type": "uint256"
        },
        {
          "internalType": "string",
          "name": "url",
          "type": "string"
        }
      ],
      "stateMutability": "view",
      "type": "function"
    },
    {
      "inputs": [],
      "name": "renounceOwnership",
      "outputs": [],
      "stateMutability": "nonpayable",
      "type": "function"
    },
    {
      "inputs": [
        {
          "internalType": "uint256",
          "name": "",
          "type": "uint256"
        }
      ],
      "name": "s_posts",
      "outputs": [
        {
          "internalType": "uint256",
          "name": "idKolCampaign",
          "type": "uint256"
        },
        {
          "internalType": "address",
          "name": "kol",
          "type": "address"
        },
        {
          "internalType": "uint256",
          "name": "idCampaign",
          "type": "uint256"
        },
        {
          "internalType": "string",
          "name": "url",
          "type": "string"
        }
      ],
      "stateMutability": "view",
      "type": "function"
    },
    {
      "inputs": [
        {
          "internalType": "uint256",
          "name": "",
          "type": "uint256"
        }
      ],
      "name": "s_votes",
      "outputs": [
        {
          "internalType": "uint256",
          "name": "",
          "type": "uint256"
        }
      ],
      "stateMutability": "view",
      "type": "function"
    },
    {
      "inputs": [
        {
          "internalType": "uint256",
          "name": "",
          "type": "uint256"
        },
        {
          "internalType": "address",
          "name": "",
          "type": "address"
        }
      ],
      "name": "s_votesByCampaign",
      "outputs": [
        {
          "internalType": "bool",
          "name": "",
          "type": "bool"
        }
      ],
      "stateMutability": "view",
      "type": "function"
    },
    {
      "inputs": [
        {
          "internalType": "uint256",
          "name": "",
          "type": "uint256"
        },
        {
          "internalType": "address",
          "name": "",
          "type": "address"
        }
      ],
      "name": "s_votesFollowers",
      "outputs": [
        {
          "internalType": "bool",
          "name": "",
          "type": "bool"
        }
      ],
      "stateMutability": "view",
      "type": "function"
    },
    {
      "inputs": [
        {
          "internalType": "address",
          "name": "newOwner",
          "type": "address"
        }
      ],
      "name": "transferOwnership",
      "outputs": [],
      "stateMutability": "nonpayable",
      "type": "function"
    },
    {
      "inputs": [
        {
          "internalType": "uint256",
          "name": "_idPost",
          "type": "uint256"
        },
        {
          "internalType": "address",
          "name": "_voter",
          "type": "address"
        }
      ],
      "name": "vote",
      "outputs": [
        {
          "internalType": "bool",
          "name": "",
          "type": "bool"
        }
      ],
      "stateMutability": "nonpayable",
      "type": "function"
    }
  ],
  "bytecode": "0x608060405234801561001057600080fd5b50604051611e7f380380611e7f833981810160405281019061003291906103f4565b33600073ffffffffffffffffffffffffffffffffffffffff168173ffffffffffffffffffffffffffffffffffffffff16036100a55760006040517f1e4fbdf700000000000000000000000000000000000000000000000000000000815260040161009c9190610456565b60405180910390fd5b6100b4816102cd60201b60201c565b50600073ffffffffffffffffffffffffffffffffffffffff168373ffffffffffffffffffffffffffffffffffffffff1603610124576040517f08c379a000000000000000000000000000000000000000000000000000000000815260040161011b906104ce565b60405180910390fd5b600073ffffffffffffffffffffffffffffffffffffffff168273ffffffffffffffffffffffffffffffffffffffff1603610193576040517f08c379a000000000000000000000000000000000000000000000000000000000815260040161018a90610560565b60405180910390fd5b600073ffffffffffffffffffffffffffffffffffffffff168173ffffffffffffffffffffffffffffffffffffffff1603610202576040517f08c379a00000000000000000000000000000000000000000000000000000000081526004016101f9906105cc565b60405180910390fd5b82600160006101000a81548173ffffffffffffffffffffffffffffffffffffffff021916908373ffffffffffffffffffffffffffffffffffffffff16021790555081600260006101000a81548173ffffffffffffffffffffffffffffffffffffffff021916908373ffffffffffffffffffffffffffffffffffffffff16021790555080600360006101000a81548173ffffffffffffffffffffffffffffffffffffffff021916908373ffffffffffffffffffffffffffffffffffffffff1602179055505050506105ec565b60008060009054906101000a900473ffffffffffffffffffffffffffffffffffffffff169050816000806101000a81548173ffffffffffffffffffffffffffffffffffffffff021916908373ffffffffffffffffffffffffffffffffffffffff1602179055508173ffffffffffffffffffffffffffffffffffffffff168173ffffffffffffffffffffffffffffffffffffffff167f8be0079c531659141344cd1fd0a4f28419497f9722a3daafe3b4186f6b6457e060405160405180910390a35050565b600080fd5b600073ffffffffffffffffffffffffffffffffffffffff82169050919050565b60006103c182610396565b9050919050565b6103d1816103b6565b81146103dc57600080fd5b50565b6000815190506103ee816103c8565b92915050565b60008060006060848603121561040d5761040c610391565b5b600061041b868287016103df565b935050602061042c868287016103df565b925050604061043d868287016103df565b9150509250925092565b610450816103b6565b82525050565b600060208201905061046b6000830184610447565b92915050565b600082825260208201905092915050565b7f496e76616c6964206272616e6420636f6e747261637420616464726573730000600082015250565b60006104b8601e83610471565b91506104c382610482565b602082019050919050565b600060208201905081810360008301526104e7816104ab565b9050919050565b7f496e76616c69642063616d706169676e20636f6e74726163742061646472657360008201527f7300000000000000000000000000000000000000000000000000000000000000602082015250565b600061054a602183610471565b9150610555826104ee565b604082019050919050565b600060208201905081810360008301526105798161053d565b9050919050565b7f496e76616c6964204b4f4c20636f6e7472616374206164647265737300000000600082015250565b60006105b6601c83610471565b91506105c182610580565b602082019050919050565b600060208201905081810360008301526105e5816105a9565b9050919050565b611884806105fb6000396000f3fe608060405234801561001057600080fd5b50600436106100f55760003560e01c8063715018a611610097578063d70c613011610066578063d70c6130146102a0578063da0544aa146102be578063f2f37399146102ee578063f2fde38b1461030c576100f5565b8063715018a61461023e5780638da5cb5b146102485780639197cc3714610266578063a9ca3a4c14610284576100f5565b8063354219f2116100d3578063354219f21461017b578063493cd9b5146101ab5780634bd6caf1146101db5780634e04a4d21461020b576100f5565b806302d947ef146100fa5780630b1e7f831461012a57806326e75bad1461015d575b600080fd5b610114600480360381019061010f9190610eb0565b610328565b6040516101219190610f0b565b60405180910390f35b610144600480360381019061013f9190610f26565b610589565b6040516101549493929190611001565b60405180910390f35b610165610671565b60405161017291906110ac565b60405180910390f35b61019560048036038101906101909190610eb0565b610697565b6040516101a29190610f0b565b60405180910390f35b6101c560048036038101906101c09190610eb0565b6106c6565b6040516101d29190610f0b565b60405180910390f35b6101f560048036038101906101f09190610f26565b6106f5565b60405161020291906110c7565b60405180910390f35b61022560048036038101906102209190610f26565b61070d565b6040516102359493929190611001565b60405180910390f35b6102466107e5565b005b6102506107f9565b60405161025d91906110e2565b60405180910390f35b61026e610822565b60405161027b919061111e565b60405180910390f35b61029e6004803603810190610299919061126e565b610848565b005b6102a8610b02565b6040516102b591906112eb565b60405180910390f35b6102d860048036038101906102d39190610f26565b610b28565b6040516102e59190611306565b60405180910390f35b6102f6610c29565b60405161030391906110c7565b60405180910390f35b61032660048036038101906103219190611328565b610c2f565b005b600080600660008581526020019081526020016000206002015403610382576040517f08c379a0000000000000000000000000000000000000000000000000000000008152600401610379906113a1565b60405180910390fd5b6000600660008581526020019081526020016000206002015490506009600082815260200190815260200160002060008473ffffffffffffffffffffffffffffffffffffffff1673ffffffffffffffffffffffffffffffffffffffff16815260200190815260200160002060009054906101000a900460ff161561043b576040517f08c379a00000000000000000000000000000000000000000000000000000000081526004016104329061140d565b60405180910390fd5b60016009600083815260200190815260200160002060008573ffffffffffffffffffffffffffffffffffffffff1673ffffffffffffffffffffffffffffffffffffffff16815260200190815260200160002060006101000a81548160ff021916908315150217905550600160076000600454815260200190815260200160002060008573ffffffffffffffffffffffffffffffffffffffff1673ffffffffffffffffffffffffffffffffffffffff16815260200190815260200160002060006101000a81548160ff0219169083151502179055506008600085815260200190815260200160002060008154809291906105339061145c565b91905055508273ffffffffffffffffffffffffffffffffffffffff166004547f030b0f8dcd86a031eddb071f91882edeac8173663ba775713b677b42b51be44b60405160405180910390a3600191505092915050565b6005818154811061059957600080fd5b90600052602060002090600402016000915090508060000154908060010160009054906101000a900473ffffffffffffffffffffffffffffffffffffffff16908060020154908060030180546105ee906114d3565b80601f016020809104026020016040519081016040528092919081815260200182805461061a906114d3565b80156106675780601f1061063c57610100808354040283529160200191610667565b820191906000526020600020905b81548152906001019060200180831161064a57829003601f168201915b5050505050905084565b600360009054906101000a900473ffffffffffffffffffffffffffffffffffffffff1681565b60076020528160005260406000206020528060005260406000206000915091509054906101000a900460ff1681565b60096020528160005260406000206020528060005260406000206000915091509054906101000a900460ff1681565b60086020528060005260406000206000915090505481565b60066020528060005260406000206000915090508060000154908060010160009054906101000a900473ffffffffffffffffffffffffffffffffffffffff1690806002015490806003018054610762906114d3565b80601f016020809104026020016040519081016040528092919081815260200182805461078e906114d3565b80156107db5780601f106107b0576101008083540402835291602001916107db565b820191906000526020600020905b8154815290600101906020018083116107be57829003601f168201915b5050505050905084565b6107ed610cb5565b6107f76000610d3c565b565b60008060009054906101000a900473ffffffffffffffffffffffffffffffffffffffff16905090565b600160009054906101000a900473ffffffffffffffffffffffffffffffffffffffff1681565b600080600360009054906101000a900473ffffffffffffffffffffffffffffffffffffffff1673ffffffffffffffffffffffffffffffffffffffff16639f7dff74856040518263ffffffff1660e01b81526004016108a691906110c7565b6040805180830381865afa1580156108c2573d6000803e3d6000fd5b505050506040513d601f19601f820116820180604052508101906108e6919061152e565b915091506000810361092d576040517f08c379a0000000000000000000000000000000000000000000000000000000008152600401610924906115ba565b60405180910390fd5b600460008154809291906109409061145c565b9190505550600060405180608001604052808681526020018473ffffffffffffffffffffffffffffffffffffffff168152602001838152602001858152509050806006600060045481526020019081526020016000206000820151816000015560208201518160010160006101000a81548173ffffffffffffffffffffffffffffffffffffffff021916908373ffffffffffffffffffffffffffffffffffffffff160217905550604082015181600201556060820151816003019081610a06919061177c565b5090505060058190806001815401808255809150506001900390600052602060002090600402016000909190919091506000820151816000015560208201518160010160006101000a81548173ffffffffffffffffffffffffffffffffffffffff021916908373ffffffffffffffffffffffffffffffffffffffff160217905550604082015181600201556060820151816003019081610aa6919061177c565b505050818373ffffffffffffffffffffffffffffffffffffffff166004547f9916d9555ce25964e46f39ee4190250e45c845fb11f2de41925e973aff6ad05187604051610af39190611306565b60405180910390a45050505050565b600260009054906101000a900473ffffffffffffffffffffffffffffffffffffffff1681565b60606000600660008481526020019081526020016000206002015403610b83576040517f08c379a0000000000000000000000000000000000000000000000000000000008152600401610b7a906113a1565b60405180910390fd5b600660008381526020019081526020016000206003018054610ba4906114d3565b80601f0160208091040260200160405190810160405280929190818152602001828054610bd0906114d3565b8015610c1d5780601f10610bf257610100808354040283529160200191610c1d565b820191906000526020600020905b815481529060010190602001808311610c0057829003601f168201915b50505050509050919050565b60045481565b610c37610cb5565b600073ffffffffffffffffffffffffffffffffffffffff168173ffffffffffffffffffffffffffffffffffffffff1603610ca95760006040517f1e4fbdf7000000000000000000000000000000000000000000000000000000008152600401610ca091906110e2565b60405180910390fd5b610cb281610d3c565b50565b610cbd610e00565b73ffffffffffffffffffffffffffffffffffffffff16610cdb6107f9565b73ffffffffffffffffffffffffffffffffffffffff1614610d3a57610cfe610e00565b6040517f118cdaa7000000000000000000000000000000000000000000000000000000008152600401610d3191906110e2565b60405180910390fd5b565b60008060009054906101000a900473ffffffffffffffffffffffffffffffffffffffff169050816000806101000a81548173ffffffffffffffffffffffffffffffffffffffff021916908373ffffffffffffffffffffffffffffffffffffffff1602179055508173ffffffffffffffffffffffffffffffffffffffff168173ffffffffffffffffffffffffffffffffffffffff167f8be0079c531659141344cd1fd0a4f28419497f9722a3daafe3b4186f6b6457e060405160405180910390a35050565b600033905090565b6000604051905090565b600080fd5b600080fd5b6000819050919050565b610e2f81610e1c565b8114610e3a57600080fd5b50565b600081359050610e4c81610e26565b92915050565b600073ffffffffffffffffffffffffffffffffffffffff82169050919050565b6000610e7d82610e52565b9050919050565b610e8d81610e72565b8114610e9857600080fd5b50565b600081359050610eaa81610e84565b92915050565b60008060408385031215610ec757610ec6610e12565b5b6000610ed585828601610e3d565b9250506020610ee685828601610e9b565b9150509250929050565b60008115159050919050565b610f0581610ef0565b82525050565b6000602082019050610f206000830184610efc565b92915050565b600060208284031215610f3c57610f3b610e12565b5b6000610f4a84828501610e3d565b91505092915050565b610f5c81610e1c565b82525050565b610f6b81610e72565b82525050565b600081519050919050565b600082825260208201905092915050565b60005b83811015610fab578082015181840152602081019050610f90565b60008484015250505050565b6000601f19601f8301169050919050565b6000610fd382610f71565b610fdd8185610f7c565b9350610fed818560208601610f8d565b610ff681610fb7565b840191505092915050565b60006080820190506110166000830187610f53565b6110236020830186610f62565b6110306040830185610f53565b81810360608301526110428184610fc8565b905095945050505050565b6000819050919050565b600061107261106d61106884610e52565b61104d565b610e52565b9050919050565b600061108482611057565b9050919050565b600061109682611079565b9050919050565b6110a68161108b565b82525050565b60006020820190506110c1600083018461109d565b92915050565b60006020820190506110dc6000830184610f53565b92915050565b60006020820190506110f76000830184610f62565b92915050565b600061110882611079565b9050919050565b611118816110fd565b82525050565b6000602082019050611133600083018461110f565b92915050565b600080fd5b600080fd5b7f4e487b7100000000000000000000000000000000000000000000000000000000600052604160045260246000fd5b61117b82610fb7565b810181811067ffffffffffffffff8211171561119a57611199611143565b5b80604052505050565b60006111ad610e08565b90506111b98282611172565b919050565b600067ffffffffffffffff8211156111d9576111d8611143565b5b6111e282610fb7565b9050602081019050919050565b82818337600083830152505050565b600061121161120c846111be565b6111a3565b90508281526020810184848401111561122d5761122c61113e565b5b6112388482856111ef565b509392505050565b600082601f83011261125557611254611139565b5b81356112658482602086016111fe565b91505092915050565b6000806040838503121561128557611284610e12565b5b600061129385828601610e3d565b925050602083013567ffffffffffffffff8111156112b4576112b3610e17565b5b6112c085828601611240565b9150509250929050565b60006112d582611079565b9050919050565b6112e5816112ca565b82525050565b600060208201905061130060008301846112dc565b92915050565b600060208201905081810360008301526113208184610fc8565b905092915050565b60006020828403121561133e5761133d610e12565b5b600061134c84828501610e9b565b91505092915050565b7f706f7374206e6f7420666f756e64000000000000000000000000000000000000600082015250565b600061138b600e83610f7c565b915061139682611355565b602082019050919050565b600060208201905081810360008301526113ba8161137e565b9050919050565b7f416c726561647920766f74656420666f7220746869732063616d706169676e00600082015250565b60006113f7601f83610f7c565b9150611402826113c1565b602082019050919050565b60006020820190508181036000830152611426816113ea565b9050919050565b7f4e487b7100000000000000000000000000000000000000000000000000000000600052601160045260246000fd5b600061146782610e1c565b91507fffffffffffffffffffffffffffffffffffffffffffffffffffffffffffffffff82036114995761149861142d565b5b600182019050919050565b7f4e487b7100000000000000000000000000000000000000000000000000000000600052602260045260246000fd5b600060028204905060018216806114eb57607f821691505b6020821081036114fe576114fd6114a4565b5b50919050565b60008151905061151381610e84565b92915050565b60008151905061152881610e26565b92915050565b6000806040838503121561154557611544610e12565b5b600061155385828601611504565b925050602061156485828601611519565b9150509250929050565b7f43616d706169676e206e6f7420666f756e640000000000000000000000000000600082015250565b60006115a4601283610f7c565b91506115af8261156e565b602082019050919050565b600060208201905081810360008301526115d381611597565b9050919050565b60008190508160005260206000209050919050565b60006020601f8301049050919050565b600082821b905092915050565b60006008830261163c7fffffffffffffffffffffffffffffffffffffffffffffffffffffffffffffffff826115ff565b61164686836115ff565b95508019841693508086168417925050509392505050565b600061167961167461166f84610e1c565b61104d565b610e1c565b9050919050565b6000819050919050565b6116938361165e565b6116a761169f82611680565b84845461160c565b825550505050565b600090565b6116bc6116af565b6116c781848461168a565b505050565b5b818110156116eb576116e06000826116b4565b6001810190506116cd565b5050565b601f82111561173057611701816115da565b61170a846115ef565b81016020851015611719578190505b61172d611725856115ef565b8301826116cc565b50505b505050565b600082821c905092915050565b600061175360001984600802611735565b1980831691505092915050565b600061176c8383611742565b9150826002028217905092915050565b61178582610f71565b67ffffffffffffffff81111561179e5761179d611143565b5b6117a882546114d3565b6117b38282856116ef565b600060209050601f8311600181146117e657600084156117d4578287015190505b6117de8582611760565b865550611846565b601f1984166117f4866115da565b60005b8281101561181c578489015182556001820191506020850194506020810190506117f7565b868310156118395784890151611835601f891682611742565b8355505b6001600288020188555050505b50505050505056fea2646970667358221220ed67e121bca4a349d6db28c00323ee58ad6136aca1e3fdd67319c99fc11fab1564736f6c63430008190033",
  "linkReferences": {},
  "deployedLinkReferences": {}
}