{
  "_format": "hh-sol-artifact-1",
  "contractName": "Campaign",
  "sourceName": "src/Campaign.sol",
  "abi": [
    {
      "inputs": [
        {
          "internalType": "address",
          "name": "_brandContract",
          "type": "address"
        }
      ],
      "stateMutability": "nonpayable",
      "type": "constructor"
    },
    {
      "inputs": [
        {
          "internalType": "address",
          "name": "owner",
          "type": "address"
        }
      ],
      "name": "OwnableInvalidOwner",
      "type": "error"
    },
    {
      "inputs": [
        {
          "internalType": "address",
          "name": "account",
          "type": "address"
        }
      ],
      "name": "OwnableUnauthorizedAccount",
      "type": "error"
    },
    {
      "anonymous": false,
      "inputs": [
        {
          "indexed": true,
          "internalType": "address",
          "name": "previousOwner",
          "type": "address"
        },
        {
          "indexed": true,
          "internalType": "address",
          "name": "newOwner",
          "type": "address"
        }
      ],
      "name": "OwnershipTransferred",
      "type": "event"
    },
    {
      "inputs": [
        {
          "internalType": "uint256",
          "name": "_idBrand",
          "type": "uint256"
        },
        {
          "internalType": "string",
          "name": "_name",
          "type": "string"
        },
        {
          "internalType": "uint256",
          "name": "_amount",
          "type": "uint256"
        },
        {
          "internalType": "uint256",
          "name": "_startDate",
          "type": "uint256"
        },
        {
          "internalType": "uint256",
          "name": "_endDate",
          "type": "uint256"
        }
      ],
      "name": "createCampaign",
      "outputs": [],
      "stateMutability": "nonpayable",
      "type": "function"
    },
    {
      "inputs": [
        {
          "internalType": "uint256",
          "name": "_idCampaign",
          "type": "uint256"
        }
      ],
      "name": "getCampaignById",
      "outputs": [
        {
          "internalType": "uint256",
          "name": "",
          "type": "uint256"
        },
        {
          "internalType": "uint256",
          "name": "",
          "type": "uint256"
        },
        {
          "internalType": "string",
          "name": "",
          "type": "string"
        },
        {
          "internalType": "uint256",
          "name": "",
          "type": "uint256"
        },
        {
          "internalType": "bool",
          "name": "",
          "type": "bool"
        },
        {
          "internalType": "uint256",
          "name": "",
          "type": "uint256"
        },
        {
          "internalType": "uint256",
          "name": "",
          "type": "uint256"
        }
      ],
      "stateMutability": "view",
      "type": "function"
    },
    {
      "inputs": [],
      "name": "idCampaign",
      "outputs": [
        {
          "internalType": "uint256",
          "name": "",
          "type": "uint256"
        }
      ],
      "stateMutability": "view",
      "type": "function"
    },
    {
      "inputs": [
        {
          "internalType": "uint256",
          "name": "_idCampaign",
          "type": "uint256"
        }
      ],
      "name": "isValidCampaign",
      "outputs": [
        {
          "internalType": "bool",
          "name": "",
          "type": "bool"
        }
      ],
      "stateMutability": "view",
      "type": "function"
    },
    {
      "inputs": [],
      "name": "owner",
      "outputs": [
        {
          "internalType": "address",
          "name": "",
          "type": "address"
        }
      ],
      "stateMutability": "view",
      "type": "function"
    },
    {
      "inputs": [],
      "name": "renounceOwnership",
      "outputs": [],
      "stateMutability": "nonpayable",
      "type": "function"
    },
    {
      "inputs": [],
      "name": "s_brandContract",
      "outputs": [
        {
          "internalType": "contract IBrand",
          "name": "",
          "type": "address"
        }
      ],
      "stateMutability": "view",
      "type": "function"
    },
    {
      "inputs": [
        {
          "internalType": "uint256",
          "name": "",
          "type": "uint256"
        }
      ],
      "name": "s_campaigns",
      "outputs": [
        {
          "internalType": "uint256",
          "name": "idCampaign",
          "type": "uint256"
        },
        {
          "internalType": "uint256",
          "name": "idBrand",
          "type": "uint256"
        },
        {
          "internalType": "string",
          "name": "name",
          "type": "string"
        },
        {
          "internalType": "uint256",
          "name": "amount",
          "type": "uint256"
        },
        {
          "internalType": "bool",
          "name": "active",
          "type": "bool"
        },
        {
          "internalType": "uint256",
          "name": "startDate",
          "type": "uint256"
        },
        {
          "internalType": "uint256",
          "name": "endDate",
          "type": "uint256"
        }
      ],
      "stateMutability": "view",
      "type": "function"
    },
    {
      "inputs": [
        {
          "internalType": "address",
          "name": "newOwner",
          "type": "address"
        }
      ],
      "name": "transferOwnership",
      "outputs": [],
      "stateMutability": "nonpayable",
      "type": "function"
    },
    {
      "inputs": [
        {
          "internalType": "uint256",
          "name": "_idCampaign",
          "type": "uint256"
        },
        {
          "internalType": "string",
          "name": "_name",
          "type": "string"
        },
        {
          "internalType": "uint256",
          "name": "_amount",
          "type": "uint256"
        },
        {
          "internalType": "uint256",
          "name": "_startDate",
          "type": "uint256"
        },
        {
          "internalType": "uint256",
          "name": "_endDate",
          "type": "uint256"
        }
      ],
      "name": "updateCampaign",
      "outputs": [],
      "stateMutability": "nonpayable",
      "type": "function"
    }
  ],
  "bytecode": "0x608060405234801561001057600080fd5b50604051611c16380380611c1683398181016040528101906100329190610292565b33600073ffffffffffffffffffffffffffffffffffffffff168173ffffffffffffffffffffffffffffffffffffffff16036100a55760006040517f1e4fbdf700000000000000000000000000000000000000000000000000000000815260040161009c91906102ce565b60405180910390fd5b6100b48161016b60201b60201c565b50600073ffffffffffffffffffffffffffffffffffffffff168173ffffffffffffffffffffffffffffffffffffffff1603610124576040517f08c379a000000000000000000000000000000000000000000000000000000000815260040161011b90610346565b60405180910390fd5b80600160006101000a81548173ffffffffffffffffffffffffffffffffffffffff021916908373ffffffffffffffffffffffffffffffffffffffff16021790555050610366565b60008060009054906101000a900473ffffffffffffffffffffffffffffffffffffffff169050816000806101000a81548173ffffffffffffffffffffffffffffffffffffffff021916908373ffffffffffffffffffffffffffffffffffffffff1602179055508173ffffffffffffffffffffffffffffffffffffffff168173ffffffffffffffffffffffffffffffffffffffff167f8be0079c531659141344cd1fd0a4f28419497f9722a3daafe3b4186f6b6457e060405160405180910390a35050565b600080fd5b600073ffffffffffffffffffffffffffffffffffffffff82169050919050565b600061025f82610234565b9050919050565b61026f81610254565b811461027a57600080fd5b50565b60008151905061028c81610266565b92915050565b6000602082840312156102a8576102a761022f565b5b60006102b68482850161027d565b91505092915050565b6102c881610254565b82525050565b60006020820190506102e360008301846102bf565b92915050565b600082825260208201905092915050565b7f496e76616c6964206272616e6420636f6e747261637420616464726573730000600082015250565b6000610330601e836102e9565b915061033b826102fa565b602082019050919050565b6000602082019050818103600083015261035f81610323565b9050919050565b6118a1806103756000396000f3fe608060405234801561001057600080fd5b506004361061009e5760003560e01c8063bdaa002111610066578063bdaa002114610121578063d8db634814610157578063e6ffcaa114610175578063f2fde38b146101ab578063f53d79a7146101c75761009e565b806312aa17fa146100a357806358c8b387146100c1578063715018a6146100dd5780638da5cb5b146100e7578063a7fce91d14610105575b600080fd5b6100ab6101f7565b6040516100b89190610ca2565b60405180910390f35b6100db60048036038101906100d69190610e4d565b61021d565b005b6100e5610463565b005b6100ef610477565b6040516100fc9190610f05565b60405180910390f35b61011f600480360381019061011a9190610e4d565b6104a0565b005b61013b60048036038101906101369190610f20565b6105b9565b60405161014e9796959493929190610ff6565b60405180910390f35b61015f610690565b60405161016c919061106c565b60405180910390f35b61018f600480360381019061018a9190610f20565b610696565b6040516101a29796959493929190610ff6565b60405180910390f35b6101c560048036038101906101c091906110b3565b610827565b005b6101e160048036038101906101dc9190610f20565b6108ad565b6040516101ee91906110e0565b60405180910390f35b600160009054906101000a900473ffffffffffffffffffffffffffffffffffffffff1681565b610225610ad0565b600160009054906101000a900473ffffffffffffffffffffffffffffffffffffffff1673ffffffffffffffffffffffffffffffffffffffff16630736c432866040518263ffffffff1660e01b8152600401610280919061106c565b602060405180830381865afa15801561029d573d6000803e3d6000fd5b505050506040513d601f19601f820116820180604052508101906102c19190611127565b610300576040517f08c379a00000000000000000000000000000000000000000000000000000000081526004016102f7906111a0565b60405180910390fd5b6000845111610344576040517f08c379a000000000000000000000000000000000000000000000000000000000815260040161033b9061120c565b60405180910390fd5b818111610386576040517f08c379a000000000000000000000000000000000000000000000000000000000815260040161037d90611278565b60405180910390fd5b60026000815480929190610399906112c7565b919050555060006040518060e00160405280600254815260200187815260200186815260200185815260200160011515815260200184815260200183815250905080600360006002548152602001908152602001600020600082015181600001556020820151816001015560408201518160020190816104199190611511565b506060820151816003015560808201518160040160006101000a81548160ff02191690831515021790555060a0820151816005015560c08201518160060155905050505050505050565b61046b610ad0565b6104756000610b57565b565b60008060009054906101000a900473ffffffffffffffffffffffffffffffffffffffff16905090565b600060036000878152602001908152602001600020905060008160000154036104fe576040517f08c379a00000000000000000000000000000000000000000000000000000000081526004016104f59061162f565b60405180910390fd5b6000855111610542576040517f08c379a00000000000000000000000000000000000000000000000000000000081526004016105399061120c565b60405180910390fd5b828211610584576040517f08c379a000000000000000000000000000000000000000000000000000000000815260040161057b90611278565b60405180910390fd5b848160020190816105959190611511565b50838160030181905550828160050181905550818160060181905550505050505050565b60036020528060005260406000206000915090508060000154908060010154908060020180546105e89061133e565b80601f01602080910402602001604051908101604052809291908181526020018280546106149061133e565b80156106615780601f1061063657610100808354040283529160200191610661565b820191906000526020600020905b81548152906001019060200180831161064457829003601f168201915b5050505050908060030154908060040160009054906101000a900460ff16908060050154908060060154905087565b60025481565b60008060606000806000806106aa886108ad565b6106e9576040517f08c379a00000000000000000000000000000000000000000000000000000000081526004016106e09061169b565b60405180910390fd5b6000600360008a81526020019081526020016000206040518060e0016040529081600082015481526020016001820154815260200160028201805461072d9061133e565b80601f01602080910402602001604051908101604052809291908181526020018280546107599061133e565b80156107a65780601f1061077b576101008083540402835291602001916107a6565b820191906000526020600020905b81548152906001019060200180831161078957829003601f168201915b50505050508152602001600382015481526020016004820160009054906101000a900460ff16151515158152602001600582015481526020016006820154815250509050806000015181602001518260400151836060015184608001518560a001518660c00151975097509750975097509750975050919395979092949650565b61082f610ad0565b600073ffffffffffffffffffffffffffffffffffffffff168173ffffffffffffffffffffffffffffffffffffffff16036108a15760006040517f1e4fbdf70000000000000000000000000000000000000000000000000000000081526004016108989190610f05565b60405180910390fd5b6108aa81610b57565b50565b600080600360008481526020019081526020016000206040518060e001604052908160008201548152602001600182015481526020016002820180546108f29061133e565b80601f016020809104026020016040519081016040528092919081815260200182805461091e9061133e565b801561096b5780601f106109405761010080835404028352916020019161096b565b820191906000526020600020905b81548152906001019060200180831161094e57829003601f168201915b50505050508152602001600382015481526020016004820160009054906101000a900460ff161515151581526020016005820154815260200160068201548152505090506002548311156109f4576040517f08c379a00000000000000000000000000000000000000000000000000000000081526004016109eb90611707565b60405180910390fd5b6000816000015103610a3b576040517f08c379a0000000000000000000000000000000000000000000000000000000008152600401610a3290611773565b60405180910390fd5b8060800151610a7f576040517f08c379a0000000000000000000000000000000000000000000000000000000008152600401610a76906117df565b60405180910390fd5b8060c00151421115610ac6576040517f08c379a0000000000000000000000000000000000000000000000000000000008152600401610abd9061184b565b60405180910390fd5b6001915050919050565b610ad8610c1b565b73ffffffffffffffffffffffffffffffffffffffff16610af6610477565b73ffffffffffffffffffffffffffffffffffffffff1614610b5557610b19610c1b565b6040517f118cdaa7000000000000000000000000000000000000000000000000000000008152600401610b4c9190610f05565b60405180910390fd5b565b60008060009054906101000a900473ffffffffffffffffffffffffffffffffffffffff169050816000806101000a81548173ffffffffffffffffffffffffffffffffffffffff021916908373ffffffffffffffffffffffffffffffffffffffff1602179055508173ffffffffffffffffffffffffffffffffffffffff168173ffffffffffffffffffffffffffffffffffffffff167f8be0079c531659141344cd1fd0a4f28419497f9722a3daafe3b4186f6b6457e060405160405180910390a35050565b600033905090565b600073ffffffffffffffffffffffffffffffffffffffff82169050919050565b6000819050919050565b6000610c68610c63610c5e84610c23565b610c43565b610c23565b9050919050565b6000610c7a82610c4d565b9050919050565b6000610c8c82610c6f565b9050919050565b610c9c81610c81565b82525050565b6000602082019050610cb76000830184610c93565b92915050565b6000604051905090565b600080fd5b600080fd5b6000819050919050565b610ce481610cd1565b8114610cef57600080fd5b50565b600081359050610d0181610cdb565b92915050565b600080fd5b600080fd5b6000601f19601f8301169050919050565b7f4e487b7100000000000000000000000000000000000000000000000000000000600052604160045260246000fd5b610d5a82610d11565b810181811067ffffffffffffffff82111715610d7957610d78610d22565b5b80604052505050565b6000610d8c610cbd565b9050610d988282610d51565b919050565b600067ffffffffffffffff821115610db857610db7610d22565b5b610dc182610d11565b9050602081019050919050565b82818337600083830152505050565b6000610df0610deb84610d9d565b610d82565b905082815260208101848484011115610e0c57610e0b610d0c565b5b610e17848285610dce565b509392505050565b600082601f830112610e3457610e33610d07565b5b8135610e44848260208601610ddd565b91505092915050565b600080600080600060a08688031215610e6957610e68610cc7565b5b6000610e7788828901610cf2565b955050602086013567ffffffffffffffff811115610e9857610e97610ccc565b5b610ea488828901610e1f565b9450506040610eb588828901610cf2565b9350506060610ec688828901610cf2565b9250506080610ed788828901610cf2565b9150509295509295909350565b6000610eef82610c23565b9050919050565b610eff81610ee4565b82525050565b6000602082019050610f1a6000830184610ef6565b92915050565b600060208284031215610f3657610f35610cc7565b5b6000610f4484828501610cf2565b91505092915050565b610f5681610cd1565b82525050565b600081519050919050565b600082825260208201905092915050565b60005b83811015610f96578082015181840152602081019050610f7b565b60008484015250505050565b6000610fad82610f5c565b610fb78185610f67565b9350610fc7818560208601610f78565b610fd081610d11565b840191505092915050565b60008115159050919050565b610ff081610fdb565b82525050565b600060e08201905061100b600083018a610f4d565b6110186020830189610f4d565b818103604083015261102a8188610fa2565b90506110396060830187610f4d565b6110466080830186610fe7565b61105360a0830185610f4d565b61106060c0830184610f4d565b98975050505050505050565b60006020820190506110816000830184610f4d565b92915050565b61109081610ee4565b811461109b57600080fd5b50565b6000813590506110ad81611087565b92915050565b6000602082840312156110c9576110c8610cc7565b5b60006110d78482850161109e565b91505092915050565b60006020820190506110f56000830184610fe7565b92915050565b61110481610fdb565b811461110f57600080fd5b50565b600081519050611121816110fb565b92915050565b60006020828403121561113d5761113c610cc7565b5b600061114b84828501611112565b91505092915050565b7f496e76616c6964206272616e6400000000000000000000000000000000000000600082015250565b600061118a600d83610f67565b915061119582611154565b602082019050919050565b600060208201905081810360008301526111b98161117d565b9050919050565b7f496e76616c69642063616d706169676e206e616d650000000000000000000000600082015250565b60006111f6601583610f67565b9150611201826111c0565b602082019050919050565b60006020820190508181036000830152611225816111e9565b9050919050565b7f496e76616c696420646174657300000000000000000000000000000000000000600082015250565b6000611262600d83610f67565b915061126d8261122c565b602082019050919050565b6000602082019050818103600083015261129181611255565b9050919050565b7f4e487b7100000000000000000000000000000000000000000000000000000000600052601160045260246000fd5b60006112d282610cd1565b91507fffffffffffffffffffffffffffffffffffffffffffffffffffffffffffffffff820361130457611303611298565b5b600182019050919050565b7f4e487b7100000000000000000000000000000000000000000000000000000000600052602260045260246000fd5b6000600282049050600182168061135657607f821691505b6020821081036113695761136861130f565b5b50919050565b60008190508160005260206000209050919050565b60006020601f8301049050919050565b600082821b905092915050565b6000600883026113d17fffffffffffffffffffffffffffffffffffffffffffffffffffffffffffffffff82611394565b6113db8683611394565b95508019841693508086168417925050509392505050565b600061140e61140961140484610cd1565b610c43565b610cd1565b9050919050565b6000819050919050565b611428836113f3565b61143c61143482611415565b8484546113a1565b825550505050565b600090565b611451611444565b61145c81848461141f565b505050565b5b8181101561148057611475600082611449565b600181019050611462565b5050565b601f8211156114c5576114968161136f565b61149f84611384565b810160208510156114ae578190505b6114c26114ba85611384565b830182611461565b50505b505050565b600082821c905092915050565b60006114e8600019846008026114ca565b1980831691505092915050565b600061150183836114d7565b9150826002028217905092915050565b61151a82610f5c565b67ffffffffffffffff81111561153357611532610d22565b5b61153d825461133e565b611548828285611484565b600060209050601f83116001811461157b5760008415611569578287015190505b61157385826114f5565b8655506115db565b601f1984166115898661136f565b60005b828110156115b15784890151825560018201915060208501945060208101905061158c565b868310156115ce57848901516115ca601f8916826114d7565b8355505b6001600288020188555050505b505050505050565b7f43616d706169676e206e6f7420666f756e640000000000000000000000000000600082015250565b6000611619601283610f67565b9150611624826115e3565b602082019050919050565b600060208201905081810360008301526116488161160c565b9050919050565b7f43616d706169676e20494420696e76616c696400000000000000000000000000600082015250565b6000611685601383610f67565b91506116908261164f565b602082019050919050565b600060208201905081810360008301526116b481611678565b9050919050565b7f496e76616c69642043616d706169676e20494400000000000000000000000000600082015250565b60006116f1601383610f67565b91506116fc826116bb565b602082019050919050565b60006020820190508181036000830152611720816116e4565b9050919050565b7f496e76616c69642043616d706169676e00000000000000000000000000000000600082015250565b600061175d601083610f67565b915061176882611727565b602082019050919050565b6000602082019050818103600083015261178c81611750565b9050919050565b7f43616d706169676e20696e616374697665000000000000000000000000000000600082015250565b60006117c9601183610f67565b91506117d482611793565b602082019050919050565b600060208201905081810360008301526117f8816117bc565b9050919050565b7f43616d706169676e2068617320656e6465640000000000000000000000000000600082015250565b6000611835601283610f67565b9150611840826117ff565b602082019050919050565b6000602082019050818103600083015261186481611828565b905091905056fea264697066735822122022526466385ad7af5c7e1292e0c28dc62c54720ea9a12879016f50ef57a911d964736f6c63430008190033",
  "linkReferences": {},
  "deployedLinkReferences": {}
}