{
  "_format": "hh-sol-artifact-1",
  "contractName": "Campaign",
  "sourceName": "src/Campaign.sol",
  "abi": [
    {
      "inputs": [
        {
          "internalType": "address",
          "name": "_brandContract",
          "type": "address"
        }
      ],
      "stateMutability": "nonpayable",
      "type": "constructor"
    },
    {
      "inputs": [
        {
          "internalType": "address",
          "name": "owner",
          "type": "address"
        }
      ],
      "name": "OwnableInvalidOwner",
      "type": "error"
    },
    {
      "inputs": [
        {
          "internalType": "address",
          "name": "account",
          "type": "address"
        }
      ],
      "name": "OwnableUnauthorizedAccount",
      "type": "error"
    },
    {
      "anonymous": false,
      "inputs": [
        {
          "indexed": true,
          "internalType": "uint256",
          "name": "idCampaign",
          "type": "uint256"
        },
        {
          "indexed": true,
          "internalType": "uint256",
          "name": "idBrand",
          "type": "uint256"
        },
        {
          "indexed": false,
          "internalType": "string",
          "name": "name",
          "type": "string"
        },
        {
          "indexed": false,
          "internalType": "uint256",
          "name": "amount",
          "type": "uint256"
        },
        {
          "indexed": false,
          "internalType": "uint256",
          "name": "startDate",
          "type": "uint256"
        },
        {
          "indexed": false,
          "internalType": "uint256",
          "name": "endDate",
          "type": "uint256"
        },
        {
          "indexed": false,
          "internalType": "string",
          "name": "uri",
          "type": "string"
        }
      ],
      "name": "CampaignCreated",
      "type": "event"
    },
    {
      "anonymous": false,
      "inputs": [
        {
          "indexed": true,
          "internalType": "uint256",
          "name": "idCampaign",
          "type": "uint256"
        },
        {
          "indexed": false,
          "internalType": "string",
          "name": "name",
          "type": "string"
        },
        {
          "indexed": false,
          "internalType": "uint256",
          "name": "amount",
          "type": "uint256"
        }
      ],
      "name": "CampaignUpdated",
      "type": "event"
    },
    {
      "anonymous": false,
      "inputs": [
        {
          "indexed": true,
          "internalType": "address",
          "name": "previousOwner",
          "type": "address"
        },
        {
          "indexed": true,
          "internalType": "address",
          "name": "newOwner",
          "type": "address"
        }
      ],
      "name": "OwnershipTransferred",
      "type": "event"
    },
    {
      "inputs": [
        {
          "internalType": "uint256",
          "name": "_idBrand",
          "type": "uint256"
        },
        {
          "internalType": "string",
          "name": "_name",
          "type": "string"
        },
        {
          "internalType": "uint256",
          "name": "_amount",
          "type": "uint256"
        },
        {
          "internalType": "uint256",
          "name": "_startDate",
          "type": "uint256"
        },
        {
          "internalType": "uint256",
          "name": "_endDate",
          "type": "uint256"
        },
        {
          "internalType": "string",
          "name": "_uri",
          "type": "string"
        }
      ],
      "name": "createCampaign",
      "outputs": [],
      "stateMutability": "nonpayable",
      "type": "function"
    },
    {
      "inputs": [
        {
          "internalType": "uint256",
          "name": "_idCampaign",
          "type": "uint256"
        }
      ],
      "name": "getCampaignById",
      "outputs": [
        {
          "internalType": "uint256",
          "name": "",
          "type": "uint256"
        },
        {
          "internalType": "uint256",
          "name": "",
          "type": "uint256"
        },
        {
          "internalType": "string",
          "name": "",
          "type": "string"
        },
        {
          "internalType": "uint256",
          "name": "",
          "type": "uint256"
        },
        {
          "internalType": "bool",
          "name": "",
          "type": "bool"
        },
        {
          "internalType": "uint256",
          "name": "",
          "type": "uint256"
        },
        {
          "internalType": "uint256",
          "name": "",
          "type": "uint256"
        }
      ],
      "stateMutability": "view",
      "type": "function"
    },
    {
      "inputs": [
        {
          "internalType": "uint256",
          "name": "_idCampaign",
          "type": "uint256"
        }
      ],
      "name": "getUriCampaign",
      "outputs": [
        {
          "internalType": "string",
          "name": "",
          "type": "string"
        }
      ],
      "stateMutability": "view",
      "type": "function"
    },
    {
      "inputs": [],
      "name": "idCampaign",
      "outputs": [
        {
          "internalType": "uint256",
          "name": "",
          "type": "uint256"
        }
      ],
      "stateMutability": "view",
      "type": "function"
    },
    {
      "inputs": [
        {
          "internalType": "uint256",
          "name": "_idCampaign",
          "type": "uint256"
        }
      ],
      "name": "isValidCampaign",
      "outputs": [
        {
          "internalType": "bool",
          "name": "",
          "type": "bool"
        }
      ],
      "stateMutability": "view",
      "type": "function"
    },
    {
      "inputs": [],
      "name": "owner",
      "outputs": [
        {
          "internalType": "address",
          "name": "",
          "type": "address"
        }
      ],
      "stateMutability": "view",
      "type": "function"
    },
    {
      "inputs": [],
      "name": "renounceOwnership",
      "outputs": [],
      "stateMutability": "nonpayable",
      "type": "function"
    },
    {
      "inputs": [],
      "name": "s_brandContract",
      "outputs": [
        {
          "internalType": "contract IBrand",
          "name": "",
          "type": "address"
        }
      ],
      "stateMutability": "view",
      "type": "function"
    },
    {
      "inputs": [
        {
          "internalType": "uint256",
          "name": "",
          "type": "uint256"
        }
      ],
      "name": "s_campaigns",
      "outputs": [
        {
          "internalType": "uint256",
          "name": "idCampaign",
          "type": "uint256"
        },
        {
          "internalType": "uint256",
          "name": "idBrand",
          "type": "uint256"
        },
        {
          "internalType": "string",
          "name": "name",
          "type": "string"
        },
        {
          "internalType": "uint256",
          "name": "amount",
          "type": "uint256"
        },
        {
          "internalType": "bool",
          "name": "active",
          "type": "bool"
        },
        {
          "internalType": "uint256",
          "name": "startDate",
          "type": "uint256"
        },
        {
          "internalType": "uint256",
          "name": "endDate",
          "type": "uint256"
        }
      ],
      "stateMutability": "view",
      "type": "function"
    },
    {
      "inputs": [
        {
          "internalType": "uint256",
          "name": "",
          "type": "uint256"
        }
      ],
      "name": "s_uriCampaign",
      "outputs": [
        {
          "internalType": "string",
          "name": "",
          "type": "string"
        }
      ],
      "stateMutability": "view",
      "type": "function"
    },
    {
      "inputs": [
        {
          "internalType": "address",
          "name": "newOwner",
          "type": "address"
        }
      ],
      "name": "transferOwnership",
      "outputs": [],
      "stateMutability": "nonpayable",
      "type": "function"
    },
    {
      "inputs": [
        {
          "internalType": "uint256",
          "name": "_idCampaign",
          "type": "uint256"
        },
        {
          "internalType": "string",
          "name": "_name",
          "type": "string"
        },
        {
          "internalType": "uint256",
          "name": "_amount",
          "type": "uint256"
        },
        {
          "internalType": "uint256",
          "name": "_startDate",
          "type": "uint256"
        },
        {
          "internalType": "uint256",
          "name": "_endDate",
          "type": "uint256"
        }
      ],
      "name": "updateCampaign",
      "outputs": [],
      "stateMutability": "nonpayable",
      "type": "function"
    }
  ],
  "bytecode": "0x608060405234801561001057600080fd5b50604051611fca380380611fca83398181016040528101906100329190610292565b33600073ffffffffffffffffffffffffffffffffffffffff168173ffffffffffffffffffffffffffffffffffffffff16036100a55760006040517f1e4fbdf700000000000000000000000000000000000000000000000000000000815260040161009c91906102ce565b60405180910390fd5b6100b48161016b60201b60201c565b50600073ffffffffffffffffffffffffffffffffffffffff168173ffffffffffffffffffffffffffffffffffffffff1603610124576040517f08c379a000000000000000000000000000000000000000000000000000000000815260040161011b90610346565b60405180910390fd5b80600160006101000a81548173ffffffffffffffffffffffffffffffffffffffff021916908373ffffffffffffffffffffffffffffffffffffffff16021790555050610366565b60008060009054906101000a900473ffffffffffffffffffffffffffffffffffffffff169050816000806101000a81548173ffffffffffffffffffffffffffffffffffffffff021916908373ffffffffffffffffffffffffffffffffffffffff1602179055508173ffffffffffffffffffffffffffffffffffffffff168173ffffffffffffffffffffffffffffffffffffffff167f8be0079c531659141344cd1fd0a4f28419497f9722a3daafe3b4186f6b6457e060405160405180910390a35050565b600080fd5b600073ffffffffffffffffffffffffffffffffffffffff82169050919050565b600061025f82610234565b9050919050565b61026f81610254565b811461027a57600080fd5b50565b60008151905061028c81610266565b92915050565b6000602082840312156102a8576102a761022f565b5b60006102b68482850161027d565b91505092915050565b6102c881610254565b82525050565b60006020820190506102e360008301846102bf565b92915050565b600082825260208201905092915050565b7f496e76616c6964206272616e6420636f6e747261637420616464726573730000600082015250565b6000610330601e836102e9565b915061033b826102fa565b602082019050919050565b6000602082019050818103600083015261035f81610323565b9050919050565b611c55806103756000396000f3fe608060405234801561001057600080fd5b50600436106100b45760003560e01c8063d8db634811610071578063d8db634814610181578063e6ffcaa11461019f578063eb9322fc146101d5578063ef2307d514610205578063f2fde38b14610221578063f53d79a71461023d576100b4565b806312aa17fa146100b9578063715018a6146100d75780638da5cb5b146100e1578063a7fce91d146100ff578063bdaa00211461011b578063be6102be14610151575b600080fd5b6100c161026d565b6040516100ce9190610ede565b60405180910390f35b6100df610293565b005b6100e96102a7565b6040516100f69190610f1a565b60405180910390f35b610119600480360381019061011491906110c5565b6102d0565b005b6101356004803603810190610130919061115c565b610423565b6040516101489796959493929190611232565b60405180910390f35b61016b6004803603810190610166919061115c565b6104fa565b60405161017891906112a8565b60405180910390f35b61018961059a565b60405161019691906112ca565b60405180910390f35b6101b960048036038101906101b4919061115c565b6105a0565b6040516101cc9796959493929190611232565b60405180910390f35b6101ef60048036038101906101ea919061115c565b610731565b6040516101fc91906112a8565b60405180910390f35b61021f600480360381019061021a91906112e5565b61081e565b005b61023b600480360381019061023691906113d6565b610aa8565b005b6102576004803603810190610252919061115c565b610b2e565b6040516102649190611403565b60405180910390f35b600160009054906101000a900473ffffffffffffffffffffffffffffffffffffffff1681565b61029b610d0c565b6102a56000610d93565b565b60008060009054906101000a900473ffffffffffffffffffffffffffffffffffffffff16905090565b6000600360008781526020019081526020016000209050600081600001540361032e576040517f08c379a00000000000000000000000000000000000000000000000000000000081526004016103259061146a565b60405180910390fd5b6000855111610372576040517f08c379a0000000000000000000000000000000000000000000000000000000008152600401610369906114d6565b60405180910390fd5b8282116103b4576040517f08c379a00000000000000000000000000000000000000000000000000000000081526004016103ab90611542565b60405180910390fd5b848160020190816103c59190611764565b50838160030181905550828160050181905550818160060181905550857f9ab9062b5287d083fd6fd99f5d5f9c6bafa499d8ae40cbcd58429d25925321e28686604051610413929190611836565b60405180910390a2505050505050565b600360205280600052604060002060009150905080600001549080600101549080600201805461045290611591565b80601f016020809104026020016040519081016040528092919081815260200182805461047e90611591565b80156104cb5780601f106104a0576101008083540402835291602001916104cb565b820191906000526020600020905b8154815290600101906020018083116104ae57829003601f168201915b5050505050908060030154908060040160009054906101000a900460ff16908060050154908060060154905087565b6004602052806000526040600020600091509050805461051990611591565b80601f016020809104026020016040519081016040528092919081815260200182805461054590611591565b80156105925780601f1061056757610100808354040283529160200191610592565b820191906000526020600020905b81548152906001019060200180831161057557829003601f168201915b505050505081565b60025481565b60008060606000806000806105b488610b2e565b6105f3576040517f08c379a00000000000000000000000000000000000000000000000000000000081526004016105ea906118b2565b60405180910390fd5b6000600360008a81526020019081526020016000206040518060e0016040529081600082015481526020016001820154815260200160028201805461063790611591565b80601f016020809104026020016040519081016040528092919081815260200182805461066390611591565b80156106b05780601f10610685576101008083540402835291602001916106b0565b820191906000526020600020905b81548152906001019060200180831161069357829003601f168201915b50505050508152602001600382015481526020016004820160009054906101000a900460ff16151515158152602001600582015481526020016006820154815250509050806000015181602001518260400151836060015184608001518560a001518660c00151975097509750975097509750975050919395979092949650565b606061073c82610b2e565b61077b576040517f08c379a00000000000000000000000000000000000000000000000000000000081526004016107729061191e565b60405180910390fd5b60046000838152602001908152602001600020805461079990611591565b80601f01602080910402602001604051908101604052809291908181526020018280546107c590611591565b80156108125780601f106107e757610100808354040283529160200191610812565b820191906000526020600020905b8154815290600101906020018083116107f557829003601f168201915b50505050509050919050565b610826610d0c565b600160009054906101000a900473ffffffffffffffffffffffffffffffffffffffff1673ffffffffffffffffffffffffffffffffffffffff16630736c432876040518263ffffffff1660e01b815260040161088191906112ca565b602060405180830381865afa15801561089e573d6000803e3d6000fd5b505050506040513d601f19601f820116820180604052508101906108c2919061196a565b610901576040517f08c379a00000000000000000000000000000000000000000000000000000000081526004016108f8906119e3565b60405180910390fd5b6000855111610945576040517f08c379a000000000000000000000000000000000000000000000000000000000815260040161093c906114d6565b60405180910390fd5b828211610987576040517f08c379a000000000000000000000000000000000000000000000000000000000815260040161097e90611542565b60405180910390fd5b6002600081548092919061099a90611a32565b919050555060006040518060e0016040528060025481526020018881526020018781526020018681526020016001151581526020018581526020018481525090508060036000600254815260200190815260200160002060008201518160000155602082015181600101556040820151816002019081610a1a9190611764565b506060820151816003015560808201518160040160006101000a81548160ff02191690831515021790555060a0820151816005015560c08201518160060155905050866002547f9f835e999ad03d530b7c89c64fac4aec3372c5edc407f043fb129307aa950d178888888888604051610a97959493929190611a7a565b60405180910390a350505050505050565b610ab0610d0c565b600073ffffffffffffffffffffffffffffffffffffffff168173ffffffffffffffffffffffffffffffffffffffff1603610b225760006040517f1e4fbdf7000000000000000000000000000000000000000000000000000000008152600401610b199190610f1a565b60405180910390fd5b610b2b81610d93565b50565b600080600360008481526020019081526020016000206040518060e00160405290816000820154815260200160018201548152602001600282018054610b7390611591565b80601f0160208091040260200160405190810160405280929190818152602001828054610b9f90611591565b8015610bec5780601f10610bc157610100808354040283529160200191610bec565b820191906000526020600020905b815481529060010190602001808311610bcf57829003601f168201915b50505050508152602001600382015481526020016004820160009054906101000a900460ff161515151581526020016005820154815260200160068201548152505090506000816000015103610c77576040517f08c379a0000000000000000000000000000000000000000000000000000000008152600401610c6e90611b27565b60405180910390fd5b8060800151610cbb576040517f08c379a0000000000000000000000000000000000000000000000000000000008152600401610cb290611b93565b60405180910390fd5b8060c00151421115610d02576040517f08c379a0000000000000000000000000000000000000000000000000000000008152600401610cf990611bff565b60405180910390fd5b6001915050919050565b610d14610e57565b73ffffffffffffffffffffffffffffffffffffffff16610d326102a7565b73ffffffffffffffffffffffffffffffffffffffff1614610d9157610d55610e57565b6040517f118cdaa7000000000000000000000000000000000000000000000000000000008152600401610d889190610f1a565b60405180910390fd5b565b60008060009054906101000a900473ffffffffffffffffffffffffffffffffffffffff169050816000806101000a81548173ffffffffffffffffffffffffffffffffffffffff021916908373ffffffffffffffffffffffffffffffffffffffff1602179055508173ffffffffffffffffffffffffffffffffffffffff168173ffffffffffffffffffffffffffffffffffffffff167f8be0079c531659141344cd1fd0a4f28419497f9722a3daafe3b4186f6b6457e060405160405180910390a35050565b600033905090565b600073ffffffffffffffffffffffffffffffffffffffff82169050919050565b6000819050919050565b6000610ea4610e9f610e9a84610e5f565b610e7f565b610e5f565b9050919050565b6000610eb682610e89565b9050919050565b6000610ec882610eab565b9050919050565b610ed881610ebd565b82525050565b6000602082019050610ef36000830184610ecf565b92915050565b6000610f0482610e5f565b9050919050565b610f1481610ef9565b82525050565b6000602082019050610f2f6000830184610f0b565b92915050565b6000604051905090565b600080fd5b600080fd5b6000819050919050565b610f5c81610f49565b8114610f6757600080fd5b50565b600081359050610f7981610f53565b92915050565b600080fd5b600080fd5b6000601f19601f8301169050919050565b7f4e487b7100000000000000000000000000000000000000000000000000000000600052604160045260246000fd5b610fd282610f89565b810181811067ffffffffffffffff82111715610ff157610ff0610f9a565b5b80604052505050565b6000611004610f35565b90506110108282610fc9565b919050565b600067ffffffffffffffff8211156110305761102f610f9a565b5b61103982610f89565b9050602081019050919050565b82818337600083830152505050565b600061106861106384611015565b610ffa565b90508281526020810184848401111561108457611083610f84565b5b61108f848285611046565b509392505050565b600082601f8301126110ac576110ab610f7f565b5b81356110bc848260208601611055565b91505092915050565b600080600080600060a086880312156110e1576110e0610f3f565b5b60006110ef88828901610f6a565b955050602086013567ffffffffffffffff8111156111105761110f610f44565b5b61111c88828901611097565b945050604061112d88828901610f6a565b935050606061113e88828901610f6a565b925050608061114f88828901610f6a565b9150509295509295909350565b60006020828403121561117257611171610f3f565b5b600061118084828501610f6a565b91505092915050565b61119281610f49565b82525050565b600081519050919050565b600082825260208201905092915050565b60005b838110156111d25780820151818401526020810190506111b7565b60008484015250505050565b60006111e982611198565b6111f381856111a3565b93506112038185602086016111b4565b61120c81610f89565b840191505092915050565b60008115159050919050565b61122c81611217565b82525050565b600060e082019050611247600083018a611189565b6112546020830189611189565b818103604083015261126681886111de565b90506112756060830187611189565b6112826080830186611223565b61128f60a0830185611189565b61129c60c0830184611189565b98975050505050505050565b600060208201905081810360008301526112c281846111de565b905092915050565b60006020820190506112df6000830184611189565b92915050565b60008060008060008060c0878903121561130257611301610f3f565b5b600061131089828a01610f6a565b965050602087013567ffffffffffffffff81111561133157611330610f44565b5b61133d89828a01611097565b955050604061134e89828a01610f6a565b945050606061135f89828a01610f6a565b935050608061137089828a01610f6a565b92505060a087013567ffffffffffffffff81111561139157611390610f44565b5b61139d89828a01611097565b9150509295509295509295565b6113b381610ef9565b81146113be57600080fd5b50565b6000813590506113d0816113aa565b92915050565b6000602082840312156113ec576113eb610f3f565b5b60006113fa848285016113c1565b91505092915050565b60006020820190506114186000830184611223565b92915050565b7f43616d706169676e206e6f7420666f756e640000000000000000000000000000600082015250565b60006114546012836111a3565b915061145f8261141e565b602082019050919050565b6000602082019050818103600083015261148381611447565b9050919050565b7f496e76616c69642063616d706169676e206e616d650000000000000000000000600082015250565b60006114c06015836111a3565b91506114cb8261148a565b602082019050919050565b600060208201905081810360008301526114ef816114b3565b9050919050565b7f496e76616c696420646174657300000000000000000000000000000000000000600082015250565b600061152c600d836111a3565b9150611537826114f6565b602082019050919050565b6000602082019050818103600083015261155b8161151f565b9050919050565b7f4e487b7100000000000000000000000000000000000000000000000000000000600052602260045260246000fd5b600060028204905060018216806115a957607f821691505b6020821081036115bc576115bb611562565b5b50919050565b60008190508160005260206000209050919050565b60006020601f8301049050919050565b600082821b905092915050565b6000600883026116247fffffffffffffffffffffffffffffffffffffffffffffffffffffffffffffffff826115e7565b61162e86836115e7565b95508019841693508086168417925050509392505050565b600061166161165c61165784610f49565b610e7f565b610f49565b9050919050565b6000819050919050565b61167b83611646565b61168f61168782611668565b8484546115f4565b825550505050565b600090565b6116a4611697565b6116af818484611672565b505050565b5b818110156116d3576116c860008261169c565b6001810190506116b5565b5050565b601f821115611718576116e9816115c2565b6116f2846115d7565b81016020851015611701578190505b61171561170d856115d7565b8301826116b4565b50505b505050565b600082821c905092915050565b600061173b6000198460080261171d565b1980831691505092915050565b6000611754838361172a565b9150826002028217905092915050565b61176d82611198565b67ffffffffffffffff81111561178657611785610f9a565b5b6117908254611591565b61179b8282856116d7565b600060209050601f8311600181146117ce57600084156117bc578287015190505b6117c68582611748565b86555061182e565b601f1984166117dc866115c2565b60005b82811015611804578489015182556001820191506020850194506020810190506117df565b86831015611821578489015161181d601f89168261172a565b8355505b6001600288020188555050505b505050505050565b6000604082019050818103600083015261185081856111de565b905061185f6020830184611189565b9392505050565b7f43616d706169676e20494420696e76616c696400000000000000000000000000600082015250565b600061189c6013836111a3565b91506118a782611866565b602082019050919050565b600060208201905081810360008301526118cb8161188f565b9050919050565b7f496e76616c69642063616d706169676e00000000000000000000000000000000600082015250565b60006119086010836111a3565b9150611913826118d2565b602082019050919050565b60006020820190508181036000830152611937816118fb565b9050919050565b61194781611217565b811461195257600080fd5b50565b6000815190506119648161193e565b92915050565b6000602082840312156119805761197f610f3f565b5b600061198e84828501611955565b91505092915050565b7f496e76616c6964206272616e6400000000000000000000000000000000000000600082015250565b60006119cd600d836111a3565b91506119d882611997565b602082019050919050565b600060208201905081810360008301526119fc816119c0565b9050919050565b7f4e487b7100000000000000000000000000000000000000000000000000000000600052601160045260246000fd5b6000611a3d82610f49565b91507fffffffffffffffffffffffffffffffffffffffffffffffffffffffffffffffff8203611a6f57611a6e611a03565b5b600182019050919050565b600060a0820190508181036000830152611a9481886111de565b9050611aa36020830187611189565b611ab06040830186611189565b611abd6060830185611189565b8181036080830152611acf81846111de565b90509695505050505050565b7f496e76616c69642043616d706169676e00000000000000000000000000000000600082015250565b6000611b116010836111a3565b9150611b1c82611adb565b602082019050919050565b60006020820190508181036000830152611b4081611b04565b9050919050565b7f43616d706169676e20696e616374697665000000000000000000000000000000600082015250565b6000611b7d6011836111a3565b9150611b8882611b47565b602082019050919050565b60006020820190508181036000830152611bac81611b70565b9050919050565b7f43616d706169676e2068617320656e6465640000000000000000000000000000600082015250565b6000611be96012836111a3565b9150611bf482611bb3565b602082019050919050565b60006020820190508181036000830152611c1881611bdc565b905091905056fea2646970667358221220b6b2be5b4762ea0f574570308938e8b07d2fb74dc43e704975ba796c2f69531464736f6c63430008190033",
  "linkReferences": {},
  "deployedLinkReferences": {}
}