{
  "_format": "hh-sol-artifact-1",
  "contractName": "Campaign",
  "sourceName": "src/Campaign.sol",
  "abi": [
    {
      "inputs": [
        {
          "internalType": "address",
          "name": "_brandContract",
          "type": "address"
        }
      ],
      "stateMutability": "nonpayable",
      "type": "constructor"
    },
    {
      "inputs": [
        {
          "internalType": "address",
          "name": "owner",
          "type": "address"
        }
      ],
      "name": "OwnableInvalidOwner",
      "type": "error"
    },
    {
      "inputs": [
        {
          "internalType": "address",
          "name": "account",
          "type": "address"
        }
      ],
      "name": "OwnableUnauthorizedAccount",
      "type": "error"
    },
    {
      "anonymous": false,
      "inputs": [
        {
          "indexed": true,
          "internalType": "uint256",
          "name": "idCampaign",
          "type": "uint256"
        },
        {
          "indexed": true,
          "internalType": "uint256",
          "name": "idBrand",
          "type": "uint256"
        },
        {
          "indexed": false,
          "internalType": "string",
          "name": "name",
          "type": "string"
        },
        {
          "indexed": false,
          "internalType": "uint256",
          "name": "amount",
          "type": "uint256"
        },
        {
          "indexed": false,
          "internalType": "uint256",
          "name": "startDate",
          "type": "uint256"
        },
        {
          "indexed": false,
          "internalType": "uint256",
          "name": "endDate",
          "type": "uint256"
        },
        {
          "indexed": false,
          "internalType": "string",
          "name": "uri",
          "type": "string"
        }
      ],
      "name": "CampaignCreated",
      "type": "event"
    },
    {
      "anonymous": false,
      "inputs": [
        {
          "indexed": true,
          "internalType": "uint256",
          "name": "idCampaign",
          "type": "uint256"
        },
        {
          "indexed": false,
          "internalType": "string",
          "name": "name",
          "type": "string"
        },
        {
          "indexed": false,
          "internalType": "uint256",
          "name": "amount",
          "type": "uint256"
        }
      ],
      "name": "CampaignUpdated",
      "type": "event"
    },
    {
      "anonymous": false,
      "inputs": [
        {
          "indexed": true,
          "internalType": "address",
          "name": "previousOwner",
          "type": "address"
        },
        {
          "indexed": true,
          "internalType": "address",
          "name": "newOwner",
          "type": "address"
        }
      ],
      "name": "OwnershipTransferred",
      "type": "event"
    },
    {
      "inputs": [
        {
          "internalType": "uint256",
          "name": "_idBrand",
          "type": "uint256"
        },
        {
          "internalType": "string",
          "name": "_name",
          "type": "string"
        },
        {
          "internalType": "uint256",
          "name": "_amount",
          "type": "uint256"
        },
        {
          "internalType": "uint256",
          "name": "_startDate",
          "type": "uint256"
        },
        {
          "internalType": "uint256",
          "name": "_endDate",
          "type": "uint256"
        },
        {
          "internalType": "string",
          "name": "_uri",
          "type": "string"
        }
      ],
      "name": "createCampaign",
      "outputs": [],
      "stateMutability": "nonpayable",
      "type": "function"
    },
    {
      "inputs": [
        {
          "internalType": "uint256",
          "name": "_idCampaign",
          "type": "uint256"
        }
      ],
      "name": "getCampaignById",
      "outputs": [
        {
          "internalType": "uint256",
          "name": "",
          "type": "uint256"
        },
        {
          "internalType": "uint256",
          "name": "",
          "type": "uint256"
        },
        {
          "internalType": "string",
          "name": "",
          "type": "string"
        },
        {
          "internalType": "uint256",
          "name": "",
          "type": "uint256"
        },
        {
          "internalType": "bool",
          "name": "",
          "type": "bool"
        },
        {
          "internalType": "uint256",
          "name": "",
          "type": "uint256"
        },
        {
          "internalType": "uint256",
          "name": "",
          "type": "uint256"
        }
      ],
      "stateMutability": "view",
      "type": "function"
    },
    {
      "inputs": [
        {
          "internalType": "uint256",
          "name": "_idCampaign",
          "type": "uint256"
        }
      ],
      "name": "getUriCampaign",
      "outputs": [
        {
          "internalType": "string",
          "name": "",
          "type": "string"
        }
      ],
      "stateMutability": "view",
      "type": "function"
    },
    {
      "inputs": [],
      "name": "idCampaign",
      "outputs": [
        {
          "internalType": "uint256",
          "name": "",
          "type": "uint256"
        }
      ],
      "stateMutability": "view",
      "type": "function"
    },
    {
      "inputs": [
        {
          "internalType": "uint256",
          "name": "_idCampaign",
          "type": "uint256"
        }
      ],
      "name": "isValidCampaign",
      "outputs": [
        {
          "internalType": "bool",
          "name": "",
          "type": "bool"
        }
      ],
      "stateMutability": "view",
      "type": "function"
    },
    {
      "inputs": [],
      "name": "owner",
      "outputs": [
        {
          "internalType": "address",
          "name": "",
          "type": "address"
        }
      ],
      "stateMutability": "view",
      "type": "function"
    },
    {
      "inputs": [],
      "name": "renounceOwnership",
      "outputs": [],
      "stateMutability": "nonpayable",
      "type": "function"
    },
    {
      "inputs": [],
      "name": "s_brandContract",
      "outputs": [
        {
          "internalType": "contract IBrand",
          "name": "",
          "type": "address"
        }
      ],
      "stateMutability": "view",
      "type": "function"
    },
    {
      "inputs": [
        {
          "internalType": "uint256",
          "name": "",
          "type": "uint256"
        }
      ],
      "name": "s_campaigns",
      "outputs": [
        {
          "internalType": "uint256",
          "name": "idCampaign",
          "type": "uint256"
        },
        {
          "internalType": "uint256",
          "name": "idBrand",
          "type": "uint256"
        },
        {
          "internalType": "string",
          "name": "name",
          "type": "string"
        },
        {
          "internalType": "uint256",
          "name": "amount",
          "type": "uint256"
        },
        {
          "internalType": "bool",
          "name": "active",
          "type": "bool"
        },
        {
          "internalType": "uint256",
          "name": "startDate",
          "type": "uint256"
        },
        {
          "internalType": "uint256",
          "name": "endDate",
          "type": "uint256"
        }
      ],
      "stateMutability": "view",
      "type": "function"
    },
    {
      "inputs": [
        {
          "internalType": "uint256",
          "name": "",
          "type": "uint256"
        }
      ],
      "name": "s_uriCampaign",
      "outputs": [
        {
          "internalType": "string",
          "name": "",
          "type": "string"
        }
      ],
      "stateMutability": "view",
      "type": "function"
    },
    {
      "inputs": [
        {
          "internalType": "address",
          "name": "newOwner",
          "type": "address"
        }
      ],
      "name": "transferOwnership",
      "outputs": [],
      "stateMutability": "nonpayable",
      "type": "function"
    },
    {
      "inputs": [
        {
          "internalType": "uint256",
          "name": "_idCampaign",
          "type": "uint256"
        },
        {
          "internalType": "string",
          "name": "_name",
          "type": "string"
        },
        {
          "internalType": "uint256",
          "name": "_amount",
          "type": "uint256"
        },
        {
          "internalType": "uint256",
          "name": "_startDate",
          "type": "uint256"
        },
        {
          "internalType": "uint256",
          "name": "_endDate",
          "type": "uint256"
        }
      ],
      "name": "updateCampaign",
      "outputs": [],
      "stateMutability": "nonpayable",
      "type": "function"
    }
  ],
  "bytecode": "0x608060405234801561001057600080fd5b5060405161207b38038061207b83398181016040528101906100329190610292565b33600073ffffffffffffffffffffffffffffffffffffffff168173ffffffffffffffffffffffffffffffffffffffff16036100a55760006040517f1e4fbdf700000000000000000000000000000000000000000000000000000000815260040161009c91906102ce565b60405180910390fd5b6100b48161016b60201b60201c565b50600073ffffffffffffffffffffffffffffffffffffffff168173ffffffffffffffffffffffffffffffffffffffff1603610124576040517f08c379a000000000000000000000000000000000000000000000000000000000815260040161011b90610346565b60405180910390fd5b80600160006101000a81548173ffffffffffffffffffffffffffffffffffffffff021916908373ffffffffffffffffffffffffffffffffffffffff16021790555050610366565b60008060009054906101000a900473ffffffffffffffffffffffffffffffffffffffff169050816000806101000a81548173ffffffffffffffffffffffffffffffffffffffff021916908373ffffffffffffffffffffffffffffffffffffffff1602179055508173ffffffffffffffffffffffffffffffffffffffff168173ffffffffffffffffffffffffffffffffffffffff167f8be0079c531659141344cd1fd0a4f28419497f9722a3daafe3b4186f6b6457e060405160405180910390a35050565b600080fd5b600073ffffffffffffffffffffffffffffffffffffffff82169050919050565b600061025f82610234565b9050919050565b61026f81610254565b811461027a57600080fd5b50565b60008151905061028c81610266565b92915050565b6000602082840312156102a8576102a761022f565b5b60006102b68482850161027d565b91505092915050565b6102c881610254565b82525050565b60006020820190506102e360008301846102bf565b92915050565b600082825260208201905092915050565b7f496e76616c6964206272616e6420636f6e747261637420616464726573730000600082015250565b6000610330601e836102e9565b915061033b826102fa565b602082019050919050565b6000602082019050818103600083015261035f81610323565b9050919050565b611d06806103756000396000f3fe608060405234801561001057600080fd5b50600436106100b45760003560e01c8063d8db634811610071578063d8db634814610181578063e6ffcaa11461019f578063eb9322fc146101d5578063ef2307d514610205578063f2fde38b14610221578063f53d79a71461023d576100b4565b806312aa17fa146100b9578063715018a6146100d75780638da5cb5b146100e1578063a7fce91d146100ff578063bdaa00211461011b578063be6102be14610151575b600080fd5b6100c161026d565b6040516100ce9190610f23565b60405180910390f35b6100df610293565b005b6100e96102a7565b6040516100f69190610f5f565b60405180910390f35b6101196004803603810190610114919061110a565b6102d0565b005b610135600480360381019061013091906111a1565b610423565b6040516101489796959493929190611277565b60405180910390f35b61016b600480360381019061016691906111a1565b6104fa565b60405161017891906112ed565b60405180910390f35b61018961059a565b604051610196919061130f565b60405180910390f35b6101b960048036038101906101b491906111a1565b6105a0565b6040516101cc9796959493929190611277565b60405180910390f35b6101ef60048036038101906101ea91906111a1565b610731565b6040516101fc91906112ed565b60405180910390f35b61021f600480360381019061021a919061132a565b61081e565b005b61023b6004803603810190610236919061141b565b610aa8565b005b610257600480360381019061025291906111a1565b610b2e565b6040516102649190611448565b60405180910390f35b600160009054906101000a900473ffffffffffffffffffffffffffffffffffffffff1681565b61029b610d51565b6102a56000610dd8565b565b60008060009054906101000a900473ffffffffffffffffffffffffffffffffffffffff16905090565b6000600360008781526020019081526020016000209050600081600001540361032e576040517f08c379a0000000000000000000000000000000000000000000000000000000008152600401610325906114af565b60405180910390fd5b6000855111610372576040517f08c379a00000000000000000000000000000000000000000000000000000000081526004016103699061151b565b60405180910390fd5b8282116103b4576040517f08c379a00000000000000000000000000000000000000000000000000000000081526004016103ab90611587565b60405180910390fd5b848160020190816103c591906117a9565b50838160030181905550828160050181905550818160060181905550857f9ab9062b5287d083fd6fd99f5d5f9c6bafa499d8ae40cbcd58429d25925321e2868660405161041392919061187b565b60405180910390a2505050505050565b6003602052806000526040600020600091509050806000015490806001015490806002018054610452906115d6565b80601f016020809104026020016040519081016040528092919081815260200182805461047e906115d6565b80156104cb5780601f106104a0576101008083540402835291602001916104cb565b820191906000526020600020905b8154815290600101906020018083116104ae57829003601f168201915b5050505050908060030154908060040160009054906101000a900460ff16908060050154908060060154905087565b60046020528060005260406000206000915090508054610519906115d6565b80601f0160208091040260200160405190810160405280929190818152602001828054610545906115d6565b80156105925780601f1061056757610100808354040283529160200191610592565b820191906000526020600020905b81548152906001019060200180831161057557829003601f168201915b505050505081565b60025481565b60008060606000806000806105b488610b2e565b6105f3576040517f08c379a00000000000000000000000000000000000000000000000000000000081526004016105ea906118f7565b60405180910390fd5b6000600360008a81526020019081526020016000206040518060e00160405290816000820154815260200160018201548152602001600282018054610637906115d6565b80601f0160208091040260200160405190810160405280929190818152602001828054610663906115d6565b80156106b05780601f10610685576101008083540402835291602001916106b0565b820191906000526020600020905b81548152906001019060200180831161069357829003601f168201915b50505050508152602001600382015481526020016004820160009054906101000a900460ff16151515158152602001600582015481526020016006820154815250509050806000015181602001518260400151836060015184608001518560a001518660c00151975097509750975097509750975050919395979092949650565b606061073c82610b2e565b61077b576040517f08c379a000000000000000000000000000000000000000000000000000000000815260040161077290611963565b60405180910390fd5b600460008381526020019081526020016000208054610799906115d6565b80601f01602080910402602001604051908101604052809291908181526020018280546107c5906115d6565b80156108125780601f106107e757610100808354040283529160200191610812565b820191906000526020600020905b8154815290600101906020018083116107f557829003601f168201915b50505050509050919050565b610826610d51565b600160009054906101000a900473ffffffffffffffffffffffffffffffffffffffff1673ffffffffffffffffffffffffffffffffffffffff16630736c432876040518263ffffffff1660e01b8152600401610881919061130f565b602060405180830381865afa15801561089e573d6000803e3d6000fd5b505050506040513d601f19601f820116820180604052508101906108c291906119af565b610901576040517f08c379a00000000000000000000000000000000000000000000000000000000081526004016108f890611a28565b60405180910390fd5b6000855111610945576040517f08c379a000000000000000000000000000000000000000000000000000000000815260040161093c9061151b565b60405180910390fd5b828211610987576040517f08c379a000000000000000000000000000000000000000000000000000000000815260040161097e90611587565b60405180910390fd5b6002600081548092919061099a90611a77565b919050555060006040518060e0016040528060025481526020018881526020018781526020018681526020016001151581526020018581526020018481525090508060036000600254815260200190815260200160002060008201518160000155602082015181600101556040820151816002019081610a1a91906117a9565b506060820151816003015560808201518160040160006101000a81548160ff02191690831515021790555060a0820151816005015560c08201518160060155905050866002547f9f835e999ad03d530b7c89c64fac4aec3372c5edc407f043fb129307aa950d178888888888604051610a97959493929190611abf565b60405180910390a350505050505050565b610ab0610d51565b600073ffffffffffffffffffffffffffffffffffffffff168173ffffffffffffffffffffffffffffffffffffffff1603610b225760006040517f1e4fbdf7000000000000000000000000000000000000000000000000000000008152600401610b199190610f5f565b60405180910390fd5b610b2b81610dd8565b50565b600080600360008481526020019081526020016000206040518060e00160405290816000820154815260200160018201548152602001600282018054610b73906115d6565b80601f0160208091040260200160405190810160405280929190818152602001828054610b9f906115d6565b8015610bec5780601f10610bc157610100808354040283529160200191610bec565b820191906000526020600020905b815481529060010190602001808311610bcf57829003601f168201915b50505050508152602001600382015481526020016004820160009054906101000a900460ff16151515158152602001600582015481526020016006820154815250509050600254831115610c75576040517f08c379a0000000000000000000000000000000000000000000000000000000008152600401610c6c90611b6c565b60405180910390fd5b6000816000015103610cbc576040517f08c379a0000000000000000000000000000000000000000000000000000000008152600401610cb390611bd8565b60405180910390fd5b8060800151610d00576040517f08c379a0000000000000000000000000000000000000000000000000000000008152600401610cf790611c44565b60405180910390fd5b8060c00151421115610d47576040517f08c379a0000000000000000000000000000000000000000000000000000000008152600401610d3e90611cb0565b60405180910390fd5b6001915050919050565b610d59610e9c565b73ffffffffffffffffffffffffffffffffffffffff16610d776102a7565b73ffffffffffffffffffffffffffffffffffffffff1614610dd657610d9a610e9c565b6040517f118cdaa7000000000000000000000000000000000000000000000000000000008152600401610dcd9190610f5f565b60405180910390fd5b565b60008060009054906101000a900473ffffffffffffffffffffffffffffffffffffffff169050816000806101000a81548173ffffffffffffffffffffffffffffffffffffffff021916908373ffffffffffffffffffffffffffffffffffffffff1602179055508173ffffffffffffffffffffffffffffffffffffffff168173ffffffffffffffffffffffffffffffffffffffff167f8be0079c531659141344cd1fd0a4f28419497f9722a3daafe3b4186f6b6457e060405160405180910390a35050565b600033905090565b600073ffffffffffffffffffffffffffffffffffffffff82169050919050565b6000819050919050565b6000610ee9610ee4610edf84610ea4565b610ec4565b610ea4565b9050919050565b6000610efb82610ece565b9050919050565b6000610f0d82610ef0565b9050919050565b610f1d81610f02565b82525050565b6000602082019050610f386000830184610f14565b92915050565b6000610f4982610ea4565b9050919050565b610f5981610f3e565b82525050565b6000602082019050610f746000830184610f50565b92915050565b6000604051905090565b600080fd5b600080fd5b6000819050919050565b610fa181610f8e565b8114610fac57600080fd5b50565b600081359050610fbe81610f98565b92915050565b600080fd5b600080fd5b6000601f19601f8301169050919050565b7f4e487b7100000000000000000000000000000000000000000000000000000000600052604160045260246000fd5b61101782610fce565b810181811067ffffffffffffffff8211171561103657611035610fdf565b5b80604052505050565b6000611049610f7a565b9050611055828261100e565b919050565b600067ffffffffffffffff82111561107557611074610fdf565b5b61107e82610fce565b9050602081019050919050565b82818337600083830152505050565b60006110ad6110a88461105a565b61103f565b9050828152602081018484840111156110c9576110c8610fc9565b5b6110d484828561108b565b509392505050565b600082601f8301126110f1576110f0610fc4565b5b813561110184826020860161109a565b91505092915050565b600080600080600060a0868803121561112657611125610f84565b5b600061113488828901610faf565b955050602086013567ffffffffffffffff81111561115557611154610f89565b5b611161888289016110dc565b945050604061117288828901610faf565b935050606061118388828901610faf565b925050608061119488828901610faf565b9150509295509295909350565b6000602082840312156111b7576111b6610f84565b5b60006111c584828501610faf565b91505092915050565b6111d781610f8e565b82525050565b600081519050919050565b600082825260208201905092915050565b60005b838110156112175780820151818401526020810190506111fc565b60008484015250505050565b600061122e826111dd565b61123881856111e8565b93506112488185602086016111f9565b61125181610fce565b840191505092915050565b60008115159050919050565b6112718161125c565b82525050565b600060e08201905061128c600083018a6111ce565b61129960208301896111ce565b81810360408301526112ab8188611223565b90506112ba60608301876111ce565b6112c76080830186611268565b6112d460a08301856111ce565b6112e160c08301846111ce565b98975050505050505050565b600060208201905081810360008301526113078184611223565b905092915050565b600060208201905061132460008301846111ce565b92915050565b60008060008060008060c0878903121561134757611346610f84565b5b600061135589828a01610faf565b965050602087013567ffffffffffffffff81111561137657611375610f89565b5b61138289828a016110dc565b955050604061139389828a01610faf565b94505060606113a489828a01610faf565b93505060806113b589828a01610faf565b92505060a087013567ffffffffffffffff8111156113d6576113d5610f89565b5b6113e289828a016110dc565b9150509295509295509295565b6113f881610f3e565b811461140357600080fd5b50565b600081359050611415816113ef565b92915050565b60006020828403121561143157611430610f84565b5b600061143f84828501611406565b91505092915050565b600060208201905061145d6000830184611268565b92915050565b7f43616d706169676e206e6f7420666f756e640000000000000000000000000000600082015250565b60006114996012836111e8565b91506114a482611463565b602082019050919050565b600060208201905081810360008301526114c88161148c565b9050919050565b7f496e76616c69642063616d706169676e206e616d650000000000000000000000600082015250565b60006115056015836111e8565b9150611510826114cf565b602082019050919050565b60006020820190508181036000830152611534816114f8565b9050919050565b7f496e76616c696420646174657300000000000000000000000000000000000000600082015250565b6000611571600d836111e8565b915061157c8261153b565b602082019050919050565b600060208201905081810360008301526115a081611564565b9050919050565b7f4e487b7100000000000000000000000000000000000000000000000000000000600052602260045260246000fd5b600060028204905060018216806115ee57607f821691505b602082108103611601576116006115a7565b5b50919050565b60008190508160005260206000209050919050565b60006020601f8301049050919050565b600082821b905092915050565b6000600883026116697fffffffffffffffffffffffffffffffffffffffffffffffffffffffffffffffff8261162c565b611673868361162c565b95508019841693508086168417925050509392505050565b60006116a66116a161169c84610f8e565b610ec4565b610f8e565b9050919050565b6000819050919050565b6116c08361168b565b6116d46116cc826116ad565b848454611639565b825550505050565b600090565b6116e96116dc565b6116f48184846116b7565b505050565b5b818110156117185761170d6000826116e1565b6001810190506116fa565b5050565b601f82111561175d5761172e81611607565b6117378461161c565b81016020851015611746578190505b61175a6117528561161c565b8301826116f9565b50505b505050565b600082821c905092915050565b600061178060001984600802611762565b1980831691505092915050565b6000611799838361176f565b9150826002028217905092915050565b6117b2826111dd565b67ffffffffffffffff8111156117cb576117ca610fdf565b5b6117d582546115d6565b6117e082828561171c565b600060209050601f8311600181146118135760008415611801578287015190505b61180b858261178d565b865550611873565b601f19841661182186611607565b60005b8281101561184957848901518255600182019150602085019450602081019050611824565b868310156118665784890151611862601f89168261176f565b8355505b6001600288020188555050505b505050505050565b600060408201905081810360008301526118958185611223565b90506118a460208301846111ce565b9392505050565b7f43616d706169676e20494420696e76616c696400000000000000000000000000600082015250565b60006118e16013836111e8565b91506118ec826118ab565b602082019050919050565b60006020820190508181036000830152611910816118d4565b9050919050565b7f496e76616c69642063616d706169676e00000000000000000000000000000000600082015250565b600061194d6010836111e8565b915061195882611917565b602082019050919050565b6000602082019050818103600083015261197c81611940565b9050919050565b61198c8161125c565b811461199757600080fd5b50565b6000815190506119a981611983565b92915050565b6000602082840312156119c5576119c4610f84565b5b60006119d38482850161199a565b91505092915050565b7f496e76616c6964206272616e6400000000000000000000000000000000000000600082015250565b6000611a12600d836111e8565b9150611a1d826119dc565b602082019050919050565b60006020820190508181036000830152611a4181611a05565b9050919050565b7f4e487b7100000000000000000000000000000000000000000000000000000000600052601160045260246000fd5b6000611a8282610f8e565b91507fffffffffffffffffffffffffffffffffffffffffffffffffffffffffffffffff8203611ab457611ab3611a48565b5b600182019050919050565b600060a0820190508181036000830152611ad98188611223565b9050611ae860208301876111ce565b611af560408301866111ce565b611b0260608301856111ce565b8181036080830152611b148184611223565b90509695505050505050565b7f496e76616c69642043616d706169676e20494400000000000000000000000000600082015250565b6000611b566013836111e8565b9150611b6182611b20565b602082019050919050565b60006020820190508181036000830152611b8581611b49565b9050919050565b7f496e76616c69642043616d706169676e00000000000000000000000000000000600082015250565b6000611bc26010836111e8565b9150611bcd82611b8c565b602082019050919050565b60006020820190508181036000830152611bf181611bb5565b9050919050565b7f43616d706169676e20696e616374697665000000000000000000000000000000600082015250565b6000611c2e6011836111e8565b9150611c3982611bf8565b602082019050919050565b60006020820190508181036000830152611c5d81611c21565b9050919050565b7f43616d706169676e2068617320656e6465640000000000000000000000000000600082015250565b6000611c9a6012836111e8565b9150611ca582611c64565b602082019050919050565b60006020820190508181036000830152611cc981611c8d565b905091905056fea2646970667358221220bca155ec8b8b69fde606a4ed80c2c9d2c9696096f27a4bb1cbfca7563493fa7564736f6c63430008190033",
  "linkReferences": {},
  "deployedLinkReferences": {}
}