{
  "_format": "hh-sol-artifact-1",
  "contractName": "KOL",
  "sourceName": "src/KOL.sol",
  "abi": [
    {
      "inputs": [
        {
          "internalType": "address",
          "name": "_campaignContract",
          "type": "address"
        }
      ],
      "stateMutability": "nonpayable",
      "type": "constructor"
    },
    {
      "inputs": [
        {
          "internalType": "address",
          "name": "owner",
          "type": "address"
        }
      ],
      "name": "OwnableInvalidOwner",
      "type": "error"
    },
    {
      "inputs": [
        {
          "internalType": "address",
          "name": "account",
          "type": "address"
        }
      ],
      "name": "OwnableUnauthorizedAccount",
      "type": "error"
    },
    {
      "anonymous": false,
      "inputs": [
        {
          "indexed": true,
          "internalType": "uint256",
          "name": "idKolCampaign",
          "type": "uint256"
        },
        {
          "indexed": true,
          "internalType": "address",
          "name": "kol",
          "type": "address"
        },
        {
          "indexed": false,
          "internalType": "uint256",
          "name": "idCampaign",
          "type": "uint256"
        }
      ],
      "name": "KolCampaignAdded",
      "type": "event"
    },
    {
      "anonymous": false,
      "inputs": [
        {
          "indexed": true,
          "internalType": "address",
          "name": "previousOwner",
          "type": "address"
        },
        {
          "indexed": true,
          "internalType": "address",
          "name": "newOwner",
          "type": "address"
        }
      ],
      "name": "OwnershipTransferred",
      "type": "event"
    },
    {
      "inputs": [
        {
          "internalType": "address",
          "name": "_address",
          "type": "address"
        }
      ],
      "name": "addKol",
      "outputs": [],
      "stateMutability": "nonpayable",
      "type": "function"
    },
    {
      "inputs": [
        {
          "internalType": "uint256",
          "name": "_idCampaign",
          "type": "uint256"
        }
      ],
      "name": "addKolToCampaign",
      "outputs": [],
      "stateMutability": "nonpayable",
      "type": "function"
    },
    {
      "inputs": [
        {
          "internalType": "uint256",
          "name": "_id",
          "type": "uint256"
        }
      ],
      "name": "getKOLCampaign",
      "outputs": [
        {
          "internalType": "address",
          "name": "",
          "type": "address"
        },
        {
          "internalType": "uint256",
          "name": "",
          "type": "uint256"
        }
      ],
      "stateMutability": "view",
      "type": "function"
    },
    {
      "inputs": [
        {
          "internalType": "address",
          "name": "_kol",
          "type": "address"
        }
      ],
      "name": "getKolCampaignsByAddress",
      "outputs": [
        {
          "components": [
            {
              "internalType": "address",
              "name": "kol",
              "type": "address"
            },
            {
              "internalType": "uint256",
              "name": "idCampaign",
              "type": "uint256"
            }
          ],
          "internalType": "struct KOL.KOLCampaign[]",
          "name": "",
          "type": "tuple[]"
        }
      ],
      "stateMutability": "view",
      "type": "function"
    },
    {
      "inputs": [],
      "name": "idKolCampaign",
      "outputs": [
        {
          "internalType": "uint256",
          "name": "",
          "type": "uint256"
        }
      ],
      "stateMutability": "view",
      "type": "function"
    },
    {
      "inputs": [
        {
          "internalType": "uint256",
          "name": "_id",
          "type": "uint256"
        }
      ],
      "name": "isValidKolCampaign",
      "outputs": [
        {
          "internalType": "bool",
          "name": "",
          "type": "bool"
        }
      ],
      "stateMutability": "view",
      "type": "function"
    },
    {
      "inputs": [],
      "name": "owner",
      "outputs": [
        {
          "internalType": "address",
          "name": "",
          "type": "address"
        }
      ],
      "stateMutability": "view",
      "type": "function"
    },
    {
      "inputs": [],
      "name": "renounceOwnership",
      "outputs": [],
      "stateMutability": "nonpayable",
      "type": "function"
    },
    {
      "inputs": [],
      "name": "s_campaignContract",
      "outputs": [
        {
          "internalType": "contract Campaign",
          "name": "",
          "type": "address"
        }
      ],
      "stateMutability": "view",
      "type": "function"
    },
    {
      "inputs": [
        {
          "internalType": "address",
          "name": "",
          "type": "address"
        },
        {
          "internalType": "uint256",
          "name": "",
          "type": "uint256"
        }
      ],
      "name": "s_campaignsKol",
      "outputs": [
        {
          "internalType": "address",
          "name": "kol",
          "type": "address"
        },
        {
          "internalType": "uint256",
          "name": "idCampaign",
          "type": "uint256"
        }
      ],
      "stateMutability": "view",
      "type": "function"
    },
    {
      "inputs": [
        {
          "internalType": "uint256",
          "name": "",
          "type": "uint256"
        }
      ],
      "name": "s_kolCampaign",
      "outputs": [
        {
          "internalType": "address",
          "name": "kol",
          "type": "address"
        },
        {
          "internalType": "uint256",
          "name": "idCampaign",
          "type": "uint256"
        }
      ],
      "stateMutability": "view",
      "type": "function"
    },
    {
      "inputs": [
        {
          "internalType": "address",
          "name": "",
          "type": "address"
        }
      ],
      "name": "s_kols",
      "outputs": [
        {
          "internalType": "bool",
          "name": "",
          "type": "bool"
        }
      ],
      "stateMutability": "view",
      "type": "function"
    },
    {
      "inputs": [
        {
          "internalType": "address",
          "name": "newOwner",
          "type": "address"
        }
      ],
      "name": "transferOwnership",
      "outputs": [],
      "stateMutability": "nonpayable",
      "type": "function"
    },
    {
      "inputs": [
        {
          "internalType": "address",
          "name": "_campaignContract",
          "type": "address"
        }
      ],
      "name": "updateCampaignContract",
      "outputs": [],
      "stateMutability": "nonpayable",
      "type": "function"
    }
  ],
  "bytecode": "0x608060405234801561001057600080fd5b506040516118b23803806118b283398181016040528101906100329190610292565b33600073ffffffffffffffffffffffffffffffffffffffff168173ffffffffffffffffffffffffffffffffffffffff16036100a55760006040517f1e4fbdf700000000000000000000000000000000000000000000000000000000815260040161009c91906102ce565b60405180910390fd5b6100b48161016b60201b60201c565b50600073ffffffffffffffffffffffffffffffffffffffff168173ffffffffffffffffffffffffffffffffffffffff1603610124576040517f08c379a000000000000000000000000000000000000000000000000000000000815260040161011b9061036c565b60405180910390fd5b80600160006101000a81548173ffffffffffffffffffffffffffffffffffffffff021916908373ffffffffffffffffffffffffffffffffffffffff1602179055505061038c565b60008060009054906101000a900473ffffffffffffffffffffffffffffffffffffffff169050816000806101000a81548173ffffffffffffffffffffffffffffffffffffffff021916908373ffffffffffffffffffffffffffffffffffffffff1602179055508173ffffffffffffffffffffffffffffffffffffffff168173ffffffffffffffffffffffffffffffffffffffff167f8be0079c531659141344cd1fd0a4f28419497f9722a3daafe3b4186f6b6457e060405160405180910390a35050565b600080fd5b600073ffffffffffffffffffffffffffffffffffffffff82169050919050565b600061025f82610234565b9050919050565b61026f81610254565b811461027a57600080fd5b50565b60008151905061028c81610266565b92915050565b6000602082840312156102a8576102a761022f565b5b60006102b68482850161027d565b91505092915050565b6102c881610254565b82525050565b60006020820190506102e360008301846102bf565b92915050565b600082825260208201905092915050565b7f496e76616c69642063616d706169676e20636f6e74726163742061646472657360008201527f7300000000000000000000000000000000000000000000000000000000000000602082015250565b60006103566021836102e9565b9150610361826102fa565b604082019050919050565b6000602082019050818103600083015261038581610349565b9050919050565b6115178061039b6000396000f3fe608060405234801561001057600080fd5b50600436106100ea5760003560e01c80638da5cb5b1161008c578063b32265dc11610066578063b32265dc1461024d578063c45e3c4814610269578063f2fde38b14610299578063f7f45433146102b5576100ea565b80638da5cb5b146101e0578063936ce5d2146101fe5780639f7dff741461021c576100ea565b80635f41e0d3116100c85780635f41e0d31461015857806360baf40614610188578063715018a6146101b857806389c69d5a146101c2576100ea565b806307a623ce146100ef5780630cb4f66d1461010b578063276e6a2a1461013c575b600080fd5b61010960048036038101906101049190610e37565b6102e6565b005b61012560048036038101906101209190610e9a565b6103b8565b604051610133929190610ee5565b60405180910390f35b61015660048036038101906101519190610e9a565b6103fc565b005b610172600480360381019061016d9190610e9a565b61072b565b60405161017f9190610f29565b60405180910390f35b6101a2600480360381019061019d9190610e37565b6107eb565b6040516101af9190611040565b60405180910390f35b6101c0610975565b005b6101ca610989565b6040516101d79190611062565b60405180910390f35b6101e861098f565b6040516101f5919061107d565b60405180910390f35b6102066109b8565b60405161021391906110f7565b60405180910390f35b61023660048036038101906102319190610e9a565b6109de565b604051610244929190610ee5565b60405180910390f35b61026760048036038101906102629190610e37565b610abf565b005b610283600480360381019061027e9190610e37565b610b7a565b6040516102909190610f29565b60405180910390f35b6102b360048036038101906102ae9190610e37565b610b9a565b005b6102cf60048036038101906102ca9190611112565b610c20565b6040516102dd929190610ee5565b60405180910390f35b6102ee610c81565b600073ffffffffffffffffffffffffffffffffffffffff168173ffffffffffffffffffffffffffffffffffffffff160361035d576040517f08c379a0000000000000000000000000000000000000000000000000000000008152600401610354906111af565b60405180910390fd5b6001600360008373ffffffffffffffffffffffffffffffffffffffff1673ffffffffffffffffffffffffffffffffffffffff16815260200190815260200160002060006101000a81548160ff02191690831515021790555050565b60046020528060005260406000206000915090508060000160009054906101000a900473ffffffffffffffffffffffffffffffffffffffff16908060010154905082565b600360003373ffffffffffffffffffffffffffffffffffffffff1673ffffffffffffffffffffffffffffffffffffffff16815260200190815260200160002060009054906101000a900460ff16610488576040517f08c379a000000000000000000000000000000000000000000000000000000000815260040161047f9061121b565b60405180910390fd5b6000600160009054906101000a900473ffffffffffffffffffffffffffffffffffffffff1673ffffffffffffffffffffffffffffffffffffffff1663f53d79a7836040518263ffffffff1660e01b81526004016104e59190611062565b602060405180830381865afa158015610502573d6000803e3d6000fd5b505050506040513d601f19601f820116820180604052508101906105269190611267565b905080610568576040517f08c379a000000000000000000000000000000000000000000000000000000000815260040161055f906112e0565b60405180910390fd5b600060405180604001604052803373ffffffffffffffffffffffffffffffffffffffff168152602001848152509050600260008154809291906105aa9061132f565b91905055508060046000600254815260200190815260200160002060008201518160000160006101000a81548173ffffffffffffffffffffffffffffffffffffffff021916908373ffffffffffffffffffffffffffffffffffffffff16021790555060208201518160010155905050600560003373ffffffffffffffffffffffffffffffffffffffff1673ffffffffffffffffffffffffffffffffffffffff16815260200190815260200160002081908060018154018082558091505060019003906000526020600020906002020160009091909190915060008201518160000160006101000a81548173ffffffffffffffffffffffffffffffffffffffff021916908373ffffffffffffffffffffffffffffffffffffffff1602179055506020820151816001015550503373ffffffffffffffffffffffffffffffffffffffff166002547fcaf25c301f678582a82d4a5b04bb02cbaebae813af45b15b45edc49c0560cd4b8560405161071e9190611062565b60405180910390a3505050565b600080600460008481526020019081526020016000206040518060400160405290816000820160009054906101000a900473ffffffffffffffffffffffffffffffffffffffff1673ffffffffffffffffffffffffffffffffffffffff1673ffffffffffffffffffffffffffffffffffffffff1681526020016001820154815250509050600073ffffffffffffffffffffffffffffffffffffffff16816000015173ffffffffffffffffffffffffffffffffffffffff161415915050919050565b6060600360008373ffffffffffffffffffffffffffffffffffffffff1673ffffffffffffffffffffffffffffffffffffffff16815260200190815260200160002060009054906101000a900460ff16610879576040517f08c379a0000000000000000000000000000000000000000000000000000000008152600401610870906113c3565b60405180910390fd5b600560008373ffffffffffffffffffffffffffffffffffffffff1673ffffffffffffffffffffffffffffffffffffffff168152602001908152602001600020805480602002602001604051908101604052809291908181526020016000905b8282101561096a57838290600052602060002090600202016040518060400160405290816000820160009054906101000a900473ffffffffffffffffffffffffffffffffffffffff1673ffffffffffffffffffffffffffffffffffffffff1673ffffffffffffffffffffffffffffffffffffffff168152602001600182015481525050815260200190600101906108d8565b505050509050919050565b61097d610c81565b6109876000610d08565b565b60025481565b60008060009054906101000a900473ffffffffffffffffffffffffffffffffffffffff16905090565b600160009054906101000a900473ffffffffffffffffffffffffffffffffffffffff1681565b6000806109ea8361072b565b610a29576040517f08c379a0000000000000000000000000000000000000000000000000000000008152600401610a209061142f565b60405180910390fd5b6000600460008581526020019081526020016000206040518060400160405290816000820160009054906101000a900473ffffffffffffffffffffffffffffffffffffffff1673ffffffffffffffffffffffffffffffffffffffff1673ffffffffffffffffffffffffffffffffffffffff1681526020016001820154815250509050806000015181602001519250925050915091565b610ac7610c81565b600073ffffffffffffffffffffffffffffffffffffffff168173ffffffffffffffffffffffffffffffffffffffff1603610b36576040517f08c379a0000000000000000000000000000000000000000000000000000000008152600401610b2d906114c1565b60405180910390fd5b80600160006101000a81548173ffffffffffffffffffffffffffffffffffffffff021916908373ffffffffffffffffffffffffffffffffffffffff16021790555050565b60036020528060005260406000206000915054906101000a900460ff1681565b610ba2610c81565b600073ffffffffffffffffffffffffffffffffffffffff168173ffffffffffffffffffffffffffffffffffffffff1603610c145760006040517f1e4fbdf7000000000000000000000000000000000000000000000000000000008152600401610c0b919061107d565b60405180910390fd5b610c1d81610d08565b50565b60056020528160005260406000208181548110610c3c57600080fd5b9060005260206000209060020201600091509150508060000160009054906101000a900473ffffffffffffffffffffffffffffffffffffffff16908060010154905082565b610c89610dcc565b73ffffffffffffffffffffffffffffffffffffffff16610ca761098f565b73ffffffffffffffffffffffffffffffffffffffff1614610d0657610cca610dcc565b6040517f118cdaa7000000000000000000000000000000000000000000000000000000008152600401610cfd919061107d565b60405180910390fd5b565b60008060009054906101000a900473ffffffffffffffffffffffffffffffffffffffff169050816000806101000a81548173ffffffffffffffffffffffffffffffffffffffff021916908373ffffffffffffffffffffffffffffffffffffffff1602179055508173ffffffffffffffffffffffffffffffffffffffff168173ffffffffffffffffffffffffffffffffffffffff167f8be0079c531659141344cd1fd0a4f28419497f9722a3daafe3b4186f6b6457e060405160405180910390a35050565b600033905090565b600080fd5b600073ffffffffffffffffffffffffffffffffffffffff82169050919050565b6000610e0482610dd9565b9050919050565b610e1481610df9565b8114610e1f57600080fd5b50565b600081359050610e3181610e0b565b92915050565b600060208284031215610e4d57610e4c610dd4565b5b6000610e5b84828501610e22565b91505092915050565b6000819050919050565b610e7781610e64565b8114610e8257600080fd5b50565b600081359050610e9481610e6e565b92915050565b600060208284031215610eb057610eaf610dd4565b5b6000610ebe84828501610e85565b91505092915050565b610ed081610df9565b82525050565b610edf81610e64565b82525050565b6000604082019050610efa6000830185610ec7565b610f076020830184610ed6565b9392505050565b60008115159050919050565b610f2381610f0e565b82525050565b6000602082019050610f3e6000830184610f1a565b92915050565b600081519050919050565b600082825260208201905092915050565b6000819050602082019050919050565b610f7981610df9565b82525050565b610f8881610e64565b82525050565b604082016000820151610fa46000850182610f70565b506020820151610fb76020850182610f7f565b50505050565b6000610fc98383610f8e565b60408301905092915050565b6000602082019050919050565b6000610fed82610f44565b610ff78185610f4f565b935061100283610f60565b8060005b8381101561103357815161101a8882610fbd565b975061102583610fd5565b925050600181019050611006565b5085935050505092915050565b6000602082019050818103600083015261105a8184610fe2565b905092915050565b60006020820190506110776000830184610ed6565b92915050565b60006020820190506110926000830184610ec7565b92915050565b6000819050919050565b60006110bd6110b86110b384610dd9565b611098565b610dd9565b9050919050565b60006110cf826110a2565b9050919050565b60006110e1826110c4565b9050919050565b6110f1816110d6565b82525050565b600060208201905061110c60008301846110e8565b92915050565b6000806040838503121561112957611128610dd4565b5b600061113785828601610e22565b925050602061114885828601610e85565b9150509250929050565b600082825260208201905092915050565b7f496e76616c6964204b4f4c206164647265737300000000000000000000000000600082015250565b6000611199601383611152565b91506111a482611163565b602082019050919050565b600060208201905081810360008301526111c88161118c565b9050919050565b7f496e76616c6964204b4f4c000000000000000000000000000000000000000000600082015250565b6000611205600b83611152565b9150611210826111cf565b602082019050919050565b60006020820190508181036000830152611234816111f8565b9050919050565b61124481610f0e565b811461124f57600080fd5b50565b6000815190506112618161123b565b92915050565b60006020828403121561127d5761127c610dd4565b5b600061128b84828501611252565b91505092915050565b7f496e76616c69642063616d706169676e00000000000000000000000000000000600082015250565b60006112ca601083611152565b91506112d582611294565b602082019050919050565b600060208201905081810360008301526112f9816112bd565b9050919050565b7f4e487b7100000000000000000000000000000000000000000000000000000000600052601160045260246000fd5b600061133a82610e64565b91507fffffffffffffffffffffffffffffffffffffffffffffffffffffffffffffffff820361136c5761136b611300565b5b600182019050919050565b7f496e76616c6964204b6f6c000000000000000000000000000000000000000000600082015250565b60006113ad600b83611152565b91506113b882611377565b602082019050919050565b600060208201905081810360008301526113dc816113a0565b9050919050565b7f496e76616c6964204b4f4c43616d706169676e00000000000000000000000000600082015250565b6000611419601383611152565b9150611424826113e3565b602082019050919050565b600060208201905081810360008301526114488161140c565b9050919050565b7f496e76616c69642063616d706169676e20636f6e74726163742061646472657360008201527f7300000000000000000000000000000000000000000000000000000000000000602082015250565b60006114ab602183611152565b91506114b68261144f565b604082019050919050565b600060208201905081810360008301526114da8161149e565b905091905056fea264697066735822122065cc35f2cfc044bc0deb833e938665191de25d65445626909f5eadaa4f33c24f64736f6c63430008190033",
  "linkReferences": {},
  "deployedLinkReferences": {}
}