{
  "_format": "hh-sol-artifact-1",
  "contractName": "KOL",
  "sourceName": "src/KOL.sol",
  "abi": [
    {
      "inputs": [
        {
          "internalType": "address",
          "name": "_campaignContract",
          "type": "address"
        }
      ],
      "stateMutability": "nonpayable",
      "type": "constructor"
    },
    {
      "inputs": [
        {
          "internalType": "address",
          "name": "owner",
          "type": "address"
        }
      ],
      "name": "OwnableInvalidOwner",
      "type": "error"
    },
    {
      "inputs": [
        {
          "internalType": "address",
          "name": "account",
          "type": "address"
        }
      ],
      "name": "OwnableUnauthorizedAccount",
      "type": "error"
    },
    {
      "anonymous": false,
      "inputs": [
        {
          "indexed": true,
          "internalType": "address",
          "name": "campaignContract",
          "type": "address"
        }
      ],
      "name": "CampaignContractUpdated",
      "type": "event"
    },
    {
      "anonymous": false,
      "inputs": [
        {
          "indexed": true,
          "internalType": "uint256",
          "name": "idKolCampaign",
          "type": "uint256"
        },
        {
          "indexed": true,
          "internalType": "address",
          "name": "kol",
          "type": "address"
        },
        {
          "indexed": false,
          "internalType": "uint256",
          "name": "idCampaign",
          "type": "uint256"
        }
      ],
      "name": "KolCampaignAdded",
      "type": "event"
    },
    {
      "anonymous": false,
      "inputs": [
        {
          "indexed": true,
          "internalType": "address",
          "name": "kol",
          "type": "address"
        }
      ],
      "name": "KolJoined",
      "type": "event"
    },
    {
      "anonymous": false,
      "inputs": [
        {
          "indexed": true,
          "internalType": "address",
          "name": "previousOwner",
          "type": "address"
        },
        {
          "indexed": true,
          "internalType": "address",
          "name": "newOwner",
          "type": "address"
        }
      ],
      "name": "OwnershipTransferred",
      "type": "event"
    },
    {
      "inputs": [
        {
          "internalType": "uint256",
          "name": "_idCampaign",
          "type": "uint256"
        },
        {
          "internalType": "address",
          "name": "_kol",
          "type": "address"
        }
      ],
      "name": "addKolToCampaign",
      "outputs": [],
      "stateMutability": "nonpayable",
      "type": "function"
    },
    {
      "inputs": [
        {
          "internalType": "uint256",
          "name": "_id",
          "type": "uint256"
        }
      ],
      "name": "getKOLCampaign",
      "outputs": [
        {
          "internalType": "address",
          "name": "",
          "type": "address"
        },
        {
          "internalType": "uint256",
          "name": "",
          "type": "uint256"
        }
      ],
      "stateMutability": "view",
      "type": "function"
    },
    {
      "inputs": [
        {
          "internalType": "address",
          "name": "_kol",
          "type": "address"
        }
      ],
      "name": "getKolCampaignsByAddress",
      "outputs": [
        {
          "components": [
            {
              "internalType": "address",
              "name": "kol",
              "type": "address"
            },
            {
              "internalType": "uint256",
              "name": "idCampaign",
              "type": "uint256"
            }
          ],
          "internalType": "struct KOL.KOLCampaign[]",
          "name": "",
          "type": "tuple[]"
        }
      ],
      "stateMutability": "view",
      "type": "function"
    },
    {
      "inputs": [],
      "name": "idKolCampaign",
      "outputs": [
        {
          "internalType": "uint256",
          "name": "",
          "type": "uint256"
        }
      ],
      "stateMutability": "view",
      "type": "function"
    },
    {
      "inputs": [
        {
          "internalType": "uint256",
          "name": "_id",
          "type": "uint256"
        }
      ],
      "name": "isValidKolCampaign",
      "outputs": [
        {
          "internalType": "bool",
          "name": "",
          "type": "bool"
        }
      ],
      "stateMutability": "view",
      "type": "function"
    },
    {
      "inputs": [
        {
          "internalType": "address",
          "name": "_address",
          "type": "address"
        }
      ],
      "name": "joinAsKol",
      "outputs": [],
      "stateMutability": "nonpayable",
      "type": "function"
    },
    {
      "inputs": [],
      "name": "owner",
      "outputs": [
        {
          "internalType": "address",
          "name": "",
          "type": "address"
        }
      ],
      "stateMutability": "view",
      "type": "function"
    },
    {
      "inputs": [],
      "name": "renounceOwnership",
      "outputs": [],
      "stateMutability": "nonpayable",
      "type": "function"
    },
    {
      "inputs": [],
      "name": "s_campaignContract",
      "outputs": [
        {
          "internalType": "contract Campaign",
          "name": "",
          "type": "address"
        }
      ],
      "stateMutability": "view",
      "type": "function"
    },
    {
      "inputs": [
        {
          "internalType": "address",
          "name": "",
          "type": "address"
        },
        {
          "internalType": "uint256",
          "name": "",
          "type": "uint256"
        }
      ],
      "name": "s_campaignsKol",
      "outputs": [
        {
          "internalType": "address",
          "name": "kol",
          "type": "address"
        },
        {
          "internalType": "uint256",
          "name": "idCampaign",
          "type": "uint256"
        }
      ],
      "stateMutability": "view",
      "type": "function"
    },
    {
      "inputs": [
        {
          "internalType": "uint256",
          "name": "",
          "type": "uint256"
        }
      ],
      "name": "s_kolCampaign",
      "outputs": [
        {
          "internalType": "address",
          "name": "kol",
          "type": "address"
        },
        {
          "internalType": "uint256",
          "name": "idCampaign",
          "type": "uint256"
        }
      ],
      "stateMutability": "view",
      "type": "function"
    },
    {
      "inputs": [
        {
          "internalType": "address",
          "name": "",
          "type": "address"
        }
      ],
      "name": "s_kols",
      "outputs": [
        {
          "internalType": "bool",
          "name": "",
          "type": "bool"
        }
      ],
      "stateMutability": "view",
      "type": "function"
    },
    {
      "inputs": [
        {
          "internalType": "address",
          "name": "newOwner",
          "type": "address"
        }
      ],
      "name": "transferOwnership",
      "outputs": [],
      "stateMutability": "nonpayable",
      "type": "function"
    },
    {
      "inputs": [
        {
          "internalType": "address",
          "name": "_campaignContract",
          "type": "address"
        }
      ],
      "name": "updateCampaignContract",
      "outputs": [],
      "stateMutability": "nonpayable",
      "type": "function"
    }
  ],
  "bytecode": "0x608060405234801561001057600080fd5b5060405161187938038061187983398181016040528101906100329190610292565b33600073ffffffffffffffffffffffffffffffffffffffff168173ffffffffffffffffffffffffffffffffffffffff16036100a55760006040517f1e4fbdf700000000000000000000000000000000000000000000000000000000815260040161009c91906102ce565b60405180910390fd5b6100b48161016b60201b60201c565b50600073ffffffffffffffffffffffffffffffffffffffff168173ffffffffffffffffffffffffffffffffffffffff1603610124576040517f08c379a000000000000000000000000000000000000000000000000000000000815260040161011b9061036c565b60405180910390fd5b80600160006101000a81548173ffffffffffffffffffffffffffffffffffffffff021916908373ffffffffffffffffffffffffffffffffffffffff1602179055505061038c565b60008060009054906101000a900473ffffffffffffffffffffffffffffffffffffffff169050816000806101000a81548173ffffffffffffffffffffffffffffffffffffffff021916908373ffffffffffffffffffffffffffffffffffffffff1602179055508173ffffffffffffffffffffffffffffffffffffffff168173ffffffffffffffffffffffffffffffffffffffff167f8be0079c531659141344cd1fd0a4f28419497f9722a3daafe3b4186f6b6457e060405160405180910390a35050565b600080fd5b600073ffffffffffffffffffffffffffffffffffffffff82169050919050565b600061025f82610234565b9050919050565b61026f81610254565b811461027a57600080fd5b50565b60008151905061028c81610266565b92915050565b6000602082840312156102a8576102a761022f565b5b60006102b68482850161027d565b91505092915050565b6102c881610254565b82525050565b60006020820190506102e360008301846102bf565b92915050565b600082825260208201905092915050565b7f496e76616c69642063616d706169676e20636f6e74726163742061646472657360008201527f7300000000000000000000000000000000000000000000000000000000000000602082015250565b60006103566021836102e9565b9150610361826102fa565b604082019050919050565b6000602082019050818103600083015261038581610349565b9050919050565b6114de8061039b6000396000f3fe608060405234801561001057600080fd5b50600436106100ea5760003560e01c8063936ce5d21161008c578063c45e3c4811610066578063c45e3c481461024d578063e106d8e31461027d578063f2fde38b14610299578063f7f45433146102b5576100ea565b8063936ce5d2146101e25780639f7dff7414610200578063b32265dc14610231576100ea565b8063715018a6116100c8578063715018a61461018057806389c69d5a1461018a5780638d0c1c81146101a85780638da5cb5b146101c4576100ea565b80630cb4f66d146100ef5780635f41e0d31461012057806360baf40614610150575b600080fd5b61010960048036038101906101049190610e02565b6102e6565b604051610117929190610e7f565b60405180910390f35b61013a60048036038101906101359190610e02565b61032a565b6040516101479190610ec3565b60405180910390f35b61016a60048036038101906101659190610f0a565b6103ea565b6040516101779190611033565b60405180910390f35b610188610574565b005b610192610588565b60405161019f9190611055565b60405180910390f35b6101c260048036038101906101bd9190611070565b61058e565b005b6101cc610832565b6040516101d991906110b0565b60405180910390f35b6101ea61085b565b6040516101f7919061112a565b60405180910390f35b61021a60048036038101906102159190610e02565b610881565b604051610228929190610e7f565b60405180910390f35b61024b60048036038101906102469190610f0a565b610962565b005b61026760048036038101906102629190610f0a565b610a60565b6040516102749190610ec3565b60405180910390f35b61029760048036038101906102929190610f0a565b610a80565b005b6102b360048036038101906102ae9190610f0a565b610b8d565b005b6102cf60048036038101906102ca9190611145565b610c13565b6040516102dd929190610e7f565b60405180910390f35b60046020528060005260406000206000915090508060000160009054906101000a900473ffffffffffffffffffffffffffffffffffffffff16908060010154905082565b600080600460008481526020019081526020016000206040518060400160405290816000820160009054906101000a900473ffffffffffffffffffffffffffffffffffffffff1673ffffffffffffffffffffffffffffffffffffffff1673ffffffffffffffffffffffffffffffffffffffff1681526020016001820154815250509050600073ffffffffffffffffffffffffffffffffffffffff16816000015173ffffffffffffffffffffffffffffffffffffffff161415915050919050565b6060600360008373ffffffffffffffffffffffffffffffffffffffff1673ffffffffffffffffffffffffffffffffffffffff16815260200190815260200160002060009054906101000a900460ff16610478576040517f08c379a000000000000000000000000000000000000000000000000000000000815260040161046f906111e2565b60405180910390fd5b600560008373ffffffffffffffffffffffffffffffffffffffff1673ffffffffffffffffffffffffffffffffffffffff168152602001908152602001600020805480602002602001604051908101604052809291908181526020016000905b8282101561056957838290600052602060002090600202016040518060400160405290816000820160009054906101000a900473ffffffffffffffffffffffffffffffffffffffff1673ffffffffffffffffffffffffffffffffffffffff1673ffffffffffffffffffffffffffffffffffffffff168152602001600182015481525050815260200190600101906104d7565b505050509050919050565b61057c610c74565b6105866000610cfb565b565b60025481565b6000600160009054906101000a900473ffffffffffffffffffffffffffffffffffffffff1673ffffffffffffffffffffffffffffffffffffffff1663f53d79a7846040518263ffffffff1660e01b81526004016105eb9190611055565b602060405180830381865afa158015610608573d6000803e3d6000fd5b505050506040513d601f19601f8201168201806040525081019061062c919061122e565b90508061066e576040517f08c379a0000000000000000000000000000000000000000000000000000000008152600401610665906112a7565b60405180910390fd5b600060405180604001604052808473ffffffffffffffffffffffffffffffffffffffff168152602001858152509050600260008154809291906106b0906112f6565b91905055508060046000600254815260200190815260200160002060008201518160000160006101000a81548173ffffffffffffffffffffffffffffffffffffffff021916908373ffffffffffffffffffffffffffffffffffffffff16021790555060208201518160010155905050600560008473ffffffffffffffffffffffffffffffffffffffff1673ffffffffffffffffffffffffffffffffffffffff16815260200190815260200160002081908060018154018082558091505060019003906000526020600020906002020160009091909190915060008201518160000160006101000a81548173ffffffffffffffffffffffffffffffffffffffff021916908373ffffffffffffffffffffffffffffffffffffffff1602179055506020820151816001015550508273ffffffffffffffffffffffffffffffffffffffff166002547fcaf25c301f678582a82d4a5b04bb02cbaebae813af45b15b45edc49c0560cd4b866040516108249190611055565b60405180910390a350505050565b60008060009054906101000a900473ffffffffffffffffffffffffffffffffffffffff16905090565b600160009054906101000a900473ffffffffffffffffffffffffffffffffffffffff1681565b60008061088d8361032a565b6108cc576040517f08c379a00000000000000000000000000000000000000000000000000000000081526004016108c39061138a565b60405180910390fd5b6000600460008581526020019081526020016000206040518060400160405290816000820160009054906101000a900473ffffffffffffffffffffffffffffffffffffffff1673ffffffffffffffffffffffffffffffffffffffff1673ffffffffffffffffffffffffffffffffffffffff1681526020016001820154815250509050806000015181602001519250925050915091565b61096a610c74565b600073ffffffffffffffffffffffffffffffffffffffff168173ffffffffffffffffffffffffffffffffffffffff16036109d9576040517f08c379a00000000000000000000000000000000000000000000000000000000081526004016109d09061141c565b60405180910390fd5b80600160006101000a81548173ffffffffffffffffffffffffffffffffffffffff021916908373ffffffffffffffffffffffffffffffffffffffff1602179055508073ffffffffffffffffffffffffffffffffffffffff167f6491c96e1537733a87c87454e5b4c875a5d385cedde992c8df5817ab5a1995bc60405160405180910390a250565b60036020528060005260406000206000915054906101000a900460ff1681565b600073ffffffffffffffffffffffffffffffffffffffff168173ffffffffffffffffffffffffffffffffffffffff1603610aef576040517f08c379a0000000000000000000000000000000000000000000000000000000008152600401610ae690611488565b60405180910390fd5b6001600360008373ffffffffffffffffffffffffffffffffffffffff1673ffffffffffffffffffffffffffffffffffffffff16815260200190815260200160002060006101000a81548160ff0219169083151502179055508073ffffffffffffffffffffffffffffffffffffffff167f1a677ce8ba1ef799a07567abf2eb173be8169a07d4787c882229c122113563f060405160405180910390a250565b610b95610c74565b600073ffffffffffffffffffffffffffffffffffffffff168173ffffffffffffffffffffffffffffffffffffffff1603610c075760006040517f1e4fbdf7000000000000000000000000000000000000000000000000000000008152600401610bfe91906110b0565b60405180910390fd5b610c1081610cfb565b50565b60056020528160005260406000208181548110610c2f57600080fd5b9060005260206000209060020201600091509150508060000160009054906101000a900473ffffffffffffffffffffffffffffffffffffffff16908060010154905082565b610c7c610dbf565b73ffffffffffffffffffffffffffffffffffffffff16610c9a610832565b73ffffffffffffffffffffffffffffffffffffffff1614610cf957610cbd610dbf565b6040517f118cdaa7000000000000000000000000000000000000000000000000000000008152600401610cf091906110b0565b60405180910390fd5b565b60008060009054906101000a900473ffffffffffffffffffffffffffffffffffffffff169050816000806101000a81548173ffffffffffffffffffffffffffffffffffffffff021916908373ffffffffffffffffffffffffffffffffffffffff1602179055508173ffffffffffffffffffffffffffffffffffffffff168173ffffffffffffffffffffffffffffffffffffffff167f8be0079c531659141344cd1fd0a4f28419497f9722a3daafe3b4186f6b6457e060405160405180910390a35050565b600033905090565b600080fd5b6000819050919050565b610ddf81610dcc565b8114610dea57600080fd5b50565b600081359050610dfc81610dd6565b92915050565b600060208284031215610e1857610e17610dc7565b5b6000610e2684828501610ded565b91505092915050565b600073ffffffffffffffffffffffffffffffffffffffff82169050919050565b6000610e5a82610e2f565b9050919050565b610e6a81610e4f565b82525050565b610e7981610dcc565b82525050565b6000604082019050610e946000830185610e61565b610ea16020830184610e70565b9392505050565b60008115159050919050565b610ebd81610ea8565b82525050565b6000602082019050610ed86000830184610eb4565b92915050565b610ee781610e4f565b8114610ef257600080fd5b50565b600081359050610f0481610ede565b92915050565b600060208284031215610f2057610f1f610dc7565b5b6000610f2e84828501610ef5565b91505092915050565b600081519050919050565b600082825260208201905092915050565b6000819050602082019050919050565b610f6c81610e4f565b82525050565b610f7b81610dcc565b82525050565b604082016000820151610f976000850182610f63565b506020820151610faa6020850182610f72565b50505050565b6000610fbc8383610f81565b60408301905092915050565b6000602082019050919050565b6000610fe082610f37565b610fea8185610f42565b9350610ff583610f53565b8060005b8381101561102657815161100d8882610fb0565b975061101883610fc8565b925050600181019050610ff9565b5085935050505092915050565b6000602082019050818103600083015261104d8184610fd5565b905092915050565b600060208201905061106a6000830184610e70565b92915050565b6000806040838503121561108757611086610dc7565b5b600061109585828601610ded565b92505060206110a685828601610ef5565b9150509250929050565b60006020820190506110c56000830184610e61565b92915050565b6000819050919050565b60006110f06110eb6110e684610e2f565b6110cb565b610e2f565b9050919050565b6000611102826110d5565b9050919050565b6000611114826110f7565b9050919050565b61112481611109565b82525050565b600060208201905061113f600083018461111b565b92915050565b6000806040838503121561115c5761115b610dc7565b5b600061116a85828601610ef5565b925050602061117b85828601610ded565b9150509250929050565b600082825260208201905092915050565b7f496e76616c6964204b6f6c000000000000000000000000000000000000000000600082015250565b60006111cc600b83611185565b91506111d782611196565b602082019050919050565b600060208201905081810360008301526111fb816111bf565b9050919050565b61120b81610ea8565b811461121657600080fd5b50565b60008151905061122881611202565b92915050565b60006020828403121561124457611243610dc7565b5b600061125284828501611219565b91505092915050565b7f496e76616c69642063616d706169676e00000000000000000000000000000000600082015250565b6000611291601083611185565b915061129c8261125b565b602082019050919050565b600060208201905081810360008301526112c081611284565b9050919050565b7f4e487b7100000000000000000000000000000000000000000000000000000000600052601160045260246000fd5b600061130182610dcc565b91507fffffffffffffffffffffffffffffffffffffffffffffffffffffffffffffffff8203611333576113326112c7565b5b600182019050919050565b7f496e76616c6964204b4f4c43616d706169676e00000000000000000000000000600082015250565b6000611374601383611185565b915061137f8261133e565b602082019050919050565b600060208201905081810360008301526113a381611367565b9050919050565b7f496e76616c69642063616d706169676e20636f6e74726163742061646472657360008201527f7300000000000000000000000000000000000000000000000000000000000000602082015250565b6000611406602183611185565b9150611411826113aa565b604082019050919050565b60006020820190508181036000830152611435816113f9565b9050919050565b7f496e76616c6964204b4f4c206164647265737300000000000000000000000000600082015250565b6000611472601383611185565b915061147d8261143c565b602082019050919050565b600060208201905081810360008301526114a181611465565b905091905056fea264697066735822122039d5baeddfd3b2733339189f1e9eada80b1fef4266b9612d53192df17afef95a64736f6c63430008190033",
  "linkReferences": {},
  "deployedLinkReferences": {}
}