{
  "_format": "hh-sol-artifact-1",
  "contractName": "Sherry",
  "sourceName": "src/Sherry.sol",
  "abi": [
    {
      "inputs": [
        {
          "internalType": "address",
          "name": "_brandContract",
          "type": "address"
        },
        {
          "internalType": "address",
          "name": "_campaignContract",
          "type": "address"
        },
        {
          "internalType": "address",
          "name": "_kolContract",
          "type": "address"
        }
      ],
      "stateMutability": "nonpayable",
      "type": "constructor"
    },
    {
      "inputs": [
        {
          "internalType": "address",
          "name": "owner",
          "type": "address"
        }
      ],
      "name": "OwnableInvalidOwner",
      "type": "error"
    },
    {
      "inputs": [
        {
          "internalType": "address",
          "name": "account",
          "type": "address"
        }
      ],
      "name": "OwnableUnauthorizedAccount",
      "type": "error"
    },
    {
      "anonymous": false,
      "inputs": [
        {
          "indexed": true,
          "internalType": "address",
          "name": "previousOwner",
          "type": "address"
        },
        {
          "indexed": true,
          "internalType": "address",
          "name": "newOwner",
          "type": "address"
        }
      ],
      "name": "OwnershipTransferred",
      "type": "event"
    },
    {
      "anonymous": false,
      "inputs": [
        {
          "indexed": true,
          "internalType": "uint256",
          "name": "idPost",
          "type": "uint256"
        },
        {
          "indexed": true,
          "internalType": "address",
          "name": "voter",
          "type": "address"
        }
      ],
      "name": "Voted",
      "type": "event"
    },
    {
      "anonymous": false,
      "inputs": [
        {
          "indexed": true,
          "internalType": "uint256",
          "name": "idPost",
          "type": "uint256"
        },
        {
          "indexed": true,
          "internalType": "address",
          "name": "kol",
          "type": "address"
        },
        {
          "indexed": true,
          "internalType": "uint256",
          "name": "idCampaign",
          "type": "uint256"
        },
        {
          "indexed": false,
          "internalType": "string",
          "name": "url",
          "type": "string"
        }
      ],
      "name": "postCreated",
      "type": "event"
    },
    {
      "inputs": [
        {
          "internalType": "uint256",
          "name": "_idKolCampaign",
          "type": "uint256"
        },
        {
          "internalType": "string",
          "name": "_url",
          "type": "string"
        }
      ],
      "name": "createPost",
      "outputs": [],
      "stateMutability": "nonpayable",
      "type": "function"
    },
    {
      "inputs": [],
      "name": "i_brandContract",
      "outputs": [
        {
          "internalType": "contract IBrand",
          "name": "",
          "type": "address"
        }
      ],
      "stateMutability": "view",
      "type": "function"
    },
    {
      "inputs": [],
      "name": "i_campaignContract",
      "outputs": [
        {
          "internalType": "contract ICampaign",
          "name": "",
          "type": "address"
        }
      ],
      "stateMutability": "view",
      "type": "function"
    },
    {
      "inputs": [],
      "name": "i_kolContract",
      "outputs": [
        {
          "internalType": "contract IKOL",
          "name": "",
          "type": "address"
        }
      ],
      "stateMutability": "view",
      "type": "function"
    },
    {
      "inputs": [],
      "name": "idPost",
      "outputs": [
        {
          "internalType": "uint256",
          "name": "",
          "type": "uint256"
        }
      ],
      "stateMutability": "view",
      "type": "function"
    },
    {
      "inputs": [],
      "name": "owner",
      "outputs": [
        {
          "internalType": "address",
          "name": "",
          "type": "address"
        }
      ],
      "stateMutability": "view",
      "type": "function"
    },
    {
      "inputs": [],
      "name": "renounceOwnership",
      "outputs": [],
      "stateMutability": "nonpayable",
      "type": "function"
    },
    {
      "inputs": [
        {
          "internalType": "uint256",
          "name": "",
          "type": "uint256"
        }
      ],
      "name": "s_posts",
      "outputs": [
        {
          "internalType": "uint256",
          "name": "idKolCampaign",
          "type": "uint256"
        },
        {
          "internalType": "address",
          "name": "kol",
          "type": "address"
        },
        {
          "internalType": "uint256",
          "name": "idCampaign",
          "type": "uint256"
        },
        {
          "internalType": "string",
          "name": "url",
          "type": "string"
        }
      ],
      "stateMutability": "view",
      "type": "function"
    },
    {
      "inputs": [
        {
          "internalType": "uint256",
          "name": "",
          "type": "uint256"
        }
      ],
      "name": "s_votes",
      "outputs": [
        {
          "internalType": "uint256",
          "name": "",
          "type": "uint256"
        }
      ],
      "stateMutability": "view",
      "type": "function"
    },
    {
      "inputs": [
        {
          "internalType": "uint256",
          "name": "",
          "type": "uint256"
        },
        {
          "internalType": "address",
          "name": "",
          "type": "address"
        }
      ],
      "name": "s_votesByCampaign",
      "outputs": [
        {
          "internalType": "bool",
          "name": "",
          "type": "bool"
        }
      ],
      "stateMutability": "view",
      "type": "function"
    },
    {
      "inputs": [
        {
          "internalType": "uint256",
          "name": "",
          "type": "uint256"
        },
        {
          "internalType": "address",
          "name": "",
          "type": "address"
        }
      ],
      "name": "s_votesFollowers",
      "outputs": [
        {
          "internalType": "bool",
          "name": "",
          "type": "bool"
        }
      ],
      "stateMutability": "view",
      "type": "function"
    },
    {
      "inputs": [
        {
          "internalType": "address",
          "name": "newOwner",
          "type": "address"
        }
      ],
      "name": "transferOwnership",
      "outputs": [],
      "stateMutability": "nonpayable",
      "type": "function"
    },
    {
      "inputs": [
        {
          "internalType": "uint256",
          "name": "_idPost",
          "type": "uint256"
        }
      ],
      "name": "vote",
      "outputs": [
        {
          "internalType": "bool",
          "name": "",
          "type": "bool"
        }
      ],
      "stateMutability": "nonpayable",
      "type": "function"
    }
  ],
  "bytecode": "0x608060405234801561001057600080fd5b50604051611c6d380380611c6d833981810160405281019061003291906103f4565b33600073ffffffffffffffffffffffffffffffffffffffff168173ffffffffffffffffffffffffffffffffffffffff16036100a55760006040517f1e4fbdf700000000000000000000000000000000000000000000000000000000815260040161009c9190610456565b60405180910390fd5b6100b4816102cd60201b60201c565b50600073ffffffffffffffffffffffffffffffffffffffff168373ffffffffffffffffffffffffffffffffffffffff1603610124576040517f08c379a000000000000000000000000000000000000000000000000000000000815260040161011b906104ce565b60405180910390fd5b600073ffffffffffffffffffffffffffffffffffffffff168273ffffffffffffffffffffffffffffffffffffffff1603610193576040517f08c379a000000000000000000000000000000000000000000000000000000000815260040161018a90610560565b60405180910390fd5b600073ffffffffffffffffffffffffffffffffffffffff168173ffffffffffffffffffffffffffffffffffffffff1603610202576040517f08c379a00000000000000000000000000000000000000000000000000000000081526004016101f9906105cc565b60405180910390fd5b82600160006101000a81548173ffffffffffffffffffffffffffffffffffffffff021916908373ffffffffffffffffffffffffffffffffffffffff16021790555081600260006101000a81548173ffffffffffffffffffffffffffffffffffffffff021916908373ffffffffffffffffffffffffffffffffffffffff16021790555080600360006101000a81548173ffffffffffffffffffffffffffffffffffffffff021916908373ffffffffffffffffffffffffffffffffffffffff1602179055505050506105ec565b60008060009054906101000a900473ffffffffffffffffffffffffffffffffffffffff169050816000806101000a81548173ffffffffffffffffffffffffffffffffffffffff021916908373ffffffffffffffffffffffffffffffffffffffff1602179055508173ffffffffffffffffffffffffffffffffffffffff168173ffffffffffffffffffffffffffffffffffffffff167f8be0079c531659141344cd1fd0a4f28419497f9722a3daafe3b4186f6b6457e060405160405180910390a35050565b600080fd5b600073ffffffffffffffffffffffffffffffffffffffff82169050919050565b60006103c182610396565b9050919050565b6103d1816103b6565b81146103dc57600080fd5b50565b6000815190506103ee816103c8565b92915050565b60008060006060848603121561040d5761040c610391565b5b600061041b868287016103df565b935050602061042c868287016103df565b925050604061043d868287016103df565b9150509250925092565b610450816103b6565b82525050565b600060208201905061046b6000830184610447565b92915050565b600082825260208201905092915050565b7f496e76616c6964206272616e6420636f6e747261637420616464726573730000600082015250565b60006104b8601e83610471565b91506104c382610482565b602082019050919050565b600060208201905081810360008301526104e7816104ab565b9050919050565b7f496e76616c69642063616d706169676e20636f6e74726163742061646472657360008201527f7300000000000000000000000000000000000000000000000000000000000000602082015250565b600061054a602183610471565b9150610555826104ee565b604082019050919050565b600060208201905081810360008301526105798161053d565b9050919050565b7f496e76616c6964204b4f4c20636f6e7472616374206164647265737300000000600082015250565b60006105b6601c83610471565b91506105c182610580565b602082019050919050565b600060208201905081810360008301526105e5816105a9565b9050919050565b611672806105fb6000396000f3fe608060405234801561001057600080fd5b50600436106100cf5760003560e01c8063715018a61161008c578063a9ca3a4c11610066578063a9ca3a4c1461022b578063d70c613014610247578063f2f3739914610265578063f2fde38b14610283576100cf565b8063715018a6146101e55780638da5cb5b146101ef5780639197cc371461020d576100cf565b80630121b93f146100d457806326e75bad14610104578063354219f214610122578063493cd9b5146101525780634bd6caf1146101825780634e04a4d2146101b2575b600080fd5b6100ee60048036038101906100e99190610bae565b61029f565b6040516100fb9190610bf6565b60405180910390f35b61010c6104ff565b6040516101199190610c90565b60405180910390f35b61013c60048036038101906101379190610ce9565b610525565b6040516101499190610bf6565b60405180910390f35b61016c60048036038101906101679190610ce9565b610554565b6040516101799190610bf6565b60405180910390f35b61019c60048036038101906101979190610bae565b610583565b6040516101a99190610d38565b60405180910390f35b6101cc60048036038101906101c79190610bae565b61059b565b6040516101dc9493929190610df2565b60405180910390f35b6101ed610673565b005b6101f7610687565b6040516102049190610e3e565b60405180910390f35b6102156106b0565b6040516102229190610e7a565b60405180910390f35b61024560048036038101906102409190610fca565b6106d6565b005b61024f61095f565b60405161025c9190611047565b60405180910390f35b61026d610985565b60405161027a9190610d38565b60405180910390f35b61029d60048036038101906102989190611062565b61098b565b005b6000806005600084815260200190815260200160002060020154036102f9576040517f08c379a00000000000000000000000000000000000000000000000000000000081526004016102f0906110db565b60405180910390fd5b6000600560008481526020019081526020016000206002015490506008600082815260200190815260200160002060003373ffffffffffffffffffffffffffffffffffffffff1673ffffffffffffffffffffffffffffffffffffffff16815260200190815260200160002060009054906101000a900460ff16156103b2576040517f08c379a00000000000000000000000000000000000000000000000000000000081526004016103a990611147565b60405180910390fd5b60016008600083815260200190815260200160002060003373ffffffffffffffffffffffffffffffffffffffff1673ffffffffffffffffffffffffffffffffffffffff16815260200190815260200160002060006101000a81548160ff021916908315150217905550600160066000600454815260200190815260200160002060003373ffffffffffffffffffffffffffffffffffffffff1673ffffffffffffffffffffffffffffffffffffffff16815260200190815260200160002060006101000a81548160ff0219169083151502179055506007600084815260200190815260200160002060008154809291906104aa90611196565b91905055503373ffffffffffffffffffffffffffffffffffffffff166004547f030b0f8dcd86a031eddb071f91882edeac8173663ba775713b677b42b51be44b60405160405180910390a36001915050919050565b600360009054906101000a900473ffffffffffffffffffffffffffffffffffffffff1681565b60066020528160005260406000206020528060005260406000206000915091509054906101000a900460ff1681565b60086020528160005260406000206020528060005260406000206000915091509054906101000a900460ff1681565b60076020528060005260406000206000915090505481565b60056020528060005260406000206000915090508060000154908060010160009054906101000a900473ffffffffffffffffffffffffffffffffffffffff16908060020154908060030180546105f09061120d565b80601f016020809104026020016040519081016040528092919081815260200182805461061c9061120d565b80156106695780601f1061063e57610100808354040283529160200191610669565b820191906000526020600020905b81548152906001019060200180831161064c57829003601f168201915b5050505050905084565b61067b610a11565b6106856000610a98565b565b60008060009054906101000a900473ffffffffffffffffffffffffffffffffffffffff16905090565b600160009054906101000a900473ffffffffffffffffffffffffffffffffffffffff1681565b600080600360009054906101000a900473ffffffffffffffffffffffffffffffffffffffff1673ffffffffffffffffffffffffffffffffffffffff16639f7dff74856040518263ffffffff1660e01b81526004016107349190610d38565b6040805180830381865afa158015610750573d6000803e3d6000fd5b505050506040513d601f19601f820116820180604052508101906107749190611268565b915091503373ffffffffffffffffffffffffffffffffffffffff168273ffffffffffffffffffffffffffffffffffffffff16146107e6576040517f08c379a00000000000000000000000000000000000000000000000000000000081526004016107dd9061131a565b60405180910390fd5b60008103610829576040517f08c379a000000000000000000000000000000000000000000000000000000000815260040161082090611386565b60405180910390fd5b6004600081548092919061083c90611196565b9190505550600060405180608001604052808681526020018473ffffffffffffffffffffffffffffffffffffffff168152602001838152602001858152509050806005600060045481526020019081526020016000206000820151816000015560208201518160010160006101000a81548173ffffffffffffffffffffffffffffffffffffffff021916908373ffffffffffffffffffffffffffffffffffffffff1602179055506040820151816002015560608201518160030190816109029190611548565b50905050818373ffffffffffffffffffffffffffffffffffffffff166004547f55fc5884b992d0fef136f61c2349fa5340e6ecb9ab47cc65d5551425b3ccdd2287604051610950919061161a565b60405180910390a45050505050565b600260009054906101000a900473ffffffffffffffffffffffffffffffffffffffff1681565b60045481565b610993610a11565b600073ffffffffffffffffffffffffffffffffffffffff168173ffffffffffffffffffffffffffffffffffffffff1603610a055760006040517f1e4fbdf70000000000000000000000000000000000000000000000000000000081526004016109fc9190610e3e565b60405180910390fd5b610a0e81610a98565b50565b610a19610b5c565b73ffffffffffffffffffffffffffffffffffffffff16610a37610687565b73ffffffffffffffffffffffffffffffffffffffff1614610a9657610a5a610b5c565b6040517f118cdaa7000000000000000000000000000000000000000000000000000000008152600401610a8d9190610e3e565b60405180910390fd5b565b60008060009054906101000a900473ffffffffffffffffffffffffffffffffffffffff169050816000806101000a81548173ffffffffffffffffffffffffffffffffffffffff021916908373ffffffffffffffffffffffffffffffffffffffff1602179055508173ffffffffffffffffffffffffffffffffffffffff168173ffffffffffffffffffffffffffffffffffffffff167f8be0079c531659141344cd1fd0a4f28419497f9722a3daafe3b4186f6b6457e060405160405180910390a35050565b600033905090565b6000604051905090565b600080fd5b600080fd5b6000819050919050565b610b8b81610b78565b8114610b9657600080fd5b50565b600081359050610ba881610b82565b92915050565b600060208284031215610bc457610bc3610b6e565b5b6000610bd284828501610b99565b91505092915050565b60008115159050919050565b610bf081610bdb565b82525050565b6000602082019050610c0b6000830184610be7565b92915050565b600073ffffffffffffffffffffffffffffffffffffffff82169050919050565b6000819050919050565b6000610c56610c51610c4c84610c11565b610c31565b610c11565b9050919050565b6000610c6882610c3b565b9050919050565b6000610c7a82610c5d565b9050919050565b610c8a81610c6f565b82525050565b6000602082019050610ca56000830184610c81565b92915050565b6000610cb682610c11565b9050919050565b610cc681610cab565b8114610cd157600080fd5b50565b600081359050610ce381610cbd565b92915050565b60008060408385031215610d0057610cff610b6e565b5b6000610d0e85828601610b99565b9250506020610d1f85828601610cd4565b9150509250929050565b610d3281610b78565b82525050565b6000602082019050610d4d6000830184610d29565b92915050565b610d5c81610cab565b82525050565b600081519050919050565b600082825260208201905092915050565b60005b83811015610d9c578082015181840152602081019050610d81565b60008484015250505050565b6000601f19601f8301169050919050565b6000610dc482610d62565b610dce8185610d6d565b9350610dde818560208601610d7e565b610de781610da8565b840191505092915050565b6000608082019050610e076000830187610d29565b610e146020830186610d53565b610e216040830185610d29565b8181036060830152610e338184610db9565b905095945050505050565b6000602082019050610e536000830184610d53565b92915050565b6000610e6482610c5d565b9050919050565b610e7481610e59565b82525050565b6000602082019050610e8f6000830184610e6b565b92915050565b600080fd5b600080fd5b7f4e487b7100000000000000000000000000000000000000000000000000000000600052604160045260246000fd5b610ed782610da8565b810181811067ffffffffffffffff82111715610ef657610ef5610e9f565b5b80604052505050565b6000610f09610b64565b9050610f158282610ece565b919050565b600067ffffffffffffffff821115610f3557610f34610e9f565b5b610f3e82610da8565b9050602081019050919050565b82818337600083830152505050565b6000610f6d610f6884610f1a565b610eff565b905082815260208101848484011115610f8957610f88610e9a565b5b610f94848285610f4b565b509392505050565b600082601f830112610fb157610fb0610e95565b5b8135610fc1848260208601610f5a565b91505092915050565b60008060408385031215610fe157610fe0610b6e565b5b6000610fef85828601610b99565b925050602083013567ffffffffffffffff8111156110105761100f610b73565b5b61101c85828601610f9c565b9150509250929050565b600061103182610c5d565b9050919050565b61104181611026565b82525050565b600060208201905061105c6000830184611038565b92915050565b60006020828403121561107857611077610b6e565b5b600061108684828501610cd4565b91505092915050565b7f706f7374206e6f7420666f756e64000000000000000000000000000000000000600082015250565b60006110c5600e83610d6d565b91506110d08261108f565b602082019050919050565b600060208201905081810360008301526110f4816110b8565b9050919050565b7f416c726561647920766f74656420666f7220746869732063616d706169676e00600082015250565b6000611131601f83610d6d565b915061113c826110fb565b602082019050919050565b6000602082019050818103600083015261116081611124565b9050919050565b7f4e487b7100000000000000000000000000000000000000000000000000000000600052601160045260246000fd5b60006111a182610b78565b91507fffffffffffffffffffffffffffffffffffffffffffffffffffffffffffffffff82036111d3576111d2611167565b5b600182019050919050565b7f4e487b7100000000000000000000000000000000000000000000000000000000600052602260045260246000fd5b6000600282049050600182168061122557607f821691505b602082108103611238576112376111de565b5b50919050565b60008151905061124d81610cbd565b92915050565b60008151905061126281610b82565b92915050565b6000806040838503121561127f5761127e610b6e565b5b600061128d8582860161123e565b925050602061129e85828601611253565b9150509250929050565b7f596f752063616e206f6e6c792063726561746520706f73747320666f7220796f60008201527f757273656c660000000000000000000000000000000000000000000000000000602082015250565b6000611304602683610d6d565b915061130f826112a8565b604082019050919050565b60006020820190508181036000830152611333816112f7565b9050919050565b7f43616d706169676e206e6f7420666f756e640000000000000000000000000000600082015250565b6000611370601283610d6d565b915061137b8261133a565b602082019050919050565b6000602082019050818103600083015261139f81611363565b9050919050565b60008190508160005260206000209050919050565b60006020601f8301049050919050565b600082821b905092915050565b6000600883026114087fffffffffffffffffffffffffffffffffffffffffffffffffffffffffffffffff826113cb565b61141286836113cb565b95508019841693508086168417925050509392505050565b600061144561144061143b84610b78565b610c31565b610b78565b9050919050565b6000819050919050565b61145f8361142a565b61147361146b8261144c565b8484546113d8565b825550505050565b600090565b61148861147b565b611493818484611456565b505050565b5b818110156114b7576114ac600082611480565b600181019050611499565b5050565b601f8211156114fc576114cd816113a6565b6114d6846113bb565b810160208510156114e5578190505b6114f96114f1856113bb565b830182611498565b50505b505050565b600082821c905092915050565b600061151f60001984600802611501565b1980831691505092915050565b6000611538838361150e565b9150826002028217905092915050565b61155182610d62565b67ffffffffffffffff81111561156a57611569610e9f565b5b611574825461120d565b61157f8282856114bb565b600060209050601f8311600181146115b257600084156115a0578287015190505b6115aa858261152c565b865550611612565b601f1984166115c0866113a6565b60005b828110156115e8578489015182556001820191506020850194506020810190506115c3565b868310156116055784890151611601601f89168261150e565b8355505b6001600288020188555050505b505050505050565b600060208201905081810360008301526116348184610db9565b90509291505056fea2646970667358221220b729f6071e2485ff0794654d3c652e03832deca9302abf8b91ec8440ea14440164736f6c63430008190033",
  "linkReferences": {},
  "deployedLinkReferences": {}
}