{
  "_format": "hh-sol-artifact-1",
  "contractName": "KOL",
  "sourceName": "src/KOL.sol",
  "abi": [
    {
      "inputs": [
        {
          "internalType": "address",
          "name": "_campaignContract",
          "type": "address"
        }
      ],
      "stateMutability": "nonpayable",
      "type": "constructor"
    },
    {
      "inputs": [
        {
          "internalType": "address",
          "name": "owner",
          "type": "address"
        }
      ],
      "name": "OwnableInvalidOwner",
      "type": "error"
    },
    {
      "inputs": [
        {
          "internalType": "address",
          "name": "account",
          "type": "address"
        }
      ],
      "name": "OwnableUnauthorizedAccount",
      "type": "error"
    },
    {
      "anonymous": false,
      "inputs": [
        {
          "indexed": true,
          "internalType": "address",
          "name": "campaignContract",
          "type": "address"
        }
      ],
      "name": "CampaignContractUpdated",
      "type": "event"
    },
    {
      "anonymous": false,
      "inputs": [
        {
          "indexed": true,
          "internalType": "uint256",
          "name": "idKolCampaign",
          "type": "uint256"
        },
        {
          "indexed": true,
          "internalType": "address",
          "name": "kol",
          "type": "address"
        },
        {
          "indexed": false,
          "internalType": "uint256",
          "name": "idCampaign",
          "type": "uint256"
        }
      ],
      "name": "KolCampaignAdded",
      "type": "event"
    },
    {
      "anonymous": false,
      "inputs": [
        {
          "indexed": true,
          "internalType": "address",
          "name": "kol",
          "type": "address"
        }
      ],
      "name": "KolJoined",
      "type": "event"
    },
    {
      "anonymous": false,
      "inputs": [
        {
          "indexed": true,
          "internalType": "address",
          "name": "previousOwner",
          "type": "address"
        },
        {
          "indexed": true,
          "internalType": "address",
          "name": "newOwner",
          "type": "address"
        }
      ],
      "name": "OwnershipTransferred",
      "type": "event"
    },
    {
      "inputs": [
        {
          "internalType": "uint256",
          "name": "_idCampaign",
          "type": "uint256"
        }
      ],
      "name": "addKolToCampaign",
      "outputs": [],
      "stateMutability": "nonpayable",
      "type": "function"
    },
    {
      "inputs": [
        {
          "internalType": "uint256",
          "name": "_id",
          "type": "uint256"
        }
      ],
      "name": "getKOLCampaign",
      "outputs": [
        {
          "internalType": "address",
          "name": "",
          "type": "address"
        },
        {
          "internalType": "uint256",
          "name": "",
          "type": "uint256"
        }
      ],
      "stateMutability": "view",
      "type": "function"
    },
    {
      "inputs": [
        {
          "internalType": "address",
          "name": "_kol",
          "type": "address"
        }
      ],
      "name": "getKolCampaignsByAddress",
      "outputs": [
        {
          "components": [
            {
              "internalType": "address",
              "name": "kol",
              "type": "address"
            },
            {
              "internalType": "uint256",
              "name": "idCampaign",
              "type": "uint256"
            }
          ],
          "internalType": "struct KOL.KOLCampaign[]",
          "name": "",
          "type": "tuple[]"
        }
      ],
      "stateMutability": "view",
      "type": "function"
    },
    {
      "inputs": [],
      "name": "idKolCampaign",
      "outputs": [
        {
          "internalType": "uint256",
          "name": "",
          "type": "uint256"
        }
      ],
      "stateMutability": "view",
      "type": "function"
    },
    {
      "inputs": [
        {
          "internalType": "uint256",
          "name": "_id",
          "type": "uint256"
        }
      ],
      "name": "isValidKolCampaign",
      "outputs": [
        {
          "internalType": "bool",
          "name": "",
          "type": "bool"
        }
      ],
      "stateMutability": "view",
      "type": "function"
    },
    {
      "inputs": [
        {
          "internalType": "address",
          "name": "_address",
          "type": "address"
        }
      ],
      "name": "joinAsKol",
      "outputs": [],
      "stateMutability": "nonpayable",
      "type": "function"
    },
    {
      "inputs": [],
      "name": "owner",
      "outputs": [
        {
          "internalType": "address",
          "name": "",
          "type": "address"
        }
      ],
      "stateMutability": "view",
      "type": "function"
    },
    {
      "inputs": [],
      "name": "renounceOwnership",
      "outputs": [],
      "stateMutability": "nonpayable",
      "type": "function"
    },
    {
      "inputs": [],
      "name": "s_campaignContract",
      "outputs": [
        {
          "internalType": "contract Campaign",
          "name": "",
          "type": "address"
        }
      ],
      "stateMutability": "view",
      "type": "function"
    },
    {
      "inputs": [
        {
          "internalType": "address",
          "name": "",
          "type": "address"
        },
        {
          "internalType": "uint256",
          "name": "",
          "type": "uint256"
        }
      ],
      "name": "s_campaignsKol",
      "outputs": [
        {
          "internalType": "address",
          "name": "kol",
          "type": "address"
        },
        {
          "internalType": "uint256",
          "name": "idCampaign",
          "type": "uint256"
        }
      ],
      "stateMutability": "view",
      "type": "function"
    },
    {
      "inputs": [
        {
          "internalType": "uint256",
          "name": "",
          "type": "uint256"
        }
      ],
      "name": "s_kolCampaign",
      "outputs": [
        {
          "internalType": "address",
          "name": "kol",
          "type": "address"
        },
        {
          "internalType": "uint256",
          "name": "idCampaign",
          "type": "uint256"
        }
      ],
      "stateMutability": "view",
      "type": "function"
    },
    {
      "inputs": [
        {
          "internalType": "address",
          "name": "",
          "type": "address"
        }
      ],
      "name": "s_kols",
      "outputs": [
        {
          "internalType": "bool",
          "name": "",
          "type": "bool"
        }
      ],
      "stateMutability": "view",
      "type": "function"
    },
    {
      "inputs": [
        {
          "internalType": "address",
          "name": "newOwner",
          "type": "address"
        }
      ],
      "name": "transferOwnership",
      "outputs": [],
      "stateMutability": "nonpayable",
      "type": "function"
    },
    {
      "inputs": [
        {
          "internalType": "address",
          "name": "_campaignContract",
          "type": "address"
        }
      ],
      "name": "updateCampaignContract",
      "outputs": [],
      "stateMutability": "nonpayable",
      "type": "function"
    }
  ],
  "bytecode": "0x608060405234801561001057600080fd5b5060405161193038038061193083398181016040528101906100329190610292565b33600073ffffffffffffffffffffffffffffffffffffffff168173ffffffffffffffffffffffffffffffffffffffff16036100a55760006040517f1e4fbdf700000000000000000000000000000000000000000000000000000000815260040161009c91906102ce565b60405180910390fd5b6100b48161016b60201b60201c565b50600073ffffffffffffffffffffffffffffffffffffffff168173ffffffffffffffffffffffffffffffffffffffff1603610124576040517f08c379a000000000000000000000000000000000000000000000000000000000815260040161011b9061036c565b60405180910390fd5b80600160006101000a81548173ffffffffffffffffffffffffffffffffffffffff021916908373ffffffffffffffffffffffffffffffffffffffff1602179055505061038c565b60008060009054906101000a900473ffffffffffffffffffffffffffffffffffffffff169050816000806101000a81548173ffffffffffffffffffffffffffffffffffffffff021916908373ffffffffffffffffffffffffffffffffffffffff1602179055508173ffffffffffffffffffffffffffffffffffffffff168173ffffffffffffffffffffffffffffffffffffffff167f8be0079c531659141344cd1fd0a4f28419497f9722a3daafe3b4186f6b6457e060405160405180910390a35050565b600080fd5b600073ffffffffffffffffffffffffffffffffffffffff82169050919050565b600061025f82610234565b9050919050565b61026f81610254565b811461027a57600080fd5b50565b60008151905061028c81610266565b92915050565b6000602082840312156102a8576102a761022f565b5b60006102b68482850161027d565b91505092915050565b6102c881610254565b82525050565b60006020820190506102e360008301846102bf565b92915050565b600082825260208201905092915050565b7f496e76616c69642063616d706169676e20636f6e74726163742061646472657360008201527f7300000000000000000000000000000000000000000000000000000000000000602082015250565b60006103566021836102e9565b9150610361826102fa565b604082019050919050565b6000602082019050818103600083015261038581610349565b9050919050565b6115958061039b6000396000f3fe608060405234801561001057600080fd5b50600436106100ea5760003560e01c8063936ce5d21161008c578063c45e3c4811610066578063c45e3c481461024d578063e106d8e31461027d578063f2fde38b14610299578063f7f45433146102b5576100ea565b8063936ce5d2146101e25780639f7dff7414610200578063b32265dc14610231576100ea565b806360baf406116100c857806360baf4061461016c578063715018a61461019c57806389c69d5a146101a65780638da5cb5b146101c4576100ea565b80630cb4f66d146100ef578063276e6a2a146101205780635f41e0d31461013c575b600080fd5b61010960048036038101906101049190610e8d565b6102e6565b604051610117929190610f0a565b60405180910390f35b61013a60048036038101906101359190610e8d565b61032a565b005b61015660048036038101906101519190610e8d565b610659565b6040516101639190610f4e565b60405180910390f35b61018660048036038101906101819190610f95565b610719565b60405161019391906110be565b60405180910390f35b6101a46108a3565b005b6101ae6108b7565b6040516101bb91906110e0565b60405180910390f35b6101cc6108bd565b6040516101d991906110fb565b60405180910390f35b6101ea6108e6565b6040516101f79190611175565b60405180910390f35b61021a60048036038101906102159190610e8d565b61090c565b604051610228929190610f0a565b60405180910390f35b61024b60048036038101906102469190610f95565b6109ed565b005b61026760048036038101906102629190610f95565b610aeb565b6040516102749190610f4e565b60405180910390f35b61029760048036038101906102929190610f95565b610b0b565b005b6102b360048036038101906102ae9190610f95565b610c18565b005b6102cf60048036038101906102ca9190611190565b610c9e565b6040516102dd929190610f0a565b60405180910390f35b60046020528060005260406000206000915090508060000160009054906101000a900473ffffffffffffffffffffffffffffffffffffffff16908060010154905082565b600360003373ffffffffffffffffffffffffffffffffffffffff1673ffffffffffffffffffffffffffffffffffffffff16815260200190815260200160002060009054906101000a900460ff166103b6576040517f08c379a00000000000000000000000000000000000000000000000000000000081526004016103ad9061122d565b60405180910390fd5b6000600160009054906101000a900473ffffffffffffffffffffffffffffffffffffffff1673ffffffffffffffffffffffffffffffffffffffff1663f53d79a7836040518263ffffffff1660e01b815260040161041391906110e0565b602060405180830381865afa158015610430573d6000803e3d6000fd5b505050506040513d601f19601f820116820180604052508101906104549190611279565b905080610496576040517f08c379a000000000000000000000000000000000000000000000000000000000815260040161048d906112f2565b60405180910390fd5b600060405180604001604052803373ffffffffffffffffffffffffffffffffffffffff168152602001848152509050600260008154809291906104d890611341565b91905055508060046000600254815260200190815260200160002060008201518160000160006101000a81548173ffffffffffffffffffffffffffffffffffffffff021916908373ffffffffffffffffffffffffffffffffffffffff16021790555060208201518160010155905050600560003373ffffffffffffffffffffffffffffffffffffffff1673ffffffffffffffffffffffffffffffffffffffff16815260200190815260200160002081908060018154018082558091505060019003906000526020600020906002020160009091909190915060008201518160000160006101000a81548173ffffffffffffffffffffffffffffffffffffffff021916908373ffffffffffffffffffffffffffffffffffffffff1602179055506020820151816001015550503373ffffffffffffffffffffffffffffffffffffffff166002547fcaf25c301f678582a82d4a5b04bb02cbaebae813af45b15b45edc49c0560cd4b8560405161064c91906110e0565b60405180910390a3505050565b600080600460008481526020019081526020016000206040518060400160405290816000820160009054906101000a900473ffffffffffffffffffffffffffffffffffffffff1673ffffffffffffffffffffffffffffffffffffffff1673ffffffffffffffffffffffffffffffffffffffff1681526020016001820154815250509050600073ffffffffffffffffffffffffffffffffffffffff16816000015173ffffffffffffffffffffffffffffffffffffffff161415915050919050565b6060600360008373ffffffffffffffffffffffffffffffffffffffff1673ffffffffffffffffffffffffffffffffffffffff16815260200190815260200160002060009054906101000a900460ff166107a7576040517f08c379a000000000000000000000000000000000000000000000000000000000815260040161079e906113d5565b60405180910390fd5b600560008373ffffffffffffffffffffffffffffffffffffffff1673ffffffffffffffffffffffffffffffffffffffff168152602001908152602001600020805480602002602001604051908101604052809291908181526020016000905b8282101561089857838290600052602060002090600202016040518060400160405290816000820160009054906101000a900473ffffffffffffffffffffffffffffffffffffffff1673ffffffffffffffffffffffffffffffffffffffff1673ffffffffffffffffffffffffffffffffffffffff16815260200160018201548152505081526020019060010190610806565b505050509050919050565b6108ab610cff565b6108b56000610d86565b565b60025481565b60008060009054906101000a900473ffffffffffffffffffffffffffffffffffffffff16905090565b600160009054906101000a900473ffffffffffffffffffffffffffffffffffffffff1681565b60008061091883610659565b610957576040517f08c379a000000000000000000000000000000000000000000000000000000000815260040161094e90611441565b60405180910390fd5b6000600460008581526020019081526020016000206040518060400160405290816000820160009054906101000a900473ffffffffffffffffffffffffffffffffffffffff1673ffffffffffffffffffffffffffffffffffffffff1673ffffffffffffffffffffffffffffffffffffffff1681526020016001820154815250509050806000015181602001519250925050915091565b6109f5610cff565b600073ffffffffffffffffffffffffffffffffffffffff168173ffffffffffffffffffffffffffffffffffffffff1603610a64576040517f08c379a0000000000000000000000000000000000000000000000000000000008152600401610a5b906114d3565b60405180910390fd5b80600160006101000a81548173ffffffffffffffffffffffffffffffffffffffff021916908373ffffffffffffffffffffffffffffffffffffffff1602179055508073ffffffffffffffffffffffffffffffffffffffff167f6491c96e1537733a87c87454e5b4c875a5d385cedde992c8df5817ab5a1995bc60405160405180910390a250565b60036020528060005260406000206000915054906101000a900460ff1681565b600073ffffffffffffffffffffffffffffffffffffffff168173ffffffffffffffffffffffffffffffffffffffff1603610b7a576040517f08c379a0000000000000000000000000000000000000000000000000000000008152600401610b719061153f565b60405180910390fd5b6001600360008373ffffffffffffffffffffffffffffffffffffffff1673ffffffffffffffffffffffffffffffffffffffff16815260200190815260200160002060006101000a81548160ff0219169083151502179055508073ffffffffffffffffffffffffffffffffffffffff167f1a677ce8ba1ef799a07567abf2eb173be8169a07d4787c882229c122113563f060405160405180910390a250565b610c20610cff565b600073ffffffffffffffffffffffffffffffffffffffff168173ffffffffffffffffffffffffffffffffffffffff1603610c925760006040517f1e4fbdf7000000000000000000000000000000000000000000000000000000008152600401610c8991906110fb565b60405180910390fd5b610c9b81610d86565b50565b60056020528160005260406000208181548110610cba57600080fd5b9060005260206000209060020201600091509150508060000160009054906101000a900473ffffffffffffffffffffffffffffffffffffffff16908060010154905082565b610d07610e4a565b73ffffffffffffffffffffffffffffffffffffffff16610d256108bd565b73ffffffffffffffffffffffffffffffffffffffff1614610d8457610d48610e4a565b6040517f118cdaa7000000000000000000000000000000000000000000000000000000008152600401610d7b91906110fb565b60405180910390fd5b565b60008060009054906101000a900473ffffffffffffffffffffffffffffffffffffffff169050816000806101000a81548173ffffffffffffffffffffffffffffffffffffffff021916908373ffffffffffffffffffffffffffffffffffffffff1602179055508173ffffffffffffffffffffffffffffffffffffffff168173ffffffffffffffffffffffffffffffffffffffff167f8be0079c531659141344cd1fd0a4f28419497f9722a3daafe3b4186f6b6457e060405160405180910390a35050565b600033905090565b600080fd5b6000819050919050565b610e6a81610e57565b8114610e7557600080fd5b50565b600081359050610e8781610e61565b92915050565b600060208284031215610ea357610ea2610e52565b5b6000610eb184828501610e78565b91505092915050565b600073ffffffffffffffffffffffffffffffffffffffff82169050919050565b6000610ee582610eba565b9050919050565b610ef581610eda565b82525050565b610f0481610e57565b82525050565b6000604082019050610f1f6000830185610eec565b610f2c6020830184610efb565b9392505050565b60008115159050919050565b610f4881610f33565b82525050565b6000602082019050610f636000830184610f3f565b92915050565b610f7281610eda565b8114610f7d57600080fd5b50565b600081359050610f8f81610f69565b92915050565b600060208284031215610fab57610faa610e52565b5b6000610fb984828501610f80565b91505092915050565b600081519050919050565b600082825260208201905092915050565b6000819050602082019050919050565b610ff781610eda565b82525050565b61100681610e57565b82525050565b6040820160008201516110226000850182610fee565b5060208201516110356020850182610ffd565b50505050565b6000611047838361100c565b60408301905092915050565b6000602082019050919050565b600061106b82610fc2565b6110758185610fcd565b935061108083610fde565b8060005b838110156110b1578151611098888261103b565b97506110a383611053565b925050600181019050611084565b5085935050505092915050565b600060208201905081810360008301526110d88184611060565b905092915050565b60006020820190506110f56000830184610efb565b92915050565b60006020820190506111106000830184610eec565b92915050565b6000819050919050565b600061113b61113661113184610eba565b611116565b610eba565b9050919050565b600061114d82611120565b9050919050565b600061115f82611142565b9050919050565b61116f81611154565b82525050565b600060208201905061118a6000830184611166565b92915050565b600080604083850312156111a7576111a6610e52565b5b60006111b585828601610f80565b92505060206111c685828601610e78565b9150509250929050565b600082825260208201905092915050565b7f496e76616c6964204b4f4c000000000000000000000000000000000000000000600082015250565b6000611217600b836111d0565b9150611222826111e1565b602082019050919050565b600060208201905081810360008301526112468161120a565b9050919050565b61125681610f33565b811461126157600080fd5b50565b6000815190506112738161124d565b92915050565b60006020828403121561128f5761128e610e52565b5b600061129d84828501611264565b91505092915050565b7f496e76616c69642063616d706169676e00000000000000000000000000000000600082015250565b60006112dc6010836111d0565b91506112e7826112a6565b602082019050919050565b6000602082019050818103600083015261130b816112cf565b9050919050565b7f4e487b7100000000000000000000000000000000000000000000000000000000600052601160045260246000fd5b600061134c82610e57565b91507fffffffffffffffffffffffffffffffffffffffffffffffffffffffffffffffff820361137e5761137d611312565b5b600182019050919050565b7f496e76616c6964204b6f6c000000000000000000000000000000000000000000600082015250565b60006113bf600b836111d0565b91506113ca82611389565b602082019050919050565b600060208201905081810360008301526113ee816113b2565b9050919050565b7f496e76616c6964204b4f4c43616d706169676e00000000000000000000000000600082015250565b600061142b6013836111d0565b9150611436826113f5565b602082019050919050565b6000602082019050818103600083015261145a8161141e565b9050919050565b7f496e76616c69642063616d706169676e20636f6e74726163742061646472657360008201527f7300000000000000000000000000000000000000000000000000000000000000602082015250565b60006114bd6021836111d0565b91506114c882611461565b604082019050919050565b600060208201905081810360008301526114ec816114b0565b9050919050565b7f496e76616c6964204b4f4c206164647265737300000000000000000000000000600082015250565b60006115296013836111d0565b9150611534826114f3565b602082019050919050565b600060208201905081810360008301526115588161151c565b905091905056fea26469706673582212202eebf1cc3c725fc0ec9040bc40d3a00965c673f0f1005e92fed9021a807a906064736f6c63430008190033",
  "linkReferences": {},
  "deployedLinkReferences": {}
}