{
  "_format": "hh-sol-artifact-1",
  "contractName": "Sherry",
  "sourceName": "src/Sherry.sol",
  "abi": [
    {
      "inputs": [
        {
          "internalType": "address",
          "name": "_brandContract",
          "type": "address"
        },
        {
          "internalType": "address",
          "name": "_campaignContract",
          "type": "address"
        },
        {
          "internalType": "address",
          "name": "_kolContract",
          "type": "address"
        }
      ],
      "stateMutability": "nonpayable",
      "type": "constructor"
    },
    {
      "inputs": [
        {
          "internalType": "address",
          "name": "owner",
          "type": "address"
        }
      ],
      "name": "OwnableInvalidOwner",
      "type": "error"
    },
    {
      "inputs": [
        {
          "internalType": "address",
          "name": "account",
          "type": "address"
        }
      ],
      "name": "OwnableUnauthorizedAccount",
      "type": "error"
    },
    {
      "anonymous": false,
      "inputs": [
        {
          "indexed": true,
          "internalType": "address",
          "name": "previousOwner",
          "type": "address"
        },
        {
          "indexed": true,
          "internalType": "address",
          "name": "newOwner",
          "type": "address"
        }
      ],
      "name": "OwnershipTransferred",
      "type": "event"
    },
    {
      "anonymous": false,
      "inputs": [
        {
          "indexed": true,
          "internalType": "uint256",
          "name": "idPost",
          "type": "uint256"
        },
        {
          "indexed": true,
          "internalType": "address",
          "name": "voter",
          "type": "address"
        }
      ],
      "name": "Voted",
      "type": "event"
    },
    {
      "anonymous": false,
      "inputs": [
        {
          "indexed": true,
          "internalType": "uint256",
          "name": "idPost",
          "type": "uint256"
        },
        {
          "indexed": true,
          "internalType": "address",
          "name": "kol",
          "type": "address"
        },
        {
          "indexed": true,
          "internalType": "uint256",
          "name": "idCampaign",
          "type": "uint256"
        },
        {
          "indexed": false,
          "internalType": "string",
          "name": "url",
          "type": "string"
        }
      ],
      "name": "postCreated",
      "type": "event"
    },
    {
      "inputs": [
        {
          "internalType": "uint256",
          "name": "_idKolCampaign",
          "type": "uint256"
        },
        {
          "internalType": "string",
          "name": "_url",
          "type": "string"
        }
      ],
      "name": "createPost",
      "outputs": [],
      "stateMutability": "nonpayable",
      "type": "function"
    },
    {
      "inputs": [
        {
          "internalType": "uint256",
          "name": "_idPost",
          "type": "uint256"
        }
      ],
      "name": "getUri",
      "outputs": [
        {
          "internalType": "string",
          "name": "",
          "type": "string"
        }
      ],
      "stateMutability": "view",
      "type": "function"
    },
    {
      "inputs": [],
      "name": "i_brandContract",
      "outputs": [
        {
          "internalType": "contract IBrand",
          "name": "",
          "type": "address"
        }
      ],
      "stateMutability": "view",
      "type": "function"
    },
    {
      "inputs": [],
      "name": "i_campaignContract",
      "outputs": [
        {
          "internalType": "contract ICampaign",
          "name": "",
          "type": "address"
        }
      ],
      "stateMutability": "view",
      "type": "function"
    },
    {
      "inputs": [],
      "name": "i_kolContract",
      "outputs": [
        {
          "internalType": "contract IKOL",
          "name": "",
          "type": "address"
        }
      ],
      "stateMutability": "view",
      "type": "function"
    },
    {
      "inputs": [],
      "name": "idPost",
      "outputs": [
        {
          "internalType": "uint256",
          "name": "",
          "type": "uint256"
        }
      ],
      "stateMutability": "view",
      "type": "function"
    },
    {
      "inputs": [],
      "name": "owner",
      "outputs": [
        {
          "internalType": "address",
          "name": "",
          "type": "address"
        }
      ],
      "stateMutability": "view",
      "type": "function"
    },
    {
      "inputs": [
        {
          "internalType": "uint256",
          "name": "",
          "type": "uint256"
        }
      ],
      "name": "posts",
      "outputs": [
        {
          "internalType": "uint256",
          "name": "idKolCampaign",
          "type": "uint256"
        },
        {
          "internalType": "address",
          "name": "kol",
          "type": "address"
        },
        {
          "internalType": "uint256",
          "name": "idCampaign",
          "type": "uint256"
        },
        {
          "internalType": "string",
          "name": "url",
          "type": "string"
        }
      ],
      "stateMutability": "view",
      "type": "function"
    },
    {
      "inputs": [],
      "name": "renounceOwnership",
      "outputs": [],
      "stateMutability": "nonpayable",
      "type": "function"
    },
    {
      "inputs": [
        {
          "internalType": "uint256",
          "name": "",
          "type": "uint256"
        }
      ],
      "name": "s_posts",
      "outputs": [
        {
          "internalType": "uint256",
          "name": "idKolCampaign",
          "type": "uint256"
        },
        {
          "internalType": "address",
          "name": "kol",
          "type": "address"
        },
        {
          "internalType": "uint256",
          "name": "idCampaign",
          "type": "uint256"
        },
        {
          "internalType": "string",
          "name": "url",
          "type": "string"
        }
      ],
      "stateMutability": "view",
      "type": "function"
    },
    {
      "inputs": [
        {
          "internalType": "uint256",
          "name": "",
          "type": "uint256"
        }
      ],
      "name": "s_votes",
      "outputs": [
        {
          "internalType": "uint256",
          "name": "",
          "type": "uint256"
        }
      ],
      "stateMutability": "view",
      "type": "function"
    },
    {
      "inputs": [
        {
          "internalType": "uint256",
          "name": "",
          "type": "uint256"
        },
        {
          "internalType": "address",
          "name": "",
          "type": "address"
        }
      ],
      "name": "s_votesByCampaign",
      "outputs": [
        {
          "internalType": "bool",
          "name": "",
          "type": "bool"
        }
      ],
      "stateMutability": "view",
      "type": "function"
    },
    {
      "inputs": [
        {
          "internalType": "uint256",
          "name": "",
          "type": "uint256"
        },
        {
          "internalType": "address",
          "name": "",
          "type": "address"
        }
      ],
      "name": "s_votesFollowers",
      "outputs": [
        {
          "internalType": "bool",
          "name": "",
          "type": "bool"
        }
      ],
      "stateMutability": "view",
      "type": "function"
    },
    {
      "inputs": [
        {
          "internalType": "address",
          "name": "newOwner",
          "type": "address"
        }
      ],
      "name": "transferOwnership",
      "outputs": [],
      "stateMutability": "nonpayable",
      "type": "function"
    },
    {
      "inputs": [
        {
          "internalType": "uint256",
          "name": "_idPost",
          "type": "uint256"
        }
      ],
      "name": "vote",
      "outputs": [
        {
          "internalType": "bool",
          "name": "",
          "type": "bool"
        }
      ],
      "stateMutability": "nonpayable",
      "type": "function"
    }
  ],
  "bytecode": "0x608060405234801561001057600080fd5b50604051611e7e380380611e7e833981810160405281019061003291906103f4565b33600073ffffffffffffffffffffffffffffffffffffffff168173ffffffffffffffffffffffffffffffffffffffff16036100a55760006040517f1e4fbdf700000000000000000000000000000000000000000000000000000000815260040161009c9190610456565b60405180910390fd5b6100b4816102cd60201b60201c565b50600073ffffffffffffffffffffffffffffffffffffffff168373ffffffffffffffffffffffffffffffffffffffff1603610124576040517f08c379a000000000000000000000000000000000000000000000000000000000815260040161011b906104ce565b60405180910390fd5b600073ffffffffffffffffffffffffffffffffffffffff168273ffffffffffffffffffffffffffffffffffffffff1603610193576040517f08c379a000000000000000000000000000000000000000000000000000000000815260040161018a90610560565b60405180910390fd5b600073ffffffffffffffffffffffffffffffffffffffff168173ffffffffffffffffffffffffffffffffffffffff1603610202576040517f08c379a00000000000000000000000000000000000000000000000000000000081526004016101f9906105cc565b60405180910390fd5b82600160006101000a81548173ffffffffffffffffffffffffffffffffffffffff021916908373ffffffffffffffffffffffffffffffffffffffff16021790555081600260006101000a81548173ffffffffffffffffffffffffffffffffffffffff021916908373ffffffffffffffffffffffffffffffffffffffff16021790555080600360006101000a81548173ffffffffffffffffffffffffffffffffffffffff021916908373ffffffffffffffffffffffffffffffffffffffff1602179055505050506105ec565b60008060009054906101000a900473ffffffffffffffffffffffffffffffffffffffff169050816000806101000a81548173ffffffffffffffffffffffffffffffffffffffff021916908373ffffffffffffffffffffffffffffffffffffffff1602179055508173ffffffffffffffffffffffffffffffffffffffff168173ffffffffffffffffffffffffffffffffffffffff167f8be0079c531659141344cd1fd0a4f28419497f9722a3daafe3b4186f6b6457e060405160405180910390a35050565b600080fd5b600073ffffffffffffffffffffffffffffffffffffffff82169050919050565b60006103c182610396565b9050919050565b6103d1816103b6565b81146103dc57600080fd5b50565b6000815190506103ee816103c8565b92915050565b60008060006060848603121561040d5761040c610391565b5b600061041b868287016103df565b935050602061042c868287016103df565b925050604061043d868287016103df565b9150509250925092565b610450816103b6565b82525050565b600060208201905061046b6000830184610447565b92915050565b600082825260208201905092915050565b7f496e76616c6964206272616e6420636f6e747261637420616464726573730000600082015250565b60006104b8601e83610471565b91506104c382610482565b602082019050919050565b600060208201905081810360008301526104e7816104ab565b9050919050565b7f496e76616c69642063616d706169676e20636f6e74726163742061646472657360008201527f7300000000000000000000000000000000000000000000000000000000000000602082015250565b600061054a602183610471565b9150610555826104ee565b604082019050919050565b600060208201905081810360008301526105798161053d565b9050919050565b7f496e76616c6964204b4f4c20636f6e7472616374206164647265737300000000600082015250565b60006105b6601c83610471565b91506105c182610580565b602082019050919050565b600060208201905081810360008301526105e5816105a9565b9050919050565b611883806105fb6000396000f3fe608060405234801561001057600080fd5b50600436106100f55760003560e01c8063715018a611610097578063d70c613011610066578063d70c6130146102a0578063da0544aa146102be578063f2f37399146102ee578063f2fde38b1461030c576100f5565b8063715018a61461023e5780638da5cb5b146102485780639197cc3714610266578063a9ca3a4c14610284576100f5565b8063354219f2116100d3578063354219f21461017b578063493cd9b5146101ab5780634bd6caf1146101db5780634e04a4d21461020b576100f5565b80630121b93f146100fa5780630b1e7f831461012a57806326e75bad1461015d575b600080fd5b610114600480360381019061010f9190610e51565b610328565b6040516101219190610e99565b60405180910390f35b610144600480360381019061013f9190610e51565b610588565b6040516101549493929190610f94565b60405180910390f35b610165610670565b604051610172919061103f565b60405180910390f35b61019560048036038101906101909190611086565b610696565b6040516101a29190610e99565b60405180910390f35b6101c560048036038101906101c09190611086565b6106c5565b6040516101d29190610e99565b60405180910390f35b6101f560048036038101906101f09190610e51565b6106f4565b60405161020291906110c6565b60405180910390f35b61022560048036038101906102209190610e51565b61070c565b6040516102359493929190610f94565b60405180910390f35b6102466107e4565b005b6102506107f8565b60405161025d91906110e1565b60405180910390f35b61026e610821565b60405161027b919061111d565b60405180910390f35b61029e6004803603810190610299919061126d565b610847565b005b6102a8610b01565b6040516102b591906112ea565b60405180910390f35b6102d860048036038101906102d39190610e51565b610b27565b6040516102e59190611305565b60405180910390f35b6102f6610c28565b60405161030391906110c6565b60405180910390f35b61032660048036038101906103219190611327565b610c2e565b005b600080600660008481526020019081526020016000206002015403610382576040517f08c379a0000000000000000000000000000000000000000000000000000000008152600401610379906113a0565b60405180910390fd5b6000600660008481526020019081526020016000206002015490506009600082815260200190815260200160002060003373ffffffffffffffffffffffffffffffffffffffff1673ffffffffffffffffffffffffffffffffffffffff16815260200190815260200160002060009054906101000a900460ff161561043b576040517f08c379a00000000000000000000000000000000000000000000000000000000081526004016104329061140c565b60405180910390fd5b60016009600083815260200190815260200160002060003373ffffffffffffffffffffffffffffffffffffffff1673ffffffffffffffffffffffffffffffffffffffff16815260200190815260200160002060006101000a81548160ff021916908315150217905550600160076000600454815260200190815260200160002060003373ffffffffffffffffffffffffffffffffffffffff1673ffffffffffffffffffffffffffffffffffffffff16815260200190815260200160002060006101000a81548160ff0219169083151502179055506008600084815260200190815260200160002060008154809291906105339061145b565b91905055503373ffffffffffffffffffffffffffffffffffffffff166004547f030b0f8dcd86a031eddb071f91882edeac8173663ba775713b677b42b51be44b60405160405180910390a36001915050919050565b6005818154811061059857600080fd5b90600052602060002090600402016000915090508060000154908060010160009054906101000a900473ffffffffffffffffffffffffffffffffffffffff16908060020154908060030180546105ed906114d2565b80601f0160208091040260200160405190810160405280929190818152602001828054610619906114d2565b80156106665780601f1061063b57610100808354040283529160200191610666565b820191906000526020600020905b81548152906001019060200180831161064957829003601f168201915b5050505050905084565b600360009054906101000a900473ffffffffffffffffffffffffffffffffffffffff1681565b60076020528160005260406000206020528060005260406000206000915091509054906101000a900460ff1681565b60096020528160005260406000206020528060005260406000206000915091509054906101000a900460ff1681565b60086020528060005260406000206000915090505481565b60066020528060005260406000206000915090508060000154908060010160009054906101000a900473ffffffffffffffffffffffffffffffffffffffff1690806002015490806003018054610761906114d2565b80601f016020809104026020016040519081016040528092919081815260200182805461078d906114d2565b80156107da5780601f106107af576101008083540402835291602001916107da565b820191906000526020600020905b8154815290600101906020018083116107bd57829003601f168201915b5050505050905084565b6107ec610cb4565b6107f66000610d3b565b565b60008060009054906101000a900473ffffffffffffffffffffffffffffffffffffffff16905090565b600160009054906101000a900473ffffffffffffffffffffffffffffffffffffffff1681565b600080600360009054906101000a900473ffffffffffffffffffffffffffffffffffffffff1673ffffffffffffffffffffffffffffffffffffffff16639f7dff74856040518263ffffffff1660e01b81526004016108a591906110c6565b6040805180830381865afa1580156108c1573d6000803e3d6000fd5b505050506040513d601f19601f820116820180604052508101906108e5919061152d565b915091506000810361092c576040517f08c379a0000000000000000000000000000000000000000000000000000000008152600401610923906115b9565b60405180910390fd5b6004600081548092919061093f9061145b565b9190505550600060405180608001604052808681526020018473ffffffffffffffffffffffffffffffffffffffff168152602001838152602001858152509050806006600060045481526020019081526020016000206000820151816000015560208201518160010160006101000a81548173ffffffffffffffffffffffffffffffffffffffff021916908373ffffffffffffffffffffffffffffffffffffffff160217905550604082015181600201556060820151816003019081610a05919061177b565b5090505060058190806001815401808255809150506001900390600052602060002090600402016000909190919091506000820151816000015560208201518160010160006101000a81548173ffffffffffffffffffffffffffffffffffffffff021916908373ffffffffffffffffffffffffffffffffffffffff160217905550604082015181600201556060820151816003019081610aa5919061177b565b505050818373ffffffffffffffffffffffffffffffffffffffff166004547f55fc5884b992d0fef136f61c2349fa5340e6ecb9ab47cc65d5551425b3ccdd2287604051610af29190611305565b60405180910390a45050505050565b600260009054906101000a900473ffffffffffffffffffffffffffffffffffffffff1681565b60606000600660008481526020019081526020016000206002015403610b82576040517f08c379a0000000000000000000000000000000000000000000000000000000008152600401610b79906113a0565b60405180910390fd5b600660008381526020019081526020016000206003018054610ba3906114d2565b80601f0160208091040260200160405190810160405280929190818152602001828054610bcf906114d2565b8015610c1c5780601f10610bf157610100808354040283529160200191610c1c565b820191906000526020600020905b815481529060010190602001808311610bff57829003601f168201915b50505050509050919050565b60045481565b610c36610cb4565b600073ffffffffffffffffffffffffffffffffffffffff168173ffffffffffffffffffffffffffffffffffffffff1603610ca85760006040517f1e4fbdf7000000000000000000000000000000000000000000000000000000008152600401610c9f91906110e1565b60405180910390fd5b610cb181610d3b565b50565b610cbc610dff565b73ffffffffffffffffffffffffffffffffffffffff16610cda6107f8565b73ffffffffffffffffffffffffffffffffffffffff1614610d3957610cfd610dff565b6040517f118cdaa7000000000000000000000000000000000000000000000000000000008152600401610d3091906110e1565b60405180910390fd5b565b60008060009054906101000a900473ffffffffffffffffffffffffffffffffffffffff169050816000806101000a81548173ffffffffffffffffffffffffffffffffffffffff021916908373ffffffffffffffffffffffffffffffffffffffff1602179055508173ffffffffffffffffffffffffffffffffffffffff168173ffffffffffffffffffffffffffffffffffffffff167f8be0079c531659141344cd1fd0a4f28419497f9722a3daafe3b4186f6b6457e060405160405180910390a35050565b600033905090565b6000604051905090565b600080fd5b600080fd5b6000819050919050565b610e2e81610e1b565b8114610e3957600080fd5b50565b600081359050610e4b81610e25565b92915050565b600060208284031215610e6757610e66610e11565b5b6000610e7584828501610e3c565b91505092915050565b60008115159050919050565b610e9381610e7e565b82525050565b6000602082019050610eae6000830184610e8a565b92915050565b610ebd81610e1b565b82525050565b600073ffffffffffffffffffffffffffffffffffffffff82169050919050565b6000610eee82610ec3565b9050919050565b610efe81610ee3565b82525050565b600081519050919050565b600082825260208201905092915050565b60005b83811015610f3e578082015181840152602081019050610f23565b60008484015250505050565b6000601f19601f8301169050919050565b6000610f6682610f04565b610f708185610f0f565b9350610f80818560208601610f20565b610f8981610f4a565b840191505092915050565b6000608082019050610fa96000830187610eb4565b610fb66020830186610ef5565b610fc36040830185610eb4565b8181036060830152610fd58184610f5b565b905095945050505050565b6000819050919050565b6000611005611000610ffb84610ec3565b610fe0565b610ec3565b9050919050565b600061101782610fea565b9050919050565b60006110298261100c565b9050919050565b6110398161101e565b82525050565b60006020820190506110546000830184611030565b92915050565b61106381610ee3565b811461106e57600080fd5b50565b6000813590506110808161105a565b92915050565b6000806040838503121561109d5761109c610e11565b5b60006110ab85828601610e3c565b92505060206110bc85828601611071565b9150509250929050565b60006020820190506110db6000830184610eb4565b92915050565b60006020820190506110f66000830184610ef5565b92915050565b60006111078261100c565b9050919050565b611117816110fc565b82525050565b6000602082019050611132600083018461110e565b92915050565b600080fd5b600080fd5b7f4e487b7100000000000000000000000000000000000000000000000000000000600052604160045260246000fd5b61117a82610f4a565b810181811067ffffffffffffffff8211171561119957611198611142565b5b80604052505050565b60006111ac610e07565b90506111b88282611171565b919050565b600067ffffffffffffffff8211156111d8576111d7611142565b5b6111e182610f4a565b9050602081019050919050565b82818337600083830152505050565b600061121061120b846111bd565b6111a2565b90508281526020810184848401111561122c5761122b61113d565b5b6112378482856111ee565b509392505050565b600082601f83011261125457611253611138565b5b81356112648482602086016111fd565b91505092915050565b6000806040838503121561128457611283610e11565b5b600061129285828601610e3c565b925050602083013567ffffffffffffffff8111156112b3576112b2610e16565b5b6112bf8582860161123f565b9150509250929050565b60006112d48261100c565b9050919050565b6112e4816112c9565b82525050565b60006020820190506112ff60008301846112db565b92915050565b6000602082019050818103600083015261131f8184610f5b565b905092915050565b60006020828403121561133d5761133c610e11565b5b600061134b84828501611071565b91505092915050565b7f706f7374206e6f7420666f756e64000000000000000000000000000000000000600082015250565b600061138a600e83610f0f565b915061139582611354565b602082019050919050565b600060208201905081810360008301526113b98161137d565b9050919050565b7f416c726561647920766f74656420666f7220746869732063616d706169676e00600082015250565b60006113f6601f83610f0f565b9150611401826113c0565b602082019050919050565b60006020820190508181036000830152611425816113e9565b9050919050565b7f4e487b7100000000000000000000000000000000000000000000000000000000600052601160045260246000fd5b600061146682610e1b565b91507fffffffffffffffffffffffffffffffffffffffffffffffffffffffffffffffff82036114985761149761142c565b5b600182019050919050565b7f4e487b7100000000000000000000000000000000000000000000000000000000600052602260045260246000fd5b600060028204905060018216806114ea57607f821691505b6020821081036114fd576114fc6114a3565b5b50919050565b6000815190506115128161105a565b92915050565b60008151905061152781610e25565b92915050565b6000806040838503121561154457611543610e11565b5b600061155285828601611503565b925050602061156385828601611518565b9150509250929050565b7f43616d706169676e206e6f7420666f756e640000000000000000000000000000600082015250565b60006115a3601283610f0f565b91506115ae8261156d565b602082019050919050565b600060208201905081810360008301526115d281611596565b9050919050565b60008190508160005260206000209050919050565b60006020601f8301049050919050565b600082821b905092915050565b60006008830261163b7fffffffffffffffffffffffffffffffffffffffffffffffffffffffffffffffff826115fe565b61164586836115fe565b95508019841693508086168417925050509392505050565b600061167861167361166e84610e1b565b610fe0565b610e1b565b9050919050565b6000819050919050565b6116928361165d565b6116a661169e8261167f565b84845461160b565b825550505050565b600090565b6116bb6116ae565b6116c6818484611689565b505050565b5b818110156116ea576116df6000826116b3565b6001810190506116cc565b5050565b601f82111561172f57611700816115d9565b611709846115ee565b81016020851015611718578190505b61172c611724856115ee565b8301826116cb565b50505b505050565b600082821c905092915050565b600061175260001984600802611734565b1980831691505092915050565b600061176b8383611741565b9150826002028217905092915050565b61178482610f04565b67ffffffffffffffff81111561179d5761179c611142565b5b6117a782546114d2565b6117b28282856116ee565b600060209050601f8311600181146117e557600084156117d3578287015190505b6117dd858261175f565b865550611845565b601f1984166117f3866115d9565b60005b8281101561181b578489015182556001820191506020850194506020810190506117f6565b868310156118385784890151611834601f891682611741565b8355505b6001600288020188555050505b50505050505056fea2646970667358221220d9df2acdcb60a35056d80509ab594c2674c990e87c23c7b7d90397c1752c87e364736f6c63430008190033",
  "linkReferences": {},
  "deployedLinkReferences": {}
}