{
  "_format": "hh-sol-artifact-1",
  "contractName": "KOL",
  "sourceName": "src/KOL.sol",
  "abi": [
    {
      "inputs": [
        {
          "internalType": "address",
          "name": "_campaignContract",
          "type": "address"
        }
      ],
      "stateMutability": "nonpayable",
      "type": "constructor"
    },
    {
      "inputs": [
        {
          "internalType": "address",
          "name": "owner",
          "type": "address"
        }
      ],
      "name": "OwnableInvalidOwner",
      "type": "error"
    },
    {
      "inputs": [
        {
          "internalType": "address",
          "name": "account",
          "type": "address"
        }
      ],
      "name": "OwnableUnauthorizedAccount",
      "type": "error"
    },
    {
      "anonymous": false,
      "inputs": [
        {
          "indexed": true,
          "internalType": "uint256",
          "name": "idKolCampaign",
          "type": "uint256"
        },
        {
          "indexed": true,
          "internalType": "address",
          "name": "kol",
          "type": "address"
        },
        {
          "indexed": false,
          "internalType": "uint256",
          "name": "idCampaign",
          "type": "uint256"
        }
      ],
      "name": "KolCampaignAdded",
      "type": "event"
    },
    {
      "anonymous": false,
      "inputs": [
        {
          "indexed": true,
          "internalType": "address",
          "name": "previousOwner",
          "type": "address"
        },
        {
          "indexed": true,
          "internalType": "address",
          "name": "newOwner",
          "type": "address"
        }
      ],
      "name": "OwnershipTransferred",
      "type": "event"
    },
    {
      "inputs": [
        {
          "internalType": "uint256",
          "name": "_idCampaign",
          "type": "uint256"
        }
      ],
      "name": "addKolToCampaign",
      "outputs": [],
      "stateMutability": "nonpayable",
      "type": "function"
    },
    {
      "inputs": [
        {
          "internalType": "uint256",
          "name": "_id",
          "type": "uint256"
        }
      ],
      "name": "getKOLCampaign",
      "outputs": [
        {
          "internalType": "address",
          "name": "",
          "type": "address"
        },
        {
          "internalType": "uint256",
          "name": "",
          "type": "uint256"
        }
      ],
      "stateMutability": "view",
      "type": "function"
    },
    {
      "inputs": [
        {
          "internalType": "address",
          "name": "_kol",
          "type": "address"
        }
      ],
      "name": "getKolCampaignsByAddress",
      "outputs": [
        {
          "components": [
            {
              "internalType": "address",
              "name": "kol",
              "type": "address"
            },
            {
              "internalType": "uint256",
              "name": "idCampaign",
              "type": "uint256"
            }
          ],
          "internalType": "struct KOL.KOLCampaign[]",
          "name": "",
          "type": "tuple[]"
        }
      ],
      "stateMutability": "view",
      "type": "function"
    },
    {
      "inputs": [],
      "name": "idKolCampaign",
      "outputs": [
        {
          "internalType": "uint256",
          "name": "",
          "type": "uint256"
        }
      ],
      "stateMutability": "view",
      "type": "function"
    },
    {
      "inputs": [
        {
          "internalType": "uint256",
          "name": "_id",
          "type": "uint256"
        }
      ],
      "name": "isValidKolCampaign",
      "outputs": [
        {
          "internalType": "bool",
          "name": "",
          "type": "bool"
        }
      ],
      "stateMutability": "view",
      "type": "function"
    },
    {
      "inputs": [
        {
          "internalType": "address",
          "name": "_address",
          "type": "address"
        }
      ],
      "name": "joinAsKol",
      "outputs": [],
      "stateMutability": "nonpayable",
      "type": "function"
    },
    {
      "inputs": [],
      "name": "owner",
      "outputs": [
        {
          "internalType": "address",
          "name": "",
          "type": "address"
        }
      ],
      "stateMutability": "view",
      "type": "function"
    },
    {
      "inputs": [],
      "name": "renounceOwnership",
      "outputs": [],
      "stateMutability": "nonpayable",
      "type": "function"
    },
    {
      "inputs": [],
      "name": "s_campaignContract",
      "outputs": [
        {
          "internalType": "contract Campaign",
          "name": "",
          "type": "address"
        }
      ],
      "stateMutability": "view",
      "type": "function"
    },
    {
      "inputs": [
        {
          "internalType": "address",
          "name": "",
          "type": "address"
        },
        {
          "internalType": "uint256",
          "name": "",
          "type": "uint256"
        }
      ],
      "name": "s_campaignsKol",
      "outputs": [
        {
          "internalType": "address",
          "name": "kol",
          "type": "address"
        },
        {
          "internalType": "uint256",
          "name": "idCampaign",
          "type": "uint256"
        }
      ],
      "stateMutability": "view",
      "type": "function"
    },
    {
      "inputs": [
        {
          "internalType": "uint256",
          "name": "",
          "type": "uint256"
        }
      ],
      "name": "s_kolCampaign",
      "outputs": [
        {
          "internalType": "address",
          "name": "kol",
          "type": "address"
        },
        {
          "internalType": "uint256",
          "name": "idCampaign",
          "type": "uint256"
        }
      ],
      "stateMutability": "view",
      "type": "function"
    },
    {
      "inputs": [
        {
          "internalType": "address",
          "name": "",
          "type": "address"
        }
      ],
      "name": "s_kols",
      "outputs": [
        {
          "internalType": "bool",
          "name": "",
          "type": "bool"
        }
      ],
      "stateMutability": "view",
      "type": "function"
    },
    {
      "inputs": [
        {
          "internalType": "address",
          "name": "newOwner",
          "type": "address"
        }
      ],
      "name": "transferOwnership",
      "outputs": [],
      "stateMutability": "nonpayable",
      "type": "function"
    },
    {
      "inputs": [
        {
          "internalType": "address",
          "name": "_campaignContract",
          "type": "address"
        }
      ],
      "name": "updateCampaignContract",
      "outputs": [],
      "stateMutability": "nonpayable",
      "type": "function"
    }
  ],
  "bytecode": "0x608060405234801561001057600080fd5b506040516118aa3803806118aa83398181016040528101906100329190610292565b33600073ffffffffffffffffffffffffffffffffffffffff168173ffffffffffffffffffffffffffffffffffffffff16036100a55760006040517f1e4fbdf700000000000000000000000000000000000000000000000000000000815260040161009c91906102ce565b60405180910390fd5b6100b48161016b60201b60201c565b50600073ffffffffffffffffffffffffffffffffffffffff168173ffffffffffffffffffffffffffffffffffffffff1603610124576040517f08c379a000000000000000000000000000000000000000000000000000000000815260040161011b9061036c565b60405180910390fd5b80600160006101000a81548173ffffffffffffffffffffffffffffffffffffffff021916908373ffffffffffffffffffffffffffffffffffffffff1602179055505061038c565b60008060009054906101000a900473ffffffffffffffffffffffffffffffffffffffff169050816000806101000a81548173ffffffffffffffffffffffffffffffffffffffff021916908373ffffffffffffffffffffffffffffffffffffffff1602179055508173ffffffffffffffffffffffffffffffffffffffff168173ffffffffffffffffffffffffffffffffffffffff167f8be0079c531659141344cd1fd0a4f28419497f9722a3daafe3b4186f6b6457e060405160405180910390a35050565b600080fd5b600073ffffffffffffffffffffffffffffffffffffffff82169050919050565b600061025f82610234565b9050919050565b61026f81610254565b811461027a57600080fd5b50565b60008151905061028c81610266565b92915050565b6000602082840312156102a8576102a761022f565b5b60006102b68482850161027d565b91505092915050565b6102c881610254565b82525050565b60006020820190506102e360008301846102bf565b92915050565b600082825260208201905092915050565b7f496e76616c69642063616d706169676e20636f6e74726163742061646472657360008201527f7300000000000000000000000000000000000000000000000000000000000000602082015250565b60006103566021836102e9565b9150610361826102fa565b604082019050919050565b6000602082019050818103600083015261038581610349565b9050919050565b61150f8061039b6000396000f3fe608060405234801561001057600080fd5b50600436106100ea5760003560e01c8063936ce5d21161008c578063c45e3c4811610066578063c45e3c481461024d578063e106d8e31461027d578063f2fde38b14610299578063f7f45433146102b5576100ea565b8063936ce5d2146101e25780639f7dff7414610200578063b32265dc14610231576100ea565b806360baf406116100c857806360baf4061461016c578063715018a61461019c57806389c69d5a146101a65780638da5cb5b146101c4576100ea565b80630cb4f66d146100ef578063276e6a2a146101205780635f41e0d31461013c575b600080fd5b61010960048036038101906101049190610e07565b6102e6565b604051610117929190610e84565b60405180910390f35b61013a60048036038101906101359190610e07565b61032a565b005b61015660048036038101906101519190610e07565b610659565b6040516101639190610ec8565b60405180910390f35b61018660048036038101906101819190610f0f565b610719565b6040516101939190611038565b60405180910390f35b6101a46108a3565b005b6101ae6108b7565b6040516101bb919061105a565b60405180910390f35b6101cc6108bd565b6040516101d99190611075565b60405180910390f35b6101ea6108e6565b6040516101f791906110ef565b60405180910390f35b61021a60048036038101906102159190610e07565b61090c565b604051610228929190610e84565b60405180910390f35b61024b60048036038101906102469190610f0f565b6109ed565b005b61026760048036038101906102629190610f0f565b610aa8565b6040516102749190610ec8565b60405180910390f35b61029760048036038101906102929190610f0f565b610ac8565b005b6102b360048036038101906102ae9190610f0f565b610b92565b005b6102cf60048036038101906102ca919061110a565b610c18565b6040516102dd929190610e84565b60405180910390f35b60046020528060005260406000206000915090508060000160009054906101000a900473ffffffffffffffffffffffffffffffffffffffff16908060010154905082565b600360003373ffffffffffffffffffffffffffffffffffffffff1673ffffffffffffffffffffffffffffffffffffffff16815260200190815260200160002060009054906101000a900460ff166103b6576040517f08c379a00000000000000000000000000000000000000000000000000000000081526004016103ad906111a7565b60405180910390fd5b6000600160009054906101000a900473ffffffffffffffffffffffffffffffffffffffff1673ffffffffffffffffffffffffffffffffffffffff1663f53d79a7836040518263ffffffff1660e01b8152600401610413919061105a565b602060405180830381865afa158015610430573d6000803e3d6000fd5b505050506040513d601f19601f8201168201806040525081019061045491906111f3565b905080610496576040517f08c379a000000000000000000000000000000000000000000000000000000000815260040161048d9061126c565b60405180910390fd5b600060405180604001604052803373ffffffffffffffffffffffffffffffffffffffff168152602001848152509050600260008154809291906104d8906112bb565b91905055508060046000600254815260200190815260200160002060008201518160000160006101000a81548173ffffffffffffffffffffffffffffffffffffffff021916908373ffffffffffffffffffffffffffffffffffffffff16021790555060208201518160010155905050600560003373ffffffffffffffffffffffffffffffffffffffff1673ffffffffffffffffffffffffffffffffffffffff16815260200190815260200160002081908060018154018082558091505060019003906000526020600020906002020160009091909190915060008201518160000160006101000a81548173ffffffffffffffffffffffffffffffffffffffff021916908373ffffffffffffffffffffffffffffffffffffffff1602179055506020820151816001015550503373ffffffffffffffffffffffffffffffffffffffff166002547fcaf25c301f678582a82d4a5b04bb02cbaebae813af45b15b45edc49c0560cd4b8560405161064c919061105a565b60405180910390a3505050565b600080600460008481526020019081526020016000206040518060400160405290816000820160009054906101000a900473ffffffffffffffffffffffffffffffffffffffff1673ffffffffffffffffffffffffffffffffffffffff1673ffffffffffffffffffffffffffffffffffffffff1681526020016001820154815250509050600073ffffffffffffffffffffffffffffffffffffffff16816000015173ffffffffffffffffffffffffffffffffffffffff161415915050919050565b6060600360008373ffffffffffffffffffffffffffffffffffffffff1673ffffffffffffffffffffffffffffffffffffffff16815260200190815260200160002060009054906101000a900460ff166107a7576040517f08c379a000000000000000000000000000000000000000000000000000000000815260040161079e9061134f565b60405180910390fd5b600560008373ffffffffffffffffffffffffffffffffffffffff1673ffffffffffffffffffffffffffffffffffffffff168152602001908152602001600020805480602002602001604051908101604052809291908181526020016000905b8282101561089857838290600052602060002090600202016040518060400160405290816000820160009054906101000a900473ffffffffffffffffffffffffffffffffffffffff1673ffffffffffffffffffffffffffffffffffffffff1673ffffffffffffffffffffffffffffffffffffffff16815260200160018201548152505081526020019060010190610806565b505050509050919050565b6108ab610c79565b6108b56000610d00565b565b60025481565b60008060009054906101000a900473ffffffffffffffffffffffffffffffffffffffff16905090565b600160009054906101000a900473ffffffffffffffffffffffffffffffffffffffff1681565b60008061091883610659565b610957576040517f08c379a000000000000000000000000000000000000000000000000000000000815260040161094e906113bb565b60405180910390fd5b6000600460008581526020019081526020016000206040518060400160405290816000820160009054906101000a900473ffffffffffffffffffffffffffffffffffffffff1673ffffffffffffffffffffffffffffffffffffffff1673ffffffffffffffffffffffffffffffffffffffff1681526020016001820154815250509050806000015181602001519250925050915091565b6109f5610c79565b600073ffffffffffffffffffffffffffffffffffffffff168173ffffffffffffffffffffffffffffffffffffffff1603610a64576040517f08c379a0000000000000000000000000000000000000000000000000000000008152600401610a5b9061144d565b60405180910390fd5b80600160006101000a81548173ffffffffffffffffffffffffffffffffffffffff021916908373ffffffffffffffffffffffffffffffffffffffff16021790555050565b60036020528060005260406000206000915054906101000a900460ff1681565b600073ffffffffffffffffffffffffffffffffffffffff168173ffffffffffffffffffffffffffffffffffffffff1603610b37576040517f08c379a0000000000000000000000000000000000000000000000000000000008152600401610b2e906114b9565b60405180910390fd5b6001600360008373ffffffffffffffffffffffffffffffffffffffff1673ffffffffffffffffffffffffffffffffffffffff16815260200190815260200160002060006101000a81548160ff02191690831515021790555050565b610b9a610c79565b600073ffffffffffffffffffffffffffffffffffffffff168173ffffffffffffffffffffffffffffffffffffffff1603610c0c5760006040517f1e4fbdf7000000000000000000000000000000000000000000000000000000008152600401610c039190611075565b60405180910390fd5b610c1581610d00565b50565b60056020528160005260406000208181548110610c3457600080fd5b9060005260206000209060020201600091509150508060000160009054906101000a900473ffffffffffffffffffffffffffffffffffffffff16908060010154905082565b610c81610dc4565b73ffffffffffffffffffffffffffffffffffffffff16610c9f6108bd565b73ffffffffffffffffffffffffffffffffffffffff1614610cfe57610cc2610dc4565b6040517f118cdaa7000000000000000000000000000000000000000000000000000000008152600401610cf59190611075565b60405180910390fd5b565b60008060009054906101000a900473ffffffffffffffffffffffffffffffffffffffff169050816000806101000a81548173ffffffffffffffffffffffffffffffffffffffff021916908373ffffffffffffffffffffffffffffffffffffffff1602179055508173ffffffffffffffffffffffffffffffffffffffff168173ffffffffffffffffffffffffffffffffffffffff167f8be0079c531659141344cd1fd0a4f28419497f9722a3daafe3b4186f6b6457e060405160405180910390a35050565b600033905090565b600080fd5b6000819050919050565b610de481610dd1565b8114610def57600080fd5b50565b600081359050610e0181610ddb565b92915050565b600060208284031215610e1d57610e1c610dcc565b5b6000610e2b84828501610df2565b91505092915050565b600073ffffffffffffffffffffffffffffffffffffffff82169050919050565b6000610e5f82610e34565b9050919050565b610e6f81610e54565b82525050565b610e7e81610dd1565b82525050565b6000604082019050610e996000830185610e66565b610ea66020830184610e75565b9392505050565b60008115159050919050565b610ec281610ead565b82525050565b6000602082019050610edd6000830184610eb9565b92915050565b610eec81610e54565b8114610ef757600080fd5b50565b600081359050610f0981610ee3565b92915050565b600060208284031215610f2557610f24610dcc565b5b6000610f3384828501610efa565b91505092915050565b600081519050919050565b600082825260208201905092915050565b6000819050602082019050919050565b610f7181610e54565b82525050565b610f8081610dd1565b82525050565b604082016000820151610f9c6000850182610f68565b506020820151610faf6020850182610f77565b50505050565b6000610fc18383610f86565b60408301905092915050565b6000602082019050919050565b6000610fe582610f3c565b610fef8185610f47565b9350610ffa83610f58565b8060005b8381101561102b5781516110128882610fb5565b975061101d83610fcd565b925050600181019050610ffe565b5085935050505092915050565b600060208201905081810360008301526110528184610fda565b905092915050565b600060208201905061106f6000830184610e75565b92915050565b600060208201905061108a6000830184610e66565b92915050565b6000819050919050565b60006110b56110b06110ab84610e34565b611090565b610e34565b9050919050565b60006110c78261109a565b9050919050565b60006110d9826110bc565b9050919050565b6110e9816110ce565b82525050565b600060208201905061110460008301846110e0565b92915050565b6000806040838503121561112157611120610dcc565b5b600061112f85828601610efa565b925050602061114085828601610df2565b9150509250929050565b600082825260208201905092915050565b7f496e76616c6964204b4f4c000000000000000000000000000000000000000000600082015250565b6000611191600b8361114a565b915061119c8261115b565b602082019050919050565b600060208201905081810360008301526111c081611184565b9050919050565b6111d081610ead565b81146111db57600080fd5b50565b6000815190506111ed816111c7565b92915050565b60006020828403121561120957611208610dcc565b5b6000611217848285016111de565b91505092915050565b7f496e76616c69642063616d706169676e00000000000000000000000000000000600082015250565b600061125660108361114a565b915061126182611220565b602082019050919050565b6000602082019050818103600083015261128581611249565b9050919050565b7f4e487b7100000000000000000000000000000000000000000000000000000000600052601160045260246000fd5b60006112c682610dd1565b91507fffffffffffffffffffffffffffffffffffffffffffffffffffffffffffffffff82036112f8576112f761128c565b5b600182019050919050565b7f496e76616c6964204b6f6c000000000000000000000000000000000000000000600082015250565b6000611339600b8361114a565b915061134482611303565b602082019050919050565b600060208201905081810360008301526113688161132c565b9050919050565b7f496e76616c6964204b4f4c43616d706169676e00000000000000000000000000600082015250565b60006113a560138361114a565b91506113b08261136f565b602082019050919050565b600060208201905081810360008301526113d481611398565b9050919050565b7f496e76616c69642063616d706169676e20636f6e74726163742061646472657360008201527f7300000000000000000000000000000000000000000000000000000000000000602082015250565b600061143760218361114a565b9150611442826113db565b604082019050919050565b600060208201905081810360008301526114668161142a565b9050919050565b7f496e76616c6964204b4f4c206164647265737300000000000000000000000000600082015250565b60006114a360138361114a565b91506114ae8261146d565b602082019050919050565b600060208201905081810360008301526114d281611496565b905091905056fea264697066735822122073c7d5f1bd0ed95d54cff2a01d5a6af76bf6a119e814028377f710704b42673464736f6c63430008190033",
  "linkReferences": {},
  "deployedLinkReferences": {}
}