{
  "_format": "hh-sol-artifact-1",
  "contractName": "Brand",
  "sourceName": "src/Brand.sol",
  "abi": [
    {
      "inputs": [],
      "stateMutability": "nonpayable",
      "type": "constructor"
    },
    {
      "inputs": [
        {
          "internalType": "address",
          "name": "owner",
          "type": "address"
        }
      ],
      "name": "OwnableInvalidOwner",
      "type": "error"
    },
    {
      "inputs": [
        {
          "internalType": "address",
          "name": "account",
          "type": "address"
        }
      ],
      "name": "OwnableUnauthorizedAccount",
      "type": "error"
    },
    {
      "anonymous": false,
      "inputs": [
        {
          "indexed": true,
          "internalType": "address",
          "name": "previousOwner",
          "type": "address"
        },
        {
          "indexed": true,
          "internalType": "address",
          "name": "newOwner",
          "type": "address"
        }
      ],
      "name": "OwnershipTransferred",
      "type": "event"
    },
    {
      "inputs": [
        {
          "internalType": "uint256",
          "name": "",
          "type": "uint256"
        }
      ],
      "name": "brandOperators",
      "outputs": [
        {
          "internalType": "address",
          "name": "",
          "type": "address"
        }
      ],
      "stateMutability": "view",
      "type": "function"
    },
    {
      "inputs": [
        {
          "internalType": "uint256",
          "name": "",
          "type": "uint256"
        }
      ],
      "name": "brands",
      "outputs": [
        {
          "internalType": "uint256",
          "name": "idBrand",
          "type": "uint256"
        },
        {
          "internalType": "address",
          "name": "brandOwner",
          "type": "address"
        },
        {
          "internalType": "string",
          "name": "name",
          "type": "string"
        },
        {
          "internalType": "bool",
          "name": "active",
          "type": "bool"
        }
      ],
      "stateMutability": "view",
      "type": "function"
    },
    {
      "inputs": [
        {
          "internalType": "string",
          "name": "_name",
          "type": "string"
        },
        {
          "internalType": "address",
          "name": "_brandOwner",
          "type": "address"
        }
      ],
      "name": "createBrand",
      "outputs": [],
      "stateMutability": "nonpayable",
      "type": "function"
    },
    {
      "inputs": [
        {
          "internalType": "uint256",
          "name": "_idBrand",
          "type": "uint256"
        }
      ],
      "name": "disableBrand",
      "outputs": [],
      "stateMutability": "nonpayable",
      "type": "function"
    },
    {
      "inputs": [
        {
          "internalType": "uint256",
          "name": "_idBrand",
          "type": "uint256"
        }
      ],
      "name": "enableBrand",
      "outputs": [],
      "stateMutability": "nonpayable",
      "type": "function"
    },
    {
      "inputs": [
        {
          "internalType": "uint256",
          "name": "_idBrand",
          "type": "uint256"
        }
      ],
      "name": "getBrand",
      "outputs": [
        {
          "internalType": "uint256",
          "name": "",
          "type": "uint256"
        },
        {
          "internalType": "address",
          "name": "",
          "type": "address"
        },
        {
          "internalType": "string",
          "name": "",
          "type": "string"
        },
        {
          "internalType": "bool",
          "name": "",
          "type": "bool"
        }
      ],
      "stateMutability": "view",
      "type": "function"
    },
    {
      "inputs": [],
      "name": "idBrand",
      "outputs": [
        {
          "internalType": "uint256",
          "name": "",
          "type": "uint256"
        }
      ],
      "stateMutability": "view",
      "type": "function"
    },
    {
      "inputs": [
        {
          "internalType": "uint256",
          "name": "_idBrand",
          "type": "uint256"
        }
      ],
      "name": "isValidBrand",
      "outputs": [
        {
          "internalType": "bool",
          "name": "",
          "type": "bool"
        }
      ],
      "stateMutability": "view",
      "type": "function"
    },
    {
      "inputs": [],
      "name": "owner",
      "outputs": [
        {
          "internalType": "address",
          "name": "",
          "type": "address"
        }
      ],
      "stateMutability": "view",
      "type": "function"
    },
    {
      "inputs": [],
      "name": "renounceOwnership",
      "outputs": [],
      "stateMutability": "nonpayable",
      "type": "function"
    },
    {
      "inputs": [
        {
          "internalType": "address",
          "name": "newOwner",
          "type": "address"
        }
      ],
      "name": "transferOwnership",
      "outputs": [],
      "stateMutability": "nonpayable",
      "type": "function"
    },
    {
      "inputs": [
        {
          "internalType": "string",
          "name": "_name",
          "type": "string"
        },
        {
          "internalType": "address",
          "name": "_brandOwner",
          "type": "address"
        },
        {
          "internalType": "uint256",
          "name": "_idBrand",
          "type": "uint256"
        }
      ],
      "name": "updateBrand",
      "outputs": [],
      "stateMutability": "nonpayable",
      "type": "function"
    }
  ],
  "bytecode": "0x608060405234801561001057600080fd5b5033600073ffffffffffffffffffffffffffffffffffffffff168173ffffffffffffffffffffffffffffffffffffffff16036100845760006040517f1e4fbdf700000000000000000000000000000000000000000000000000000000815260040161007b919061019e565b60405180910390fd5b6100938161009960201b60201c565b506101b9565b60008060009054906101000a900473ffffffffffffffffffffffffffffffffffffffff169050816000806101000a81548173ffffffffffffffffffffffffffffffffffffffff021916908373ffffffffffffffffffffffffffffffffffffffff1602179055508173ffffffffffffffffffffffffffffffffffffffff168173ffffffffffffffffffffffffffffffffffffffff167f8be0079c531659141344cd1fd0a4f28419497f9722a3daafe3b4186f6b6457e060405160405180910390a35050565b600073ffffffffffffffffffffffffffffffffffffffff82169050919050565b60006101888261015d565b9050919050565b6101988161017d565b82525050565b60006020820190506101b3600083018461018f565b92915050565b6116b1806101c86000396000f3fe608060405234801561001057600080fd5b50600436106100b45760003560e01c8063a90927ce11610071578063a90927ce14610165578063ea48b4f714610183578063eab37ceb146101b3578063f0dc6d14146101cf578063f2fde38b14610202578063fdcb57321461021e576100b4565b80630736c432146100b957806309e76002146100e95780635f04c16d14610105578063715018a6146101215780638da5cb5b1461012b5780639b8bfe6214610149575b600080fd5b6100d360048036038101906100ce9190610d58565b610251565b6040516100e09190610da0565b60405180910390f35b61010360048036038101906100fe9190610f5f565b6102c6565b005b61011f600480360381019061011a9190610d58565b6105ac565b005b6101296105ec565b005b610133610600565b6040516101409190610fdd565b60405180910390f35b610163600480360381019061015e9190610d58565b610629565b005b61016d610669565b60405161017a9190611007565b60405180910390f35b61019d60048036038101906101989190610d58565b61066f565b6040516101aa9190610fdd565b60405180910390f35b6101cd60048036038101906101c89190611022565b6106a2565b005b6101e960048036038101906101e49190610d58565b6108ae565b6040516101f994939291906110fd565b60405180910390f35b61021c60048036038101906102179190611149565b610a50565b005b61023860048036038101906102339190610d58565b610ad6565b60405161024894939291906110fd565b60405180910390f35b6000806002600084815260200190815260200160002060010160009054906101000a900473ffffffffffffffffffffffffffffffffffffffff169050600073ffffffffffffffffffffffffffffffffffffffff168173ffffffffffffffffffffffffffffffffffffffff161415915050919050565b806102cf610600565b73ffffffffffffffffffffffffffffffffffffffff163373ffffffffffffffffffffffffffffffffffffffff16148061036657503373ffffffffffffffffffffffffffffffffffffffff166003600083815260200190815260200160002060009054906101000a900473ffffffffffffffffffffffffffffffffffffffff1673ffffffffffffffffffffffffffffffffffffffff16145b6103a5576040517f08c379a000000000000000000000000000000000000000000000000000000000815260040161039c906111c2565b60405180910390fd5b6103ad610600565b73ffffffffffffffffffffffffffffffffffffffff163373ffffffffffffffffffffffffffffffffffffffff16148061044757503373ffffffffffffffffffffffffffffffffffffffff166002600084815260200190815260200160002060010160009054906101000a900473ffffffffffffffffffffffffffffffffffffffff1673ffffffffffffffffffffffffffffffffffffffff16145b610486576040517f08c379a000000000000000000000000000000000000000000000000000000000815260040161047d906111c2565b60405180910390fd5b60008451116104ca576040517f08c379a00000000000000000000000000000000000000000000000000000000081526004016104c19061122e565b60405180910390fd5b600073ffffffffffffffffffffffffffffffffffffffff168373ffffffffffffffffffffffffffffffffffffffff1603610539576040517f08c379a00000000000000000000000000000000000000000000000000000000081526004016105309061129a565b60405180910390fd5b60006002600084815260200190815260200160002090508481600201908161056191906114c6565b50838160010160006101000a81548173ffffffffffffffffffffffffffffffffffffffff021916908373ffffffffffffffffffffffffffffffffffffffff1602179055505050505050565b6105b4610bbb565b600060026000838152602001908152602001600020905060018160030160006101000a81548160ff0219169083151502179055505050565b6105f4610bbb565b6105fe6000610c42565b565b60008060009054906101000a900473ffffffffffffffffffffffffffffffffffffffff16905090565b610631610bbb565b600060026000838152602001908152602001600020905060008160030160006101000a81548160ff0219169083151502179055505050565b60015481565b60036020528060005260406000206000915054906101000a900473ffffffffffffffffffffffffffffffffffffffff1681565b6106aa610bbb565b60008251116106ee576040517f08c379a00000000000000000000000000000000000000000000000000000000081526004016106e59061122e565b60405180910390fd5b600073ffffffffffffffffffffffffffffffffffffffff168173ffffffffffffffffffffffffffffffffffffffff160361075d576040517f08c379a00000000000000000000000000000000000000000000000000000000081526004016107549061129a565b60405180910390fd5b60016000815480929190610770906115c7565b91905055506000604051806080016040528060015481526020018373ffffffffffffffffffffffffffffffffffffffff168152602001848152602001600115158152509050806002600060015481526020019081526020016000206000820151816000015560208201518160010160006101000a81548173ffffffffffffffffffffffffffffffffffffffff021916908373ffffffffffffffffffffffffffffffffffffffff160217905550604082015181600201908161083191906114c6565b5060608201518160030160006101000a81548160ff0219169083151502179055509050508160036000600154815260200190815260200160002060006101000a81548173ffffffffffffffffffffffffffffffffffffffff021916908373ffffffffffffffffffffffffffffffffffffffff160217905550505050565b600080606060006108be85610251565b6108fd576040517f08c379a00000000000000000000000000000000000000000000000000000000081526004016108f49061165b565b60405180910390fd5b600060026000878152602001908152602001600020604051806080016040529081600082015481526020016001820160009054906101000a900473ffffffffffffffffffffffffffffffffffffffff1673ffffffffffffffffffffffffffffffffffffffff1673ffffffffffffffffffffffffffffffffffffffff16815260200160028201805461098d906112e9565b80601f01602080910402602001604051908101604052809291908181526020018280546109b9906112e9565b8015610a065780601f106109db57610100808354040283529160200191610a06565b820191906000526020600020905b8154815290600101906020018083116109e957829003601f168201915b505050505081526020016003820160009054906101000a900460ff161515151581525050905080600001518160200151826040015183606001519450945094509450509193509193565b610a58610bbb565b600073ffffffffffffffffffffffffffffffffffffffff168173ffffffffffffffffffffffffffffffffffffffff1603610aca5760006040517f1e4fbdf7000000000000000000000000000000000000000000000000000000008152600401610ac19190610fdd565b60405180910390fd5b610ad381610c42565b50565b60026020528060005260406000206000915090508060000154908060010160009054906101000a900473ffffffffffffffffffffffffffffffffffffffff1690806002018054610b25906112e9565b80601f0160208091040260200160405190810160405280929190818152602001828054610b51906112e9565b8015610b9e5780601f10610b7357610100808354040283529160200191610b9e565b820191906000526020600020905b815481529060010190602001808311610b8157829003601f168201915b5050505050908060030160009054906101000a900460ff16905084565b610bc3610d06565b73ffffffffffffffffffffffffffffffffffffffff16610be1610600565b73ffffffffffffffffffffffffffffffffffffffff1614610c4057610c04610d06565b6040517f118cdaa7000000000000000000000000000000000000000000000000000000008152600401610c379190610fdd565b60405180910390fd5b565b60008060009054906101000a900473ffffffffffffffffffffffffffffffffffffffff169050816000806101000a81548173ffffffffffffffffffffffffffffffffffffffff021916908373ffffffffffffffffffffffffffffffffffffffff1602179055508173ffffffffffffffffffffffffffffffffffffffff168173ffffffffffffffffffffffffffffffffffffffff167f8be0079c531659141344cd1fd0a4f28419497f9722a3daafe3b4186f6b6457e060405160405180910390a35050565b600033905090565b6000604051905090565b600080fd5b600080fd5b6000819050919050565b610d3581610d22565b8114610d4057600080fd5b50565b600081359050610d5281610d2c565b92915050565b600060208284031215610d6e57610d6d610d18565b5b6000610d7c84828501610d43565b91505092915050565b60008115159050919050565b610d9a81610d85565b82525050565b6000602082019050610db56000830184610d91565b92915050565b600080fd5b600080fd5b6000601f19601f8301169050919050565b7f4e487b7100000000000000000000000000000000000000000000000000000000600052604160045260246000fd5b610e0e82610dc5565b810181811067ffffffffffffffff82111715610e2d57610e2c610dd6565b5b80604052505050565b6000610e40610d0e565b9050610e4c8282610e05565b919050565b600067ffffffffffffffff821115610e6c57610e6b610dd6565b5b610e7582610dc5565b9050602081019050919050565b82818337600083830152505050565b6000610ea4610e9f84610e51565b610e36565b905082815260208101848484011115610ec057610ebf610dc0565b5b610ecb848285610e82565b509392505050565b600082601f830112610ee857610ee7610dbb565b5b8135610ef8848260208601610e91565b91505092915050565b600073ffffffffffffffffffffffffffffffffffffffff82169050919050565b6000610f2c82610f01565b9050919050565b610f3c81610f21565b8114610f4757600080fd5b50565b600081359050610f5981610f33565b92915050565b600080600060608486031215610f7857610f77610d18565b5b600084013567ffffffffffffffff811115610f9657610f95610d1d565b5b610fa286828701610ed3565b9350506020610fb386828701610f4a565b9250506040610fc486828701610d43565b9150509250925092565b610fd781610f21565b82525050565b6000602082019050610ff26000830184610fce565b92915050565b61100181610d22565b82525050565b600060208201905061101c6000830184610ff8565b92915050565b6000806040838503121561103957611038610d18565b5b600083013567ffffffffffffffff81111561105757611056610d1d565b5b61106385828601610ed3565b925050602061107485828601610f4a565b9150509250929050565b600081519050919050565b600082825260208201905092915050565b60005b838110156110b857808201518184015260208101905061109d565b60008484015250505050565b60006110cf8261107e565b6110d98185611089565b93506110e981856020860161109a565b6110f281610dc5565b840191505092915050565b60006080820190506111126000830187610ff8565b61111f6020830186610fce565b818103604083015261113181856110c4565b90506111406060830184610d91565b95945050505050565b60006020828403121561115f5761115e610d18565b5b600061116d84828501610f4a565b91505092915050565b7f556e617574686f72697a65640000000000000000000000000000000000000000600082015250565b60006111ac600c83611089565b91506111b782611176565b602082019050919050565b600060208201905081810360008301526111db8161119f565b9050919050565b7f496e76616c6964206272616e64206e616d650000000000000000000000000000600082015250565b6000611218601283611089565b9150611223826111e2565b602082019050919050565b600060208201905081810360008301526112478161120b565b9050919050565b7f496e76616c6964206272616e64206f776e657220616464726573730000000000600082015250565b6000611284601b83611089565b915061128f8261124e565b602082019050919050565b600060208201905081810360008301526112b381611277565b9050919050565b7f4e487b7100000000000000000000000000000000000000000000000000000000600052602260045260246000fd5b6000600282049050600182168061130157607f821691505b602082108103611314576113136112ba565b5b50919050565b60008190508160005260206000209050919050565b60006020601f8301049050919050565b600082821b905092915050565b60006008830261137c7fffffffffffffffffffffffffffffffffffffffffffffffffffffffffffffffff8261133f565b611386868361133f565b95508019841693508086168417925050509392505050565b6000819050919050565b60006113c36113be6113b984610d22565b61139e565b610d22565b9050919050565b6000819050919050565b6113dd836113a8565b6113f16113e9826113ca565b84845461134c565b825550505050565b600090565b6114066113f9565b6114118184846113d4565b505050565b5b818110156114355761142a6000826113fe565b600181019050611417565b5050565b601f82111561147a5761144b8161131a565b6114548461132f565b81016020851015611463578190505b61147761146f8561132f565b830182611416565b50505b505050565b600082821c905092915050565b600061149d6000198460080261147f565b1980831691505092915050565b60006114b6838361148c565b9150826002028217905092915050565b6114cf8261107e565b67ffffffffffffffff8111156114e8576114e7610dd6565b5b6114f282546112e9565b6114fd828285611439565b600060209050601f831160018114611530576000841561151e578287015190505b61152885826114aa565b865550611590565b601f19841661153e8661131a565b60005b8281101561156657848901518255600182019150602085019450602081019050611541565b86831015611583578489015161157f601f89168261148c565b8355505b6001600288020188555050505b505050505050565b7f4e487b7100000000000000000000000000000000000000000000000000000000600052601160045260246000fd5b60006115d282610d22565b91507fffffffffffffffffffffffffffffffffffffffffffffffffffffffffffffffff820361160457611603611598565b5b600182019050919050565b7f496e76616c6964206272616e6400000000000000000000000000000000000000600082015250565b6000611645600d83611089565b91506116508261160f565b602082019050919050565b6000602082019050818103600083015261167481611638565b905091905056fea2646970667358221220b5d2a406ef3243f83163327b8bc8b347e53fc47223eefc78edc6f1cda8fcac2f64736f6c63430008190033",
  "linkReferences": {},
  "deployedLinkReferences": {}
}