{
  "_format": "hh-sol-artifact-1",
  "contractName": "Campaign",
  "sourceName": "src/Campaign.sol",
  "abi": [
    {
      "inputs": [
        {
          "internalType": "address",
          "name": "_brandContract",
          "type": "address"
        }
      ],
      "stateMutability": "nonpayable",
      "type": "constructor"
    },
    {
      "inputs": [
        {
          "internalType": "address",
          "name": "owner",
          "type": "address"
        }
      ],
      "name": "OwnableInvalidOwner",
      "type": "error"
    },
    {
      "inputs": [
        {
          "internalType": "address",
          "name": "account",
          "type": "address"
        }
      ],
      "name": "OwnableUnauthorizedAccount",
      "type": "error"
    },
    {
      "anonymous": false,
      "inputs": [
        {
          "indexed": true,
          "internalType": "uint256",
          "name": "idCampaign",
          "type": "uint256"
        },
        {
          "indexed": true,
          "internalType": "uint256",
          "name": "idBrand",
          "type": "uint256"
        },
        {
          "indexed": false,
          "internalType": "string",
          "name": "name",
          "type": "string"
        },
        {
          "indexed": false,
          "internalType": "uint256",
          "name": "amount",
          "type": "uint256"
        }
      ],
      "name": "CampaignCreated",
      "type": "event"
    },
    {
      "anonymous": false,
      "inputs": [
        {
          "indexed": true,
          "internalType": "uint256",
          "name": "idCampaign",
          "type": "uint256"
        },
        {
          "indexed": false,
          "internalType": "string",
          "name": "name",
          "type": "string"
        },
        {
          "indexed": false,
          "internalType": "uint256",
          "name": "amount",
          "type": "uint256"
        }
      ],
      "name": "CampaignUpdated",
      "type": "event"
    },
    {
      "anonymous": false,
      "inputs": [
        {
          "indexed": true,
          "internalType": "address",
          "name": "previousOwner",
          "type": "address"
        },
        {
          "indexed": true,
          "internalType": "address",
          "name": "newOwner",
          "type": "address"
        }
      ],
      "name": "OwnershipTransferred",
      "type": "event"
    },
    {
      "inputs": [
        {
          "internalType": "uint256",
          "name": "_idBrand",
          "type": "uint256"
        },
        {
          "internalType": "string",
          "name": "_name",
          "type": "string"
        },
        {
          "internalType": "uint256",
          "name": "_amount",
          "type": "uint256"
        },
        {
          "internalType": "uint256",
          "name": "_startDate",
          "type": "uint256"
        },
        {
          "internalType": "uint256",
          "name": "_endDate",
          "type": "uint256"
        }
      ],
      "name": "createCampaign",
      "outputs": [],
      "stateMutability": "nonpayable",
      "type": "function"
    },
    {
      "inputs": [
        {
          "internalType": "uint256",
          "name": "_idCampaign",
          "type": "uint256"
        }
      ],
      "name": "getCampaignById",
      "outputs": [
        {
          "internalType": "uint256",
          "name": "",
          "type": "uint256"
        },
        {
          "internalType": "uint256",
          "name": "",
          "type": "uint256"
        },
        {
          "internalType": "string",
          "name": "",
          "type": "string"
        },
        {
          "internalType": "uint256",
          "name": "",
          "type": "uint256"
        },
        {
          "internalType": "bool",
          "name": "",
          "type": "bool"
        },
        {
          "internalType": "uint256",
          "name": "",
          "type": "uint256"
        },
        {
          "internalType": "uint256",
          "name": "",
          "type": "uint256"
        }
      ],
      "stateMutability": "view",
      "type": "function"
    },
    {
      "inputs": [],
      "name": "idCampaign",
      "outputs": [
        {
          "internalType": "uint256",
          "name": "",
          "type": "uint256"
        }
      ],
      "stateMutability": "view",
      "type": "function"
    },
    {
      "inputs": [
        {
          "internalType": "uint256",
          "name": "_idCampaign",
          "type": "uint256"
        }
      ],
      "name": "isValidCampaign",
      "outputs": [
        {
          "internalType": "bool",
          "name": "",
          "type": "bool"
        }
      ],
      "stateMutability": "view",
      "type": "function"
    },
    {
      "inputs": [],
      "name": "owner",
      "outputs": [
        {
          "internalType": "address",
          "name": "",
          "type": "address"
        }
      ],
      "stateMutability": "view",
      "type": "function"
    },
    {
      "inputs": [],
      "name": "renounceOwnership",
      "outputs": [],
      "stateMutability": "nonpayable",
      "type": "function"
    },
    {
      "inputs": [],
      "name": "s_brandContract",
      "outputs": [
        {
          "internalType": "contract IBrand",
          "name": "",
          "type": "address"
        }
      ],
      "stateMutability": "view",
      "type": "function"
    },
    {
      "inputs": [
        {
          "internalType": "uint256",
          "name": "",
          "type": "uint256"
        }
      ],
      "name": "s_campaigns",
      "outputs": [
        {
          "internalType": "uint256",
          "name": "idCampaign",
          "type": "uint256"
        },
        {
          "internalType": "uint256",
          "name": "idBrand",
          "type": "uint256"
        },
        {
          "internalType": "string",
          "name": "name",
          "type": "string"
        },
        {
          "internalType": "uint256",
          "name": "amount",
          "type": "uint256"
        },
        {
          "internalType": "bool",
          "name": "active",
          "type": "bool"
        },
        {
          "internalType": "uint256",
          "name": "startDate",
          "type": "uint256"
        },
        {
          "internalType": "uint256",
          "name": "endDate",
          "type": "uint256"
        }
      ],
      "stateMutability": "view",
      "type": "function"
    },
    {
      "inputs": [
        {
          "internalType": "address",
          "name": "newOwner",
          "type": "address"
        }
      ],
      "name": "transferOwnership",
      "outputs": [],
      "stateMutability": "nonpayable",
      "type": "function"
    },
    {
      "inputs": [
        {
          "internalType": "uint256",
          "name": "_idCampaign",
          "type": "uint256"
        },
        {
          "internalType": "string",
          "name": "_name",
          "type": "string"
        },
        {
          "internalType": "uint256",
          "name": "_amount",
          "type": "uint256"
        },
        {
          "internalType": "uint256",
          "name": "_startDate",
          "type": "uint256"
        },
        {
          "internalType": "uint256",
          "name": "_endDate",
          "type": "uint256"
        }
      ],
      "name": "updateCampaign",
      "outputs": [],
      "stateMutability": "nonpayable",
      "type": "function"
    }
  ],
  "bytecode": "0x608060405234801561001057600080fd5b50604051611cbd380380611cbd83398181016040528101906100329190610292565b33600073ffffffffffffffffffffffffffffffffffffffff168173ffffffffffffffffffffffffffffffffffffffff16036100a55760006040517f1e4fbdf700000000000000000000000000000000000000000000000000000000815260040161009c91906102ce565b60405180910390fd5b6100b48161016b60201b60201c565b50600073ffffffffffffffffffffffffffffffffffffffff168173ffffffffffffffffffffffffffffffffffffffff1603610124576040517f08c379a000000000000000000000000000000000000000000000000000000000815260040161011b90610346565b60405180910390fd5b80600160006101000a81548173ffffffffffffffffffffffffffffffffffffffff021916908373ffffffffffffffffffffffffffffffffffffffff16021790555050610366565b60008060009054906101000a900473ffffffffffffffffffffffffffffffffffffffff169050816000806101000a81548173ffffffffffffffffffffffffffffffffffffffff021916908373ffffffffffffffffffffffffffffffffffffffff1602179055508173ffffffffffffffffffffffffffffffffffffffff168173ffffffffffffffffffffffffffffffffffffffff167f8be0079c531659141344cd1fd0a4f28419497f9722a3daafe3b4186f6b6457e060405160405180910390a35050565b600080fd5b600073ffffffffffffffffffffffffffffffffffffffff82169050919050565b600061025f82610234565b9050919050565b61026f81610254565b811461027a57600080fd5b50565b60008151905061028c81610266565b92915050565b6000602082840312156102a8576102a761022f565b5b60006102b68482850161027d565b91505092915050565b6102c881610254565b82525050565b60006020820190506102e360008301846102bf565b92915050565b600082825260208201905092915050565b7f496e76616c6964206272616e6420636f6e747261637420616464726573730000600082015250565b6000610330601e836102e9565b915061033b826102fa565b602082019050919050565b6000602082019050818103600083015261035f81610323565b9050919050565b611948806103756000396000f3fe608060405234801561001057600080fd5b506004361061009e5760003560e01c8063bdaa002111610066578063bdaa002114610121578063d8db634814610157578063e6ffcaa114610175578063f2fde38b146101ab578063f53d79a7146101c75761009e565b806312aa17fa146100a357806358c8b387146100c1578063715018a6146100dd5780638da5cb5b146100e7578063a7fce91d14610105575b600080fd5b6100ab6101f7565b6040516100b89190610d19565b60405180910390f35b6100db60048036038101906100d69190610ec4565b61021d565b005b6100e56104a0565b005b6100ef6104b4565b6040516100fc9190610f7c565b60405180910390f35b61011f600480360381019061011a9190610ec4565b6104dd565b005b61013b60048036038101906101369190610f97565b610630565b60405161014e979695949392919061106d565b60405180910390f35b61015f610707565b60405161016c91906110e3565b60405180910390f35b61018f600480360381019061018a9190610f97565b61070d565b6040516101a2979695949392919061106d565b60405180910390f35b6101c560048036038101906101c0919061112a565b61089e565b005b6101e160048036038101906101dc9190610f97565b610924565b6040516101ee9190611157565b60405180910390f35b600160009054906101000a900473ffffffffffffffffffffffffffffffffffffffff1681565b610225610b47565b600160009054906101000a900473ffffffffffffffffffffffffffffffffffffffff1673ffffffffffffffffffffffffffffffffffffffff16630736c432866040518263ffffffff1660e01b815260040161028091906110e3565b602060405180830381865afa15801561029d573d6000803e3d6000fd5b505050506040513d601f19601f820116820180604052508101906102c1919061119e565b610300576040517f08c379a00000000000000000000000000000000000000000000000000000000081526004016102f790611217565b60405180910390fd5b6000845111610344576040517f08c379a000000000000000000000000000000000000000000000000000000000815260040161033b90611283565b60405180910390fd5b818111610386576040517f08c379a000000000000000000000000000000000000000000000000000000000815260040161037d906112ef565b60405180910390fd5b600260008154809291906103999061133e565b919050555060006040518060e00160405280600254815260200187815260200186815260200185815260200160011515815260200184815260200183815250905080600360006002548152602001908152602001600020600082015181600001556020820151816001015560408201518160020190816104199190611588565b506060820151816003015560808201518160040160006101000a81548160ff02191690831515021790555060a0820151816005015560c08201518160060155905050856002547fb2e5bcf548311da0b9d03151691169233bc8f4ae8fe4e7075c1211ccaf2d8c08878760405161049092919061165a565b60405180910390a3505050505050565b6104a8610b47565b6104b26000610bce565b565b60008060009054906101000a900473ffffffffffffffffffffffffffffffffffffffff16905090565b6000600360008781526020019081526020016000209050600081600001540361053b576040517f08c379a0000000000000000000000000000000000000000000000000000000008152600401610532906116d6565b60405180910390fd5b600085511161057f576040517f08c379a000000000000000000000000000000000000000000000000000000000815260040161057690611283565b60405180910390fd5b8282116105c1576040517f08c379a00000000000000000000000000000000000000000000000000000000081526004016105b8906112ef565b60405180910390fd5b848160020190816105d29190611588565b50838160030181905550828160050181905550818160060181905550857f9ab9062b5287d083fd6fd99f5d5f9c6bafa499d8ae40cbcd58429d25925321e2868660405161062092919061165a565b60405180910390a2505050505050565b600360205280600052604060002060009150905080600001549080600101549080600201805461065f906113b5565b80601f016020809104026020016040519081016040528092919081815260200182805461068b906113b5565b80156106d85780601f106106ad576101008083540402835291602001916106d8565b820191906000526020600020905b8154815290600101906020018083116106bb57829003601f168201915b5050505050908060030154908060040160009054906101000a900460ff16908060050154908060060154905087565b60025481565b600080606060008060008061072188610924565b610760576040517f08c379a000000000000000000000000000000000000000000000000000000000815260040161075790611742565b60405180910390fd5b6000600360008a81526020019081526020016000206040518060e001604052908160008201548152602001600182015481526020016002820180546107a4906113b5565b80601f01602080910402602001604051908101604052809291908181526020018280546107d0906113b5565b801561081d5780601f106107f25761010080835404028352916020019161081d565b820191906000526020600020905b81548152906001019060200180831161080057829003601f168201915b50505050508152602001600382015481526020016004820160009054906101000a900460ff16151515158152602001600582015481526020016006820154815250509050806000015181602001518260400151836060015184608001518560a001518660c00151975097509750975097509750975050919395979092949650565b6108a6610b47565b600073ffffffffffffffffffffffffffffffffffffffff168173ffffffffffffffffffffffffffffffffffffffff16036109185760006040517f1e4fbdf700000000000000000000000000000000000000000000000000000000815260040161090f9190610f7c565b60405180910390fd5b61092181610bce565b50565b600080600360008481526020019081526020016000206040518060e00160405290816000820154815260200160018201548152602001600282018054610969906113b5565b80601f0160208091040260200160405190810160405280929190818152602001828054610995906113b5565b80156109e25780601f106109b7576101008083540402835291602001916109e2565b820191906000526020600020905b8154815290600101906020018083116109c557829003601f168201915b50505050508152602001600382015481526020016004820160009054906101000a900460ff16151515158152602001600582015481526020016006820154815250509050600254831115610a6b576040517f08c379a0000000000000000000000000000000000000000000000000000000008152600401610a62906117ae565b60405180910390fd5b6000816000015103610ab2576040517f08c379a0000000000000000000000000000000000000000000000000000000008152600401610aa99061181a565b60405180910390fd5b8060800151610af6576040517f08c379a0000000000000000000000000000000000000000000000000000000008152600401610aed90611886565b60405180910390fd5b8060c00151421115610b3d576040517f08c379a0000000000000000000000000000000000000000000000000000000008152600401610b34906118f2565b60405180910390fd5b6001915050919050565b610b4f610c92565b73ffffffffffffffffffffffffffffffffffffffff16610b6d6104b4565b73ffffffffffffffffffffffffffffffffffffffff1614610bcc57610b90610c92565b6040517f118cdaa7000000000000000000000000000000000000000000000000000000008152600401610bc39190610f7c565b60405180910390fd5b565b60008060009054906101000a900473ffffffffffffffffffffffffffffffffffffffff169050816000806101000a81548173ffffffffffffffffffffffffffffffffffffffff021916908373ffffffffffffffffffffffffffffffffffffffff1602179055508173ffffffffffffffffffffffffffffffffffffffff168173ffffffffffffffffffffffffffffffffffffffff167f8be0079c531659141344cd1fd0a4f28419497f9722a3daafe3b4186f6b6457e060405160405180910390a35050565b600033905090565b600073ffffffffffffffffffffffffffffffffffffffff82169050919050565b6000819050919050565b6000610cdf610cda610cd584610c9a565b610cba565b610c9a565b9050919050565b6000610cf182610cc4565b9050919050565b6000610d0382610ce6565b9050919050565b610d1381610cf8565b82525050565b6000602082019050610d2e6000830184610d0a565b92915050565b6000604051905090565b600080fd5b600080fd5b6000819050919050565b610d5b81610d48565b8114610d6657600080fd5b50565b600081359050610d7881610d52565b92915050565b600080fd5b600080fd5b6000601f19601f8301169050919050565b7f4e487b7100000000000000000000000000000000000000000000000000000000600052604160045260246000fd5b610dd182610d88565b810181811067ffffffffffffffff82111715610df057610def610d99565b5b80604052505050565b6000610e03610d34565b9050610e0f8282610dc8565b919050565b600067ffffffffffffffff821115610e2f57610e2e610d99565b5b610e3882610d88565b9050602081019050919050565b82818337600083830152505050565b6000610e67610e6284610e14565b610df9565b905082815260208101848484011115610e8357610e82610d83565b5b610e8e848285610e45565b509392505050565b600082601f830112610eab57610eaa610d7e565b5b8135610ebb848260208601610e54565b91505092915050565b600080600080600060a08688031215610ee057610edf610d3e565b5b6000610eee88828901610d69565b955050602086013567ffffffffffffffff811115610f0f57610f0e610d43565b5b610f1b88828901610e96565b9450506040610f2c88828901610d69565b9350506060610f3d88828901610d69565b9250506080610f4e88828901610d69565b9150509295509295909350565b6000610f6682610c9a565b9050919050565b610f7681610f5b565b82525050565b6000602082019050610f916000830184610f6d565b92915050565b600060208284031215610fad57610fac610d3e565b5b6000610fbb84828501610d69565b91505092915050565b610fcd81610d48565b82525050565b600081519050919050565b600082825260208201905092915050565b60005b8381101561100d578082015181840152602081019050610ff2565b60008484015250505050565b600061102482610fd3565b61102e8185610fde565b935061103e818560208601610fef565b61104781610d88565b840191505092915050565b60008115159050919050565b61106781611052565b82525050565b600060e082019050611082600083018a610fc4565b61108f6020830189610fc4565b81810360408301526110a18188611019565b90506110b06060830187610fc4565b6110bd608083018661105e565b6110ca60a0830185610fc4565b6110d760c0830184610fc4565b98975050505050505050565b60006020820190506110f86000830184610fc4565b92915050565b61110781610f5b565b811461111257600080fd5b50565b600081359050611124816110fe565b92915050565b6000602082840312156111405761113f610d3e565b5b600061114e84828501611115565b91505092915050565b600060208201905061116c600083018461105e565b92915050565b61117b81611052565b811461118657600080fd5b50565b60008151905061119881611172565b92915050565b6000602082840312156111b4576111b3610d3e565b5b60006111c284828501611189565b91505092915050565b7f496e76616c6964206272616e6400000000000000000000000000000000000000600082015250565b6000611201600d83610fde565b915061120c826111cb565b602082019050919050565b60006020820190508181036000830152611230816111f4565b9050919050565b7f496e76616c69642063616d706169676e206e616d650000000000000000000000600082015250565b600061126d601583610fde565b915061127882611237565b602082019050919050565b6000602082019050818103600083015261129c81611260565b9050919050565b7f496e76616c696420646174657300000000000000000000000000000000000000600082015250565b60006112d9600d83610fde565b91506112e4826112a3565b602082019050919050565b60006020820190508181036000830152611308816112cc565b9050919050565b7f4e487b7100000000000000000000000000000000000000000000000000000000600052601160045260246000fd5b600061134982610d48565b91507fffffffffffffffffffffffffffffffffffffffffffffffffffffffffffffffff820361137b5761137a61130f565b5b600182019050919050565b7f4e487b7100000000000000000000000000000000000000000000000000000000600052602260045260246000fd5b600060028204905060018216806113cd57607f821691505b6020821081036113e0576113df611386565b5b50919050565b60008190508160005260206000209050919050565b60006020601f8301049050919050565b600082821b905092915050565b6000600883026114487fffffffffffffffffffffffffffffffffffffffffffffffffffffffffffffffff8261140b565b611452868361140b565b95508019841693508086168417925050509392505050565b600061148561148061147b84610d48565b610cba565b610d48565b9050919050565b6000819050919050565b61149f8361146a565b6114b36114ab8261148c565b848454611418565b825550505050565b600090565b6114c86114bb565b6114d3818484611496565b505050565b5b818110156114f7576114ec6000826114c0565b6001810190506114d9565b5050565b601f82111561153c5761150d816113e6565b611516846113fb565b81016020851015611525578190505b611539611531856113fb565b8301826114d8565b50505b505050565b600082821c905092915050565b600061155f60001984600802611541565b1980831691505092915050565b6000611578838361154e565b9150826002028217905092915050565b61159182610fd3565b67ffffffffffffffff8111156115aa576115a9610d99565b5b6115b482546113b5565b6115bf8282856114fb565b600060209050601f8311600181146115f257600084156115e0578287015190505b6115ea858261156c565b865550611652565b601f198416611600866113e6565b60005b8281101561162857848901518255600182019150602085019450602081019050611603565b868310156116455784890151611641601f89168261154e565b8355505b6001600288020188555050505b505050505050565b600060408201905081810360008301526116748185611019565b90506116836020830184610fc4565b9392505050565b7f43616d706169676e206e6f7420666f756e640000000000000000000000000000600082015250565b60006116c0601283610fde565b91506116cb8261168a565b602082019050919050565b600060208201905081810360008301526116ef816116b3565b9050919050565b7f43616d706169676e20494420696e76616c696400000000000000000000000000600082015250565b600061172c601383610fde565b9150611737826116f6565b602082019050919050565b6000602082019050818103600083015261175b8161171f565b9050919050565b7f496e76616c69642043616d706169676e20494400000000000000000000000000600082015250565b6000611798601383610fde565b91506117a382611762565b602082019050919050565b600060208201905081810360008301526117c78161178b565b9050919050565b7f496e76616c69642043616d706169676e00000000000000000000000000000000600082015250565b6000611804601083610fde565b915061180f826117ce565b602082019050919050565b60006020820190508181036000830152611833816117f7565b9050919050565b7f43616d706169676e20696e616374697665000000000000000000000000000000600082015250565b6000611870601183610fde565b915061187b8261183a565b602082019050919050565b6000602082019050818103600083015261189f81611863565b9050919050565b7f43616d706169676e2068617320656e6465640000000000000000000000000000600082015250565b60006118dc601283610fde565b91506118e7826118a6565b602082019050919050565b6000602082019050818103600083015261190b816118cf565b905091905056fea2646970667358221220c276b1b679be863578b52fcafa08a293f827903c3baf0d4de46523c00fc085f864736f6c63430008190033",
  "linkReferences": {},
  "deployedLinkReferences": {}
}