{
  "_format": "hh-sol-artifact-1",
  "contractName": "Sherry",
  "sourceName": "src/Sherry.sol",
  "abi": [
    {
      "inputs": [
        {
          "internalType": "address",
          "name": "_brandContract",
          "type": "address"
        },
        {
          "internalType": "address",
          "name": "_campaignContract",
          "type": "address"
        },
        {
          "internalType": "address",
          "name": "_kolContract",
          "type": "address"
        }
      ],
      "stateMutability": "nonpayable",
      "type": "constructor"
    },
    {
      "inputs": [
        {
          "internalType": "address",
          "name": "owner",
          "type": "address"
        }
      ],
      "name": "OwnableInvalidOwner",
      "type": "error"
    },
    {
      "inputs": [
        {
          "internalType": "address",
          "name": "account",
          "type": "address"
        }
      ],
      "name": "OwnableUnauthorizedAccount",
      "type": "error"
    },
    {
      "anonymous": false,
      "inputs": [
        {
          "indexed": true,
          "internalType": "address",
          "name": "previousOwner",
          "type": "address"
        },
        {
          "indexed": true,
          "internalType": "address",
          "name": "newOwner",
          "type": "address"
        }
      ],
      "name": "OwnershipTransferred",
      "type": "event"
    },
    {
      "anonymous": false,
      "inputs": [
        {
          "indexed": true,
          "internalType": "uint256",
          "name": "idPost",
          "type": "uint256"
        },
        {
          "indexed": true,
          "internalType": "address",
          "name": "kol",
          "type": "address"
        },
        {
          "indexed": true,
          "internalType": "uint256",
          "name": "idCampaign",
          "type": "uint256"
        },
        {
          "indexed": false,
          "internalType": "string",
          "name": "url",
          "type": "string"
        }
      ],
      "name": "PostCreated",
      "type": "event"
    },
    {
      "anonymous": false,
      "inputs": [
        {
          "indexed": true,
          "internalType": "uint256",
          "name": "idPost",
          "type": "uint256"
        },
        {
          "indexed": true,
          "internalType": "address",
          "name": "voter",
          "type": "address"
        }
      ],
      "name": "Voted",
      "type": "event"
    },
    {
      "inputs": [
        {
          "internalType": "uint256",
          "name": "_idKolCampaign",
          "type": "uint256"
        },
        {
          "internalType": "string",
          "name": "_url",
          "type": "string"
        }
      ],
      "name": "createPost",
      "outputs": [],
      "stateMutability": "nonpayable",
      "type": "function"
    },
    {
      "inputs": [
        {
          "internalType": "uint256",
          "name": "_idPost",
          "type": "uint256"
        }
      ],
      "name": "getUri",
      "outputs": [
        {
          "internalType": "string",
          "name": "",
          "type": "string"
        }
      ],
      "stateMutability": "view",
      "type": "function"
    },
    {
      "inputs": [],
      "name": "i_brandContract",
      "outputs": [
        {
          "internalType": "contract IBrand",
          "name": "",
          "type": "address"
        }
      ],
      "stateMutability": "view",
      "type": "function"
    },
    {
      "inputs": [],
      "name": "i_campaignContract",
      "outputs": [
        {
          "internalType": "contract ICampaign",
          "name": "",
          "type": "address"
        }
      ],
      "stateMutability": "view",
      "type": "function"
    },
    {
      "inputs": [],
      "name": "i_kolContract",
      "outputs": [
        {
          "internalType": "contract IKOL",
          "name": "",
          "type": "address"
        }
      ],
      "stateMutability": "view",
      "type": "function"
    },
    {
      "inputs": [],
      "name": "idPost",
      "outputs": [
        {
          "internalType": "uint256",
          "name": "",
          "type": "uint256"
        }
      ],
      "stateMutability": "view",
      "type": "function"
    },
    {
      "inputs": [],
      "name": "owner",
      "outputs": [
        {
          "internalType": "address",
          "name": "",
          "type": "address"
        }
      ],
      "stateMutability": "view",
      "type": "function"
    },
    {
      "inputs": [
        {
          "internalType": "uint256",
          "name": "",
          "type": "uint256"
        }
      ],
      "name": "posts",
      "outputs": [
        {
          "internalType": "uint256",
          "name": "idKolCampaign",
          "type": "uint256"
        },
        {
          "internalType": "address",
          "name": "kol",
          "type": "address"
        },
        {
          "internalType": "uint256",
          "name": "idCampaign",
          "type": "uint256"
        },
        {
          "internalType": "string",
          "name": "url",
          "type": "string"
        }
      ],
      "stateMutability": "view",
      "type": "function"
    },
    {
      "inputs": [],
      "name": "renounceOwnership",
      "outputs": [],
      "stateMutability": "nonpayable",
      "type": "function"
    },
    {
      "inputs": [
        {
          "internalType": "uint256",
          "name": "",
          "type": "uint256"
        }
      ],
      "name": "s_posts",
      "outputs": [
        {
          "internalType": "uint256",
          "name": "idKolCampaign",
          "type": "uint256"
        },
        {
          "internalType": "address",
          "name": "kol",
          "type": "address"
        },
        {
          "internalType": "uint256",
          "name": "idCampaign",
          "type": "uint256"
        },
        {
          "internalType": "string",
          "name": "url",
          "type": "string"
        }
      ],
      "stateMutability": "view",
      "type": "function"
    },
    {
      "inputs": [
        {
          "internalType": "uint256",
          "name": "",
          "type": "uint256"
        }
      ],
      "name": "s_votes",
      "outputs": [
        {
          "internalType": "uint256",
          "name": "",
          "type": "uint256"
        }
      ],
      "stateMutability": "view",
      "type": "function"
    },
    {
      "inputs": [
        {
          "internalType": "uint256",
          "name": "",
          "type": "uint256"
        },
        {
          "internalType": "address",
          "name": "",
          "type": "address"
        }
      ],
      "name": "s_votesByCampaign",
      "outputs": [
        {
          "internalType": "bool",
          "name": "",
          "type": "bool"
        }
      ],
      "stateMutability": "view",
      "type": "function"
    },
    {
      "inputs": [
        {
          "internalType": "uint256",
          "name": "",
          "type": "uint256"
        },
        {
          "internalType": "address",
          "name": "",
          "type": "address"
        }
      ],
      "name": "s_votesFollowers",
      "outputs": [
        {
          "internalType": "bool",
          "name": "",
          "type": "bool"
        }
      ],
      "stateMutability": "view",
      "type": "function"
    },
    {
      "inputs": [
        {
          "internalType": "address",
          "name": "newOwner",
          "type": "address"
        }
      ],
      "name": "transferOwnership",
      "outputs": [],
      "stateMutability": "nonpayable",
      "type": "function"
    },
    {
      "inputs": [
        {
          "internalType": "uint256",
          "name": "_idPost",
          "type": "uint256"
        },
        {
          "internalType": "address",
          "name": "_voter",
          "type": "address"
        }
      ],
      "name": "vote",
      "outputs": [
        {
          "internalType": "bool",
          "name": "",
          "type": "bool"
        }
      ],
      "stateMutability": "nonpayable",
      "type": "function"
    }
  ],
  "bytecode": "0x608060405234801561001057600080fd5b50604051611e7b380380611e7b833981810160405281019061003291906103f4565b33600073ffffffffffffffffffffffffffffffffffffffff168173ffffffffffffffffffffffffffffffffffffffff16036100a55760006040517f1e4fbdf700000000000000000000000000000000000000000000000000000000815260040161009c9190610456565b60405180910390fd5b6100b4816102cd60201b60201c565b50600073ffffffffffffffffffffffffffffffffffffffff168373ffffffffffffffffffffffffffffffffffffffff1603610124576040517f08c379a000000000000000000000000000000000000000000000000000000000815260040161011b906104ce565b60405180910390fd5b600073ffffffffffffffffffffffffffffffffffffffff168273ffffffffffffffffffffffffffffffffffffffff1603610193576040517f08c379a000000000000000000000000000000000000000000000000000000000815260040161018a90610560565b60405180910390fd5b600073ffffffffffffffffffffffffffffffffffffffff168173ffffffffffffffffffffffffffffffffffffffff1603610202576040517f08c379a00000000000000000000000000000000000000000000000000000000081526004016101f9906105cc565b60405180910390fd5b82600160006101000a81548173ffffffffffffffffffffffffffffffffffffffff021916908373ffffffffffffffffffffffffffffffffffffffff16021790555081600260006101000a81548173ffffffffffffffffffffffffffffffffffffffff021916908373ffffffffffffffffffffffffffffffffffffffff16021790555080600360006101000a81548173ffffffffffffffffffffffffffffffffffffffff021916908373ffffffffffffffffffffffffffffffffffffffff1602179055505050506105ec565b60008060009054906101000a900473ffffffffffffffffffffffffffffffffffffffff169050816000806101000a81548173ffffffffffffffffffffffffffffffffffffffff021916908373ffffffffffffffffffffffffffffffffffffffff1602179055508173ffffffffffffffffffffffffffffffffffffffff168173ffffffffffffffffffffffffffffffffffffffff167f8be0079c531659141344cd1fd0a4f28419497f9722a3daafe3b4186f6b6457e060405160405180910390a35050565b600080fd5b600073ffffffffffffffffffffffffffffffffffffffff82169050919050565b60006103c182610396565b9050919050565b6103d1816103b6565b81146103dc57600080fd5b50565b6000815190506103ee816103c8565b92915050565b60008060006060848603121561040d5761040c610391565b5b600061041b868287016103df565b935050602061042c868287016103df565b925050604061043d868287016103df565b9150509250925092565b610450816103b6565b82525050565b600060208201905061046b6000830184610447565b92915050565b600082825260208201905092915050565b7f496e76616c6964206272616e6420636f6e747261637420616464726573730000600082015250565b60006104b8601e83610471565b91506104c382610482565b602082019050919050565b600060208201905081810360008301526104e7816104ab565b9050919050565b7f496e76616c69642063616d706169676e20636f6e74726163742061646472657360008201527f7300000000000000000000000000000000000000000000000000000000000000602082015250565b600061054a602183610471565b9150610555826104ee565b604082019050919050565b600060208201905081810360008301526105798161053d565b9050919050565b7f496e76616c6964204b4f4c20636f6e7472616374206164647265737300000000600082015250565b60006105b6601c83610471565b91506105c182610580565b602082019050919050565b600060208201905081810360008301526105e5816105a9565b9050919050565b611880806105fb6000396000f3fe608060405234801561001057600080fd5b50600436106100f55760003560e01c8063715018a611610097578063d70c613011610066578063d70c6130146102a0578063da0544aa146102be578063f2f37399146102ee578063f2fde38b1461030c576100f5565b8063715018a61461023e5780638da5cb5b146102485780639197cc3714610266578063a9ca3a4c14610284576100f5565b8063354219f2116100d3578063354219f21461017b578063493cd9b5146101ab5780634bd6caf1146101db5780634e04a4d21461020b576100f5565b806302d947ef146100fa5780630b1e7f831461012a57806326e75bad1461015d575b600080fd5b610114600480360381019061010f9190610eac565b610328565b6040516101219190610f07565b60405180910390f35b610144600480360381019061013f9190610f22565b610585565b6040516101549493929190610ffd565b60405180910390f35b61016561066d565b60405161017291906110a8565b60405180910390f35b61019560048036038101906101909190610eac565b610693565b6040516101a29190610f07565b60405180910390f35b6101c560048036038101906101c09190610eac565b6106c2565b6040516101d29190610f07565b60405180910390f35b6101f560048036038101906101f09190610f22565b6106f1565b60405161020291906110c3565b60405180910390f35b61022560048036038101906102209190610f22565b610709565b6040516102359493929190610ffd565b60405180910390f35b6102466107e1565b005b6102506107f5565b60405161025d91906110de565b60405180910390f35b61026e61081e565b60405161027b919061111a565b60405180910390f35b61029e6004803603810190610299919061126a565b610844565b005b6102a8610afe565b6040516102b591906112e7565b60405180910390f35b6102d860048036038101906102d39190610f22565b610b24565b6040516102e59190611302565b60405180910390f35b6102f6610c25565b60405161030391906110c3565b60405180910390f35b61032660048036038101906103219190611324565b610c2b565b005b600080600660008581526020019081526020016000206002015403610382576040517f08c379a00000000000000000000000000000000000000000000000000000000081526004016103799061139d565b60405180910390fd5b6000600660008581526020019081526020016000206002015490506009600082815260200190815260200160002060008473ffffffffffffffffffffffffffffffffffffffff1673ffffffffffffffffffffffffffffffffffffffff16815260200190815260200160002060009054906101000a900460ff161561043b576040517f08c379a000000000000000000000000000000000000000000000000000000000815260040161043290611409565b60405180910390fd5b60016009600083815260200190815260200160002060008573ffffffffffffffffffffffffffffffffffffffff1673ffffffffffffffffffffffffffffffffffffffff16815260200190815260200160002060006101000a81548160ff02191690831515021790555060016007600086815260200190815260200160002060008573ffffffffffffffffffffffffffffffffffffffff1673ffffffffffffffffffffffffffffffffffffffff16815260200190815260200160002060006101000a81548160ff02191690831515021790555060086000858152602001908152602001600020600081548092919061053190611458565b91905055508273ffffffffffffffffffffffffffffffffffffffff16847f030b0f8dcd86a031eddb071f91882edeac8173663ba775713b677b42b51be44b60405160405180910390a3600191505092915050565b6005818154811061059557600080fd5b90600052602060002090600402016000915090508060000154908060010160009054906101000a900473ffffffffffffffffffffffffffffffffffffffff16908060020154908060030180546105ea906114cf565b80601f0160208091040260200160405190810160405280929190818152602001828054610616906114cf565b80156106635780601f1061063857610100808354040283529160200191610663565b820191906000526020600020905b81548152906001019060200180831161064657829003601f168201915b5050505050905084565b600360009054906101000a900473ffffffffffffffffffffffffffffffffffffffff1681565b60076020528160005260406000206020528060005260406000206000915091509054906101000a900460ff1681565b60096020528160005260406000206020528060005260406000206000915091509054906101000a900460ff1681565b60086020528060005260406000206000915090505481565b60066020528060005260406000206000915090508060000154908060010160009054906101000a900473ffffffffffffffffffffffffffffffffffffffff169080600201549080600301805461075e906114cf565b80601f016020809104026020016040519081016040528092919081815260200182805461078a906114cf565b80156107d75780601f106107ac576101008083540402835291602001916107d7565b820191906000526020600020905b8154815290600101906020018083116107ba57829003601f168201915b5050505050905084565b6107e9610cb1565b6107f36000610d38565b565b60008060009054906101000a900473ffffffffffffffffffffffffffffffffffffffff16905090565b600160009054906101000a900473ffffffffffffffffffffffffffffffffffffffff1681565b600080600360009054906101000a900473ffffffffffffffffffffffffffffffffffffffff1673ffffffffffffffffffffffffffffffffffffffff16639f7dff74856040518263ffffffff1660e01b81526004016108a291906110c3565b6040805180830381865afa1580156108be573d6000803e3d6000fd5b505050506040513d601f19601f820116820180604052508101906108e2919061152a565b9150915060008103610929576040517f08c379a0000000000000000000000000000000000000000000000000000000008152600401610920906115b6565b60405180910390fd5b6004600081548092919061093c90611458565b9190505550600060405180608001604052808681526020018473ffffffffffffffffffffffffffffffffffffffff168152602001838152602001858152509050806006600060045481526020019081526020016000206000820151816000015560208201518160010160006101000a81548173ffffffffffffffffffffffffffffffffffffffff021916908373ffffffffffffffffffffffffffffffffffffffff160217905550604082015181600201556060820151816003019081610a029190611778565b5090505060058190806001815401808255809150506001900390600052602060002090600402016000909190919091506000820151816000015560208201518160010160006101000a81548173ffffffffffffffffffffffffffffffffffffffff021916908373ffffffffffffffffffffffffffffffffffffffff160217905550604082015181600201556060820151816003019081610aa29190611778565b505050818373ffffffffffffffffffffffffffffffffffffffff166004547f9916d9555ce25964e46f39ee4190250e45c845fb11f2de41925e973aff6ad05187604051610aef9190611302565b60405180910390a45050505050565b600260009054906101000a900473ffffffffffffffffffffffffffffffffffffffff1681565b60606000600660008481526020019081526020016000206002015403610b7f576040517f08c379a0000000000000000000000000000000000000000000000000000000008152600401610b769061139d565b60405180910390fd5b600660008381526020019081526020016000206003018054610ba0906114cf565b80601f0160208091040260200160405190810160405280929190818152602001828054610bcc906114cf565b8015610c195780601f10610bee57610100808354040283529160200191610c19565b820191906000526020600020905b815481529060010190602001808311610bfc57829003601f168201915b50505050509050919050565b60045481565b610c33610cb1565b600073ffffffffffffffffffffffffffffffffffffffff168173ffffffffffffffffffffffffffffffffffffffff1603610ca55760006040517f1e4fbdf7000000000000000000000000000000000000000000000000000000008152600401610c9c91906110de565b60405180910390fd5b610cae81610d38565b50565b610cb9610dfc565b73ffffffffffffffffffffffffffffffffffffffff16610cd76107f5565b73ffffffffffffffffffffffffffffffffffffffff1614610d3657610cfa610dfc565b6040517f118cdaa7000000000000000000000000000000000000000000000000000000008152600401610d2d91906110de565b60405180910390fd5b565b60008060009054906101000a900473ffffffffffffffffffffffffffffffffffffffff169050816000806101000a81548173ffffffffffffffffffffffffffffffffffffffff021916908373ffffffffffffffffffffffffffffffffffffffff1602179055508173ffffffffffffffffffffffffffffffffffffffff168173ffffffffffffffffffffffffffffffffffffffff167f8be0079c531659141344cd1fd0a4f28419497f9722a3daafe3b4186f6b6457e060405160405180910390a35050565b600033905090565b6000604051905090565b600080fd5b600080fd5b6000819050919050565b610e2b81610e18565b8114610e3657600080fd5b50565b600081359050610e4881610e22565b92915050565b600073ffffffffffffffffffffffffffffffffffffffff82169050919050565b6000610e7982610e4e565b9050919050565b610e8981610e6e565b8114610e9457600080fd5b50565b600081359050610ea681610e80565b92915050565b60008060408385031215610ec357610ec2610e0e565b5b6000610ed185828601610e39565b9250506020610ee285828601610e97565b9150509250929050565b60008115159050919050565b610f0181610eec565b82525050565b6000602082019050610f1c6000830184610ef8565b92915050565b600060208284031215610f3857610f37610e0e565b5b6000610f4684828501610e39565b91505092915050565b610f5881610e18565b82525050565b610f6781610e6e565b82525050565b600081519050919050565b600082825260208201905092915050565b60005b83811015610fa7578082015181840152602081019050610f8c565b60008484015250505050565b6000601f19601f8301169050919050565b6000610fcf82610f6d565b610fd98185610f78565b9350610fe9818560208601610f89565b610ff281610fb3565b840191505092915050565b60006080820190506110126000830187610f4f565b61101f6020830186610f5e565b61102c6040830185610f4f565b818103606083015261103e8184610fc4565b905095945050505050565b6000819050919050565b600061106e61106961106484610e4e565b611049565b610e4e565b9050919050565b600061108082611053565b9050919050565b600061109282611075565b9050919050565b6110a281611087565b82525050565b60006020820190506110bd6000830184611099565b92915050565b60006020820190506110d86000830184610f4f565b92915050565b60006020820190506110f36000830184610f5e565b92915050565b600061110482611075565b9050919050565b611114816110f9565b82525050565b600060208201905061112f600083018461110b565b92915050565b600080fd5b600080fd5b7f4e487b7100000000000000000000000000000000000000000000000000000000600052604160045260246000fd5b61117782610fb3565b810181811067ffffffffffffffff821117156111965761119561113f565b5b80604052505050565b60006111a9610e04565b90506111b5828261116e565b919050565b600067ffffffffffffffff8211156111d5576111d461113f565b5b6111de82610fb3565b9050602081019050919050565b82818337600083830152505050565b600061120d611208846111ba565b61119f565b9050828152602081018484840111156112295761122861113a565b5b6112348482856111eb565b509392505050565b600082601f83011261125157611250611135565b5b81356112618482602086016111fa565b91505092915050565b6000806040838503121561128157611280610e0e565b5b600061128f85828601610e39565b925050602083013567ffffffffffffffff8111156112b0576112af610e13565b5b6112bc8582860161123c565b9150509250929050565b60006112d182611075565b9050919050565b6112e1816112c6565b82525050565b60006020820190506112fc60008301846112d8565b92915050565b6000602082019050818103600083015261131c8184610fc4565b905092915050565b60006020828403121561133a57611339610e0e565b5b600061134884828501610e97565b91505092915050565b7f706f7374206e6f7420666f756e64000000000000000000000000000000000000600082015250565b6000611387600e83610f78565b915061139282611351565b602082019050919050565b600060208201905081810360008301526113b68161137a565b9050919050565b7f416c726561647920766f74656420666f7220746869732063616d706169676e00600082015250565b60006113f3601f83610f78565b91506113fe826113bd565b602082019050919050565b60006020820190508181036000830152611422816113e6565b9050919050565b7f4e487b7100000000000000000000000000000000000000000000000000000000600052601160045260246000fd5b600061146382610e18565b91507fffffffffffffffffffffffffffffffffffffffffffffffffffffffffffffffff820361149557611494611429565b5b600182019050919050565b7f4e487b7100000000000000000000000000000000000000000000000000000000600052602260045260246000fd5b600060028204905060018216806114e757607f821691505b6020821081036114fa576114f96114a0565b5b50919050565b60008151905061150f81610e80565b92915050565b60008151905061152481610e22565b92915050565b6000806040838503121561154157611540610e0e565b5b600061154f85828601611500565b925050602061156085828601611515565b9150509250929050565b7f43616d706169676e206e6f7420666f756e640000000000000000000000000000600082015250565b60006115a0601283610f78565b91506115ab8261156a565b602082019050919050565b600060208201905081810360008301526115cf81611593565b9050919050565b60008190508160005260206000209050919050565b60006020601f8301049050919050565b600082821b905092915050565b6000600883026116387fffffffffffffffffffffffffffffffffffffffffffffffffffffffffffffffff826115fb565b61164286836115fb565b95508019841693508086168417925050509392505050565b600061167561167061166b84610e18565b611049565b610e18565b9050919050565b6000819050919050565b61168f8361165a565b6116a361169b8261167c565b848454611608565b825550505050565b600090565b6116b86116ab565b6116c3818484611686565b505050565b5b818110156116e7576116dc6000826116b0565b6001810190506116c9565b5050565b601f82111561172c576116fd816115d6565b611706846115eb565b81016020851015611715578190505b611729611721856115eb565b8301826116c8565b50505b505050565b600082821c905092915050565b600061174f60001984600802611731565b1980831691505092915050565b6000611768838361173e565b9150826002028217905092915050565b61178182610f6d565b67ffffffffffffffff81111561179a5761179961113f565b5b6117a482546114cf565b6117af8282856116eb565b600060209050601f8311600181146117e257600084156117d0578287015190505b6117da858261175c565b865550611842565b601f1984166117f0866115d6565b60005b82811015611818578489015182556001820191506020850194506020810190506117f3565b868310156118355784890151611831601f89168261173e565b8355505b6001600288020188555050505b50505050505056fea264697066735822122091e9c12a5e2ced14f64cb82631403a23ed7809b758bb5bd6fed60ab09ea5c81864736f6c63430008190033",
  "linkReferences": {},
  "deployedLinkReferences": {}
}