{
  "_format": "hh-sol-artifact-1",
  "contractName": "Campaign",
  "sourceName": "contracts/Campaign.sol",
  "abi": [
    {
      "inputs": [
        {
          "internalType": "address",
          "name": "_brandContract",
          "type": "address"
        }
      ],
      "stateMutability": "nonpayable",
      "type": "constructor"
    },
    {
      "inputs": [
        {
          "internalType": "address",
          "name": "owner",
          "type": "address"
        }
      ],
      "name": "OwnableInvalidOwner",
      "type": "error"
    },
    {
      "inputs": [
        {
          "internalType": "address",
          "name": "account",
          "type": "address"
        }
      ],
      "name": "OwnableUnauthorizedAccount",
      "type": "error"
    },
    {
      "anonymous": false,
      "inputs": [
        {
          "indexed": true,
          "internalType": "address",
          "name": "previousOwner",
          "type": "address"
        },
        {
          "indexed": true,
          "internalType": "address",
          "name": "newOwner",
          "type": "address"
        }
      ],
      "name": "OwnershipTransferred",
      "type": "event"
    },
    {
      "inputs": [],
      "name": "brandContract",
      "outputs": [
        {
          "internalType": "contract Brand",
          "name": "",
          "type": "address"
        }
      ],
      "stateMutability": "view",
      "type": "function"
    },
    {
      "inputs": [
        {
          "internalType": "uint256",
          "name": "",
          "type": "uint256"
        }
      ],
      "name": "campaigns",
      "outputs": [
        {
          "internalType": "uint256",
          "name": "idCampaign",
          "type": "uint256"
        },
        {
          "internalType": "uint256",
          "name": "idBrand",
          "type": "uint256"
        },
        {
          "internalType": "string",
          "name": "name",
          "type": "string"
        },
        {
          "internalType": "uint256",
          "name": "amount",
          "type": "uint256"
        },
        {
          "internalType": "bool",
          "name": "active",
          "type": "bool"
        },
        {
          "internalType": "uint256",
          "name": "startDate",
          "type": "uint256"
        },
        {
          "internalType": "uint256",
          "name": "endDate",
          "type": "uint256"
        }
      ],
      "stateMutability": "view",
      "type": "function"
    },
    {
      "inputs": [
        {
          "internalType": "uint256",
          "name": "_idBrand",
          "type": "uint256"
        },
        {
          "internalType": "string",
          "name": "_name",
          "type": "string"
        },
        {
          "internalType": "uint256",
          "name": "_amount",
          "type": "uint256"
        },
        {
          "internalType": "uint256",
          "name": "_startDate",
          "type": "uint256"
        },
        {
          "internalType": "uint256",
          "name": "_endDate",
          "type": "uint256"
        }
      ],
      "name": "createCampaign",
      "outputs": [],
      "stateMutability": "nonpayable",
      "type": "function"
    },
    {
      "inputs": [],
      "name": "idCampaign",
      "outputs": [
        {
          "internalType": "uint256",
          "name": "",
          "type": "uint256"
        }
      ],
      "stateMutability": "view",
      "type": "function"
    },
    {
      "inputs": [
        {
          "internalType": "uint256",
          "name": "_idCampaign",
          "type": "uint256"
        }
      ],
      "name": "isValidCampaign",
      "outputs": [
        {
          "internalType": "bool",
          "name": "",
          "type": "bool"
        }
      ],
      "stateMutability": "view",
      "type": "function"
    },
    {
      "inputs": [],
      "name": "owner",
      "outputs": [
        {
          "internalType": "address",
          "name": "",
          "type": "address"
        }
      ],
      "stateMutability": "view",
      "type": "function"
    },
    {
      "inputs": [],
      "name": "renounceOwnership",
      "outputs": [],
      "stateMutability": "nonpayable",
      "type": "function"
    },
    {
      "inputs": [
        {
          "internalType": "address",
          "name": "newOwner",
          "type": "address"
        }
      ],
      "name": "transferOwnership",
      "outputs": [],
      "stateMutability": "nonpayable",
      "type": "function"
    },
    {
      "inputs": [
        {
          "internalType": "uint256",
          "name": "_idCampaign",
          "type": "uint256"
        },
        {
          "internalType": "string",
          "name": "_name",
          "type": "string"
        },
        {
          "internalType": "uint256",
          "name": "_amount",
          "type": "uint256"
        },
        {
          "internalType": "uint256",
          "name": "_startDate",
          "type": "uint256"
        },
        {
          "internalType": "uint256",
          "name": "_endDate",
          "type": "uint256"
        }
      ],
      "name": "updateCampaign",
      "outputs": [],
      "stateMutability": "nonpayable",
      "type": "function"
    }
  ],
  "bytecode": "0x608060405234801561001057600080fd5b5060405161162838038061162883398181016040528101906100329190610292565b33600073ffffffffffffffffffffffffffffffffffffffff168173ffffffffffffffffffffffffffffffffffffffff16036100a55760006040517f1e4fbdf700000000000000000000000000000000000000000000000000000000815260040161009c91906102ce565b60405180910390fd5b6100b48161016b60201b60201c565b50600073ffffffffffffffffffffffffffffffffffffffff168173ffffffffffffffffffffffffffffffffffffffff1603610124576040517f08c379a000000000000000000000000000000000000000000000000000000000815260040161011b90610346565b60405180910390fd5b80600160006101000a81548173ffffffffffffffffffffffffffffffffffffffff021916908373ffffffffffffffffffffffffffffffffffffffff16021790555050610366565b60008060009054906101000a900473ffffffffffffffffffffffffffffffffffffffff169050816000806101000a81548173ffffffffffffffffffffffffffffffffffffffff021916908373ffffffffffffffffffffffffffffffffffffffff1602179055508173ffffffffffffffffffffffffffffffffffffffff168173ffffffffffffffffffffffffffffffffffffffff167f8be0079c531659141344cd1fd0a4f28419497f9722a3daafe3b4186f6b6457e060405160405180910390a35050565b600080fd5b600073ffffffffffffffffffffffffffffffffffffffff82169050919050565b600061025f82610234565b9050919050565b61026f81610254565b811461027a57600080fd5b50565b60008151905061028c81610266565b92915050565b6000602082840312156102a8576102a761022f565b5b60006102b68482850161027d565b91505092915050565b6102c881610254565b82525050565b60006020820190506102e360008301846102bf565b92915050565b600082825260208201905092915050565b7f496e76616c6964206272616e6420636f6e747261637420616464726573730000600082015250565b6000610330601e836102e9565b915061033b826102fa565b602082019050919050565b6000602082019050818103600083015261035f81610323565b9050919050565b6112b3806103756000396000f3fe608060405234801561001057600080fd5b50600436106100935760003560e01c8063a7fce91d11610066578063a7fce91d14610112578063d8db63481461012e578063efdd7ed91461014c578063f2fde38b1461016a578063f53d79a71461018657610093565b8063141961bc1461009857806358c8b387146100ce578063715018a6146100ea5780638da5cb5b146100f4575b600080fd5b6100b260048036038101906100ad919061089b565b6101b6565b6040516100c59796959493929190610982565b60405180910390f35b6100e860048036038101906100e39190610b2d565b61028d565b005b6100f26104d3565b005b6100fc6104e7565b6040516101099190610c05565b60405180910390f35b61012c60048036038101906101279190610b2d565b610510565b005b610136610629565b6040516101439190610c20565b60405180910390f35b61015461062f565b6040516101619190610c9a565b60405180910390f35b610184600480360381019061017f9190610ce1565b610655565b005b6101a0600480360381019061019b919061089b565b6106db565b6040516101ad9190610d0e565b60405180910390f35b60036020528060005260406000206000915090508060000154908060010154908060020180546101e590610d58565b80601f016020809104026020016040519081016040528092919081815260200182805461021190610d58565b801561025e5780601f106102335761010080835404028352916020019161025e565b820191906000526020600020905b81548152906001019060200180831161024157829003601f168201915b5050505050908060030154908060040160009054906101000a900460ff16908060050154908060060154905087565b6102956106fe565b600160009054906101000a900473ffffffffffffffffffffffffffffffffffffffff1673ffffffffffffffffffffffffffffffffffffffff16630736c432866040518263ffffffff1660e01b81526004016102f09190610c20565b602060405180830381865afa15801561030d573d6000803e3d6000fd5b505050506040513d601f19601f820116820180604052508101906103319190610db5565b610370576040517f08c379a000000000000000000000000000000000000000000000000000000000815260040161036790610e2e565b60405180910390fd5b60008451116103b4576040517f08c379a00000000000000000000000000000000000000000000000000000000081526004016103ab90610e9a565b60405180910390fd5b8181116103f6576040517f08c379a00000000000000000000000000000000000000000000000000000000081526004016103ed90610f06565b60405180910390fd5b6002600081548092919061040990610f55565b919050555060006040518060e0016040528060025481526020018781526020018681526020018581526020016001151581526020018481526020018381525090508060036000600254815260200190815260200160002060008201518160000155602082015181600101556040820151816002019081610489919061113f565b506060820151816003015560808201518160040160006101000a81548160ff02191690831515021790555060a0820151816005015560c08201518160060155905050505050505050565b6104db6106fe565b6104e56000610785565b565b60008060009054906101000a900473ffffffffffffffffffffffffffffffffffffffff16905090565b6000600360008781526020019081526020016000209050600081600001540361056e576040517f08c379a00000000000000000000000000000000000000000000000000000000081526004016105659061125d565b60405180910390fd5b60008551116105b2576040517f08c379a00000000000000000000000000000000000000000000000000000000081526004016105a990610e9a565b60405180910390fd5b8282116105f4576040517f08c379a00000000000000000000000000000000000000000000000000000000081526004016105eb90610f06565b60405180910390fd5b84816002019081610605919061113f565b50838160030181905550828160050181905550818160060181905550505050505050565b60025481565b600160009054906101000a900473ffffffffffffffffffffffffffffffffffffffff1681565b61065d6106fe565b600073ffffffffffffffffffffffffffffffffffffffff168173ffffffffffffffffffffffffffffffffffffffff16036106cf5760006040517f1e4fbdf70000000000000000000000000000000000000000000000000000000081526004016106c69190610c05565b60405180910390fd5b6106d881610785565b50565b600080600360008481526020019081526020016000206000015414159050919050565b610706610849565b73ffffffffffffffffffffffffffffffffffffffff166107246104e7565b73ffffffffffffffffffffffffffffffffffffffff161461078357610747610849565b6040517f118cdaa700000000000000000000000000000000000000000000000000000000815260040161077a9190610c05565b60405180910390fd5b565b60008060009054906101000a900473ffffffffffffffffffffffffffffffffffffffff169050816000806101000a81548173ffffffffffffffffffffffffffffffffffffffff021916908373ffffffffffffffffffffffffffffffffffffffff1602179055508173ffffffffffffffffffffffffffffffffffffffff168173ffffffffffffffffffffffffffffffffffffffff167f8be0079c531659141344cd1fd0a4f28419497f9722a3daafe3b4186f6b6457e060405160405180910390a35050565b600033905090565b6000604051905090565b600080fd5b600080fd5b6000819050919050565b61087881610865565b811461088357600080fd5b50565b6000813590506108958161086f565b92915050565b6000602082840312156108b1576108b061085b565b5b60006108bf84828501610886565b91505092915050565b6108d181610865565b82525050565b600081519050919050565b600082825260208201905092915050565b60005b838110156109115780820151818401526020810190506108f6565b60008484015250505050565b6000601f19601f8301169050919050565b6000610939826108d7565b61094381856108e2565b93506109538185602086016108f3565b61095c8161091d565b840191505092915050565b60008115159050919050565b61097c81610967565b82525050565b600060e082019050610997600083018a6108c8565b6109a460208301896108c8565b81810360408301526109b6818861092e565b90506109c560608301876108c8565b6109d26080830186610973565b6109df60a08301856108c8565b6109ec60c08301846108c8565b98975050505050505050565b600080fd5b600080fd5b7f4e487b7100000000000000000000000000000000000000000000000000000000600052604160045260246000fd5b610a3a8261091d565b810181811067ffffffffffffffff82111715610a5957610a58610a02565b5b80604052505050565b6000610a6c610851565b9050610a788282610a31565b919050565b600067ffffffffffffffff821115610a9857610a97610a02565b5b610aa18261091d565b9050602081019050919050565b82818337600083830152505050565b6000610ad0610acb84610a7d565b610a62565b905082815260208101848484011115610aec57610aeb6109fd565b5b610af7848285610aae565b509392505050565b600082601f830112610b1457610b136109f8565b5b8135610b24848260208601610abd565b91505092915050565b600080600080600060a08688031215610b4957610b4861085b565b5b6000610b5788828901610886565b955050602086013567ffffffffffffffff811115610b7857610b77610860565b5b610b8488828901610aff565b9450506040610b9588828901610886565b9350506060610ba688828901610886565b9250506080610bb788828901610886565b9150509295509295909350565b600073ffffffffffffffffffffffffffffffffffffffff82169050919050565b6000610bef82610bc4565b9050919050565b610bff81610be4565b82525050565b6000602082019050610c1a6000830184610bf6565b92915050565b6000602082019050610c3560008301846108c8565b92915050565b6000819050919050565b6000610c60610c5b610c5684610bc4565b610c3b565b610bc4565b9050919050565b6000610c7282610c45565b9050919050565b6000610c8482610c67565b9050919050565b610c9481610c79565b82525050565b6000602082019050610caf6000830184610c8b565b92915050565b610cbe81610be4565b8114610cc957600080fd5b50565b600081359050610cdb81610cb5565b92915050565b600060208284031215610cf757610cf661085b565b5b6000610d0584828501610ccc565b91505092915050565b6000602082019050610d236000830184610973565b92915050565b7f4e487b7100000000000000000000000000000000000000000000000000000000600052602260045260246000fd5b60006002820490506001821680610d7057607f821691505b602082108103610d8357610d82610d29565b5b50919050565b610d9281610967565b8114610d9d57600080fd5b50565b600081519050610daf81610d89565b92915050565b600060208284031215610dcb57610dca61085b565b5b6000610dd984828501610da0565b91505092915050565b7f496e76616c6964206272616e6400000000000000000000000000000000000000600082015250565b6000610e18600d836108e2565b9150610e2382610de2565b602082019050919050565b60006020820190508181036000830152610e4781610e0b565b9050919050565b7f496e76616c69642063616d706169676e206e616d650000000000000000000000600082015250565b6000610e846015836108e2565b9150610e8f82610e4e565b602082019050919050565b60006020820190508181036000830152610eb381610e77565b9050919050565b7f496e76616c696420646174657300000000000000000000000000000000000000600082015250565b6000610ef0600d836108e2565b9150610efb82610eba565b602082019050919050565b60006020820190508181036000830152610f1f81610ee3565b9050919050565b7f4e487b7100000000000000000000000000000000000000000000000000000000600052601160045260246000fd5b6000610f6082610865565b91507fffffffffffffffffffffffffffffffffffffffffffffffffffffffffffffffff8203610f9257610f91610f26565b5b600182019050919050565b60008190508160005260206000209050919050565b60006020601f8301049050919050565b600082821b905092915050565b600060088302610fff7fffffffffffffffffffffffffffffffffffffffffffffffffffffffffffffffff82610fc2565b6110098683610fc2565b95508019841693508086168417925050509392505050565b600061103c61103761103284610865565b610c3b565b610865565b9050919050565b6000819050919050565b61105683611021565b61106a61106282611043565b848454610fcf565b825550505050565b600090565b61107f611072565b61108a81848461104d565b505050565b5b818110156110ae576110a3600082611077565b600181019050611090565b5050565b601f8211156110f3576110c481610f9d565b6110cd84610fb2565b810160208510156110dc578190505b6110f06110e885610fb2565b83018261108f565b50505b505050565b600082821c905092915050565b6000611116600019846008026110f8565b1980831691505092915050565b600061112f8383611105565b9150826002028217905092915050565b611148826108d7565b67ffffffffffffffff81111561116157611160610a02565b5b61116b8254610d58565b6111768282856110b2565b600060209050601f8311600181146111a95760008415611197578287015190505b6111a18582611123565b865550611209565b601f1984166111b786610f9d565b60005b828110156111df578489015182556001820191506020850194506020810190506111ba565b868310156111fc57848901516111f8601f891682611105565b8355505b6001600288020188555050505b505050505050565b7f43616d706169676e206e6f7420666f756e640000000000000000000000000000600082015250565b60006112476012836108e2565b915061125282611211565b602082019050919050565b600060208201905081810360008301526112768161123a565b905091905056fea2646970667358221220bc9aeecac012ae905c4e0d1e25d99425355ea6d75e5c572ed3ac9b459f56297364736f6c63430008190033",
  "linkReferences": {},
  "deployedLinkReferences": {}
}