{
  "_format": "hh-sol-artifact-1",
  "contractName": "Brand",
  "sourceName": "contracts/Brand.sol",
  "abi": [
    {
      "inputs": [],
      "stateMutability": "nonpayable",
      "type": "constructor"
    },
    {
      "inputs": [
        {
          "internalType": "address",
          "name": "owner",
          "type": "address"
        }
      ],
      "name": "OwnableInvalidOwner",
      "type": "error"
    },
    {
      "inputs": [
        {
          "internalType": "address",
          "name": "account",
          "type": "address"
        }
      ],
      "name": "OwnableUnauthorizedAccount",
      "type": "error"
    },
    {
      "anonymous": false,
      "inputs": [
        {
          "indexed": true,
          "internalType": "address",
          "name": "previousOwner",
          "type": "address"
        },
        {
          "indexed": true,
          "internalType": "address",
          "name": "newOwner",
          "type": "address"
        }
      ],
      "name": "OwnershipTransferred",
      "type": "event"
    },
    {
      "inputs": [
        {
          "internalType": "uint256",
          "name": "",
          "type": "uint256"
        }
      ],
      "name": "brandOperators",
      "outputs": [
        {
          "internalType": "address",
          "name": "",
          "type": "address"
        }
      ],
      "stateMutability": "view",
      "type": "function"
    },
    {
      "inputs": [
        {
          "internalType": "uint256",
          "name": "",
          "type": "uint256"
        }
      ],
      "name": "brands",
      "outputs": [
        {
          "internalType": "uint256",
          "name": "idBrand",
          "type": "uint256"
        },
        {
          "internalType": "address",
          "name": "brandOwner",
          "type": "address"
        },
        {
          "internalType": "string",
          "name": "name",
          "type": "string"
        },
        {
          "internalType": "bool",
          "name": "active",
          "type": "bool"
        }
      ],
      "stateMutability": "view",
      "type": "function"
    },
    {
      "inputs": [
        {
          "internalType": "string",
          "name": "_name",
          "type": "string"
        },
        {
          "internalType": "address",
          "name": "_brandOwner",
          "type": "address"
        }
      ],
      "name": "createBrand",
      "outputs": [],
      "stateMutability": "nonpayable",
      "type": "function"
    },
    {
      "inputs": [
        {
          "internalType": "uint256",
          "name": "_idBrand",
          "type": "uint256"
        }
      ],
      "name": "disableBrand",
      "outputs": [],
      "stateMutability": "nonpayable",
      "type": "function"
    },
    {
      "inputs": [
        {
          "internalType": "uint256",
          "name": "_idBrand",
          "type": "uint256"
        }
      ],
      "name": "enableBrand",
      "outputs": [],
      "stateMutability": "nonpayable",
      "type": "function"
    },
    {
      "inputs": [
        {
          "internalType": "uint256",
          "name": "_idBrand",
          "type": "uint256"
        }
      ],
      "name": "getBrand",
      "outputs": [
        {
          "components": [
            {
              "internalType": "uint256",
              "name": "idBrand",
              "type": "uint256"
            },
            {
              "internalType": "address",
              "name": "brandOwner",
              "type": "address"
            },
            {
              "internalType": "string",
              "name": "name",
              "type": "string"
            },
            {
              "internalType": "bool",
              "name": "active",
              "type": "bool"
            }
          ],
          "internalType": "struct Brand.BrandStruct",
          "name": "",
          "type": "tuple"
        }
      ],
      "stateMutability": "view",
      "type": "function"
    },
    {
      "inputs": [],
      "name": "idBrand",
      "outputs": [
        {
          "internalType": "uint256",
          "name": "",
          "type": "uint256"
        }
      ],
      "stateMutability": "view",
      "type": "function"
    },
    {
      "inputs": [
        {
          "internalType": "uint256",
          "name": "_idBrand",
          "type": "uint256"
        }
      ],
      "name": "isValidBrand",
      "outputs": [
        {
          "internalType": "bool",
          "name": "",
          "type": "bool"
        }
      ],
      "stateMutability": "view",
      "type": "function"
    },
    {
      "inputs": [],
      "name": "owner",
      "outputs": [
        {
          "internalType": "address",
          "name": "",
          "type": "address"
        }
      ],
      "stateMutability": "view",
      "type": "function"
    },
    {
      "inputs": [],
      "name": "renounceOwnership",
      "outputs": [],
      "stateMutability": "nonpayable",
      "type": "function"
    },
    {
      "inputs": [
        {
          "internalType": "address",
          "name": "newOwner",
          "type": "address"
        }
      ],
      "name": "transferOwnership",
      "outputs": [],
      "stateMutability": "nonpayable",
      "type": "function"
    },
    {
      "inputs": [
        {
          "internalType": "string",
          "name": "_name",
          "type": "string"
        },
        {
          "internalType": "address",
          "name": "_brandOwner",
          "type": "address"
        },
        {
          "internalType": "uint256",
          "name": "_idBrand",
          "type": "uint256"
        }
      ],
      "name": "updateBrand",
      "outputs": [],
      "stateMutability": "nonpayable",
      "type": "function"
    }
  ],
  "bytecode": "0x608060405234801561001057600080fd5b5033600073ffffffffffffffffffffffffffffffffffffffff168173ffffffffffffffffffffffffffffffffffffffff16036100845760006040517f1e4fbdf700000000000000000000000000000000000000000000000000000000815260040161007b919061019e565b60405180910390fd5b6100938161009960201b60201c565b506101b9565b60008060009054906101000a900473ffffffffffffffffffffffffffffffffffffffff169050816000806101000a81548173ffffffffffffffffffffffffffffffffffffffff021916908373ffffffffffffffffffffffffffffffffffffffff1602179055508173ffffffffffffffffffffffffffffffffffffffff168173ffffffffffffffffffffffffffffffffffffffff167f8be0079c531659141344cd1fd0a4f28419497f9722a3daafe3b4186f6b6457e060405160405180910390a35050565b600073ffffffffffffffffffffffffffffffffffffffff82169050919050565b60006101888261015d565b9050919050565b6101988161017d565b82525050565b60006020820190506101b3600083018461018f565b92915050565b611716806101c86000396000f3fe608060405234801561001057600080fd5b50600436106100b45760003560e01c8063a90927ce11610071578063a90927ce14610165578063ea48b4f714610183578063eab37ceb146101b3578063f0dc6d14146101cf578063f2fde38b146101ff578063fdcb57321461021b576100b4565b80630736c432146100b957806309e76002146100e95780635f04c16d14610105578063715018a6146101215780638da5cb5b1461012b5780639b8bfe6214610149575b600080fd5b6100d360048036038101906100ce9190610d2d565b61024e565b6040516100e09190610d75565b60405180910390f35b61010360048036038101906100fe9190610f34565b6102c3565b005b61011f600480360381019061011a9190610d2d565b6105a9565b005b6101296105e9565b005b6101336105fd565b6040516101409190610fb2565b60405180910390f35b610163600480360381019061015e9190610d2d565b610626565b005b61016d610666565b60405161017a9190610fdc565b60405180910390f35b61019d60048036038101906101989190610d2d565b61066c565b6040516101aa9190610fb2565b60405180910390f35b6101cd60048036038101906101c89190610ff7565b61069f565b005b6101e960048036038101906101e49190610d2d565b6108ab565b6040516101f69190611162565b60405180910390f35b61021960048036038101906102149190611184565b6109e5565b005b61023560048036038101906102309190610d2d565b610a6b565b60405161024594939291906111fb565b60405180910390f35b6000806002600084815260200190815260200160002060010160009054906101000a900473ffffffffffffffffffffffffffffffffffffffff169050600073ffffffffffffffffffffffffffffffffffffffff168173ffffffffffffffffffffffffffffffffffffffff161415915050919050565b806102cc6105fd565b73ffffffffffffffffffffffffffffffffffffffff163373ffffffffffffffffffffffffffffffffffffffff16148061036357503373ffffffffffffffffffffffffffffffffffffffff166003600083815260200190815260200160002060009054906101000a900473ffffffffffffffffffffffffffffffffffffffff1673ffffffffffffffffffffffffffffffffffffffff16145b6103a2576040517f08c379a000000000000000000000000000000000000000000000000000000000815260040161039990611293565b60405180910390fd5b6103aa6105fd565b73ffffffffffffffffffffffffffffffffffffffff163373ffffffffffffffffffffffffffffffffffffffff16148061044457503373ffffffffffffffffffffffffffffffffffffffff166002600084815260200190815260200160002060010160009054906101000a900473ffffffffffffffffffffffffffffffffffffffff1673ffffffffffffffffffffffffffffffffffffffff16145b610483576040517f08c379a000000000000000000000000000000000000000000000000000000000815260040161047a90611293565b60405180910390fd5b60008451116104c7576040517f08c379a00000000000000000000000000000000000000000000000000000000081526004016104be906112ff565b60405180910390fd5b600073ffffffffffffffffffffffffffffffffffffffff168373ffffffffffffffffffffffffffffffffffffffff1603610536576040517f08c379a000000000000000000000000000000000000000000000000000000000815260040161052d9061136b565b60405180910390fd5b60006002600084815260200190815260200160002090508481600201908161055e9190611597565b50838160010160006101000a81548173ffffffffffffffffffffffffffffffffffffffff021916908373ffffffffffffffffffffffffffffffffffffffff1602179055505050505050565b6105b1610b50565b600060026000838152602001908152602001600020905060018160030160006101000a81548160ff0219169083151502179055505050565b6105f1610b50565b6105fb6000610bd7565b565b60008060009054906101000a900473ffffffffffffffffffffffffffffffffffffffff16905090565b61062e610b50565b600060026000838152602001908152602001600020905060008160030160006101000a81548160ff0219169083151502179055505050565b60015481565b60036020528060005260406000206000915054906101000a900473ffffffffffffffffffffffffffffffffffffffff1681565b6106a7610b50565b60008251116106eb576040517f08c379a00000000000000000000000000000000000000000000000000000000081526004016106e2906112ff565b60405180910390fd5b600073ffffffffffffffffffffffffffffffffffffffff168173ffffffffffffffffffffffffffffffffffffffff160361075a576040517f08c379a00000000000000000000000000000000000000000000000000000000081526004016107519061136b565b60405180910390fd5b6001600081548092919061076d90611698565b91905055506000604051806080016040528060015481526020018373ffffffffffffffffffffffffffffffffffffffff168152602001848152602001600115158152509050806002600060015481526020019081526020016000206000820151816000015560208201518160010160006101000a81548173ffffffffffffffffffffffffffffffffffffffff021916908373ffffffffffffffffffffffffffffffffffffffff160217905550604082015181600201908161082e9190611597565b5060608201518160030160006101000a81548160ff0219169083151502179055509050508160036000600154815260200190815260200160002060006101000a81548173ffffffffffffffffffffffffffffffffffffffff021916908373ffffffffffffffffffffffffffffffffffffffff160217905550505050565b6108b3610ca3565b60026000838152602001908152602001600020604051806080016040529081600082015481526020016001820160009054906101000a900473ffffffffffffffffffffffffffffffffffffffff1673ffffffffffffffffffffffffffffffffffffffff1673ffffffffffffffffffffffffffffffffffffffff168152602001600282018054610941906113ba565b80601f016020809104026020016040519081016040528092919081815260200182805461096d906113ba565b80156109ba5780601f1061098f576101008083540402835291602001916109ba565b820191906000526020600020905b81548152906001019060200180831161099d57829003601f168201915b505050505081526020016003820160009054906101000a900460ff1615151515815250509050919050565b6109ed610b50565b600073ffffffffffffffffffffffffffffffffffffffff168173ffffffffffffffffffffffffffffffffffffffff1603610a5f5760006040517f1e4fbdf7000000000000000000000000000000000000000000000000000000008152600401610a569190610fb2565b60405180910390fd5b610a6881610bd7565b50565b60026020528060005260406000206000915090508060000154908060010160009054906101000a900473ffffffffffffffffffffffffffffffffffffffff1690806002018054610aba906113ba565b80601f0160208091040260200160405190810160405280929190818152602001828054610ae6906113ba565b8015610b335780601f10610b0857610100808354040283529160200191610b33565b820191906000526020600020905b815481529060010190602001808311610b1657829003601f168201915b5050505050908060030160009054906101000a900460ff16905084565b610b58610c9b565b73ffffffffffffffffffffffffffffffffffffffff16610b766105fd565b73ffffffffffffffffffffffffffffffffffffffff1614610bd557610b99610c9b565b6040517f118cdaa7000000000000000000000000000000000000000000000000000000008152600401610bcc9190610fb2565b60405180910390fd5b565b60008060009054906101000a900473ffffffffffffffffffffffffffffffffffffffff169050816000806101000a81548173ffffffffffffffffffffffffffffffffffffffff021916908373ffffffffffffffffffffffffffffffffffffffff1602179055508173ffffffffffffffffffffffffffffffffffffffff168173ffffffffffffffffffffffffffffffffffffffff167f8be0079c531659141344cd1fd0a4f28419497f9722a3daafe3b4186f6b6457e060405160405180910390a35050565b600033905090565b604051806080016040528060008152602001600073ffffffffffffffffffffffffffffffffffffffff168152602001606081526020016000151581525090565b6000604051905090565b600080fd5b600080fd5b6000819050919050565b610d0a81610cf7565b8114610d1557600080fd5b50565b600081359050610d2781610d01565b92915050565b600060208284031215610d4357610d42610ced565b5b6000610d5184828501610d18565b91505092915050565b60008115159050919050565b610d6f81610d5a565b82525050565b6000602082019050610d8a6000830184610d66565b92915050565b600080fd5b600080fd5b6000601f19601f8301169050919050565b7f4e487b7100000000000000000000000000000000000000000000000000000000600052604160045260246000fd5b610de382610d9a565b810181811067ffffffffffffffff82111715610e0257610e01610dab565b5b80604052505050565b6000610e15610ce3565b9050610e218282610dda565b919050565b600067ffffffffffffffff821115610e4157610e40610dab565b5b610e4a82610d9a565b9050602081019050919050565b82818337600083830152505050565b6000610e79610e7484610e26565b610e0b565b905082815260208101848484011115610e9557610e94610d95565b5b610ea0848285610e57565b509392505050565b600082601f830112610ebd57610ebc610d90565b5b8135610ecd848260208601610e66565b91505092915050565b600073ffffffffffffffffffffffffffffffffffffffff82169050919050565b6000610f0182610ed6565b9050919050565b610f1181610ef6565b8114610f1c57600080fd5b50565b600081359050610f2e81610f08565b92915050565b600080600060608486031215610f4d57610f4c610ced565b5b600084013567ffffffffffffffff811115610f6b57610f6a610cf2565b5b610f7786828701610ea8565b9350506020610f8886828701610f1f565b9250506040610f9986828701610d18565b9150509250925092565b610fac81610ef6565b82525050565b6000602082019050610fc76000830184610fa3565b92915050565b610fd681610cf7565b82525050565b6000602082019050610ff16000830184610fcd565b92915050565b6000806040838503121561100e5761100d610ced565b5b600083013567ffffffffffffffff81111561102c5761102b610cf2565b5b61103885828601610ea8565b925050602061104985828601610f1f565b9150509250929050565b61105c81610cf7565b82525050565b61106b81610ef6565b82525050565b600081519050919050565b600082825260208201905092915050565b60005b838110156110ab578082015181840152602081019050611090565b60008484015250505050565b60006110c282611071565b6110cc818561107c565b93506110dc81856020860161108d565b6110e581610d9a565b840191505092915050565b6110f981610d5a565b82525050565b60006080830160008301516111176000860182611053565b50602083015161112a6020860182611062565b506040830151848203604086015261114282826110b7565b915050606083015161115760608601826110f0565b508091505092915050565b6000602082019050818103600083015261117c81846110ff565b905092915050565b60006020828403121561119a57611199610ced565b5b60006111a884828501610f1f565b91505092915050565b600082825260208201905092915050565b60006111cd82611071565b6111d781856111b1565b93506111e781856020860161108d565b6111f081610d9a565b840191505092915050565b60006080820190506112106000830187610fcd565b61121d6020830186610fa3565b818103604083015261122f81856111c2565b905061123e6060830184610d66565b95945050505050565b7f556e617574686f72697a65640000000000000000000000000000000000000000600082015250565b600061127d600c836111b1565b915061128882611247565b602082019050919050565b600060208201905081810360008301526112ac81611270565b9050919050565b7f496e76616c6964206272616e64206e616d650000000000000000000000000000600082015250565b60006112e96012836111b1565b91506112f4826112b3565b602082019050919050565b60006020820190508181036000830152611318816112dc565b9050919050565b7f496e76616c6964206272616e64206f776e657220616464726573730000000000600082015250565b6000611355601b836111b1565b91506113608261131f565b602082019050919050565b6000602082019050818103600083015261138481611348565b9050919050565b7f4e487b7100000000000000000000000000000000000000000000000000000000600052602260045260246000fd5b600060028204905060018216806113d257607f821691505b6020821081036113e5576113e461138b565b5b50919050565b60008190508160005260206000209050919050565b60006020601f8301049050919050565b600082821b905092915050565b60006008830261144d7fffffffffffffffffffffffffffffffffffffffffffffffffffffffffffffffff82611410565b6114578683611410565b95508019841693508086168417925050509392505050565b6000819050919050565b600061149461148f61148a84610cf7565b61146f565b610cf7565b9050919050565b6000819050919050565b6114ae83611479565b6114c26114ba8261149b565b84845461141d565b825550505050565b600090565b6114d76114ca565b6114e28184846114a5565b505050565b5b81811015611506576114fb6000826114cf565b6001810190506114e8565b5050565b601f82111561154b5761151c816113eb565b61152584611400565b81016020851015611534578190505b61154861154085611400565b8301826114e7565b50505b505050565b600082821c905092915050565b600061156e60001984600802611550565b1980831691505092915050565b6000611587838361155d565b9150826002028217905092915050565b6115a082611071565b67ffffffffffffffff8111156115b9576115b8610dab565b5b6115c382546113ba565b6115ce82828561150a565b600060209050601f83116001811461160157600084156115ef578287015190505b6115f9858261157b565b865550611661565b601f19841661160f866113eb565b60005b8281101561163757848901518255600182019150602085019450602081019050611612565b868310156116545784890151611650601f89168261155d565b8355505b6001600288020188555050505b505050505050565b7f4e487b7100000000000000000000000000000000000000000000000000000000600052601160045260246000fd5b60006116a382610cf7565b91507fffffffffffffffffffffffffffffffffffffffffffffffffffffffffffffffff82036116d5576116d4611669565b5b60018201905091905056fea2646970667358221220020e58101030cb7fc8c040da25774da8b45421c32ca78965e6fc53fc500fc02564736f6c63430008190033",
  "linkReferences": {},
  "deployedLinkReferences": {}
}