{
  "_format": "hh-sol-artifact-1",
  "contractName": "CCIPSenderMiniApp",
  "sourceName": "contracts/examples/CCIPSender.sol",
  "abi": [
    {
      "inputs": [
        {
          "internalType": "address",
          "name": "_router",
          "type": "address"
        },
        {
          "internalType": "address",
          "name": "_link",
          "type": "address"
        }
      ],
      "stateMutability": "nonpayable",
      "type": "constructor"
    },
    {
      "inputs": [
        {
          "internalType": "uint256",
          "name": "currentBalance",
          "type": "uint256"
        },
        {
          "internalType": "uint256",
          "name": "calculatedFees",
          "type": "uint256"
        }
      ],
      "name": "NotEnoughBalance",
      "type": "error"
    },
    {
      "inputs": [
        {
          "internalType": "uint64",
          "name": "_destinationChainSelector",
          "type": "uint64"
        },
        {
          "internalType": "address",
          "name": "_receiver",
          "type": "address"
        },
        {
          "internalType": "address",
          "name": "_token",
          "type": "address"
        },
        {
          "internalType": "uint256",
          "name": "_amount",
          "type": "uint256"
        }
      ],
      "name": "sendMessagePayLINK",
      "outputs": [
        {
          "internalType": "bytes32",
          "name": "messageId",
          "type": "bytes32"
        }
      ],
      "stateMutability": "nonpayable",
      "type": "function"
    },
    {
      "stateMutability": "payable",
      "type": "receive"
    }
  ],
  "bytecode": "0x608060405234801561001057600080fd5b50604051610e7f380380610e7f8339818101604052810190610032919061011d565b806000806101000a81548173ffffffffffffffffffffffffffffffffffffffff021916908373ffffffffffffffffffffffffffffffffffffffff16021790555081600160006101000a81548173ffffffffffffffffffffffffffffffffffffffff021916908373ffffffffffffffffffffffffffffffffffffffff160217905550505061015d565b600080fd5b600073ffffffffffffffffffffffffffffffffffffffff82169050919050565b60006100ea826100bf565b9050919050565b6100fa816100df565b811461010557600080fd5b50565b600081519050610117816100f1565b92915050565b60008060408385031215610134576101336100ba565b5b600061014285828601610108565b925050602061015385828601610108565b9150509250929050565b610d138061016c6000396000f3fe6080604052600436106100225760003560e01c806330858e011461002e57610029565b3661002957005b600080fd5b34801561003a57600080fd5b50610055600480360381019061005091906107cc565b61006b565b604051610062919061084c565b60405180910390f35b60008061009a85858560008054906101000a900473ffffffffffffffffffffffffffffffffffffffff166104c5565b90506000600160009054906101000a900473ffffffffffffffffffffffffffffffffffffffff1673ffffffffffffffffffffffffffffffffffffffff166320487ded88846040518363ffffffff1660e01b81526004016100fb929190610a8d565b602060405180830381865afa158015610118573d6000803e3d6000fd5b505050506040513d601f19601f8201168201806040525081019061013c9190610ad2565b905060008054906101000a900473ffffffffffffffffffffffffffffffffffffffff1673ffffffffffffffffffffffffffffffffffffffff166370a08231306040518263ffffffff1660e01b81526004016101979190610b0e565b602060405180830381865afa1580156101b4573d6000803e3d6000fd5b505050506040513d601f19601f820116820180604052508101906101d89190610ad2565b8111156102b75760008054906101000a900473ffffffffffffffffffffffffffffffffffffffff1673ffffffffffffffffffffffffffffffffffffffff166370a08231306040518263ffffffff1660e01b81526004016102389190610b0e565b602060405180830381865afa158015610255573d6000803e3d6000fd5b505050506040513d601f19601f820116820180604052508101906102799190610ad2565b816040517f8f0f42060000000000000000000000000000000000000000000000000000000081526004016102ae929190610b38565b60405180910390fd5b60008054906101000a900473ffffffffffffffffffffffffffffffffffffffff1673ffffffffffffffffffffffffffffffffffffffff1663095ea7b3600160009054906101000a900473ffffffffffffffffffffffffffffffffffffffff16836040518363ffffffff1660e01b8152600401610334929190610b61565b6020604051808303816000875af1158015610353573d6000803e3d6000fd5b505050506040513d601f19601f820116820180604052508101906103779190610bc2565b508473ffffffffffffffffffffffffffffffffffffffff1663095ea7b3600160009054906101000a900473ffffffffffffffffffffffffffffffffffffffff16866040518363ffffffff1660e01b81526004016103d5929190610b61565b6020604051808303816000875af11580156103f4573d6000803e3d6000fd5b505050506040513d601f19601f820116820180604052508101906104189190610bc2565b50600160009054906101000a900473ffffffffffffffffffffffffffffffffffffffff1673ffffffffffffffffffffffffffffffffffffffff166396f4e9f988846040518363ffffffff1660e01b8152600401610476929190610a8d565b6020604051808303816000875af1158015610495573d6000803e3d6000fd5b505050506040513d601f19601f820116820180604052508101906104b99190610c1b565b92505050949350505050565b6104cd61067e565b6000600167ffffffffffffffff8111156104ea576104e9610c48565b5b60405190808252806020026020018201604052801561052357816020015b6105106106c3565b8152602001906001900390816105085790505b50905060405180604001604052808673ffffffffffffffffffffffffffffffffffffffff168152602001858152508160008151811061056557610564610c77565b5b60200260200101819052506040518060a001604052808760405160200161058c9190610b0e565b60405160208183030381529060405281526020016040518060200160405280600081525081526020018281526020018473ffffffffffffffffffffffffffffffffffffffff1681526020016105f1604051806020016040528062030d408152506105ff565b815250915050949350505050565b60606397a657c960e01b8260405160240161061a9190610cc2565b604051602081830303815290604052907bffffffffffffffffffffffffffffffffffffffffffffffffffffffff19166020820180517bffffffffffffffffffffffffffffffffffffffffffffffffffffffff83818316178352505050509050919050565b6040518060a00160405280606081526020016060815260200160608152602001600073ffffffffffffffffffffffffffffffffffffffff168152602001606081525090565b6040518060400160405280600073ffffffffffffffffffffffffffffffffffffffff168152602001600081525090565b600080fd5b600067ffffffffffffffff82169050919050565b610715816106f8565b811461072057600080fd5b50565b6000813590506107328161070c565b92915050565b600073ffffffffffffffffffffffffffffffffffffffff82169050919050565b600061076382610738565b9050919050565b61077381610758565b811461077e57600080fd5b50565b6000813590506107908161076a565b92915050565b6000819050919050565b6107a981610796565b81146107b457600080fd5b50565b6000813590506107c6816107a0565b92915050565b600080600080608085870312156107e6576107e56106f3565b5b60006107f487828801610723565b945050602061080587828801610781565b935050604061081687828801610781565b9250506060610827878288016107b7565b91505092959194509250565b6000819050919050565b61084681610833565b82525050565b6000602082019050610861600083018461083d565b92915050565b610870816106f8565b82525050565b600081519050919050565b600082825260208201905092915050565b60005b838110156108b0578082015181840152602081019050610895565b60008484015250505050565b6000601f19601f8301169050919050565b60006108d882610876565b6108e28185610881565b93506108f2818560208601610892565b6108fb816108bc565b840191505092915050565b600081519050919050565b600082825260208201905092915050565b6000819050602082019050919050565b61093b81610758565b82525050565b61094a81610796565b82525050565b6040820160008201516109666000850182610932565b5060208201516109796020850182610941565b50505050565b600061098b8383610950565b60408301905092915050565b6000602082019050919050565b60006109af82610906565b6109b98185610911565b93506109c483610922565b8060005b838110156109f55781516109dc888261097f565b97506109e783610997565b9250506001810190506109c8565b5085935050505092915050565b600060a0830160008301518482036000860152610a1f82826108cd565b91505060208301518482036020860152610a3982826108cd565b91505060408301518482036040860152610a5382826109a4565b9150506060830151610a686060860182610932565b5060808301518482036080860152610a8082826108cd565b9150508091505092915050565b6000604082019050610aa26000830185610867565b8181036020830152610ab48184610a02565b90509392505050565b600081519050610acc816107a0565b92915050565b600060208284031215610ae857610ae76106f3565b5b6000610af684828501610abd565b91505092915050565b610b0881610758565b82525050565b6000602082019050610b236000830184610aff565b92915050565b610b3281610796565b82525050565b6000604082019050610b4d6000830185610b29565b610b5a6020830184610b29565b9392505050565b6000604082019050610b766000830185610aff565b610b836020830184610b29565b9392505050565b60008115159050919050565b610b9f81610b8a565b8114610baa57600080fd5b50565b600081519050610bbc81610b96565b92915050565b600060208284031215610bd857610bd76106f3565b5b6000610be684828501610bad565b91505092915050565b610bf881610833565b8114610c0357600080fd5b50565b600081519050610c1581610bef565b92915050565b600060208284031215610c3157610c306106f3565b5b6000610c3f84828501610c06565b91505092915050565b7f4e487b7100000000000000000000000000000000000000000000000000000000600052604160045260246000fd5b7f4e487b7100000000000000000000000000000000000000000000000000000000600052603260045260246000fd5b602082016000820151610cbc6000850182610941565b50505050565b6000602082019050610cd76000830184610ca6565b9291505056fea264697066735822122098bb50f8c792b920e47d1110112dbd48828cb1cf229c1ebdfb1d2110df4fcdbf64736f6c63430008190033",
  "linkReferences": {},
  "deployedLinkReferences": {}
}