{
  "_format": "hh-sol-artifact-1",
  "contractName": "Greeting",
  "sourceName": "contracts/examples/Greeting.sol",
  "abi": [
    {
      "inputs": [],
      "name": "s_counter",
      "outputs": [
        {
          "internalType": "uint256",
          "name": "",
          "type": "uint256"
        }
      ],
      "stateMutability": "view",
      "type": "function"
    },
    {
      "inputs": [],
      "name": "s_greeting",
      "outputs": [
        {
          "internalType": "string",
          "name": "",
          "type": "string"
        }
      ],
      "stateMutability": "view",
      "type": "function"
    },
    {
      "inputs": [
        {
          "internalType": "uint256",
          "name": "_counter",
          "type": "uint256"
        }
      ],
      "name": "setCounter",
      "outputs": [],
      "stateMutability": "nonpayable",
      "type": "function"
    },
    {
      "inputs": [
        {
          "internalType": "string",
          "name": "_greeting",
          "type": "string"
        }
      ],
      "name": "setGreeting",
      "outputs": [],
      "stateMutability": "nonpayable",
      "type": "function"
    }
  ],
  "bytecode": "0x6080604052348015600f57600080fd5b5061075b8061001f6000396000f3fe608060405234801561001057600080fd5b506004361061004c5760003560e01c80633ea6143b1461005157806369e1770c1461006f5780638bb5d9c31461008d578063a4136862146100a9575b600080fd5b6100596100c5565b6040516100669190610206565b60405180910390f35b610077610153565b6040516100849190610241565b60405180910390f35b6100a760048036038101906100a2919061029c565b610159565b005b6100c360048036038101906100be91906103fe565b610163565b005b600080546100d290610476565b80601f01602080910402602001604051908101604052809291908181526020018280546100fe90610476565b801561014b5780601f106101205761010080835404028352916020019161014b565b820191906000526020600020905b81548152906001019060200180831161012e57829003601f168201915b505050505081565b60015481565b8060018190555050565b80600090816101729190610653565b5050565b600081519050919050565b600082825260208201905092915050565b60005b838110156101b0578082015181840152602081019050610195565b60008484015250505050565b6000601f19601f8301169050919050565b60006101d882610176565b6101e28185610181565b93506101f2818560208601610192565b6101fb816101bc565b840191505092915050565b6000602082019050818103600083015261022081846101cd565b905092915050565b6000819050919050565b61023b81610228565b82525050565b60006020820190506102566000830184610232565b92915050565b6000604051905090565b600080fd5b600080fd5b61027981610228565b811461028457600080fd5b50565b60008135905061029681610270565b92915050565b6000602082840312156102b2576102b1610266565b5b60006102c084828501610287565b91505092915050565b600080fd5b600080fd5b7f4e487b7100000000000000000000000000000000000000000000000000000000600052604160045260246000fd5b61030b826101bc565b810181811067ffffffffffffffff8211171561032a576103296102d3565b5b80604052505050565b600061033d61025c565b90506103498282610302565b919050565b600067ffffffffffffffff821115610369576103686102d3565b5b610372826101bc565b9050602081019050919050565b82818337600083830152505050565b60006103a161039c8461034e565b610333565b9050828152602081018484840111156103bd576103bc6102ce565b5b6103c884828561037f565b509392505050565b600082601f8301126103e5576103e46102c9565b5b81356103f584826020860161038e565b91505092915050565b60006020828403121561041457610413610266565b5b600082013567ffffffffffffffff8111156104325761043161026b565b5b61043e848285016103d0565b91505092915050565b7f4e487b7100000000000000000000000000000000000000000000000000000000600052602260045260246000fd5b6000600282049050600182168061048e57607f821691505b6020821081036104a1576104a0610447565b5b50919050565b60008190508160005260206000209050919050565b60006020601f8301049050919050565b600082821b905092915050565b6000600883026105097fffffffffffffffffffffffffffffffffffffffffffffffffffffffffffffffff826104cc565b61051386836104cc565b95508019841693508086168417925050509392505050565b6000819050919050565b600061055061054b61054684610228565b61052b565b610228565b9050919050565b6000819050919050565b61056a83610535565b61057e61057682610557565b8484546104d9565b825550505050565b600090565b610593610586565b61059e818484610561565b505050565b5b818110156105c2576105b760008261058b565b6001810190506105a4565b5050565b601f821115610607576105d8816104a7565b6105e1846104bc565b810160208510156105f0578190505b6106046105fc856104bc565b8301826105a3565b50505b505050565b600082821c905092915050565b600061062a6000198460080261060c565b1980831691505092915050565b60006106438383610619565b9150826002028217905092915050565b61065c82610176565b67ffffffffffffffff811115610675576106746102d3565b5b61067f8254610476565b61068a8282856105c6565b600060209050601f8311600181146106bd57600084156106ab578287015190505b6106b58582610637565b86555061071d565b601f1984166106cb866104a7565b60005b828110156106f3578489015182556001820191506020850194506020810190506106ce565b86831015610710578489015161070c601f891682610619565b8355505b6001600288020188555050505b50505050505056fea26469706673582212207ef409b57d76e33a202510bc6ece2a70460b7c63db56cbdd123ac32e2ad1c8a164736f6c63430008190033",
  "linkReferences": {},
  "deployedLinkReferences": {}
}