{
  "_format": "hh-sol-artifact-1",
  "contractName": "KOLFactoryTraderJoe",
  "sourceName": "contracts/kol-router/KOLFactoryTraderJoe.sol",
  "abi": [
    {
      "inputs": [
        {
          "internalType": "address",
          "name": "_traderJoeRouter",
          "type": "address"
        }
      ],
      "stateMutability": "nonpayable",
      "type": "constructor"
    },
    {
      "inputs": [
        {
          "internalType": "address",
          "name": "owner",
          "type": "address"
        }
      ],
      "name": "OwnableInvalidOwner",
      "type": "error"
    },
    {
      "inputs": [
        {
          "internalType": "address",
          "name": "account",
          "type": "address"
        }
      ],
      "name": "OwnableUnauthorizedAccount",
      "type": "error"
    },
    {
      "anonymous": false,
      "inputs": [
        {
          "indexed": true,
          "internalType": "address",
          "name": "previousOwner",
          "type": "address"
        },
        {
          "indexed": true,
          "internalType": "address",
          "name": "newOwner",
          "type": "address"
        }
      ],
      "name": "OwnershipTransferred",
      "type": "event"
    },
    {
      "anonymous": false,
      "inputs": [
        {
          "indexed": false,
          "internalType": "address",
          "name": "routerAddress",
          "type": "address"
        }
      ],
      "name": "ProtocolAddressUpdated",
      "type": "event"
    },
    {
      "anonymous": false,
      "inputs": [
        {
          "indexed": true,
          "internalType": "address",
          "name": "kolAddress",
          "type": "address"
        },
        {
          "indexed": false,
          "internalType": "address",
          "name": "routerAddress",
          "type": "address"
        }
      ],
      "name": "RouterCreated",
      "type": "event"
    },
    {
      "inputs": [
        {
          "internalType": "address",
          "name": "_kolAddress",
          "type": "address"
        },
        {
          "internalType": "uint256",
          "name": "_fixedFeeAmount",
          "type": "uint256"
        }
      ],
      "name": "createKOLRouter",
      "outputs": [
        {
          "internalType": "address",
          "name": "",
          "type": "address"
        }
      ],
      "stateMutability": "nonpayable",
      "type": "function"
    },
    {
      "inputs": [
        {
          "internalType": "uint256",
          "name": "",
          "type": "uint256"
        }
      ],
      "name": "deployedRouters",
      "outputs": [
        {
          "internalType": "address",
          "name": "",
          "type": "address"
        }
      ],
      "stateMutability": "view",
      "type": "function"
    },
    {
      "inputs": [
        {
          "internalType": "address",
          "name": "_kolAddress",
          "type": "address"
        },
        {
          "internalType": "uint256",
          "name": "_index",
          "type": "uint256"
        }
      ],
      "name": "getKOLRouter",
      "outputs": [
        {
          "internalType": "address",
          "name": "",
          "type": "address"
        }
      ],
      "stateMutability": "view",
      "type": "function"
    },
    {
      "inputs": [
        {
          "internalType": "address",
          "name": "_kolAddress",
          "type": "address"
        }
      ],
      "name": "getKOLRoutersCount",
      "outputs": [
        {
          "internalType": "uint256",
          "name": "",
          "type": "uint256"
        }
      ],
      "stateMutability": "view",
      "type": "function"
    },
    {
      "inputs": [],
      "name": "getTotalRouters",
      "outputs": [
        {
          "internalType": "uint256",
          "name": "",
          "type": "uint256"
        }
      ],
      "stateMutability": "view",
      "type": "function"
    },
    {
      "inputs": [
        {
          "internalType": "address",
          "name": "",
          "type": "address"
        },
        {
          "internalType": "uint256",
          "name": "",
          "type": "uint256"
        }
      ],
      "name": "kolToRouters",
      "outputs": [
        {
          "internalType": "address",
          "name": "",
          "type": "address"
        }
      ],
      "stateMutability": "view",
      "type": "function"
    },
    {
      "inputs": [],
      "name": "owner",
      "outputs": [
        {
          "internalType": "address",
          "name": "",
          "type": "address"
        }
      ],
      "stateMutability": "view",
      "type": "function"
    },
    {
      "inputs": [],
      "name": "protocolRouter",
      "outputs": [
        {
          "internalType": "address",
          "name": "",
          "type": "address"
        }
      ],
      "stateMutability": "view",
      "type": "function"
    },
    {
      "inputs": [],
      "name": "renounceOwnership",
      "outputs": [],
      "stateMutability": "nonpayable",
      "type": "function"
    },
    {
      "inputs": [
        {
          "internalType": "address",
          "name": "_protocolRouter",
          "type": "address"
        }
      ],
      "name": "setProtocolRouter",
      "outputs": [],
      "stateMutability": "nonpayable",
      "type": "function"
    },
    {
      "inputs": [
        {
          "internalType": "address",
          "name": "newOwner",
          "type": "address"
        }
      ],
      "name": "transferOwnership",
      "outputs": [],
      "stateMutability": "nonpayable",
      "type": "function"
    }
  ],
  "bytecode": "0x608060405234801561001057600080fd5b50604051611e3c380380611e3c83398101604081905261002f9161012d565b80338061005757604051631e4fbdf760e01b8152600060048201526024015b60405180910390fd5b610060816100dd565b506001600160a01b0381166100b75760405162461bcd60e51b815260206004820152601760248201527f496e76616c69642070726f746f636f6c20726f75746572000000000000000000604482015260640161004e565b600380546001600160a01b0319166001600160a01b03929092169190911790555061015d565b600080546001600160a01b038381166001600160a01b0319831681178455604051919092169283917f8be0079c531659141344cd1fd0a4f28419497f9722a3daafe3b4186f6b6457e09190a35050565b60006020828403121561013f57600080fd5b81516001600160a01b038116811461015657600080fd5b9392505050565b611cd08061016c6000396000f3fe608060405234801561001057600080fd5b50600436106100a95760003560e01c80638da5cb5b116100715780638da5cb5b14610120578063a151bda214610131578063aba09e1814610144578063debb482614610157578063e17232361461016a578063f2fde38b1461019357600080fd5b806301318bd7146100ae578063174f0f3c146100c35780632a2884e0146100da5780634049389014610105578063715018a614610118575b600080fd5b6100c16100bc366004610574565b6101a6565b005b6002545b6040519081526020015b60405180910390f35b6100ed6100e8366004610596565b610256565b6040516001600160a01b0390911681526020016100d1565b6003546100ed906001600160a01b031681565b6100c1610280565b6000546001600160a01b03166100ed565b6100ed61013f3660046105af565b610294565b6100ed6101523660046105af565b6103a2565b6100ed6101653660046105af565b6103da565b6100c7610178366004610574565b6001600160a01b031660009081526001602052604090205490565b6100c16101a1366004610574565b610420565b6101ae61045e565b6001600160a01b0381166102025760405162461bcd60e51b8152602060048201526016602482015275496e76616c696420726f75746572206164647265737360501b60448201526064015b60405180910390fd5b600380546001600160a01b0319166001600160a01b0383169081179091556040519081527f725168acf8fb2c310e106a05c2eed321da0de2fc4cf73dfe2594ca1d4795fd109060200160405180910390a150565b6002818154811061026657600080fd5b6000918252602090912001546001600160a01b0316905081565b61028861045e565b610292600061048b565b565b60006001600160a01b0383166102e25760405162461bcd60e51b8152602060048201526013602482015272496e76616c6964204b4f4c206164647265737360681b60448201526064016101f9565b60006102ee84846104db565b6001600160a01b038581166000818152600160208181526040808420805480850182559085528285200180549688166001600160a01b031997881681179091556002805494850181559094527f405787fa12a823e0f2b7631cc41b3ba8828b3321ca811111fa75cd3aa3bb5ace9092018054909516831790945551908152929350917fe957baec14239f50385ff25f23a9695e828ecf988a5af33b607cbd1b540bbebc910160405180910390a29392505050565b600160205281600052604060002081815481106103be57600080fd5b6000918252602090912001546001600160a01b03169150829050565b6001600160a01b0382166000908152600160205260408120805483908110610404576104046105d9565b6000918252602090912001546001600160a01b03169392505050565b61042861045e565b6001600160a01b03811661045257604051631e4fbdf760e01b8152600060048201526024016101f9565b61045b8161048b565b50565b6000546001600160a01b031633146102925760405163118cdaa760e01b81523360048201526024016101f9565b600080546001600160a01b038381166001600160a01b0319831681178455604051919092169283917f8be0079c531659141344cd1fd0a4f28419497f9722a3daafe3b4186f6b6457e09190a35050565b600354604051600091829185916001600160a01b031690309086906104ff9061054b565b6001600160a01b0394851681529284166020840152921660408201526060810191909152608001604051809103906000f080158015610542573d6000803e3d6000fd5b50949350505050565b6116ab806105f083390190565b80356001600160a01b038116811461056f57600080fd5b919050565b60006020828403121561058657600080fd5b61058f82610558565b9392505050565b6000602082840312156105a857600080fd5b5035919050565b600080604083850312156105c257600080fd5b6105cb83610558565b946020939093013593505050565b634e487b7160e01b600052603260045260246000fdfe608060405234801561001057600080fd5b506040516116ab3803806116ab83398101604081905261002f9161019a565b6001600055838383836001600160a01b0384166100935760405162461bcd60e51b815260206004820152601360248201527f496e76616c6964204b4f4c20616464726573730000000000000000000000000060448201526064015b60405180910390fd5b6001600160a01b0383166100de5760405162461bcd60e51b815260206004820152601260248201527124b73b30b634b2102222ac103937baba32b960711b604482015260640161008a565b6001600160a01b0382166101345760405162461bcd60e51b815260206004820152601760248201527f496e76616c696420666163746f72792061646472657373000000000000000000604482015260640161008a565b600180546001600160a01b03199081166001600160a01b0396871617909155600380548216948616949094179093556002805490931691909316179055600455506101e592505050565b80516001600160a01b038116811461019557600080fd5b919050565b600080600080608085870312156101b057600080fd5b6101b98561017e565b93506101c76020860161017e565b92506101d56040860161017e565b6060959095015193969295505050565b6114b7806101f46000396000f3fe6080604052600436106100ab5760003560e01c806373dd69981161006457806373dd69981461017f57806392fe8e701461019f578063966dae0e146101b25780639ab6156b146101d25780639ec9ac41146101e5578063b066ea7c146101fb57600080fd5b80630758d924146100b75780632075ad22146100f45780632a443fae1461011457806337dad2bb146101355780633dc8f8ec14610155578063476343ee1461016857600080fd5b366100b257005b600080fd5b3480156100c357600080fd5b506003546100d7906001600160a01b031681565b6040516001600160a01b0390911681526020015b60405180910390f35b610107610102366004610f03565b61020e565b6040516100eb9190610f64565b610127610122366004610fa7565b610419565b6040519081526020016100eb565b34801561014157600080fd5b506001546100d7906001600160a01b031681565b610107610163366004610fa7565b610602565b34801561017457600080fd5b5061017d61076b565b005b34801561018b57600080fd5b5061017d61019a366004611012565b610919565b6101076101ad366004610fa7565b6109fa565b3480156101be57600080fd5b506002546100d7906001600160a01b031681565b6101276101e0366004610fa7565b610bb0565b3480156101f157600080fd5b5061012760045481565b610127610209366004610f03565b610cd2565b60603460045481101561023c5760405162461bcd60e51b81526004016102339061102b565b60405180910390fd5b610244610dd8565b6000600454346102549190611075565b60035460405163103ad69160e11b81529192506001600160a01b031690632075ad2290839061028d908b908b908b908b906004016111fb565b60006040518083038185885af11580156102ab573d6000803e3d6000fd5b50505050506040513d6000823e601f3d908101601f191682016040526102d49190810190611246565b9250826000815181106102e9576102e9611313565b60200260200101518111156103cc576000336001600160a01b03168460008151811061031757610317611313565b60200260200101518361032a9190611075565b604051600081818185875af1925050503d8060008114610366576040519150601f19603f3d011682016040523d82523d6000602084013e61036b565b606091505b50509050806103ca5760405162461bcd60e51b815260206004820152602560248201527f4b4f4c53776170526f757465723a20524546554e445f5452414e534645525f46604482015264105253115160da1b6064820152608401610233565b505b600154600454604051600080516020611462833981519152926103fd926001600160a01b0390911691339190611329565b60405180910390a1506104106001600055565b50949350505050565b6000610423610dd8565b346004548110156104465760405162461bcd60e51b81526004016102339061102b565b61049033308961045960408a018a61134d565b600081811061046a5761046a611313565b905060200201602081019061047f9190611397565b6001600160a01b0316929190610e02565b61049d604086018661134d565b60008181106104ae576104ae611313565b90506020020160208101906104c39190611397565b60035460405163095ea7b360e01b81526001600160a01b039182166004820152602481018a905291169063095ea7b3906044016020604051808303816000875af1158015610515573d6000803e3d6000fd5b505050506040513d601f19601f8201168201806040525081019061053991906113bb565b506003546040516315221fd760e11b81526001600160a01b0390911690632a443fae90610572908a908a908a908a908a906004016113dd565b6020604051808303816000875af1158015610591573d6000803e3d6000fd5b505050506040513d601f19601f820116820180604052508101906105b59190611419565b600154600454604051929450600080516020611462833981519152926105e6926001600160a01b0316913391611329565b60405180910390a1506105f96001600055565b95945050505050565b606061060c610dd8565b3460045481101561062f5760405162461bcd60e51b81526004016102339061102b565b61064233308861045960408a018a61134d565b61064f604086018661134d565b600081811061066057610660611313565b90506020020160208101906106759190611397565b60035460405163095ea7b360e01b81526001600160a01b0391821660048201526024810189905291169063095ea7b3906044016020604051808303816000875af11580156106c7573d6000803e3d6000fd5b505050506040513d601f19601f820116820180604052508101906106eb91906113bb565b50600354604051630f723e3b60e21b81526001600160a01b0390911690633dc8f8ec90610724908a908a908a908a908a906004016113dd565b6000604051808303816000875af1158015610743573d6000803e3d6000fd5b505050506040513d6000823e601f3d908101601f191682016040526105b59190810190611246565b6001546001600160a01b031633146107c55760405162461bcd60e51b815260206004820152601f60248201527f4f6e6c79204b4f4c2063616e2063616c6c20746869732066756e6374696f6e006044820152606401610233565b6107cd610dd8565b47806108115760405162461bcd60e51b81526020600482015260136024820152724e6f206665657320746f20776974686472617760681b6044820152606401610233565b6001546040805160008082526020820192839052926001600160a01b031691849161083b91611432565b60006040518083038185875af1925050503d8060008114610878576040519150601f19603f3d011682016040523d82523d6000602084013e61087d565b606091505b50509050806108c65760405162461bcd60e51b8152602060048201526015602482015274119959481dda5d1a191c985dd85b0819985a5b1959605a1b6044820152606401610233565b600154604080518481526001600160a01b0390921660208301527f812bcf6853ebc81dc0a1d2323893eedad6cd086a4398311a699e0a7acdf187b3910160405180910390a150506109176001600055565b565b6001546001600160a01b031633146109735760405162461bcd60e51b815260206004820152601f60248201527f4f6e6c79204b4f4c2063616e2063616c6c20746869732066756e6374696f6e006044820152606401610233565b806000036109b55760405162461bcd60e51b815260206004820152600f60248201526e04665652063616e6e6f74206265203608c1b6044820152606401610233565b600480549082905560408051828152602081018490527f528d9479e9f9889a87a3c30c7f7ba537e5e59c4c85a37733b16e57c62df61302910160405180910390a15050565b606034600454811015610a1f5760405162461bcd60e51b81526004016102339061102b565b610a27610dd8565b610a3a33308861045960408a018a61134d565b610a47604086018661134d565b6000818110610a5857610a58611313565b9050602002016020810190610a6d9190611397565b60035460405163095ea7b360e01b81526001600160a01b0391821660048201526024810189905291169063095ea7b3906044016020604051808303816000875af1158015610abf573d6000803e3d6000fd5b505050506040513d601f19601f82011682018060405250810190610ae391906113bb565b5060035460405163092fe8e760e41b81526001600160a01b03909116906392fe8e7090610b1c908a908a908a908a908a906004016113dd565b6000604051808303816000875af1158015610b3b573d6000803e3d6000fd5b505050506040513d6000823e601f3d908101601f19168201604052610b639190810190611246565b60015460045460405192945060008051602061146283398151915292610b94926001600160a01b0316913391611329565b60405180910390a1610ba66001600055565b5095945050505050565b6000610bba610dd8565b34600454811015610bdd5760405162461bcd60e51b81526004016102339061102b565b610bf033308961045960408a018a61134d565b610bfd604086018661134d565b6000818110610c0e57610c0e611313565b9050602002016020810190610c239190611397565b60035460405163095ea7b360e01b81526001600160a01b039182166004820152602481018a905291169063095ea7b3906044016020604051808303816000875af1158015610c75573d6000803e3d6000fd5b505050506040513d601f19601f82011682018060405250810190610c9991906113bb565b50600354604051639ab6156b60e01b81526001600160a01b0390911690639ab6156b90610572908a908a908a908a908a906004016113dd565b6000610cdc610dd8565b34600454811015610cff5760405162461bcd60e51b81526004016102339061102b565b600060045434610d0f9190611075565b600354604051632c19ba9f60e21b81529192506001600160a01b03169063b066ea7c908390610d48908b908b908b908b906004016111fb565b60206040518083038185885af1158015610d66573d6000803e3d6000fd5b50505050506040513d601f19601f82011682018060405250810190610d8b9190611419565b60015460045460405192955060008051602061146283398151915292610dbc926001600160a01b0316913391611329565b60405180910390a15050610dd06001600055565b949350505050565b600260005403610dfb57604051633ee5aeb560e01b815260040160405180910390fd5b6002600055565b610e5c84856001600160a01b03166323b872dd868686604051602401610e2a93929190611329565b604051602081830303815290604052915060e01b6020820180516001600160e01b038381831617835250505050610e62565b50505050565b600080602060008451602086016000885af180610e85576040513d6000823e3d81fd5b50506000513d91508115610e9d578060011415610eaa565b6001600160a01b0384163b155b15610e5c57604051635274afe760e01b81526001600160a01b0385166004820152602401610233565b600060608284031215610ee557600080fd5b50919050565b6001600160a01b0381168114610f0057600080fd5b50565b60008060008060808587031215610f1957600080fd5b84359350602085013567ffffffffffffffff811115610f3757600080fd5b610f4387828801610ed3565b9350506040850135610f5481610eeb565b9396929550929360600135925050565b602080825282518282018190526000918401906040840190835b81811015610f9c578351835260209384019390920191600101610f7e565b509095945050505050565b600080600080600060a08688031215610fbf57600080fd5b8535945060208601359350604086013567ffffffffffffffff811115610fe457600080fd5b610ff088828901610ed3565b935050606086013561100181610eeb565b949793965091946080013592915050565b60006020828403121561102457600080fd5b5035919050565b6020808252602a908201527f4b4f4c53776170526f757465723a20494e53554646494349454e545f4e41544960408201526956455f464f525f46454560b01b606082015260800190565b8181038181111561109657634e487b7160e01b600052601160045260246000fd5b92915050565b6000808335601e198436030181126110b357600080fd5b830160208101925035905067ffffffffffffffff8111156110d357600080fd5b8060051b36038213156110e557600080fd5b9250929050565b81835260208301925060008160005b8481101561112c57813561110e81610eeb565b6001600160a01b0316865260209586019591909101906001016110fb565b5093949350505050565b6000611142828361109c565b606080865285018190526001600160fb1b0381111561116057600080fd5b60051b80826080870137840190506080810161117f602085018561109c565b86840360800160208801529182905291600091839160a0015b818410156111cb5784359250600483101580156111b457600080fd5b508281526020948501946001949094019301611198565b6111d8604088018861109c565b9550935087810360408901526111ef8186866110ec565b98975050505050505050565b8481526080602082015260006112146080830186611136565b6001600160a01b03949094166040830152506060015292915050565b634e487b7160e01b600052604160045260246000fd5b60006020828403121561125857600080fd5b815167ffffffffffffffff81111561126f57600080fd5b8201601f8101841361128057600080fd5b805167ffffffffffffffff81111561129a5761129a611230565b8060051b604051601f19603f830116810181811067ffffffffffffffff821117156112c7576112c7611230565b6040529182526020818401810192908101878411156112e557600080fd5b6020850194505b83851015611308578451808252602095860195909350016112ec565b509695505050505050565b634e487b7160e01b600052603260045260246000fd5b6001600160a01b039384168152919092166020820152604081019190915260600190565b6000808335601e1984360301811261136457600080fd5b83018035915067ffffffffffffffff82111561137f57600080fd5b6020019150600581901b36038213156110e557600080fd5b6000602082840312156113a957600080fd5b81356113b481610eeb565b9392505050565b6000602082840312156113cd57600080fd5b815180151581146113b457600080fd5b85815284602082015260a0604082015260006113fc60a0830186611136565b6001600160a01b0394909416606083015250608001529392505050565b60006020828403121561142b57600080fd5b5051919050565b6000825160005b818110156114535760208186018101518583015201611439565b50600092019182525091905056febad29f2bbbf6bb1e15563203bcdb0dd660c54eab078763eb66f797efa8f5e8c1a264697066735822122091e5783915b3ab8b92e44aa3c0c72dd9f4f7793389e0976f68c1673744da078a64736f6c634300081d0033a2646970667358221220f9aab725649b4f6cb958630921609a9007f41c8f8b57b483954a4f850683366864736f6c634300081d0033",
  "linkReferences": {},
  "deployedLinkReferences": {}
}