{
  "_format": "hh-sol-artifact-1",
  "contractName": "KOLFactoryPangolin",
  "sourceName": "contracts/kol-router/KOLFactoryPangolin.sol",
  "abi": [
    {
      "inputs": [
        {
          "internalType": "address",
          "name": "_pangolinRouter",
          "type": "address"
        },
        {
          "internalType": "address",
          "name": "_sherryFoundationAddress",
          "type": "address"
        },
        {
          "internalType": "address",
          "name": "_sherryTreasuryAddress",
          "type": "address"
        }
      ],
      "stateMutability": "nonpayable",
      "type": "constructor"
    },
    {
      "inputs": [
        {
          "internalType": "address",
          "name": "owner",
          "type": "address"
        }
      ],
      "name": "OwnableInvalidOwner",
      "type": "error"
    },
    {
      "inputs": [
        {
          "internalType": "address",
          "name": "account",
          "type": "address"
        }
      ],
      "name": "OwnableUnauthorizedAccount",
      "type": "error"
    },
    {
      "anonymous": false,
      "inputs": [
        {
          "indexed": false,
          "internalType": "uint16",
          "name": "kolFeeRate",
          "type": "uint16"
        },
        {
          "indexed": false,
          "internalType": "uint16",
          "name": "foundationFeeRate",
          "type": "uint16"
        },
        {
          "indexed": false,
          "internalType": "uint16",
          "name": "treasuryFeeRate",
          "type": "uint16"
        }
      ],
      "name": "FeeRatesUpdated",
      "type": "event"
    },
    {
      "anonymous": false,
      "inputs": [
        {
          "indexed": false,
          "internalType": "address",
          "name": "foundationAddress",
          "type": "address"
        }
      ],
      "name": "FoundationAddressUpdated",
      "type": "event"
    },
    {
      "anonymous": false,
      "inputs": [
        {
          "indexed": true,
          "internalType": "address",
          "name": "previousOwner",
          "type": "address"
        },
        {
          "indexed": true,
          "internalType": "address",
          "name": "newOwner",
          "type": "address"
        }
      ],
      "name": "OwnershipTransferred",
      "type": "event"
    },
    {
      "anonymous": false,
      "inputs": [
        {
          "indexed": false,
          "internalType": "address",
          "name": "routerAddress",
          "type": "address"
        }
      ],
      "name": "ProtocolAddressUpdated",
      "type": "event"
    },
    {
      "anonymous": false,
      "inputs": [
        {
          "indexed": true,
          "internalType": "address",
          "name": "kolAddress",
          "type": "address"
        },
        {
          "indexed": false,
          "internalType": "address",
          "name": "routerAddress",
          "type": "address"
        }
      ],
      "name": "RouterCreated",
      "type": "event"
    },
    {
      "anonymous": false,
      "inputs": [
        {
          "indexed": false,
          "internalType": "address",
          "name": "foundationAddress",
          "type": "address"
        }
      ],
      "name": "TreasuryAddressUpdated",
      "type": "event"
    },
    {
      "inputs": [],
      "name": "BASIS_POINTS",
      "outputs": [
        {
          "internalType": "uint16",
          "name": "",
          "type": "uint16"
        }
      ],
      "stateMutability": "view",
      "type": "function"
    },
    {
      "inputs": [
        {
          "internalType": "address",
          "name": "_kolAddress",
          "type": "address"
        }
      ],
      "name": "createKOLRouter",
      "outputs": [
        {
          "internalType": "address",
          "name": "",
          "type": "address"
        }
      ],
      "stateMutability": "nonpayable",
      "type": "function"
    },
    {
      "inputs": [
        {
          "internalType": "uint256",
          "name": "",
          "type": "uint256"
        }
      ],
      "name": "deployedRouters",
      "outputs": [
        {
          "internalType": "address",
          "name": "",
          "type": "address"
        }
      ],
      "stateMutability": "view",
      "type": "function"
    },
    {
      "inputs": [],
      "name": "foundationFeeRate",
      "outputs": [
        {
          "internalType": "uint16",
          "name": "",
          "type": "uint16"
        }
      ],
      "stateMutability": "view",
      "type": "function"
    },
    {
      "inputs": [],
      "name": "getBasisPoints",
      "outputs": [
        {
          "internalType": "uint16",
          "name": "",
          "type": "uint16"
        }
      ],
      "stateMutability": "pure",
      "type": "function"
    },
    {
      "inputs": [],
      "name": "getFoundationFeeRate",
      "outputs": [
        {
          "internalType": "uint16",
          "name": "",
          "type": "uint16"
        }
      ],
      "stateMutability": "view",
      "type": "function"
    },
    {
      "inputs": [],
      "name": "getKOLFeeRate",
      "outputs": [
        {
          "internalType": "uint16",
          "name": "",
          "type": "uint16"
        }
      ],
      "stateMutability": "view",
      "type": "function"
    },
    {
      "inputs": [
        {
          "internalType": "address",
          "name": "_kolAddress",
          "type": "address"
        },
        {
          "internalType": "uint256",
          "name": "_index",
          "type": "uint256"
        }
      ],
      "name": "getKOLRouter",
      "outputs": [
        {
          "internalType": "address",
          "name": "",
          "type": "address"
        }
      ],
      "stateMutability": "view",
      "type": "function"
    },
    {
      "inputs": [
        {
          "internalType": "address",
          "name": "_kolAddress",
          "type": "address"
        }
      ],
      "name": "getKOLRoutersCount",
      "outputs": [
        {
          "internalType": "uint256",
          "name": "",
          "type": "uint256"
        }
      ],
      "stateMutability": "view",
      "type": "function"
    },
    {
      "inputs": [],
      "name": "getTotalFeeRate",
      "outputs": [
        {
          "internalType": "uint16",
          "name": "",
          "type": "uint16"
        }
      ],
      "stateMutability": "view",
      "type": "function"
    },
    {
      "inputs": [],
      "name": "getTotalRouters",
      "outputs": [
        {
          "internalType": "uint256",
          "name": "",
          "type": "uint256"
        }
      ],
      "stateMutability": "view",
      "type": "function"
    },
    {
      "inputs": [],
      "name": "getTreasuryFeeRate",
      "outputs": [
        {
          "internalType": "uint16",
          "name": "",
          "type": "uint16"
        }
      ],
      "stateMutability": "view",
      "type": "function"
    },
    {
      "inputs": [],
      "name": "kolFeeRate",
      "outputs": [
        {
          "internalType": "uint16",
          "name": "",
          "type": "uint16"
        }
      ],
      "stateMutability": "view",
      "type": "function"
    },
    {
      "inputs": [],
      "name": "owner",
      "outputs": [
        {
          "internalType": "address",
          "name": "",
          "type": "address"
        }
      ],
      "stateMutability": "view",
      "type": "function"
    },
    {
      "inputs": [],
      "name": "protocolRouter",
      "outputs": [
        {
          "internalType": "address",
          "name": "",
          "type": "address"
        }
      ],
      "stateMutability": "view",
      "type": "function"
    },
    {
      "inputs": [],
      "name": "renounceOwnership",
      "outputs": [],
      "stateMutability": "nonpayable",
      "type": "function"
    },
    {
      "inputs": [
        {
          "internalType": "uint16",
          "name": "_kolFeeRate",
          "type": "uint16"
        },
        {
          "internalType": "uint16",
          "name": "_foundationFeeRate",
          "type": "uint16"
        },
        {
          "internalType": "uint16",
          "name": "_treasuryFeeRate",
          "type": "uint16"
        }
      ],
      "name": "setFeeRates",
      "outputs": [],
      "stateMutability": "nonpayable",
      "type": "function"
    },
    {
      "inputs": [
        {
          "internalType": "address",
          "name": "_protocolRouter",
          "type": "address"
        }
      ],
      "name": "setProtocolRouter",
      "outputs": [],
      "stateMutability": "nonpayable",
      "type": "function"
    },
    {
      "inputs": [
        {
          "internalType": "address",
          "name": "_sherryFoundationAddress",
          "type": "address"
        }
      ],
      "name": "setSherryFoundationAddress",
      "outputs": [],
      "stateMutability": "nonpayable",
      "type": "function"
    },
    {
      "inputs": [
        {
          "internalType": "address",
          "name": "_sherryTreasuryAddress",
          "type": "address"
        }
      ],
      "name": "setSherryTreasuryAddress",
      "outputs": [],
      "stateMutability": "nonpayable",
      "type": "function"
    },
    {
      "inputs": [],
      "name": "sherryFoundationAddress",
      "outputs": [
        {
          "internalType": "address",
          "name": "",
          "type": "address"
        }
      ],
      "stateMutability": "view",
      "type": "function"
    },
    {
      "inputs": [],
      "name": "sherryTreasuryAddress",
      "outputs": [
        {
          "internalType": "address",
          "name": "",
          "type": "address"
        }
      ],
      "stateMutability": "view",
      "type": "function"
    },
    {
      "inputs": [
        {
          "internalType": "address",
          "name": "newOwner",
          "type": "address"
        }
      ],
      "name": "transferOwnership",
      "outputs": [],
      "stateMutability": "nonpayable",
      "type": "function"
    },
    {
      "inputs": [],
      "name": "treasuryFeeRate",
      "outputs": [
        {
          "internalType": "uint16",
          "name": "",
          "type": "uint16"
        }
      ],
      "stateMutability": "view",
      "type": "function"
    }
  ],
  "bytecode": "0x60806040526005805465ffffffffffff60a01b1916640c800c801960a21b17905534801561002c57600080fd5b50604051612f2e380380612f2e83398101604081905261004b91610233565b828282338061007557604051631e4fbdf760e01b8152600060048201526024015b60405180910390fd5b61007e816101c7565b506001600160a01b0383166100d55760405162461bcd60e51b815260206004820152601760248201527f496e76616c69642070726f746f636f6c20726f75746572000000000000000000604482015260640161006c565b6001600160a01b03821661012b5760405162461bcd60e51b815260206004820152601a60248201527f496e76616c696420666f756e646174696f6e2061646472657373000000000000604482015260640161006c565b6001600160a01b0381166101815760405162461bcd60e51b815260206004820152601860248201527f496e76616c696420747265617375727920616464726573730000000000000000604482015260640161006c565b600380546001600160a01b039485166001600160a01b03199182161790915560048054938516938216939093179092556005805491909316911617905550610276915050565b600080546001600160a01b038381166001600160a01b0319831681178455604051919092169283917f8be0079c531659141344cd1fd0a4f28419497f9722a3daafe3b4186f6b6457e09190a35050565b80516001600160a01b038116811461022e57600080fd5b919050565b60008060006060848603121561024857600080fd5b61025184610217565b925061025f60208501610217565b915061026d60408501610217565b90509250925092565b612ca9806102856000396000f3fe608060405234801561001057600080fd5b50600436106101585760003560e01c80638da5cb5b116100c3578063dc09ff3c1161007c578063dc09ff3c146102c5578063debb4826146102da578063e1723236146102ed578063e1f1c4a714610316578063f2fde38b1461031f578063f5041d4b1461033257600080fd5b80638da5cb5b14610260578063958c79491461027157806397a18e5f14610284578063a014cd631461028c578063a96aec821461029f578063b8590ded146102b257600080fd5b80635d79d9ea116101155780635d79d9ea146101ed57806366601032146102005780636920defc14610228578063715018a61461023b578063780349e914610243578063894e47e11461025857600080fd5b806301318bd71461015d578063174f0f3c146101725780632a2884e0146101895780633c31fa62146101b457806340493890146101c75780635b457fa3146101da575b600080fd5b61017061016b3660046109ff565b610345565b005b6002545b6040519081526020015b60405180910390f35b61019c610197366004610a21565b6103f6565b6040516001600160a01b039091168152602001610180565b6101706101c2366004610a4c565b610420565b60035461019c906001600160a01b031681565b61019c6101e83660046109ff565b610599565b60045461019c906001600160a01b031681565b60055461021590600160c01b900461ffff1681565b60405161ffff9091168152602001610180565b600554600160b01b900461ffff16610215565b6101706106a5565b60055461021590600160b01b900461ffff1681565b6102156106b9565b6000546001600160a01b031661019c565b61017061027f3660046109ff565b6106f6565b612710610215565b600554600160a01b900461ffff16610215565b6101706102ad3660046109ff565b6107a2565b60055461019c906001600160a01b031681565b60055461021590600160a01b900461ffff1681565b61019c6102e8366004610a8f565b61084e565b6101766102fb3660046109ff565b6001600160a01b031660009081526001602052604090205490565b61021561271081565b61017061032d3660046109ff565b610896565b600554600160c01b900461ffff16610215565b61034d6108d4565b6001600160a01b0381166103a15760405162461bcd60e51b8152602060048201526016602482015275496e76616c696420726f75746572206164647265737360501b60448201526064015b60405180910390fd5b600380546001600160a01b0319166001600160a01b0383169081179091556040519081527f725168acf8fb2c310e106a05c2eed321da0de2fc4cf73dfe2594ca1d4795fd10906020015b60405180910390a150565b6002818154811061040657600080fd5b6000918252602090912001546001600160a01b0316905081565b6104286108d4565b612710816104368486610ab9565b6104409190610ab9565b61ffff1611156104925760405162461bcd60e51b815260206004820152601c60248201527f546f74616c206665652063616e6e6f74206578636565642031303025000000006044820152606401610398565b60008361ffff161180156104aa575060008261ffff16115b80156104ba575060008161ffff16115b6105065760405162461bcd60e51b815260206004820181905260248201527f466565207261746573206d7573742062652067726561746572207468616e20306044820152606401610398565b6005805463ffffffff60a01b1916600160a01b61ffff86811691820261ffff60b01b191692909217600160b01b8684169081029190911761ffff60c01b1916600160c01b93861693840217909355604080519182526020820193909352918201527f68c2357cd55d7c20e03059c904d4ee872226cc9e023f10ae955d94d8863810db9060600160405180910390a1505050565b60006001600160a01b0382166105e75760405162461bcd60e51b8152602060048201526013602482015272496e76616c6964204b4f4c206164647265737360681b6044820152606401610398565b60006105f283610901565b6001600160a01b038481166000818152600160208181526040808420805480850182559085528285200180549688166001600160a01b031997881681179091556002805494850181559094527f405787fa12a823e0f2b7631cc41b3ba8828b3321ca811111fa75cd3aa3bb5ace9092018054909516831790945551908152929350917fe957baec14239f50385ff25f23a9695e828ecf988a5af33b607cbd1b540bbebc910160405180910390a292915050565b6106ad6108d4565b6106b76000610986565b565b60055460009061ffff600160c01b82048116916106e791600160b01b8204811691600160a01b900416610ab9565b6106f19190610ab9565b905090565b6106fe6108d4565b6001600160a01b0381166107545760405162461bcd60e51b815260206004820152601860248201527f496e76616c6964207472656173757279206164647265737300000000000000006044820152606401610398565b600580546001600160a01b0319166001600160a01b0383169081179091556040519081527fb6a5e89655cf506139085f051af608195ed056f8dc550b180a1c38d401e2b6c4906020016103eb565b6107aa6108d4565b6001600160a01b0381166108005760405162461bcd60e51b815260206004820152601a60248201527f496e76616c696420666f756e646174696f6e20616464726573730000000000006044820152606401610398565b600480546001600160a01b0319166001600160a01b0383169081179091556040519081527fd451575e0d555b0fcd35add8eff1239d7486e3f4f256239a9af21ea316250e4b906020016103eb565b6001600160a01b038216600090815260016020526040812080548390811061087857610878610ae1565b6000918252602090912001546001600160a01b031690505b92915050565b61089e6108d4565b6001600160a01b0381166108c857604051631e4fbdf760e01b815260006004820152602401610398565b6108d181610986565b50565b6000546001600160a01b031633146106b75760405163118cdaa760e01b8152336004820152602401610398565b600354600454600554604051600093849386936001600160a01b039283169330939283169290911690610933906109d6565b6001600160a01b0395861681529385166020850152918416604084015283166060830152909116608082015260a001604051809103906000f08015801561097e573d6000803e3d6000fd5b509392505050565b600080546001600160a01b038381166001600160a01b0319831681178455604051919092169283917f8be0079c531659141344cd1fd0a4f28419497f9722a3daafe3b4186f6b6457e09190a35050565b61217c80610af883390190565b80356001600160a01b03811681146109fa57600080fd5b919050565b600060208284031215610a1157600080fd5b610a1a826109e3565b9392505050565b600060208284031215610a3357600080fd5b5035919050565b803561ffff811681146109fa57600080fd5b600080600060608486031215610a6157600080fd5b610a6a84610a3a565b9250610a7860208501610a3a565b9150610a8660408501610a3a565b90509250925092565b60008060408385031215610aa257600080fd5b610aab836109e3565b946020939093013593505050565b61ffff818116838216019081111561089057634e487b7160e01b600052601160045260246000fd5b634e487b7160e01b600052603260045260246000fdfe608060405234801561001057600080fd5b5060405161217c38038061217c83398101604081905261002f91610265565b600160005584848484846001600160a01b0385166100945760405162461bcd60e51b815260206004820152601360248201527f496e76616c6964204b4f4c20616464726573730000000000000000000000000060448201526064015b60405180910390fd5b6001600160a01b0384166100df5760405162461bcd60e51b815260206004820152601260248201527124b73b30b634b2102222ac103937baba32b960711b604482015260640161008b565b6001600160a01b0383166101355760405162461bcd60e51b815260206004820152601760248201527f496e76616c696420666163746f72792061646472657373000000000000000000604482015260640161008b565b6001600160a01b03821661018b5760405162461bcd60e51b815260206004820152601a60248201527f496e76616c696420666f756e646174696f6e2061646472657373000000000000604482015260640161008b565b6001600160a01b0381166101e15760405162461bcd60e51b815260206004820152601860248201527f496e76616c696420747265617375727920616464726573730000000000000000604482015260640161008b565b600180546001600160a01b03199081166001600160a01b03978816179091556003805482169587169590951790945560028054851693861693909317909255600480548416918516919091179055600580549092169216919091179055506102ca9350505050565b80516001600160a01b038116811461026057600080fd5b919050565b600080600080600060a0868803121561027d57600080fd5b61028686610249565b945061029460208701610249565b93506102a260408701610249565b92506102b060608701610249565b91506102be60808701610249565b90509295509295909350565b611ea3806102d96000396000f3fe6080604052600436106100ec5760003560e01c80638803dbee1161008a578063bc1d802011610059578063bc1d80201461026a578063bdab6fc614610298578063c45a0155146102b8578063e3427143146102d857600080fd5b80638803dbee146102045780638a657e6714610224578063a2a1623d14610237578063b8590ded1461024a57600080fd5b806346cc4450116100c657806346cc4450146101825780635d79d9ea146101a4578063676528d1146101c45780637a42416a146101e457600080fd5b80630758d924146100f857806337dad2bb1461013557806338ed17391461015557600080fd5b366100f357005b600080fd5b34801561010457600080fd5b50600354610118906001600160a01b031681565b6040516001600160a01b0390911681526020015b60405180910390f35b34801561014157600080fd5b50600154610118906001600160a01b031681565b34801561016157600080fd5b506101756101703660046119cd565b6102f8565b60405161012c9190611a3f565b34801561018e57600080fd5b506101a261019d366004611a82565b61050e565b005b3480156101b057600080fd5b50600454610118906001600160a01b031681565b3480156101d057600080fd5b506101756101df3660046119cd565b6107aa565b3480156101f057600080fd5b506101756101ff3660046119cd565b6108d8565b34801561021057600080fd5b5061017561021f3660046119cd565b610aed565b610175610232366004611ac4565b610cf6565b610175610245366004611ac4565b610f5f565b34801561025657600080fd5b50600554610118906001600160a01b031681565b34801561027657600080fd5b5061028a610285366004611b2a565b611096565b60405190815260200161012c565b3480156102a457600080fd5b5061028a6102b3366004611b4c565b611120565b3480156102c457600080fd5b50600254610118906001600160a01b031681565b3480156102e457600080fd5b506101756102f3366004611a82565b611244565b60606103026113b0565b6000871161032b5760405162461bcd60e51b815260040161032290611b65565b60405180910390fd5b60008585600081811061034057610340611ba8565b90506020020160208101906103559190611b2a565b905061036c6001600160a01b03821633308b6113da565b60006103788983611447565b600354815160405163095ea7b360e01b81526001600160a01b039283166004820152602481019190915291925083169063095ea7b3906044016020604051808303816000875af11580156103d0573d6000803e3d6000fd5b505050506040513d601f19601f820116820180604052508101906103f49190611bbe565b5060035481516040516338ed173960e01b81526001600160a01b03909216916338ed17399161042f918c908c908c908c908c90600401611c28565b6000604051808303816000875af115801561044e573d6000803e3d6000fd5b505050506040513d6000823e601f3d908101601f191682016040526104769190810190611c7c565b92508686610485600182611d5f565b81811061049457610494611ba8565b90506020020160208101906104a99190611b2a565b60015482516020840151604080860151606087015191516001600160a01b039687169633961694600080516020611e4e833981519152946104f0948b949293919291611d72565b60405180910390a450506105046001600055565b9695505050505050565b6001546001600160a01b031633146105685760405162461bcd60e51b815260206004820152601f60248201527f4f6e6c79204b4f4c2063616e2063616c6c20746869732066756e6374696f6e006044820152606401610322565b6105706113b0565b6000478015610622576001546040516000916001600160a01b03169083908381818185875af1925050503d80600081146105c6576040519150601f19603f3d011682016040523d82523d6000602084013e6105cb565b606091505b505090508061061c5760405162461bcd60e51b815260206004820152601c60248201527f4e617469766520666565207769746864726177616c206661696c6564000000006044820152606401610322565b60019250505b60005b8381101561075657600085858381811061064157610641611ba8565b90506020020160208101906106569190611b2a565b6001600160a01b03161461074e57600085858381811061067857610678611ba8565b905060200201602081019061068d9190611b2a565b6040516370a0823160e01b81523060048201526001600160a01b0391909116906370a0823190602401602060405180830381865afa1580156106d3573d6000803e3d6000fd5b505050506040513d601f19601f820116820180604052508101906106f79190611da0565b9050801561074c57600154610747906001600160a01b03168288888681811061072257610722611ba8565b90506020020160208101906107379190611b2a565b6001600160a01b031691906118c3565b600193505b505b600101610625565b508161079a5760405162461bcd60e51b81526020600482015260136024820152724e6f206665657320746f20776974686472617760681b6044820152606401610322565b50506107a66001600055565b5050565b60606107b46113b0565b600087116107d45760405162461bcd60e51b815260040161032290611b65565b6000858560008181106107e9576107e9611ba8565b90506020020160208101906107fe9190611b2a565b90506108156001600160a01b03821633308b6113da565b60006108218983611447565b600354815160405163095ea7b360e01b81526001600160a01b039283166004820152602481019190915291925083169063095ea7b3906044016020604051808303816000875af1158015610879573d6000803e3d6000fd5b505050506040513d601f19601f8201168201806040525081019061089d9190611bbe565b50600354815160405163676528d160e01b81526001600160a01b039092169163676528d19161042f918c908c908c908c908c90600401611c28565b6060600086116108fa5760405162461bcd60e51b815260040161032290611b65565b60008585600081811061090f5761090f611ba8565b90506020020160208101906109249190611b2a565b905061093b6001600160a01b03821633308a6113da565b60006109478883611447565b600354815160405163095ea7b360e01b81526001600160a01b039283166004820152602481019190915291925083169063095ea7b3906044016020604051808303816000875af115801561099f573d6000803e3d6000fd5b505050506040513d601f19601f820116820180604052508101906109c39190611bbe565b506003548151604051633d2120b560e11b81526001600160a01b0390921691637a42416a916109ff918d91908c908c908c908c90600401611c28565b6000604051808303816000875af1158015610a1e573d6000803e3d6000fd5b505050506040513d6000823e601f3d908101601f19168201604052610a469190810190611c7c565b92508686610a55600182611d5f565b818110610a6457610a64611ba8565b9050602002016020810190610a799190611b2a565b60015484516001600160a01b039283169233921690600080516020611e4e8339815191529086908890600090610ab157610ab1611ba8565b6020026020010151866020015187604001518860600151604051610ad9959493929190611d72565b60405180910390a450509695505050505050565b6060610af76113b0565b60008611610b175760405162461bcd60e51b815260040161032290611b65565b600085856000818110610b2c57610b2c611ba8565b9050602002016020810190610b419190611b2a565b9050610b586001600160a01b03821633308a6113da565b6000610b648883611447565b600354815160405163095ea7b360e01b81526001600160a01b039283166004820152602481019190915291925083169063095ea7b3906044016020604051808303816000875af1158015610bbc573d6000803e3d6000fd5b505050506040513d601f19601f82011682018060405250810190610be09190611bbe565b506003548151604051634401edf760e11b81526001600160a01b0390921691638803dbee91610c1c918d91908c908c908c908c90600401611c28565b6000604051808303816000875af1158015610c3b573d6000803e3d6000fd5b505050506040513d6000823e601f3d908101601f19168201604052610c639190810190611c7c565b92508686610c72600182611d5f565b818110610c8157610c81611ba8565b9050602002016020810190610c969190611b2a565b60015484516001600160a01b039283169233921690600080516020611e4e8339815191529086908890600090610cce57610cce611ba8565b60200260200101518660200151876040015188606001516040516104f0959493929190611d72565b6060610d006113b0565b60003411610d205760405162461bcd60e51b815260040161032290611b65565b6000610d2d346000611447565b6003548151604051638a657e6760e01b81529293506001600160a01b0390911691638a657e679190610d6b908b908b908b908b908b90600401611db9565b60006040518083038185885af1158015610d89573d6000803e3d6000fd5b50505050506040513d6000823e601f3d908101601f19168201604052610db29190810190611c7c565b915081600081518110610dc757610dc7611ba8565b602002602001015181600001511115610eb2576000336001600160a01b031683600081518110610df957610df9611ba8565b60200260200101518360000151610e109190611d5f565b604051600081818185875af1925050503d8060008114610e4c576040519150601f19603f3d011682016040523d82523d6000602084013e610e51565b606091505b5050905080610eb05760405162461bcd60e51b815260206004820152602560248201527f4b4f4c53776170526f757465723a20524546554e445f5452414e534645525f46604482015264105253115160da1b6064820152608401610322565b505b8585610ebf600182611d5f565b818110610ece57610ece611ba8565b9050602002016020810190610ee39190611b2a565b60015483516001600160a01b039283169233921690600080516020611e4e8339815191529060009087908290610f1b57610f1b611ba8565b6020026020010151866020015187604001518860600151604051610f43959493929190611d72565b60405180910390a450610f566001600055565b95945050505050565b6060610f696113b0565b60003411610f895760405162461bcd60e51b815260040161032290611b65565b6000610f96346000611447565b600354815160405163a2a1623d60e01b81529293506001600160a01b039091169163a2a1623d9190610fd4908b908b908b908b908b90600401611db9565b60006040518083038185885af1158015610ff2573d6000803e3d6000fd5b50505050506040513d6000823e601f3d908101601f1916820160405261101b9190810190611c7c565b9150858561102a600182611d5f565b81811061103957611039611ba8565b905060200201602081019061104e9190611b2a565b60015482516020840151604080860151606087015191516001600160a01b039687169633961694600080516020611e4e83398151915294610f43946000949293919291611d72565b60006001600160a01b0382166110ad575047919050565b6040516370a0823160e01b81523060048201526001600160a01b038316906370a0823190602401602060405180830381865afa1580156110f1573d6000803e3d6000fd5b505050506040513d601f19601f820116820180604052508101906111159190611da0565b92915050565b919050565b600080600260009054906101000a90046001600160a01b03166001600160a01b031663894e47e16040518163ffffffff1660e01b8152600401602060405180830381865afa158015611176573d6000803e3d6000fd5b505050506040513d601f19601f8201168201806040525081019061119a9190611df0565b90506000600260009054906101000a90046001600160a01b03166001600160a01b03166397a18e5f6040518163ffffffff1660e01b8152600401602060405180830381865afa1580156111f1573d6000803e3d6000fd5b505050506040513d601f19601f820116820180604052508101906112159190611df0565b905060008161ffff168361ffff168661122e9190611e14565b6112389190611e2b565b9050610f568186611d5f565b60608167ffffffffffffffff81111561125f5761125f611c66565b604051908082528060200260200182016040528015611288578160200160208202803683370190505b50905060005b828110156113a95760008484838181106112aa576112aa611ba8565b90506020020160208101906112bf9190611b2a565b6001600160a01b0316036112f157478282815181106112e0576112e0611ba8565b6020026020010181815250506113a1565b83838281811061130357611303611ba8565b90506020020160208101906113189190611b2a565b6040516370a0823160e01b81523060048201526001600160a01b0391909116906370a0823190602401602060405180830381865afa15801561135e573d6000803e3d6000fd5b505050506040513d601f19601f820116820180604052508101906113829190611da0565b82828151811061139457611394611ba8565b6020026020010181815250505b60010161128e565b5092915050565b6002600054036113d357604051633ee5aeb560e01b815260040160405180910390fd5b6002600055565b6040516001600160a01b0384811660248301528381166044830152606482018390526114419186918216906323b872dd906084015b604051602081830303815290604052915060e01b6020820180516001600160e01b0383818316178352505050506118f9565b50505050565b6114726040518060800160405280600081526020016000815260200160008152602001600081525090565b6002546040805163a014cd6360e01b815290516000926001600160a01b03169163a014cd639160048083019260209291908290030181865afa1580156114bc573d6000803e3d6000fd5b505050506040513d601f19601f820116820180604052508101906114e09190611df0565b90506000600260009054906101000a90046001600160a01b03166001600160a01b0316636920defc6040518163ffffffff1660e01b8152600401602060405180830381865afa158015611537573d6000803e3d6000fd5b505050506040513d601f19601f8201168201806040525081019061155b9190611df0565b90506000600260009054906101000a90046001600160a01b03166001600160a01b031663f5041d4b6040518163ffffffff1660e01b8152600401602060405180830381865afa1580156115b2573d6000803e3d6000fd5b505050506040513d601f19601f820116820180604052508101906115d69190611df0565b90506000600260009054906101000a90046001600160a01b03166001600160a01b03166397a18e5f6040518163ffffffff1660e01b8152600401602060405180830381865afa15801561162d573d6000803e3d6000fd5b505050506040513d601f19601f820116820180604052508101906116519190611df0565b905060008161ffff168561ffff168961166a9190611e14565b6116749190611e2b565b905060008261ffff168561ffff168a61168d9190611e14565b6116979190611e2b565b905060008361ffff168561ffff168b6116b09190611e14565b6116ba9190611e2b565b90506001600160a01b038916611840576004546040516000916001600160a01b03169084908381818185875af1925050503d8060008114611717576040519150601f19603f3d011682016040523d82523d6000602084013e61171c565b606091505b50509050806117825760405162461bcd60e51b815260206004820152602c60248201527f4b4f4c53776170526f757465723a2046554e444154494f4e5f4645455f54524160448201526b1394d1915497d1905253115160a21b6064820152608401610322565b6005546040516000916001600160a01b03169084908381818185875af1925050503d80600081146117cf576040519150601f19603f3d011682016040523d82523d6000602084013e6117d4565b606091505b50509050806118395760405162461bcd60e51b815260206004820152602b60248201527f4b4f4c53776170526f757465723a2054524541535552595f4645455f5452414e60448201526a14d1915497d1905253115160aa1b6064820152608401610322565b5050611874565b60045461185a906001600160a01b038b81169116846118c3565b600554611874906001600160a01b038b81169116836118c3565b60008183611882868e611d5f565b61188c9190611d5f565b6118969190611d5f565b60408051608081018252918252602082019590955293840192909252606083015250979650505050505050565b6040516001600160a01b038381166024830152604482018390526118f491859182169063a9059cbb9060640161140f565b505050565b600080602060008451602086016000885af18061191c576040513d6000823e3d81fd5b50506000513d91508115611934578060011415611941565b6001600160a01b0384163b155b1561144157604051635274afe760e01b81526001600160a01b0385166004820152602401610322565b60008083601f84011261197c57600080fd5b50813567ffffffffffffffff81111561199457600080fd5b6020830191508360208260051b85010111156119af57600080fd5b9250929050565b80356001600160a01b038116811461111b57600080fd5b60008060008060008060a087890312156119e657600080fd5b8635955060208701359450604087013567ffffffffffffffff811115611a0b57600080fd5b611a1789828a0161196a565b9095509350611a2a9050606088016119b6565b95989497509295919493608090920135925050565b602080825282518282018190526000918401906040840190835b81811015611a77578351835260209384019390920191600101611a59565b509095945050505050565b60008060208385031215611a9557600080fd5b823567ffffffffffffffff811115611aac57600080fd5b611ab88582860161196a565b90969095509350505050565b600080600080600060808688031215611adc57600080fd5b85359450602086013567ffffffffffffffff811115611afa57600080fd5b611b068882890161196a565b9095509350611b199050604087016119b6565b949793965091946060013592915050565b600060208284031215611b3c57600080fd5b611b45826119b6565b9392505050565b600060208284031215611b5e57600080fd5b5035919050565b60208082526023908201527f4b4f4c53776170526f757465723a20494e56414c49445f494e5055545f414d4f60408201526215539560ea1b606082015260800190565b634e487b7160e01b600052603260045260246000fd5b600060208284031215611bd057600080fd5b81518015158114611b4557600080fd5b81835260208301925060008160005b84811015611c1e576001600160a01b03611c08836119b6565b1686526020958601959190910190600101611bef565b5093949350505050565b86815285602082015260a060408201526000611c4860a083018688611be0565b6001600160a01b039490941660608301525060800152949350505050565b634e487b7160e01b600052604160045260246000fd5b600060208284031215611c8e57600080fd5b815167ffffffffffffffff811115611ca557600080fd5b8201601f81018413611cb657600080fd5b805167ffffffffffffffff811115611cd057611cd0611c66565b8060051b604051601f19603f830116810181811067ffffffffffffffff82111715611cfd57611cfd611c66565b604052918252602081840181019290810187841115611d1b57600080fd5b6020850194505b83851015611d3e57845180825260209586019590935001611d22565b509695505050505050565b634e487b7160e01b600052601160045260246000fd5b8181038181111561111557611115611d49565b6001600160a01b03959095168552602085019390935260408401919091526060830152608082015260a00190565b600060208284031215611db257600080fd5b5051919050565b858152608060208201526000611dd3608083018688611be0565b6001600160a01b0394909416604083015250606001529392505050565b600060208284031215611e0257600080fd5b815161ffff81168114611b4557600080fd5b808202811582820484141761111557611115611d49565b600082611e4857634e487b7160e01b600052601260045260246000fd5b50049056fe0eb2fb6fb4f62eb5c90ee731e061079799a1eb32d2023f69801b8cee5e740a91a26469706673582212201e9329f279676b359aa4ebcad1ec85b47f23d5340ac89b8b8d94d22391a5e23864736f6c634300081d0033a264697066735822122009cb80d4f124629feb244feecc2a0eb1ba35aeff818bc0ce4d01bb5b434555fc64736f6c634300081d0033",
  "linkReferences": {},
  "deployedLinkReferences": {}
}