{
  "_format": "hh-sol-artifact-1",
  "contractName": "KOLRouterFactory",
  "sourceName": "contracts/kol-router/KOLRouterFactory.sol",
  "abi": [
    {
      "inputs": [
        {
          "internalType": "address",
          "name": "_traderJoeRouterV1",
          "type": "address"
        },
        {
          "internalType": "address",
          "name": "_traderJoeRouterV2",
          "type": "address"
        }
      ],
      "stateMutability": "nonpayable",
      "type": "constructor"
    },
    {
      "inputs": [
        {
          "internalType": "address",
          "name": "owner",
          "type": "address"
        }
      ],
      "name": "OwnableInvalidOwner",
      "type": "error"
    },
    {
      "inputs": [
        {
          "internalType": "address",
          "name": "account",
          "type": "address"
        }
      ],
      "name": "OwnableUnauthorizedAccount",
      "type": "error"
    },
    {
      "anonymous": false,
      "inputs": [
        {
          "indexed": true,
          "internalType": "address",
          "name": "previousOwner",
          "type": "address"
        },
        {
          "indexed": true,
          "internalType": "address",
          "name": "newOwner",
          "type": "address"
        }
      ],
      "name": "OwnershipTransferred",
      "type": "event"
    },
    {
      "anonymous": false,
      "inputs": [
        {
          "indexed": false,
          "internalType": "string",
          "name": "protocolName",
          "type": "string"
        },
        {
          "indexed": false,
          "internalType": "address",
          "name": "routerAddress",
          "type": "address"
        }
      ],
      "name": "ProtocolAddressUpdated",
      "type": "event"
    },
    {
      "anonymous": false,
      "inputs": [
        {
          "indexed": true,
          "internalType": "address",
          "name": "kolAddress",
          "type": "address"
        },
        {
          "indexed": false,
          "internalType": "string",
          "name": "version",
          "type": "string"
        },
        {
          "indexed": false,
          "internalType": "address",
          "name": "routerAddress",
          "type": "address"
        }
      ],
      "name": "RouterCreated",
      "type": "event"
    },
    {
      "anonymous": false,
      "inputs": [
        {
          "indexed": true,
          "internalType": "address",
          "name": "token",
          "type": "address"
        },
        {
          "indexed": false,
          "internalType": "bool",
          "name": "allowed",
          "type": "bool"
        }
      ],
      "name": "TokenStatusUpdated",
      "type": "event"
    },
    {
      "inputs": [
        {
          "internalType": "address",
          "name": "kolAddress",
          "type": "address"
        },
        {
          "internalType": "string",
          "name": "version",
          "type": "string"
        }
      ],
      "name": "createKOLRouter",
      "outputs": [
        {
          "internalType": "address",
          "name": "",
          "type": "address"
        }
      ],
      "stateMutability": "nonpayable",
      "type": "function"
    },
    {
      "inputs": [
        {
          "internalType": "uint256",
          "name": "",
          "type": "uint256"
        }
      ],
      "name": "deployedRouters",
      "outputs": [
        {
          "internalType": "address",
          "name": "",
          "type": "address"
        }
      ],
      "stateMutability": "view",
      "type": "function"
    },
    {
      "inputs": [
        {
          "internalType": "address",
          "name": "kolAddress",
          "type": "address"
        },
        {
          "internalType": "string",
          "name": "version",
          "type": "string"
        }
      ],
      "name": "getKOLRouter",
      "outputs": [
        {
          "internalType": "address",
          "name": "",
          "type": "address"
        }
      ],
      "stateMutability": "view",
      "type": "function"
    },
    {
      "inputs": [],
      "name": "getTotalRouters",
      "outputs": [
        {
          "internalType": "uint256",
          "name": "",
          "type": "uint256"
        }
      ],
      "stateMutability": "view",
      "type": "function"
    },
    {
      "inputs": [
        {
          "internalType": "address",
          "name": "",
          "type": "address"
        },
        {
          "internalType": "string",
          "name": "",
          "type": "string"
        }
      ],
      "name": "kolToRouters",
      "outputs": [
        {
          "internalType": "address",
          "name": "",
          "type": "address"
        }
      ],
      "stateMutability": "view",
      "type": "function"
    },
    {
      "inputs": [],
      "name": "owner",
      "outputs": [
        {
          "internalType": "address",
          "name": "",
          "type": "address"
        }
      ],
      "stateMutability": "view",
      "type": "function"
    },
    {
      "inputs": [],
      "name": "renounceOwnership",
      "outputs": [],
      "stateMutability": "nonpayable",
      "type": "function"
    },
    {
      "inputs": [
        {
          "internalType": "address",
          "name": "_traderJoeRouterV1",
          "type": "address"
        }
      ],
      "name": "setTraderJoeRouterV1",
      "outputs": [],
      "stateMutability": "nonpayable",
      "type": "function"
    },
    {
      "inputs": [
        {
          "internalType": "address",
          "name": "_traderJoeRouterV2",
          "type": "address"
        }
      ],
      "name": "setTraderJoeRouterV2",
      "outputs": [],
      "stateMutability": "nonpayable",
      "type": "function"
    },
    {
      "inputs": [],
      "name": "traderJoeRouterV1",
      "outputs": [
        {
          "internalType": "address",
          "name": "",
          "type": "address"
        }
      ],
      "stateMutability": "view",
      "type": "function"
    },
    {
      "inputs": [],
      "name": "traderJoeRouterV2",
      "outputs": [
        {
          "internalType": "address",
          "name": "",
          "type": "address"
        }
      ],
      "stateMutability": "view",
      "type": "function"
    },
    {
      "inputs": [
        {
          "internalType": "address",
          "name": "newOwner",
          "type": "address"
        }
      ],
      "name": "transferOwnership",
      "outputs": [],
      "stateMutability": "nonpayable",
      "type": "function"
    }
  ],
  "bytecode": "0x608060405234801561001057600080fd5b50604051613d95380380613d9583398101604081905261002f916101a9565b338061005657604051631e4fbdf760e01b8152600060048201526024015b60405180910390fd5b61005f8161013d565b506001600160a01b0382166100b65760405162461bcd60e51b815260206004820152601b60248201527f496e76616c6964205472616465724a6f6520563120726f757465720000000000604482015260640161004d565b6001600160a01b03811661010c5760405162461bcd60e51b815260206004820152601b60248201527f496e76616c6964205472616465724a6f6520563220726f757465720000000000604482015260640161004d565b600380546001600160a01b039384166001600160a01b031991821617909155600480549290931691161790556101dc565b600080546001600160a01b038381166001600160a01b0319831681178455604051919092169283917f8be0079c531659141344cd1fd0a4f28419497f9722a3daafe3b4186f6b6457e09190a35050565b80516001600160a01b03811681146101a457600080fd5b919050565b600080604083850312156101bc57600080fd5b6101c58361018d565b91506101d36020840161018d565b90509250929050565b613baa806101eb6000396000f3fe608060405234801561001057600080fd5b50600436106100b45760003560e01c8063b098631311610071578063b09863131461016d578063d529d86214610180578063d666af7314610193578063e16e817b146101a6578063f2fde38b146101b9578063fc689e14146101cc57600080fd5b806309f6d10b146100b9578063134106651461011b578063174f0f3c146101305780632a2884e014610141578063715018a6146101545780638da5cb5b1461015c575b600080fd5b6100fe6100c7366004610908565b600160209081526000928352604090922081518083018401805192815290840192909301919091209152546001600160a01b031681565b6040516001600160a01b0390911681526020015b60405180910390f35b61012e6101293660046109d2565b6101df565b005b600254604051908152602001610112565b6100fe61014f3660046109f4565b6102b6565b61012e6102e0565b6000546001600160a01b03166100fe565b61012e61017b3660046109d2565b6102f4565b6004546100fe906001600160a01b031681565b6003546100fe906001600160a01b031681565b6100fe6101b4366004610a0d565b6103bf565b61012e6101c73660046109d2565b6107b7565b6100fe6101da366004610a0d565b6107f5565b6101e761083f565b6001600160a01b03811661023b5760405162461bcd60e51b8152602060048201526016602482015275496e76616c696420726f75746572206164647265737360501b60448201526064015b60405180910390fd5b600480546001600160a01b0319166001600160a01b03831690811790915560408051818152600b918101919091526a2a3930b232b92537b2ab1960a91b606082015260208101919091527f50df56c33b3bd3dac7a2db51a3f7c8bdaabf78a57ff1fab3a72992006a77e69e906080015b60405180910390a150565b600281815481106102c657600080fd5b6000918252602090912001546001600160a01b0316905081565b6102e861083f565b6102f2600061086c565b565b6102fc61083f565b6001600160a01b03811661034b5760405162461bcd60e51b8152602060048201526016602482015275496e76616c696420726f75746572206164647265737360501b6044820152606401610232565b600380546001600160a01b0319166001600160a01b03831690811790915560408051818152600b918101919091526a5472616465724a6f65563160a81b606082015260208101919091527f50df56c33b3bd3dac7a2db51a3f7c8bdaabf78a57ff1fab3a72992006a77e69e906080016102ab565b60006001600160a01b03841661040d5760405162461bcd60e51b8152602060048201526013602482015272496e76616c6964204b4f4c206164647265737360681b6044820152606401610232565b6040805180820182526002815261563160f01b602090910152517f4c23426613a5dc69e08fbd2787e6210aa679d4522e95a89d4dd88c4fd13a2283906104569085908590610a92565b604051809103902014806104b8575060408051808201825260028152612b1960f11b602090910152517f23d235efaf569b2b407d10f447247743508d1762a8e3a3aed85ccc0570dde35f906104ae9085908590610a92565b6040518091039020145b6105125760405162461bcd60e51b815260206004820152602560248201527f4b4f4c526f75746572466163746f72793a20556e737570706f727465642076656044820152643939b4b7b760d91b6064820152608401610232565b6001600160a01b038416600090815260016020526040808220905161053a9086908690610a92565b908152604051908190036020019020546001600160a01b0316146105b75760405162461bcd60e51b815260206004820152602e60248201527f526f7574657220616c72656164792065786973747320666f722074686973204b60448201526d27a61030b732103b32b939b4b7b760911b6064820152608401610232565b6040805180820182526002815261563160f01b602090910152516000907f4c23426613a5dc69e08fbd2787e6210aa679d4522e95a89d4dd88c4fd13a2283906106039086908690610a92565b6040518091039020036106785760035460405160009187916001600160a01b03909116903090610632906108bc565b6001600160a01b03938416815291831660208301529091166040820152606001604051809103906000f08015801561066e573d6000803e3d6000fd5b5091506106db9050565b60045460405160009187916001600160a01b0390911690309061069a906108c9565b6001600160a01b03938416815291831660208301529091166040820152606001604051809103906000f0801580156106d6573d6000803e3d6000fd5b509150505b6001600160a01b0385166000908152600160205260409081902090518291906107079087908790610a92565b90815260405190819003602001812080546001600160a01b039384166001600160a01b031991821617909155600280546001810182556000919091527f405787fa12a823e0f2b7631cc41b3ba8828b3321ca811111fa75cd3aa3bb5ace0180548585169216919091179055908616907f4f40b07ddfdc59b1c96fc488fa0f966005def7c79825ecb5a3e38763ed30edfb906107a790879087908690610aa2565b60405180910390a2949350505050565b6107bf61083f565b6001600160a01b0381166107e957604051631e4fbdf760e01b815260006004820152602401610232565b6107f28161086c565b50565b6001600160a01b038316600090815260016020526040808220905161081d9085908590610a92565b908152604051908190036020019020546001600160a01b031690509392505050565b6000546001600160a01b031633146102f25760405163118cdaa760e01b8152336004820152602401610232565b600080546001600160a01b038381166001600160a01b0319831681178455604051919092169283917f8be0079c531659141344cd1fd0a4f28419497f9722a3daafe3b4186f6b6457e09190a35050565b61178680610ae483390190565b61190b8061226a83390190565b80356001600160a01b03811681146108ed57600080fd5b919050565b634e487b7160e01b600052604160045260246000fd5b6000806040838503121561091b57600080fd5b610924836108d6565b9150602083013567ffffffffffffffff81111561094057600080fd5b8301601f8101851361095157600080fd5b803567ffffffffffffffff81111561096b5761096b6108f2565b604051601f8201601f19908116603f0116810167ffffffffffffffff8111828210171561099a5761099a6108f2565b6040528181528282016020018710156109b257600080fd5b816020840160208301376000602083830101528093505050509250929050565b6000602082840312156109e457600080fd5b6109ed826108d6565b9392505050565b600060208284031215610a0657600080fd5b5035919050565b600080600060408486031215610a2257600080fd5b610a2b846108d6565b9250602084013567ffffffffffffffff811115610a4757600080fd5b8401601f81018613610a5857600080fd5b803567ffffffffffffffff811115610a6f57600080fd5b866020828401011115610a8157600080fd5b939660209190910195509293505050565b8183823760009101908152919050565b6040815282604082015282846060830137600060608483018101919091526001600160a01b03929092166020820152601f909201601f19169091010191905056fe608060405234801561001057600080fd5b5060405161178638038061178683398101604081905261002f916101de565b604080518082019091526002815261563160f01b6020820152600160005583908390836001600160a01b0384166100ad5760405162461bcd60e51b815260206004820152601360248201527f496e76616c6964204b4f4c20616464726573730000000000000000000000000060448201526064015b60405180910390fd5b6001600160a01b0383166100f85760405162461bcd60e51b815260206004820152601260248201527124b73b30b634b2102222ac103937baba32b960711b60448201526064016100a4565b6001600160a01b03811661014e5760405162461bcd60e51b815260206004820152601760248201527f496e76616c696420666163746f7279206164647265737300000000000000000060448201526064016100a4565b600280546001600160a01b038087166001600160a01b0319928316179092556004805492861692909116919091179055600161018a83826102c0565b50600380546001600160a01b0319166001600160a01b03929092169190911790555050662386f26fc100006005555061037e92505050565b80516001600160a01b03811681146101d957600080fd5b919050565b6000806000606084860312156101f357600080fd5b6101fc846101c2565b925061020a602085016101c2565b9150610218604085016101c2565b90509250925092565b634e487b7160e01b600052604160045260246000fd5b600181811c9082168061024b57607f821691505b60208210810361026b57634e487b7160e01b600052602260045260246000fd5b50919050565b601f8211156102bb57806000526020600020601f840160051c810160208510156102985750805b601f840160051c820191505b818110156102b857600081556001016102a4565b50505b505050565b81516001600160401b038111156102d9576102d9610221565b6102ed816102e78454610237565b84610271565b6020601f82116001811461032157600083156103095750848201515b600019600385901b1c1916600184901b1784556102b8565b600084815260208120601f198516915b828110156103515787850151825560209485019460019092019101610331565b508482101561036f5786840151600019600387901b60f8161c191681555b50505050600190811b01905550565b6113f98061038d6000396000f3fe6080604052600436106100c65760003560e01c80637a42416a1161007f578063966dae0e11610059578063966dae0e146101d25780639ec9ac41146101f2578063a2a1623d14610216578063c17e6afe1461022957600080fd5b80637a42416a146101995780638803dbee146101ac5780638a657e67146101bf57600080fd5b80630758d924146100d257806337dad2bb1461010f57806338ed17391461012f578063476343ee1461014f578063676528d11461016657806373dd69981461017957600080fd5b366100cd57005b600080fd5b3480156100de57600080fd5b506004546100f2906001600160a01b031681565b6040516001600160a01b0390911681526020015b60405180910390f35b34801561011b57600080fd5b506002546100f2906001600160a01b031681565b61014261013d366004610f53565b61024b565b6040516101069190610fc5565b34801561015b57600080fd5b50610164610432565b005b610142610174366004610f53565b6105e0565b34801561018557600080fd5b50610164610194366004611008565b6106fb565b6101426101a7366004610f53565b6107f2565b6101426101ba366004610f53565b61090d565b6101426101cd366004611021565b610a28565b3480156101de57600080fd5b506003546100f2906001600160a01b031681565b3480156101fe57600080fd5b5061020860055481565b604051908152602001610106565b610142610224366004611021565b610c56565b34801561023557600080fd5b5061023e610d62565b60405161010691906110ab565b6060346005548110156102795760405162461bcd60e51b8152600401610270906110de565b60405180910390fd5b6102b833308a8989600081811061029257610292611128565b90506020020160208101906102a7919061113e565b6001600160a01b0316929190610df0565b858560008181106102cb576102cb611128565b90506020020160208101906102e0919061113e565b6004805460405163095ea7b360e01b81526001600160a01b0391821692810192909252602482018b9052919091169063095ea7b3906044016020604051808303816000875af1158015610337573d6000803e3d6000fd5b505050506040513d601f19601f8201168201806040525081019061035b9190611160565b50600480546040516338ed173960e01b81526001600160a01b03909116916338ed173991610395918c918c918c918c918c918c91016111ca565b6000604051808303816000875af11580156103b4573d6000803e3d6000fd5b505050506040513d6000823e601f3d908101601f191682016040526103dc919081019061121e565b6002546005546040519294507fbad29f2bbbf6bb1e15563203bcdb0dd660c54eab078763eb66f797efa8f5e8c19261041f926001600160a01b03169133916112eb565b60405180910390a1509695505050505050565b6002546001600160a01b0316331461048c5760405162461bcd60e51b815260206004820152601f60248201527f4f6e6c79204b4f4c2063616e2063616c6c20746869732066756e6374696f6e006044820152606401610270565b610494610e50565b47806104d85760405162461bcd60e51b81526020600482015260136024820152724e6f206665657320746f20776974686472617760681b6044820152606401610270565b6002546040805160008082526020820192839052926001600160a01b03169184916105029161130f565b60006040518083038185875af1925050503d806000811461053f576040519150601f19603f3d011682016040523d82523d6000602084013e610544565b606091505b505090508061058d5760405162461bcd60e51b8152602060048201526015602482015274119959481dda5d1a191c985dd85b0819985a5b1959605a1b6044820152606401610270565b600254604080518481526001600160a01b0390921660208301527f812bcf6853ebc81dc0a1d2323893eedad6cd086a4398311a699e0a7acdf187b3910160405180910390a150506105de6001600055565b565b6060346005548110156106055760405162461bcd60e51b8152600401610270906110de565b61061e33308a8989600081811061029257610292611128565b8585600081811061063157610631611128565b9050602002016020810190610646919061113e565b6004805460405163095ea7b360e01b81526001600160a01b0391821692810192909252602482018b9052919091169063095ea7b3906044016020604051808303816000875af115801561069d573d6000803e3d6000fd5b505050506040513d601f19601f820116820180604052508101906106c19190611160565b506004805460405163676528d160e01b81526001600160a01b039091169163676528d191610395918c918c918c918c918c918c91016111ca565b6002546001600160a01b031633146107555760405162461bcd60e51b815260206004820152601f60248201527f4f6e6c79204b4f4c2063616e2063616c6c20746869732066756e6374696f6e006044820152606401610270565b670de0b6b3a76400008111156107ad5760405162461bcd60e51b815260206004820181905260248201527f4665652063616e6e6f74206578636565642031204e415449564520746f6b656e6044820152606401610270565b600580549082905560408051828152602081018490527f528d9479e9f9889a87a3c30c7f7ba537e5e59c4c85a37733b16e57c62df61302910160405180910390a15050565b6060346005548110156108175760405162461bcd60e51b8152600401610270906110de565b6108303330898989600081811061029257610292611128565b8585600081811061084357610843611128565b9050602002016020810190610858919061113e565b6004805460405163095ea7b360e01b81526001600160a01b0391821692810192909252602482018a9052919091169063095ea7b3906044016020604051808303816000875af11580156108af573d6000803e3d6000fd5b505050506040513d601f19601f820116820180604052508101906108d39190611160565b5060048054604051633d2120b560e11b81526001600160a01b0390911691637a42416a91610395918c918c918c918c918c918c91016111ca565b6060346005548110156109325760405162461bcd60e51b8152600401610270906110de565b61094b3330898989600081811061029257610292611128565b8585600081811061095e5761095e611128565b9050602002016020810190610973919061113e565b6004805460405163095ea7b360e01b81526001600160a01b0391821692810192909252602482018a9052919091169063095ea7b3906044016020604051808303816000875af11580156109ca573d6000803e3d6000fd5b505050506040513d601f19601f820116820180604052508101906109ee9190611160565b5060048054604051634401edf760e11b81526001600160a01b0390911691638803dbee91610395918c918c918c918c918c918c91016111ca565b6060610a32610e50565b34600554811015610a555760405162461bcd60e51b8152600401610270906110de565b600060055434610a65919061132b565b60048054604051638a657e6760e01b81529293506001600160a01b031691638a657e67918491610a9f918d918d918d918d918d9101611352565b60006040518083038185885af1158015610abd573d6000803e3d6000fd5b50505050506040513d6000823e601f3d908101601f19168201604052610ae6919081019061121e565b925082600081518110610afb57610afb611128565b6020026020010151811115610bf6576000336001600160a01b031684600081518110610b2957610b29611128565b602002602001015183610b3c919061132b565b60408051600081526020810191829052610b559161130f565b60006040518083038185875af1925050503d8060008114610b92576040519150601f19603f3d011682016040523d82523d6000602084013e610b97565b606091505b5050905080610bf45760405162461bcd60e51b815260206004820152602360248201527f4b4f4c53776170526f757465723a20415641585f5452414e534645525f46414960448201526213115160ea1b6064820152608401610270565b505b6002546005546040517fbad29f2bbbf6bb1e15563203bcdb0dd660c54eab078763eb66f797efa8f5e8c192610c39926001600160a01b03909116913391906112eb565b60405180910390a15050610c4d6001600055565b95945050505050565b606034600554811015610c7b5760405162461bcd60e51b8152600401610270906110de565b600060055434610c8b919061132b565b6004805460405163a2a1623d60e01b81529293506001600160a01b03169163a2a1623d918491610cc5918d918d918d918d918d9101611352565b60006040518083038185885af1158015610ce3573d6000803e3d6000fd5b50505050506040513d6000823e601f3d908101601f19168201604052610d0c919081019061121e565b6002546005546040519295507fbad29f2bbbf6bb1e15563203bcdb0dd660c54eab078763eb66f797efa8f5e8c192610d4f926001600160a01b03169133916112eb565b60405180910390a1505095945050505050565b60018054610d6f90611389565b80601f0160208091040260200160405190810160405280929190818152602001828054610d9b90611389565b8015610de85780601f10610dbd57610100808354040283529160200191610de8565b820191906000526020600020905b815481529060010190602001808311610dcb57829003601f168201915b505050505081565b610e4a84856001600160a01b03166323b872dd868686604051602401610e18939291906112eb565b604051602081830303815290604052915060e01b6020820180516001600160e01b038381831617835250505050610e7a565b50505050565b600260005403610e7357604051633ee5aeb560e01b815260040160405180910390fd5b6002600055565b600080602060008451602086016000885af180610e9d576040513d6000823e3d81fd5b50506000513d91508115610eb5578060011415610ec2565b6001600160a01b0384163b155b15610e4a57604051635274afe760e01b81526001600160a01b0385166004820152602401610270565b60008083601f840112610efd57600080fd5b50813567ffffffffffffffff811115610f1557600080fd5b6020830191508360208260051b8501011115610f3057600080fd5b9250929050565b80356001600160a01b0381168114610f4e57600080fd5b919050565b60008060008060008060a08789031215610f6c57600080fd5b8635955060208701359450604087013567ffffffffffffffff811115610f9157600080fd5b610f9d89828a01610eeb565b9095509350610fb0905060608801610f37565b95989497509295919493608090920135925050565b602080825282518282018190526000918401906040840190835b81811015610ffd578351835260209384019390920191600101610fdf565b509095945050505050565b60006020828403121561101a57600080fd5b5035919050565b60008060008060006080868803121561103957600080fd5b85359450602086013567ffffffffffffffff81111561105757600080fd5b61106388828901610eeb565b9095509350611076905060408701610f37565b949793965091946060013592915050565b60005b838110156110a257818101518382015260200161108a565b50506000910152565b60208152600082518060208401526110ca816040850160208701611087565b601f01601f19169190910160400192915050565b6020808252602a908201527f4b4f4c53776170526f757465723a20494e53554646494349454e545f4e41544960408201526956455f464f525f46454560b01b606082015260800190565b634e487b7160e01b600052603260045260246000fd5b60006020828403121561115057600080fd5b61115982610f37565b9392505050565b60006020828403121561117257600080fd5b8151801515811461115957600080fd5b81835260208301925060008160005b848110156111c0576001600160a01b036111aa83610f37565b1686526020958601959190910190600101611191565b5093949350505050565b86815285602082015260a0604082015260006111ea60a083018688611182565b6001600160a01b039490941660608301525060800152949350505050565b634e487b7160e01b600052604160045260246000fd5b60006020828403121561123057600080fd5b815167ffffffffffffffff81111561124757600080fd5b8201601f8101841361125857600080fd5b805167ffffffffffffffff81111561127257611272611208565b8060051b604051601f19603f830116810181811067ffffffffffffffff8211171561129f5761129f611208565b6040529182526020818401810192908101878411156112bd57600080fd5b6020850194505b838510156112e0578451808252602095860195909350016112c4565b509695505050505050565b6001600160a01b039384168152919092166020820152604081019190915260600190565b60008251611321818460208701611087565b9190910192915050565b8181038181111561134c57634e487b7160e01b600052601160045260246000fd5b92915050565b85815260806020820152600061136c608083018688611182565b6001600160a01b0394909416604083015250606001529392505050565b600181811c9082168061139d57607f821691505b6020821081036113bd57634e487b7160e01b600052602260045260246000fd5b5091905056fea264697066735822122096ead16dc3db2e49c0d4bd6387c822d848172751dd8078b0e04190611b99511d64736f6c634300081d0033608060405234801561001057600080fd5b5060405161190b38038061190b83398101604081905261002f916101de565b6040805180820190915260028152612b1960f11b6020820152600160005583908390836001600160a01b0384166100ad5760405162461bcd60e51b815260206004820152601360248201527f496e76616c6964204b4f4c20616464726573730000000000000000000000000060448201526064015b60405180910390fd5b6001600160a01b0383166100f85760405162461bcd60e51b815260206004820152601260248201527124b73b30b634b2102222ac103937baba32b960711b60448201526064016100a4565b6001600160a01b03811661014e5760405162461bcd60e51b815260206004820152601760248201527f496e76616c696420666163746f7279206164647265737300000000000000000060448201526064016100a4565b600280546001600160a01b038087166001600160a01b0319928316179092556004805492861692909116919091179055600161018a83826102c0565b50600380546001600160a01b0319166001600160a01b03929092169190911790555050662386f26fc100006005555061037e92505050565b80516001600160a01b03811681146101d957600080fd5b919050565b6000806000606084860312156101f357600080fd5b6101fc846101c2565b925061020a602085016101c2565b9150610218604085016101c2565b90509250925092565b634e487b7160e01b600052604160045260246000fd5b600181811c9082168061024b57607f821691505b60208210810361026b57634e487b7160e01b600052602260045260246000fd5b50919050565b601f8211156102bb57806000526020600020601f840160051c810160208510156102985750805b601f840160051c820191505b818110156102b857600081556001016102a4565b50505b505050565b81516001600160401b038111156102d9576102d9610221565b6102ed816102e78454610237565b84610271565b6020601f82116001811461032157600083156103095750848201515b600019600385901b1c1916600184901b1784556102b8565b600084815260208120601f198516915b828110156103515787850151825560209485019460019092019101610331565b508482101561036f5786840151600019600387901b60f8161c191681555b50505050600190811b01905550565b61157e8061038d6000396000f3fe6080604052600436106100c65760003560e01c806373dd69981161007f5780639ab6156b116100595780639ab6156b146101ed5780639ec9ac4114610200578063b066ea7c14610216578063c17e6afe1461022957600080fd5b806373dd69981461019a57806392fe8e70146101ba578063966dae0e146101cd57600080fd5b80630758d924146100d25780632075ad221461010f5780632a443fae1461012f57806337dad2bb146101505780633dc8f8ec14610170578063476343ee1461018357600080fd5b366100cd57005b600080fd5b3480156100de57600080fd5b506004546100f2906001600160a01b031681565b6040516001600160a01b0390911681526020015b60405180910390f35b61012261011d366004610f72565b61024b565b6040516101069190610fd3565b61014261013d366004611016565b610481565b604051908152602001610106565b34801561015c57600080fd5b506002546100f2906001600160a01b031681565b61012261017e366004611016565b61066e565b34801561018f57600080fd5b506101986107d3565b005b3480156101a657600080fd5b506101986101b5366004611081565b610981565b6101226101c8366004611016565b610a78565b3480156101d957600080fd5b506003546100f2906001600160a01b031681565b6101426101fb366004611016565b610b96565b34801561020c57600080fd5b5061014260055481565b610142610224366004610f72565b610cb4565b34801561023557600080fd5b5061023e610db9565b60405161010691906110be565b6060346005548110156102795760405162461bcd60e51b8152600401610270906110f1565b60405180910390fd5b610281610e47565b600060055434610291919061113b565b6004805460405163103ad69160e11b81529293506001600160a01b031691632075ad229184916102c9918c918c918c918c91016112c1565b60006040518083038185885af11580156102e7573d6000803e3d6000fd5b50505050506040513d6000823e601f3d908101601f19168201604052610310919081019061130c565b925082600081518110610325576103256113d9565b6020026020010151811115610422576000336001600160a01b031684600081518110610353576103536113d9565b602002602001015183610366919061113b565b6040805160008152602081019182905261037f916113ef565b60006040518083038185875af1925050503d80600081146103bc576040519150601f19603f3d011682016040523d82523d6000602084013e6103c1565b606091505b50509050806104205760405162461bcd60e51b815260206004820152602560248201527f4b4f4c53776170526f757465723a20524546554e445f5452414e534645525f46604482015264105253115160da1b6064820152608401610270565b505b6002546005546040517fbad29f2bbbf6bb1e15563203bcdb0dd660c54eab078763eb66f797efa8f5e8c192610465926001600160a01b039091169133919061140b565b60405180910390a1506104786001600055565b50949350505050565b6000346005548110156104a65760405162461bcd60e51b8152600401610270906110f1565b6104f03330896104b960408a018a61142f565b60008181106104ca576104ca6113d9565b90506020020160208101906104df9190611479565b6001600160a01b0316929190610e71565b6104fd604086018661142f565b600081811061050e5761050e6113d9565b90506020020160208101906105239190611479565b6004805460405163095ea7b360e01b81526001600160a01b0391821692810192909252602482018a9052919091169063095ea7b3906044016020604051808303816000875af115801561057a573d6000803e3d6000fd5b505050506040513d601f19601f8201168201806040525081019061059e919061149d565b50600480546040516315221fd760e11b81526001600160a01b0390911691632a443fae916105d6918b918b918b918b918b91016114bf565b6020604051808303816000875af11580156105f5573d6000803e3d6000fd5b505050506040513d601f19601f8201168201806040525081019061061991906114fb565b6002546005546040519294507fbad29f2bbbf6bb1e15563203bcdb0dd660c54eab078763eb66f797efa8f5e8c19261065c926001600160a01b031691339161140b565b60405180910390a15095945050505050565b6060346005548110156106935760405162461bcd60e51b8152600401610270906110f1565b6106a63330886104b960408a018a61142f565b6106b3604086018661142f565b60008181106106c4576106c46113d9565b90506020020160208101906106d99190611479565b6004805460405163095ea7b360e01b81526001600160a01b039182169281019290925260248201899052919091169063095ea7b3906044016020604051808303816000875af1158015610730573d6000803e3d6000fd5b505050506040513d601f19601f82011682018060405250810190610754919061149d565b5060048054604051630f723e3b60e21b81526001600160a01b0390911691633dc8f8ec9161078c918b918b918b918b918b91016114bf565b6000604051808303816000875af11580156107ab573d6000803e3d6000fd5b505050506040513d6000823e601f3d908101601f19168201604052610619919081019061130c565b6002546001600160a01b0316331461082d5760405162461bcd60e51b815260206004820152601f60248201527f4f6e6c79204b4f4c2063616e2063616c6c20746869732066756e6374696f6e006044820152606401610270565b610835610e47565b47806108795760405162461bcd60e51b81526020600482015260136024820152724e6f206665657320746f20776974686472617760681b6044820152606401610270565b6002546040805160008082526020820192839052926001600160a01b03169184916108a3916113ef565b60006040518083038185875af1925050503d80600081146108e0576040519150601f19603f3d011682016040523d82523d6000602084013e6108e5565b606091505b505090508061092e5760405162461bcd60e51b8152602060048201526015602482015274119959481dda5d1a191c985dd85b0819985a5b1959605a1b6044820152606401610270565b600254604080518481526001600160a01b0390921660208301527f812bcf6853ebc81dc0a1d2323893eedad6cd086a4398311a699e0a7acdf187b3910160405180910390a1505061097f6001600055565b565b6002546001600160a01b031633146109db5760405162461bcd60e51b815260206004820152601f60248201527f4f6e6c79204b4f4c2063616e2063616c6c20746869732066756e6374696f6e006044820152606401610270565b670de0b6b3a7640000811115610a335760405162461bcd60e51b815260206004820181905260248201527f4665652063616e6e6f74206578636565642031204e415449564520746f6b656e6044820152606401610270565b600580549082905560408051828152602081018490527f528d9479e9f9889a87a3c30c7f7ba537e5e59c4c85a37733b16e57c62df61302910160405180910390a15050565b606034600554811015610a9d5760405162461bcd60e51b8152600401610270906110f1565b610ab03330886104b960408a018a61142f565b610abd604086018661142f565b6000818110610ace57610ace6113d9565b9050602002016020810190610ae39190611479565b6004805460405163095ea7b360e01b81526001600160a01b039182169281019290925260248201899052919091169063095ea7b3906044016020604051808303816000875af1158015610b3a573d6000803e3d6000fd5b505050506040513d601f19601f82011682018060405250810190610b5e919061149d565b506004805460405163092fe8e760e41b81526001600160a01b03909116916392fe8e709161078c918b918b918b918b918b91016114bf565b600034600554811015610bbb5760405162461bcd60e51b8152600401610270906110f1565b610bce3330896104b960408a018a61142f565b610bdb604086018661142f565b6000818110610bec57610bec6113d9565b9050602002016020810190610c019190611479565b6004805460405163095ea7b360e01b81526001600160a01b0391821692810192909252602482018a9052919091169063095ea7b3906044016020604051808303816000875af1158015610c58573d6000803e3d6000fd5b505050506040513d601f19601f82011682018060405250810190610c7c919061149d565b5060048054604051639ab6156b60e01b81526001600160a01b0390911691639ab6156b916105d6918b918b918b918b918b91016114bf565b600034600554811015610cd95760405162461bcd60e51b8152600401610270906110f1565b600060055434610ce9919061113b565b60048054604051632c19ba9f60e21b81529293506001600160a01b03169163b066ea7c918491610d21918c918c918c918c91016112c1565b60206040518083038185885af1158015610d3f573d6000803e3d6000fd5b50505050506040513d601f19601f82011682018060405250810190610d6491906114fb565b6002546005546040519295507fbad29f2bbbf6bb1e15563203bcdb0dd660c54eab078763eb66f797efa8f5e8c192610da7926001600160a01b031691339161140b565b60405180910390a15050949350505050565b60018054610dc690611514565b80601f0160208091040260200160405190810160405280929190818152602001828054610df290611514565b8015610e3f5780601f10610e1457610100808354040283529160200191610e3f565b820191906000526020600020905b815481529060010190602001808311610e2257829003601f168201915b505050505081565b600260005403610e6a57604051633ee5aeb560e01b815260040160405180910390fd5b6002600055565b610ecb84856001600160a01b03166323b872dd868686604051602401610e999392919061140b565b604051602081830303815290604052915060e01b6020820180516001600160e01b038381831617835250505050610ed1565b50505050565b600080602060008451602086016000885af180610ef4576040513d6000823e3d81fd5b50506000513d91508115610f0c578060011415610f19565b6001600160a01b0384163b155b15610ecb57604051635274afe760e01b81526001600160a01b0385166004820152602401610270565b600060608284031215610f5457600080fd5b50919050565b6001600160a01b0381168114610f6f57600080fd5b50565b60008060008060808587031215610f8857600080fd5b84359350602085013567ffffffffffffffff811115610fa657600080fd5b610fb287828801610f42565b9350506040850135610fc381610f5a565b9396929550929360600135925050565b602080825282518282018190526000918401906040840190835b8181101561100b578351835260209384019390920191600101610fed565b509095945050505050565b600080600080600060a0868803121561102e57600080fd5b8535945060208601359350604086013567ffffffffffffffff81111561105357600080fd5b61105f88828901610f42565b935050606086013561107081610f5a565b949793965091946080013592915050565b60006020828403121561109357600080fd5b5035919050565b60005b838110156110b557818101518382015260200161109d565b50506000910152565b60208152600082518060208401526110dd81604085016020870161109a565b601f01601f19169190910160400192915050565b6020808252602a908201527f4b4f4c53776170526f757465723a20494e53554646494349454e545f4e41544960408201526956455f464f525f46454560b01b606082015260800190565b8181038181111561115c57634e487b7160e01b600052601160045260246000fd5b92915050565b6000808335601e1984360301811261117957600080fd5b830160208101925035905067ffffffffffffffff81111561119957600080fd5b8060051b36038213156111ab57600080fd5b9250929050565b81835260208301925060008160005b848110156111f25781356111d481610f5a565b6001600160a01b0316865260209586019591909101906001016111c1565b5093949350505050565b60006112088283611162565b606080865285018190526001600160fb1b0381111561122657600080fd5b60051b8082608087013784019050608081016112456020850185611162565b86840360800160208801529182905291600091839160a0015b8184101561129157843592506004831015801561127a57600080fd5b50828152602094850194600194909401930161125e565b61129e6040880188611162565b9550935087810360408901526112b58186866111b2565b98975050505050505050565b8481526080602082015260006112da60808301866111fc565b6001600160a01b03949094166040830152506060015292915050565b634e487b7160e01b600052604160045260246000fd5b60006020828403121561131e57600080fd5b815167ffffffffffffffff81111561133557600080fd5b8201601f8101841361134657600080fd5b805167ffffffffffffffff811115611360576113606112f6565b8060051b604051601f19603f830116810181811067ffffffffffffffff8211171561138d5761138d6112f6565b6040529182526020818401810192908101878411156113ab57600080fd5b6020850194505b838510156113ce578451808252602095860195909350016113b2565b509695505050505050565b634e487b7160e01b600052603260045260246000fd5b6000825161140181846020870161109a565b9190910192915050565b6001600160a01b039384168152919092166020820152604081019190915260600190565b6000808335601e1984360301811261144657600080fd5b83018035915067ffffffffffffffff82111561146157600080fd5b6020019150600581901b36038213156111ab57600080fd5b60006020828403121561148b57600080fd5b813561149681610f5a565b9392505050565b6000602082840312156114af57600080fd5b8151801515811461149657600080fd5b85815284602082015260a0604082015260006114de60a08301866111fc565b6001600160a01b0394909416606083015250608001529392505050565b60006020828403121561150d57600080fd5b5051919050565b600181811c9082168061152857607f821691505b602082108103610f5457634e487b7160e01b600052602260045260246000fdfea2646970667358221220abaea6f75ec16074e9b7f8168a12b31ec408e1f5f6cd7db6e54e5969b0dd543664736f6c634300081d0033a2646970667358221220e9b63aba6f91d2d69f79aea34228ff906bae59a840557a8accf5e33eade2bfc164736f6c634300081d0033",
  "linkReferences": {},
  "deployedLinkReferences": {}
}