{
  "_format": "hh-sol-artifact-1",
  "contractName": "SL1MessageSender",
  "sourceName": "contracts/wormhole/SL1MessageSender.sol",
  "abi": [
    {
      "inputs": [
        {
          "internalType": "address",
          "name": "_wormholeRelayer",
          "type": "address"
        }
      ],
      "stateMutability": "nonpayable",
      "type": "constructor"
    },
    {
      "inputs": [
        {
          "internalType": "uint16",
          "name": "_targetChain",
          "type": "uint16"
        }
      ],
      "name": "quoteCrossChainCost",
      "outputs": [
        {
          "internalType": "uint256",
          "name": "cost",
          "type": "uint256"
        }
      ],
      "stateMutability": "view",
      "type": "function"
    },
    {
      "inputs": [],
      "name": "s_wormholeRelayer",
      "outputs": [
        {
          "internalType": "contract IWormholeRelayer",
          "name": "",
          "type": "address"
        }
      ],
      "stateMutability": "view",
      "type": "function"
    },
    {
      "inputs": [
        {
          "internalType": "uint16",
          "name": "_targetChain",
          "type": "uint16"
        },
        {
          "internalType": "address",
          "name": "_targetAddress",
          "type": "address"
        },
        {
          "internalType": "string",
          "name": "_message",
          "type": "string"
        }
      ],
      "name": "sendMessage",
      "outputs": [],
      "stateMutability": "payable",
      "type": "function"
    }
  ],
  "bytecode": "0x608060405234801561001057600080fd5b506040516108e33803806108e3833981810160405281019061003291906100db565b806000806101000a81548173ffffffffffffffffffffffffffffffffffffffff021916908373ffffffffffffffffffffffffffffffffffffffff16021790555050610108565b600080fd5b600073ffffffffffffffffffffffffffffffffffffffff82169050919050565b60006100a88261007d565b9050919050565b6100b88161009d565b81146100c357600080fd5b50565b6000815190506100d5816100af565b92915050565b6000602082840312156100f1576100f0610078565b5b60006100ff848285016100c6565b91505092915050565b6107cc806101176000396000f3fe6080604052600436106100345760003560e01c80635bb60dc014610039578063894dd9eb14610064578063afd44488146100a1575b600080fd5b34801561004557600080fd5b5061004e6100bd565b60405161005b91906102ed565b60405180910390f35b34801561007057600080fd5b5061008b6004803603810190610086919061034c565b6100e1565b6040516100989190610392565b60405180910390f35b6100bb60048036038101906100b69190610450565b61018e565b005b60008054906101000a900473ffffffffffffffffffffffffffffffffffffffff1681565b60008060009054906101000a900473ffffffffffffffffffffffffffffffffffffffff1673ffffffffffffffffffffffffffffffffffffffff1663c23ee3c383600061c3506040518463ffffffff1660e01b81526004016101449392919061050e565b6040805180830381865afa158015610160573d6000803e3d6000fd5b505050506040513d601f19601f820116820180604052508101906101849190610571565b5080915050919050565b6000610199856100e1565b905060008054906101000a900473ffffffffffffffffffffffffffffffffffffffff1673ffffffffffffffffffffffffffffffffffffffff16638fecdd028287878787336040516020016101ef9392919061061e565b604051602081830303815290604052600061c3506040518763ffffffff1660e01b81526004016102239594939291906106cf565b60206040518083038185885af1158015610241573d6000803e3d6000fd5b50505050506040513d601f19601f820116820180604052508101906102669190610769565b505050505050565b600073ffffffffffffffffffffffffffffffffffffffff82169050919050565b6000819050919050565b60006102b36102ae6102a98461026e565b61028e565b61026e565b9050919050565b60006102c582610298565b9050919050565b60006102d7826102ba565b9050919050565b6102e7816102cc565b82525050565b600060208201905061030260008301846102de565b92915050565b600080fd5b600080fd5b600061ffff82169050919050565b61032981610312565b811461033457600080fd5b50565b60008135905061034681610320565b92915050565b60006020828403121561036257610361610308565b5b600061037084828501610337565b91505092915050565b6000819050919050565b61038c81610379565b82525050565b60006020820190506103a76000830184610383565b92915050565b60006103b88261026e565b9050919050565b6103c8816103ad565b81146103d357600080fd5b50565b6000813590506103e5816103bf565b92915050565b600080fd5b600080fd5b600080fd5b60008083601f8401126104105761040f6103eb565b5b8235905067ffffffffffffffff81111561042d5761042c6103f0565b5b602083019150836001820283011115610449576104486103f5565b5b9250929050565b6000806000806060858703121561046a57610469610308565b5b600061047887828801610337565b9450506020610489878288016103d6565b935050604085013567ffffffffffffffff8111156104aa576104a961030d565b5b6104b6878288016103fa565b925092505092959194509250565b6104cd81610312565b82525050565b6000819050919050565b60006104f86104f36104ee846104d3565b61028e565b610379565b9050919050565b610508816104dd565b82525050565b600060608201905061052360008301866104c4565b61053060208301856104ff565b61053d6040830184610383565b949350505050565b61054e81610379565b811461055957600080fd5b50565b60008151905061056b81610545565b92915050565b6000806040838503121561058857610587610308565b5b60006105968582860161055c565b92505060206105a78582860161055c565b9150509250929050565b600082825260208201905092915050565b82818337600083830152505050565b6000601f19601f8301169050919050565b60006105ee83856105b1565b93506105fb8385846105c2565b610604836105d1565b840190509392505050565b610618816103ad565b82525050565b600060408201905081810360008301526106398185876105e2565b9050610648602083018461060f565b949350505050565b600081519050919050565b600082825260208201905092915050565b60005b8381101561068a57808201518184015260208101905061066f565b60008484015250505050565b60006106a182610650565b6106ab818561065b565b93506106bb81856020860161066c565b6106c4816105d1565b840191505092915050565b600060a0820190506106e460008301886104c4565b6106f1602083018761060f565b81810360408301526107038186610696565b905061071260608301856104ff565b61071f6080830184610383565b9695505050505050565b600067ffffffffffffffff82169050919050565b61074681610729565b811461075157600080fd5b50565b6000815190506107638161073d565b92915050565b60006020828403121561077f5761077e610308565b5b600061078d84828501610754565b9150509291505056fea2646970667358221220488f9e439cea06636b0e66f21bfc6401303cbbc84fd09e5d3e86272b8e5ed9eb64736f6c63430008190033",
  "linkReferences": {},
  "deployedLinkReferences": {}
}