{
  "_format": "hh-sol-artifact-1",
  "contractName": "SL1MessageSender",
  "sourceName": "contracts/wormhole/SL1MessageSender.sol",
  "abi": [
    {
      "inputs": [
        {
          "internalType": "address",
          "name": "_wormholeRelayer",
          "type": "address"
        }
      ],
      "stateMutability": "nonpayable",
      "type": "constructor"
    },
    {
      "inputs": [],
      "name": "GAS_LIMIT",
      "outputs": [
        {
          "internalType": "uint256",
          "name": "",
          "type": "uint256"
        }
      ],
      "stateMutability": "view",
      "type": "function"
    },
    {
      "inputs": [
        {
          "internalType": "address",
          "name": "_contractToBeCalled",
          "type": "address"
        },
        {
          "internalType": "bytes",
          "name": "_encodedFunctionCall",
          "type": "bytes"
        }
      ],
      "name": "encodeMessage",
      "outputs": [
        {
          "internalType": "bytes",
          "name": "",
          "type": "bytes"
        }
      ],
      "stateMutability": "view",
      "type": "function"
    },
    {
      "inputs": [],
      "name": "owner",
      "outputs": [
        {
          "internalType": "address",
          "name": "",
          "type": "address"
        }
      ],
      "stateMutability": "view",
      "type": "function"
    },
    {
      "inputs": [
        {
          "internalType": "uint16",
          "name": "_targetChain",
          "type": "uint16"
        },
        {
          "internalType": "uint256",
          "name": "_gasLimit",
          "type": "uint256"
        }
      ],
      "name": "quoteCrossChainCost",
      "outputs": [
        {
          "internalType": "uint256",
          "name": "cost",
          "type": "uint256"
        }
      ],
      "stateMutability": "view",
      "type": "function"
    },
    {
      "inputs": [],
      "name": "s_wormholeRelayer",
      "outputs": [
        {
          "internalType": "contract IWormholeRelayer",
          "name": "",
          "type": "address"
        }
      ],
      "stateMutability": "view",
      "type": "function"
    },
    {
      "inputs": [
        {
          "internalType": "uint16",
          "name": "_targetChain",
          "type": "uint16"
        },
        {
          "internalType": "address",
          "name": "_targetAddress",
          "type": "address"
        },
        {
          "internalType": "address",
          "name": "_contractToBeCalled",
          "type": "address"
        },
        {
          "internalType": "bytes",
          "name": "_encodedFunctionCall",
          "type": "bytes"
        },
        {
          "internalType": "uint256",
          "name": "_gasLimit",
          "type": "uint256"
        }
      ],
      "name": "sendMessage",
      "outputs": [],
      "stateMutability": "payable",
      "type": "function"
    },
    {
      "inputs": [
        {
          "internalType": "uint256",
          "name": "_gasLimit",
          "type": "uint256"
        }
      ],
      "name": "setGasLimit",
      "outputs": [],
      "stateMutability": "nonpayable",
      "type": "function"
    }
  ],
  "bytecode": "0x6080604052620493e060025534801561001757600080fd5b50604051610d4f380380610d4f83398181016040528101906100399190610123565b806000806101000a81548173ffffffffffffffffffffffffffffffffffffffff021916908373ffffffffffffffffffffffffffffffffffffffff16021790555033600160006101000a81548173ffffffffffffffffffffffffffffffffffffffff021916908373ffffffffffffffffffffffffffffffffffffffff16021790555050610150565b600080fd5b600073ffffffffffffffffffffffffffffffffffffffff82169050919050565b60006100f0826100c5565b9050919050565b610100816100e5565b811461010b57600080fd5b50565b60008151905061011d816100f7565b92915050565b600060208284031215610139576101386100c0565b5b60006101478482850161010e565b91505092915050565b610bf08061015f6000396000f3fe6080604052600436106100705760003560e01c8063ba0257361161004e578063ba025736146100f6578063d07de28014610112578063ebda77e01461014f578063ee7d72b41461018c57610070565b8063091d2788146100755780635bb60dc0146100a05780638da5cb5b146100cb575b600080fd5b34801561008157600080fd5b5061008a6101b5565b604051610097919061045e565b60405180910390f35b3480156100ac57600080fd5b506100b56101bb565b6040516100c291906104f8565b60405180910390f35b3480156100d757600080fd5b506100e06101df565b6040516100ed9190610534565b60405180910390f35b610110600480360381019061010b919061073b565b610205565b005b34801561011e57600080fd5b50610139600480360381019061013491906107d2565b6102d1565b60405161014691906108ad565b60405180910390f35b34801561015b57600080fd5b50610176600480360381019061017191906108cf565b6102ff565b604051610183919061045e565b60405180910390f35b34801561019857600080fd5b506101b360048036038101906101ae919061090f565b6103ab565b005b60025481565b60008054906101000a900473ffffffffffffffffffffffffffffffffffffffff1681565b600160009054906101000a900473ffffffffffffffffffffffffffffffffffffffff1681565b600061021184846102d1565b9050600061021f87846102ff565b905060008054906101000a900473ffffffffffffffffffffffffffffffffffffffff1673ffffffffffffffffffffffffffffffffffffffff16638fecdd02828989866000896040518763ffffffff1660e01b8152600401610284959493929190610986565b60206040518083038185885af11580156102a2573d6000803e3d6000fd5b50505050506040513d601f19601f820116820180604052508101906102c79190610a20565b5050505050505050565b60608233836040516020016102e893929190610a4d565b604051602081830303815290604052905092915050565b60008060009054906101000a900473ffffffffffffffffffffffffffffffffffffffff1673ffffffffffffffffffffffffffffffffffffffff1663c23ee3c3846000856040518463ffffffff1660e01b815260040161036093929190610a8b565b6040805180830381865afa15801561037c573d6000803e3d6000fd5b505050506040513d601f19601f820116820180604052508101906103a09190610ad7565b508091505092915050565b600160009054906101000a900473ffffffffffffffffffffffffffffffffffffffff1673ffffffffffffffffffffffffffffffffffffffff163373ffffffffffffffffffffffffffffffffffffffff161461043b576040517f08c379a000000000000000000000000000000000000000000000000000000000815260040161043290610b9a565b60405180910390fd5b8060028190555050565b6000819050919050565b61045881610445565b82525050565b6000602082019050610473600083018461044f565b92915050565b600073ffffffffffffffffffffffffffffffffffffffff82169050919050565b6000819050919050565b60006104be6104b96104b484610479565b610499565b610479565b9050919050565b60006104d0826104a3565b9050919050565b60006104e2826104c5565b9050919050565b6104f2816104d7565b82525050565b600060208201905061050d60008301846104e9565b92915050565b600061051e82610479565b9050919050565b61052e81610513565b82525050565b60006020820190506105496000830184610525565b92915050565b6000604051905090565b600080fd5b600080fd5b600061ffff82169050919050565b61057a81610563565b811461058557600080fd5b50565b60008135905061059781610571565b92915050565b6105a681610513565b81146105b157600080fd5b50565b6000813590506105c38161059d565b92915050565b600080fd5b600080fd5b6000601f19601f8301169050919050565b7f4e487b7100000000000000000000000000000000000000000000000000000000600052604160045260246000fd5b61061c826105d3565b810181811067ffffffffffffffff8211171561063b5761063a6105e4565b5b80604052505050565b600061064e61054f565b905061065a8282610613565b919050565b600067ffffffffffffffff82111561067a576106796105e4565b5b610683826105d3565b9050602081019050919050565b82818337600083830152505050565b60006106b26106ad8461065f565b610644565b9050828152602081018484840111156106ce576106cd6105ce565b5b6106d9848285610690565b509392505050565b600082601f8301126106f6576106f56105c9565b5b813561070684826020860161069f565b91505092915050565b61071881610445565b811461072357600080fd5b50565b6000813590506107358161070f565b92915050565b600080600080600060a0868803121561075757610756610559565b5b600061076588828901610588565b9550506020610776888289016105b4565b9450506040610787888289016105b4565b935050606086013567ffffffffffffffff8111156107a8576107a761055e565b5b6107b4888289016106e1565b92505060806107c588828901610726565b9150509295509295909350565b600080604083850312156107e9576107e8610559565b5b60006107f7858286016105b4565b925050602083013567ffffffffffffffff8111156108185761081761055e565b5b610824858286016106e1565b9150509250929050565b600081519050919050565b600082825260208201905092915050565b60005b8381101561086857808201518184015260208101905061084d565b60008484015250505050565b600061087f8261082e565b6108898185610839565b935061089981856020860161084a565b6108a2816105d3565b840191505092915050565b600060208201905081810360008301526108c78184610874565b905092915050565b600080604083850312156108e6576108e5610559565b5b60006108f485828601610588565b925050602061090585828601610726565b9150509250929050565b60006020828403121561092557610924610559565b5b600061093384828501610726565b91505092915050565b61094581610563565b82525050565b6000819050919050565b600061097061096b6109668461094b565b610499565b610445565b9050919050565b61098081610955565b82525050565b600060a08201905061099b600083018861093c565b6109a86020830187610525565b81810360408301526109ba8186610874565b90506109c96060830185610977565b6109d6608083018461044f565b9695505050505050565b600067ffffffffffffffff82169050919050565b6109fd816109e0565b8114610a0857600080fd5b50565b600081519050610a1a816109f4565b92915050565b600060208284031215610a3657610a35610559565b5b6000610a4484828501610a0b565b91505092915050565b6000606082019050610a626000830186610525565b610a6f6020830185610525565b8181036040830152610a818184610874565b9050949350505050565b6000606082019050610aa0600083018661093c565b610aad6020830185610977565b610aba604083018461044f565b949350505050565b600081519050610ad18161070f565b92915050565b60008060408385031215610aee57610aed610559565b5b6000610afc85828601610ac2565b9250506020610b0d85828601610ac2565b9150509250929050565b600082825260208201905092915050565b7f4f6e6c7920746865206f776e65722063616e2063616c6c20746869732066756e60008201527f6374696f6e000000000000000000000000000000000000000000000000000000602082015250565b6000610b84602583610b17565b9150610b8f82610b28565b604082019050919050565b60006020820190508181036000830152610bb381610b77565b905091905056fea2646970667358221220bfc5964bbd33975ebb05b007e860e572e6ae8cefdde6922796c22e7b327532ae64736f6c63430008190033",
  "linkReferences": {},
  "deployedLinkReferences": {}
}