{
  "_format": "hh-sol-artifact-1",
  "contractName": "SL1MessageSender",
  "sourceName": "contracts/wormhole/SL1MessageSender.sol",
  "abi": [
    {
      "inputs": [
        {
          "internalType": "address",
          "name": "_wormholeRelayer",
          "type": "address"
        }
      ],
      "stateMutability": "nonpayable",
      "type": "constructor"
    },
    {
      "inputs": [
        {
          "internalType": "uint16",
          "name": "_targetChain",
          "type": "uint16"
        }
      ],
      "name": "quoteCrossChainCost",
      "outputs": [
        {
          "internalType": "uint256",
          "name": "cost",
          "type": "uint256"
        }
      ],
      "stateMutability": "view",
      "type": "function"
    },
    {
      "inputs": [],
      "name": "s_wormholeRelayer",
      "outputs": [
        {
          "internalType": "contract IWormholeRelayer",
          "name": "",
          "type": "address"
        }
      ],
      "stateMutability": "view",
      "type": "function"
    },
    {
      "inputs": [
        {
          "internalType": "uint16",
          "name": "_targetChain",
          "type": "uint16"
        },
        {
          "internalType": "address",
          "name": "_targetAddress",
          "type": "address"
        },
        {
          "internalType": "string",
          "name": "_message",
          "type": "string"
        }
      ],
      "name": "sendMessage",
      "outputs": [],
      "stateMutability": "payable",
      "type": "function"
    }
  ],
  "bytecode": "0x608060405234801561001057600080fd5b506040516108e53803806108e5833981810160405281019061003291906100db565b806000806101000a81548173ffffffffffffffffffffffffffffffffffffffff021916908373ffffffffffffffffffffffffffffffffffffffff16021790555050610108565b600080fd5b600073ffffffffffffffffffffffffffffffffffffffff82169050919050565b60006100a88261007d565b9050919050565b6100b88161009d565b81146100c357600080fd5b50565b6000815190506100d5816100af565b92915050565b6000602082840312156100f1576100f0610078565b5b60006100ff848285016100c6565b91505092915050565b6107ce806101176000396000f3fe6080604052600436106100345760003560e01c80635bb60dc014610039578063894dd9eb14610064578063afd44488146100a1575b600080fd5b34801561004557600080fd5b5061004e6100bd565b60405161005b91906102ef565b60405180910390f35b34801561007057600080fd5b5061008b6004803603810190610086919061034e565b6100e1565b6040516100989190610394565b60405180910390f35b6100bb60048036038101906100b69190610452565b61018f565b005b60008054906101000a900473ffffffffffffffffffffffffffffffffffffffff1681565b60008060009054906101000a900473ffffffffffffffffffffffffffffffffffffffff1673ffffffffffffffffffffffffffffffffffffffff1663c23ee3c383600062030d406040518463ffffffff1660e01b815260040161014593929190610510565b6040805180830381865afa158015610161573d6000803e3d6000fd5b505050506040513d601f19601f820116820180604052508101906101859190610573565b5080915050919050565b600061019a856100e1565b905060008054906101000a900473ffffffffffffffffffffffffffffffffffffffff1673ffffffffffffffffffffffffffffffffffffffff16638fecdd028287878787336040516020016101f093929190610620565b604051602081830303815290604052600062030d406040518763ffffffff1660e01b81526004016102259594939291906106d1565b60206040518083038185885af1158015610243573d6000803e3d6000fd5b50505050506040513d601f19601f82011682018060405250810190610268919061076b565b505050505050565b600073ffffffffffffffffffffffffffffffffffffffff82169050919050565b6000819050919050565b60006102b56102b06102ab84610270565b610290565b610270565b9050919050565b60006102c78261029a565b9050919050565b60006102d9826102bc565b9050919050565b6102e9816102ce565b82525050565b600060208201905061030460008301846102e0565b92915050565b600080fd5b600080fd5b600061ffff82169050919050565b61032b81610314565b811461033657600080fd5b50565b60008135905061034881610322565b92915050565b6000602082840312156103645761036361030a565b5b600061037284828501610339565b91505092915050565b6000819050919050565b61038e8161037b565b82525050565b60006020820190506103a96000830184610385565b92915050565b60006103ba82610270565b9050919050565b6103ca816103af565b81146103d557600080fd5b50565b6000813590506103e7816103c1565b92915050565b600080fd5b600080fd5b600080fd5b60008083601f840112610412576104116103ed565b5b8235905067ffffffffffffffff81111561042f5761042e6103f2565b5b60208301915083600182028301111561044b5761044a6103f7565b5b9250929050565b6000806000806060858703121561046c5761046b61030a565b5b600061047a87828801610339565b945050602061048b878288016103d8565b935050604085013567ffffffffffffffff8111156104ac576104ab61030f565b5b6104b8878288016103fc565b925092505092959194509250565b6104cf81610314565b82525050565b6000819050919050565b60006104fa6104f56104f0846104d5565b610290565b61037b565b9050919050565b61050a816104df565b82525050565b600060608201905061052560008301866104c6565b6105326020830185610501565b61053f6040830184610385565b949350505050565b6105508161037b565b811461055b57600080fd5b50565b60008151905061056d81610547565b92915050565b6000806040838503121561058a5761058961030a565b5b60006105988582860161055e565b92505060206105a98582860161055e565b9150509250929050565b600082825260208201905092915050565b82818337600083830152505050565b6000601f19601f8301169050919050565b60006105f083856105b3565b93506105fd8385846105c4565b610606836105d3565b840190509392505050565b61061a816103af565b82525050565b6000604082019050818103600083015261063b8185876105e4565b905061064a6020830184610611565b949350505050565b600081519050919050565b600082825260208201905092915050565b60005b8381101561068c578082015181840152602081019050610671565b60008484015250505050565b60006106a382610652565b6106ad818561065d565b93506106bd81856020860161066e565b6106c6816105d3565b840191505092915050565b600060a0820190506106e660008301886104c6565b6106f36020830187610611565b81810360408301526107058186610698565b90506107146060830185610501565b6107216080830184610385565b9695505050505050565b600067ffffffffffffffff82169050919050565b6107488161072b565b811461075357600080fd5b50565b6000815190506107658161073f565b92915050565b6000602082840312156107815761078061030a565b5b600061078f84828501610756565b9150509291505056fea26469706673582212208056c3202de088ee579b58652379914f25325e95e5ff4f561700ce59d42b7bd564736f6c63430008190033",
  "linkReferences": {},
  "deployedLinkReferences": {}
}