{"abi":[{"type":"constructor","inputs":[{"name":"_wormholeRelayer","type":"address","internalType":"address"},{"name":"_tokenBridge","type":"address","internalType":"address"},{"name":"_wormhole","type":"address","internalType":"address"}],"stateMutability":"nonpayable"},{"type":"function","name":"createArbitraryMessage","inputs":[{"name":"_contractToBeCalled","type":"address","internalType":"address"},{"name":"_encodedFunctionCall","type":"bytes","internalType":"bytes"}],"outputs":[{"name":"","type":"bytes","internalType":"bytes"}],"stateMutability":"pure"},{"type":"function","name":"quoteCrossChainDeposit","inputs":[{"name":"_targetChain","type":"uint16","internalType":"uint16"}],"outputs":[{"name":"cost","type":"uint256","internalType":"uint256"}],"stateMutability":"view"},{"type":"function","name":"sendCrossChainDeposit","inputs":[{"name":"_targetChain","type":"uint16","internalType":"uint16"},{"name":"_targetReceiver","type":"address","internalType":"address"},{"name":"_to","type":"address","internalType":"address"},{"name":"_amount","type":"uint256","internalType":"uint256"},{"name":"_token","type":"address","internalType":"address"}],"outputs":[],"stateMutability":"payable"},{"type":"function","name":"sendCrossChainTokenAndCall","inputs":[{"name":"_targetChain","type":"uint16","internalType":"uint16"},{"name":"_targetReceiver","type":"address","internalType":"address"},{"name":"_amount","type":"uint256","internalType":"uint256"},{"name":"_token","type":"address","internalType":"address"},{"name":"_contractToBeCalled","type":"address","internalType":"address"},{"name":"_encodedFunctionCall","type":"bytes","internalType":"bytes"}],"outputs":[],"stateMutability":"payable"},{"type":"function","name":"setRegisteredSender","inputs":[{"name":"sourceChain","type":"uint16","internalType":"uint16"},{"name":"sourceAddress","type":"bytes32","internalType":"bytes32"}],"outputs":[],"stateMutability":"nonpayable"},{"type":"function","name":"tokenBridge","inputs":[],"outputs":[{"name":"","type":"address","internalType":"contract ITokenBridge"}],"stateMutability":"view"},{"type":"function","name":"wormhole","inputs":[],"outputs":[{"name":"","type":"address","internalType":"contract IWormhole"}],"stateMutability":"view"},{"type":"function","name":"wormholeRelayer","inputs":[],"outputs":[{"name":"","type":"address","internalType":"contract IWormholeRelayer"}],"stateMutability":"view"}],"bytecode":{"object":"0x60e060405234801561001057600080fd5b5060405161109c38038061109c83398101604081905261002f91610079565b6001600160a01b03928316608052821660a052600080546001600160a01b031916331790551660c0526100bc565b80516001600160a01b038116811461007457600080fd5b919050565b60008060006060848603121561008e57600080fd5b6100978461005d565b92506100a56020850161005d565b91506100b36040850161005d565b90509250925092565b60805160a05160c051610f7261012a60003960008181610166015281816107b40152818161083501526109fa0152600081816101070152818161028301528181610864015261096701526000818161019a015281816102120152818161062901526106980152610f726000f3fe60806040526004361061007b5760003560e01c80638d3ea4891161004e5780638d3ea48914610141578063c6328a4614610154578063da25b72514610188578063dd12d68b146101bc57600080fd5b80632b524c97146100805780636763951c146100b35780637e9ee910146100e057806384acd1bb146100f5575b600080fd5b34801561008c57600080fd5b506100a061009b366004610a4c565b6101dc565b6040519081526020015b60405180910390f35b3480156100bf57600080fd5b506100d36100ce366004610b28565b610314565b6040516100aa9190610bbc565b6100f36100ee366004610bcf565b610345565b005b34801561010157600080fd5b506101297f000000000000000000000000000000000000000000000000000000000000000081565b6040516001600160a01b0390911681526020016100aa565b6100f361014f366004610c59565b61041e565b34801561016057600080fd5b506101297f000000000000000000000000000000000000000000000000000000000000000081565b34801561019457600080fd5b506101297f000000000000000000000000000000000000000000000000000000000000000081565b3480156101c857600080fd5b506100f36101d7366004610cb9565b610507565b60405163c23ee3c360e01b815261ffff821660048201526000602482018190526203d09060448301529081906001600160a01b037f0000000000000000000000000000000000000000000000000000000000000000169063c23ee3c3906064016040805180830381865afa158015610258573d6000803e3d6000fd5b505050506040513d601f19601f8201168201806040525081019061027c9190610ce5565b50809150507f00000000000000000000000000000000000000000000000000000000000000006001600160a01b0316631a90a2196040518163ffffffff1660e01b8152600401602060405180830381865afa1580156102df573d6000803e3d6000fd5b505050506040513d601f19601f820116820180604052508101906103039190610d09565b61030d9082610d22565b9392505050565b60606000838360405160200161032b929190610d43565b60408051601f198184030181529190529150505b92915050565b6000610350876101dc565b905080341461037a5760405162461bcd60e51b815260040161037190610d6f565b60405180910390fd5b6040516323b872dd60e01b8152336004820152306024820152604481018690526001600160a01b038516906323b872dd906064016020604051808303816000875af11580156103cd573d6000803e3d6000fd5b505050506040513d601f19601f820116820180604052508101906103f19190610dcc565b5060006103fe8484610314565b905061041388888360006203d0908a8c610584565b505050505050505050565b6000610429866101dc565b905080341461044a5760405162461bcd60e51b815260040161037190610d6f565b6040516323b872dd60e01b8152336004820152306024820152604481018490526001600160a01b038316906323b872dd906064016020604051808303816000875af115801561049d573d6000803e3d6000fd5b505050506040513d601f19601f820116820180604052508101906104c19190610dcc565b50604080516001600160a01b03861660208201526000910160405160208183030381529060405290506104fd87878360006203d090888a610584565b5050505050505050565b6000546001600160a01b0316331461056d5760405162461bcd60e51b8152602060048201526024808201527f4e6f7420616c6c6f77656420746f207365742072656769737465726564207365604482015263373232b960e11b6064820152608401610371565b61ffff909116600090815260016020526040902055565b604080516001808252818301909252600091829190816020015b604080516060810182526000808252602080830182905292820152825260001990920191018161059e5790505090506105d984848b8b61073e565b816000815181106105ec576105ec610dee565b602090810291909101015260405163c23ee3c360e01b815261ffff8a16600482015260248101879052604481018690526000906001600160a01b037f0000000000000000000000000000000000000000000000000000000000000000169063c23ee3c3906064016040805180830381865afa15801561066f573d6000803e3d6000fd5b505050506040513d601f19601f820116820180604052508101906106939190610ce5565b5090507f00000000000000000000000000000000000000000000000000000000000000006001600160a01b031663329a2be7828c8c8c8c8c896040518863ffffffff1660e01b81526004016106ed96959493929190610e04565b60206040518083038185885af115801561070b573d6000803e3d6000fd5b50505050506040513d601f19601f820116820180604052508101906107309190610ea6565b9a9950505050505050505050565b60408051606081018252600080825260208201819052918101919091526107778585858560405180602001604052806000815250610780565b95945050505050565b604080516060810182526000808252602082018190529181019190915260405163095ea7b360e01b81526001600160a01b037f0000000000000000000000000000000000000000000000000000000000000000811660048301526024820187905287169063095ea7b3906044016020604051808303816000875af115801561080c573d6000803e3d6000fd5b505050506040513d601f19601f820116820180604052508101906108309190610dcc565b5060007f00000000000000000000000000000000000000000000000000000000000000006001600160a01b031663c5a5ebda7f00000000000000000000000000000000000000000000000000000000000000006001600160a01b0316631a90a2196040518163ffffffff1660e01b8152600401602060405180830381865afa1580156108c0573d6000803e3d6000fd5b505050506040513d601f19601f820116820180604052508101906108e49190610d09565b8989896001600160a01b038a1660008a6040518863ffffffff1660e01b815260040161091596959493929190610ed0565b60206040518083038185885af1158015610933573d6000803e3d6000fd5b50505050506040513d601f19601f820116820180604052508101906109589190610ea6565b905060405180606001604052807f00000000000000000000000000000000000000000000000000000000000000006001600160a01b0316639a8a05926040518163ffffffff1660e01b8152600401602060405180830381865afa1580156109c3573d6000803e3d6000fd5b505050506040513d601f19601f820116820180604052508101906109e79190610f1f565b61ffff1681526020016001600160a01b037f00000000000000000000000000000000000000000000000000000000000000001681526020018267ffffffffffffffff1681525091505095945050505050565b61ffff81168114610a4957600080fd5b50565b600060208284031215610a5e57600080fd5b813561030d81610a39565b80356001600160a01b0381168114610a8057600080fd5b919050565b634e487b7160e01b600052604160045260246000fd5b600082601f830112610aac57600080fd5b813567ffffffffffffffff80821115610ac757610ac7610a85565b604051601f8301601f19908116603f01168101908282118183101715610aef57610aef610a85565b81604052838152866020858801011115610b0857600080fd5b836020870160208301376000602085830101528094505050505092915050565b60008060408385031215610b3b57600080fd5b610b4483610a69565b9150602083013567ffffffffffffffff811115610b6057600080fd5b610b6c85828601610a9b565b9150509250929050565b6000815180845260005b81811015610b9c57602081850181015186830182015201610b80565b506000602082860101526020601f19601f83011685010191505092915050565b60208152600061030d6020830184610b76565b60008060008060008060c08789031215610be857600080fd5b8635610bf381610a39565b9550610c0160208801610a69565b945060408701359350610c1660608801610a69565b9250610c2460808801610a69565b915060a087013567ffffffffffffffff811115610c4057600080fd5b610c4c89828a01610a9b565b9150509295509295509295565b600080600080600060a08688031215610c7157600080fd5b8535610c7c81610a39565b9450610c8a60208701610a69565b9350610c9860408701610a69565b925060608601359150610cad60808701610a69565b90509295509295909350565b60008060408385031215610ccc57600080fd5b8235610cd781610a39565b946020939093013593505050565b60008060408385031215610cf857600080fd5b505080516020909101519092909150565b600060208284031215610d1b57600080fd5b5051919050565b8082018082111561033f57634e487b7160e01b600052601160045260246000fd5b6001600160a01b0383168152604060208201819052600090610d6790830184610b76565b949350505050565b60208082526038908201527f6d73672e76616c7565206d75737420657175616c2071756f746543726f73734360408201527f6861696e4465706f73697428746172676574436861696e290000000000000000606082015260800190565b600060208284031215610dde57600080fd5b8151801515811461030d57600080fd5b634e487b7160e01b600052603260045260246000fd5b600061ffff8089168352602060018060a01b03891681850152604060c06040860152610e3360c086018a610b76565b60608681018a90526080870189905286820360a088015287518083528489019285019060005b81811015610e92578451805189168452878101518885015286015167ffffffffffffffff16868401529386019391830191600101610e59565b50909e9d5050505050505050505050505050565b600060208284031215610eb857600080fd5b815167ffffffffffffffff8116811461030d57600080fd5b60018060a01b038716815285602082015261ffff8516604082015283606082015263ffffffff8316608082015260c060a08201526000610f1360c0830184610b76565b98975050505050505050565b600060208284031215610f3157600080fd5b815161030d81610a3956fea2646970667358221220427fbf6e9b3821692a849c6b6845993bad82fbf27827ed90ad63540b6438768d64736f6c63430008190033","linkReferences":{}},"methodIdentifiers":{"createArbitraryMessage(address,bytes)":"6763951c","quoteCrossChainDeposit(uint16)":"2b524c97","sendCrossChainDeposit(uint16,address,address,uint256,address)":"8d3ea489","sendCrossChainTokenAndCall(uint16,address,uint256,address,address,bytes)":"7e9ee910","setRegisteredSender(uint16,bytes32)":"dd12d68b","tokenBridge()":"c6328a46","wormhole()":"84acd1bb","wormholeRelayer()":"da25b725"},"id":15}