{
  "contracts/SL1AnyChainReceiver.sol": {
    "SL1AnyChainReceiver": {
      "abi": [
        {
          "anonymous": false,
          "inputs": [
            {
              "indexed": false,
              "internalType": "string",
              "name": "message",
              "type": "string"
            }
          ],
          "name": "ErrorMessage",
          "type": "event"
        },
        {
          "anonymous": false,
          "inputs": [
            {
              "indexed": true,
              "internalType": "address",
              "name": "sender",
              "type": "address"
            },
            {
              "indexed": false,
              "internalType": "bytes",
              "name": "message",
              "type": "bytes"
            }
          ],
          "name": "ReceivedMessage",
          "type": "event"
        },
        {
          "inputs": [
            {
              "internalType": "bytes32",
              "name": "",
              "type": "bytes32"
            },
            {
              "internalType": "address",
              "name": "",
              "type": "address"
            },
            {
              "internalType": "bytes",
              "name": "message",
              "type": "bytes"
            }
          ],
          "name": "receiveTeleporterMessage",
          "outputs": [],
          "stateMutability": "nonpayable",
          "type": "function"
        }
      ],
      "evm": {
        "bytecode": {
          "linkReferences": {},
          "object": "6080604052348015600f57600080fd5b506107c58061001f6000396000f3fe608060405234801561001057600080fd5b506004361061002b5760003560e01c8063c868efaa14610030575b600080fd5b61004a600480360381019061004591906102eb565b61004c565b005b600080838381019061005e91906104de565b915091506000808373ffffffffffffffffffffffffffffffffffffffff168360405161008a91906105ab565b6000604051808303816000865af19150503d80600081146100c7576040519150601f19603f3d011682016040523d82523d6000602084013e6100cc565b606091505b50915091508161011a577fa183e9a5f6222d4c98fb5b98e0442aaabd70de89b6ec74508bce501a2441f5f961010082610173565b60405161010d9190610617565b60405180910390a1610169565b8373ffffffffffffffffffffffffffffffffffffffff167f65ab685b839fe6f1dc1ae49d8c3de1653999e40183a87aaf2d51b25b09e22b59826040516101609190610683565b60405180910390a25b5050505050505050565b60606044825110156101bc576040518060400160405280601d81526020017f5472616e73616374696f6e2072657665727465642073696c656e746c7900000081525090506101d9565b600482019150818060200190518101906101d69190610746565b90505b919050565b6000604051905090565b600080fd5b600080fd5b6000819050919050565b610205816101f2565b811461021057600080fd5b50565b600081359050610222816101fc565b92915050565b600073ffffffffffffffffffffffffffffffffffffffff82169050919050565b600061025382610228565b9050919050565b61026381610248565b811461026e57600080fd5b50565b6000813590506102808161025a565b92915050565b600080fd5b600080fd5b600080fd5b60008083601f8401126102ab576102aa610286565b5b8235905067ffffffffffffffff8111156102c8576102c761028b565b5b6020830191508360018202830111156102e4576102e3610290565b5b9250929050565b60008060008060608587031215610305576103046101e8565b5b600061031387828801610213565b945050602061032487828801610271565b935050604085013567ffffffffffffffff811115610345576103446101ed565b5b61035187828801610295565b925092505092959194509250565b600061036a82610228565b9050919050565b61037a8161035f565b811461038557600080fd5b50565b60008135905061039781610371565b92915050565b600080fd5b6000601f19601f8301169050919050565b7f4e487b7100000000000000000000000000000000000000000000000000000000600052604160045260246000fd5b6103eb826103a2565b810181811067ffffffffffffffff8211171561040a576104096103b3565b5b80604052505050565b600061041d6101de565b905061042982826103e2565b919050565b600067ffffffffffffffff821115610449576104486103b3565b5b610452826103a2565b9050602081019050919050565b82818337600083830152505050565b600061048161047c8461042e565b610413565b90508281526020810184848401111561049d5761049c61039d565b5b6104a884828561045f565b509392505050565b600082601f8301126104c5576104c4610286565b5b81356104d584826020860161046e565b91505092915050565b600080604083850312156104f5576104f46101e8565b5b600061050385828601610388565b925050602083013567ffffffffffffffff811115610524576105236101ed565b5b610530858286016104b0565b9150509250929050565b600081519050919050565b600081905092915050565b60005b8381101561056e578082015181840152602081019050610553565b60008484015250505050565b60006105858261053a565b61058f8185610545565b935061059f818560208601610550565b80840191505092915050565b60006105b7828461057a565b915081905092915050565b600081519050919050565b600082825260208201905092915050565b60006105e9826105c2565b6105f381856105cd565b9350610603818560208601610550565b61060c816103a2565b840191505092915050565b6000602082019050818103600083015261063181846105de565b905092915050565b600082825260208201905092915050565b60006106558261053a565b61065f8185610639565b935061066f818560208601610550565b610678816103a2565b840191505092915050565b6000602082019050818103600083015261069d818461064a565b905092915050565b600067ffffffffffffffff8211156106c0576106bf6103b3565b5b6106c9826103a2565b9050602081019050919050565b60006106e96106e4846106a5565b610413565b9050828152602081018484840111156107055761070461039d565b5b610710848285610550565b509392505050565b600082601f83011261072d5761072c610286565b5b815161073d8482602086016106d6565b91505092915050565b60006020828403121561075c5761075b6101e8565b5b600082015167ffffffffffffffff81111561077a576107796101ed565b5b61078684828501610718565b9150509291505056fea26469706673582212206edcb3c9ab32cfd35e5b8e76c0958413874b1e691395d130c1e57283ade4586964736f6c63430008190033",
          "opcodes": "PUSH1 0x80 PUSH1 0x40 MSTORE CALLVALUE DUP1 ISZERO PUSH1 0xF JUMPI PUSH1 0x0 DUP1 REVERT JUMPDEST POP PUSH2 0x7C5 DUP1 PUSH2 0x1F PUSH1 0x0 CODECOPY PUSH1 0x0 RETURN INVALID PUSH1 0x80 PUSH1 0x40 MSTORE CALLVALUE DUP1 ISZERO PUSH2 0x10 JUMPI PUSH1 0x0 DUP1 REVERT JUMPDEST POP PUSH1 0x4 CALLDATASIZE LT PUSH2 0x2B JUMPI PUSH1 0x0 CALLDATALOAD PUSH1 0xE0 SHR DUP1 PUSH4 0xC868EFAA EQ PUSH2 0x30 JUMPI JUMPDEST PUSH1 0x0 DUP1 REVERT JUMPDEST PUSH2 0x4A PUSH1 0x4 DUP1 CALLDATASIZE SUB DUP2 ADD SWAP1 PUSH2 0x45 SWAP2 SWAP1 PUSH2 0x2EB JUMP JUMPDEST PUSH2 0x4C JUMP JUMPDEST STOP JUMPDEST PUSH1 0x0 DUP1 DUP4 DUP4 DUP2 ADD SWAP1 PUSH2 0x5E SWAP2 SWAP1 PUSH2 0x4DE JUMP JUMPDEST SWAP2 POP SWAP2 POP PUSH1 0x0 DUP1 DUP4 PUSH20 0xFFFFFFFFFFFFFFFFFFFFFFFFFFFFFFFFFFFFFFFF AND DUP4 PUSH1 0x40 MLOAD PUSH2 0x8A SWAP2 SWAP1 PUSH2 0x5AB JUMP JUMPDEST PUSH1 0x0 PUSH1 0x40 MLOAD DUP1 DUP4 SUB DUP2 PUSH1 0x0 DUP7 GAS CALL SWAP2 POP POP RETURNDATASIZE DUP1 PUSH1 0x0 DUP2 EQ PUSH2 0xC7 JUMPI PUSH1 0x40 MLOAD SWAP2 POP PUSH1 0x1F NOT PUSH1 0x3F RETURNDATASIZE ADD AND DUP3 ADD PUSH1 0x40 MSTORE RETURNDATASIZE DUP3 MSTORE RETURNDATASIZE PUSH1 0x0 PUSH1 0x20 DUP5 ADD RETURNDATACOPY PUSH2 0xCC JUMP JUMPDEST PUSH1 0x60 SWAP2 POP JUMPDEST POP SWAP2 POP SWAP2 POP DUP2 PUSH2 0x11A JUMPI PUSH32 0xA183E9A5F6222D4C98FB5B98E0442AAABD70DE89B6EC74508BCE501A2441F5F9 PUSH2 0x100 DUP3 PUSH2 0x173 JUMP JUMPDEST PUSH1 0x40 MLOAD PUSH2 0x10D SWAP2 SWAP1 PUSH2 0x617 JUMP JUMPDEST PUSH1 0x40 MLOAD DUP1 SWAP2 SUB SWAP1 LOG1 PUSH2 0x169 JUMP JUMPDEST DUP4 PUSH20 0xFFFFFFFFFFFFFFFFFFFFFFFFFFFFFFFFFFFFFFFF AND PUSH32 0x65AB685B839FE6F1DC1AE49D8C3DE1653999E40183A87AAF2D51B25B09E22B59 DUP3 PUSH1 0x40 MLOAD PUSH2 0x160 SWAP2 SWAP1 PUSH2 0x683 JUMP JUMPDEST PUSH1 0x40 MLOAD DUP1 SWAP2 SUB SWAP1 LOG2 JUMPDEST POP POP POP POP POP POP POP POP JUMP JUMPDEST PUSH1 0x60 PUSH1 0x44 DUP3 MLOAD LT ISZERO PUSH2 0x1BC JUMPI PUSH1 0x40 MLOAD DUP1 PUSH1 0x40 ADD PUSH1 0x40 MSTORE DUP1 PUSH1 0x1D DUP2 MSTORE PUSH1 0x20 ADD PUSH32 0x5472616E73616374696F6E2072657665727465642073696C656E746C79000000 DUP2 MSTORE POP SWAP1 POP PUSH2 0x1D9 JUMP JUMPDEST PUSH1 0x4 DUP3 ADD SWAP2 POP DUP2 DUP1 PUSH1 0x20 ADD SWAP1 MLOAD DUP2 ADD SWAP1 PUSH2 0x1D6 SWAP2 SWAP1 PUSH2 0x746 JUMP JUMPDEST SWAP1 POP JUMPDEST SWAP2 SWAP1 POP JUMP JUMPDEST PUSH1 0x0 PUSH1 0x40 MLOAD SWAP1 POP SWAP1 JUMP JUMPDEST PUSH1 0x0 DUP1 REVERT JUMPDEST PUSH1 0x0 DUP1 REVERT JUMPDEST PUSH1 0x0 DUP2 SWAP1 POP SWAP2 SWAP1 POP JUMP JUMPDEST PUSH2 0x205 DUP2 PUSH2 0x1F2 JUMP JUMPDEST DUP2 EQ PUSH2 0x210 JUMPI PUSH1 0x0 DUP1 REVERT JUMPDEST POP JUMP JUMPDEST PUSH1 0x0 DUP2 CALLDATALOAD SWAP1 POP PUSH2 0x222 DUP2 PUSH2 0x1FC JUMP JUMPDEST SWAP3 SWAP2 POP POP JUMP JUMPDEST PUSH1 0x0 PUSH20 0xFFFFFFFFFFFFFFFFFFFFFFFFFFFFFFFFFFFFFFFF DUP3 AND SWAP1 POP SWAP2 SWAP1 POP JUMP JUMPDEST PUSH1 0x0 PUSH2 0x253 DUP3 PUSH2 0x228 JUMP JUMPDEST SWAP1 POP SWAP2 SWAP1 POP JUMP JUMPDEST PUSH2 0x263 DUP2 PUSH2 0x248 JUMP JUMPDEST DUP2 EQ PUSH2 0x26E JUMPI PUSH1 0x0 DUP1 REVERT JUMPDEST POP JUMP JUMPDEST PUSH1 0x0 DUP2 CALLDATALOAD SWAP1 POP PUSH2 0x280 DUP2 PUSH2 0x25A JUMP JUMPDEST SWAP3 SWAP2 POP POP JUMP JUMPDEST PUSH1 0x0 DUP1 REVERT JUMPDEST PUSH1 0x0 DUP1 REVERT JUMPDEST PUSH1 0x0 DUP1 REVERT JUMPDEST PUSH1 0x0 DUP1 DUP4 PUSH1 0x1F DUP5 ADD SLT PUSH2 0x2AB JUMPI PUSH2 0x2AA PUSH2 0x286 JUMP JUMPDEST JUMPDEST DUP3 CALLDATALOAD SWAP1 POP PUSH8 0xFFFFFFFFFFFFFFFF DUP2 GT ISZERO PUSH2 0x2C8 JUMPI PUSH2 0x2C7 PUSH2 0x28B JUMP JUMPDEST JUMPDEST PUSH1 0x20 DUP4 ADD SWAP2 POP DUP4 PUSH1 0x1 DUP3 MUL DUP4 ADD GT ISZERO PUSH2 0x2E4 JUMPI PUSH2 0x2E3 PUSH2 0x290 JUMP JUMPDEST JUMPDEST SWAP3 POP SWAP3 SWAP1 POP JUMP JUMPDEST PUSH1 0x0 DUP1 PUSH1 0x0 DUP1 PUSH1 0x60 DUP6 DUP8 SUB SLT ISZERO PUSH2 0x305 JUMPI PUSH2 0x304 PUSH2 0x1E8 JUMP JUMPDEST JUMPDEST PUSH1 0x0 PUSH2 0x313 DUP8 DUP3 DUP9 ADD PUSH2 0x213 JUMP JUMPDEST SWAP5 POP POP PUSH1 0x20 PUSH2 0x324 DUP8 DUP3 DUP9 ADD PUSH2 0x271 JUMP JUMPDEST SWAP4 POP POP PUSH1 0x40 DUP6 ADD CALLDATALOAD PUSH8 0xFFFFFFFFFFFFFFFF DUP2 GT ISZERO PUSH2 0x345 JUMPI PUSH2 0x344 PUSH2 0x1ED JUMP JUMPDEST JUMPDEST PUSH2 0x351 DUP8 DUP3 DUP9 ADD PUSH2 0x295 JUMP JUMPDEST SWAP3 POP SWAP3 POP POP SWAP3 SWAP6 SWAP2 SWAP5 POP SWAP3 POP JUMP JUMPDEST PUSH1 0x0 PUSH2 0x36A DUP3 PUSH2 0x228 JUMP JUMPDEST SWAP1 POP SWAP2 SWAP1 POP JUMP JUMPDEST PUSH2 0x37A DUP2 PUSH2 0x35F JUMP JUMPDEST DUP2 EQ PUSH2 0x385 JUMPI PUSH1 0x0 DUP1 REVERT JUMPDEST POP JUMP JUMPDEST PUSH1 0x0 DUP2 CALLDATALOAD SWAP1 POP PUSH2 0x397 DUP2 PUSH2 0x371 JUMP JUMPDEST SWAP3 SWAP2 POP POP JUMP JUMPDEST PUSH1 0x0 DUP1 REVERT JUMPDEST PUSH1 0x0 PUSH1 0x1F NOT PUSH1 0x1F DUP4 ADD AND SWAP1 POP SWAP2 SWAP1 POP JUMP JUMPDEST PUSH32 0x4E487B7100000000000000000000000000000000000000000000000000000000 PUSH1 0x0 MSTORE PUSH1 0x41 PUSH1 0x4 MSTORE PUSH1 0x24 PUSH1 0x0 REVERT JUMPDEST PUSH2 0x3EB DUP3 PUSH2 0x3A2 JUMP JUMPDEST DUP2 ADD DUP2 DUP2 LT PUSH8 0xFFFFFFFFFFFFFFFF DUP3 GT OR ISZERO PUSH2 0x40A JUMPI PUSH2 0x409 PUSH2 0x3B3 JUMP JUMPDEST JUMPDEST DUP1 PUSH1 0x40 MSTORE POP POP POP JUMP JUMPDEST PUSH1 0x0 PUSH2 0x41D PUSH2 0x1DE JUMP JUMPDEST SWAP1 POP PUSH2 0x429 DUP3 DUP3 PUSH2 0x3E2 JUMP JUMPDEST SWAP2 SWAP1 POP JUMP JUMPDEST PUSH1 0x0 PUSH8 0xFFFFFFFFFFFFFFFF DUP3 GT ISZERO PUSH2 0x449 JUMPI PUSH2 0x448 PUSH2 0x3B3 JUMP JUMPDEST JUMPDEST PUSH2 0x452 DUP3 PUSH2 0x3A2 JUMP JUMPDEST SWAP1 POP PUSH1 0x20 DUP2 ADD SWAP1 POP SWAP2 SWAP1 POP JUMP JUMPDEST DUP3 DUP2 DUP4 CALLDATACOPY PUSH1 0x0 DUP4 DUP4 ADD MSTORE POP POP POP JUMP JUMPDEST PUSH1 0x0 PUSH2 0x481 PUSH2 0x47C DUP5 PUSH2 0x42E JUMP JUMPDEST PUSH2 0x413 JUMP JUMPDEST SWAP1 POP DUP3 DUP2 MSTORE PUSH1 0x20 DUP2 ADD DUP5 DUP5 DUP5 ADD GT ISZERO PUSH2 0x49D JUMPI PUSH2 0x49C PUSH2 0x39D JUMP JUMPDEST JUMPDEST PUSH2 0x4A8 DUP5 DUP3 DUP6 PUSH2 0x45F JUMP JUMPDEST POP SWAP4 SWAP3 POP POP POP JUMP JUMPDEST PUSH1 0x0 DUP3 PUSH1 0x1F DUP4 ADD SLT PUSH2 0x4C5 JUMPI PUSH2 0x4C4 PUSH2 0x286 JUMP JUMPDEST JUMPDEST DUP2 CALLDATALOAD PUSH2 0x4D5 DUP5 DUP3 PUSH1 0x20 DUP7 ADD PUSH2 0x46E JUMP JUMPDEST SWAP2 POP POP SWAP3 SWAP2 POP POP JUMP JUMPDEST PUSH1 0x0 DUP1 PUSH1 0x40 DUP4 DUP6 SUB SLT ISZERO PUSH2 0x4F5 JUMPI PUSH2 0x4F4 PUSH2 0x1E8 JUMP JUMPDEST JUMPDEST PUSH1 0x0 PUSH2 0x503 DUP6 DUP3 DUP7 ADD PUSH2 0x388 JUMP JUMPDEST SWAP3 POP POP PUSH1 0x20 DUP4 ADD CALLDATALOAD PUSH8 0xFFFFFFFFFFFFFFFF DUP2 GT ISZERO PUSH2 0x524 JUMPI PUSH2 0x523 PUSH2 0x1ED JUMP JUMPDEST JUMPDEST PUSH2 0x530 DUP6 DUP3 DUP7 ADD PUSH2 0x4B0 JUMP JUMPDEST SWAP2 POP POP SWAP3 POP SWAP3 SWAP1 POP JUMP JUMPDEST PUSH1 0x0 DUP2 MLOAD SWAP1 POP SWAP2 SWAP1 POP JUMP JUMPDEST PUSH1 0x0 DUP2 SWAP1 POP SWAP3 SWAP2 POP POP JUMP JUMPDEST PUSH1 0x0 JUMPDEST DUP4 DUP2 LT ISZERO PUSH2 0x56E JUMPI DUP1 DUP3 ADD MLOAD DUP2 DUP5 ADD MSTORE PUSH1 0x20 DUP2 ADD SWAP1 POP PUSH2 0x553 JUMP JUMPDEST PUSH1 0x0 DUP5 DUP5 ADD MSTORE POP POP POP POP JUMP JUMPDEST PUSH1 0x0 PUSH2 0x585 DUP3 PUSH2 0x53A JUMP JUMPDEST PUSH2 0x58F DUP2 DUP6 PUSH2 0x545 JUMP JUMPDEST SWAP4 POP PUSH2 0x59F DUP2 DUP6 PUSH1 0x20 DUP7 ADD PUSH2 0x550 JUMP JUMPDEST DUP1 DUP5 ADD SWAP2 POP POP SWAP3 SWAP2 POP POP JUMP JUMPDEST PUSH1 0x0 PUSH2 0x5B7 DUP3 DUP5 PUSH2 0x57A JUMP JUMPDEST SWAP2 POP DUP2 SWAP1 POP SWAP3 SWAP2 POP POP JUMP JUMPDEST PUSH1 0x0 DUP2 MLOAD SWAP1 POP SWAP2 SWAP1 POP JUMP JUMPDEST PUSH1 0x0 DUP3 DUP3 MSTORE PUSH1 0x20 DUP3 ADD SWAP1 POP SWAP3 SWAP2 POP POP JUMP JUMPDEST PUSH1 0x0 PUSH2 0x5E9 DUP3 PUSH2 0x5C2 JUMP JUMPDEST PUSH2 0x5F3 DUP2 DUP6 PUSH2 0x5CD JUMP JUMPDEST SWAP4 POP PUSH2 0x603 DUP2 DUP6 PUSH1 0x20 DUP7 ADD PUSH2 0x550 JUMP JUMPDEST PUSH2 0x60C DUP2 PUSH2 0x3A2 JUMP JUMPDEST DUP5 ADD SWAP2 POP POP SWAP3 SWAP2 POP POP JUMP JUMPDEST PUSH1 0x0 PUSH1 0x20 DUP3 ADD SWAP1 POP DUP2 DUP2 SUB PUSH1 0x0 DUP4 ADD MSTORE PUSH2 0x631 DUP2 DUP5 PUSH2 0x5DE JUMP JUMPDEST SWAP1 POP SWAP3 SWAP2 POP POP JUMP JUMPDEST PUSH1 0x0 DUP3 DUP3 MSTORE PUSH1 0x20 DUP3 ADD SWAP1 POP SWAP3 SWAP2 POP POP JUMP JUMPDEST PUSH1 0x0 PUSH2 0x655 DUP3 PUSH2 0x53A JUMP JUMPDEST PUSH2 0x65F DUP2 DUP6 PUSH2 0x639 JUMP JUMPDEST SWAP4 POP PUSH2 0x66F DUP2 DUP6 PUSH1 0x20 DUP7 ADD PUSH2 0x550 JUMP JUMPDEST PUSH2 0x678 DUP2 PUSH2 0x3A2 JUMP JUMPDEST DUP5 ADD SWAP2 POP POP SWAP3 SWAP2 POP POP JUMP JUMPDEST PUSH1 0x0 PUSH1 0x20 DUP3 ADD SWAP1 POP DUP2 DUP2 SUB PUSH1 0x0 DUP4 ADD MSTORE PUSH2 0x69D DUP2 DUP5 PUSH2 0x64A JUMP JUMPDEST SWAP1 POP SWAP3 SWAP2 POP POP JUMP JUMPDEST PUSH1 0x0 PUSH8 0xFFFFFFFFFFFFFFFF DUP3 GT ISZERO PUSH2 0x6C0 JUMPI PUSH2 0x6BF PUSH2 0x3B3 JUMP JUMPDEST JUMPDEST PUSH2 0x6C9 DUP3 PUSH2 0x3A2 JUMP JUMPDEST SWAP1 POP PUSH1 0x20 DUP2 ADD SWAP1 POP SWAP2 SWAP1 POP JUMP JUMPDEST PUSH1 0x0 PUSH2 0x6E9 PUSH2 0x6E4 DUP5 PUSH2 0x6A5 JUMP JUMPDEST PUSH2 0x413 JUMP JUMPDEST SWAP1 POP DUP3 DUP2 MSTORE PUSH1 0x20 DUP2 ADD DUP5 DUP5 DUP5 ADD GT ISZERO PUSH2 0x705 JUMPI PUSH2 0x704 PUSH2 0x39D JUMP JUMPDEST JUMPDEST PUSH2 0x710 DUP5 DUP3 DUP6 PUSH2 0x550 JUMP JUMPDEST POP SWAP4 SWAP3 POP POP POP JUMP JUMPDEST PUSH1 0x0 DUP3 PUSH1 0x1F DUP4 ADD SLT PUSH2 0x72D JUMPI PUSH2 0x72C PUSH2 0x286 JUMP JUMPDEST JUMPDEST DUP2 MLOAD PUSH2 0x73D DUP5 DUP3 PUSH1 0x20 DUP7 ADD PUSH2 0x6D6 JUMP JUMPDEST SWAP2 POP POP SWAP3 SWAP2 POP POP JUMP JUMPDEST PUSH1 0x0 PUSH1 0x20 DUP3 DUP5 SUB SLT ISZERO PUSH2 0x75C JUMPI PUSH2 0x75B PUSH2 0x1E8 JUMP JUMPDEST JUMPDEST PUSH1 0x0 DUP3 ADD MLOAD PUSH8 0xFFFFFFFFFFFFFFFF DUP2 GT ISZERO PUSH2 0x77A JUMPI PUSH2 0x779 PUSH2 0x1ED JUMP JUMPDEST JUMPDEST PUSH2 0x786 DUP5 DUP3 DUP6 ADD PUSH2 0x718 JUMP JUMPDEST SWAP2 POP POP SWAP3 SWAP2 POP POP JUMP INVALID LOG2 PUSH5 0x6970667358 0x22 SLT KECCAK256 PUSH15 0xDCB3C9AB32CFD35E5B8E76C0958413 DUP8 0x4B 0x1E PUSH10 0x1395D130C1E57283ADE4 PC PUSH10 0x64736F6C634300081900 CALLER "
        },
        "methodIdentifiers": {
          "receiveTeleporterMessage(bytes32,address,bytes)": "c868efaa"
        }
      }
    }
  }
}