{
  "contracts/wormhole/SL1MessageSender.sol": {
    "SL1MessageSender": {
      "abi": [
        {
          "inputs": [
            {
              "internalType": "address",
              "name": "_wormholeRelayer",
              "type": "address"
            }
          ],
          "stateMutability": "nonpayable",
          "type": "constructor"
        },
        {
          "inputs": [],
          "name": "GAS_LIMIT",
          "outputs": [
            {
              "internalType": "uint256",
              "name": "",
              "type": "uint256"
            }
          ],
          "stateMutability": "view",
          "type": "function"
        },
        {
          "inputs": [
            {
              "internalType": "address",
              "name": "_contractToBeCalled",
              "type": "address"
            },
            {
              "internalType": "bytes",
              "name": "_encodedFunctionCall",
              "type": "bytes"
            }
          ],
          "name": "encodeMessage",
          "outputs": [
            {
              "internalType": "bytes",
              "name": "",
              "type": "bytes"
            }
          ],
          "stateMutability": "view",
          "type": "function"
        },
        {
          "inputs": [],
          "name": "owner",
          "outputs": [
            {
              "internalType": "address",
              "name": "",
              "type": "address"
            }
          ],
          "stateMutability": "view",
          "type": "function"
        },
        {
          "inputs": [
            {
              "internalType": "uint16",
              "name": "_targetChain",
              "type": "uint16"
            },
            {
              "internalType": "uint256",
              "name": "_gasLimit",
              "type": "uint256"
            }
          ],
          "name": "quoteCrossChainCost",
          "outputs": [
            {
              "internalType": "uint256",
              "name": "cost",
              "type": "uint256"
            }
          ],
          "stateMutability": "view",
          "type": "function"
        },
        {
          "inputs": [],
          "name": "s_wormholeRelayer",
          "outputs": [
            {
              "internalType": "contract IWormholeRelayer",
              "name": "",
              "type": "address"
            }
          ],
          "stateMutability": "view",
          "type": "function"
        },
        {
          "inputs": [
            {
              "internalType": "uint16",
              "name": "_targetChain",
              "type": "uint16"
            },
            {
              "internalType": "address",
              "name": "_targetAddress",
              "type": "address"
            },
            {
              "internalType": "address",
              "name": "_contractToBeCalled",
              "type": "address"
            },
            {
              "internalType": "bytes",
              "name": "_encodedFunctionCall",
              "type": "bytes"
            },
            {
              "internalType": "uint256",
              "name": "_gasLimit",
              "type": "uint256"
            }
          ],
          "name": "sendMessage",
          "outputs": [],
          "stateMutability": "payable",
          "type": "function"
        },
        {
          "inputs": [
            {
              "internalType": "uint16",
              "name": "_targetChain",
              "type": "uint16"
            },
            {
              "internalType": "address",
              "name": "_targetAddress",
              "type": "address"
            },
            {
              "internalType": "address",
              "name": "_contractToBeCalled",
              "type": "address"
            },
            {
              "internalType": "bytes",
              "name": "_encodedFunctionCall",
              "type": "bytes"
            },
            {
              "internalType": "uint256",
              "name": "_gasLimit",
              "type": "uint256"
            }
          ],
          "name": "sendMessageWithRefund",
          "outputs": [],
          "stateMutability": "payable",
          "type": "function"
        },
        {
          "inputs": [
            {
              "internalType": "uint256",
              "name": "_gasLimit",
              "type": "uint256"
            }
          ],
          "name": "setGasLimit",
          "outputs": [],
          "stateMutability": "nonpayable",
          "type": "function"
        }
      ],
      "evm": {
        "bytecode": {
          "linkReferences": {},
          "object": "6080604052620c350060025534801561001757600080fd5b50604051610fd8380380610fd883398181016040528101906100399190610123565b806000806101000a81548173ffffffffffffffffffffffffffffffffffffffff021916908373ffffffffffffffffffffffffffffffffffffffff16021790555033600160006101000a81548173ffffffffffffffffffffffffffffffffffffffff021916908373ffffffffffffffffffffffffffffffffffffffff16021790555050610150565b600080fd5b600073ffffffffffffffffffffffffffffffffffffffff82169050919050565b60006100f0826100c5565b9050919050565b610100816100e5565b811461010b57600080fd5b50565b60008151905061011d816100f7565b92915050565b600060208284031215610139576101386100c0565b5b60006101478482850161010e565b91505092915050565b610e798061015f6000396000f3fe60806040526004361061007b5760003560e01c8063cd92dcb81161004e578063cd92dcb81461011d578063d07de28014610139578063ebda77e014610176578063ee7d72b4146101b35761007b565b8063091d2788146100805780635bb60dc0146100ab5780638da5cb5b146100d6578063ba02573614610101575b600080fd5b34801561008c57600080fd5b506100956101dc565b6040516100a291906105df565b60405180910390f35b3480156100b757600080fd5b506100c06101e2565b6040516100cd9190610679565b60405180910390f35b3480156100e257600080fd5b506100eb610206565b6040516100f891906106b5565b60405180910390f35b61011b600480360381019061011691906108bc565b61022c565b005b610137600480360381019061013291906108bc565b61033d565b005b34801561014557600080fd5b50610160600480360381019061015b9190610953565b610452565b60405161016d9190610a2e565b60405180910390f35b34801561018257600080fd5b5061019d60048036038101906101989190610a50565b610480565b6040516101aa91906105df565b60405180910390f35b3480156101bf57600080fd5b506101da60048036038101906101d59190610a90565b61052c565b005b60025481565b60008054906101000a900473ffffffffffffffffffffffffffffffffffffffff1681565b600160009054906101000a900473ffffffffffffffffffffffffffffffffffffffff1681565b600254811115610271576040517f08c379a000000000000000000000000000000000000000000000000000000000815260040161026890610b40565b60405180910390fd5b600061027d8484610452565b9050600061028b8784610480565b905060008054906101000a900473ffffffffffffffffffffffffffffffffffffffff1673ffffffffffffffffffffffffffffffffffffffff16638fecdd02828989866000896040518763ffffffff1660e01b81526004016102f0959493929190610baa565b60206040518083038185885af115801561030e573d6000803e3d6000fd5b50505050506040513d601f19601f820116820180604052508101906103339190610c44565b5050505050505050565b600254811115610382576040517f08c379a000000000000000000000000000000000000000000000000000000000815260040161037990610b40565b60405180910390fd5b600061038e8484610452565b9050600061039c8784610480565b905060008054906101000a900473ffffffffffffffffffffffffffffffffffffffff1673ffffffffffffffffffffffffffffffffffffffff16634b5ca6f4828989866000898e336040518963ffffffff1660e01b81526004016104059796959493929190610c71565b60206040518083038185885af1158015610423573d6000803e3d6000fd5b50505050506040513d601f19601f820116820180604052508101906104489190610c44565b5050505050505050565b606082338360405160200161046993929190610ce7565b604051602081830303815290604052905092915050565b60008060009054906101000a900473ffffffffffffffffffffffffffffffffffffffff1673ffffffffffffffffffffffffffffffffffffffff1663c23ee3c3846000856040518463ffffffff1660e01b81526004016104e193929190610d25565b6040805180830381865afa1580156104fd573d6000803e3d6000fd5b505050506040513d601f19601f820116820180604052508101906105219190610d71565b508091505092915050565b600160009054906101000a900473ffffffffffffffffffffffffffffffffffffffff1673ffffffffffffffffffffffffffffffffffffffff163373ffffffffffffffffffffffffffffffffffffffff16146105bc576040517f08c379a00000000000000000000000000000000000000000000000000000000081526004016105b390610e23565b60405180910390fd5b8060028190555050565b6000819050919050565b6105d9816105c6565b82525050565b60006020820190506105f460008301846105d0565b92915050565b600073ffffffffffffffffffffffffffffffffffffffff82169050919050565b6000819050919050565b600061063f61063a610635846105fa565b61061a565b6105fa565b9050919050565b600061065182610624565b9050919050565b600061066382610646565b9050919050565b61067381610658565b82525050565b600060208201905061068e600083018461066a565b92915050565b600061069f826105fa565b9050919050565b6106af81610694565b82525050565b60006020820190506106ca60008301846106a6565b92915050565b6000604051905090565b600080fd5b600080fd5b600061ffff82169050919050565b6106fb816106e4565b811461070657600080fd5b50565b600081359050610718816106f2565b92915050565b61072781610694565b811461073257600080fd5b50565b6000813590506107448161071e565b92915050565b600080fd5b600080fd5b6000601f19601f8301169050919050565b7f4e487b7100000000000000000000000000000000000000000000000000000000600052604160045260246000fd5b61079d82610754565b810181811067ffffffffffffffff821117156107bc576107bb610765565b5b80604052505050565b60006107cf6106d0565b90506107db8282610794565b919050565b600067ffffffffffffffff8211156107fb576107fa610765565b5b61080482610754565b9050602081019050919050565b82818337600083830152505050565b600061083361082e846107e0565b6107c5565b90508281526020810184848401111561084f5761084e61074f565b5b61085a848285610811565b509392505050565b600082601f8301126108775761087661074a565b5b8135610887848260208601610820565b91505092915050565b610899816105c6565b81146108a457600080fd5b50565b6000813590506108b681610890565b92915050565b600080600080600060a086880312156108d8576108d76106da565b5b60006108e688828901610709565b95505060206108f788828901610735565b945050604061090888828901610735565b935050606086013567ffffffffffffffff811115610929576109286106df565b5b61093588828901610862565b9250506080610946888289016108a7565b9150509295509295909350565b6000806040838503121561096a576109696106da565b5b600061097885828601610735565b925050602083013567ffffffffffffffff811115610999576109986106df565b5b6109a585828601610862565b9150509250929050565b600081519050919050565b600082825260208201905092915050565b60005b838110156109e95780820151818401526020810190506109ce565b60008484015250505050565b6000610a00826109af565b610a0a81856109ba565b9350610a1a8185602086016109cb565b610a2381610754565b840191505092915050565b60006020820190508181036000830152610a4881846109f5565b905092915050565b60008060408385031215610a6757610a666106da565b5b6000610a7585828601610709565b9250506020610a86858286016108a7565b9150509250929050565b600060208284031215610aa657610aa56106da565b5b6000610ab4848285016108a7565b91505092915050565b600082825260208201905092915050565b7f476173206c696d6974206578636565647320746865206d6178696d756d206c6960008201527f6d69740000000000000000000000000000000000000000000000000000000000602082015250565b6000610b2a602383610abd565b9150610b3582610ace565b604082019050919050565b60006020820190508181036000830152610b5981610b1d565b9050919050565b610b69816106e4565b82525050565b6000819050919050565b6000610b94610b8f610b8a84610b6f565b61061a565b6105c6565b9050919050565b610ba481610b79565b82525050565b600060a082019050610bbf6000830188610b60565b610bcc60208301876106a6565b8181036040830152610bde81866109f5565b9050610bed6060830185610b9b565b610bfa60808301846105d0565b9695505050505050565b600067ffffffffffffffff82169050919050565b610c2181610c04565b8114610c2c57600080fd5b50565b600081519050610c3e81610c18565b92915050565b600060208284031215610c5a57610c596106da565b5b6000610c6884828501610c2f565b91505092915050565b600060e082019050610c86600083018a610b60565b610c9360208301896106a6565b8181036040830152610ca581886109f5565b9050610cb46060830187610b9b565b610cc160808301866105d0565b610cce60a0830185610b60565b610cdb60c08301846106a6565b98975050505050505050565b6000606082019050610cfc60008301866106a6565b610d0960208301856106a6565b8181036040830152610d1b81846109f5565b9050949350505050565b6000606082019050610d3a6000830186610b60565b610d476020830185610b9b565b610d5460408301846105d0565b949350505050565b600081519050610d6b81610890565b92915050565b60008060408385031215610d8857610d876106da565b5b6000610d9685828601610d5c565b9250506020610da785828601610d5c565b9150509250929050565b7f4f6e6c7920746865206f776e65722063616e2063616c6c20746869732066756e60008201527f6374696f6e000000000000000000000000000000000000000000000000000000602082015250565b6000610e0d602583610abd565b9150610e1882610db1565b604082019050919050565b60006020820190508181036000830152610e3c81610e00565b905091905056fea2646970667358221220f8323a5137572fb13350c5483d5c12b0c8d68037aafbe94170e95afe1058ea2764736f6c63430008190033",
          "opcodes": "PUSH1 0x80 PUSH1 0x40 MSTORE PUSH3 0xC3500 PUSH1 0x2 SSTORE CALLVALUE DUP1 ISZERO PUSH2 0x17 JUMPI PUSH1 0x0 DUP1 REVERT JUMPDEST POP PUSH1 0x40 MLOAD PUSH2 0xFD8 CODESIZE SUB DUP1 PUSH2 0xFD8 DUP4 CODECOPY DUP2 DUP2 ADD PUSH1 0x40 MSTORE DUP2 ADD SWAP1 PUSH2 0x39 SWAP2 SWAP1 PUSH2 0x123 JUMP JUMPDEST DUP1 PUSH1 0x0 DUP1 PUSH2 0x100 EXP DUP2 SLOAD DUP2 PUSH20 0xFFFFFFFFFFFFFFFFFFFFFFFFFFFFFFFFFFFFFFFF MUL NOT AND SWAP1 DUP4 PUSH20 0xFFFFFFFFFFFFFFFFFFFFFFFFFFFFFFFFFFFFFFFF AND MUL OR SWAP1 SSTORE POP CALLER PUSH1 0x1 PUSH1 0x0 PUSH2 0x100 EXP DUP2 SLOAD DUP2 PUSH20 0xFFFFFFFFFFFFFFFFFFFFFFFFFFFFFFFFFFFFFFFF MUL NOT AND SWAP1 DUP4 PUSH20 0xFFFFFFFFFFFFFFFFFFFFFFFFFFFFFFFFFFFFFFFF AND MUL OR SWAP1 SSTORE POP POP PUSH2 0x150 JUMP JUMPDEST PUSH1 0x0 DUP1 REVERT JUMPDEST PUSH1 0x0 PUSH20 0xFFFFFFFFFFFFFFFFFFFFFFFFFFFFFFFFFFFFFFFF DUP3 AND SWAP1 POP SWAP2 SWAP1 POP JUMP JUMPDEST PUSH1 0x0 PUSH2 0xF0 DUP3 PUSH2 0xC5 JUMP JUMPDEST SWAP1 POP SWAP2 SWAP1 POP JUMP JUMPDEST PUSH2 0x100 DUP2 PUSH2 0xE5 JUMP JUMPDEST DUP2 EQ PUSH2 0x10B JUMPI PUSH1 0x0 DUP1 REVERT JUMPDEST POP JUMP JUMPDEST PUSH1 0x0 DUP2 MLOAD SWAP1 POP PUSH2 0x11D DUP2 PUSH2 0xF7 JUMP JUMPDEST SWAP3 SWAP2 POP POP JUMP JUMPDEST PUSH1 0x0 PUSH1 0x20 DUP3 DUP5 SUB SLT ISZERO PUSH2 0x139 JUMPI PUSH2 0x138 PUSH2 0xC0 JUMP JUMPDEST JUMPDEST PUSH1 0x0 PUSH2 0x147 DUP5 DUP3 DUP6 ADD PUSH2 0x10E JUMP JUMPDEST SWAP2 POP POP SWAP3 SWAP2 POP POP JUMP JUMPDEST PUSH2 0xE79 DUP1 PUSH2 0x15F PUSH1 0x0 CODECOPY PUSH1 0x0 RETURN INVALID PUSH1 0x80 PUSH1 0x40 MSTORE PUSH1 0x4 CALLDATASIZE LT PUSH2 0x7B JUMPI PUSH1 0x0 CALLDATALOAD PUSH1 0xE0 SHR DUP1 PUSH4 0xCD92DCB8 GT PUSH2 0x4E JUMPI DUP1 PUSH4 0xCD92DCB8 EQ PUSH2 0x11D JUMPI DUP1 PUSH4 0xD07DE280 EQ PUSH2 0x139 JUMPI DUP1 PUSH4 0xEBDA77E0 EQ PUSH2 0x176 JUMPI DUP1 PUSH4 0xEE7D72B4 EQ PUSH2 0x1B3 JUMPI PUSH2 0x7B JUMP JUMPDEST DUP1 PUSH4 0x91D2788 EQ PUSH2 0x80 JUMPI DUP1 PUSH4 0x5BB60DC0 EQ PUSH2 0xAB JUMPI DUP1 PUSH4 0x8DA5CB5B EQ PUSH2 0xD6 JUMPI DUP1 PUSH4 0xBA025736 EQ PUSH2 0x101 JUMPI JUMPDEST PUSH1 0x0 DUP1 REVERT JUMPDEST CALLVALUE DUP1 ISZERO PUSH2 0x8C JUMPI PUSH1 0x0 DUP1 REVERT JUMPDEST POP PUSH2 0x95 PUSH2 0x1DC JUMP JUMPDEST PUSH1 0x40 MLOAD PUSH2 0xA2 SWAP2 SWAP1 PUSH2 0x5DF JUMP JUMPDEST PUSH1 0x40 MLOAD DUP1 SWAP2 SUB SWAP1 RETURN JUMPDEST CALLVALUE DUP1 ISZERO PUSH2 0xB7 JUMPI PUSH1 0x0 DUP1 REVERT JUMPDEST POP PUSH2 0xC0 PUSH2 0x1E2 JUMP JUMPDEST PUSH1 0x40 MLOAD PUSH2 0xCD SWAP2 SWAP1 PUSH2 0x679 JUMP JUMPDEST PUSH1 0x40 MLOAD DUP1 SWAP2 SUB SWAP1 RETURN JUMPDEST CALLVALUE DUP1 ISZERO PUSH2 0xE2 JUMPI PUSH1 0x0 DUP1 REVERT JUMPDEST POP PUSH2 0xEB PUSH2 0x206 JUMP JUMPDEST PUSH1 0x40 MLOAD PUSH2 0xF8 SWAP2 SWAP1 PUSH2 0x6B5 JUMP JUMPDEST PUSH1 0x40 MLOAD DUP1 SWAP2 SUB SWAP1 RETURN JUMPDEST PUSH2 0x11B PUSH1 0x4 DUP1 CALLDATASIZE SUB DUP2 ADD SWAP1 PUSH2 0x116 SWAP2 SWAP1 PUSH2 0x8BC JUMP JUMPDEST PUSH2 0x22C JUMP JUMPDEST STOP JUMPDEST PUSH2 0x137 PUSH1 0x4 DUP1 CALLDATASIZE SUB DUP2 ADD SWAP1 PUSH2 0x132 SWAP2 SWAP1 PUSH2 0x8BC JUMP JUMPDEST PUSH2 0x33D JUMP JUMPDEST STOP JUMPDEST CALLVALUE DUP1 ISZERO PUSH2 0x145 JUMPI PUSH1 0x0 DUP1 REVERT JUMPDEST POP PUSH2 0x160 PUSH1 0x4 DUP1 CALLDATASIZE SUB DUP2 ADD SWAP1 PUSH2 0x15B SWAP2 SWAP1 PUSH2 0x953 JUMP JUMPDEST PUSH2 0x452 JUMP JUMPDEST PUSH1 0x40 MLOAD PUSH2 0x16D SWAP2 SWAP1 PUSH2 0xA2E JUMP JUMPDEST PUSH1 0x40 MLOAD DUP1 SWAP2 SUB SWAP1 RETURN JUMPDEST CALLVALUE DUP1 ISZERO PUSH2 0x182 JUMPI PUSH1 0x0 DUP1 REVERT JUMPDEST POP PUSH2 0x19D PUSH1 0x4 DUP1 CALLDATASIZE SUB DUP2 ADD SWAP1 PUSH2 0x198 SWAP2 SWAP1 PUSH2 0xA50 JUMP JUMPDEST PUSH2 0x480 JUMP JUMPDEST PUSH1 0x40 MLOAD PUSH2 0x1AA SWAP2 SWAP1 PUSH2 0x5DF JUMP JUMPDEST PUSH1 0x40 MLOAD DUP1 SWAP2 SUB SWAP1 RETURN JUMPDEST CALLVALUE DUP1 ISZERO PUSH2 0x1BF JUMPI PUSH1 0x0 DUP1 REVERT JUMPDEST POP PUSH2 0x1DA PUSH1 0x4 DUP1 CALLDATASIZE SUB DUP2 ADD SWAP1 PUSH2 0x1D5 SWAP2 SWAP1 PUSH2 0xA90 JUMP JUMPDEST PUSH2 0x52C JUMP JUMPDEST STOP JUMPDEST PUSH1 0x2 SLOAD DUP2 JUMP JUMPDEST PUSH1 0x0 DUP1 SLOAD SWAP1 PUSH2 0x100 EXP SWAP1 DIV PUSH20 0xFFFFFFFFFFFFFFFFFFFFFFFFFFFFFFFFFFFFFFFF AND DUP2 JUMP JUMPDEST PUSH1 0x1 PUSH1 0x0 SWAP1 SLOAD SWAP1 PUSH2 0x100 EXP SWAP1 DIV PUSH20 0xFFFFFFFFFFFFFFFFFFFFFFFFFFFFFFFFFFFFFFFF AND DUP2 JUMP JUMPDEST PUSH1 0x2 SLOAD DUP2 GT ISZERO PUSH2 0x271 JUMPI PUSH1 0x40 MLOAD PUSH32 0x8C379A000000000000000000000000000000000000000000000000000000000 DUP2 MSTORE PUSH1 0x4 ADD PUSH2 0x268 SWAP1 PUSH2 0xB40 JUMP JUMPDEST PUSH1 0x40 MLOAD DUP1 SWAP2 SUB SWAP1 REVERT JUMPDEST PUSH1 0x0 PUSH2 0x27D DUP5 DUP5 PUSH2 0x452 JUMP JUMPDEST SWAP1 POP PUSH1 0x0 PUSH2 0x28B DUP8 DUP5 PUSH2 0x480 JUMP JUMPDEST SWAP1 POP PUSH1 0x0 DUP1 SLOAD SWAP1 PUSH2 0x100 EXP SWAP1 DIV PUSH20 0xFFFFFFFFFFFFFFFFFFFFFFFFFFFFFFFFFFFFFFFF AND PUSH20 0xFFFFFFFFFFFFFFFFFFFFFFFFFFFFFFFFFFFFFFFF AND PUSH4 0x8FECDD02 DUP3 DUP10 DUP10 DUP7 PUSH1 0x0 DUP10 PUSH1 0x40 MLOAD DUP8 PUSH4 0xFFFFFFFF AND PUSH1 0xE0 SHL DUP2 MSTORE PUSH1 0x4 ADD PUSH2 0x2F0 SWAP6 SWAP5 SWAP4 SWAP3 SWAP2 SWAP1 PUSH2 0xBAA JUMP JUMPDEST PUSH1 0x20 PUSH1 0x40 MLOAD DUP1 DUP4 SUB DUP2 DUP6 DUP9 GAS CALL ISZERO DUP1 ISZERO PUSH2 0x30E JUMPI RETURNDATASIZE PUSH1 0x0 DUP1 RETURNDATACOPY RETURNDATASIZE PUSH1 0x0 REVERT JUMPDEST POP POP POP POP POP PUSH1 0x40 MLOAD RETURNDATASIZE PUSH1 0x1F NOT PUSH1 0x1F DUP3 ADD AND DUP3 ADD DUP1 PUSH1 0x40 MSTORE POP DUP2 ADD SWAP1 PUSH2 0x333 SWAP2 SWAP1 PUSH2 0xC44 JUMP JUMPDEST POP POP POP POP POP POP POP POP JUMP JUMPDEST PUSH1 0x2 SLOAD DUP2 GT ISZERO PUSH2 0x382 JUMPI PUSH1 0x40 MLOAD PUSH32 0x8C379A000000000000000000000000000000000000000000000000000000000 DUP2 MSTORE PUSH1 0x4 ADD PUSH2 0x379 SWAP1 PUSH2 0xB40 JUMP JUMPDEST PUSH1 0x40 MLOAD DUP1 SWAP2 SUB SWAP1 REVERT JUMPDEST PUSH1 0x0 PUSH2 0x38E DUP5 DUP5 PUSH2 0x452 JUMP JUMPDEST SWAP1 POP PUSH1 0x0 PUSH2 0x39C DUP8 DUP5 PUSH2 0x480 JUMP JUMPDEST SWAP1 POP PUSH1 0x0 DUP1 SLOAD SWAP1 PUSH2 0x100 EXP SWAP1 DIV PUSH20 0xFFFFFFFFFFFFFFFFFFFFFFFFFFFFFFFFFFFFFFFF AND PUSH20 0xFFFFFFFFFFFFFFFFFFFFFFFFFFFFFFFFFFFFFFFF AND PUSH4 0x4B5CA6F4 DUP3 DUP10 DUP10 DUP7 PUSH1 0x0 DUP10 DUP15 CALLER PUSH1 0x40 MLOAD DUP10 PUSH4 0xFFFFFFFF AND PUSH1 0xE0 SHL DUP2 MSTORE PUSH1 0x4 ADD PUSH2 0x405 SWAP8 SWAP7 SWAP6 SWAP5 SWAP4 SWAP3 SWAP2 SWAP1 PUSH2 0xC71 JUMP JUMPDEST PUSH1 0x20 PUSH1 0x40 MLOAD DUP1 DUP4 SUB DUP2 DUP6 DUP9 GAS CALL ISZERO DUP1 ISZERO PUSH2 0x423 JUMPI RETURNDATASIZE PUSH1 0x0 DUP1 RETURNDATACOPY RETURNDATASIZE PUSH1 0x0 REVERT JUMPDEST POP POP POP POP POP PUSH1 0x40 MLOAD RETURNDATASIZE PUSH1 0x1F NOT PUSH1 0x1F DUP3 ADD AND DUP3 ADD DUP1 PUSH1 0x40 MSTORE POP DUP2 ADD SWAP1 PUSH2 0x448 SWAP2 SWAP1 PUSH2 0xC44 JUMP JUMPDEST POP POP POP POP POP POP POP POP JUMP JUMPDEST PUSH1 0x60 DUP3 CALLER DUP4 PUSH1 0x40 MLOAD PUSH1 0x20 ADD PUSH2 0x469 SWAP4 SWAP3 SWAP2 SWAP1 PUSH2 0xCE7 JUMP JUMPDEST PUSH1 0x40 MLOAD PUSH1 0x20 DUP2 DUP4 SUB SUB DUP2 MSTORE SWAP1 PUSH1 0x40 MSTORE SWAP1 POP SWAP3 SWAP2 POP POP JUMP JUMPDEST PUSH1 0x0 DUP1 PUSH1 0x0 SWAP1 SLOAD SWAP1 PUSH2 0x100 EXP SWAP1 DIV PUSH20 0xFFFFFFFFFFFFFFFFFFFFFFFFFFFFFFFFFFFFFFFF AND PUSH20 0xFFFFFFFFFFFFFFFFFFFFFFFFFFFFFFFFFFFFFFFF AND PUSH4 0xC23EE3C3 DUP5 PUSH1 0x0 DUP6 PUSH1 0x40 MLOAD DUP5 PUSH4 0xFFFFFFFF AND PUSH1 0xE0 SHL DUP2 MSTORE PUSH1 0x4 ADD PUSH2 0x4E1 SWAP4 SWAP3 SWAP2 SWAP1 PUSH2 0xD25 JUMP JUMPDEST PUSH1 0x40 DUP1 MLOAD DUP1 DUP4 SUB DUP2 DUP7 GAS STATICCALL ISZERO DUP1 ISZERO PUSH2 0x4FD JUMPI RETURNDATASIZE PUSH1 0x0 DUP1 RETURNDATACOPY RETURNDATASIZE PUSH1 0x0 REVERT JUMPDEST POP POP POP POP PUSH1 0x40 MLOAD RETURNDATASIZE PUSH1 0x1F NOT PUSH1 0x1F DUP3 ADD AND DUP3 ADD DUP1 PUSH1 0x40 MSTORE POP DUP2 ADD SWAP1 PUSH2 0x521 SWAP2 SWAP1 PUSH2 0xD71 JUMP JUMPDEST POP DUP1 SWAP2 POP POP SWAP3 SWAP2 POP POP JUMP JUMPDEST PUSH1 0x1 PUSH1 0x0 SWAP1 SLOAD SWAP1 PUSH2 0x100 EXP SWAP1 DIV PUSH20 0xFFFFFFFFFFFFFFFFFFFFFFFFFFFFFFFFFFFFFFFF AND PUSH20 0xFFFFFFFFFFFFFFFFFFFFFFFFFFFFFFFFFFFFFFFF AND CALLER PUSH20 0xFFFFFFFFFFFFFFFFFFFFFFFFFFFFFFFFFFFFFFFF AND EQ PUSH2 0x5BC JUMPI PUSH1 0x40 MLOAD PUSH32 0x8C379A000000000000000000000000000000000000000000000000000000000 DUP2 MSTORE PUSH1 0x4 ADD PUSH2 0x5B3 SWAP1 PUSH2 0xE23 JUMP JUMPDEST PUSH1 0x40 MLOAD DUP1 SWAP2 SUB SWAP1 REVERT JUMPDEST DUP1 PUSH1 0x2 DUP2 SWAP1 SSTORE POP POP JUMP JUMPDEST PUSH1 0x0 DUP2 SWAP1 POP SWAP2 SWAP1 POP JUMP JUMPDEST PUSH2 0x5D9 DUP2 PUSH2 0x5C6 JUMP JUMPDEST DUP3 MSTORE POP POP JUMP JUMPDEST PUSH1 0x0 PUSH1 0x20 DUP3 ADD SWAP1 POP PUSH2 0x5F4 PUSH1 0x0 DUP4 ADD DUP5 PUSH2 0x5D0 JUMP JUMPDEST SWAP3 SWAP2 POP POP JUMP JUMPDEST PUSH1 0x0 PUSH20 0xFFFFFFFFFFFFFFFFFFFFFFFFFFFFFFFFFFFFFFFF DUP3 AND SWAP1 POP SWAP2 SWAP1 POP JUMP JUMPDEST PUSH1 0x0 DUP2 SWAP1 POP SWAP2 SWAP1 POP JUMP JUMPDEST PUSH1 0x0 PUSH2 0x63F PUSH2 0x63A PUSH2 0x635 DUP5 PUSH2 0x5FA JUMP JUMPDEST PUSH2 0x61A JUMP JUMPDEST PUSH2 0x5FA JUMP JUMPDEST SWAP1 POP SWAP2 SWAP1 POP JUMP JUMPDEST PUSH1 0x0 PUSH2 0x651 DUP3 PUSH2 0x624 JUMP JUMPDEST SWAP1 POP SWAP2 SWAP1 POP JUMP JUMPDEST PUSH1 0x0 PUSH2 0x663 DUP3 PUSH2 0x646 JUMP JUMPDEST SWAP1 POP SWAP2 SWAP1 POP JUMP JUMPDEST PUSH2 0x673 DUP2 PUSH2 0x658 JUMP JUMPDEST DUP3 MSTORE POP POP JUMP JUMPDEST PUSH1 0x0 PUSH1 0x20 DUP3 ADD SWAP1 POP PUSH2 0x68E PUSH1 0x0 DUP4 ADD DUP5 PUSH2 0x66A JUMP JUMPDEST SWAP3 SWAP2 POP POP JUMP JUMPDEST PUSH1 0x0 PUSH2 0x69F DUP3 PUSH2 0x5FA JUMP JUMPDEST SWAP1 POP SWAP2 SWAP1 POP JUMP JUMPDEST PUSH2 0x6AF DUP2 PUSH2 0x694 JUMP JUMPDEST DUP3 MSTORE POP POP JUMP JUMPDEST PUSH1 0x0 PUSH1 0x20 DUP3 ADD SWAP1 POP PUSH2 0x6CA PUSH1 0x0 DUP4 ADD DUP5 PUSH2 0x6A6 JUMP JUMPDEST SWAP3 SWAP2 POP POP JUMP JUMPDEST PUSH1 0x0 PUSH1 0x40 MLOAD SWAP1 POP SWAP1 JUMP JUMPDEST PUSH1 0x0 DUP1 REVERT JUMPDEST PUSH1 0x0 DUP1 REVERT JUMPDEST PUSH1 0x0 PUSH2 0xFFFF DUP3 AND SWAP1 POP SWAP2 SWAP1 POP JUMP JUMPDEST PUSH2 0x6FB DUP2 PUSH2 0x6E4 JUMP JUMPDEST DUP2 EQ PUSH2 0x706 JUMPI PUSH1 0x0 DUP1 REVERT JUMPDEST POP JUMP JUMPDEST PUSH1 0x0 DUP2 CALLDATALOAD SWAP1 POP PUSH2 0x718 DUP2 PUSH2 0x6F2 JUMP JUMPDEST SWAP3 SWAP2 POP POP JUMP JUMPDEST PUSH2 0x727 DUP2 PUSH2 0x694 JUMP JUMPDEST DUP2 EQ PUSH2 0x732 JUMPI PUSH1 0x0 DUP1 REVERT JUMPDEST POP JUMP JUMPDEST PUSH1 0x0 DUP2 CALLDATALOAD SWAP1 POP PUSH2 0x744 DUP2 PUSH2 0x71E JUMP JUMPDEST SWAP3 SWAP2 POP POP JUMP JUMPDEST PUSH1 0x0 DUP1 REVERT JUMPDEST PUSH1 0x0 DUP1 REVERT JUMPDEST PUSH1 0x0 PUSH1 0x1F NOT PUSH1 0x1F DUP4 ADD AND SWAP1 POP SWAP2 SWAP1 POP JUMP JUMPDEST PUSH32 0x4E487B7100000000000000000000000000000000000000000000000000000000 PUSH1 0x0 MSTORE PUSH1 0x41 PUSH1 0x4 MSTORE PUSH1 0x24 PUSH1 0x0 REVERT JUMPDEST PUSH2 0x79D DUP3 PUSH2 0x754 JUMP JUMPDEST DUP2 ADD DUP2 DUP2 LT PUSH8 0xFFFFFFFFFFFFFFFF DUP3 GT OR ISZERO PUSH2 0x7BC JUMPI PUSH2 0x7BB PUSH2 0x765 JUMP JUMPDEST JUMPDEST DUP1 PUSH1 0x40 MSTORE POP POP POP JUMP JUMPDEST PUSH1 0x0 PUSH2 0x7CF PUSH2 0x6D0 JUMP JUMPDEST SWAP1 POP PUSH2 0x7DB DUP3 DUP3 PUSH2 0x794 JUMP JUMPDEST SWAP2 SWAP1 POP JUMP JUMPDEST PUSH1 0x0 PUSH8 0xFFFFFFFFFFFFFFFF DUP3 GT ISZERO PUSH2 0x7FB JUMPI PUSH2 0x7FA PUSH2 0x765 JUMP JUMPDEST JUMPDEST PUSH2 0x804 DUP3 PUSH2 0x754 JUMP JUMPDEST SWAP1 POP PUSH1 0x20 DUP2 ADD SWAP1 POP SWAP2 SWAP1 POP JUMP JUMPDEST DUP3 DUP2 DUP4 CALLDATACOPY PUSH1 0x0 DUP4 DUP4 ADD MSTORE POP POP POP JUMP JUMPDEST PUSH1 0x0 PUSH2 0x833 PUSH2 0x82E DUP5 PUSH2 0x7E0 JUMP JUMPDEST PUSH2 0x7C5 JUMP JUMPDEST SWAP1 POP DUP3 DUP2 MSTORE PUSH1 0x20 DUP2 ADD DUP5 DUP5 DUP5 ADD GT ISZERO PUSH2 0x84F JUMPI PUSH2 0x84E PUSH2 0x74F JUMP JUMPDEST JUMPDEST PUSH2 0x85A DUP5 DUP3 DUP6 PUSH2 0x811 JUMP JUMPDEST POP SWAP4 SWAP3 POP POP POP JUMP JUMPDEST PUSH1 0x0 DUP3 PUSH1 0x1F DUP4 ADD SLT PUSH2 0x877 JUMPI PUSH2 0x876 PUSH2 0x74A JUMP JUMPDEST JUMPDEST DUP2 CALLDATALOAD PUSH2 0x887 DUP5 DUP3 PUSH1 0x20 DUP7 ADD PUSH2 0x820 JUMP JUMPDEST SWAP2 POP POP SWAP3 SWAP2 POP POP JUMP JUMPDEST PUSH2 0x899 DUP2 PUSH2 0x5C6 JUMP JUMPDEST DUP2 EQ PUSH2 0x8A4 JUMPI PUSH1 0x0 DUP1 REVERT JUMPDEST POP JUMP JUMPDEST PUSH1 0x0 DUP2 CALLDATALOAD SWAP1 POP PUSH2 0x8B6 DUP2 PUSH2 0x890 JUMP JUMPDEST SWAP3 SWAP2 POP POP JUMP JUMPDEST PUSH1 0x0 DUP1 PUSH1 0x0 DUP1 PUSH1 0x0 PUSH1 0xA0 DUP7 DUP9 SUB SLT ISZERO PUSH2 0x8D8 JUMPI PUSH2 0x8D7 PUSH2 0x6DA JUMP JUMPDEST JUMPDEST PUSH1 0x0 PUSH2 0x8E6 DUP9 DUP3 DUP10 ADD PUSH2 0x709 JUMP JUMPDEST SWAP6 POP POP PUSH1 0x20 PUSH2 0x8F7 DUP9 DUP3 DUP10 ADD PUSH2 0x735 JUMP JUMPDEST SWAP5 POP POP PUSH1 0x40 PUSH2 0x908 DUP9 DUP3 DUP10 ADD PUSH2 0x735 JUMP JUMPDEST SWAP4 POP POP PUSH1 0x60 DUP7 ADD CALLDATALOAD PUSH8 0xFFFFFFFFFFFFFFFF DUP2 GT ISZERO PUSH2 0x929 JUMPI PUSH2 0x928 PUSH2 0x6DF JUMP JUMPDEST JUMPDEST PUSH2 0x935 DUP9 DUP3 DUP10 ADD PUSH2 0x862 JUMP JUMPDEST SWAP3 POP POP PUSH1 0x80 PUSH2 0x946 DUP9 DUP3 DUP10 ADD PUSH2 0x8A7 JUMP JUMPDEST SWAP2 POP POP SWAP3 SWAP6 POP SWAP3 SWAP6 SWAP1 SWAP4 POP JUMP JUMPDEST PUSH1 0x0 DUP1 PUSH1 0x40 DUP4 DUP6 SUB SLT ISZERO PUSH2 0x96A JUMPI PUSH2 0x969 PUSH2 0x6DA JUMP JUMPDEST JUMPDEST PUSH1 0x0 PUSH2 0x978 DUP6 DUP3 DUP7 ADD PUSH2 0x735 JUMP JUMPDEST SWAP3 POP POP PUSH1 0x20 DUP4 ADD CALLDATALOAD PUSH8 0xFFFFFFFFFFFFFFFF DUP2 GT ISZERO PUSH2 0x999 JUMPI PUSH2 0x998 PUSH2 0x6DF JUMP JUMPDEST JUMPDEST PUSH2 0x9A5 DUP6 DUP3 DUP7 ADD PUSH2 0x862 JUMP JUMPDEST SWAP2 POP POP SWAP3 POP SWAP3 SWAP1 POP JUMP JUMPDEST PUSH1 0x0 DUP2 MLOAD SWAP1 POP SWAP2 SWAP1 POP JUMP JUMPDEST PUSH1 0x0 DUP3 DUP3 MSTORE PUSH1 0x20 DUP3 ADD SWAP1 POP SWAP3 SWAP2 POP POP JUMP JUMPDEST PUSH1 0x0 JUMPDEST DUP4 DUP2 LT ISZERO PUSH2 0x9E9 JUMPI DUP1 DUP3 ADD MLOAD DUP2 DUP5 ADD MSTORE PUSH1 0x20 DUP2 ADD SWAP1 POP PUSH2 0x9CE JUMP JUMPDEST PUSH1 0x0 DUP5 DUP5 ADD MSTORE POP POP POP POP JUMP JUMPDEST PUSH1 0x0 PUSH2 0xA00 DUP3 PUSH2 0x9AF JUMP JUMPDEST PUSH2 0xA0A DUP2 DUP6 PUSH2 0x9BA JUMP JUMPDEST SWAP4 POP PUSH2 0xA1A DUP2 DUP6 PUSH1 0x20 DUP7 ADD PUSH2 0x9CB JUMP JUMPDEST PUSH2 0xA23 DUP2 PUSH2 0x754 JUMP JUMPDEST DUP5 ADD SWAP2 POP POP SWAP3 SWAP2 POP POP JUMP JUMPDEST PUSH1 0x0 PUSH1 0x20 DUP3 ADD SWAP1 POP DUP2 DUP2 SUB PUSH1 0x0 DUP4 ADD MSTORE PUSH2 0xA48 DUP2 DUP5 PUSH2 0x9F5 JUMP JUMPDEST SWAP1 POP SWAP3 SWAP2 POP POP JUMP JUMPDEST PUSH1 0x0 DUP1 PUSH1 0x40 DUP4 DUP6 SUB SLT ISZERO PUSH2 0xA67 JUMPI PUSH2 0xA66 PUSH2 0x6DA JUMP JUMPDEST JUMPDEST PUSH1 0x0 PUSH2 0xA75 DUP6 DUP3 DUP7 ADD PUSH2 0x709 JUMP JUMPDEST SWAP3 POP POP PUSH1 0x20 PUSH2 0xA86 DUP6 DUP3 DUP7 ADD PUSH2 0x8A7 JUMP JUMPDEST SWAP2 POP POP SWAP3 POP SWAP3 SWAP1 POP JUMP JUMPDEST PUSH1 0x0 PUSH1 0x20 DUP3 DUP5 SUB SLT ISZERO PUSH2 0xAA6 JUMPI PUSH2 0xAA5 PUSH2 0x6DA JUMP JUMPDEST JUMPDEST PUSH1 0x0 PUSH2 0xAB4 DUP5 DUP3 DUP6 ADD PUSH2 0x8A7 JUMP JUMPDEST SWAP2 POP POP SWAP3 SWAP2 POP POP JUMP JUMPDEST PUSH1 0x0 DUP3 DUP3 MSTORE PUSH1 0x20 DUP3 ADD SWAP1 POP SWAP3 SWAP2 POP POP JUMP JUMPDEST PUSH32 0x476173206C696D6974206578636565647320746865206D6178696D756D206C69 PUSH1 0x0 DUP3 ADD MSTORE PUSH32 0x6D69740000000000000000000000000000000000000000000000000000000000 PUSH1 0x20 DUP3 ADD MSTORE POP JUMP JUMPDEST PUSH1 0x0 PUSH2 0xB2A PUSH1 0x23 DUP4 PUSH2 0xABD JUMP JUMPDEST SWAP2 POP PUSH2 0xB35 DUP3 PUSH2 0xACE JUMP JUMPDEST PUSH1 0x40 DUP3 ADD SWAP1 POP SWAP2 SWAP1 POP JUMP JUMPDEST PUSH1 0x0 PUSH1 0x20 DUP3 ADD SWAP1 POP DUP2 DUP2 SUB PUSH1 0x0 DUP4 ADD MSTORE PUSH2 0xB59 DUP2 PUSH2 0xB1D JUMP JUMPDEST SWAP1 POP SWAP2 SWAP1 POP JUMP JUMPDEST PUSH2 0xB69 DUP2 PUSH2 0x6E4 JUMP JUMPDEST DUP3 MSTORE POP POP JUMP JUMPDEST PUSH1 0x0 DUP2 SWAP1 POP SWAP2 SWAP1 POP JUMP JUMPDEST PUSH1 0x0 PUSH2 0xB94 PUSH2 0xB8F PUSH2 0xB8A DUP5 PUSH2 0xB6F JUMP JUMPDEST PUSH2 0x61A JUMP JUMPDEST PUSH2 0x5C6 JUMP JUMPDEST SWAP1 POP SWAP2 SWAP1 POP JUMP JUMPDEST PUSH2 0xBA4 DUP2 PUSH2 0xB79 JUMP JUMPDEST DUP3 MSTORE POP POP JUMP JUMPDEST PUSH1 0x0 PUSH1 0xA0 DUP3 ADD SWAP1 POP PUSH2 0xBBF PUSH1 0x0 DUP4 ADD DUP9 PUSH2 0xB60 JUMP JUMPDEST PUSH2 0xBCC PUSH1 0x20 DUP4 ADD DUP8 PUSH2 0x6A6 JUMP JUMPDEST DUP2 DUP2 SUB PUSH1 0x40 DUP4 ADD MSTORE PUSH2 0xBDE DUP2 DUP7 PUSH2 0x9F5 JUMP JUMPDEST SWAP1 POP PUSH2 0xBED PUSH1 0x60 DUP4 ADD DUP6 PUSH2 0xB9B JUMP JUMPDEST PUSH2 0xBFA PUSH1 0x80 DUP4 ADD DUP5 PUSH2 0x5D0 JUMP JUMPDEST SWAP7 SWAP6 POP POP POP POP POP POP JUMP JUMPDEST PUSH1 0x0 PUSH8 0xFFFFFFFFFFFFFFFF DUP3 AND SWAP1 POP SWAP2 SWAP1 POP JUMP JUMPDEST PUSH2 0xC21 DUP2 PUSH2 0xC04 JUMP JUMPDEST DUP2 EQ PUSH2 0xC2C JUMPI PUSH1 0x0 DUP1 REVERT JUMPDEST POP JUMP JUMPDEST PUSH1 0x0 DUP2 MLOAD SWAP1 POP PUSH2 0xC3E DUP2 PUSH2 0xC18 JUMP JUMPDEST SWAP3 SWAP2 POP POP JUMP JUMPDEST PUSH1 0x0 PUSH1 0x20 DUP3 DUP5 SUB SLT ISZERO PUSH2 0xC5A JUMPI PUSH2 0xC59 PUSH2 0x6DA JUMP JUMPDEST JUMPDEST PUSH1 0x0 PUSH2 0xC68 DUP5 DUP3 DUP6 ADD PUSH2 0xC2F JUMP JUMPDEST SWAP2 POP POP SWAP3 SWAP2 POP POP JUMP JUMPDEST PUSH1 0x0 PUSH1 0xE0 DUP3 ADD SWAP1 POP PUSH2 0xC86 PUSH1 0x0 DUP4 ADD DUP11 PUSH2 0xB60 JUMP JUMPDEST PUSH2 0xC93 PUSH1 0x20 DUP4 ADD DUP10 PUSH2 0x6A6 JUMP JUMPDEST DUP2 DUP2 SUB PUSH1 0x40 DUP4 ADD MSTORE PUSH2 0xCA5 DUP2 DUP9 PUSH2 0x9F5 JUMP JUMPDEST SWAP1 POP PUSH2 0xCB4 PUSH1 0x60 DUP4 ADD DUP8 PUSH2 0xB9B JUMP JUMPDEST PUSH2 0xCC1 PUSH1 0x80 DUP4 ADD DUP7 PUSH2 0x5D0 JUMP JUMPDEST PUSH2 0xCCE PUSH1 0xA0 DUP4 ADD DUP6 PUSH2 0xB60 JUMP JUMPDEST PUSH2 0xCDB PUSH1 0xC0 DUP4 ADD DUP5 PUSH2 0x6A6 JUMP JUMPDEST SWAP9 SWAP8 POP POP POP POP POP POP POP POP JUMP JUMPDEST PUSH1 0x0 PUSH1 0x60 DUP3 ADD SWAP1 POP PUSH2 0xCFC PUSH1 0x0 DUP4 ADD DUP7 PUSH2 0x6A6 JUMP JUMPDEST PUSH2 0xD09 PUSH1 0x20 DUP4 ADD DUP6 PUSH2 0x6A6 JUMP JUMPDEST DUP2 DUP2 SUB PUSH1 0x40 DUP4 ADD MSTORE PUSH2 0xD1B DUP2 DUP5 PUSH2 0x9F5 JUMP JUMPDEST SWAP1 POP SWAP5 SWAP4 POP POP POP POP JUMP JUMPDEST PUSH1 0x0 PUSH1 0x60 DUP3 ADD SWAP1 POP PUSH2 0xD3A PUSH1 0x0 DUP4 ADD DUP7 PUSH2 0xB60 JUMP JUMPDEST PUSH2 0xD47 PUSH1 0x20 DUP4 ADD DUP6 PUSH2 0xB9B JUMP JUMPDEST PUSH2 0xD54 PUSH1 0x40 DUP4 ADD DUP5 PUSH2 0x5D0 JUMP JUMPDEST SWAP5 SWAP4 POP POP POP POP JUMP JUMPDEST PUSH1 0x0 DUP2 MLOAD SWAP1 POP PUSH2 0xD6B DUP2 PUSH2 0x890 JUMP JUMPDEST SWAP3 SWAP2 POP POP JUMP JUMPDEST PUSH1 0x0 DUP1 PUSH1 0x40 DUP4 DUP6 SUB SLT ISZERO PUSH2 0xD88 JUMPI PUSH2 0xD87 PUSH2 0x6DA JUMP JUMPDEST JUMPDEST PUSH1 0x0 PUSH2 0xD96 DUP6 DUP3 DUP7 ADD PUSH2 0xD5C JUMP JUMPDEST SWAP3 POP POP PUSH1 0x20 PUSH2 0xDA7 DUP6 DUP3 DUP7 ADD PUSH2 0xD5C JUMP JUMPDEST SWAP2 POP POP SWAP3 POP SWAP3 SWAP1 POP JUMP JUMPDEST PUSH32 0x4F6E6C7920746865206F776E65722063616E2063616C6C20746869732066756E PUSH1 0x0 DUP3 ADD MSTORE PUSH32 0x6374696F6E000000000000000000000000000000000000000000000000000000 PUSH1 0x20 DUP3 ADD MSTORE POP JUMP JUMPDEST PUSH1 0x0 PUSH2 0xE0D PUSH1 0x25 DUP4 PUSH2 0xABD JUMP JUMPDEST SWAP2 POP PUSH2 0xE18 DUP3 PUSH2 0xDB1 JUMP JUMPDEST PUSH1 0x40 DUP3 ADD SWAP1 POP SWAP2 SWAP1 POP JUMP JUMPDEST PUSH1 0x0 PUSH1 0x20 DUP3 ADD SWAP1 POP DUP2 DUP2 SUB PUSH1 0x0 DUP4 ADD MSTORE PUSH2 0xE3C DUP2 PUSH2 0xE00 JUMP JUMPDEST SWAP1 POP SWAP2 SWAP1 POP JUMP INVALID LOG2 PUSH5 0x6970667358 0x22 SLT KECCAK256 0xF8 ORIGIN GASPRICE MLOAD CALLDATACOPY JUMPI 0x2F 0xB1 CALLER POP 0xC5 BASEFEE RETURNDATASIZE TLOAD SLT 0xB0 0xC8 0xD6 DUP1 CALLDATACOPY 0xAA 0xFB 0xE9 COINBASE PUSH17 0xE95AFE1058EA2764736F6C634300081900 CALLER "
        },
        "methodIdentifiers": {
          "GAS_LIMIT()": "091d2788",
          "encodeMessage(address,bytes)": "d07de280",
          "owner()": "8da5cb5b",
          "quoteCrossChainCost(uint16,uint256)": "ebda77e0",
          "s_wormholeRelayer()": "5bb60dc0",
          "sendMessage(uint16,address,address,bytes,uint256)": "ba025736",
          "sendMessageWithRefund(uint16,address,address,bytes,uint256)": "cd92dcb8",
          "setGasLimit(uint256)": "ee7d72b4"
        }
      }
    }
  }
}