{"abi":[{"type":"constructor","inputs":[{"name":"_name","type":"string","internalType":"string"},{"name":"_symbol","type":"string","internalType":"string"}],"stateMutability":"nonpayable"},{"type":"function","name":"CLOCK_MODE","inputs":[],"outputs":[{"name":"","type":"string","internalType":"string"}],"stateMutability":"view"},{"type":"function","name":"DOMAIN_SEPARATOR","inputs":[],"outputs":[{"name":"","type":"bytes32","internalType":"bytes32"}],"stateMutability":"view"},{"type":"function","name":"MAX_SUPPLY","inputs":[],"outputs":[{"name":"","type":"uint256","internalType":"uint256"}],"stateMutability":"view"},{"type":"function","name":"allowance","inputs":[{"name":"owner","type":"address","internalType":"address"},{"name":"spender","type":"address","internalType":"address"}],"outputs":[{"name":"","type":"uint256","internalType":"uint256"}],"stateMutability":"view"},{"type":"function","name":"approve","inputs":[{"name":"spender","type":"address","internalType":"address"},{"name":"value","type":"uint256","internalType":"uint256"}],"outputs":[{"name":"","type":"bool","internalType":"bool"}],"stateMutability":"nonpayable"},{"type":"function","name":"balanceOf","inputs":[{"name":"account","type":"address","internalType":"address"}],"outputs":[{"name":"","type":"uint256","internalType":"uint256"}],"stateMutability":"view"},{"type":"function","name":"checkpoints","inputs":[{"name":"account","type":"address","internalType":"address"},{"name":"pos","type":"uint32","internalType":"uint32"}],"outputs":[{"name":"","type":"tuple","internalType":"struct Checkpoints.Checkpoint208","components":[{"name":"_key","type":"uint48","internalType":"uint48"},{"name":"_value","type":"uint208","internalType":"uint208"}]}],"stateMutability":"view"},{"type":"function","name":"clock","inputs":[],"outputs":[{"name":"","type":"uint48","internalType":"uint48"}],"stateMutability":"view"},{"type":"function","name":"decimals","inputs":[],"outputs":[{"name":"","type":"uint8","internalType":"uint8"}],"stateMutability":"view"},{"type":"function","name":"delegate","inputs":[{"name":"delegatee","type":"address","internalType":"address"}],"outputs":[],"stateMutability":"nonpayable"},{"type":"function","name":"delegateBySig","inputs":[{"name":"delegatee","type":"address","internalType":"address"},{"name":"nonce","type":"uint256","internalType":"uint256"},{"name":"expiry","type":"uint256","internalType":"uint256"},{"name":"v","type":"uint8","internalType":"uint8"},{"name":"r","type":"bytes32","internalType":"bytes32"},{"name":"s","type":"bytes32","internalType":"bytes32"}],"outputs":[],"stateMutability":"nonpayable"},{"type":"function","name":"delegates","inputs":[{"name":"account","type":"address","internalType":"address"}],"outputs":[{"name":"","type":"address","internalType":"address"}],"stateMutability":"view"},{"type":"function","name":"eip712Domain","inputs":[],"outputs":[{"name":"fields","type":"bytes1","internalType":"bytes1"},{"name":"name","type":"string","internalType":"string"},{"name":"version","type":"string","internalType":"string"},{"name":"chainId","type":"uint256","internalType":"uint256"},{"name":"verifyingContract","type":"address","internalType":"address"},{"name":"salt","type":"bytes32","internalType":"bytes32"},{"name":"extensions","type":"uint256[]","internalType":"uint256[]"}],"stateMutability":"view"},{"type":"function","name":"getPastTotalSupply","inputs":[{"name":"timepoint","type":"uint256","internalType":"uint256"}],"outputs":[{"name":"","type":"uint256","internalType":"uint256"}],"stateMutability":"view"},{"type":"function","name":"getPastVotes","inputs":[{"name":"account","type":"address","internalType":"address"},{"name":"timepoint","type":"uint256","internalType":"uint256"}],"outputs":[{"name":"","type":"uint256","internalType":"uint256"}],"stateMutability":"view"},{"type":"function","name":"getVotes","inputs":[{"name":"account","type":"address","internalType":"address"}],"outputs":[{"name":"","type":"uint256","internalType":"uint256"}],"stateMutability":"view"},{"type":"function","name":"name","inputs":[],"outputs":[{"name":"","type":"string","internalType":"string"}],"stateMutability":"view"},{"type":"function","name":"nonces","inputs":[{"name":"_owner","type":"address","internalType":"address"}],"outputs":[{"name":"","type":"uint256","internalType":"uint256"}],"stateMutability":"view"},{"type":"function","name":"numCheckpoints","inputs":[{"name":"account","type":"address","internalType":"address"}],"outputs":[{"name":"","type":"uint32","internalType":"uint32"}],"stateMutability":"view"},{"type":"function","name":"permit","inputs":[{"name":"owner","type":"address","internalType":"address"},{"name":"spender","type":"address","internalType":"address"},{"name":"value","type":"uint256","internalType":"uint256"},{"name":"deadline","type":"uint256","internalType":"uint256"},{"name":"v","type":"uint8","internalType":"uint8"},{"name":"r","type":"bytes32","internalType":"bytes32"},{"name":"s","type":"bytes32","internalType":"bytes32"}],"outputs":[],"stateMutability":"nonpayable"},{"type":"function","name":"symbol","inputs":[],"outputs":[{"name":"","type":"string","internalType":"string"}],"stateMutability":"view"},{"type":"function","name":"totalSupply","inputs":[],"outputs":[{"name":"","type":"uint256","internalType":"uint256"}],"stateMutability":"view"},{"type":"function","name":"transfer","inputs":[{"name":"to","type":"address","internalType":"address"},{"name":"value","type":"uint256","internalType":"uint256"}],"outputs":[{"name":"","type":"bool","internalType":"bool"}],"stateMutability":"nonpayable"},{"type":"function","name":"transferFrom","inputs":[{"name":"from","type":"address","internalType":"address"},{"name":"to","type":"address","internalType":"address"},{"name":"value","type":"uint256","internalType":"uint256"}],"outputs":[{"name":"","type":"bool","internalType":"bool"}],"stateMutability":"nonpayable"},{"type":"event","name":"Approval","inputs":[{"name":"owner","type":"address","indexed":true,"internalType":"address"},{"name":"spender","type":"address","indexed":true,"internalType":"address"},{"name":"value","type":"uint256","indexed":false,"internalType":"uint256"}],"anonymous":false},{"type":"event","name":"DelegateChanged","inputs":[{"name":"delegator","type":"address","indexed":true,"internalType":"address"},{"name":"fromDelegate","type":"address","indexed":true,"internalType":"address"},{"name":"toDelegate","type":"address","indexed":true,"internalType":"address"}],"anonymous":false},{"type":"event","name":"DelegateVotesChanged","inputs":[{"name":"delegate","type":"address","indexed":true,"internalType":"address"},{"name":"previousVotes","type":"uint256","indexed":false,"internalType":"uint256"},{"name":"newVotes","type":"uint256","indexed":false,"internalType":"uint256"}],"anonymous":false},{"type":"event","name":"EIP712DomainChanged","inputs":[],"anonymous":false},{"type":"event","name":"Transfer","inputs":[{"name":"from","type":"address","indexed":true,"internalType":"address"},{"name":"to","type":"address","indexed":true,"internalType":"address"},{"name":"value","type":"uint256","indexed":false,"internalType":"uint256"}],"anonymous":false},{"type":"error","name":"CheckpointUnorderedInsertion","inputs":[]},{"type":"error","name":"ECDSAInvalidSignature","inputs":[]},{"type":"error","name":"ECDSAInvalidSignatureLength","inputs":[{"name":"length","type":"uint256","internalType":"uint256"}]},{"type":"error","name":"ECDSAInvalidSignatureS","inputs":[{"name":"s","type":"bytes32","internalType":"bytes32"}]},{"type":"error","name":"ERC20ExceededSafeSupply","inputs":[{"name":"increasedSupply","type":"uint256","internalType":"uint256"},{"name":"cap","type":"uint256","internalType":"uint256"}]},{"type":"error","name":"ERC20InsufficientAllowance","inputs":[{"name":"spender","type":"address","internalType":"address"},{"name":"allowance","type":"uint256","internalType":"uint256"},{"name":"needed","type":"uint256","internalType":"uint256"}]},{"type":"error","name":"ERC20InsufficientBalance","inputs":[{"name":"sender","type":"address","internalType":"address"},{"name":"balance","type":"uint256","internalType":"uint256"},{"name":"needed","type":"uint256","internalType":"uint256"}]},{"type":"error","name":"ERC20InvalidApprover","inputs":[{"name":"approver","type":"address","internalType":"address"}]},{"type":"error","name":"ERC20InvalidReceiver","inputs":[{"name":"receiver","type":"address","internalType":"address"}]},{"type":"error","name":"ERC20InvalidSender","inputs":[{"name":"sender","type":"address","internalType":"address"}]},{"type":"error","name":"ERC20InvalidSpender","inputs":[{"name":"spender","type":"address","internalType":"address"}]},{"type":"error","name":"ERC2612ExpiredSignature","inputs":[{"name":"deadline","type":"uint256","internalType":"uint256"}]},{"type":"error","name":"ERC2612InvalidSigner","inputs":[{"name":"signer","type":"address","internalType":"address"},{"name":"owner","type":"address","internalType":"address"}]},{"type":"error","name":"ERC5805FutureLookup","inputs":[{"name":"timepoint","type":"uint256","internalType":"uint256"},{"name":"clock","type":"uint48","internalType":"uint48"}]},{"type":"error","name":"ERC6372InconsistentClock","inputs":[]},{"type":"error","name":"InvalidAccountNonce","inputs":[{"name":"account","type":"address","internalType":"address"},{"name":"currentNonce","type":"uint256","internalType":"uint256"}]},{"type":"error","name":"InvalidShortString","inputs":[]},{"type":"error","name":"SafeCastOverflowedUintDowncast","inputs":[{"name":"bits","type":"uint8","internalType":"uint8"},{"name":"value","type":"uint256","internalType":"uint256"}]},{"type":"error","name":"StringTooLong","inputs":[{"name":"str","type":"string","internalType":"string"}]},{"type":"error","name":"VotesExpiredSignature","inputs":[{"name":"expiry","type":"uint256","internalType":"uint256"}]}],"bytecode":{"object":"0x61016060405234801561001157600080fd5b5060405161229538038061229583398101604081905261003091610260565b6040805180820190915260018152603160f81b6020820152829081908184600361005a838261034e565b506004610067828261034e565b5061007791508390506005610125565b61012052610086816006610125565b61014052815160208084019190912060e052815190820120610100524660a05261011360e05161010051604080517f8b73c3c69bb8fe3d512ecc4cf759cc79239f7b179b0ffacaa9a75d522b39400f60208201529081019290925260608201524660808201523060a082015260009060c00160405160208183030381529060405280519060200120905090565b60805250503060c05250610464915050565b60006020835110156101415761013a83610158565b9050610152565b8161014c848261034e565b5060ff90505b92915050565b600080829050601f8151111561018c578260405163305a27a960e01b8152600401610183919061040d565b60405180910390fd5b805161019782610440565b179392505050565b634e487b7160e01b600052604160045260246000fd5b60005b838110156101d05781810151838201526020016101b8565b50506000910152565b600082601f8301126101ea57600080fd5b81516001600160401b03808211156102045761020461019f565b604051601f8301601f19908116603f0116810190828211818310171561022c5761022c61019f565b8160405283815286602085880101111561024557600080fd5b6102568460208301602089016101b5565b9695505050505050565b6000806040838503121561027357600080fd5b82516001600160401b038082111561028a57600080fd5b610296868387016101d9565b935060208501519150808211156102ac57600080fd5b506102b9858286016101d9565b9150509250929050565b600181811c908216806102d757607f821691505b6020821081036102f757634e487b7160e01b600052602260045260246000fd5b50919050565b601f821115610349576000816000526020600020601f850160051c810160208610156103265750805b601f850160051c820191505b8181101561034557828155600101610332565b5050505b505050565b81516001600160401b038111156103675761036761019f565b61037b8161037584546102c3565b846102fd565b602080601f8311600181146103b057600084156103985750858301515b600019600386901b1c1916600185901b178555610345565b600085815260208120601f198616915b828110156103df578886015182559484019460019091019084016103c0565b50858210156103fd5787850151600019600388901b60f8161c191681555b5050505050600190811b01905550565b602081526000825180602084015261042c8160408501602087016101b5565b601f01601f19169190910160400192915050565b805160208083015191908110156102f75760001960209190910360031b1b16919050565b60805160a05160c05160e051610100516101205161014051611dd76104be6000396000610ce101526000610cb401526000610ad001526000610aa801526000610a0301526000610a2d01526000610a570152611dd76000f3fe608060405234801561001057600080fd5b50600436106101585760003560e01c806370a08231116100c35780639ab24eb01161007c5780639ab24eb01461031a578063a9059cbb1461032d578063c3cda52014610340578063d505accf14610353578063dd62ed3e14610366578063f1127ed81461039f57600080fd5b806370a08231146102895780637ecebe00146102b257806384b0196e146102c55780638e539e8c146102e057806391ddadf4146102f357806395d89b411461031257600080fd5b80633644e515116101155780633644e515146101e55780633a46b1a8146101ed5780634bf5d7e914610200578063587cde1e146102085780635c19a95c1461024c5780636fcfff451461026157600080fd5b806306fdde031461015d578063095ea7b31461017b57806318160ddd1461019e57806323b872dd146101b0578063313ce567146101c357806332cb6b0c146101d2575b600080fd5b6101656103de565b60405161017291906119d8565b60405180910390f35b61018e610189366004611a07565b610470565b6040519015158152602001610172565b6002545b604051908152602001610172565b61018e6101be366004611a31565b61048a565b60405160128152602001610172565b6101a26b204fce5e3e2502611000000081565b6101a26104ae565b6101a26101fb366004611a07565b6104bd565b610165610543565b610234610216366004611a6d565b6001600160a01b039081166000908152600860205260409020541690565b6040516001600160a01b039091168152602001610172565b61025f61025a366004611a6d565b6105ac565b005b61027461026f366004611a6d565b6105bb565b60405163ffffffff9091168152602001610172565b6101a2610297366004611a6d565b6001600160a01b031660009081526020819052604090205490565b6101a26102c0366004611a6d565b6105c6565b6102cd6105e4565b6040516101729796959493929190611a88565b6101a26102ee366004611b21565b61062a565b6102fb610694565b60405165ffffffffffff9091168152602001610172565b61016561069e565b6101a2610328366004611a6d565b6106ad565b61018e61033b366004611a07565b6106dd565b61025f61034e366004611b4b565b6106eb565b61025f610361366004611ba3565b6107a8565b6101a2610374366004611c0d565b6001600160a01b03918216600090815260016020908152604080832093909416825291909152205490565b6103b26103ad366004611c40565b6108e2565b60408051825165ffffffffffff1681526020928301516001600160d01b03169281019290925201610172565b6060600380546103ed90611c80565b80601f016020809104026020016040519081016040528092919081815260200182805461041990611c80565b80156104665780601f1061043b57610100808354040283529160200191610466565b820191906000526020600020905b81548152906001019060200180831161044957829003601f168201915b5050505050905090565b60003361047e818585610907565b60019150505b92915050565b600033610498858285610919565b6104a3858585610997565b506001949350505050565b60006104b86109f6565b905090565b6000806104c8610694565b90508065ffffffffffff16831061050857604051637669fc0f60e11b81526004810184905265ffffffffffff821660248201526044015b60405180910390fd5b61053261051484610b21565b6001600160a01b038616600090815260096020526040902090610b58565b6001600160d01b0316949350505050565b606061054d610c0e565b65ffffffffffff1661055d610694565b65ffffffffffff1614610583576040516301bfc1c560e61b815260040160405180910390fd5b5060408051808201909152600e81526d06d6f64653d74696d657374616d760941b602082015290565b336105b78183610c19565b5050565b600061048482610c8b565b6001600160a01b038116600090815260076020526040812054610484565b6000606080600080600060606105f8610cad565b610600610cda565b60408051600080825260208201909252600f60f81b9b939a50919850469750309650945092509050565b600080610635610694565b90508065ffffffffffff16831061067057604051637669fc0f60e11b81526004810184905265ffffffffffff821660248201526044016104ff565b61068461067c84610b21565b600a90610b58565b6001600160d01b03169392505050565b60006104b8610c0e565b6060600480546103ed90611c80565b6001600160a01b03811660009081526009602052604081206106ce90610d07565b6001600160d01b031692915050565b60003361047e818585610997565b8342111561070f57604051632341d78760e11b8152600481018590526024016104ff565b604080517fe48329057bfd03d55e49b547132e39cffd9c1820ad7b9d4c5307691425d15adf60208201526001600160a01b038816918101919091526060810186905260808101859052600090610789906107819060a00160405160208183030381529060405280519060200120610d40565b858585610d6d565b90506107958187610d9b565b61079f8188610c19565b50505050505050565b834211156107cc5760405163313c898160e11b8152600481018590526024016104ff565b60007f6e71edae12b1b97f4d1f60370fef10105fa2faae0126114a169c64845d6126c98888886108198c6001600160a01b0316600090815260076020526040902080546001810190915590565b6040805160208101969096526001600160a01b0394851690860152929091166060840152608083015260a082015260c0810186905260e001604051602081830303815290604052805190602001209050600061087482610d40565b9050600061088482878787610d6d565b9050896001600160a01b0316816001600160a01b0316146108cb576040516325c0072360e11b81526001600160a01b0380831660048301528b1660248201526044016104ff565b6108d68a8a8a610907565b50505050505050505050565b60408051808201909152600080825260208201526109008383610dee565b9392505050565b6109148383836001610e24565b505050565b6001600160a01b038381166000908152600160209081526040808320938616835292905220546000198114610991578181101561098257604051637dc7a0d960e11b81526001600160a01b038416600482015260248101829052604481018390526064016104ff565b61099184848484036000610e24565b50505050565b6001600160a01b0383166109c157604051634b637e8f60e11b8152600060048201526024016104ff565b6001600160a01b0382166109eb5760405163ec442f0560e01b8152600060048201526024016104ff565b610914838383610ef9565b6000306001600160a01b037f000000000000000000000000000000000000000000000000000000000000000016148015610a4f57507f000000000000000000000000000000000000000000000000000000000000000046145b15610a7957507f000000000000000000000000000000000000000000000000000000000000000090565b6104b8604080517f8b73c3c69bb8fe3d512ecc4cf759cc79239f7b179b0ffacaa9a75d522b39400f60208201527f0000000000000000000000000000000000000000000000000000000000000000918101919091527f000000000000000000000000000000000000000000000000000000000000000060608201524660808201523060a082015260009060c00160405160208183030381529060405280519060200120905090565b600065ffffffffffff821115610b54576040516306dfcc6560e41b815260306004820152602481018390526044016104ff565b5090565b815460009081816005811115610bb7576000610b7384610f04565b610b7d9085611cd0565b60008881526020902090915081015465ffffffffffff9081169087161015610ba757809150610bb5565b610bb2816001611ce3565b92505b505b6000610bc58787858561105d565b90508015610c0057610bea87610bdc600184611cd0565b600091825260209091200190565b54600160301b90046001600160d01b0316610c03565b60005b979650505050505050565b60006104b842610b21565b6001600160a01b0382811660008181526008602052604080822080548686166001600160a01b0319821681179092559151919094169392849290917f3134e8a2e6d97e929a7e54011ea5485d7d196dd5f0ba4d4ef95803e8e3fc257f9190a46109148183610c86866110bf565b6110dd565b6001600160a01b03811660009081526009602052604081205461048490611249565b60606104b87f0000000000000000000000000000000000000000000000000000000000000000600561127a565b60606104b87f0000000000000000000000000000000000000000000000000000000000000000600661127a565b80546000908015610d3757610d2183610bdc600184611cd0565b54600160301b90046001600160d01b0316610900565b60009392505050565b6000610484610d4d6109f6565b8360405161190160f01b8152600281019290925260228201526042902090565b600080600080610d7f88888888611325565b925092509250610d8f82826113f4565b50909695505050505050565b6001600160a01b0382166000908152600760205260409020805460018101909155818114610914576040516301d4b62360e61b81526001600160a01b0384166004820152602481018290526044016104ff565b60408051808201909152600080825260208201526001600160a01b038316600090815260096020526040902061090090836114ad565b6001600160a01b038416610e4e5760405163e602df0560e01b8152600060048201526024016104ff565b6001600160a01b038316610e7857604051634a1406b160e11b8152600060048201526024016104ff565b6001600160a01b038085166000908152600160209081526040808320938716835292905220829055801561099157826001600160a01b0316846001600160a01b03167f8c5be1e5ebec7d5bd14f71427d1e84f3dd0314c0f7b2291e5b200ac8c7c3b92584604051610eeb91815260200190565b60405180910390a350505050565b61091483838361151d565b600060018211610f12575090565b816001600160801b8210610f2b5760809190911c9060401b5b680100000000000000008210610f465760409190911c9060201b5b6401000000008210610f5d5760209190911c9060101b5b620100008210610f725760109190911c9060081b5b6101008210610f865760089190911c9060041b5b60108210610f995760049190911c9060021b5b60048210610fa55760011b5b600302600190811c90818581610fbd57610fbd611cf6565b048201901c90506001818581610fd557610fd5611cf6565b048201901c90506001818581610fed57610fed611cf6565b048201901c9050600181858161100557611005611cf6565b048201901c9050600181858161101d5761101d611cf6565b048201901c9050600181858161103557611035611cf6565b048201901c905061105481858161104e5761104e611cf6565b04821190565b90039392505050565b60005b818310156110b75760006110748484611589565b60008781526020902090915065ffffffffffff86169082015465ffffffffffff1611156110a3578092506110b1565b6110ae816001611ce3565b93505b50611060565b509392505050565b6001600160a01b038116600090815260208190526040812054610484565b816001600160a01b0316836001600160a01b0316141580156110ff5750600081115b15610914576001600160a01b038316156111a7576001600160a01b03831660009081526009602052604081208190611142906115a461113d866115b0565b6115e4565b6001600160d01b031691506001600160d01b03169150846001600160a01b03167fdec2bacdd2f05b59de34da9b523dff8be42e5e38e818c82fdb0bae774387a724838360405161119c929190918252602082015260400190565b60405180910390a250505b6001600160a01b03821615610914576001600160a01b038216600090815260096020526040812081906111e09061161d61113d866115b0565b6001600160d01b031691506001600160d01b03169150836001600160a01b03167fdec2bacdd2f05b59de34da9b523dff8be42e5e38e818c82fdb0bae774387a724838360405161123a929190918252602082015260400190565b60405180910390a25050505050565b600063ffffffff821115610b54576040516306dfcc6560e41b815260206004820152602481018390526044016104ff565b606060ff83146112945761128d83611629565b9050610484565b8180546112a090611c80565b80601f01602080910402602001604051908101604052809291908181526020018280546112cc90611c80565b80156113195780601f106112ee57610100808354040283529160200191611319565b820191906000526020600020905b8154815290600101906020018083116112fc57829003601f168201915b50505050509050610484565b600080807f7fffffffffffffffffffffffffffffff5d576e7357a4501ddfe92f46681b20a084111561136057506000915060039050826113ea565b604080516000808252602082018084528a905260ff891692820192909252606081018790526080810186905260019060a0016020604051602081039080840390855afa1580156113b4573d6000803e3d6000fd5b5050604051601f1901519150506001600160a01b0381166113e0575060009250600191508290506113ea565b9250600091508190505b9450945094915050565b600082600381111561140857611408611d0c565b03611411575050565b600182600381111561142557611425611d0c565b036114435760405163f645eedf60e01b815260040160405180910390fd5b600282600381111561145757611457611d0c565b036114785760405163fce698f760e01b8152600481018290526024016104ff565b600382600381111561148c5761148c611d0c565b036105b7576040516335e2f38360e21b8152600481018290526024016104ff565b6040805180820190915260008082526020820152826000018263ffffffff16815481106114dc576114dc611d22565b60009182526020918290206040805180820190915291015465ffffffffffff81168252600160301b90046001600160d01b0316918101919091529392505050565b611528838383611668565b6001600160a01b03831661157e57600061154160025490565b90506b204fce5e3e250261100000008082111561157b57604051630e58ae9360e11b815260048101839052602481018290526044016104ff565b50505b610914838383611792565b60006115986002848418611d38565b61090090848416611ce3565b60006109008284611d5a565b60006001600160d01b03821115610b54576040516306dfcc6560e41b815260d06004820152602481018390526044016104ff565b6000806116106115f2610694565b6116086115fe88610d07565b868863ffffffff16565b879190611808565b915091505b935093915050565b60006109008284611d81565b6060600061163683611816565b604080516020808252818301909252919250600091906020820181803683375050509182525060208101929092525090565b6001600160a01b0383166116935780600260008282546116889190611ce3565b909155506117059050565b6001600160a01b038316600090815260208190526040902054818110156116e65760405163391434e360e21b81526001600160a01b038516600482015260248101829052604481018390526064016104ff565b6001600160a01b03841660009081526020819052604090209082900390555b6001600160a01b03821661172157600280548290039055611740565b6001600160a01b03821660009081526020819052604090208054820190555b816001600160a01b0316836001600160a01b03167fddf252ad1be2c89b69c2b068fc378daa952ba7f163c4a11628f55a4df523b3ef8360405161178591815260200190565b60405180910390a3505050565b6001600160a01b0383166117b4576117b1600a61161d61113d846115b0565b50505b6001600160a01b0382166117d6576117d3600a6115a461113d846115b0565b50505b6001600160a01b03838116600090815260086020526040808220548584168352912054610914929182169116836110dd565b60008061161085858561183e565b600060ff8216601f81111561048457604051632cd44ac360e21b815260040160405180910390fd5b82546000908190801561193757600061185c87610bdc600185611cd0565b805490915065ffffffffffff80821691600160301b90046001600160d01b031690881682111561189f57604051632520601d60e01b815260040160405180910390fd5b8765ffffffffffff168265ffffffffffff16036118d857825465ffffffffffff16600160301b6001600160d01b03891602178355611929565b6040805180820190915265ffffffffffff808a1682526001600160d01b03808a1660208085019182528d54600181018f5560008f81529190912094519151909216600160301b029216919091179101555b945085935061161592505050565b50506040805180820190915265ffffffffffff80851682526001600160d01b0380851660208085019182528854600181018a5560008a815291822095519251909316600160301b029190931617920191909155905081611615565b6000815180845260005b818110156119b85760208185018101518683018201520161199c565b506000602082860101526020601f19601f83011685010191505092915050565b6020815260006109006020830184611992565b80356001600160a01b0381168114611a0257600080fd5b919050565b60008060408385031215611a1a57600080fd5b611a23836119eb565b946020939093013593505050565b600080600060608486031215611a4657600080fd5b611a4f846119eb565b9250611a5d602085016119eb565b9150604084013590509250925092565b600060208284031215611a7f57600080fd5b610900826119eb565b60ff60f81b881681526000602060e06020840152611aa960e084018a611992565b8381036040850152611abb818a611992565b606085018990526001600160a01b038816608086015260a0850187905284810360c08601528551808252602080880193509091019060005b81811015611b0f57835183529284019291840191600101611af3565b50909c9b505050505050505050505050565b600060208284031215611b3357600080fd5b5035919050565b803560ff81168114611a0257600080fd5b60008060008060008060c08789031215611b6457600080fd5b611b6d876119eb565b95506020870135945060408701359350611b8960608801611b3a565b92506080870135915060a087013590509295509295509295565b600080600080600080600060e0888a031215611bbe57600080fd5b611bc7886119eb565b9650611bd5602089016119eb565b95506040880135945060608801359350611bf160808901611b3a565b925060a0880135915060c0880135905092959891949750929550565b60008060408385031215611c2057600080fd5b611c29836119eb565b9150611c37602084016119eb565b90509250929050565b60008060408385031215611c5357600080fd5b611c5c836119eb565b9150602083013563ffffffff81168114611c7557600080fd5b809150509250929050565b600181811c90821680611c9457607f821691505b602082108103611cb457634e487b7160e01b600052602260045260246000fd5b50919050565b634e487b7160e01b600052601160045260246000fd5b8181038181111561048457610484611cba565b8082018082111561048457610484611cba565b634e487b7160e01b600052601260045260246000fd5b634e487b7160e01b600052602160045260246000fd5b634e487b7160e01b600052603260045260246000fd5b600082611d5557634e487b7160e01b600052601260045260246000fd5b500490565b6001600160d01b03828116828216039080821115611d7a57611d7a611cba565b5092915050565b6001600160d01b03818116838216019080821115611d7a57611d7a611cba56fea2646970667358221220057da9844533a3a886ac1b8464c63c5f1f49976aed2f0f04a123664d2ff0c76e64736f6c63430008190033","linkReferences":{}},"methodIdentifiers":{"CLOCK_MODE()":"4bf5d7e9","DOMAIN_SEPARATOR()":"3644e515","MAX_SUPPLY()":"32cb6b0c","allowance(address,address)":"dd62ed3e","approve(address,uint256)":"095ea7b3","balanceOf(address)":"70a08231","checkpoints(address,uint32)":"f1127ed8","clock()":"91ddadf4","decimals()":"313ce567","delegate(address)":"5c19a95c","delegateBySig(address,uint256,uint256,uint8,bytes32,bytes32)":"c3cda520","delegates(address)":"587cde1e","eip712Domain()":"84b0196e","getPastTotalSupply(uint256)":"8e539e8c","getPastVotes(address,uint256)":"3a46b1a8","getVotes(address)":"9ab24eb0","name()":"06fdde03","nonces(address)":"7ecebe00","numCheckpoints(address)":"6fcfff45","permit(address,address,uint256,uint256,uint8,bytes32,bytes32)":"d505accf","symbol()":"95d89b41","totalSupply()":"18160ddd","transfer(address,uint256)":"a9059cbb","transferFrom(address,address,uint256)":"23b872dd"},"id":11}