{
  "_format": "hh-sol-artifact-1",
  "contractName": "KOLFactoryPangolin",
  "sourceName": "contracts/kol-router/KOLFactoryPangolin.sol",
  "abi": [
    {
      "inputs": [
        {
          "internalType": "address",
          "name": "_pangolinRouter",
          "type": "address"
        },
        {
          "internalType": "address",
          "name": "_sherryFoundationAddress",
          "type": "address"
        },
        {
          "internalType": "address",
          "name": "_sherryTreasuryAddress",
          "type": "address"
        }
      ],
      "stateMutability": "nonpayable",
      "type": "constructor"
    },
    {
      "inputs": [
        {
          "internalType": "address",
          "name": "owner",
          "type": "address"
        }
      ],
      "name": "OwnableInvalidOwner",
      "type": "error"
    },
    {
      "inputs": [
        {
          "internalType": "address",
          "name": "account",
          "type": "address"
        }
      ],
      "name": "OwnableUnauthorizedAccount",
      "type": "error"
    },
    {
      "anonymous": false,
      "inputs": [
        {
          "indexed": false,
          "internalType": "uint16",
          "name": "kolFeeRate",
          "type": "uint16"
        },
        {
          "indexed": false,
          "internalType": "uint16",
          "name": "foundationFeeRate",
          "type": "uint16"
        },
        {
          "indexed": false,
          "internalType": "uint16",
          "name": "treasuryFeeRate",
          "type": "uint16"
        }
      ],
      "name": "FeeRatesUpdated",
      "type": "event"
    },
    {
      "anonymous": false,
      "inputs": [
        {
          "indexed": false,
          "internalType": "address",
          "name": "foundationAddress",
          "type": "address"
        }
      ],
      "name": "FoundationAddressUpdated",
      "type": "event"
    },
    {
      "anonymous": false,
      "inputs": [
        {
          "indexed": true,
          "internalType": "address",
          "name": "previousOwner",
          "type": "address"
        },
        {
          "indexed": true,
          "internalType": "address",
          "name": "newOwner",
          "type": "address"
        }
      ],
      "name": "OwnershipTransferred",
      "type": "event"
    },
    {
      "anonymous": false,
      "inputs": [
        {
          "indexed": false,
          "internalType": "address",
          "name": "routerAddress",
          "type": "address"
        }
      ],
      "name": "ProtocolAddressUpdated",
      "type": "event"
    },
    {
      "anonymous": false,
      "inputs": [
        {
          "indexed": true,
          "internalType": "address",
          "name": "kolAddress",
          "type": "address"
        },
        {
          "indexed": false,
          "internalType": "address",
          "name": "routerAddress",
          "type": "address"
        }
      ],
      "name": "RouterCreated",
      "type": "event"
    },
    {
      "anonymous": false,
      "inputs": [
        {
          "indexed": false,
          "internalType": "address",
          "name": "foundationAddress",
          "type": "address"
        }
      ],
      "name": "TreasuryAddressUpdated",
      "type": "event"
    },
    {
      "inputs": [],
      "name": "BASIS_POINTS",
      "outputs": [
        {
          "internalType": "uint16",
          "name": "",
          "type": "uint16"
        }
      ],
      "stateMutability": "view",
      "type": "function"
    },
    {
      "inputs": [
        {
          "internalType": "address",
          "name": "_kolAddress",
          "type": "address"
        }
      ],
      "name": "createKOLRouter",
      "outputs": [
        {
          "internalType": "address",
          "name": "",
          "type": "address"
        }
      ],
      "stateMutability": "nonpayable",
      "type": "function"
    },
    {
      "inputs": [
        {
          "internalType": "uint256",
          "name": "",
          "type": "uint256"
        }
      ],
      "name": "deployedRouters",
      "outputs": [
        {
          "internalType": "address",
          "name": "",
          "type": "address"
        }
      ],
      "stateMutability": "view",
      "type": "function"
    },
    {
      "inputs": [],
      "name": "foundationFeeRate",
      "outputs": [
        {
          "internalType": "uint16",
          "name": "",
          "type": "uint16"
        }
      ],
      "stateMutability": "view",
      "type": "function"
    },
    {
      "inputs": [],
      "name": "getBasisPoints",
      "outputs": [
        {
          "internalType": "uint16",
          "name": "",
          "type": "uint16"
        }
      ],
      "stateMutability": "pure",
      "type": "function"
    },
    {
      "inputs": [],
      "name": "getFoundationFeeRate",
      "outputs": [
        {
          "internalType": "uint16",
          "name": "",
          "type": "uint16"
        }
      ],
      "stateMutability": "view",
      "type": "function"
    },
    {
      "inputs": [],
      "name": "getKOLFeeRate",
      "outputs": [
        {
          "internalType": "uint16",
          "name": "",
          "type": "uint16"
        }
      ],
      "stateMutability": "view",
      "type": "function"
    },
    {
      "inputs": [
        {
          "internalType": "address",
          "name": "_kolAddress",
          "type": "address"
        },
        {
          "internalType": "uint256",
          "name": "_index",
          "type": "uint256"
        }
      ],
      "name": "getKOLRouter",
      "outputs": [
        {
          "internalType": "address",
          "name": "",
          "type": "address"
        }
      ],
      "stateMutability": "view",
      "type": "function"
    },
    {
      "inputs": [
        {
          "internalType": "address",
          "name": "_kolAddress",
          "type": "address"
        }
      ],
      "name": "getKOLRoutersCount",
      "outputs": [
        {
          "internalType": "uint256",
          "name": "",
          "type": "uint256"
        }
      ],
      "stateMutability": "view",
      "type": "function"
    },
    {
      "inputs": [],
      "name": "getTotalFeeRate",
      "outputs": [
        {
          "internalType": "uint16",
          "name": "",
          "type": "uint16"
        }
      ],
      "stateMutability": "view",
      "type": "function"
    },
    {
      "inputs": [],
      "name": "getTotalRouters",
      "outputs": [
        {
          "internalType": "uint256",
          "name": "",
          "type": "uint256"
        }
      ],
      "stateMutability": "view",
      "type": "function"
    },
    {
      "inputs": [],
      "name": "getTreasuryFeeRate",
      "outputs": [
        {
          "internalType": "uint16",
          "name": "",
          "type": "uint16"
        }
      ],
      "stateMutability": "view",
      "type": "function"
    },
    {
      "inputs": [],
      "name": "kolFeeRate",
      "outputs": [
        {
          "internalType": "uint16",
          "name": "",
          "type": "uint16"
        }
      ],
      "stateMutability": "view",
      "type": "function"
    },
    {
      "inputs": [],
      "name": "owner",
      "outputs": [
        {
          "internalType": "address",
          "name": "",
          "type": "address"
        }
      ],
      "stateMutability": "view",
      "type": "function"
    },
    {
      "inputs": [],
      "name": "protocolRouter",
      "outputs": [
        {
          "internalType": "address",
          "name": "",
          "type": "address"
        }
      ],
      "stateMutability": "view",
      "type": "function"
    },
    {
      "inputs": [],
      "name": "renounceOwnership",
      "outputs": [],
      "stateMutability": "nonpayable",
      "type": "function"
    },
    {
      "inputs": [
        {
          "internalType": "uint16",
          "name": "_kolFeeRate",
          "type": "uint16"
        },
        {
          "internalType": "uint16",
          "name": "_foundationFeeRate",
          "type": "uint16"
        },
        {
          "internalType": "uint16",
          "name": "_treasuryFeeRate",
          "type": "uint16"
        }
      ],
      "name": "setFeeRates",
      "outputs": [],
      "stateMutability": "nonpayable",
      "type": "function"
    },
    {
      "inputs": [
        {
          "internalType": "address",
          "name": "_protocolRouter",
          "type": "address"
        }
      ],
      "name": "setProtocolRouter",
      "outputs": [],
      "stateMutability": "nonpayable",
      "type": "function"
    },
    {
      "inputs": [
        {
          "internalType": "address",
          "name": "_sherryFoundationAddress",
          "type": "address"
        }
      ],
      "name": "setSherryFoundationAddress",
      "outputs": [],
      "stateMutability": "nonpayable",
      "type": "function"
    },
    {
      "inputs": [
        {
          "internalType": "address",
          "name": "_sherryTreasuryAddress",
          "type": "address"
        }
      ],
      "name": "setSherryTreasuryAddress",
      "outputs": [],
      "stateMutability": "nonpayable",
      "type": "function"
    },
    {
      "inputs": [],
      "name": "sherryFoundationAddress",
      "outputs": [
        {
          "internalType": "address",
          "name": "",
          "type": "address"
        }
      ],
      "stateMutability": "view",
      "type": "function"
    },
    {
      "inputs": [],
      "name": "sherryTreasuryAddress",
      "outputs": [
        {
          "internalType": "address",
          "name": "",
          "type": "address"
        }
      ],
      "stateMutability": "view",
      "type": "function"
    },
    {
      "inputs": [
        {
          "internalType": "address",
          "name": "newOwner",
          "type": "address"
        }
      ],
      "name": "transferOwnership",
      "outputs": [],
      "stateMutability": "nonpayable",
      "type": "function"
    },
    {
      "inputs": [],
      "name": "treasuryFeeRate",
      "outputs": [
        {
          "internalType": "uint16",
          "name": "",
          "type": "uint16"
        }
      ],
      "stateMutability": "view",
      "type": "function"
    }
  ],
  "bytecode": "0x60806040526005805465ffffffffffff60a01b1916640c800c801960a21b17905534801561002c57600080fd5b50604051612db9380380612db983398101604081905261004b91610233565b828282338061007557604051631e4fbdf760e01b8152600060048201526024015b60405180910390fd5b61007e816101c7565b506001600160a01b0383166100d55760405162461bcd60e51b815260206004820152601760248201527f496e76616c69642070726f746f636f6c20726f75746572000000000000000000604482015260640161006c565b6001600160a01b03821661012b5760405162461bcd60e51b815260206004820152601a60248201527f496e76616c696420666f756e646174696f6e2061646472657373000000000000604482015260640161006c565b6001600160a01b0381166101815760405162461bcd60e51b815260206004820152601860248201527f496e76616c696420747265617375727920616464726573730000000000000000604482015260640161006c565b600380546001600160a01b039485166001600160a01b03199182161790915560048054938516938216939093179092556005805491909316911617905550610276915050565b600080546001600160a01b038381166001600160a01b0319831681178455604051919092169283917f8be0079c531659141344cd1fd0a4f28419497f9722a3daafe3b4186f6b6457e09190a35050565b80516001600160a01b038116811461022e57600080fd5b919050565b60008060006060848603121561024857600080fd5b61025184610217565b925061025f60208501610217565b915061026d60408501610217565b90509250925092565b612b34806102856000396000f3fe608060405234801561001057600080fd5b50600436106101585760003560e01c80638da5cb5b116100c3578063dc09ff3c1161007c578063dc09ff3c146102c5578063debb4826146102da578063e1723236146102ed578063e1f1c4a714610316578063f2fde38b1461031f578063f5041d4b1461033257600080fd5b80638da5cb5b14610260578063958c79491461027157806397a18e5f14610284578063a014cd631461028c578063a96aec821461029f578063b8590ded146102b257600080fd5b80635d79d9ea116101155780635d79d9ea146101ed57806366601032146102005780636920defc14610228578063715018a61461023b578063780349e914610243578063894e47e11461025857600080fd5b806301318bd71461015d578063174f0f3c146101725780632a2884e0146101895780633c31fa62146101b457806340493890146101c75780635b457fa3146101da575b600080fd5b61017061016b3660046109ff565b610345565b005b6002545b6040519081526020015b60405180910390f35b61019c610197366004610a21565b6103f6565b6040516001600160a01b039091168152602001610180565b6101706101c2366004610a4c565b610420565b60035461019c906001600160a01b031681565b61019c6101e83660046109ff565b610599565b60045461019c906001600160a01b031681565b60055461021590600160c01b900461ffff1681565b60405161ffff9091168152602001610180565b600554600160b01b900461ffff16610215565b6101706106a5565b60055461021590600160b01b900461ffff1681565b6102156106b9565b6000546001600160a01b031661019c565b61017061027f3660046109ff565b6106f6565b612710610215565b600554600160a01b900461ffff16610215565b6101706102ad3660046109ff565b6107a2565b60055461019c906001600160a01b031681565b60055461021590600160a01b900461ffff1681565b61019c6102e8366004610a8f565b61084e565b6101766102fb3660046109ff565b6001600160a01b031660009081526001602052604090205490565b61021561271081565b61017061032d3660046109ff565b610896565b600554600160c01b900461ffff16610215565b61034d6108d4565b6001600160a01b0381166103a15760405162461bcd60e51b8152602060048201526016602482015275496e76616c696420726f75746572206164647265737360501b60448201526064015b60405180910390fd5b600380546001600160a01b0319166001600160a01b0383169081179091556040519081527f725168acf8fb2c310e106a05c2eed321da0de2fc4cf73dfe2594ca1d4795fd10906020015b60405180910390a150565b6002818154811061040657600080fd5b6000918252602090912001546001600160a01b0316905081565b6104286108d4565b612710816104368486610ab9565b6104409190610ab9565b61ffff1611156104925760405162461bcd60e51b815260206004820152601c60248201527f546f74616c206665652063616e6e6f74206578636565642031303025000000006044820152606401610398565b60008361ffff161180156104aa575060008261ffff16115b80156104ba575060008161ffff16115b6105065760405162461bcd60e51b815260206004820181905260248201527f466565207261746573206d7573742062652067726561746572207468616e20306044820152606401610398565b6005805463ffffffff60a01b1916600160a01b61ffff86811691820261ffff60b01b191692909217600160b01b8684169081029190911761ffff60c01b1916600160c01b93861693840217909355604080519182526020820193909352918201527f68c2357cd55d7c20e03059c904d4ee872226cc9e023f10ae955d94d8863810db9060600160405180910390a1505050565b60006001600160a01b0382166105e75760405162461bcd60e51b8152602060048201526013602482015272496e76616c6964204b4f4c206164647265737360681b6044820152606401610398565b60006105f283610901565b6001600160a01b038481166000818152600160208181526040808420805480850182559085528285200180549688166001600160a01b031997881681179091556002805494850181559094527f405787fa12a823e0f2b7631cc41b3ba8828b3321ca811111fa75cd3aa3bb5ace9092018054909516831790945551908152929350917fe957baec14239f50385ff25f23a9695e828ecf988a5af33b607cbd1b540bbebc910160405180910390a292915050565b6106ad6108d4565b6106b76000610986565b565b60055460009061ffff600160c01b82048116916106e791600160b01b8204811691600160a01b900416610ab9565b6106f19190610ab9565b905090565b6106fe6108d4565b6001600160a01b0381166107545760405162461bcd60e51b815260206004820152601860248201527f496e76616c6964207472656173757279206164647265737300000000000000006044820152606401610398565b600580546001600160a01b0319166001600160a01b0383169081179091556040519081527fb6a5e89655cf506139085f051af608195ed056f8dc550b180a1c38d401e2b6c4906020016103eb565b6107aa6108d4565b6001600160a01b0381166108005760405162461bcd60e51b815260206004820152601a60248201527f496e76616c696420666f756e646174696f6e20616464726573730000000000006044820152606401610398565b600480546001600160a01b0319166001600160a01b0383169081179091556040519081527fd451575e0d555b0fcd35add8eff1239d7486e3f4f256239a9af21ea316250e4b906020016103eb565b6001600160a01b038216600090815260016020526040812080548390811061087857610878610ae1565b6000918252602090912001546001600160a01b031690505b92915050565b61089e6108d4565b6001600160a01b0381166108c857604051631e4fbdf760e01b815260006004820152602401610398565b6108d181610986565b50565b6000546001600160a01b031633146106b75760405163118cdaa760e01b8152336004820152602401610398565b600354600454600554604051600093849386936001600160a01b039283169330939283169290911690610933906109d6565b6001600160a01b0395861681529385166020850152918416604084015283166060830152909116608082015260a001604051809103906000f08015801561097e573d6000803e3d6000fd5b509392505050565b600080546001600160a01b038381166001600160a01b0319831681178455604051919092169283917f8be0079c531659141344cd1fd0a4f28419497f9722a3daafe3b4186f6b6457e09190a35050565b61200780610af883390190565b80356001600160a01b03811681146109fa57600080fd5b919050565b600060208284031215610a1157600080fd5b610a1a826109e3565b9392505050565b600060208284031215610a3357600080fd5b5035919050565b803561ffff811681146109fa57600080fd5b600080600060608486031215610a6157600080fd5b610a6a84610a3a565b9250610a7860208501610a3a565b9150610a8660408501610a3a565b90509250925092565b60008060408385031215610aa257600080fd5b610aab836109e3565b946020939093013593505050565b61ffff818116838216019081111561089057634e487b7160e01b600052601160045260246000fd5b634e487b7160e01b600052603260045260246000fdfe608060405234801561001057600080fd5b5060405161200738038061200783398101604081905261002f91610265565b600160005584848484846001600160a01b0385166100945760405162461bcd60e51b815260206004820152601360248201527f496e76616c6964204b4f4c20616464726573730000000000000000000000000060448201526064015b60405180910390fd5b6001600160a01b0384166100df5760405162461bcd60e51b815260206004820152601260248201527124b73b30b634b2102222ac103937baba32b960711b604482015260640161008b565b6001600160a01b0383166101355760405162461bcd60e51b815260206004820152601760248201527f496e76616c696420666163746f72792061646472657373000000000000000000604482015260640161008b565b6001600160a01b03821661018b5760405162461bcd60e51b815260206004820152601a60248201527f496e76616c696420666f756e646174696f6e2061646472657373000000000000604482015260640161008b565b6001600160a01b0381166101e15760405162461bcd60e51b815260206004820152601860248201527f496e76616c696420747265617375727920616464726573730000000000000000604482015260640161008b565b600180546001600160a01b03199081166001600160a01b03978816179091556003805482169587169590951790945560028054851693861693909317909255600480548416918516919091179055600580549092169216919091179055506102ca9350505050565b80516001600160a01b038116811461026057600080fd5b919050565b600080600080600060a0868803121561027d57600080fd5b61028686610249565b945061029460208701610249565b93506102a260408701610249565b92506102b060608701610249565b91506102be60808701610249565b90509295509295909350565b611d2e806102d96000396000f3fe6080604052600436106100ec5760003560e01c80638803dbee1161008a578063bc1d802011610059578063bc1d80201461026a578063bdab6fc614610298578063c45a0155146102b8578063e3427143146102d857600080fd5b80638803dbee146102045780638a657e6714610224578063a2a1623d14610237578063b8590ded1461024a57600080fd5b806346cc4450116100c657806346cc4450146101825780635d79d9ea146101a4578063676528d1146101c45780637a42416a146101e457600080fd5b80630758d924146100f857806337dad2bb1461013557806338ed17391461015557600080fd5b366100f357005b600080fd5b34801561010457600080fd5b50600354610118906001600160a01b031681565b6040516001600160a01b0390911681526020015b60405180910390f35b34801561014157600080fd5b50600154610118906001600160a01b031681565b34801561016157600080fd5b50610175610170366004611880565b6102f8565b60405161012c91906118f2565b34801561018e57600080fd5b506101a261019d366004611935565b61051c565b005b3480156101b057600080fd5b50600454610118906001600160a01b031681565b3480156101d057600080fd5b506101756101df366004611880565b6107b8565b3480156101f057600080fd5b506101756101ff366004611880565b6108e6565b34801561021057600080fd5b5061017561021f366004611880565b610af0565b610175610232366004611977565b610c1f565b610175610245366004611977565b610e7e565b34801561025657600080fd5b50600554610118906001600160a01b031681565b34801561027657600080fd5b5061028a6102853660046119dd565b610f49565b60405190815260200161012c565b3480156102a457600080fd5b5061028a6102b33660046119ff565b610fd3565b3480156102c457600080fd5b50600254610118906001600160a01b031681565b3480156102e457600080fd5b506101756102f3366004611935565b6110f7565b6060610302611263565b6000871161032b5760405162461bcd60e51b815260040161032290611a18565b60405180910390fd5b60008585600081811061034057610340611a5b565b905060200201602081019061035591906119dd565b905061036c6001600160a01b03821633308b61128d565b600061037889836112fa565b600354815160405163095ea7b360e01b81526001600160a01b039283166004820152602481019190915291925083169063095ea7b3906044016020604051808303816000875af11580156103d0573d6000803e3d6000fd5b505050506040513d601f19601f820116820180604052508101906103f49190611a71565b5060035481516040516338ed173960e01b81526001600160a01b03909216916338ed17399161042f918c908c908c908c908c90600401611adb565b6000604051808303816000875af115801561044e573d6000803e3d6000fd5b505050506040513d6000823e601f3d908101601f191682016040526104769190810190611b2f565b92508686610485600182611c12565b81811061049457610494611a5b565b90506020020160208101906104a991906119dd565b6001546020830151604080850151606086015191516001600160a01b0395861695339516937f48622207111e60c470744a6f806ceaa4ba7cf81a041ea2acd4ebd9dbde26efec936104fe938a93909190611c25565b60405180910390a450506105126001600055565b9695505050505050565b6001546001600160a01b031633146105765760405162461bcd60e51b815260206004820152601f60248201527f4f6e6c79204b4f4c2063616e2063616c6c20746869732066756e6374696f6e006044820152606401610322565b61057e611263565b6000478015610630576001546040516000916001600160a01b03169083908381818185875af1925050503d80600081146105d4576040519150601f19603f3d011682016040523d82523d6000602084013e6105d9565b606091505b505090508061062a5760405162461bcd60e51b815260206004820152601c60248201527f4e617469766520666565207769746864726177616c206661696c6564000000006044820152606401610322565b60019250505b60005b8381101561076457600085858381811061064f5761064f611a5b565b905060200201602081019061066491906119dd565b6001600160a01b03161461075c57600085858381811061068657610686611a5b565b905060200201602081019061069b91906119dd565b6040516370a0823160e01b81523060048201526001600160a01b0391909116906370a0823190602401602060405180830381865afa1580156106e1573d6000803e3d6000fd5b505050506040513d601f19601f820116820180604052508101906107059190611c4b565b9050801561075a57600154610755906001600160a01b03168288888681811061073057610730611a5b565b905060200201602081019061074591906119dd565b6001600160a01b03169190611776565b600193505b505b600101610633565b50816107a85760405162461bcd60e51b81526020600482015260136024820152724e6f206665657320746f20776974686472617760681b6044820152606401610322565b50506107b46001600055565b5050565b60606107c2611263565b600087116107e25760405162461bcd60e51b815260040161032290611a18565b6000858560008181106107f7576107f7611a5b565b905060200201602081019061080c91906119dd565b90506108236001600160a01b03821633308b61128d565b600061082f89836112fa565b600354815160405163095ea7b360e01b81526001600160a01b039283166004820152602481019190915291925083169063095ea7b3906044016020604051808303816000875af1158015610887573d6000803e3d6000fd5b505050506040513d601f19601f820116820180604052508101906108ab9190611a71565b50600354815160405163676528d160e01b81526001600160a01b039092169163676528d19161042f918c908c908c908c908c90600401611adb565b6060600086116109085760405162461bcd60e51b815260040161032290611a18565b60008585600081811061091d5761091d611a5b565b905060200201602081019061093291906119dd565b90506109496001600160a01b03821633308a61128d565b600061095588836112fa565b600354815160405163095ea7b360e01b81526001600160a01b039283166004820152602481019190915291925083169063095ea7b3906044016020604051808303816000875af11580156109ad573d6000803e3d6000fd5b505050506040513d601f19601f820116820180604052508101906109d19190611a71565b506003548151604051633d2120b560e11b81526001600160a01b0390921691637a42416a91610a0d918d91908c908c908c908c90600401611adb565b6000604051808303816000875af1158015610a2c573d6000803e3d6000fd5b505050506040513d6000823e601f3d908101601f19168201604052610a549190810190611b2f565b92508686610a63600182611c12565b818110610a7257610a72611a5b565b9050602002016020810190610a8791906119dd565b6001546020830151604080850151606086015191516001600160a01b0395861695339516937f48622207111e60c470744a6f806ceaa4ba7cf81a041ea2acd4ebd9dbde26efec93610adc938a93909190611c25565b60405180910390a450509695505050505050565b6060610afa611263565b60008611610b1a5760405162461bcd60e51b815260040161032290611a18565b600085856000818110610b2f57610b2f611a5b565b9050602002016020810190610b4491906119dd565b9050610b5b6001600160a01b03821633308a61128d565b6000610b6788836112fa565b600354815160405163095ea7b360e01b81526001600160a01b039283166004820152602481019190915291925083169063095ea7b3906044016020604051808303816000875af1158015610bbf573d6000803e3d6000fd5b505050506040513d601f19601f82011682018060405250810190610be39190611a71565b506003548151604051634401edf760e11b81526001600160a01b0390921691638803dbee9161042f918d91908c908c908c908c90600401611adb565b6060610c29611263565b60003411610c495760405162461bcd60e51b815260040161032290611a18565b6000610c563460006112fa565b6003548151604051638a657e6760e01b81529293506001600160a01b0390911691638a657e679190610c94908b908b908b908b908b90600401611c64565b60006040518083038185885af1158015610cb2573d6000803e3d6000fd5b50505050506040513d6000823e601f3d908101601f19168201604052610cdb9190810190611b2f565b915081600081518110610cf057610cf0611a5b565b602002602001015181600001511115610ddb576000336001600160a01b031683600081518110610d2257610d22611a5b565b60200260200101518360000151610d399190611c12565b604051600081818185875af1925050503d8060008114610d75576040519150601f19603f3d011682016040523d82523d6000602084013e610d7a565b606091505b5050905080610dd95760405162461bcd60e51b815260206004820152602560248201527f4b4f4c53776170526f757465723a20524546554e445f5452414e534645525f46604482015264105253115160da1b6064820152608401610322565b505b8585610de8600182611c12565b818110610df757610df7611a5b565b9050602002016020810190610e0c91906119dd565b6001546020830151604080850151606086015191516001600160a01b0395861695339516937f48622207111e60c470744a6f806ceaa4ba7cf81a041ea2acd4ebd9dbde26efec93610e6293600093909190611c25565b60405180910390a450610e756001600055565b95945050505050565b6060610e88611263565b60003411610ea85760405162461bcd60e51b815260040161032290611a18565b6000610eb53460006112fa565b600354815160405163a2a1623d60e01b81529293506001600160a01b039091169163a2a1623d9190610ef3908b908b908b908b908b90600401611c64565b60006040518083038185885af1158015610f11573d6000803e3d6000fd5b50505050506040513d6000823e601f3d908101601f19168201604052610f3a9190810190611b2f565b91508585610de8600182611c12565b60006001600160a01b038216610f60575047919050565b6040516370a0823160e01b81523060048201526001600160a01b038316906370a0823190602401602060405180830381865afa158015610fa4573d6000803e3d6000fd5b505050506040513d601f19601f82011682018060405250810190610fc89190611c4b565b92915050565b919050565b600080600260009054906101000a90046001600160a01b03166001600160a01b031663894e47e16040518163ffffffff1660e01b8152600401602060405180830381865afa158015611029573d6000803e3d6000fd5b505050506040513d601f19601f8201168201806040525081019061104d9190611c9b565b90506000600260009054906101000a90046001600160a01b03166001600160a01b03166397a18e5f6040518163ffffffff1660e01b8152600401602060405180830381865afa1580156110a4573d6000803e3d6000fd5b505050506040513d601f19601f820116820180604052508101906110c89190611c9b565b905060008161ffff168361ffff16866110e19190611cbf565b6110eb9190611cd6565b9050610e758186611c12565b60608167ffffffffffffffff81111561111257611112611b19565b60405190808252806020026020018201604052801561113b578160200160208202803683370190505b50905060005b8281101561125c57600084848381811061115d5761115d611a5b565b905060200201602081019061117291906119dd565b6001600160a01b0316036111a4574782828151811061119357611193611a5b565b602002602001018181525050611254565b8383828181106111b6576111b6611a5b565b90506020020160208101906111cb91906119dd565b6040516370a0823160e01b81523060048201526001600160a01b0391909116906370a0823190602401602060405180830381865afa158015611211573d6000803e3d6000fd5b505050506040513d601f19601f820116820180604052508101906112359190611c4b565b82828151811061124757611247611a5b565b6020026020010181815250505b600101611141565b5092915050565b60026000540361128657604051633ee5aeb560e01b815260040160405180910390fd5b6002600055565b6040516001600160a01b0384811660248301528381166044830152606482018390526112f49186918216906323b872dd906084015b604051602081830303815290604052915060e01b6020820180516001600160e01b0383818316178352505050506117ac565b50505050565b6113256040518060800160405280600081526020016000815260200160008152602001600081525090565b6002546040805163a014cd6360e01b815290516000926001600160a01b03169163a014cd639160048083019260209291908290030181865afa15801561136f573d6000803e3d6000fd5b505050506040513d601f19601f820116820180604052508101906113939190611c9b565b90506000600260009054906101000a90046001600160a01b03166001600160a01b0316636920defc6040518163ffffffff1660e01b8152600401602060405180830381865afa1580156113ea573d6000803e3d6000fd5b505050506040513d601f19601f8201168201806040525081019061140e9190611c9b565b90506000600260009054906101000a90046001600160a01b03166001600160a01b031663f5041d4b6040518163ffffffff1660e01b8152600401602060405180830381865afa158015611465573d6000803e3d6000fd5b505050506040513d601f19601f820116820180604052508101906114899190611c9b565b90506000600260009054906101000a90046001600160a01b03166001600160a01b03166397a18e5f6040518163ffffffff1660e01b8152600401602060405180830381865afa1580156114e0573d6000803e3d6000fd5b505050506040513d601f19601f820116820180604052508101906115049190611c9b565b905060008161ffff168561ffff168961151d9190611cbf565b6115279190611cd6565b905060008261ffff168561ffff168a6115409190611cbf565b61154a9190611cd6565b905060008361ffff168561ffff168b6115639190611cbf565b61156d9190611cd6565b90506001600160a01b0389166116f3576004546040516000916001600160a01b03169084908381818185875af1925050503d80600081146115ca576040519150601f19603f3d011682016040523d82523d6000602084013e6115cf565b606091505b50509050806116355760405162461bcd60e51b815260206004820152602c60248201527f4b4f4c53776170526f757465723a2046554e444154494f4e5f4645455f54524160448201526b1394d1915497d1905253115160a21b6064820152608401610322565b6005546040516000916001600160a01b03169084908381818185875af1925050503d8060008114611682576040519150601f19603f3d011682016040523d82523d6000602084013e611687565b606091505b50509050806116ec5760405162461bcd60e51b815260206004820152602b60248201527f4b4f4c53776170526f757465723a2054524541535552595f4645455f5452414e60448201526a14d1915497d1905253115160aa1b6064820152608401610322565b5050611727565b60045461170d906001600160a01b038b8116911684611776565b600554611727906001600160a01b038b8116911683611776565b60008183611735868e611c12565b61173f9190611c12565b6117499190611c12565b60408051608081018252918252602082019590955293840192909252606083015250979650505050505050565b6040516001600160a01b038381166024830152604482018390526117a791859182169063a9059cbb906064016112c2565b505050565b600080602060008451602086016000885af1806117cf576040513d6000823e3d81fd5b50506000513d915081156117e75780600114156117f4565b6001600160a01b0384163b155b156112f457604051635274afe760e01b81526001600160a01b0385166004820152602401610322565b60008083601f84011261182f57600080fd5b50813567ffffffffffffffff81111561184757600080fd5b6020830191508360208260051b850101111561186257600080fd5b9250929050565b80356001600160a01b0381168114610fce57600080fd5b60008060008060008060a0878903121561189957600080fd5b8635955060208701359450604087013567ffffffffffffffff8111156118be57600080fd5b6118ca89828a0161181d565b90955093506118dd905060608801611869565b95989497509295919493608090920135925050565b602080825282518282018190526000918401906040840190835b8181101561192a57835183526020938401939092019160010161190c565b509095945050505050565b6000806020838503121561194857600080fd5b823567ffffffffffffffff81111561195f57600080fd5b61196b8582860161181d565b90969095509350505050565b60008060008060006080868803121561198f57600080fd5b85359450602086013567ffffffffffffffff8111156119ad57600080fd5b6119b98882890161181d565b90955093506119cc905060408701611869565b949793965091946060013592915050565b6000602082840312156119ef57600080fd5b6119f882611869565b9392505050565b600060208284031215611a1157600080fd5b5035919050565b60208082526023908201527f4b4f4c53776170526f757465723a20494e56414c49445f494e5055545f414d4f60408201526215539560ea1b606082015260800190565b634e487b7160e01b600052603260045260246000fd5b600060208284031215611a8357600080fd5b815180151581146119f857600080fd5b81835260208301925060008160005b84811015611ad1576001600160a01b03611abb83611869565b1686526020958601959190910190600101611aa2565b5093949350505050565b86815285602082015260a060408201526000611afb60a083018688611a93565b6001600160a01b039490941660608301525060800152949350505050565b634e487b7160e01b600052604160045260246000fd5b600060208284031215611b4157600080fd5b815167ffffffffffffffff811115611b5857600080fd5b8201601f81018413611b6957600080fd5b805167ffffffffffffffff811115611b8357611b83611b19565b8060051b604051601f19603f830116810181811067ffffffffffffffff82111715611bb057611bb0611b19565b604052918252602081840181019290810187841115611bce57600080fd5b6020850194505b83851015611bf157845180825260209586019590935001611bd5565b509695505050505050565b634e487b7160e01b600052601160045260246000fd5b81810381811115610fc857610fc8611bfc565b6001600160a01b0394909416845260208401929092526040830152606082015260800190565b600060208284031215611c5d57600080fd5b5051919050565b858152608060208201526000611c7e608083018688611a93565b6001600160a01b0394909416604083015250606001529392505050565b600060208284031215611cad57600080fd5b815161ffff811681146119f857600080fd5b8082028115828204841417610fc857610fc8611bfc565b600082611cf357634e487b7160e01b600052601260045260246000fd5b50049056fea2646970667358221220b47aba7b2de9028e3172ef90b1e78c83ebbaa7c90252e5e460c304a2ef46fd3264736f6c634300081d0033a2646970667358221220f94e23360af7c76751e15701798a58c5e5dc1f5f418e30efc03a6f45b3aa066b64736f6c634300081d0033",
  "linkReferences": {},
  "deployedLinkReferences": {}
}