{
  "_format": "hh-sol-artifact-1",
  "contractName": "KOLFactoryUniswap",
  "sourceName": "contracts/kol-router/KOLFactoryUniswap.sol",
  "abi": [
    {
      "inputs": [
        {
          "internalType": "address",
          "name": "_uniswapRouter",
          "type": "address"
        }
      ],
      "stateMutability": "nonpayable",
      "type": "constructor"
    },
    {
      "inputs": [
        {
          "internalType": "address",
          "name": "owner",
          "type": "address"
        }
      ],
      "name": "OwnableInvalidOwner",
      "type": "error"
    },
    {
      "inputs": [
        {
          "internalType": "address",
          "name": "account",
          "type": "address"
        }
      ],
      "name": "OwnableUnauthorizedAccount",
      "type": "error"
    },
    {
      "anonymous": false,
      "inputs": [
        {
          "indexed": true,
          "internalType": "address",
          "name": "previousOwner",
          "type": "address"
        },
        {
          "indexed": true,
          "internalType": "address",
          "name": "newOwner",
          "type": "address"
        }
      ],
      "name": "OwnershipTransferred",
      "type": "event"
    },
    {
      "anonymous": false,
      "inputs": [
        {
          "indexed": false,
          "internalType": "address",
          "name": "routerAddress",
          "type": "address"
        }
      ],
      "name": "ProtocolAddressUpdated",
      "type": "event"
    },
    {
      "anonymous": false,
      "inputs": [
        {
          "indexed": true,
          "internalType": "address",
          "name": "kolAddress",
          "type": "address"
        },
        {
          "indexed": false,
          "internalType": "address",
          "name": "routerAddress",
          "type": "address"
        }
      ],
      "name": "RouterCreated",
      "type": "event"
    },
    {
      "inputs": [
        {
          "internalType": "address",
          "name": "_kolAddress",
          "type": "address"
        },
        {
          "internalType": "uint256",
          "name": "_fixedFeeAmount",
          "type": "uint256"
        }
      ],
      "name": "createKOLRouter",
      "outputs": [
        {
          "internalType": "address",
          "name": "",
          "type": "address"
        }
      ],
      "stateMutability": "nonpayable",
      "type": "function"
    },
    {
      "inputs": [
        {
          "internalType": "uint256",
          "name": "",
          "type": "uint256"
        }
      ],
      "name": "deployedRouters",
      "outputs": [
        {
          "internalType": "address",
          "name": "",
          "type": "address"
        }
      ],
      "stateMutability": "view",
      "type": "function"
    },
    {
      "inputs": [
        {
          "internalType": "address",
          "name": "_kolAddress",
          "type": "address"
        },
        {
          "internalType": "uint256",
          "name": "_index",
          "type": "uint256"
        }
      ],
      "name": "getKOLRouter",
      "outputs": [
        {
          "internalType": "address",
          "name": "",
          "type": "address"
        }
      ],
      "stateMutability": "view",
      "type": "function"
    },
    {
      "inputs": [
        {
          "internalType": "address",
          "name": "_kolAddress",
          "type": "address"
        }
      ],
      "name": "getKOLRoutersCount",
      "outputs": [
        {
          "internalType": "uint256",
          "name": "",
          "type": "uint256"
        }
      ],
      "stateMutability": "view",
      "type": "function"
    },
    {
      "inputs": [],
      "name": "getTotalRouters",
      "outputs": [
        {
          "internalType": "uint256",
          "name": "",
          "type": "uint256"
        }
      ],
      "stateMutability": "view",
      "type": "function"
    },
    {
      "inputs": [],
      "name": "owner",
      "outputs": [
        {
          "internalType": "address",
          "name": "",
          "type": "address"
        }
      ],
      "stateMutability": "view",
      "type": "function"
    },
    {
      "inputs": [],
      "name": "protocolRouter",
      "outputs": [
        {
          "internalType": "address",
          "name": "",
          "type": "address"
        }
      ],
      "stateMutability": "view",
      "type": "function"
    },
    {
      "inputs": [],
      "name": "renounceOwnership",
      "outputs": [],
      "stateMutability": "nonpayable",
      "type": "function"
    },
    {
      "inputs": [
        {
          "internalType": "address",
          "name": "_protocolRouter",
          "type": "address"
        }
      ],
      "name": "setProtocolRouter",
      "outputs": [],
      "stateMutability": "nonpayable",
      "type": "function"
    },
    {
      "inputs": [
        {
          "internalType": "address",
          "name": "newOwner",
          "type": "address"
        }
      ],
      "name": "transferOwnership",
      "outputs": [],
      "stateMutability": "nonpayable",
      "type": "function"
    }
  ],
  "bytecode": "0x608060405234801561001057600080fd5b5060405161152f38038061152f83398101604081905261002f9161012d565b80338061005757604051631e4fbdf760e01b8152600060048201526024015b60405180910390fd5b610060816100dd565b506001600160a01b0381166100b75760405162461bcd60e51b815260206004820152601760248201527f496e76616c69642070726f746f636f6c20726f75746572000000000000000000604482015260640161004e565b600380546001600160a01b0319166001600160a01b03929092169190911790555061015d565b600080546001600160a01b038381166001600160a01b0319831681178455604051919092169283917f8be0079c531659141344cd1fd0a4f28419497f9722a3daafe3b4186f6b6457e09190a35050565b60006020828403121561013f57600080fd5b81516001600160a01b038116811461015657600080fd5b9392505050565b6113c38061016c6000396000f3fe608060405234801561001057600080fd5b506004361061009e5760003560e01c80638da5cb5b116100665780638da5cb5b14610115578063a151bda214610126578063debb482614610139578063e17232361461014c578063f2fde38b1461017557600080fd5b806301318bd7146100a3578063174f0f3c146100b85780632a2884e0146100cf57806340493890146100fa578063715018a61461010d575b600080fd5b6100b66100b136600461051e565b610188565b005b6002545b6040519081526020015b60405180910390f35b6100e26100dd366004610540565b610238565b6040516001600160a01b0390911681526020016100c6565b6003546100e2906001600160a01b031681565b6100b6610262565b6000546001600160a01b03166100e2565b6100e2610134366004610559565b610276565b6100e2610147366004610559565b610384565b6100bc61015a36600461051e565b6001600160a01b031660009081526001602052604090205490565b6100b661018336600461051e565b6103ca565b610190610408565b6001600160a01b0381166101e45760405162461bcd60e51b8152602060048201526016602482015275496e76616c696420726f75746572206164647265737360501b60448201526064015b60405180910390fd5b600380546001600160a01b0319166001600160a01b0383169081179091556040519081527f725168acf8fb2c310e106a05c2eed321da0de2fc4cf73dfe2594ca1d4795fd109060200160405180910390a150565b6002818154811061024857600080fd5b6000918252602090912001546001600160a01b0316905081565b61026a610408565b6102746000610435565b565b60006001600160a01b0383166102c45760405162461bcd60e51b8152602060048201526013602482015272496e76616c6964204b4f4c206164647265737360681b60448201526064016101db565b60006102d08484610485565b6001600160a01b038581166000818152600160208181526040808420805480850182559085528285200180549688166001600160a01b031997881681179091556002805494850181559094527f405787fa12a823e0f2b7631cc41b3ba8828b3321ca811111fa75cd3aa3bb5ace9092018054909516831790945551908152929350917fe957baec14239f50385ff25f23a9695e828ecf988a5af33b607cbd1b540bbebc910160405180910390a29392505050565b6001600160a01b03821660009081526001602052604081208054839081106103ae576103ae610583565b6000918252602090912001546001600160a01b03169392505050565b6103d2610408565b6001600160a01b0381166103fc57604051631e4fbdf760e01b8152600060048201526024016101db565b61040581610435565b50565b6000546001600160a01b031633146102745760405163118cdaa760e01b81523360048201526024016101db565b600080546001600160a01b038381166001600160a01b0319831681178455604051919092169283917f8be0079c531659141344cd1fd0a4f28419497f9722a3daafe3b4186f6b6457e09190a35050565b600354604051600091829185916001600160a01b031690309086906104a9906104f5565b6001600160a01b0394851681529284166020840152921660408201526060810191909152608001604051809103906000f0801580156104ec573d6000803e3d6000fd5b50949350505050565b610df48061059a83390190565b80356001600160a01b038116811461051957600080fd5b919050565b60006020828403121561053057600080fd5b61053982610502565b9392505050565b60006020828403121561055257600080fd5b5035919050565b6000806040838503121561056c57600080fd5b61057583610502565b946020939093013593505050565b634e487b7160e01b600052603260045260246000fdfe608060405234801561001057600080fd5b50604051610df4380380610df483398101604081905261002f9161019a565b6001600055838383836001600160a01b0384166100935760405162461bcd60e51b815260206004820152601360248201527f496e76616c6964204b4f4c20616464726573730000000000000000000000000060448201526064015b60405180910390fd5b6001600160a01b0383166100de5760405162461bcd60e51b815260206004820152601260248201527124b73b30b634b2102222ac103937baba32b960711b604482015260640161008a565b6001600160a01b0382166101345760405162461bcd60e51b815260206004820152601760248201527f496e76616c696420666163746f72792061646472657373000000000000000000604482015260640161008a565b600180546001600160a01b03199081166001600160a01b0396871617909155600380548216948616949094179093556002805490931691909316179055600455506101e592505050565b80516001600160a01b038116811461019557600080fd5b919050565b600080600080608085870312156101b057600080fd5b6101b98561017e565b93506101c76020860161017e565b92506101d56040860161017e565b6060959095015193969295505050565b610c00806101f46000396000f3fe6080604052600436106100955760003560e01c80638aad69bd116100595780638aad69bd14610148578063966dae0e146101855780639683763b146101a55780639d12ab51146101b85780639ec9ac41146101d857600080fd5b80630758d924146100a157806318a8a1eb146100de57806337dad2bb146100f3578063476343ee1461011357806373dd69981461012857600080fd5b3661009c57005b600080fd5b3480156100ad57600080fd5b506003546100c1906001600160a01b031681565b6040516001600160a01b0390911681526020015b60405180910390f35b6100f16100ec3660046108cc565b6101fc565b005b3480156100ff57600080fd5b506001546100c1906001600160a01b031681565b34801561011f57600080fd5b506100f1610389565b34801561013457600080fd5b506100f1610143366004610967565b610537565b34801561015457600080fd5b506100f1610163366004610980565b600580546001600160a01b0319166001600160a01b0392909216919091179055565b34801561019157600080fd5b506002546100c1906001600160a01b031681565b6100f16101b33660046109a2565b610618565b3480156101c457600080fd5b506005546100c1906001600160a01b031681565b3480156101e457600080fd5b506101ee60045481565b6040519081526020016100d5565b610204610727565b346004548110156102305760405162461bcd60e51b815260040161022790610a1b565b60405180910390fd5b6102456001600160a01b038416333085610751565b60055460405163095ea7b360e01b81526001600160a01b039182166004820152602481018490529084169063095ea7b3906044016020604051808303816000875af1158015610298573d6000803e3d6000fd5b505050506040513d601f19601f820116820180604052508101906102bc9190610a65565b50600354604051630d64d59360e21b81526001600160a01b0390911690633593564c906102f5908b908b908b908b908b90600401610ab0565b600060405180830381600087803b15801561030f57600080fd5b505af1158015610323573d6000803e3d6000fd5b5050600154600454604080516001600160a01b0390931683523360208401528201527fbad29f2bbbf6bb1e15563203bcdb0dd660c54eab078763eb66f797efa8f5e8c19250606001905060405180910390a1506103806001600055565b50505050505050565b6001546001600160a01b031633146103e35760405162461bcd60e51b815260206004820152601f60248201527f4f6e6c79204b4f4c2063616e2063616c6c20746869732066756e6374696f6e006044820152606401610227565b6103eb610727565b478061042f5760405162461bcd60e51b81526020600482015260136024820152724e6f206665657320746f20776974686472617760681b6044820152606401610227565b6001546040805160008082526020820192839052926001600160a01b031691849161045991610b74565b60006040518083038185875af1925050503d8060008114610496576040519150601f19603f3d011682016040523d82523d6000602084013e61049b565b606091505b50509050806104e45760405162461bcd60e51b8152602060048201526015602482015274119959481dda5d1a191c985dd85b0819985a5b1959605a1b6044820152606401610227565b600154604080518481526001600160a01b0390921660208301527f812bcf6853ebc81dc0a1d2323893eedad6cd086a4398311a699e0a7acdf187b3910160405180910390a150506105356001600055565b565b6001546001600160a01b031633146105915760405162461bcd60e51b815260206004820152601f60248201527f4f6e6c79204b4f4c2063616e2063616c6c20746869732066756e6374696f6e006044820152606401610227565b806000036105d35760405162461bcd60e51b815260206004820152600f60248201526e04665652063616e6e6f74206265203608c1b6044820152606401610227565b600480549082905560408051828152602081018490527f528d9479e9f9889a87a3c30c7f7ba537e5e59c4c85a37733b16e57c62df61302910160405180910390a15050565b610620610727565b346004548110156106435760405162461bcd60e51b815260040161022790610a1b565b6000600454346106539190610ba3565b600354604051630d64d59360e21b81529192506001600160a01b031690633593564c90839061068e908b908b908b908b908b90600401610ab0565b6000604051808303818588803b1580156106a757600080fd5b505af11580156106bb573d6000803e3d6000fd5b5050600154600454604080516001600160a01b0390931683523360208401528201527fbad29f2bbbf6bb1e15563203bcdb0dd660c54eab078763eb66f797efa8f5e8c19350606001915061070c9050565b60405180910390a150506107206001600055565b5050505050565b60026000540361074a57604051633ee5aeb560e01b815260040160405180910390fd5b6002600055565b604080516001600160a01b0385811660248301528416604482015260648082018490528251808303909101815260849091019091526020810180516001600160e01b03166323b872dd60e01b1790526107ab9085906107b1565b50505050565b600080602060008451602086016000885af1806107d4576040513d6000823e3d81fd5b50506000513d915081156107ec5780600114156107f9565b6001600160a01b0384163b155b156107ab57604051635274afe760e01b81526001600160a01b0385166004820152602401610227565b60008083601f84011261083457600080fd5b50813567ffffffffffffffff81111561084c57600080fd5b60208301915083602082850101111561086457600080fd5b9250929050565b60008083601f84011261087d57600080fd5b50813567ffffffffffffffff81111561089557600080fd5b6020830191508360208260051b850101111561086457600080fd5b80356001600160a01b03811681146108c757600080fd5b919050565b600080600080600080600060a0888a0312156108e757600080fd5b873567ffffffffffffffff8111156108fe57600080fd5b61090a8a828b01610822565b909850965050602088013567ffffffffffffffff81111561092a57600080fd5b6109368a828b0161086b565b9096509450506040880135925061094f606089016108b0565b96999598509396929591949193505060809091013590565b60006020828403121561097957600080fd5b5035919050565b60006020828403121561099257600080fd5b61099b826108b0565b9392505050565b6000806000806000606086880312156109ba57600080fd5b853567ffffffffffffffff8111156109d157600080fd5b6109dd88828901610822565b909650945050602086013567ffffffffffffffff8111156109fd57600080fd5b610a098882890161086b565b96999598509660400135949350505050565b6020808252602a908201527f4b4f4c53776170526f757465723a20494e53554646494349454e545f4e41544960408201526956455f464f525f46454560b01b606082015260800190565b600060208284031215610a7757600080fd5b8151801515811461099b57600080fd5b81835281816020850137506000828201602090810191909152601f909101601f19169091010190565b606081526000610ac4606083018789610a87565b82810360208401528085825260208201905060208660051b830101876000601e198a3603015b89821015610b5b57858403601f190185528235818112610b0957600080fd5b8b0160208101903567ffffffffffffffff811115610b2657600080fd5b803603821315610b3557600080fd5b610b40868284610a87565b95505050602083019250602085019450600182019150610aea565b5050508093505050508260408301529695505050505050565b6000825160005b81811015610b955760208186018101518583015201610b7b565b506000920191825250919050565b81810381811115610bc457634e487b7160e01b600052601160045260246000fd5b9291505056fea26469706673582212202cf482c55db5aaed128ac9494eb3537cf37578cf7908fdf5cceb126078826cac64736f6c634300081d0033a2646970667358221220c3fbc67eb4f0e07e2124fc2eb4c1ee9067817ecc4b5eb0a5087b946a4f24647a64736f6c634300081d0033",
  "linkReferences": {},
  "deployedLinkReferences": {}
}