{
  "_format": "hh-sol-artifact-1",
  "contractName": "KOLFactoryArenaSwap",
  "sourceName": "contracts/kol-router/KOLFactoryArenaSwap.sol",
  "abi": [
    {
      "inputs": [
        {
          "internalType": "address",
          "name": "_arenaSwapRouter",
          "type": "address"
        }
      ],
      "stateMutability": "nonpayable",
      "type": "constructor"
    },
    {
      "inputs": [
        {
          "internalType": "address",
          "name": "owner",
          "type": "address"
        }
      ],
      "name": "OwnableInvalidOwner",
      "type": "error"
    },
    {
      "inputs": [
        {
          "internalType": "address",
          "name": "account",
          "type": "address"
        }
      ],
      "name": "OwnableUnauthorizedAccount",
      "type": "error"
    },
    {
      "anonymous": false,
      "inputs": [
        {
          "indexed": true,
          "internalType": "address",
          "name": "previousOwner",
          "type": "address"
        },
        {
          "indexed": true,
          "internalType": "address",
          "name": "newOwner",
          "type": "address"
        }
      ],
      "name": "OwnershipTransferred",
      "type": "event"
    },
    {
      "anonymous": false,
      "inputs": [
        {
          "indexed": false,
          "internalType": "address",
          "name": "routerAddress",
          "type": "address"
        }
      ],
      "name": "ProtocolAddressUpdated",
      "type": "event"
    },
    {
      "anonymous": false,
      "inputs": [
        {
          "indexed": true,
          "internalType": "address",
          "name": "kolAddress",
          "type": "address"
        },
        {
          "indexed": false,
          "internalType": "address",
          "name": "routerAddress",
          "type": "address"
        }
      ],
      "name": "RouterCreated",
      "type": "event"
    },
    {
      "inputs": [
        {
          "internalType": "address",
          "name": "_kolAddress",
          "type": "address"
        },
        {
          "internalType": "uint256",
          "name": "_fixedFeeAmount",
          "type": "uint256"
        }
      ],
      "name": "createKOLRouter",
      "outputs": [
        {
          "internalType": "address",
          "name": "",
          "type": "address"
        }
      ],
      "stateMutability": "nonpayable",
      "type": "function"
    },
    {
      "inputs": [
        {
          "internalType": "uint256",
          "name": "",
          "type": "uint256"
        }
      ],
      "name": "deployedRouters",
      "outputs": [
        {
          "internalType": "address",
          "name": "",
          "type": "address"
        }
      ],
      "stateMutability": "view",
      "type": "function"
    },
    {
      "inputs": [
        {
          "internalType": "address",
          "name": "_kolAddress",
          "type": "address"
        },
        {
          "internalType": "uint256",
          "name": "_index",
          "type": "uint256"
        }
      ],
      "name": "getKOLRouter",
      "outputs": [
        {
          "internalType": "address",
          "name": "",
          "type": "address"
        }
      ],
      "stateMutability": "view",
      "type": "function"
    },
    {
      "inputs": [
        {
          "internalType": "address",
          "name": "_kolAddress",
          "type": "address"
        }
      ],
      "name": "getKOLRoutersCount",
      "outputs": [
        {
          "internalType": "uint256",
          "name": "",
          "type": "uint256"
        }
      ],
      "stateMutability": "view",
      "type": "function"
    },
    {
      "inputs": [],
      "name": "getTotalRouters",
      "outputs": [
        {
          "internalType": "uint256",
          "name": "",
          "type": "uint256"
        }
      ],
      "stateMutability": "view",
      "type": "function"
    },
    {
      "inputs": [],
      "name": "owner",
      "outputs": [
        {
          "internalType": "address",
          "name": "",
          "type": "address"
        }
      ],
      "stateMutability": "view",
      "type": "function"
    },
    {
      "inputs": [],
      "name": "protocolRouter",
      "outputs": [
        {
          "internalType": "address",
          "name": "",
          "type": "address"
        }
      ],
      "stateMutability": "view",
      "type": "function"
    },
    {
      "inputs": [],
      "name": "renounceOwnership",
      "outputs": [],
      "stateMutability": "nonpayable",
      "type": "function"
    },
    {
      "inputs": [
        {
          "internalType": "address",
          "name": "_protocolRouter",
          "type": "address"
        }
      ],
      "name": "setProtocolRouter",
      "outputs": [],
      "stateMutability": "nonpayable",
      "type": "function"
    },
    {
      "inputs": [
        {
          "internalType": "address",
          "name": "newOwner",
          "type": "address"
        }
      ],
      "name": "transferOwnership",
      "outputs": [],
      "stateMutability": "nonpayable",
      "type": "function"
    }
  ],
  "bytecode": "0x608060405234801561001057600080fd5b50604051611cbf380380611cbf83398101604081905261002f9161012d565b80338061005757604051631e4fbdf760e01b8152600060048201526024015b60405180910390fd5b610060816100dd565b506001600160a01b0381166100b75760405162461bcd60e51b815260206004820152601760248201527f496e76616c69642070726f746f636f6c20726f75746572000000000000000000604482015260640161004e565b600380546001600160a01b0319166001600160a01b03929092169190911790555061015d565b600080546001600160a01b038381166001600160a01b0319831681178455604051919092169283917f8be0079c531659141344cd1fd0a4f28419497f9722a3daafe3b4186f6b6457e09190a35050565b60006020828403121561013f57600080fd5b81516001600160a01b038116811461015657600080fd5b9392505050565b611b538061016c6000396000f3fe608060405234801561001057600080fd5b506004361061009e5760003560e01c80638da5cb5b116100665780638da5cb5b14610115578063a151bda214610126578063debb482614610139578063e17232361461014c578063f2fde38b1461017557600080fd5b806301318bd7146100a3578063174f0f3c146100b85780632a2884e0146100cf57806340493890146100fa578063715018a61461010d575b600080fd5b6100b66100b136600461051e565b610188565b005b6002545b6040519081526020015b60405180910390f35b6100e26100dd366004610540565b610238565b6040516001600160a01b0390911681526020016100c6565b6003546100e2906001600160a01b031681565b6100b6610262565b6000546001600160a01b03166100e2565b6100e2610134366004610559565b610276565b6100e2610147366004610559565b610384565b6100bc61015a36600461051e565b6001600160a01b031660009081526001602052604090205490565b6100b661018336600461051e565b6103ca565b610190610408565b6001600160a01b0381166101e45760405162461bcd60e51b8152602060048201526016602482015275496e76616c696420726f75746572206164647265737360501b60448201526064015b60405180910390fd5b600380546001600160a01b0319166001600160a01b0383169081179091556040519081527f725168acf8fb2c310e106a05c2eed321da0de2fc4cf73dfe2594ca1d4795fd109060200160405180910390a150565b6002818154811061024857600080fd5b6000918252602090912001546001600160a01b0316905081565b61026a610408565b6102746000610435565b565b60006001600160a01b0383166102c45760405162461bcd60e51b8152602060048201526013602482015272496e76616c6964204b4f4c206164647265737360681b60448201526064016101db565b60006102d08484610485565b6001600160a01b038581166000818152600160208181526040808420805480850182559085528285200180549688166001600160a01b031997881681179091556002805494850181559094527f405787fa12a823e0f2b7631cc41b3ba8828b3321ca811111fa75cd3aa3bb5ace9092018054909516831790945551908152929350917fe957baec14239f50385ff25f23a9695e828ecf988a5af33b607cbd1b540bbebc910160405180910390a29392505050565b6001600160a01b03821660009081526001602052604081208054839081106103ae576103ae610583565b6000918252602090912001546001600160a01b03169392505050565b6103d2610408565b6001600160a01b0381166103fc57604051631e4fbdf760e01b8152600060048201526024016101db565b61040581610435565b50565b6000546001600160a01b031633146102745760405163118cdaa760e01b81523360048201526024016101db565b600080546001600160a01b038381166001600160a01b0319831681178455604051919092169283917f8be0079c531659141344cd1fd0a4f28419497f9722a3daafe3b4186f6b6457e09190a35050565b600354604051600091829185916001600160a01b031690309086906104a9906104f5565b6001600160a01b0394851681529284166020840152921660408201526060810191909152608001604051809103906000f0801580156104ec573d6000803e3d6000fd5b50949350505050565b6115848061059a83390190565b80356001600160a01b038116811461051957600080fd5b919050565b60006020828403121561053057600080fd5b61053982610502565b9392505050565b60006020828403121561055257600080fd5b5035919050565b6000806040838503121561056c57600080fd5b61057583610502565b946020939093013593505050565b634e487b7160e01b600052603260045260246000fdfe608060405234801561001057600080fd5b5060405161158438038061158483398101604081905261002f9161019a565b6001600055838383836001600160a01b0384166100935760405162461bcd60e51b815260206004820152601360248201527f496e76616c6964204b4f4c20616464726573730000000000000000000000000060448201526064015b60405180910390fd5b6001600160a01b0383166100de5760405162461bcd60e51b815260206004820152601260248201527124b73b30b634b2102222ac103937baba32b960711b604482015260640161008a565b6001600160a01b0382166101345760405162461bcd60e51b815260206004820152601760248201527f496e76616c696420666163746f72792061646472657373000000000000000000604482015260640161008a565b600180546001600160a01b03199081166001600160a01b0396871617909155600380548216948616949094179093556002805490931691909316179055600455506101e592505050565b80516001600160a01b038116811461019557600080fd5b919050565b600080600080608085870312156101b057600080fd5b6101b98561017e565b93506101c76020860161017e565b92506101d56040860161017e565b6060959095015193969295505050565b611390806101f46000396000f3fe6080604052600436106100ab5760003560e01c80637a42416a116100645780637a42416a1461017e5780638803dbee1461019e5780638a657e67146101b1578063966dae0e146101c45780639ec9ac41146101e4578063a2a1623d1461020857600080fd5b80630758d924146100b757806337dad2bb146100f457806338ed173914610114578063476343ee14610134578063676528d11461014b57806373dd69981461015e57600080fd5b366100b257005b600080fd5b3480156100c357600080fd5b506003546100d7906001600160a01b031681565b6040516001600160a01b0390911681526020015b60405180910390f35b34801561010057600080fd5b506001546100d7906001600160a01b031681565b610127610122366004610f53565b61021b565b6040516100eb9190610fc5565b34801561014057600080fd5b506101496103fe565b005b610127610159366004610f53565b6105ac565b34801561016a57600080fd5b50610149610179366004611008565b6106cb565b34801561018a57600080fd5b50610127610199366004610f53565b6107ac565b6101276101ac366004610f53565b61092a565b6101276101bf366004611021565b610ade565b3480156101d057600080fd5b506002546100d7906001600160a01b031681565b3480156101f057600080fd5b506101fa60045481565b6040519081526020016100eb565b610127610216366004611021565b610ce3565b6060610225610df0565b346004548110156102515760405162461bcd60e51b815260040161024890611087565b60405180910390fd5b61029033308a8989600081811061026a5761026a6110d1565b905060200201602081019061027f91906110e7565b6001600160a01b0316929190610e1a565b858560008181106102a3576102a36110d1565b90506020020160208101906102b891906110e7565b60035460405163095ea7b360e01b81526001600160a01b039182166004820152602481018b905291169063095ea7b3906044016020604051808303816000875af115801561030a573d6000803e3d6000fd5b505050506040513d601f19601f8201168201806040525081019061032e9190611109565b506003546040516338ed173960e01b81526001600160a01b03909116906338ed173990610369908b908b908b908b908b908b90600401611173565b6000604051808303816000875af1158015610388573d6000803e3d6000fd5b505050506040513d6000823e601f3d908101601f191682016040526103b091908101906111c7565b60015460045460405192945060008051602061133b833981519152926103e1926001600160a01b0316913391611289565b60405180910390a1506103f46001600055565b9695505050505050565b6001546001600160a01b031633146104585760405162461bcd60e51b815260206004820152601f60248201527f4f6e6c79204b4f4c2063616e2063616c6c20746869732066756e6374696f6e006044820152606401610248565b610460610df0565b47806104a45760405162461bcd60e51b81526020600482015260136024820152724e6f206665657320746f20776974686472617760681b6044820152606401610248565b6001546040805160008082526020820192839052926001600160a01b03169184916104ce916112ad565b60006040518083038185875af1925050503d806000811461050b576040519150601f19603f3d011682016040523d82523d6000602084013e610510565b606091505b50509050806105595760405162461bcd60e51b8152602060048201526015602482015274119959481dda5d1a191c985dd85b0819985a5b1959605a1b6044820152606401610248565b600154604080518481526001600160a01b0390921660208301527f812bcf6853ebc81dc0a1d2323893eedad6cd086a4398311a699e0a7acdf187b3910160405180910390a150506105aa6001600055565b565b60606105b6610df0565b346004548110156105d95760405162461bcd60e51b815260040161024890611087565b6105f233308a8989600081811061026a5761026a6110d1565b85856000818110610605576106056110d1565b905060200201602081019061061a91906110e7565b60035460405163095ea7b360e01b81526001600160a01b039182166004820152602481018b905291169063095ea7b3906044016020604051808303816000875af115801561066c573d6000803e3d6000fd5b505050506040513d601f19601f820116820180604052508101906106909190611109565b5060035460405163676528d160e01b81526001600160a01b039091169063676528d190610369908b908b908b908b908b908b90600401611173565b6001546001600160a01b031633146107255760405162461bcd60e51b815260206004820152601f60248201527f4f6e6c79204b4f4c2063616e2063616c6c20746869732066756e6374696f6e006044820152606401610248565b806000036107675760405162461bcd60e51b815260206004820152600f60248201526e04665652063616e6e6f74206265203608c1b6044820152606401610248565b600480549082905560408051828152602081018490527f528d9479e9f9889a87a3c30c7f7ba537e5e59c4c85a37733b16e57c62df61302910160405180910390a15050565b60606107c73330888888600081811061026a5761026a6110d1565b848460008181106107da576107da6110d1565b90506020020160208101906107ef91906110e7565b60035460405163095ea7b360e01b81526001600160a01b0391821660048201526024810189905291169063095ea7b3906044016020604051808303816000875af1158015610841573d6000803e3d6000fd5b505050506040513d601f19601f820116820180604052508101906108659190611109565b50600354604051633d2120b560e11b81526001600160a01b0390911690637a42416a906108a0908a908a908a908a908a908a90600401611173565b6000604051808303816000875af11580156108bf573d6000803e3d6000fd5b505050506040513d6000823e601f3d908101601f191682016040526108e791908101906111c7565b60015460045460405192935060008051602061133b83398151915292610918926001600160a01b0316913391611289565b60405180910390a19695505050505050565b60603460045481101561094f5760405162461bcd60e51b815260040161024890611087565b610957610df0565b6109703330898989600081811061026a5761026a6110d1565b85856000818110610983576109836110d1565b905060200201602081019061099891906110e7565b60035460405163095ea7b360e01b81526001600160a01b039182166004820152602481018a905291169063095ea7b3906044016020604051808303816000875af11580156109ea573d6000803e3d6000fd5b505050506040513d601f19601f82011682018060405250810190610a0e9190611109565b50600354604051634401edf760e11b81526001600160a01b0390911690638803dbee90610a49908b908b908b908b908b908b90600401611173565b6000604051808303816000875af1158015610a68573d6000803e3d6000fd5b505050506040513d6000823e601f3d908101601f19168201604052610a9091908101906111c7565b60015460045460405192945060008051602061133b83398151915292610ac1926001600160a01b0316913391611289565b60405180910390a1610ad36001600055565b509695505050505050565b606034600454811015610b035760405162461bcd60e51b815260040161024890611087565b610b0b610df0565b600060045434610b1b91906112dc565b600354604051638a657e6760e01b81529192506001600160a01b031690638a657e67908390610b56908c908c908c908c908c90600401611303565b60006040518083038185885af1158015610b74573d6000803e3d6000fd5b50505050506040513d6000823e601f3d908101601f19168201604052610b9d91908101906111c7565b925082600081518110610bb257610bb26110d1565b6020026020010151811115610c95576000336001600160a01b031684600081518110610be057610be06110d1565b602002602001015183610bf391906112dc565b604051600081818185875af1925050503d8060008114610c2f576040519150601f19603f3d011682016040523d82523d6000602084013e610c34565b606091505b5050905080610c935760405162461bcd60e51b815260206004820152602560248201527f4b4f4c53776170526f757465723a20524546554e445f5452414e534645525f46604482015264105253115160da1b6064820152608401610248565b505b60015460045460405160008051602061133b83398151915292610cc6926001600160a01b0390911691339190611289565b60405180910390a150610cd96001600055565b5095945050505050565b6060610ced610df0565b34600454811015610d105760405162461bcd60e51b815260040161024890611087565b600060045434610d2091906112dc565b60035460405163a2a1623d60e01b81529192506001600160a01b03169063a2a1623d908390610d5b908c908c908c908c908c90600401611303565b60006040518083038185885af1158015610d79573d6000803e3d6000fd5b50505050506040513d6000823e601f3d908101601f19168201604052610da291908101906111c7565b60015460045460405192955060008051602061133b83398151915292610dd3926001600160a01b0316913391611289565b60405180910390a15050610de76001600055565b95945050505050565b600260005403610e1357604051633ee5aeb560e01b815260040160405180910390fd5b6002600055565b610e7484856001600160a01b03166323b872dd868686604051602401610e4293929190611289565b604051602081830303815290604052915060e01b6020820180516001600160e01b038381831617835250505050610e7a565b50505050565b600080602060008451602086016000885af180610e9d576040513d6000823e3d81fd5b50506000513d91508115610eb5578060011415610ec2565b6001600160a01b0384163b155b15610e7457604051635274afe760e01b81526001600160a01b0385166004820152602401610248565b60008083601f840112610efd57600080fd5b50813567ffffffffffffffff811115610f1557600080fd5b6020830191508360208260051b8501011115610f3057600080fd5b9250929050565b80356001600160a01b0381168114610f4e57600080fd5b919050565b60008060008060008060a08789031215610f6c57600080fd5b8635955060208701359450604087013567ffffffffffffffff811115610f9157600080fd5b610f9d89828a01610eeb565b9095509350610fb0905060608801610f37565b95989497509295919493608090920135925050565b602080825282518282018190526000918401906040840190835b81811015610ffd578351835260209384019390920191600101610fdf565b509095945050505050565b60006020828403121561101a57600080fd5b5035919050565b60008060008060006080868803121561103957600080fd5b85359450602086013567ffffffffffffffff81111561105757600080fd5b61106388828901610eeb565b9095509350611076905060408701610f37565b949793965091946060013592915050565b6020808252602a908201527f4b4f4c53776170526f757465723a20494e53554646494349454e545f4e41544960408201526956455f464f525f46454560b01b606082015260800190565b634e487b7160e01b600052603260045260246000fd5b6000602082840312156110f957600080fd5b61110282610f37565b9392505050565b60006020828403121561111b57600080fd5b8151801515811461110257600080fd5b81835260208301925060008160005b84811015611169576001600160a01b0361115383610f37565b168652602095860195919091019060010161113a565b5093949350505050565b86815285602082015260a06040820152600061119360a08301868861112b565b6001600160a01b039490941660608301525060800152949350505050565b634e487b7160e01b600052604160045260246000fd5b6000602082840312156111d957600080fd5b815167ffffffffffffffff8111156111f057600080fd5b8201601f8101841361120157600080fd5b805167ffffffffffffffff81111561121b5761121b6111b1565b8060051b604051601f19603f830116810181811067ffffffffffffffff82111715611248576112486111b1565b60405291825260208184018101929081018784111561126657600080fd5b6020850194505b83851015610ad35784518082526020958601959093500161126d565b6001600160a01b039384168152919092166020820152604081019190915260600190565b6000825160005b818110156112ce57602081860181015185830152016112b4565b506000920191825250919050565b818103818111156112fd57634e487b7160e01b600052601160045260246000fd5b92915050565b85815260806020820152600061131d60808301868861112b565b6001600160a01b039490941660408301525060600152939250505056febad29f2bbbf6bb1e15563203bcdb0dd660c54eab078763eb66f797efa8f5e8c1a26469706673582212201c6c0c7e9525730ea39e3756fdb178906080d6a4b12cb1d013ed848dfbd3e73964736f6c634300081d0033a2646970667358221220d459bc687e7f3d9acfcaccd7266b72fff05e10bf850a7acd3566e9f9fc352f2564736f6c634300081d0033",
  "linkReferences": {},
  "deployedLinkReferences": {}
}