{
  "_format": "hh-sol-artifact-1",
  "contractName": "Sherry",
  "sourceName": "contracts/Sherry.sol",
  "abi": [
    {
      "inputs": [],
      "name": "EnforcedPause",
      "type": "error"
    },
    {
      "inputs": [],
      "name": "ExpectedPause",
      "type": "error"
    },
    {
      "inputs": [
        {
          "internalType": "address",
          "name": "owner",
          "type": "address"
        }
      ],
      "name": "OwnableInvalidOwner",
      "type": "error"
    },
    {
      "inputs": [
        {
          "internalType": "address",
          "name": "account",
          "type": "address"
        }
      ],
      "name": "OwnableUnauthorizedAccount",
      "type": "error"
    },
    {
      "anonymous": false,
      "inputs": [
        {
          "indexed": true,
          "internalType": "address",
          "name": "contractToBeCalled",
          "type": "address"
        },
        {
          "indexed": false,
          "internalType": "bytes",
          "name": "encodedFunctionCall",
          "type": "bytes"
        }
      ],
      "name": "FunctionExecuted",
      "type": "event"
    },
    {
      "anonymous": false,
      "inputs": [
        {
          "indexed": true,
          "internalType": "address",
          "name": "contractToBeCalled",
          "type": "address"
        },
        {
          "indexed": false,
          "internalType": "bytes",
          "name": "encodedFunctionCall",
          "type": "bytes"
        },
        {
          "indexed": false,
          "internalType": "string",
          "name": "reason",
          "type": "string"
        }
      ],
      "name": "FunctionFailed",
      "type": "event"
    },
    {
      "anonymous": false,
      "inputs": [
        {
          "indexed": true,
          "internalType": "address",
          "name": "previousOwner",
          "type": "address"
        },
        {
          "indexed": true,
          "internalType": "address",
          "name": "newOwner",
          "type": "address"
        }
      ],
      "name": "OwnershipTransferred",
      "type": "event"
    },
    {
      "anonymous": false,
      "inputs": [
        {
          "indexed": false,
          "internalType": "address",
          "name": "account",
          "type": "address"
        }
      ],
      "name": "Paused",
      "type": "event"
    },
    {
      "anonymous": false,
      "inputs": [
        {
          "indexed": false,
          "internalType": "address",
          "name": "account",
          "type": "address"
        }
      ],
      "name": "Unpaused",
      "type": "event"
    },
    {
      "inputs": [],
      "name": "MIN_DATA_LENGTH",
      "outputs": [
        {
          "internalType": "uint256",
          "name": "",
          "type": "uint256"
        }
      ],
      "stateMutability": "view",
      "type": "function"
    },
    {
      "inputs": [],
      "name": "owner",
      "outputs": [
        {
          "internalType": "address",
          "name": "",
          "type": "address"
        }
      ],
      "stateMutability": "view",
      "type": "function"
    },
    {
      "inputs": [],
      "name": "pause",
      "outputs": [],
      "stateMutability": "nonpayable",
      "type": "function"
    },
    {
      "inputs": [],
      "name": "paused",
      "outputs": [
        {
          "internalType": "bool",
          "name": "",
          "type": "bool"
        }
      ],
      "stateMutability": "view",
      "type": "function"
    },
    {
      "inputs": [],
      "name": "renounceOwnership",
      "outputs": [],
      "stateMutability": "nonpayable",
      "type": "function"
    },
    {
      "inputs": [
        {
          "internalType": "address",
          "name": "_contractToBeCalled",
          "type": "address"
        },
        {
          "internalType": "bytes",
          "name": "_encodedFunctionCall",
          "type": "bytes"
        }
      ],
      "name": "sendMessage",
      "outputs": [],
      "stateMutability": "payable",
      "type": "function"
    },
    {
      "inputs": [
        {
          "internalType": "address",
          "name": "newOwner",
          "type": "address"
        }
      ],
      "name": "transferOwnership",
      "outputs": [],
      "stateMutability": "nonpayable",
      "type": "function"
    },
    {
      "inputs": [],
      "name": "unpause",
      "outputs": [],
      "stateMutability": "nonpayable",
      "type": "function"
    },
    {
      "stateMutability": "payable",
      "type": "receive"
    }
  ],
  "bytecode": "0x608060405234801561001057600080fd5b5033600073ffffffffffffffffffffffffffffffffffffffff168173ffffffffffffffffffffffffffffffffffffffff16036100845760006040517f1e4fbdf700000000000000000000000000000000000000000000000000000000815260040161007b91906101b8565b60405180910390fd5b610093816100b360201b60201c565b5060008060146101000a81548160ff0219169083151502179055506101d3565b60008060009054906101000a900473ffffffffffffffffffffffffffffffffffffffff169050816000806101000a81548173ffffffffffffffffffffffffffffffffffffffff021916908373ffffffffffffffffffffffffffffffffffffffff1602179055508173ffffffffffffffffffffffffffffffffffffffff168173ffffffffffffffffffffffffffffffffffffffff167f8be0079c531659141344cd1fd0a4f28419497f9722a3daafe3b4186f6b6457e060405160405180910390a35050565b600073ffffffffffffffffffffffffffffffffffffffff82169050919050565b60006101a282610177565b9050919050565b6101b281610197565b82525050565b60006020820190506101cd60008301846101a9565b92915050565b610ed2806101e26000396000f3fe60806040526004361061007f5760003560e01c80638da5cb5b1161004e5780638da5cb5b14610134578063bb5ddb0f1461015f578063f2fde38b1461017b578063f32f9fe6146101a4576100bf565b80633f4ba83a146100c45780635c975abb146100db578063715018a6146101065780638456cb591461011d576100bf565b366100bf576040517f08c379a00000000000000000000000000000000000000000000000000000000081526004016100b690610854565b60405180910390fd5b600080fd5b3480156100d057600080fd5b506100d96101cf565b005b3480156100e757600080fd5b506100f06101e1565b6040516100fd919061088f565b60405180910390f35b34801561011257600080fd5b5061011b6101f7565b005b34801561012957600080fd5b5061013261020b565b005b34801561014057600080fd5b5061014961021d565b60405161015691906108eb565b60405180910390f35b61017960048036038101906101749190610a8c565b610246565b005b34801561018757600080fd5b506101a2600480360381019061019d9190610ae8565b610468565b005b3480156101b057600080fd5b506101b96104ee565b6040516101c69190610b2e565b60405180910390f35b6101d76104f3565b6101df61057a565b565b60008060149054906101000a900460ff16905090565b6101ff6104f3565b61020960006105dc565b565b6102136104f3565b61021b6106a0565b565b60008060009054906101000a900473ffffffffffffffffffffffffffffffffffffffff16905090565b61024e610703565b600073ffffffffffffffffffffffffffffffffffffffff168273ffffffffffffffffffffffffffffffffffffffff16036102bd576040517f08c379a00000000000000000000000000000000000000000000000000000000081526004016102b490610b95565b60405180910390fd5b600481511015610302576040517f08c379a00000000000000000000000000000000000000000000000000000000081526004016102f990610c01565b60405180910390fd5b6000808373ffffffffffffffffffffffffffffffffffffffff168360405161032a9190610c92565b600060405180830381855af49150503d8060008114610365576040519150601f19603f3d011682016040523d82523d6000602084013e61036a565b606091505b509150915081156103c8578373ffffffffffffffffffffffffffffffffffffffff167f8330397d1741789a83c8af0a6952d33b1c5340d05ddd772be57e25dafacdb51c846040516103bb9190610cf3565b60405180910390a2610462565b60006103d382610744565b90508473ffffffffffffffffffffffffffffffffffffffff167f1f391f2dd3b0a766dc5f05269fcf5ca960301deed8663bd0a9f34b96d0c0d057858360405161041d929190610d59565b60405180910390a2806040517f08c379a00000000000000000000000000000000000000000000000000000000081526004016104599190610d90565b60405180910390fd5b50505050565b6104706104f3565b600073ffffffffffffffffffffffffffffffffffffffff168173ffffffffffffffffffffffffffffffffffffffff16036104e25760006040517f1e4fbdf70000000000000000000000000000000000000000000000000000000081526004016104d991906108eb565b60405180910390fd5b6104eb816105dc565b50565b600481565b6104fb6107af565b73ffffffffffffffffffffffffffffffffffffffff1661051961021d565b73ffffffffffffffffffffffffffffffffffffffff16146105785761053c6107af565b6040517f118cdaa700000000000000000000000000000000000000000000000000000000815260040161056f91906108eb565b60405180910390fd5b565b6105826107b7565b60008060146101000a81548160ff0219169083151502179055507f5db9ee0a495bf2e6ff9c91a7834c1ba4fdd244a5e8aa4e537bd38aeae4b073aa6105c56107af565b6040516105d291906108eb565b60405180910390a1565b60008060009054906101000a900473ffffffffffffffffffffffffffffffffffffffff169050816000806101000a81548173ffffffffffffffffffffffffffffffffffffffff021916908373ffffffffffffffffffffffffffffffffffffffff1602179055508173ffffffffffffffffffffffffffffffffffffffff168173ffffffffffffffffffffffffffffffffffffffff167f8be0079c531659141344cd1fd0a4f28419497f9722a3daafe3b4186f6b6457e060405160405180910390a35050565b6106a8610703565b6001600060146101000a81548160ff0219169083151502179055507f62e78cea01bee320cd4e420270b5ea74000d11b0c9f74754ebdbfc544b05a2586106ec6107af565b6040516106f991906108eb565b60405180910390a1565b61070b6101e1565b15610742576040517fd93c066500000000000000000000000000000000000000000000000000000000815260040160405180910390fd5b565b606060448251101561078d576040518060400160405280601d81526020017f5472616e73616374696f6e2072657665727465642073696c656e746c7900000081525090506107aa565b600482019150818060200190518101906107a79190610e53565b90505b919050565b600033905090565b6107bf6101e1565b6107f5576040517f8dfc202b00000000000000000000000000000000000000000000000000000000815260040160405180910390fd5b565b600082825260208201905092915050565b7f44697265637420455448207472616e7366657273206e6f7420616c6c6f776564600082015250565b600061083e6020836107f7565b915061084982610808565b602082019050919050565b6000602082019050818103600083015261086d81610831565b9050919050565b60008115159050919050565b61088981610874565b82525050565b60006020820190506108a46000830184610880565b92915050565b600073ffffffffffffffffffffffffffffffffffffffff82169050919050565b60006108d5826108aa565b9050919050565b6108e5816108ca565b82525050565b600060208201905061090060008301846108dc565b92915050565b6000604051905090565b600080fd5b600080fd5b610923816108ca565b811461092e57600080fd5b50565b6000813590506109408161091a565b92915050565b600080fd5b600080fd5b6000601f19601f8301169050919050565b7f4e487b7100000000000000000000000000000000000000000000000000000000600052604160045260246000fd5b61099982610950565b810181811067ffffffffffffffff821117156109b8576109b7610961565b5b80604052505050565b60006109cb610906565b90506109d78282610990565b919050565b600067ffffffffffffffff8211156109f7576109f6610961565b5b610a0082610950565b9050602081019050919050565b82818337600083830152505050565b6000610a2f610a2a846109dc565b6109c1565b905082815260208101848484011115610a4b57610a4a61094b565b5b610a56848285610a0d565b509392505050565b600082601f830112610a7357610a72610946565b5b8135610a83848260208601610a1c565b91505092915050565b60008060408385031215610aa357610aa2610910565b5b6000610ab185828601610931565b925050602083013567ffffffffffffffff811115610ad257610ad1610915565b5b610ade85828601610a5e565b9150509250929050565b600060208284031215610afe57610afd610910565b5b6000610b0c84828501610931565b91505092915050565b6000819050919050565b610b2881610b15565b82525050565b6000602082019050610b436000830184610b1f565b92915050565b7f496e76616c696420636f6e747261637420616464726573730000000000000000600082015250565b6000610b7f6018836107f7565b9150610b8a82610b49565b602082019050919050565b60006020820190508181036000830152610bae81610b72565b9050919050565b7f496e76616c69642066756e6374696f6e2063616c6c2064617461000000000000600082015250565b6000610beb601a836107f7565b9150610bf682610bb5565b602082019050919050565b60006020820190508181036000830152610c1a81610bde565b9050919050565b600081519050919050565b600081905092915050565b60005b83811015610c55578082015181840152602081019050610c3a565b60008484015250505050565b6000610c6c82610c21565b610c768185610c2c565b9350610c86818560208601610c37565b80840191505092915050565b6000610c9e8284610c61565b915081905092915050565b600082825260208201905092915050565b6000610cc582610c21565b610ccf8185610ca9565b9350610cdf818560208601610c37565b610ce881610950565b840191505092915050565b60006020820190508181036000830152610d0d8184610cba565b905092915050565b600081519050919050565b6000610d2b82610d15565b610d3581856107f7565b9350610d45818560208601610c37565b610d4e81610950565b840191505092915050565b60006040820190508181036000830152610d738185610cba565b90508181036020830152610d878184610d20565b90509392505050565b60006020820190508181036000830152610daa8184610d20565b905092915050565b600067ffffffffffffffff821115610dcd57610dcc610961565b5b610dd682610950565b9050602081019050919050565b6000610df6610df184610db2565b6109c1565b905082815260208101848484011115610e1257610e1161094b565b5b610e1d848285610c37565b509392505050565b600082601f830112610e3a57610e39610946565b5b8151610e4a848260208601610de3565b91505092915050565b600060208284031215610e6957610e68610910565b5b600082015167ffffffffffffffff811115610e8757610e86610915565b5b610e9384828501610e25565b9150509291505056fea26469706673582212207b62d1785358e1013d06854e4210e1091faea554425709834da654d8b9058abc64736f6c63430008190033",
  "linkReferences": {},
  "deployedLinkReferences": {}
}