{
  "_format": "hh-sol-artifact-1",
  "contractName": "SL1MessageReceiver",
  "sourceName": "contracts/wormhole/SL1MessageReceiver.sol",
  "abi": [
    {
      "inputs": [
        {
          "internalType": "address",
          "name": "_wormholeRelayer",
          "type": "address"
        }
      ],
      "stateMutability": "nonpayable",
      "type": "constructor"
    },
    {
      "anonymous": false,
      "inputs": [
        {
          "indexed": false,
          "internalType": "string",
          "name": "message",
          "type": "string"
        }
      ],
      "name": "FunctionCallError",
      "type": "event"
    },
    {
      "anonymous": false,
      "inputs": [
        {
          "indexed": false,
          "internalType": "address",
          "name": "contractToBeCalled",
          "type": "address"
        },
        {
          "indexed": false,
          "internalType": "bytes",
          "name": "encodedFunctionCall",
          "type": "bytes"
        }
      ],
      "name": "FunctionExecuted",
      "type": "event"
    },
    {
      "anonymous": false,
      "inputs": [
        {
          "indexed": false,
          "internalType": "bytes32",
          "name": "sourceAddress",
          "type": "bytes32"
        },
        {
          "indexed": false,
          "internalType": "bytes",
          "name": "payload",
          "type": "bytes"
        }
      ],
      "name": "MessageInfoReceived",
      "type": "event"
    },
    {
      "anonymous": false,
      "inputs": [
        {
          "indexed": false,
          "internalType": "address",
          "name": "recipient",
          "type": "address"
        },
        {
          "indexed": false,
          "internalType": "uint256",
          "name": "amount",
          "type": "uint256"
        }
      ],
      "name": "RefundFailed",
      "type": "event"
    },
    {
      "anonymous": false,
      "inputs": [
        {
          "indexed": false,
          "internalType": "uint16",
          "name": "sourceChain",
          "type": "uint16"
        },
        {
          "indexed": false,
          "internalType": "bytes32",
          "name": "sourceAddress",
          "type": "bytes32"
        }
      ],
      "name": "SenderRegistered",
      "type": "event"
    },
    {
      "anonymous": false,
      "inputs": [
        {
          "indexed": false,
          "internalType": "uint16",
          "name": "sourceChain",
          "type": "uint16"
        },
        {
          "indexed": false,
          "internalType": "address",
          "name": "sender",
          "type": "address"
        }
      ],
      "name": "SourceChainLogged",
      "type": "event"
    },
    {
      "anonymous": false,
      "inputs": [
        {
          "indexed": true,
          "internalType": "address",
          "name": "owner",
          "type": "address"
        },
        {
          "indexed": false,
          "internalType": "uint256",
          "name": "amount",
          "type": "uint256"
        }
      ],
      "name": "Withdraw",
      "type": "event"
    },
    {
      "inputs": [
        {
          "internalType": "bytes",
          "name": "payload",
          "type": "bytes"
        },
        {
          "internalType": "bytes[]",
          "name": "",
          "type": "bytes[]"
        },
        {
          "internalType": "bytes32",
          "name": "sourceAddress",
          "type": "bytes32"
        },
        {
          "internalType": "uint16",
          "name": "sourceChain",
          "type": "uint16"
        },
        {
          "internalType": "bytes32",
          "name": "",
          "type": "bytes32"
        }
      ],
      "name": "receiveWormholeMessages",
      "outputs": [],
      "stateMutability": "payable",
      "type": "function"
    },
    {
      "inputs": [
        {
          "internalType": "uint16",
          "name": "",
          "type": "uint16"
        }
      ],
      "name": "s_registeredSenders",
      "outputs": [
        {
          "internalType": "bytes32",
          "name": "",
          "type": "bytes32"
        }
      ],
      "stateMutability": "view",
      "type": "function"
    },
    {
      "inputs": [],
      "name": "s_registrationOwner",
      "outputs": [
        {
          "internalType": "address",
          "name": "",
          "type": "address"
        }
      ],
      "stateMutability": "view",
      "type": "function"
    },
    {
      "inputs": [],
      "name": "s_wormholeRelayer",
      "outputs": [
        {
          "internalType": "contract IWormholeRelayer",
          "name": "",
          "type": "address"
        }
      ],
      "stateMutability": "view",
      "type": "function"
    },
    {
      "inputs": [
        {
          "internalType": "uint16",
          "name": "sourceChain",
          "type": "uint16"
        },
        {
          "internalType": "bytes32",
          "name": "sourceAddress",
          "type": "bytes32"
        }
      ],
      "name": "setRegisteredSender",
      "outputs": [],
      "stateMutability": "nonpayable",
      "type": "function"
    },
    {
      "inputs": [],
      "name": "withdraw",
      "outputs": [],
      "stateMutability": "nonpayable",
      "type": "function"
    }
  ],
  "bytecode": "0x6080604052348015600f57600080fd5b50604051610a3c380380610a3c833981016040819052602c916059565b600080546001600160a01b039092166001600160a01b031992831617905560018054909116331790556087565b600060208284031215606a57600080fd5b81516001600160a01b0381168114608057600080fd5b9392505050565b6109a6806100966000396000f3fe6080604052600436106100555760003560e01c80632277d3ae1461005a5780633ccfd60b14610097578063529dca32146100ae5780635bb60dc0146100c1578063d5f6297f146100e1578063dd12d68b1461011c575b600080fd5b34801561006657600080fd5b5060015461007a906001600160a01b031681565b6040516001600160a01b0390911681526020015b60405180910390f35b3480156100a357600080fd5b506100ac61013c565b005b6100ac6100bc36600461065c565b61021c565b3480156100cd57600080fd5b5060005461007a906001600160a01b031681565b3480156100ed57600080fd5b5061010e6100fc36600461077d565b60026020526000908152604090205481565b60405190815260200161008e565b34801561012857600080fd5b506100ac61013736600461079f565b610503565b6001546001600160a01b0316331461016f5760405162461bcd60e51b8152600401610166906107c9565b60405180910390fd5b47806101b65760405162461bcd60e51b81526020600482015260166024820152754e6f2062616c616e636520746f20776974686472617760501b6044820152606401610166565b604051339082156108fc029083906000818181858888f193505050501580156101e3573d6000803e3d6000fd5b5060405181815233907f884edad9ce6fa2440d8a54cc123490eb96d2768479d49ff9c7366125a94243649060200160405180910390a250565b61ffff821660009081526002602052604090205482908490811461027a5760405162461bcd60e51b815260206004820152601560248201527414d95b99195c881b9bdd081c9959da5cdd195c9959605a1b6044820152606401610166565b6000546001600160a01b031633146102ed5760405162461bcd60e51b815260206004820152603060248201527f4f6e6c792074686520576f726d686f6c652052656c617965722063616e20636160448201526f3636103a3434b990333ab731ba34b7b760811b6064820152608401610166565b7f77e3e724b03e55e5ad9e86363a3d566079ef39090c5961cbb68c5edd353e6517858860405161031e92919061085e565b60405180910390a160008060008980602001905181019061033f9190610896565b9250925092506000826001600160a01b031634836040516103609190610930565b60006040518083038185875af1925050503d806000811461039d576040519150601f19603f3d011682016040523d82523d6000602084013e6103a2565b606091505b50509050806104bc577f5ed95ef803f77d10f65e089de8b7058e25192b4b3435ab5ba620c5af6167dbd860405161040a906020808252601d908201527f4572726f7220657865637574696e672066756e6374696f6e2063616c6c000000604082015260600190565b60405180910390a134156104b7576000846001600160a01b03163460405160006040518083038185875af1925050503d8060008114610465576040519150601f19603f3d011682016040523d82523d6000602084013e61046a565b606091505b50509050806104b557604080516001600160a01b03871681523460208201527faf73b0b217208b61be286bbc37095bce7eb8b9ccf617244c2f0f154e8e04e3ff910160405180910390a15b505b6104f6565b7f8330397d1741789a83c8af0a6952d33b1c5340d05ddd772be57e25dafacdb51c83836040516104ed92919061094c565b60405180910390a15b5050505050505050505050565b6001546001600160a01b0316331461052d5760405162461bcd60e51b8152600401610166906107c9565b61ffff8216600081815260026020908152604091829020849055815192835282018390527f1042215c906c4f298080457b6ca52368f97c2627acd368055d7c3576876d4882910160405180910390a15050565b634e487b7160e01b600052604160045260246000fd5b604051601f8201601f1916810167ffffffffffffffff811182821017156105bf576105bf610580565b604052919050565b600067ffffffffffffffff8211156105e1576105e1610580565b50601f01601f191660200190565b600082601f83011261060057600080fd5b813561061361060e826105c7565b610596565b81815284602083860101111561062857600080fd5b816020850160208301376000918101602001919091529392505050565b803561ffff8116811461065757600080fd5b919050565b600080600080600060a0868803121561067457600080fd5b853567ffffffffffffffff81111561068b57600080fd5b610697888289016105ef565b955050602086013567ffffffffffffffff8111156106b457600080fd5b8601601f810188136106c557600080fd5b803567ffffffffffffffff8111156106df576106df610580565b8060051b6106ef60208201610596565b9182526020818401810192908101908b84111561070b57600080fd5b6020850192505b8383101561075257823567ffffffffffffffff81111561073157600080fd5b6107408d6020838901016105ef565b83525060209283019290910190610712565b97505050506040870135935061076c905060608701610645565b949793965091946080013592915050565b60006020828403121561078f57600080fd5b61079882610645565b9392505050565b600080604083850312156107b257600080fd5b6107bb83610645565b946020939093013593505050565b60208082526025908201527f4f6e6c7920746865206f776e65722063616e2063616c6c20746869732066756e60408201526431ba34b7b760d91b606082015260800190565b60005b83811015610829578181015183820152602001610811565b50506000910152565b6000815180845261084a81602086016020860161080e565b601f01601f19169290920160200192915050565b8281526040602082015260006108776040830184610832565b949350505050565b80516001600160a01b038116811461065757600080fd5b6000806000606084860312156108ab57600080fd5b6108b48461087f565b92506108c26020850161087f565b9150604084015167ffffffffffffffff8111156108de57600080fd5b8401601f810186136108ef57600080fd5b80516108fd61060e826105c7565b81815287602083850101111561091257600080fd5b61092382602083016020860161080e565b8093505050509250925092565b6000825161094281846020870161080e565b9190910192915050565b6001600160a01b03831681526040602082018190526000906108779083018461083256fea2646970667358221220cdfa2a3c31b69e85d02f8fc97c1681ae1ec29256c4269e6019df2b448d8f99de64736f6c634300081d0033",
  "linkReferences": {},
  "deployedLinkReferences": {}
}