{
  "_format": "hh-sol-artifact-1",
  "contractName": "SL1MessageSender",
  "sourceName": "contracts/wormhole/SL1MessageSender.sol",
  "abi": [
    {
      "inputs": [
        {
          "internalType": "address",
          "name": "_wormholeRelayer",
          "type": "address"
        },
        {
          "internalType": "uint16",
          "name": "_originChain",
          "type": "uint16"
        }
      ],
      "stateMutability": "nonpayable",
      "type": "constructor"
    },
    {
      "anonymous": false,
      "inputs": [
        {
          "indexed": true,
          "internalType": "address",
          "name": "contractToBeCalled",
          "type": "address"
        },
        {
          "indexed": false,
          "internalType": "bytes",
          "name": "encodedFunctionCall",
          "type": "bytes"
        },
        {
          "indexed": false,
          "internalType": "address",
          "name": "destinationAddress",
          "type": "address"
        },
        {
          "indexed": false,
          "internalType": "bytes32",
          "name": "destinationChain",
          "type": "bytes32"
        }
      ],
      "name": "MessageSent",
      "type": "event"
    },
    {
      "anonymous": false,
      "inputs": [
        {
          "indexed": true,
          "internalType": "address",
          "name": "owner",
          "type": "address"
        },
        {
          "indexed": false,
          "internalType": "uint256",
          "name": "amount",
          "type": "uint256"
        }
      ],
      "name": "Withdraw",
      "type": "event"
    },
    {
      "inputs": [],
      "name": "GAS_LIMIT",
      "outputs": [
        {
          "internalType": "uint256",
          "name": "",
          "type": "uint256"
        }
      ],
      "stateMutability": "view",
      "type": "function"
    },
    {
      "inputs": [],
      "name": "ORIGIN_CHAIN",
      "outputs": [
        {
          "internalType": "uint16",
          "name": "",
          "type": "uint16"
        }
      ],
      "stateMutability": "view",
      "type": "function"
    },
    {
      "inputs": [
        {
          "internalType": "address",
          "name": "_contractToBeCalled",
          "type": "address"
        },
        {
          "internalType": "bytes",
          "name": "_encodedFunctionCall",
          "type": "bytes"
        }
      ],
      "name": "encodeMessage",
      "outputs": [
        {
          "internalType": "bytes",
          "name": "",
          "type": "bytes"
        }
      ],
      "stateMutability": "view",
      "type": "function"
    },
    {
      "inputs": [],
      "name": "owner",
      "outputs": [
        {
          "internalType": "address",
          "name": "",
          "type": "address"
        }
      ],
      "stateMutability": "view",
      "type": "function"
    },
    {
      "inputs": [
        {
          "internalType": "uint16",
          "name": "_targetChain",
          "type": "uint16"
        },
        {
          "internalType": "uint256",
          "name": "_receiverValue",
          "type": "uint256"
        },
        {
          "internalType": "uint256",
          "name": "_gasLimit",
          "type": "uint256"
        }
      ],
      "name": "quoteCrossChainCost",
      "outputs": [
        {
          "internalType": "uint256",
          "name": "cost",
          "type": "uint256"
        }
      ],
      "stateMutability": "view",
      "type": "function"
    },
    {
      "inputs": [],
      "name": "s_wormholeRelayer",
      "outputs": [
        {
          "internalType": "contract IWormholeRelayer",
          "name": "",
          "type": "address"
        }
      ],
      "stateMutability": "view",
      "type": "function"
    },
    {
      "inputs": [
        {
          "internalType": "uint16",
          "name": "_targetChain",
          "type": "uint16"
        },
        {
          "internalType": "address",
          "name": "_receiverAddress",
          "type": "address"
        },
        {
          "internalType": "address",
          "name": "_contractToBeCalled",
          "type": "address"
        },
        {
          "internalType": "bytes",
          "name": "_encodedFunctionCall",
          "type": "bytes"
        },
        {
          "internalType": "uint256",
          "name": "_gasLimit",
          "type": "uint256"
        },
        {
          "internalType": "uint256",
          "name": "_receiverValue",
          "type": "uint256"
        }
      ],
      "name": "sendMessage",
      "outputs": [],
      "stateMutability": "payable",
      "type": "function"
    },
    {
      "inputs": [
        {
          "internalType": "uint256",
          "name": "_gasLimit",
          "type": "uint256"
        }
      ],
      "name": "setGasLimit",
      "outputs": [],
      "stateMutability": "nonpayable",
      "type": "function"
    },
    {
      "inputs": [],
      "name": "withdraw",
      "outputs": [],
      "stateMutability": "nonpayable",
      "type": "function"
    }
  ],
  "bytecode": "0x60a0604052620c350060025534801561001757600080fd5b506040516109bb3803806109bb8339810160408190526100369161006b565b600080546001600160a01b039093166001600160a01b031993841617905561ffff1660805260018054909116331790556100b8565b6000806040838503121561007e57600080fd5b82516001600160a01b038116811461009557600080fd5b602084015190925061ffff811681146100ad57600080fd5b809150509250929050565b6080516108e16100da6000396000818161011501526103d801526108e16000f3fe6080604052600436106100865760003560e01c80638da5cb5b116100595780638da5cb5b1461014a578063c0d9f4b61461016a578063d07de2801461017d578063d326d82f146101aa578063ee7d72b4146101ca57600080fd5b8063091d27881461008b5780633ccfd60b146100b45780635bb60dc0146100cb57806373e0c2d714610103575b600080fd5b34801561009757600080fd5b506100a160025481565b6040519081526020015b60405180910390f35b3480156100c057600080fd5b506100c96101ea565b005b3480156100d757600080fd5b506000546100eb906001600160a01b031681565b6040516001600160a01b0390911681526020016100ab565b34801561010f57600080fd5b506101377f000000000000000000000000000000000000000000000000000000000000000081565b60405161ffff90911681526020016100ab565b34801561015657600080fd5b506001546100eb906001600160a01b031681565b6100c9610178366004610607565b6102ca565b34801561018957600080fd5b5061019d610198366004610688565b610450565b6040516100ab919061071c565b3480156101b657600080fd5b506100a16101c5366004610736565b61047e565b3480156101d657600080fd5b506100c96101e5366004610769565b610505565b6001546001600160a01b0316331461021d5760405162461bcd60e51b815260040161021490610782565b60405180910390fd5b47806102645760405162461bcd60e51b81526020600482015260166024820152754e6f2062616c616e636520746f20776974686472617760501b6044820152606401610214565b604051339082156108fc029083906000818181858888f19350505050158015610291573d6000803e3d6000fd5b5060405181815233907f884edad9ce6fa2440d8a54cc123490eb96d2768479d49ff9c7366125a94243649060200160405180910390a250565b6002548211156103285760405162461bcd60e51b815260206004820152602360248201527f476173206c696d6974206578636565647320746865206d6178696d756d206c696044820152621b5a5d60ea1b6064820152608401610214565b60006103348585610450565b9050600061034388848661047e565b9050803410156103a45760405162461bcd60e51b815260206004820152602660248201527f496e73756666696369656e742066756e647320746f2073656e6420746865206d60448201526565737361676560d01b6064820152608401610214565b6000546040516312d729bd60e21b81526001600160a01b0390911690634b5ca6f4908390610402908c908c9088908a908c907f00000000000000000000000000000000000000000000000000000000000000009033906004016107c7565b60206040518083038185885af1158015610420573d6000803e3d6000fd5b50505050506040513d601f19601f820116820180604052508101906104459190610828565b505050505050505050565b606033838360405160200161046793929190610852565b604051602081830303815290604052905092915050565b6000805460405163c23ee3c360e01b815261ffff8616600482015260248101859052604481018490526001600160a01b039091169063c23ee3c3906064016040805180830381865afa1580156104d8573d6000803e3d6000fd5b505050506040513d601f19601f820116820180604052508101906104fc9190610887565b50949350505050565b6001546001600160a01b0316331461052f5760405162461bcd60e51b815260040161021490610782565b600255565b803561ffff8116811461054657600080fd5b919050565b80356001600160a01b038116811461054657600080fd5b634e487b7160e01b600052604160045260246000fd5b600082601f83011261058957600080fd5b813567ffffffffffffffff8111156105a3576105a3610562565b604051601f8201601f19908116603f0116810167ffffffffffffffff811182821017156105d2576105d2610562565b6040528181528382016020018510156105ea57600080fd5b816020850160208301376000918101602001919091529392505050565b60008060008060008060c0878903121561062057600080fd5b61062987610534565b95506106376020880161054b565b94506106456040880161054b565b9350606087013567ffffffffffffffff81111561066157600080fd5b61066d89828a01610578565b9699959850939660808101359560a090910135945092505050565b6000806040838503121561069b57600080fd5b6106a48361054b565b9150602083013567ffffffffffffffff8111156106c057600080fd5b6106cc85828601610578565b9150509250929050565b6000815180845260005b818110156106fc576020818501810151868301820152016106e0565b506000602082860101526020601f19601f83011685010191505092915050565b60208152600061072f60208301846106d6565b9392505050565b60008060006060848603121561074b57600080fd5b61075484610534565b95602085013595506040909401359392505050565b60006020828403121561077b57600080fd5b5035919050565b60208082526025908201527f4f6e6c7920746865206f776e65722063616e2063616c6c20746869732066756e60408201526431ba34b7b760d91b606082015260800190565b61ffff881681526001600160a01b038716602082015260e0604082018190526000906107f5908301886106d6565b606083019690965250608081019390935261ffff9190911660a08301526001600160a01b031660c0909101529392505050565b60006020828403121561083a57600080fd5b815167ffffffffffffffff8116811461072f57600080fd5b6001600160a01b0384811682528316602082015260606040820181905260009061087e908301846106d6565b95945050505050565b6000806040838503121561089a57600080fd5b50508051602090910151909290915056fea2646970667358221220a5e77f0f74d1cfea1eb0d77c69f7b13cfab5f22f18a4b6fa248d853c9f064c3864736f6c634300081d0033",
  "linkReferences": {},
  "deployedLinkReferences": {}
}