{
  "_format": "hh-sol-artifact-1",
  "contractName": "SL1Sender",
  "sourceName": "contracts/ICP/SL1Sender.sol",
  "abi": [
    {
      "inputs": [
        {
          "internalType": "address",
          "name": "_contractToBeCalled",
          "type": "address"
        },
        {
          "internalType": "bytes",
          "name": "_encodedFunctionCall",
          "type": "bytes"
        }
      ],
      "name": "createArbitraryMessage",
      "outputs": [
        {
          "internalType": "bytes",
          "name": "",
          "type": "bytes"
        }
      ],
      "stateMutability": "pure",
      "type": "function"
    },
    {
      "inputs": [],
      "name": "messenger",
      "outputs": [
        {
          "internalType": "contract ITeleporterMessenger",
          "name": "",
          "type": "address"
        }
      ],
      "stateMutability": "view",
      "type": "function"
    },
    {
      "inputs": [
        {
          "internalType": "address",
          "name": "_contractToBeCalled",
          "type": "address"
        },
        {
          "internalType": "bytes",
          "name": "_encodedFunctionCall",
          "type": "bytes"
        },
        {
          "internalType": "address",
          "name": "_destinationAdress",
          "type": "address"
        },
        {
          "internalType": "bytes32",
          "name": "_destinationChain",
          "type": "bytes32"
        },
        {
          "internalType": "uint256",
          "name": "_gasLimit",
          "type": "uint256"
        }
      ],
      "name": "sendMessage",
      "outputs": [],
      "stateMutability": "nonpayable",
      "type": "function"
    }
  ],
  "bytecode": "0x608060405273253b2784c75e510dd0ff1da844684a1ac0aa5fcf6000806101000a81548173ffffffffffffffffffffffffffffffffffffffff021916908373ffffffffffffffffffffffffffffffffffffffff160217905550348015606357600080fd5b50610a08806100736000396000f3fe608060405234801561001057600080fd5b50600436106100415760003560e01c80633cb747bf146100465780636763951c14610064578063ce02689714610094575b600080fd5b61004e6100b0565b60405161005b9190610334565b60405180910390f35b61007e600480360381019061007991906104e7565b6100d4565b60405161008b91906105c2565b60405180910390f35b6100ae60048036038101906100a991906106b0565b610106565b005b60008054906101000a900473ffffffffffffffffffffffffffffffffffffffff1681565b6060600083836040516020016100eb929190610759565b60405160208183030381529060405290508091505092915050565b60006101568787878080601f016020809104026020016040519081016040528093929190818152602001838380828437600081840152601f19601f820116905080830192505050505050506100d4565b905060008054906101000a900473ffffffffffffffffffffffffffffffffffffffff1673ffffffffffffffffffffffffffffffffffffffff1663624488506040518060c001604052808681526020018773ffffffffffffffffffffffffffffffffffffffff1681526020016040518060400160405280600073ffffffffffffffffffffffffffffffffffffffff16815260200160008152508152602001858152602001600067ffffffffffffffff811115610214576102136103bc565b5b6040519080825280602002602001820160405280156102425781602001602082028036833780820191505090505b508152602001848152506040518263ffffffff1660e01b8152600401610268919061096e565b6020604051808303816000875af1158015610287573d6000803e3d6000fd5b505050506040513d601f19601f820116820180604052508101906102ab91906109a5565b5050505050505050565b600073ffffffffffffffffffffffffffffffffffffffff82169050919050565b6000819050919050565b60006102fa6102f56102f0846102b5565b6102d5565b6102b5565b9050919050565b600061030c826102df565b9050919050565b600061031e82610301565b9050919050565b61032e81610313565b82525050565b60006020820190506103496000830184610325565b92915050565b6000604051905090565b600080fd5b600080fd5b600061036e826102b5565b9050919050565b61037e81610363565b811461038957600080fd5b50565b60008135905061039b81610375565b92915050565b600080fd5b600080fd5b6000601f19601f8301169050919050565b7f4e487b7100000000000000000000000000000000000000000000000000000000600052604160045260246000fd5b6103f4826103ab565b810181811067ffffffffffffffff82111715610413576104126103bc565b5b80604052505050565b600061042661034f565b905061043282826103eb565b919050565b600067ffffffffffffffff821115610452576104516103bc565b5b61045b826103ab565b9050602081019050919050565b82818337600083830152505050565b600061048a61048584610437565b61041c565b9050828152602081018484840111156104a6576104a56103a6565b5b6104b1848285610468565b509392505050565b600082601f8301126104ce576104cd6103a1565b5b81356104de848260208601610477565b91505092915050565b600080604083850312156104fe576104fd610359565b5b600061050c8582860161038c565b925050602083013567ffffffffffffffff81111561052d5761052c61035e565b5b610539858286016104b9565b9150509250929050565b600081519050919050565b600082825260208201905092915050565b60005b8381101561057d578082015181840152602081019050610562565b60008484015250505050565b600061059482610543565b61059e818561054e565b93506105ae81856020860161055f565b6105b7816103ab565b840191505092915050565b600060208201905081810360008301526105dc8184610589565b905092915050565b600080fd5b600080fd5b60008083601f840112610604576106036103a1565b5b8235905067ffffffffffffffff811115610621576106206105e4565b5b60208301915083600182028301111561063d5761063c6105e9565b5b9250929050565b6000819050919050565b61065781610644565b811461066257600080fd5b50565b6000813590506106748161064e565b92915050565b6000819050919050565b61068d8161067a565b811461069857600080fd5b50565b6000813590506106aa81610684565b92915050565b60008060008060008060a087890312156106cd576106cc610359565b5b60006106db89828a0161038c565b965050602087013567ffffffffffffffff8111156106fc576106fb61035e565b5b61070889828a016105ee565b9550955050604061071b89828a0161038c565b935050606061072c89828a01610665565b925050608061073d89828a0161069b565b9150509295509295509295565b61075381610363565b82525050565b600060408201905061076e600083018561074a565b81810360208301526107808184610589565b90509392505050565b61079281610644565b82525050565b6107a181610363565b82525050565b6107b08161067a565b82525050565b6040820160008201516107cc6000850182610798565b5060208201516107df60208501826107a7565b50505050565b600081519050919050565b600082825260208201905092915050565b6000819050602082019050919050565b600061081d8383610798565b60208301905092915050565b6000602082019050919050565b6000610841826107e5565b61084b81856107f0565b935061085683610801565b8060005b8381101561088757815161086e8882610811565b975061087983610829565b92505060018101905061085a565b5085935050505092915050565b600082825260208201905092915050565b60006108b082610543565b6108ba8185610894565b93506108ca81856020860161055f565b6108d3816103ab565b840191505092915050565b600060e0830160008301516108f66000860182610789565b5060208301516109096020860182610798565b50604083015161091c60408601826107b6565b50606083015161092f60808601826107a7565b50608083015184820360a08601526109478282610836565b91505060a083015184820360c086015261096182826108a5565b9150508091505092915050565b6000602082019050818103600083015261098881846108de565b905092915050565b60008151905061099f8161064e565b92915050565b6000602082840312156109bb576109ba610359565b5b60006109c984828501610990565b9150509291505056fea26469706673582212202bfcf0c98a1039ad3653b0251178932ede1af921d3434fa9cb8b5d1d5202450164736f6c63430008190033",
  "linkReferences": {},
  "deployedLinkReferences": {}
}