{
  "_format": "hh-sol-artifact-1",
  "contractName": "KOLRouterSomniaV2TwoFunc",
  "sourceName": "contracts/kol-router/somnia/KOLRouterSomniaV2TwoFunc.sol",
  "abi": [
    {
      "anonymous": false,
      "inputs": [
        {
          "indexed": true,
          "internalType": "address",
          "name": "kol",
          "type": "address"
        },
        {
          "indexed": true,
          "internalType": "address",
          "name": "trader",
          "type": "address"
        },
        {
          "indexed": false,
          "internalType": "address",
          "name": "tokenIn",
          "type": "address"
        },
        {
          "indexed": true,
          "internalType": "address",
          "name": "tokenOut",
          "type": "address"
        },
        {
          "indexed": false,
          "internalType": "uint256",
          "name": "amountIn",
          "type": "uint256"
        },
        {
          "indexed": false,
          "internalType": "uint256",
          "name": "kolFee",
          "type": "uint256"
        },
        {
          "indexed": false,
          "internalType": "uint256",
          "name": "foundationFee",
          "type": "uint256"
        },
        {
          "indexed": false,
          "internalType": "uint256",
          "name": "treasuryFee",
          "type": "uint256"
        }
      ],
      "name": "SwapExecuted",
      "type": "event"
    },
    {
      "inputs": [],
      "name": "dexRouter",
      "outputs": [
        {
          "internalType": "address",
          "name": "",
          "type": "address"
        }
      ],
      "stateMutability": "view",
      "type": "function"
    },
    {
      "inputs": [],
      "name": "factory",
      "outputs": [
        {
          "internalType": "contract IKOLFactory",
          "name": "",
          "type": "address"
        }
      ],
      "stateMutability": "view",
      "type": "function"
    },
    {
      "inputs": [
        {
          "internalType": "address",
          "name": "_kol",
          "type": "address"
        },
        {
          "internalType": "address",
          "name": "_dex",
          "type": "address"
        },
        {
          "internalType": "address",
          "name": "_factory",
          "type": "address"
        },
        {
          "internalType": "address",
          "name": "_foundation",
          "type": "address"
        },
        {
          "internalType": "address",
          "name": "_treasury",
          "type": "address"
        }
      ],
      "name": "initialize",
      "outputs": [],
      "stateMutability": "nonpayable",
      "type": "function"
    },
    {
      "inputs": [],
      "name": "kolAddress",
      "outputs": [
        {
          "internalType": "address",
          "name": "",
          "type": "address"
        }
      ],
      "stateMutability": "view",
      "type": "function"
    },
    {
      "inputs": [],
      "name": "sherryFoundationAddress",
      "outputs": [
        {
          "internalType": "address",
          "name": "",
          "type": "address"
        }
      ],
      "stateMutability": "view",
      "type": "function"
    },
    {
      "inputs": [],
      "name": "sherryTreasuryAddress",
      "outputs": [
        {
          "internalType": "address",
          "name": "",
          "type": "address"
        }
      ],
      "stateMutability": "view",
      "type": "function"
    },
    {
      "inputs": [
        {
          "internalType": "uint256",
          "name": "amtOutMin",
          "type": "uint256"
        },
        {
          "internalType": "address[]",
          "name": "path",
          "type": "address[]"
        },
        {
          "internalType": "address",
          "name": "to",
          "type": "address"
        },
        {
          "internalType": "uint256",
          "name": "deadline",
          "type": "uint256"
        }
      ],
      "name": "swapExactAVAXForTokens",
      "outputs": [
        {
          "internalType": "uint256[]",
          "name": "amounts",
          "type": "uint256[]"
        }
      ],
      "stateMutability": "payable",
      "type": "function"
    },
    {
      "inputs": [
        {
          "internalType": "uint256",
          "name": "amtIn",
          "type": "uint256"
        },
        {
          "internalType": "uint256",
          "name": "amtOutMin",
          "type": "uint256"
        },
        {
          "internalType": "address[]",
          "name": "path",
          "type": "address[]"
        },
        {
          "internalType": "address",
          "name": "to",
          "type": "address"
        },
        {
          "internalType": "uint256",
          "name": "deadline",
          "type": "uint256"
        }
      ],
      "name": "swapExactTokensForTokens",
      "outputs": [
        {
          "internalType": "uint256[]",
          "name": "amounts",
          "type": "uint256[]"
        }
      ],
      "stateMutability": "nonpayable",
      "type": "function"
    },
    {
      "inputs": [
        {
          "internalType": "address[]",
          "name": "toks",
          "type": "address[]"
        }
      ],
      "name": "withdrawKOLFees",
      "outputs": [],
      "stateMutability": "nonpayable",
      "type": "function"
    },
    {
      "stateMutability": "payable",
      "type": "receive"
    }
  ],
  "bytecode": "0x6080604052348015600f57600080fd5b5061172a8061001f6000396000f3fe60806040526004361061009a5760003560e01c806346cc445011610069578063a2a1623d1161004e578063a2a1623d146101c6578063b8590ded146101d9578063c45a01551461020657600080fd5b806346cc4450146101795780635d79d9ea1461019957600080fd5b80630758d924146100a65780631459457a146100fd57806337dad2bb1461011f57806338ed17391461014c57600080fd5b366100a157005b600080fd5b3480156100b257600080fd5b506002546100d39073ffffffffffffffffffffffffffffffffffffffff1681565b60405173ffffffffffffffffffffffffffffffffffffffff90911681526020015b60405180910390f35b34801561010957600080fd5b5061011d61011836600461119e565b610233565b005b34801561012b57600080fd5b506000546100d39073ffffffffffffffffffffffffffffffffffffffff1681565b34801561015857600080fd5b5061016c61016736600461124f565b61037f565b6040516100f491906112c1565b34801561018557600080fd5b5061011d610194366004611304565b610775565b3480156101a557600080fd5b506003546100d39073ffffffffffffffffffffffffffffffffffffffff1681565b61016c6101d4366004611346565b610a9f565b3480156101e557600080fd5b506004546100d39073ffffffffffffffffffffffffffffffffffffffff1681565b34801561021257600080fd5b506001546100d39073ffffffffffffffffffffffffffffffffffffffff1681565b60045474010000000000000000000000000000000000000000900460ff16156102bd576040517f08c379a000000000000000000000000000000000000000000000000000000000815260206004820152601360248201527f416c726561647920696e697469616c697a65640000000000000000000000000060448201526064015b60405180910390fd5b600080547fffffffffffffffffffffffff000000000000000000000000000000000000000090811673ffffffffffffffffffffffffffffffffffffffff978816179091556002805482169587169590951790945560018054851693861693909317835560038054909416918516919091179092556004805460059290925574010000000000000000000000000000000000000000929093167fffffffffffffffffffffff00000000000000000000000000000000000000000090911617179055565b60606005546001146103ed576040517f08c379a000000000000000000000000000000000000000000000000000000000815260206004820152600960248201527f5265656e7472616e74000000000000000000000000000000000000000000000060448201526064016102b4565b60026005558484600081610403576104036113ac565b905060200201602081019061041891906113db565b6040517f23b872dd0000000000000000000000000000000000000000000000000000000081523360048201523060248201526044810189905273ffffffffffffffffffffffffffffffffffffffff91909116906323b872dd906064016020604051808303816000875af1158015610493573d6000803e3d6000fd5b505050506040513d601f19601f820116820180604052508101906104b791906113fd565b506000806000806104ef8b8a8a60008181106104d5576104d56113ac565b90506020020160208101906104ea91906113db565b610ca5565b93509350935093508888600081811061050a5761050a6113ac565b905060200201602081019061051f91906113db565b6002546040517f095ea7b300000000000000000000000000000000000000000000000000000000815273ffffffffffffffffffffffffffffffffffffffff91821660048201526024810187905291169063095ea7b3906044016020604051808303816000875af1158015610597573d6000803e3d6000fd5b505050506040513d601f19601f820116820180604052508101906105bb91906113fd565b506002546040517f38ed173900000000000000000000000000000000000000000000000000000000815273ffffffffffffffffffffffffffffffffffffffff909116906338ed17399061061c9087908e908e908e908e908e90600401611474565b6000604051808303816000875af115801561063b573d6000803e3d6000fd5b505050506040513d6000823e601f3d9081017fffffffffffffffffffffffffffffffffffffffffffffffffffffffffffffffe016820160405261068191908101906114ee565b94508888610690600182611608565b81811061069f5761069f6113ac565b90506020020160208101906106b491906113db565b6000805473ffffffffffffffffffffffffffffffffffffffff9283169233929116907f0eb2fb6fb4f62eb5c90ee731e061079799a1eb32d2023f69801b8cee5e740a91908d908d9081610709576107096113ac565b905060200201602081019061071e91906113db565b6040805173ffffffffffffffffffffffffffffffffffffffff9092168252602082018a90528101889052606081018790526080810186905260a00160405180910390a4505060016005555090979650505050505050565b6005546001146107e1576040517f08c379a000000000000000000000000000000000000000000000000000000000815260206004820152600960248201527f5265656e7472616e74000000000000000000000000000000000000000000000060448201526064016102b4565b600260055560005473ffffffffffffffffffffffffffffffffffffffff163314610867576040517f08c379a000000000000000000000000000000000000000000000000000000000815260206004820152600860248201527f4f6e6c79204b4f4c00000000000000000000000000000000000000000000000060448201526064016102b4565b47156108b6576000805460405173ffffffffffffffffffffffffffffffffffffffff909116914780156108fc02929091818181858888f193505050501580156108b4573d6000803e3d6000fd5b505b60005b81811015610a955760008383838181106108d5576108d56113ac565b90506020020160208101906108ea91906113db565b73ffffffffffffffffffffffffffffffffffffffff1614610a8d576000838383818110610919576109196113ac565b905060200201602081019061092e91906113db565b6040517f70a0823100000000000000000000000000000000000000000000000000000000815230600482015273ffffffffffffffffffffffffffffffffffffffff91909116906370a0823190602401602060405180830381865afa15801561099a573d6000803e3d6000fd5b505050506040513d601f19601f820116820180604052508101906109be9190611621565b90508015610a8b578383838181106109d8576109d86113ac565b90506020020160208101906109ed91906113db565b6000546040517fa9059cbb00000000000000000000000000000000000000000000000000000000815273ffffffffffffffffffffffffffffffffffffffff91821660048201526024810184905291169063a9059cbb906044016020604051808303816000875af1158015610a65573d6000803e3d6000fd5b505050506040513d601f19601f82011682018060405250810190610a8991906113fd565b505b505b6001016108b9565b5050600160055550565b6060600554600114610b0d576040517f08c379a000000000000000000000000000000000000000000000000000000000815260206004820152600960248201527f5265656e7472616e74000000000000000000000000000000000000000000000060448201526064016102b4565b60026005556000808080610b213482610ca5565b6002546040517fa2a1623d000000000000000000000000000000000000000000000000000000008152949850929650909450925073ffffffffffffffffffffffffffffffffffffffff169063a2a1623d908690610b8a908e908e908e908e908e9060040161163a565b60006040518083038185885af1158015610ba8573d6000803e3d6000fd5b50505050506040513d6000823e601f3d9081017fffffffffffffffffffffffffffffffffffffffffffffffffffffffffffffffe0168201604052610bef91908101906114ee565b94508888610bfe600182611608565b818110610c0d57610c0d6113ac565b9050602002016020810190610c2291906113db565b6000805460408051928352602083018890528201869052606082018590526080820184905273ffffffffffffffffffffffffffffffffffffffff9283169233929116907f0eb2fb6fb4f62eb5c90ee731e061079799a1eb32d2023f69801b8cee5e740a919060a00160405180910390a45050600160055550909695505050505050565b6000806000806000600160009054906101000a900473ffffffffffffffffffffffffffffffffffffffff1673ffffffffffffffffffffffffffffffffffffffff166397a18e5f6040518163ffffffff1660e01b8152600401602060405180830381865afa158015610d1a573d6000803e3d6000fd5b505050506040513d601f19601f82011682018060405250810190610d3e919061167e565b905060008161ffff16600160009054906101000a900473ffffffffffffffffffffffffffffffffffffffff1673ffffffffffffffffffffffffffffffffffffffff1663a014cd636040518163ffffffff1660e01b8152600401602060405180830381865afa158015610db4573d6000803e3d6000fd5b505050506040513d601f19601f82011682018060405250810190610dd8919061167e565b610de69061ffff168a6116a2565b610df091906116b9565b905060008261ffff16600160009054906101000a900473ffffffffffffffffffffffffffffffffffffffff1673ffffffffffffffffffffffffffffffffffffffff16636920defc6040518163ffffffff1660e01b8152600401602060405180830381865afa158015610e66573d6000803e3d6000fd5b505050506040513d601f19601f82011682018060405250810190610e8a919061167e565b610e989061ffff168b6116a2565b610ea291906116b9565b905060008361ffff16600160009054906101000a900473ffffffffffffffffffffffffffffffffffffffff1673ffffffffffffffffffffffffffffffffffffffff1663f5041d4b6040518163ffffffff1660e01b8152600401602060405180830381865afa158015610f18573d6000803e3d6000fd5b505050506040513d601f19601f82011682018060405250810190610f3c919061167e565b610f4a9061ffff168c6116a2565b610f5491906116b9565b905073ffffffffffffffffffffffffffffffffffffffff89166110065760035460405173ffffffffffffffffffffffffffffffffffffffff9091169083156108fc029084906000818181858888f19350505050158015610fb8573d6000803e3d6000fd5b5060045460405173ffffffffffffffffffffffffffffffffffffffff9091169082156108fc029083906000818181858888f19350505050158015611000573d6000803e3d6000fd5b50611145565b6003546040517fa9059cbb00000000000000000000000000000000000000000000000000000000815273ffffffffffffffffffffffffffffffffffffffff918216600482015260248101849052908a169063a9059cbb906044016020604051808303816000875af115801561107f573d6000803e3d6000fd5b505050506040513d601f19601f820116820180604052508101906110a391906113fd565b50600480546040517fa9059cbb00000000000000000000000000000000000000000000000000000000815273ffffffffffffffffffffffffffffffffffffffff91821692810192909252602482018390528a169063a9059cbb906044016020604051808303816000875af115801561111f573d6000803e3d6000fd5b505050506040513d601f19601f8201168201806040525081019061114391906113fd565b505b8082611151858d611608565b61115b9190611608565b6111659190611608565b9a92995090975095509350505050565b803573ffffffffffffffffffffffffffffffffffffffff8116811461119957600080fd5b919050565b600080600080600060a086880312156111b657600080fd5b6111bf86611175565b94506111cd60208701611175565b93506111db60408701611175565b92506111e960608701611175565b91506111f760808701611175565b90509295509295909350565b60008083601f84011261121557600080fd5b50813567ffffffffffffffff81111561122d57600080fd5b6020830191508360208260051b850101111561124857600080fd5b9250929050565b60008060008060008060a0878903121561126857600080fd5b8635955060208701359450604087013567ffffffffffffffff81111561128d57600080fd5b61129989828a01611203565b90955093506112ac905060608801611175565b95989497509295919493608090920135925050565b602080825282518282018190526000918401906040840190835b818110156112f95783518352602093840193909201916001016112db565b509095945050505050565b6000806020838503121561131757600080fd5b823567ffffffffffffffff81111561132e57600080fd5b61133a85828601611203565b90969095509350505050565b60008060008060006080868803121561135e57600080fd5b85359450602086013567ffffffffffffffff81111561137c57600080fd5b61138888828901611203565b909550935061139b905060408701611175565b949793965091946060013592915050565b7f4e487b7100000000000000000000000000000000000000000000000000000000600052603260045260246000fd5b6000602082840312156113ed57600080fd5b6113f682611175565b9392505050565b60006020828403121561140f57600080fd5b815180151581146113f657600080fd5b81835260208301925060008160005b8481101561146a5773ffffffffffffffffffffffffffffffffffffffff61145483611175565b168652602095860195919091019060010161142e565b5093949350505050565b86815285602082015260a06040820152600061149460a08301868861141f565b73ffffffffffffffffffffffffffffffffffffffff9490941660608301525060800152949350505050565b7f4e487b7100000000000000000000000000000000000000000000000000000000600052604160045260246000fd5b60006020828403121561150057600080fd5b815167ffffffffffffffff81111561151757600080fd5b8201601f8101841361152857600080fd5b805167ffffffffffffffff811115611542576115426114bf565b8060051b6040517fffffffffffffffffffffffffffffffffffffffffffffffffffffffffffffffe0603f830116810181811067ffffffffffffffff8211171561158d5761158d6114bf565b6040529182526020818401810192908101878411156115ab57600080fd5b6020850194505b838510156115ce578451808252602095860195909350016115b2565b509695505050505050565b7f4e487b7100000000000000000000000000000000000000000000000000000000600052601160045260246000fd5b8181038181111561161b5761161b6115d9565b92915050565b60006020828403121561163357600080fd5b5051919050565b85815260806020820152600061165460808301868861141f565b73ffffffffffffffffffffffffffffffffffffffff94909416604083015250606001529392505050565b60006020828403121561169057600080fd5b815161ffff811681146113f657600080fd5b808202811582820484141761161b5761161b6115d9565b6000826116ef577f4e487b7100000000000000000000000000000000000000000000000000000000600052601260045260246000fd5b50049056fea2646970667358221220a48533e884db5e30b2edebc699af357efa0c251ed67147fd09c974deb7caf1df64736f6c634300081d0033",
  "linkReferences": {},
  "deployedLinkReferences": {}
}