{
  "_format": "hh-sol-artifact-1",
  "contractName": "Sherry",
  "sourceName": "src/Sherry.sol",
  "abi": [
    {
      "inputs": [
        {
          "internalType": "address",
          "name": "_brandContract",
          "type": "address"
        },
        {
          "internalType": "address",
          "name": "_campaignContract",
          "type": "address"
        },
        {
          "internalType": "address",
          "name": "_kolContract",
          "type": "address"
        }
      ],
      "stateMutability": "nonpayable",
      "type": "constructor"
    },
    {
      "inputs": [
        {
          "internalType": "address",
          "name": "owner",
          "type": "address"
        }
      ],
      "name": "OwnableInvalidOwner",
      "type": "error"
    },
    {
      "inputs": [
        {
          "internalType": "address",
          "name": "account",
          "type": "address"
        }
      ],
      "name": "OwnableUnauthorizedAccount",
      "type": "error"
    },
    {
      "anonymous": false,
      "inputs": [
        {
          "indexed": true,
          "internalType": "uint256",
          "name": "idLink",
          "type": "uint256"
        },
        {
          "indexed": true,
          "internalType": "address",
          "name": "kol",
          "type": "address"
        },
        {
          "indexed": true,
          "internalType": "uint256",
          "name": "idCampaign",
          "type": "uint256"
        },
        {
          "indexed": false,
          "internalType": "string",
          "name": "url",
          "type": "string"
        }
      ],
      "name": "LinkCreated",
      "type": "event"
    },
    {
      "anonymous": false,
      "inputs": [
        {
          "indexed": true,
          "internalType": "address",
          "name": "previousOwner",
          "type": "address"
        },
        {
          "indexed": true,
          "internalType": "address",
          "name": "newOwner",
          "type": "address"
        }
      ],
      "name": "OwnershipTransferred",
      "type": "event"
    },
    {
      "anonymous": false,
      "inputs": [
        {
          "indexed": true,
          "internalType": "uint256",
          "name": "idLink",
          "type": "uint256"
        },
        {
          "indexed": true,
          "internalType": "address",
          "name": "voter",
          "type": "address"
        }
      ],
      "name": "Voted",
      "type": "event"
    },
    {
      "inputs": [
        {
          "internalType": "uint256",
          "name": "_idKolCampaign",
          "type": "uint256"
        },
        {
          "internalType": "string",
          "name": "_url",
          "type": "string"
        }
      ],
      "name": "createLink",
      "outputs": [],
      "stateMutability": "nonpayable",
      "type": "function"
    },
    {
      "inputs": [],
      "name": "i_brandContract",
      "outputs": [
        {
          "internalType": "contract IBrand",
          "name": "",
          "type": "address"
        }
      ],
      "stateMutability": "view",
      "type": "function"
    },
    {
      "inputs": [],
      "name": "i_campaignContract",
      "outputs": [
        {
          "internalType": "contract ICampaign",
          "name": "",
          "type": "address"
        }
      ],
      "stateMutability": "view",
      "type": "function"
    },
    {
      "inputs": [],
      "name": "i_kolContract",
      "outputs": [
        {
          "internalType": "contract IKOL",
          "name": "",
          "type": "address"
        }
      ],
      "stateMutability": "view",
      "type": "function"
    },
    {
      "inputs": [],
      "name": "idLink",
      "outputs": [
        {
          "internalType": "uint256",
          "name": "",
          "type": "uint256"
        }
      ],
      "stateMutability": "view",
      "type": "function"
    },
    {
      "inputs": [],
      "name": "owner",
      "outputs": [
        {
          "internalType": "address",
          "name": "",
          "type": "address"
        }
      ],
      "stateMutability": "view",
      "type": "function"
    },
    {
      "inputs": [],
      "name": "renounceOwnership",
      "outputs": [],
      "stateMutability": "nonpayable",
      "type": "function"
    },
    {
      "inputs": [
        {
          "internalType": "uint256",
          "name": "",
          "type": "uint256"
        }
      ],
      "name": "s_links",
      "outputs": [
        {
          "internalType": "uint256",
          "name": "idKolCampaign",
          "type": "uint256"
        },
        {
          "internalType": "address",
          "name": "kol",
          "type": "address"
        },
        {
          "internalType": "uint256",
          "name": "idCampaign",
          "type": "uint256"
        },
        {
          "internalType": "string",
          "name": "url",
          "type": "string"
        }
      ],
      "stateMutability": "view",
      "type": "function"
    },
    {
      "inputs": [
        {
          "internalType": "uint256",
          "name": "",
          "type": "uint256"
        }
      ],
      "name": "s_votes",
      "outputs": [
        {
          "internalType": "uint256",
          "name": "",
          "type": "uint256"
        }
      ],
      "stateMutability": "view",
      "type": "function"
    },
    {
      "inputs": [
        {
          "internalType": "uint256",
          "name": "",
          "type": "uint256"
        },
        {
          "internalType": "address",
          "name": "",
          "type": "address"
        }
      ],
      "name": "s_votesFollowers",
      "outputs": [
        {
          "internalType": "bool",
          "name": "",
          "type": "bool"
        }
      ],
      "stateMutability": "view",
      "type": "function"
    },
    {
      "inputs": [
        {
          "internalType": "address",
          "name": "newOwner",
          "type": "address"
        }
      ],
      "name": "transferOwnership",
      "outputs": [],
      "stateMutability": "nonpayable",
      "type": "function"
    },
    {
      "inputs": [
        {
          "internalType": "uint256",
          "name": "_idLink",
          "type": "uint256"
        }
      ],
      "name": "vote",
      "outputs": [
        {
          "internalType": "bool",
          "name": "",
          "type": "bool"
        }
      ],
      "stateMutability": "nonpayable",
      "type": "function"
    }
  ],
  "bytecode": "0x608060405234801561001057600080fd5b50604051611b6e380380611b6e833981810160405281019061003291906103f4565b33600073ffffffffffffffffffffffffffffffffffffffff168173ffffffffffffffffffffffffffffffffffffffff16036100a55760006040517f1e4fbdf700000000000000000000000000000000000000000000000000000000815260040161009c9190610456565b60405180910390fd5b6100b4816102cd60201b60201c565b50600073ffffffffffffffffffffffffffffffffffffffff168373ffffffffffffffffffffffffffffffffffffffff1603610124576040517f08c379a000000000000000000000000000000000000000000000000000000000815260040161011b906104ce565b60405180910390fd5b600073ffffffffffffffffffffffffffffffffffffffff168273ffffffffffffffffffffffffffffffffffffffff1603610193576040517f08c379a000000000000000000000000000000000000000000000000000000000815260040161018a90610560565b60405180910390fd5b600073ffffffffffffffffffffffffffffffffffffffff168173ffffffffffffffffffffffffffffffffffffffff1603610202576040517f08c379a00000000000000000000000000000000000000000000000000000000081526004016101f9906105cc565b60405180910390fd5b82600160006101000a81548173ffffffffffffffffffffffffffffffffffffffff021916908373ffffffffffffffffffffffffffffffffffffffff16021790555081600260006101000a81548173ffffffffffffffffffffffffffffffffffffffff021916908373ffffffffffffffffffffffffffffffffffffffff16021790555080600360006101000a81548173ffffffffffffffffffffffffffffffffffffffff021916908373ffffffffffffffffffffffffffffffffffffffff1602179055505050506105ec565b60008060009054906101000a900473ffffffffffffffffffffffffffffffffffffffff169050816000806101000a81548173ffffffffffffffffffffffffffffffffffffffff021916908373ffffffffffffffffffffffffffffffffffffffff1602179055508173ffffffffffffffffffffffffffffffffffffffff168173ffffffffffffffffffffffffffffffffffffffff167f8be0079c531659141344cd1fd0a4f28419497f9722a3daafe3b4186f6b6457e060405160405180910390a35050565b600080fd5b600073ffffffffffffffffffffffffffffffffffffffff82169050919050565b60006103c182610396565b9050919050565b6103d1816103b6565b81146103dc57600080fd5b50565b6000815190506103ee816103c8565b92915050565b60008060006060848603121561040d5761040c610391565b5b600061041b868287016103df565b935050602061042c868287016103df565b925050604061043d868287016103df565b9150509250925092565b610450816103b6565b82525050565b600060208201905061046b6000830184610447565b92915050565b600082825260208201905092915050565b7f496e76616c6964206272616e6420636f6e747261637420616464726573730000600082015250565b60006104b8601e83610471565b91506104c382610482565b602082019050919050565b600060208201905081810360008301526104e7816104ab565b9050919050565b7f496e76616c69642063616d706169676e20636f6e74726163742061646472657360008201527f7300000000000000000000000000000000000000000000000000000000000000602082015250565b600061054a602183610471565b9150610555826104ee565b604082019050919050565b600060208201905081810360008301526105798161053d565b9050919050565b7f496e76616c6964204b4f4c20636f6e7472616374206164647265737300000000600082015250565b60006105b6601c83610471565b91506105c182610580565b602082019050919050565b600060208201905081810360008301526105e5816105a9565b9050919050565b611573806105fb6000396000f3fe608060405234801561001057600080fd5b50600436106100b45760003560e01c80639197cc37116100715780639197cc371461018f578063aaabe885146101ad578063cad613e6146101c9578063d70c6130146101e7578063e2abe00c14610205578063f2fde38b14610238576100b4565b80630121b93f146100b957806326e75bad146100e9578063354219f2146101075780634bd6caf114610137578063715018a6146101675780638da5cb5b14610171575b600080fd5b6100d360048036038101906100ce9190610aaf565b610254565b6040516100e09190610af7565b60405180910390f35b6100f161042f565b6040516100fe9190610b91565b60405180910390f35b610121600480360381019061011c9190610bea565b610455565b60405161012e9190610af7565b60405180910390f35b610151600480360381019061014c9190610aaf565b610484565b60405161015e9190610c39565b60405180910390f35b61016f61049c565b005b6101796104b0565b6040516101869190610c63565b60405180910390f35b6101976104d9565b6040516101a49190610c9f565b60405180910390f35b6101c760048036038101906101c29190610e00565b6104ff565b005b6101d1610788565b6040516101de9190610c39565b60405180910390f35b6101ef61078e565b6040516101fc9190610e7d565b60405180910390f35b61021f600480360381019061021a9190610aaf565b6107b4565b60405161022f9493929190610f17565b60405180910390f35b610252600480360381019061024d9190610f63565b61088c565b005b6000806005600084815260200190815260200160002060020154036102ae576040517f08c379a00000000000000000000000000000000000000000000000000000000081526004016102a590610fdc565b60405180910390fd5b6006600083815260200190815260200160002060003373ffffffffffffffffffffffffffffffffffffffff1673ffffffffffffffffffffffffffffffffffffffff16815260200190815260200160002060009054906101000a900460ff161561034c576040517f08c379a000000000000000000000000000000000000000000000000000000000815260040161034390611048565b60405180910390fd5b600160066000600454815260200190815260200160002060003373ffffffffffffffffffffffffffffffffffffffff1673ffffffffffffffffffffffffffffffffffffffff16815260200190815260200160002060006101000a81548160ff0219169083151502179055506007600083815260200190815260200160002060008154809291906103db90611097565b91905055503373ffffffffffffffffffffffffffffffffffffffff166004547f030b0f8dcd86a031eddb071f91882edeac8173663ba775713b677b42b51be44b60405160405180910390a360019050919050565b600360009054906101000a900473ffffffffffffffffffffffffffffffffffffffff1681565b60066020528160005260406000206020528060005260406000206000915091509054906101000a900460ff1681565b60076020528060005260406000206000915090505481565b6104a4610912565b6104ae6000610999565b565b60008060009054906101000a900473ffffffffffffffffffffffffffffffffffffffff16905090565b600160009054906101000a900473ffffffffffffffffffffffffffffffffffffffff1681565b600080600360009054906101000a900473ffffffffffffffffffffffffffffffffffffffff1673ffffffffffffffffffffffffffffffffffffffff16639f7dff74856040518263ffffffff1660e01b815260040161055d9190610c39565b6040805180830381865afa158015610579573d6000803e3d6000fd5b505050506040513d601f19601f8201168201806040525081019061059d9190611109565b915091503373ffffffffffffffffffffffffffffffffffffffff168273ffffffffffffffffffffffffffffffffffffffff161461060f576040517f08c379a0000000000000000000000000000000000000000000000000000000008152600401610606906111bb565b60405180910390fd5b60008103610652576040517f08c379a000000000000000000000000000000000000000000000000000000000815260040161064990611227565b60405180910390fd5b6004600081548092919061066590611097565b9190505550600060405180608001604052808681526020018473ffffffffffffffffffffffffffffffffffffffff168152602001838152602001858152509050806005600060045481526020019081526020016000206000820151816000015560208201518160010160006101000a81548173ffffffffffffffffffffffffffffffffffffffff021916908373ffffffffffffffffffffffffffffffffffffffff16021790555060408201518160020155606082015181600301908161072b9190611449565b50905050818373ffffffffffffffffffffffffffffffffffffffff166004547f1016ef25d7c8b96751b9a679fe957a43ebdf5e253bacdac3d7b0ac81beb1233f87604051610779919061151b565b60405180910390a45050505050565b60045481565b600260009054906101000a900473ffffffffffffffffffffffffffffffffffffffff1681565b60056020528060005260406000206000915090508060000154908060010160009054906101000a900473ffffffffffffffffffffffffffffffffffffffff169080600201549080600301805461080990611276565b80601f016020809104026020016040519081016040528092919081815260200182805461083590611276565b80156108825780601f1061085757610100808354040283529160200191610882565b820191906000526020600020905b81548152906001019060200180831161086557829003601f168201915b5050505050905084565b610894610912565b600073ffffffffffffffffffffffffffffffffffffffff168173ffffffffffffffffffffffffffffffffffffffff16036109065760006040517f1e4fbdf70000000000000000000000000000000000000000000000000000000081526004016108fd9190610c63565b60405180910390fd5b61090f81610999565b50565b61091a610a5d565b73ffffffffffffffffffffffffffffffffffffffff166109386104b0565b73ffffffffffffffffffffffffffffffffffffffff16146109975761095b610a5d565b6040517f118cdaa700000000000000000000000000000000000000000000000000000000815260040161098e9190610c63565b60405180910390fd5b565b60008060009054906101000a900473ffffffffffffffffffffffffffffffffffffffff169050816000806101000a81548173ffffffffffffffffffffffffffffffffffffffff021916908373ffffffffffffffffffffffffffffffffffffffff1602179055508173ffffffffffffffffffffffffffffffffffffffff168173ffffffffffffffffffffffffffffffffffffffff167f8be0079c531659141344cd1fd0a4f28419497f9722a3daafe3b4186f6b6457e060405160405180910390a35050565b600033905090565b6000604051905090565b600080fd5b600080fd5b6000819050919050565b610a8c81610a79565b8114610a9757600080fd5b50565b600081359050610aa981610a83565b92915050565b600060208284031215610ac557610ac4610a6f565b5b6000610ad384828501610a9a565b91505092915050565b60008115159050919050565b610af181610adc565b82525050565b6000602082019050610b0c6000830184610ae8565b92915050565b600073ffffffffffffffffffffffffffffffffffffffff82169050919050565b6000819050919050565b6000610b57610b52610b4d84610b12565b610b32565b610b12565b9050919050565b6000610b6982610b3c565b9050919050565b6000610b7b82610b5e565b9050919050565b610b8b81610b70565b82525050565b6000602082019050610ba66000830184610b82565b92915050565b6000610bb782610b12565b9050919050565b610bc781610bac565b8114610bd257600080fd5b50565b600081359050610be481610bbe565b92915050565b60008060408385031215610c0157610c00610a6f565b5b6000610c0f85828601610a9a565b9250506020610c2085828601610bd5565b9150509250929050565b610c3381610a79565b82525050565b6000602082019050610c4e6000830184610c2a565b92915050565b610c5d81610bac565b82525050565b6000602082019050610c786000830184610c54565b92915050565b6000610c8982610b5e565b9050919050565b610c9981610c7e565b82525050565b6000602082019050610cb46000830184610c90565b92915050565b600080fd5b600080fd5b6000601f19601f8301169050919050565b7f4e487b7100000000000000000000000000000000000000000000000000000000600052604160045260246000fd5b610d0d82610cc4565b810181811067ffffffffffffffff82111715610d2c57610d2b610cd5565b5b80604052505050565b6000610d3f610a65565b9050610d4b8282610d04565b919050565b600067ffffffffffffffff821115610d6b57610d6a610cd5565b5b610d7482610cc4565b9050602081019050919050565b82818337600083830152505050565b6000610da3610d9e84610d50565b610d35565b905082815260208101848484011115610dbf57610dbe610cbf565b5b610dca848285610d81565b509392505050565b600082601f830112610de757610de6610cba565b5b8135610df7848260208601610d90565b91505092915050565b60008060408385031215610e1757610e16610a6f565b5b6000610e2585828601610a9a565b925050602083013567ffffffffffffffff811115610e4657610e45610a74565b5b610e5285828601610dd2565b9150509250929050565b6000610e6782610b5e565b9050919050565b610e7781610e5c565b82525050565b6000602082019050610e926000830184610e6e565b92915050565b600081519050919050565b600082825260208201905092915050565b60005b83811015610ed2578082015181840152602081019050610eb7565b60008484015250505050565b6000610ee982610e98565b610ef38185610ea3565b9350610f03818560208601610eb4565b610f0c81610cc4565b840191505092915050565b6000608082019050610f2c6000830187610c2a565b610f396020830186610c54565b610f466040830185610c2a565b8181036060830152610f588184610ede565b905095945050505050565b600060208284031215610f7957610f78610a6f565b5b6000610f8784828501610bd5565b91505092915050565b7f4c696e6b206e6f7420666f756e64000000000000000000000000000000000000600082015250565b6000610fc6600e83610ea3565b9150610fd182610f90565b602082019050919050565b60006020820190508181036000830152610ff581610fb9565b9050919050565b7f416c726561647920766f74656400000000000000000000000000000000000000600082015250565b6000611032600d83610ea3565b915061103d82610ffc565b602082019050919050565b6000602082019050818103600083015261106181611025565b9050919050565b7f4e487b7100000000000000000000000000000000000000000000000000000000600052601160045260246000fd5b60006110a282610a79565b91507fffffffffffffffffffffffffffffffffffffffffffffffffffffffffffffffff82036110d4576110d3611068565b5b600182019050919050565b6000815190506110ee81610bbe565b92915050565b60008151905061110381610a83565b92915050565b600080604083850312156111205761111f610a6f565b5b600061112e858286016110df565b925050602061113f858286016110f4565b9150509250929050565b7f596f752063616e206f6e6c7920637265617465206c696e6b7320666f7220796f60008201527f757273656c660000000000000000000000000000000000000000000000000000602082015250565b60006111a5602683610ea3565b91506111b082611149565b604082019050919050565b600060208201905081810360008301526111d481611198565b9050919050565b7f43616d706169676e206e6f7420666f756e640000000000000000000000000000600082015250565b6000611211601283610ea3565b915061121c826111db565b602082019050919050565b6000602082019050818103600083015261124081611204565b9050919050565b7f4e487b7100000000000000000000000000000000000000000000000000000000600052602260045260246000fd5b6000600282049050600182168061128e57607f821691505b6020821081036112a1576112a0611247565b5b50919050565b60008190508160005260206000209050919050565b60006020601f8301049050919050565b600082821b905092915050565b6000600883026113097fffffffffffffffffffffffffffffffffffffffffffffffffffffffffffffffff826112cc565b61131386836112cc565b95508019841693508086168417925050509392505050565b600061134661134161133c84610a79565b610b32565b610a79565b9050919050565b6000819050919050565b6113608361132b565b61137461136c8261134d565b8484546112d9565b825550505050565b600090565b61138961137c565b611394818484611357565b505050565b5b818110156113b8576113ad600082611381565b60018101905061139a565b5050565b601f8211156113fd576113ce816112a7565b6113d7846112bc565b810160208510156113e6578190505b6113fa6113f2856112bc565b830182611399565b50505b505050565b600082821c905092915050565b600061142060001984600802611402565b1980831691505092915050565b6000611439838361140f565b9150826002028217905092915050565b61145282610e98565b67ffffffffffffffff81111561146b5761146a610cd5565b5b6114758254611276565b6114808282856113bc565b600060209050601f8311600181146114b357600084156114a1578287015190505b6114ab858261142d565b865550611513565b601f1984166114c1866112a7565b60005b828110156114e9578489015182556001820191506020850194506020810190506114c4565b868310156115065784890151611502601f89168261140f565b8355505b6001600288020188555050505b505050505050565b600060208201905081810360008301526115358184610ede565b90509291505056fea2646970667358221220e998824a5ca047cb8aaf64e15b86cfa4d4f6ebee9f99e1a4b7bf60032f78693264736f6c63430008190033",
  "linkReferences": {},
  "deployedLinkReferences": {}
}